{
	"data": {
		"bytecode": {
			"linkReferences": {},
			"object": "608060405234801561000f575f5ffd5b50604051610a47380380610a4783398181016040528101906100319190610233565b335f5f6101000a81548173ffffffffffffffffffffffffffffffffffffffff021916908373ffffffffffffffffffffffffffffffffffffffff160217905550826001908161007f91906104af565b508163ffffffff164261009291906105ab565b6002819055508063ffffffff166003819055505050506105de565b5f604051905090565b5f5ffd5b5f5ffd5b5f5ffd5b5f5ffd5b5f601f19601f8301169050919050565b7f4e487b71000000000000000000000000000000000000000000000000000000005f52604160045260245ffd5b61010c826100c6565b810181811067ffffffffffffffff8211171561012b5761012a6100d6565b5b80604052505050565b5f61013d6100ad565b90506101498282610103565b919050565b5f67ffffffffffffffff821115610168576101676100d6565b5b610171826100c6565b9050602081019050919050565b8281835e5f83830152505050565b5f61019e6101998461014e565b610134565b9050828152602081018484840111156101ba576101b96100c2565b5b6101c584828561017e565b509392505050565b5f82601f8301126101e1576101e06100be565b5b81516101f184826020860161018c565b91505092915050565b5f63ffffffff82169050919050565b610212816101fa565b811461021c575f5ffd5b50565b5f8151905061022d81610209565b92915050565b5f5f5f6060848603121561024a576102496100b6565b5b5f84015167ffffffffffffffff811115610267576102666100ba565b5b610273868287016101cd565b93505060206102848682870161021f565b92505060406102958682870161021f565b9150509250925092565b5f81519050919050565b7f4e487b71000000000000000000000000000000000000000000000000000000005f52602260045260245ffd5b5f60028204905060018216806102ed57607f821691505b602082108103610300576102ff6102a9565b5b50919050565b5f819050815f5260205f209050919050565b5f6020601f8301049050919050565b5f82821b905092915050565b5f600883026103627fffffffffffffffffffffffffffffffffffffffffffffffffffffffffffffffff82610327565b61036c8683610327565b95508019841693508086168417925050509392505050565b5f819050919050565b5f819050919050565b5f6103b06103ab6103a684610384565b61038d565b610384565b9050919050565b5f819050919050565b6103c983610396565b6103dd6103d5826103b7565b848454610333565b825550505050565b5f5f905090565b6103f46103e5565b6103ff8184846103c0565b505050565b5b81811015610422576104175f826103ec565b600181019050610405565b5050565b601f8211156104675761043881610306565b61044184610318565b81016020851015610450578190505b61046461045c85610318565b830182610404565b50505b505050565b5f82821c905092915050565b5f6104875f198460080261046c565b1980831691505092915050565b5f61049f8383610478565b9150826002028217905092915050565b6104b88261029f565b67ffffffffffffffff8111156104d1576104d06100d6565b5b6104db82546102d6565b6104e6828285610426565b5f60209050601f831160018114610517575f8415610505578287015190505b61050f8582610494565b865550610576565b601f19841661052586610306565b5f5b8281101561054c57848901518255600182019150602085019450602081019050610527565b868310156105695784890151610565601f891682610478565b8355505b6001600288020188555050505b505050505050565b7f4e487b71000000000000000000000000000000000000000000000000000000005f52601160045260245ffd5b5f6105b582610384565b91506105c083610384565b92508282019050808211156105d8576105d761057e565b5b92915050565b61045c806105eb5f395ff3fe608060405260043610610028575f3560e01c80639e4079981461002c578063d4e9329214610036575b5f5ffd5b61003461004c565b005b348015610041575f5ffd5b5061004a6101be565b005b5f5f905061025860025461006091906101f6565b42101561007057600190506100aa565b60056004015f9054906101000a900460ff16801561009f575061025860056001015461009c9190610229565b42105b156100a957600190505b5b806100ea576040517f08c379a00000000000000000000000000000000000000000000000000000000081526004016100e1906102dc565b60405180910390fd5b5f5f905060056004015f9054906101000a900460ff168015610137575060646005806003015461011a91906102fa565b6101249190610368565b6005600301546101349190610229565b34115b15610145576001905061017a565b6064600560035461015691906102fa565b6101609190610368565b60035461016d9190610229565b34111561017957600190505b5b806101ba576040517f08c379a00000000000000000000000000000000000000000000000000000000081526004016101b190610408565b60405180910390fd5b5050565b565b5f819050919050565b7f4e487b71000000000000000000000000000000000000000000000000000000005f52601160045260245ffd5b5f610200826101c0565b915061020b836101c0565b9250828203905081811115610223576102226101c9565b5b92915050565b5f610233826101c0565b915061023e836101c0565b9250828201905080821115610256576102556101c9565b5b92915050565b5f82825260208201905092915050565b7f5468652074696d6520666f7220706c616365206120626964206861732066696e5f8201527f6973680000000000000000000000000000000000000000000000000000000000602082015250565b5f6102c660238361025c565b91506102d18261026c565b604082019050919050565b5f6020820190508181035f8301526102f3816102ba565b9050919050565b5f610304826101c0565b915061030f836101c0565b925082820261031d816101c0565b91508282048414831517610334576103336101c9565b5b5092915050565b7f4e487b71000000000000000000000000000000000000000000000000000000005f52601260045260245ffd5b5f610372826101c0565b915061037d836101c0565b92508261038d5761038c61033b565b5b828204905092915050565b7f412076616c696420626964206d757374206265203520252067726561746572205f8201527f7468616e20746865206c617374206269642e0000000000000000000000000000602082015250565b5f6103f260328361025c565b91506103fd82610398565b604082019050919050565b5f6020820190508181035f83015261041f816103e6565b905091905056fea2646970667358221220e0a6178a42360610b40c5ef701b227c115ccd68eb4a5d36bf76e79f2b1c164a164736f6c634300081e0033",
			"opcodes": "PUSH1 0x80 PUSH1 0x40 MSTORE CALLVALUE DUP1 ISZERO PUSH2 0xF JUMPI PUSH0 PUSH0 REVERT JUMPDEST POP PUSH1 0x40 MLOAD PUSH2 0xA47 CODESIZE SUB DUP1 PUSH2 0xA47 DUP4 CODECOPY DUP2 DUP2 ADD PUSH1 0x40 MSTORE DUP2 ADD SWAP1 PUSH2 0x31 SWAP2 SWAP1 PUSH2 0x233 JUMP JUMPDEST CALLER PUSH0 PUSH0 PUSH2 0x100 EXP DUP2 SLOAD DUP2 PUSH20 0xFFFFFFFFFFFFFFFFFFFFFFFFFFFFFFFFFFFFFFFF MUL NOT AND SWAP1 DUP4 PUSH20 0xFFFFFFFFFFFFFFFFFFFFFFFFFFFFFFFFFFFFFFFF AND MUL OR SWAP1 SSTORE POP DUP3 PUSH1 0x1 SWAP1 DUP2 PUSH2 0x7F SWAP2 SWAP1 PUSH2 0x4AF JUMP JUMPDEST POP DUP2 PUSH4 0xFFFFFFFF AND TIMESTAMP PUSH2 0x92 SWAP2 SWAP1 PUSH2 0x5AB JUMP JUMPDEST PUSH1 0x2 DUP2 SWAP1 SSTORE POP DUP1 PUSH4 0xFFFFFFFF AND PUSH1 0x3 DUP2 SWAP1 SSTORE POP POP POP POP PUSH2 0x5DE JUMP JUMPDEST PUSH0 PUSH1 0x40 MLOAD SWAP1 POP SWAP1 JUMP JUMPDEST PUSH0 PUSH0 REVERT JUMPDEST PUSH0 PUSH0 REVERT JUMPDEST PUSH0 PUSH0 REVERT JUMPDEST PUSH0 PUSH0 REVERT JUMPDEST PUSH0 PUSH1 0x1F NOT PUSH1 0x1F DUP4 ADD AND SWAP1 POP SWAP2 SWAP1 POP JUMP JUMPDEST PUSH32 0x4E487B7100000000000000000000000000000000000000000000000000000000 PUSH0 MSTORE PUSH1 0x41 PUSH1 0x4 MSTORE PUSH1 0x24 PUSH0 REVERT JUMPDEST PUSH2 0x10C DUP3 PUSH2 0xC6 JUMP JUMPDEST DUP2 ADD DUP2 DUP2 LT PUSH8 0xFFFFFFFFFFFFFFFF DUP3 GT OR ISZERO PUSH2 0x12B JUMPI PUSH2 0x12A PUSH2 0xD6 JUMP JUMPDEST JUMPDEST DUP1 PUSH1 0x40 MSTORE POP POP POP JUMP JUMPDEST PUSH0 PUSH2 0x13D PUSH2 0xAD JUMP JUMPDEST SWAP1 POP PUSH2 0x149 DUP3 DUP3 PUSH2 0x103 JUMP JUMPDEST SWAP2 SWAP1 POP JUMP JUMPDEST PUSH0 PUSH8 0xFFFFFFFFFFFFFFFF DUP3 GT ISZERO PUSH2 0x168 JUMPI PUSH2 0x167 PUSH2 0xD6 JUMP JUMPDEST JUMPDEST PUSH2 0x171 DUP3 PUSH2 0xC6 JUMP JUMPDEST SWAP1 POP PUSH1 0x20 DUP2 ADD SWAP1 POP SWAP2 SWAP1 POP JUMP JUMPDEST DUP3 DUP2 DUP4 MCOPY PUSH0 DUP4 DUP4 ADD MSTORE POP POP POP JUMP JUMPDEST PUSH0 PUSH2 0x19E PUSH2 0x199 DUP5 PUSH2 0x14E JUMP JUMPDEST PUSH2 0x134 JUMP JUMPDEST SWAP1 POP DUP3 DUP2 MSTORE PUSH1 0x20 DUP2 ADD DUP5 DUP5 DUP5 ADD GT ISZERO PUSH2 0x1BA JUMPI PUSH2 0x1B9 PUSH2 0xC2 JUMP JUMPDEST JUMPDEST PUSH2 0x1C5 DUP5 DUP3 DUP6 PUSH2 0x17E JUMP JUMPDEST POP SWAP4 SWAP3 POP POP POP JUMP JUMPDEST PUSH0 DUP3 PUSH1 0x1F DUP4 ADD SLT PUSH2 0x1E1 JUMPI PUSH2 0x1E0 PUSH2 0xBE JUMP JUMPDEST JUMPDEST DUP2 MLOAD PUSH2 0x1F1 DUP5 DUP3 PUSH1 0x20 DUP7 ADD PUSH2 0x18C JUMP JUMPDEST SWAP2 POP POP SWAP3 SWAP2 POP POP JUMP JUMPDEST PUSH0 PUSH4 0xFFFFFFFF DUP3 AND SWAP1 POP SWAP2 SWAP1 POP JUMP JUMPDEST PUSH2 0x212 DUP2 PUSH2 0x1FA JUMP JUMPDEST DUP2 EQ PUSH2 0x21C JUMPI PUSH0 PUSH0 REVERT JUMPDEST POP JUMP JUMPDEST PUSH0 DUP2 MLOAD SWAP1 POP PUSH2 0x22D DUP2 PUSH2 0x209 JUMP JUMPDEST SWAP3 SWAP2 POP POP JUMP JUMPDEST PUSH0 PUSH0 PUSH0 PUSH1 0x60 DUP5 DUP7 SUB SLT ISZERO PUSH2 0x24A JUMPI PUSH2 0x249 PUSH2 0xB6 JUMP JUMPDEST JUMPDEST PUSH0 DUP5 ADD MLOAD PUSH8 0xFFFFFFFFFFFFFFFF DUP2 GT ISZERO PUSH2 0x267 JUMPI PUSH2 0x266 PUSH2 0xBA JUMP JUMPDEST JUMPDEST PUSH2 0x273 DUP7 DUP3 DUP8 ADD PUSH2 0x1CD JUMP JUMPDEST SWAP4 POP POP PUSH1 0x20 PUSH2 0x284 DUP7 DUP3 DUP8 ADD PUSH2 0x21F JUMP JUMPDEST SWAP3 POP POP PUSH1 0x40 PUSH2 0x295 DUP7 DUP3 DUP8 ADD PUSH2 0x21F JUMP JUMPDEST SWAP2 POP POP SWAP3 POP SWAP3 POP SWAP3 JUMP JUMPDEST PUSH0 DUP2 MLOAD SWAP1 POP SWAP2 SWAP1 POP JUMP JUMPDEST PUSH32 0x4E487B7100000000000000000000000000000000000000000000000000000000 PUSH0 MSTORE PUSH1 0x22 PUSH1 0x4 MSTORE PUSH1 0x24 PUSH0 REVERT JUMPDEST PUSH0 PUSH1 0x2 DUP3 DIV SWAP1 POP PUSH1 0x1 DUP3 AND DUP1 PUSH2 0x2ED JUMPI PUSH1 0x7F DUP3 AND SWAP2 POP JUMPDEST PUSH1 0x20 DUP3 LT DUP2 SUB PUSH2 0x300 JUMPI PUSH2 0x2FF PUSH2 0x2A9 JUMP JUMPDEST JUMPDEST POP SWAP2 SWAP1 POP JUMP JUMPDEST PUSH0 DUP2 SWAP1 POP DUP2 PUSH0 MSTORE PUSH1 0x20 PUSH0 KECCAK256 SWAP1 POP SWAP2 SWAP1 POP JUMP JUMPDEST PUSH0 PUSH1 0x20 PUSH1 0x1F DUP4 ADD DIV SWAP1 POP SWAP2 SWAP1 POP JUMP JUMPDEST PUSH0 DUP3 DUP3 SHL SWAP1 POP SWAP3 SWAP2 POP POP JUMP JUMPDEST PUSH0 PUSH1 0x8 DUP4 MUL PUSH2 0x362 PUSH32 0xFFFFFFFFFFFFFFFFFFFFFFFFFFFFFFFFFFFFFFFFFFFFFFFFFFFFFFFFFFFFFFFF DUP3 PUSH2 0x327 JUMP JUMPDEST PUSH2 0x36C DUP7 DUP4 PUSH2 0x327 JUMP JUMPDEST SWAP6 POP DUP1 NOT DUP5 AND SWAP4 POP DUP1 DUP7 AND DUP5 OR SWAP3 POP POP POP SWAP4 SWAP3 POP POP POP JUMP JUMPDEST PUSH0 DUP2 SWAP1 POP SWAP2 SWAP1 POP JUMP JUMPDEST PUSH0 DUP2 SWAP1 POP SWAP2 SWAP1 POP JUMP JUMPDEST PUSH0 PUSH2 0x3B0 PUSH2 0x3AB PUSH2 0x3A6 DUP5 PUSH2 0x384 JUMP JUMPDEST PUSH2 0x38D JUMP JUMPDEST PUSH2 0x384 JUMP JUMPDEST SWAP1 POP SWAP2 SWAP1 POP JUMP JUMPDEST PUSH0 DUP2 SWAP1 POP SWAP2 SWAP1 POP JUMP JUMPDEST PUSH2 0x3C9 DUP4 PUSH2 0x396 JUMP JUMPDEST PUSH2 0x3DD PUSH2 0x3D5 DUP3 PUSH2 0x3B7 JUMP JUMPDEST DUP5 DUP5 SLOAD PUSH2 0x333 JUMP JUMPDEST DUP3 SSTORE POP POP POP POP JUMP JUMPDEST PUSH0 PUSH0 SWAP1 POP SWAP1 JUMP JUMPDEST PUSH2 0x3F4 PUSH2 0x3E5 JUMP JUMPDEST PUSH2 0x3FF DUP2 DUP5 DUP5 PUSH2 0x3C0 JUMP JUMPDEST POP POP POP JUMP JUMPDEST JUMPDEST DUP2 DUP2 LT ISZERO PUSH2 0x422 JUMPI PUSH2 0x417 PUSH0 DUP3 PUSH2 0x3EC JUMP JUMPDEST PUSH1 0x1 DUP2 ADD SWAP1 POP PUSH2 0x405 JUMP JUMPDEST POP POP JUMP JUMPDEST PUSH1 0x1F DUP3 GT ISZERO PUSH2 0x467 JUMPI PUSH2 0x438 DUP2 PUSH2 0x306 JUMP JUMPDEST PUSH2 0x441 DUP5 PUSH2 0x318 JUMP JUMPDEST DUP2 ADD PUSH1 0x20 DUP6 LT ISZERO PUSH2 0x450 JUMPI DUP2 SWAP1 POP JUMPDEST PUSH2 0x464 PUSH2 0x45C DUP6 PUSH2 0x318 JUMP JUMPDEST DUP4 ADD DUP3 PUSH2 0x404 JUMP JUMPDEST POP POP JUMPDEST POP POP POP JUMP JUMPDEST PUSH0 DUP3 DUP3 SHR SWAP1 POP SWAP3 SWAP2 POP POP JUMP JUMPDEST PUSH0 PUSH2 0x487 PUSH0 NOT DUP5 PUSH1 0x8 MUL PUSH2 0x46C JUMP JUMPDEST NOT DUP1 DUP4 AND SWAP2 POP POP SWAP3 SWAP2 POP POP JUMP JUMPDEST PUSH0 PUSH2 0x49F DUP4 DUP4 PUSH2 0x478 JUMP JUMPDEST SWAP2 POP DUP3 PUSH1 0x2 MUL DUP3 OR SWAP1 POP SWAP3 SWAP2 POP POP JUMP JUMPDEST PUSH2 0x4B8 DUP3 PUSH2 0x29F JUMP JUMPDEST PUSH8 0xFFFFFFFFFFFFFFFF DUP2 GT ISZERO PUSH2 0x4D1 JUMPI PUSH2 0x4D0 PUSH2 0xD6 JUMP JUMPDEST JUMPDEST PUSH2 0x4DB DUP3 SLOAD PUSH2 0x2D6 JUMP JUMPDEST PUSH2 0x4E6 DUP3 DUP3 DUP6 PUSH2 0x426 JUMP JUMPDEST PUSH0 PUSH1 0x20 SWAP1 POP PUSH1 0x1F DUP4 GT PUSH1 0x1 DUP2 EQ PUSH2 0x517 JUMPI PUSH0 DUP5 ISZERO PUSH2 0x505 JUMPI DUP3 DUP8 ADD MLOAD SWAP1 POP JUMPDEST PUSH2 0x50F DUP6 DUP3 PUSH2 0x494 JUMP JUMPDEST DUP7 SSTORE POP PUSH2 0x576 JUMP JUMPDEST PUSH1 0x1F NOT DUP5 AND PUSH2 0x525 DUP7 PUSH2 0x306 JUMP JUMPDEST PUSH0 JUMPDEST DUP3 DUP2 LT ISZERO PUSH2 0x54C JUMPI DUP5 DUP10 ADD MLOAD DUP3 SSTORE PUSH1 0x1 DUP3 ADD SWAP2 POP PUSH1 0x20 DUP6 ADD SWAP5 POP PUSH1 0x20 DUP2 ADD SWAP1 POP PUSH2 0x527 JUMP JUMPDEST DUP7 DUP4 LT ISZERO PUSH2 0x569 JUMPI DUP5 DUP10 ADD MLOAD PUSH2 0x565 PUSH1 0x1F DUP10 AND DUP3 PUSH2 0x478 JUMP JUMPDEST DUP4 SSTORE POP JUMPDEST PUSH1 0x1 PUSH1 0x2 DUP9 MUL ADD DUP9 SSTORE POP POP POP JUMPDEST POP POP POP POP POP POP JUMP JUMPDEST PUSH32 0x4E487B7100000000000000000000000000000000000000000000000000000000 PUSH0 MSTORE PUSH1 0x11 PUSH1 0x4 MSTORE PUSH1 0x24 PUSH0 REVERT JUMPDEST PUSH0 PUSH2 0x5B5 DUP3 PUSH2 0x384 JUMP JUMPDEST SWAP2 POP PUSH2 0x5C0 DUP4 PUSH2 0x384 JUMP JUMPDEST SWAP3 POP DUP3 DUP3 ADD SWAP1 POP DUP1 DUP3 GT ISZERO PUSH2 0x5D8 JUMPI PUSH2 0x5D7 PUSH2 0x57E JUMP JUMPDEST JUMPDEST SWAP3 SWAP2 POP POP JUMP JUMPDEST PUSH2 0x45C DUP1 PUSH2 0x5EB PUSH0 CODECOPY PUSH0 RETURN INVALID PUSH1 0x80 PUSH1 0x40 MSTORE PUSH1 0x4 CALLDATASIZE LT PUSH2 0x28 JUMPI PUSH0 CALLDATALOAD PUSH1 0xE0 SHR DUP1 PUSH4 0x9E407998 EQ PUSH2 0x2C JUMPI DUP1 PUSH4 0xD4E93292 EQ PUSH2 0x36 JUMPI JUMPDEST PUSH0 PUSH0 REVERT JUMPDEST PUSH2 0x34 PUSH2 0x4C JUMP JUMPDEST STOP JUMPDEST CALLVALUE DUP1 ISZERO PUSH2 0x41 JUMPI PUSH0 PUSH0 REVERT JUMPDEST POP PUSH2 0x4A PUSH2 0x1BE JUMP JUMPDEST STOP JUMPDEST PUSH0 PUSH0 SWAP1 POP PUSH2 0x258 PUSH1 0x2 SLOAD PUSH2 0x60 SWAP2 SWAP1 PUSH2 0x1F6 JUMP JUMPDEST TIMESTAMP LT ISZERO PUSH2 0x70 JUMPI PUSH1 0x1 SWAP1 POP PUSH2 0xAA JUMP JUMPDEST PUSH1 0x5 PUSH1 0x4 ADD PUSH0 SWAP1 SLOAD SWAP1 PUSH2 0x100 EXP SWAP1 DIV PUSH1 0xFF AND DUP1 ISZERO PUSH2 0x9F JUMPI POP PUSH2 0x258 PUSH1 0x5 PUSH1 0x1 ADD SLOAD PUSH2 0x9C SWAP2 SWAP1 PUSH2 0x229 JUMP JUMPDEST TIMESTAMP LT JUMPDEST ISZERO PUSH2 0xA9 JUMPI PUSH1 0x1 SWAP1 POP JUMPDEST JUMPDEST DUP1 PUSH2 0xEA JUMPI PUSH1 0x40 MLOAD PUSH32 0x8C379A000000000000000000000000000000000000000000000000000000000 DUP2 MSTORE PUSH1 0x4 ADD PUSH2 0xE1 SWAP1 PUSH2 0x2DC JUMP JUMPDEST PUSH1 0x40 MLOAD DUP1 SWAP2 SUB SWAP1 REVERT JUMPDEST PUSH0 PUSH0 SWAP1 POP PUSH1 0x5 PUSH1 0x4 ADD PUSH0 SWAP1 SLOAD SWAP1 PUSH2 0x100 EXP SWAP1 DIV PUSH1 0xFF AND DUP1 ISZERO PUSH2 0x137 JUMPI POP PUSH1 0x64 PUSH1 0x5 DUP1 PUSH1 0x3 ADD SLOAD PUSH2 0x11A SWAP2 SWAP1 PUSH2 0x2FA JUMP JUMPDEST PUSH2 0x124 SWAP2 SWAP1 PUSH2 0x368 JUMP JUMPDEST PUSH1 0x5 PUSH1 0x3 ADD SLOAD PUSH2 0x134 SWAP2 SWAP1 PUSH2 0x229 JUMP JUMPDEST CALLVALUE GT JUMPDEST ISZERO PUSH2 0x145 JUMPI PUSH1 0x1 SWAP1 POP PUSH2 0x17A JUMP JUMPDEST PUSH1 0x64 PUSH1 0x5 PUSH1 0x3 SLOAD PUSH2 0x156 SWAP2 SWAP1 PUSH2 0x2FA JUMP JUMPDEST PUSH2 0x160 SWAP2 SWAP1 PUSH2 0x368 JUMP JUMPDEST PUSH1 0x3 SLOAD PUSH2 0x16D SWAP2 SWAP1 PUSH2 0x229 JUMP JUMPDEST CALLVALUE GT ISZERO PUSH2 0x179 JUMPI PUSH1 0x1 SWAP1 POP JUMPDEST JUMPDEST DUP1 PUSH2 0x1BA JUMPI PUSH1 0x40 MLOAD PUSH32 0x8C379A000000000000000000000000000000000000000000000000000000000 DUP2 MSTORE PUSH1 0x4 ADD PUSH2 0x1B1 SWAP1 PUSH2 0x408 JUMP JUMPDEST PUSH1 0x40 MLOAD DUP1 SWAP2 SUB SWAP1 REVERT JUMPDEST POP POP JUMP JUMPDEST JUMP JUMPDEST PUSH0 DUP2 SWAP1 POP SWAP2 SWAP1 POP JUMP JUMPDEST PUSH32 0x4E487B7100000000000000000000000000000000000000000000000000000000 PUSH0 MSTORE PUSH1 0x11 PUSH1 0x4 MSTORE PUSH1 0x24 PUSH0 REVERT JUMPDEST PUSH0 PUSH2 0x200 DUP3 PUSH2 0x1C0 JUMP JUMPDEST SWAP2 POP PUSH2 0x20B DUP4 PUSH2 0x1C0 JUMP JUMPDEST SWAP3 POP DUP3 DUP3 SUB SWAP1 POP DUP2 DUP2 GT ISZERO PUSH2 0x223 JUMPI PUSH2 0x222 PUSH2 0x1C9 JUMP JUMPDEST JUMPDEST SWAP3 SWAP2 POP POP JUMP JUMPDEST PUSH0 PUSH2 0x233 DUP3 PUSH2 0x1C0 JUMP JUMPDEST SWAP2 POP PUSH2 0x23E DUP4 PUSH2 0x1C0 JUMP JUMPDEST SWAP3 POP DUP3 DUP3 ADD SWAP1 POP DUP1 DUP3 GT ISZERO PUSH2 0x256 JUMPI PUSH2 0x255 PUSH2 0x1C9 JUMP JUMPDEST JUMPDEST SWAP3 SWAP2 POP POP JUMP JUMPDEST PUSH0 DUP3 DUP3 MSTORE PUSH1 0x20 DUP3 ADD SWAP1 POP SWAP3 SWAP2 POP POP JUMP JUMPDEST PUSH32 0x5468652074696D6520666F7220706C616365206120626964206861732066696E PUSH0 DUP3 ADD MSTORE PUSH32 0x6973680000000000000000000000000000000000000000000000000000000000 PUSH1 0x20 DUP3 ADD MSTORE POP JUMP JUMPDEST PUSH0 PUSH2 0x2C6 PUSH1 0x23 DUP4 PUSH2 0x25C JUMP JUMPDEST SWAP2 POP PUSH2 0x2D1 DUP3 PUSH2 0x26C JUMP JUMPDEST PUSH1 0x40 DUP3 ADD SWAP1 POP SWAP2 SWAP1 POP JUMP JUMPDEST PUSH0 PUSH1 0x20 DUP3 ADD SWAP1 POP DUP2 DUP2 SUB PUSH0 DUP4 ADD MSTORE PUSH2 0x2F3 DUP2 PUSH2 0x2BA JUMP JUMPDEST SWAP1 POP SWAP2 SWAP1 POP JUMP JUMPDEST PUSH0 PUSH2 0x304 DUP3 PUSH2 0x1C0 JUMP JUMPDEST SWAP2 POP PUSH2 0x30F DUP4 PUSH2 0x1C0 JUMP JUMPDEST SWAP3 POP DUP3 DUP3 MUL PUSH2 0x31D DUP2 PUSH2 0x1C0 JUMP JUMPDEST SWAP2 POP DUP3 DUP3 DIV DUP5 EQ DUP4 ISZERO OR PUSH2 0x334 JUMPI PUSH2 0x333 PUSH2 0x1C9 JUMP JUMPDEST JUMPDEST POP SWAP3 SWAP2 POP POP JUMP JUMPDEST PUSH32 0x4E487B7100000000000000000000000000000000000000000000000000000000 PUSH0 MSTORE PUSH1 0x12 PUSH1 0x4 MSTORE PUSH1 0x24 PUSH0 REVERT JUMPDEST PUSH0 PUSH2 0x372 DUP3 PUSH2 0x1C0 JUMP JUMPDEST SWAP2 POP PUSH2 0x37D DUP4 PUSH2 0x1C0 JUMP JUMPDEST SWAP3 POP DUP3 PUSH2 0x38D JUMPI PUSH2 0x38C PUSH2 0x33B JUMP JUMPDEST JUMPDEST DUP3 DUP3 DIV SWAP1 POP SWAP3 SWAP2 POP POP JUMP JUMPDEST PUSH32 0x412076616C696420626964206D75737420626520352025206772656174657220 PUSH0 DUP3 ADD MSTORE PUSH32 0x7468616E20746865206C617374206269642E0000000000000000000000000000 PUSH1 0x20 DUP3 ADD MSTORE POP JUMP JUMPDEST PUSH0 PUSH2 0x3F2 PUSH1 0x32 DUP4 PUSH2 0x25C JUMP JUMPDEST SWAP2 POP PUSH2 0x3FD DUP3 PUSH2 0x398 JUMP JUMPDEST PUSH1 0x40 DUP3 ADD SWAP1 POP SWAP2 SWAP1 POP JUMP JUMPDEST PUSH0 PUSH1 0x20 DUP3 ADD SWAP1 POP DUP2 DUP2 SUB PUSH0 DUP4 ADD MSTORE PUSH2 0x41F DUP2 PUSH2 0x3E6 JUMP JUMPDEST SWAP1 POP SWAP2 SWAP1 POP JUMP INVALID LOG2 PUSH5 0x6970667358 0x22 SLT KECCAK256 RJUMP 0xA617 DUP11 TIMESTAMP CALLDATASIZE MOD LT 0xB4 0xC MCOPY 0xF7 ADD 0xB2 0x27 0xC1 ISZERO 0xCC 0xD6 DUP15 0xB4 0xA5 0xD3 PUSH12 0xF76E79F2B1C164A164736F6C PUSH4 0x4300081E STOP CALLER "
		},
		"gasEstimates": {
			"creation": {
				"codeDepositCost": "223200",
				"executionCost": "infinite",
				"totalCost": "infinite"
			},
			"external": {
				"bit()": "infinite",
				"withdrawal()": "143"
			}
		},
		"methodIdentifiers": {
			"bit()": "9e407998",
			"withdrawal()": "d4e93292"
		}
	},
	"abi": [
		{
			"inputs": [
				{
					"internalType": "string",
					"name": "_item",
					"type": "string"
				},
				{
					"internalType": "uint32",
					"name": "_duration",
					"type": "uint32"
				},
				{
					"internalType": "uint32",
					"name": "_basePrice",
					"type": "uint32"
				}
			],
			"stateMutability": "nonpayable",
			"type": "constructor"
		},
		{
			"inputs": [],
			"name": "bit",
			"outputs": [],
			"stateMutability": "payable",
			"type": "function"
		},
		{
			"inputs": [],
			"name": "withdrawal",
			"outputs": [],
			"stateMutability": "nonpayable",
			"type": "function"
		}
	]
}