{
	"data": {
		"bytecode": {
			"linkReferences": {},
			"object": "608060405234801561000f575f5ffd5b506040516113c43803806113c483398181016040528101906100319190610233565b335f5f6101000a81548173ffffffffffffffffffffffffffffffffffffffff021916908373ffffffffffffffffffffffffffffffffffffffff160217905550826001908161007f91906104af565b508163ffffffff164261009291906105ab565b6002819055508063ffffffff166003819055505050506105de565b5f604051905090565b5f5ffd5b5f5ffd5b5f5ffd5b5f5ffd5b5f601f19601f8301169050919050565b7f4e487b71000000000000000000000000000000000000000000000000000000005f52604160045260245ffd5b61010c826100c6565b810181811067ffffffffffffffff8211171561012b5761012a6100d6565b5b80604052505050565b5f61013d6100ad565b90506101498282610103565b919050565b5f67ffffffffffffffff821115610168576101676100d6565b5b610171826100c6565b9050602081019050919050565b8281835e5f83830152505050565b5f61019e6101998461014e565b610134565b9050828152602081018484840111156101ba576101b96100c2565b5b6101c584828561017e565b509392505050565b5f82601f8301126101e1576101e06100be565b5b81516101f184826020860161018c565b91505092915050565b5f63ffffffff82169050919050565b610212816101fa565b811461021c575f5ffd5b50565b5f8151905061022d81610209565b92915050565b5f5f5f6060848603121561024a576102496100b6565b5b5f84015167ffffffffffffffff811115610267576102666100ba565b5b610273868287016101cd565b93505060206102848682870161021f565b92505060406102958682870161021f565b9150509250925092565b5f81519050919050565b7f4e487b71000000000000000000000000000000000000000000000000000000005f52602260045260245ffd5b5f60028204905060018216806102ed57607f821691505b602082108103610300576102ff6102a9565b5b50919050565b5f819050815f5260205f209050919050565b5f6020601f8301049050919050565b5f82821b905092915050565b5f600883026103627fffffffffffffffffffffffffffffffffffffffffffffffffffffffffffffffff82610327565b61036c8683610327565b95508019841693508086168417925050509392505050565b5f819050919050565b5f819050919050565b5f6103b06103ab6103a684610384565b61038d565b610384565b9050919050565b5f819050919050565b6103c983610396565b6103dd6103d5826103b7565b848454610333565b825550505050565b5f5f905090565b6103f46103e5565b6103ff8184846103c0565b505050565b5b81811015610422576104175f826103ec565b600181019050610405565b5050565b601f8211156104675761043881610306565b61044184610318565b81016020851015610450578190505b61046461045c85610318565b830182610404565b50505b505050565b5f82821c905092915050565b5f6104875f198460080261046c565b1980831691505092915050565b5f61049f8383610478565b9150826002028217905092915050565b6104b88261029f565b67ffffffffffffffff8111156104d1576104d06100d6565b5b6104db82546102d6565b6104e6828285610426565b5f60209050601f831160018114610517575f8415610505578287015190505b61050f8582610494565b865550610576565b601f19841661052586610306565b5f5b8281101561054c57848901518255600182019150602085019450602081019050610527565b868310156105695784890151610565601f891682610478565b8355505b6001600288020188555050505b505050505050565b7f4e487b71000000000000000000000000000000000000000000000000000000005f52601160045260245ffd5b5f6105b582610384565b91506105c083610384565b92508282019050808211156105d8576105d761057e565b5b92915050565b610dd9806105eb5f395ff3fe608060405260043610610033575f3560e01c80631eb5ea2e146100375780639e4079981461004d578063d4e9329214610057575b5f5ffd5b348015610042575f5ffd5b5061004b61006d565b005b6100556103b5565b005b348015610062575f5ffd5b5061006b610753565b005b5f5f9054906101000a900473ffffffffffffffffffffffffffffffffffffffff1673ffffffffffffffffffffffffffffffffffffffff163373ffffffffffffffffffffffffffffffffffffffff16146100fb576040517f08c379a00000000000000000000000000000000000000000000000000000000081526004016100f290610a32565b60405180910390fd5b6002544211801561011d575061025860046001015461011a9190610a86565b42115b61015c576040517f08c379a000000000000000000000000000000000000000000000000000000000815260040161015390610b03565b60405180910390fd5b5f5f90505b6009805490508110156103b25760045f015f9054906101000a900473ffffffffffffffffffffffffffffffffffffffff1673ffffffffffffffffffffffffffffffffffffffff16600982815481106101bc576101bb610b21565b5b905f5260205f20015f9054906101000a900473ffffffffffffffffffffffffffffffffffffffff1673ffffffffffffffffffffffffffffffffffffffff16146103a5575f600a5f6009848154811061021757610216610b21565b5b905f5260205f20015f9054906101000a900473ffffffffffffffffffffffffffffffffffffffff1673ffffffffffffffffffffffffffffffffffffffff1673ffffffffffffffffffffffffffffffffffffffff1681526020019081526020015f20600201549050606460028261028d9190610b4e565b6102979190610bbc565b816102a29190610bec565b90505f600a5f600985815481106102bc576102bb610b21565b5b905f5260205f20015f9054906101000a900473ffffffffffffffffffffffffffffffffffffffff1673ffffffffffffffffffffffffffffffffffffffff1673ffffffffffffffffffffffffffffffffffffffff1681526020019081526020015f20600201819055506009828154811061033857610337610b21565b5b905f5260205f20015f9054906101000a900473ffffffffffffffffffffffffffffffffffffffff1673ffffffffffffffffffffffffffffffffffffffff166108fc8290811502906040515f60405180830381858888f193505050501580156103a2573d5f5f3e3d5ffd5b50505b8080600101915050610161565b50565b5f5f90506102586002546103c99190610bec565b4210156103d95760019050610412565b600480015f9054906101000a900460ff16801561040757506102586004600101546104049190610a86565b42105b1561041157600190505b5b80610452576040517f08c379a000000000000000000000000000000000000000000000000000000000815260040161044990610c8f565b60405180910390fd5b5f5f9050600480015f9054906101000a900460ff16801561049f5750606460056004600301546104829190610b4e565b61048c9190610bbc565b60046003015461049c9190610a86565b34115b156104ad57600190506104e2565b606460056003546104be9190610b4e565b6104c89190610bbc565b6003546104d59190610a86565b3411156104e157600190505b5b80610522576040517f08c379a000000000000000000000000000000000000000000000000000000000815260040161051990610d1d565b60405180910390fd5b600a5f3373ffffffffffffffffffffffffffffffffffffffff1673ffffffffffffffffffffffffffffffffffffffff1681526020019081526020015f206004015f9054906101000a900460ff166105d457600933908060018154018082558091505060019003905f5260205f20015f9091909190916101000a81548173ffffffffffffffffffffffffffffffffffffffff021916908373ffffffffffffffffffffffffffffffffffffffff1602179055505b3460046002015f8282546105e89190610a86565b92505081905550346004600301819055503360045f015f6101000a81548173ffffffffffffffffffffffffffffffffffffffff021916908373ffffffffffffffffffffffffffffffffffffffff1602179055506001600480015f6101000a81548160ff021916908315150217905550426004600101819055506004600a5f3373ffffffffffffffffffffffffffffffffffffffff1673ffffffffffffffffffffffffffffffffffffffff1681526020019081526020015f205f82015f9054906101000a900473ffffffffffffffffffffffffffffffffffffffff16815f015f6101000a81548173ffffffffffffffffffffffffffffffffffffffff021916908373ffffffffffffffffffffffffffffffffffffffff160217905550600182015481600101556002820154816002015560038201548160030155600482015f9054906101000a900460ff16816004015f6101000a81548160ff0219169083151502179055509050505050565b600a5f3373ffffffffffffffffffffffffffffffffffffffff1673ffffffffffffffffffffffffffffffffffffffff1681526020019081526020015f206004015f9054906101000a900460ff166107df576040517f08c379a00000000000000000000000000000000000000000000000000000000081526004016107d690610d85565b60405180910390fd5b5f5f90506102586002546107f39190610bec565b421015610803576001905061083c565b600480015f9054906101000a900460ff168015610831575061025860046001015461082e9190610a86565b42105b1561083b57600190505b5b8061087c576040517f08c379a000000000000000000000000000000000000000000000000000000000815260040161087390610c8f565b60405180910390fd5b5f600a5f3373ffffffffffffffffffffffffffffffffffffffff1673ffffffffffffffffffffffffffffffffffffffff1681526020019081526020015f2060030154600a5f3373ffffffffffffffffffffffffffffffffffffffff1673ffffffffffffffffffffffffffffffffffffffff1681526020019081526020015f20600201546109099190610bec565b9050600a5f3373ffffffffffffffffffffffffffffffffffffffff1673ffffffffffffffffffffffffffffffffffffffff1681526020019081526020015f2060030154600a5f3373ffffffffffffffffffffffffffffffffffffffff1673ffffffffffffffffffffffffffffffffffffffff1681526020019081526020015f20600201819055503373ffffffffffffffffffffffffffffffffffffffff166108fc8290811502906040515f60405180830381858888f193505050501580156109d3573d5f5f3e3d5ffd5b505050565b5f82825260208201905092915050565b7f4f6e6c792041646d696e205573657220697320616c6c6f7765642e00000000005f82015250565b5f610a1c601b836109d8565b9150610a27826109e8565b602082019050919050565b5f6020820190508181035f830152610a4981610a10565b9050919050565b5f819050919050565b7f4e487b71000000000000000000000000000000000000000000000000000000005f52601160045260245ffd5b5f610a9082610a50565b9150610a9b83610a50565b9250828201905080821115610ab357610ab2610a59565b5b92915050565b7f5468652061756374696f6e20686173206e6f7420656e646564207965742e00005f82015250565b5f610aed601e836109d8565b9150610af882610ab9565b602082019050919050565b5f6020820190508181035f830152610b1a81610ae1565b9050919050565b7f4e487b71000000000000000000000000000000000000000000000000000000005f52603260045260245ffd5b5f610b5882610a50565b9150610b6383610a50565b9250828202610b7181610a50565b91508282048414831517610b8857610b87610a59565b5b5092915050565b7f4e487b71000000000000000000000000000000000000000000000000000000005f52601260045260245ffd5b5f610bc682610a50565b9150610bd183610a50565b925082610be157610be0610b8f565b5b828204905092915050565b5f610bf682610a50565b9150610c0183610a50565b9250828203905081811115610c1957610c18610a59565b5b92915050565b7f5468652074696d6520666f7220706c616365206120626964206861732066696e5f8201527f6973680000000000000000000000000000000000000000000000000000000000602082015250565b5f610c796023836109d8565b9150610c8482610c1f565b604082019050919050565b5f6020820190508181035f830152610ca681610c6d565b9050919050565b7f412076616c696420626964206d757374206265203520252067726561746572205f8201527f7468616e20746865206c617374206269642e0000000000000000000000000000602082015250565b5f610d076032836109d8565b9150610d1282610cad565b604082019050919050565b5f6020820190508181035f830152610d3481610cfb565b9050919050565b7f4f6e6c79204269646465722061726520616c6c6f7765642e00000000000000005f82015250565b5f610d6f6018836109d8565b9150610d7a82610d3b565b602082019050919050565b5f6020820190508181035f830152610d9c81610d63565b905091905056fea26469706673582212207b5c24cbc407f182fbef93706e38328ed66c1a8b3e6cd2892f8c6bc4dca2af5664736f6c634300081e0033",
			"opcodes": "PUSH1 0x80 PUSH1 0x40 MSTORE CALLVALUE DUP1 ISZERO PUSH2 0xF JUMPI PUSH0 PUSH0 REVERT JUMPDEST POP PUSH1 0x40 MLOAD PUSH2 0x13C4 CODESIZE SUB DUP1 PUSH2 0x13C4 DUP4 CODECOPY DUP2 DUP2 ADD PUSH1 0x40 MSTORE DUP2 ADD SWAP1 PUSH2 0x31 SWAP2 SWAP1 PUSH2 0x233 JUMP JUMPDEST CALLER PUSH0 PUSH0 PUSH2 0x100 EXP DUP2 SLOAD DUP2 PUSH20 0xFFFFFFFFFFFFFFFFFFFFFFFFFFFFFFFFFFFFFFFF MUL NOT AND SWAP1 DUP4 PUSH20 0xFFFFFFFFFFFFFFFFFFFFFFFFFFFFFFFFFFFFFFFF AND MUL OR SWAP1 SSTORE POP DUP3 PUSH1 0x1 SWAP1 DUP2 PUSH2 0x7F SWAP2 SWAP1 PUSH2 0x4AF JUMP JUMPDEST POP DUP2 PUSH4 0xFFFFFFFF AND TIMESTAMP PUSH2 0x92 SWAP2 SWAP1 PUSH2 0x5AB JUMP JUMPDEST PUSH1 0x2 DUP2 SWAP1 SSTORE POP DUP1 PUSH4 0xFFFFFFFF AND PUSH1 0x3 DUP2 SWAP1 SSTORE POP POP POP POP PUSH2 0x5DE JUMP JUMPDEST PUSH0 PUSH1 0x40 MLOAD SWAP1 POP SWAP1 JUMP JUMPDEST PUSH0 PUSH0 REVERT JUMPDEST PUSH0 PUSH0 REVERT JUMPDEST PUSH0 PUSH0 REVERT JUMPDEST PUSH0 PUSH0 REVERT JUMPDEST PUSH0 PUSH1 0x1F NOT PUSH1 0x1F DUP4 ADD AND SWAP1 POP SWAP2 SWAP1 POP JUMP JUMPDEST PUSH32 0x4E487B7100000000000000000000000000000000000000000000000000000000 PUSH0 MSTORE PUSH1 0x41 PUSH1 0x4 MSTORE PUSH1 0x24 PUSH0 REVERT JUMPDEST PUSH2 0x10C DUP3 PUSH2 0xC6 JUMP JUMPDEST DUP2 ADD DUP2 DUP2 LT PUSH8 0xFFFFFFFFFFFFFFFF DUP3 GT OR ISZERO PUSH2 0x12B JUMPI PUSH2 0x12A PUSH2 0xD6 JUMP JUMPDEST JUMPDEST DUP1 PUSH1 0x40 MSTORE POP POP POP JUMP JUMPDEST PUSH0 PUSH2 0x13D PUSH2 0xAD JUMP JUMPDEST SWAP1 POP PUSH2 0x149 DUP3 DUP3 PUSH2 0x103 JUMP JUMPDEST SWAP2 SWAP1 POP JUMP JUMPDEST PUSH0 PUSH8 0xFFFFFFFFFFFFFFFF DUP3 GT ISZERO PUSH2 0x168 JUMPI PUSH2 0x167 PUSH2 0xD6 JUMP JUMPDEST JUMPDEST PUSH2 0x171 DUP3 PUSH2 0xC6 JUMP JUMPDEST SWAP1 POP PUSH1 0x20 DUP2 ADD SWAP1 POP SWAP2 SWAP1 POP JUMP JUMPDEST DUP3 DUP2 DUP4 MCOPY PUSH0 DUP4 DUP4 ADD MSTORE POP POP POP JUMP JUMPDEST PUSH0 PUSH2 0x19E PUSH2 0x199 DUP5 PUSH2 0x14E JUMP JUMPDEST PUSH2 0x134 JUMP JUMPDEST SWAP1 POP DUP3 DUP2 MSTORE PUSH1 0x20 DUP2 ADD DUP5 DUP5 DUP5 ADD GT ISZERO PUSH2 0x1BA JUMPI PUSH2 0x1B9 PUSH2 0xC2 JUMP JUMPDEST JUMPDEST PUSH2 0x1C5 DUP5 DUP3 DUP6 PUSH2 0x17E JUMP JUMPDEST POP SWAP4 SWAP3 POP POP POP JUMP JUMPDEST PUSH0 DUP3 PUSH1 0x1F DUP4 ADD SLT PUSH2 0x1E1 JUMPI PUSH2 0x1E0 PUSH2 0xBE JUMP JUMPDEST JUMPDEST DUP2 MLOAD PUSH2 0x1F1 DUP5 DUP3 PUSH1 0x20 DUP7 ADD PUSH2 0x18C JUMP JUMPDEST SWAP2 POP POP SWAP3 SWAP2 POP POP JUMP JUMPDEST PUSH0 PUSH4 0xFFFFFFFF DUP3 AND SWAP1 POP SWAP2 SWAP1 POP JUMP JUMPDEST PUSH2 0x212 DUP2 PUSH2 0x1FA JUMP JUMPDEST DUP2 EQ PUSH2 0x21C JUMPI PUSH0 PUSH0 REVERT JUMPDEST POP JUMP JUMPDEST PUSH0 DUP2 MLOAD SWAP1 POP PUSH2 0x22D DUP2 PUSH2 0x209 JUMP JUMPDEST SWAP3 SWAP2 POP POP JUMP JUMPDEST PUSH0 PUSH0 PUSH0 PUSH1 0x60 DUP5 DUP7 SUB SLT ISZERO PUSH2 0x24A JUMPI PUSH2 0x249 PUSH2 0xB6 JUMP JUMPDEST JUMPDEST PUSH0 DUP5 ADD MLOAD PUSH8 0xFFFFFFFFFFFFFFFF DUP2 GT ISZERO PUSH2 0x267 JUMPI PUSH2 0x266 PUSH2 0xBA JUMP JUMPDEST JUMPDEST PUSH2 0x273 DUP7 DUP3 DUP8 ADD PUSH2 0x1CD JUMP JUMPDEST SWAP4 POP POP PUSH1 0x20 PUSH2 0x284 DUP7 DUP3 DUP8 ADD PUSH2 0x21F JUMP JUMPDEST SWAP3 POP POP PUSH1 0x40 PUSH2 0x295 DUP7 DUP3 DUP8 ADD PUSH2 0x21F JUMP JUMPDEST SWAP2 POP POP SWAP3 POP SWAP3 POP SWAP3 JUMP JUMPDEST PUSH0 DUP2 MLOAD SWAP1 POP SWAP2 SWAP1 POP JUMP JUMPDEST PUSH32 0x4E487B7100000000000000000000000000000000000000000000000000000000 PUSH0 MSTORE PUSH1 0x22 PUSH1 0x4 MSTORE PUSH1 0x24 PUSH0 REVERT JUMPDEST PUSH0 PUSH1 0x2 DUP3 DIV SWAP1 POP PUSH1 0x1 DUP3 AND DUP1 PUSH2 0x2ED JUMPI PUSH1 0x7F DUP3 AND SWAP2 POP JUMPDEST PUSH1 0x20 DUP3 LT DUP2 SUB PUSH2 0x300 JUMPI PUSH2 0x2FF PUSH2 0x2A9 JUMP JUMPDEST JUMPDEST POP SWAP2 SWAP1 POP JUMP JUMPDEST PUSH0 DUP2 SWAP1 POP DUP2 PUSH0 MSTORE PUSH1 0x20 PUSH0 KECCAK256 SWAP1 POP SWAP2 SWAP1 POP JUMP JUMPDEST PUSH0 PUSH1 0x20 PUSH1 0x1F DUP4 ADD DIV SWAP1 POP SWAP2 SWAP1 POP JUMP JUMPDEST PUSH0 DUP3 DUP3 SHL SWAP1 POP SWAP3 SWAP2 POP POP JUMP JUMPDEST PUSH0 PUSH1 0x8 DUP4 MUL PUSH2 0x362 PUSH32 0xFFFFFFFFFFFFFFFFFFFFFFFFFFFFFFFFFFFFFFFFFFFFFFFFFFFFFFFFFFFFFFFF DUP3 PUSH2 0x327 JUMP JUMPDEST PUSH2 0x36C DUP7 DUP4 PUSH2 0x327 JUMP JUMPDEST SWAP6 POP DUP1 NOT DUP5 AND SWAP4 POP DUP1 DUP7 AND DUP5 OR SWAP3 POP POP POP SWAP4 SWAP3 POP POP POP JUMP JUMPDEST PUSH0 DUP2 SWAP1 POP SWAP2 SWAP1 POP JUMP JUMPDEST PUSH0 DUP2 SWAP1 POP SWAP2 SWAP1 POP JUMP JUMPDEST PUSH0 PUSH2 0x3B0 PUSH2 0x3AB PUSH2 0x3A6 DUP5 PUSH2 0x384 JUMP JUMPDEST PUSH2 0x38D JUMP JUMPDEST PUSH2 0x384 JUMP JUMPDEST SWAP1 POP SWAP2 SWAP1 POP JUMP JUMPDEST PUSH0 DUP2 SWAP1 POP SWAP2 SWAP1 POP JUMP JUMPDEST PUSH2 0x3C9 DUP4 PUSH2 0x396 JUMP JUMPDEST PUSH2 0x3DD PUSH2 0x3D5 DUP3 PUSH2 0x3B7 JUMP JUMPDEST DUP5 DUP5 SLOAD PUSH2 0x333 JUMP JUMPDEST DUP3 SSTORE POP POP POP POP JUMP JUMPDEST PUSH0 PUSH0 SWAP1 POP SWAP1 JUMP JUMPDEST PUSH2 0x3F4 PUSH2 0x3E5 JUMP JUMPDEST PUSH2 0x3FF DUP2 DUP5 DUP5 PUSH2 0x3C0 JUMP JUMPDEST POP POP POP JUMP JUMPDEST JUMPDEST DUP2 DUP2 LT ISZERO PUSH2 0x422 JUMPI PUSH2 0x417 PUSH0 DUP3 PUSH2 0x3EC JUMP JUMPDEST PUSH1 0x1 DUP2 ADD SWAP1 POP PUSH2 0x405 JUMP JUMPDEST POP POP JUMP JUMPDEST PUSH1 0x1F DUP3 GT ISZERO PUSH2 0x467 JUMPI PUSH2 0x438 DUP2 PUSH2 0x306 JUMP JUMPDEST PUSH2 0x441 DUP5 PUSH2 0x318 JUMP JUMPDEST DUP2 ADD PUSH1 0x20 DUP6 LT ISZERO PUSH2 0x450 JUMPI DUP2 SWAP1 POP JUMPDEST PUSH2 0x464 PUSH2 0x45C DUP6 PUSH2 0x318 JUMP JUMPDEST DUP4 ADD DUP3 PUSH2 0x404 JUMP JUMPDEST POP POP JUMPDEST POP POP POP JUMP JUMPDEST PUSH0 DUP3 DUP3 SHR SWAP1 POP SWAP3 SWAP2 POP POP JUMP JUMPDEST PUSH0 PUSH2 0x487 PUSH0 NOT DUP5 PUSH1 0x8 MUL PUSH2 0x46C JUMP JUMPDEST NOT DUP1 DUP4 AND SWAP2 POP POP SWAP3 SWAP2 POP POP JUMP JUMPDEST PUSH0 PUSH2 0x49F DUP4 DUP4 PUSH2 0x478 JUMP JUMPDEST SWAP2 POP DUP3 PUSH1 0x2 MUL DUP3 OR SWAP1 POP SWAP3 SWAP2 POP POP JUMP JUMPDEST PUSH2 0x4B8 DUP3 PUSH2 0x29F JUMP JUMPDEST PUSH8 0xFFFFFFFFFFFFFFFF DUP2 GT ISZERO PUSH2 0x4D1 JUMPI PUSH2 0x4D0 PUSH2 0xD6 JUMP JUMPDEST JUMPDEST PUSH2 0x4DB DUP3 SLOAD PUSH2 0x2D6 JUMP JUMPDEST PUSH2 0x4E6 DUP3 DUP3 DUP6 PUSH2 0x426 JUMP JUMPDEST PUSH0 PUSH1 0x20 SWAP1 POP PUSH1 0x1F DUP4 GT PUSH1 0x1 DUP2 EQ PUSH2 0x517 JUMPI PUSH0 DUP5 ISZERO PUSH2 0x505 JUMPI DUP3 DUP8 ADD MLOAD SWAP1 POP JUMPDEST PUSH2 0x50F DUP6 DUP3 PUSH2 0x494 JUMP JUMPDEST DUP7 SSTORE POP PUSH2 0x576 JUMP JUMPDEST PUSH1 0x1F NOT DUP5 AND PUSH2 0x525 DUP7 PUSH2 0x306 JUMP JUMPDEST PUSH0 JUMPDEST DUP3 DUP2 LT ISZERO PUSH2 0x54C JUMPI DUP5 DUP10 ADD MLOAD DUP3 SSTORE PUSH1 0x1 DUP3 ADD SWAP2 POP PUSH1 0x20 DUP6 ADD SWAP5 POP PUSH1 0x20 DUP2 ADD SWAP1 POP PUSH2 0x527 JUMP JUMPDEST DUP7 DUP4 LT ISZERO PUSH2 0x569 JUMPI DUP5 DUP10 ADD MLOAD PUSH2 0x565 PUSH1 0x1F DUP10 AND DUP3 PUSH2 0x478 JUMP JUMPDEST DUP4 SSTORE POP JUMPDEST PUSH1 0x1 PUSH1 0x2 DUP9 MUL ADD DUP9 SSTORE POP POP POP JUMPDEST POP POP POP POP POP POP JUMP JUMPDEST PUSH32 0x4E487B7100000000000000000000000000000000000000000000000000000000 PUSH0 MSTORE PUSH1 0x11 PUSH1 0x4 MSTORE PUSH1 0x24 PUSH0 REVERT JUMPDEST PUSH0 PUSH2 0x5B5 DUP3 PUSH2 0x384 JUMP JUMPDEST SWAP2 POP PUSH2 0x5C0 DUP4 PUSH2 0x384 JUMP JUMPDEST SWAP3 POP DUP3 DUP3 ADD SWAP1 POP DUP1 DUP3 GT ISZERO PUSH2 0x5D8 JUMPI PUSH2 0x5D7 PUSH2 0x57E JUMP JUMPDEST JUMPDEST SWAP3 SWAP2 POP POP JUMP JUMPDEST PUSH2 0xDD9 DUP1 PUSH2 0x5EB PUSH0 CODECOPY PUSH0 RETURN INVALID PUSH1 0x80 PUSH1 0x40 MSTORE PUSH1 0x4 CALLDATASIZE LT PUSH2 0x33 JUMPI PUSH0 CALLDATALOAD PUSH1 0xE0 SHR DUP1 PUSH4 0x1EB5EA2E EQ PUSH2 0x37 JUMPI DUP1 PUSH4 0x9E407998 EQ PUSH2 0x4D JUMPI DUP1 PUSH4 0xD4E93292 EQ PUSH2 0x57 JUMPI JUMPDEST PUSH0 PUSH0 REVERT JUMPDEST CALLVALUE DUP1 ISZERO PUSH2 0x42 JUMPI PUSH0 PUSH0 REVERT JUMPDEST POP PUSH2 0x4B PUSH2 0x6D JUMP JUMPDEST STOP JUMPDEST PUSH2 0x55 PUSH2 0x3B5 JUMP JUMPDEST STOP JUMPDEST CALLVALUE DUP1 ISZERO PUSH2 0x62 JUMPI PUSH0 PUSH0 REVERT JUMPDEST POP PUSH2 0x6B PUSH2 0x753 JUMP JUMPDEST STOP JUMPDEST PUSH0 PUSH0 SWAP1 SLOAD SWAP1 PUSH2 0x100 EXP SWAP1 DIV PUSH20 0xFFFFFFFFFFFFFFFFFFFFFFFFFFFFFFFFFFFFFFFF AND PUSH20 0xFFFFFFFFFFFFFFFFFFFFFFFFFFFFFFFFFFFFFFFF AND CALLER PUSH20 0xFFFFFFFFFFFFFFFFFFFFFFFFFFFFFFFFFFFFFFFF AND EQ PUSH2 0xFB JUMPI PUSH1 0x40 MLOAD PUSH32 0x8C379A000000000000000000000000000000000000000000000000000000000 DUP2 MSTORE PUSH1 0x4 ADD PUSH2 0xF2 SWAP1 PUSH2 0xA32 JUMP JUMPDEST PUSH1 0x40 MLOAD DUP1 SWAP2 SUB SWAP1 REVERT JUMPDEST PUSH1 0x2 SLOAD TIMESTAMP GT DUP1 ISZERO PUSH2 0x11D JUMPI POP PUSH2 0x258 PUSH1 0x4 PUSH1 0x1 ADD SLOAD PUSH2 0x11A SWAP2 SWAP1 PUSH2 0xA86 JUMP JUMPDEST TIMESTAMP GT JUMPDEST PUSH2 0x15C JUMPI PUSH1 0x40 MLOAD PUSH32 0x8C379A000000000000000000000000000000000000000000000000000000000 DUP2 MSTORE PUSH1 0x4 ADD PUSH2 0x153 SWAP1 PUSH2 0xB03 JUMP JUMPDEST PUSH1 0x40 MLOAD DUP1 SWAP2 SUB SWAP1 REVERT JUMPDEST PUSH0 PUSH0 SWAP1 POP JUMPDEST PUSH1 0x9 DUP1 SLOAD SWAP1 POP DUP2 LT ISZERO PUSH2 0x3B2 JUMPI PUSH1 0x4 PUSH0 ADD PUSH0 SWAP1 SLOAD SWAP1 PUSH2 0x100 EXP SWAP1 DIV PUSH20 0xFFFFFFFFFFFFFFFFFFFFFFFFFFFFFFFFFFFFFFFF AND PUSH20 0xFFFFFFFFFFFFFFFFFFFFFFFFFFFFFFFFFFFFFFFF AND PUSH1 0x9 DUP3 DUP2 SLOAD DUP2 LT PUSH2 0x1BC JUMPI PUSH2 0x1BB PUSH2 0xB21 JUMP JUMPDEST JUMPDEST SWAP1 PUSH0 MSTORE PUSH1 0x20 PUSH0 KECCAK256 ADD PUSH0 SWAP1 SLOAD SWAP1 PUSH2 0x100 EXP SWAP1 DIV PUSH20 0xFFFFFFFFFFFFFFFFFFFFFFFFFFFFFFFFFFFFFFFF AND PUSH20 0xFFFFFFFFFFFFFFFFFFFFFFFFFFFFFFFFFFFFFFFF AND EQ PUSH2 0x3A5 JUMPI PUSH0 PUSH1 0xA PUSH0 PUSH1 0x9 DUP5 DUP2 SLOAD DUP2 LT PUSH2 0x217 JUMPI PUSH2 0x216 PUSH2 0xB21 JUMP JUMPDEST JUMPDEST SWAP1 PUSH0 MSTORE PUSH1 0x20 PUSH0 KECCAK256 ADD PUSH0 SWAP1 SLOAD SWAP1 PUSH2 0x100 EXP SWAP1 DIV PUSH20 0xFFFFFFFFFFFFFFFFFFFFFFFFFFFFFFFFFFFFFFFF AND PUSH20 0xFFFFFFFFFFFFFFFFFFFFFFFFFFFFFFFFFFFFFFFF AND PUSH20 0xFFFFFFFFFFFFFFFFFFFFFFFFFFFFFFFFFFFFFFFF AND DUP2 MSTORE PUSH1 0x20 ADD SWAP1 DUP2 MSTORE PUSH1 0x20 ADD PUSH0 KECCAK256 PUSH1 0x2 ADD SLOAD SWAP1 POP PUSH1 0x64 PUSH1 0x2 DUP3 PUSH2 0x28D SWAP2 SWAP1 PUSH2 0xB4E JUMP JUMPDEST PUSH2 0x297 SWAP2 SWAP1 PUSH2 0xBBC JUMP JUMPDEST DUP2 PUSH2 0x2A2 SWAP2 SWAP1 PUSH2 0xBEC JUMP JUMPDEST SWAP1 POP PUSH0 PUSH1 0xA PUSH0 PUSH1 0x9 DUP6 DUP2 SLOAD DUP2 LT PUSH2 0x2BC JUMPI PUSH2 0x2BB PUSH2 0xB21 JUMP JUMPDEST JUMPDEST SWAP1 PUSH0 MSTORE PUSH1 0x20 PUSH0 KECCAK256 ADD PUSH0 SWAP1 SLOAD SWAP1 PUSH2 0x100 EXP SWAP1 DIV PUSH20 0xFFFFFFFFFFFFFFFFFFFFFFFFFFFFFFFFFFFFFFFF AND PUSH20 0xFFFFFFFFFFFFFFFFFFFFFFFFFFFFFFFFFFFFFFFF AND PUSH20 0xFFFFFFFFFFFFFFFFFFFFFFFFFFFFFFFFFFFFFFFF AND DUP2 MSTORE PUSH1 0x20 ADD SWAP1 DUP2 MSTORE PUSH1 0x20 ADD PUSH0 KECCAK256 PUSH1 0x2 ADD DUP2 SWAP1 SSTORE POP PUSH1 0x9 DUP3 DUP2 SLOAD DUP2 LT PUSH2 0x338 JUMPI PUSH2 0x337 PUSH2 0xB21 JUMP JUMPDEST JUMPDEST SWAP1 PUSH0 MSTORE PUSH1 0x20 PUSH0 KECCAK256 ADD PUSH0 SWAP1 SLOAD SWAP1 PUSH2 0x100 EXP SWAP1 DIV PUSH20 0xFFFFFFFFFFFFFFFFFFFFFFFFFFFFFFFFFFFFFFFF AND PUSH20 0xFFFFFFFFFFFFFFFFFFFFFFFFFFFFFFFFFFFFFFFF AND PUSH2 0x8FC DUP3 SWAP1 DUP2 ISZERO MUL SWAP1 PUSH1 0x40 MLOAD PUSH0 PUSH1 0x40 MLOAD DUP1 DUP4 SUB DUP2 DUP6 DUP9 DUP9 CALL SWAP4 POP POP POP POP ISZERO DUP1 ISZERO PUSH2 0x3A2 JUMPI RETURNDATASIZE PUSH0 PUSH0 RETURNDATACOPY RETURNDATASIZE PUSH0 REVERT JUMPDEST POP POP JUMPDEST DUP1 DUP1 PUSH1 0x1 ADD SWAP2 POP POP PUSH2 0x161 JUMP JUMPDEST POP JUMP JUMPDEST PUSH0 PUSH0 SWAP1 POP PUSH2 0x258 PUSH1 0x2 SLOAD PUSH2 0x3C9 SWAP2 SWAP1 PUSH2 0xBEC JUMP JUMPDEST TIMESTAMP LT ISZERO PUSH2 0x3D9 JUMPI PUSH1 0x1 SWAP1 POP PUSH2 0x412 JUMP JUMPDEST PUSH1 0x4 DUP1 ADD PUSH0 SWAP1 SLOAD SWAP1 PUSH2 0x100 EXP SWAP1 DIV PUSH1 0xFF AND DUP1 ISZERO PUSH2 0x407 JUMPI POP PUSH2 0x258 PUSH1 0x4 PUSH1 0x1 ADD SLOAD PUSH2 0x404 SWAP2 SWAP1 PUSH2 0xA86 JUMP JUMPDEST TIMESTAMP LT JUMPDEST ISZERO PUSH2 0x411 JUMPI PUSH1 0x1 SWAP1 POP JUMPDEST JUMPDEST DUP1 PUSH2 0x452 JUMPI PUSH1 0x40 MLOAD PUSH32 0x8C379A000000000000000000000000000000000000000000000000000000000 DUP2 MSTORE PUSH1 0x4 ADD PUSH2 0x449 SWAP1 PUSH2 0xC8F JUMP JUMPDEST PUSH1 0x40 MLOAD DUP1 SWAP2 SUB SWAP1 REVERT JUMPDEST PUSH0 PUSH0 SWAP1 POP PUSH1 0x4 DUP1 ADD PUSH0 SWAP1 SLOAD SWAP1 PUSH2 0x100 EXP SWAP1 DIV PUSH1 0xFF AND DUP1 ISZERO PUSH2 0x49F JUMPI POP PUSH1 0x64 PUSH1 0x5 PUSH1 0x4 PUSH1 0x3 ADD SLOAD PUSH2 0x482 SWAP2 SWAP1 PUSH2 0xB4E JUMP JUMPDEST PUSH2 0x48C SWAP2 SWAP1 PUSH2 0xBBC JUMP JUMPDEST PUSH1 0x4 PUSH1 0x3 ADD SLOAD PUSH2 0x49C SWAP2 SWAP1 PUSH2 0xA86 JUMP JUMPDEST CALLVALUE GT JUMPDEST ISZERO PUSH2 0x4AD JUMPI PUSH1 0x1 SWAP1 POP PUSH2 0x4E2 JUMP JUMPDEST PUSH1 0x64 PUSH1 0x5 PUSH1 0x3 SLOAD PUSH2 0x4BE SWAP2 SWAP1 PUSH2 0xB4E JUMP JUMPDEST PUSH2 0x4C8 SWAP2 SWAP1 PUSH2 0xBBC JUMP JUMPDEST PUSH1 0x3 SLOAD PUSH2 0x4D5 SWAP2 SWAP1 PUSH2 0xA86 JUMP JUMPDEST CALLVALUE GT ISZERO PUSH2 0x4E1 JUMPI PUSH1 0x1 SWAP1 POP JUMPDEST JUMPDEST DUP1 PUSH2 0x522 JUMPI PUSH1 0x40 MLOAD PUSH32 0x8C379A000000000000000000000000000000000000000000000000000000000 DUP2 MSTORE PUSH1 0x4 ADD PUSH2 0x519 SWAP1 PUSH2 0xD1D JUMP JUMPDEST PUSH1 0x40 MLOAD DUP1 SWAP2 SUB SWAP1 REVERT JUMPDEST PUSH1 0xA PUSH0 CALLER PUSH20 0xFFFFFFFFFFFFFFFFFFFFFFFFFFFFFFFFFFFFFFFF AND PUSH20 0xFFFFFFFFFFFFFFFFFFFFFFFFFFFFFFFFFFFFFFFF AND DUP2 MSTORE PUSH1 0x20 ADD SWAP1 DUP2 MSTORE PUSH1 0x20 ADD PUSH0 KECCAK256 PUSH1 0x4 ADD PUSH0 SWAP1 SLOAD SWAP1 PUSH2 0x100 EXP SWAP1 DIV PUSH1 0xFF AND PUSH2 0x5D4 JUMPI PUSH1 0x9 CALLER SWAP1 DUP1 PUSH1 0x1 DUP2 SLOAD ADD DUP1 DUP3 SSTORE DUP1 SWAP2 POP POP PUSH1 0x1 SWAP1 SUB SWAP1 PUSH0 MSTORE PUSH1 0x20 PUSH0 KECCAK256 ADD PUSH0 SWAP1 SWAP2 SWAP1 SWAP2 SWAP1 SWAP2 PUSH2 0x100 EXP DUP2 SLOAD DUP2 PUSH20 0xFFFFFFFFFFFFFFFFFFFFFFFFFFFFFFFFFFFFFFFF MUL NOT AND SWAP1 DUP4 PUSH20 0xFFFFFFFFFFFFFFFFFFFFFFFFFFFFFFFFFFFFFFFF AND MUL OR SWAP1 SSTORE POP JUMPDEST CALLVALUE PUSH1 0x4 PUSH1 0x2 ADD PUSH0 DUP3 DUP3 SLOAD PUSH2 0x5E8 SWAP2 SWAP1 PUSH2 0xA86 JUMP JUMPDEST SWAP3 POP POP DUP2 SWAP1 SSTORE POP CALLVALUE PUSH1 0x4 PUSH1 0x3 ADD DUP2 SWAP1 SSTORE POP CALLER PUSH1 0x4 PUSH0 ADD PUSH0 PUSH2 0x100 EXP DUP2 SLOAD DUP2 PUSH20 0xFFFFFFFFFFFFFFFFFFFFFFFFFFFFFFFFFFFFFFFF MUL NOT AND SWAP1 DUP4 PUSH20 0xFFFFFFFFFFFFFFFFFFFFFFFFFFFFFFFFFFFFFFFF AND MUL OR SWAP1 SSTORE POP PUSH1 0x1 PUSH1 0x4 DUP1 ADD PUSH0 PUSH2 0x100 EXP DUP2 SLOAD DUP2 PUSH1 0xFF MUL NOT AND SWAP1 DUP4 ISZERO ISZERO MUL OR SWAP1 SSTORE POP TIMESTAMP PUSH1 0x4 PUSH1 0x1 ADD DUP2 SWAP1 SSTORE POP PUSH1 0x4 PUSH1 0xA PUSH0 CALLER PUSH20 0xFFFFFFFFFFFFFFFFFFFFFFFFFFFFFFFFFFFFFFFF AND PUSH20 0xFFFFFFFFFFFFFFFFFFFFFFFFFFFFFFFFFFFFFFFF AND DUP2 MSTORE PUSH1 0x20 ADD SWAP1 DUP2 MSTORE PUSH1 0x20 ADD PUSH0 KECCAK256 PUSH0 DUP3 ADD PUSH0 SWAP1 SLOAD SWAP1 PUSH2 0x100 EXP SWAP1 DIV PUSH20 0xFFFFFFFFFFFFFFFFFFFFFFFFFFFFFFFFFFFFFFFF AND DUP2 PUSH0 ADD PUSH0 PUSH2 0x100 EXP DUP2 SLOAD DUP2 PUSH20 0xFFFFFFFFFFFFFFFFFFFFFFFFFFFFFFFFFFFFFFFF MUL NOT AND SWAP1 DUP4 PUSH20 0xFFFFFFFFFFFFFFFFFFFFFFFFFFFFFFFFFFFFFFFF AND MUL OR SWAP1 SSTORE POP PUSH1 0x1 DUP3 ADD SLOAD DUP2 PUSH1 0x1 ADD SSTORE PUSH1 0x2 DUP3 ADD SLOAD DUP2 PUSH1 0x2 ADD SSTORE PUSH1 0x3 DUP3 ADD SLOAD DUP2 PUSH1 0x3 ADD SSTORE PUSH1 0x4 DUP3 ADD PUSH0 SWAP1 SLOAD SWAP1 PUSH2 0x100 EXP SWAP1 DIV PUSH1 0xFF AND DUP2 PUSH1 0x4 ADD PUSH0 PUSH2 0x100 EXP DUP2 SLOAD DUP2 PUSH1 0xFF MUL NOT AND SWAP1 DUP4 ISZERO ISZERO MUL OR SWAP1 SSTORE POP SWAP1 POP POP POP POP JUMP JUMPDEST PUSH1 0xA PUSH0 CALLER PUSH20 0xFFFFFFFFFFFFFFFFFFFFFFFFFFFFFFFFFFFFFFFF AND PUSH20 0xFFFFFFFFFFFFFFFFFFFFFFFFFFFFFFFFFFFFFFFF AND DUP2 MSTORE PUSH1 0x20 ADD SWAP1 DUP2 MSTORE PUSH1 0x20 ADD PUSH0 KECCAK256 PUSH1 0x4 ADD PUSH0 SWAP1 SLOAD SWAP1 PUSH2 0x100 EXP SWAP1 DIV PUSH1 0xFF AND PUSH2 0x7DF JUMPI PUSH1 0x40 MLOAD PUSH32 0x8C379A000000000000000000000000000000000000000000000000000000000 DUP2 MSTORE PUSH1 0x4 ADD PUSH2 0x7D6 SWAP1 PUSH2 0xD85 JUMP JUMPDEST PUSH1 0x40 MLOAD DUP1 SWAP2 SUB SWAP1 REVERT JUMPDEST PUSH0 PUSH0 SWAP1 POP PUSH2 0x258 PUSH1 0x2 SLOAD PUSH2 0x7F3 SWAP2 SWAP1 PUSH2 0xBEC JUMP JUMPDEST TIMESTAMP LT ISZERO PUSH2 0x803 JUMPI PUSH1 0x1 SWAP1 POP PUSH2 0x83C JUMP JUMPDEST PUSH1 0x4 DUP1 ADD PUSH0 SWAP1 SLOAD SWAP1 PUSH2 0x100 EXP SWAP1 DIV PUSH1 0xFF AND DUP1 ISZERO PUSH2 0x831 JUMPI POP PUSH2 0x258 PUSH1 0x4 PUSH1 0x1 ADD SLOAD PUSH2 0x82E SWAP2 SWAP1 PUSH2 0xA86 JUMP JUMPDEST TIMESTAMP LT JUMPDEST ISZERO PUSH2 0x83B JUMPI PUSH1 0x1 SWAP1 POP JUMPDEST JUMPDEST DUP1 PUSH2 0x87C JUMPI PUSH1 0x40 MLOAD PUSH32 0x8C379A000000000000000000000000000000000000000000000000000000000 DUP2 MSTORE PUSH1 0x4 ADD PUSH2 0x873 SWAP1 PUSH2 0xC8F JUMP JUMPDEST PUSH1 0x40 MLOAD DUP1 SWAP2 SUB SWAP1 REVERT JUMPDEST PUSH0 PUSH1 0xA PUSH0 CALLER PUSH20 0xFFFFFFFFFFFFFFFFFFFFFFFFFFFFFFFFFFFFFFFF AND PUSH20 0xFFFFFFFFFFFFFFFFFFFFFFFFFFFFFFFFFFFFFFFF AND DUP2 MSTORE PUSH1 0x20 ADD SWAP1 DUP2 MSTORE PUSH1 0x20 ADD PUSH0 KECCAK256 PUSH1 0x3 ADD SLOAD PUSH1 0xA PUSH0 CALLER PUSH20 0xFFFFFFFFFFFFFFFFFFFFFFFFFFFFFFFFFFFFFFFF AND PUSH20 0xFFFFFFFFFFFFFFFFFFFFFFFFFFFFFFFFFFFFFFFF AND DUP2 MSTORE PUSH1 0x20 ADD SWAP1 DUP2 MSTORE PUSH1 0x20 ADD PUSH0 KECCAK256 PUSH1 0x2 ADD SLOAD PUSH2 0x909 SWAP2 SWAP1 PUSH2 0xBEC JUMP JUMPDEST SWAP1 POP PUSH1 0xA PUSH0 CALLER PUSH20 0xFFFFFFFFFFFFFFFFFFFFFFFFFFFFFFFFFFFFFFFF AND PUSH20 0xFFFFFFFFFFFFFFFFFFFFFFFFFFFFFFFFFFFFFFFF AND DUP2 MSTORE PUSH1 0x20 ADD SWAP1 DUP2 MSTORE PUSH1 0x20 ADD PUSH0 KECCAK256 PUSH1 0x3 ADD SLOAD PUSH1 0xA PUSH0 CALLER PUSH20 0xFFFFFFFFFFFFFFFFFFFFFFFFFFFFFFFFFFFFFFFF AND PUSH20 0xFFFFFFFFFFFFFFFFFFFFFFFFFFFFFFFFFFFFFFFF AND DUP2 MSTORE PUSH1 0x20 ADD SWAP1 DUP2 MSTORE PUSH1 0x20 ADD PUSH0 KECCAK256 PUSH1 0x2 ADD DUP2 SWAP1 SSTORE POP CALLER PUSH20 0xFFFFFFFFFFFFFFFFFFFFFFFFFFFFFFFFFFFFFFFF AND PUSH2 0x8FC DUP3 SWAP1 DUP2 ISZERO MUL SWAP1 PUSH1 0x40 MLOAD PUSH0 PUSH1 0x40 MLOAD DUP1 DUP4 SUB DUP2 DUP6 DUP9 DUP9 CALL SWAP4 POP POP POP POP ISZERO DUP1 ISZERO PUSH2 0x9D3 JUMPI RETURNDATASIZE PUSH0 PUSH0 RETURNDATACOPY RETURNDATASIZE PUSH0 REVERT JUMPDEST POP POP POP JUMP JUMPDEST PUSH0 DUP3 DUP3 MSTORE PUSH1 0x20 DUP3 ADD SWAP1 POP SWAP3 SWAP2 POP POP JUMP JUMPDEST PUSH32 0x4F6E6C792041646D696E205573657220697320616C6C6F7765642E0000000000 PUSH0 DUP3 ADD MSTORE POP JUMP JUMPDEST PUSH0 PUSH2 0xA1C PUSH1 0x1B DUP4 PUSH2 0x9D8 JUMP JUMPDEST SWAP2 POP PUSH2 0xA27 DUP3 PUSH2 0x9E8 JUMP JUMPDEST PUSH1 0x20 DUP3 ADD SWAP1 POP SWAP2 SWAP1 POP JUMP JUMPDEST PUSH0 PUSH1 0x20 DUP3 ADD SWAP1 POP DUP2 DUP2 SUB PUSH0 DUP4 ADD MSTORE PUSH2 0xA49 DUP2 PUSH2 0xA10 JUMP JUMPDEST SWAP1 POP SWAP2 SWAP1 POP JUMP JUMPDEST PUSH0 DUP2 SWAP1 POP SWAP2 SWAP1 POP JUMP JUMPDEST PUSH32 0x4E487B7100000000000000000000000000000000000000000000000000000000 PUSH0 MSTORE PUSH1 0x11 PUSH1 0x4 MSTORE PUSH1 0x24 PUSH0 REVERT JUMPDEST PUSH0 PUSH2 0xA90 DUP3 PUSH2 0xA50 JUMP JUMPDEST SWAP2 POP PUSH2 0xA9B DUP4 PUSH2 0xA50 JUMP JUMPDEST SWAP3 POP DUP3 DUP3 ADD SWAP1 POP DUP1 DUP3 GT ISZERO PUSH2 0xAB3 JUMPI PUSH2 0xAB2 PUSH2 0xA59 JUMP JUMPDEST JUMPDEST SWAP3 SWAP2 POP POP JUMP JUMPDEST PUSH32 0x5468652061756374696F6E20686173206E6F7420656E646564207965742E0000 PUSH0 DUP3 ADD MSTORE POP JUMP JUMPDEST PUSH0 PUSH2 0xAED PUSH1 0x1E DUP4 PUSH2 0x9D8 JUMP JUMPDEST SWAP2 POP PUSH2 0xAF8 DUP3 PUSH2 0xAB9 JUMP JUMPDEST PUSH1 0x20 DUP3 ADD SWAP1 POP SWAP2 SWAP1 POP JUMP JUMPDEST PUSH0 PUSH1 0x20 DUP3 ADD SWAP1 POP DUP2 DUP2 SUB PUSH0 DUP4 ADD MSTORE PUSH2 0xB1A DUP2 PUSH2 0xAE1 JUMP JUMPDEST SWAP1 POP SWAP2 SWAP1 POP JUMP JUMPDEST PUSH32 0x4E487B7100000000000000000000000000000000000000000000000000000000 PUSH0 MSTORE PUSH1 0x32 PUSH1 0x4 MSTORE PUSH1 0x24 PUSH0 REVERT JUMPDEST PUSH0 PUSH2 0xB58 DUP3 PUSH2 0xA50 JUMP JUMPDEST SWAP2 POP PUSH2 0xB63 DUP4 PUSH2 0xA50 JUMP JUMPDEST SWAP3 POP DUP3 DUP3 MUL PUSH2 0xB71 DUP2 PUSH2 0xA50 JUMP JUMPDEST SWAP2 POP DUP3 DUP3 DIV DUP5 EQ DUP4 ISZERO OR PUSH2 0xB88 JUMPI PUSH2 0xB87 PUSH2 0xA59 JUMP JUMPDEST JUMPDEST POP SWAP3 SWAP2 POP POP JUMP JUMPDEST PUSH32 0x4E487B7100000000000000000000000000000000000000000000000000000000 PUSH0 MSTORE PUSH1 0x12 PUSH1 0x4 MSTORE PUSH1 0x24 PUSH0 REVERT JUMPDEST PUSH0 PUSH2 0xBC6 DUP3 PUSH2 0xA50 JUMP JUMPDEST SWAP2 POP PUSH2 0xBD1 DUP4 PUSH2 0xA50 JUMP JUMPDEST SWAP3 POP DUP3 PUSH2 0xBE1 JUMPI PUSH2 0xBE0 PUSH2 0xB8F JUMP JUMPDEST JUMPDEST DUP3 DUP3 DIV SWAP1 POP SWAP3 SWAP2 POP POP JUMP JUMPDEST PUSH0 PUSH2 0xBF6 DUP3 PUSH2 0xA50 JUMP JUMPDEST SWAP2 POP PUSH2 0xC01 DUP4 PUSH2 0xA50 JUMP JUMPDEST SWAP3 POP DUP3 DUP3 SUB SWAP1 POP DUP2 DUP2 GT ISZERO PUSH2 0xC19 JUMPI PUSH2 0xC18 PUSH2 0xA59 JUMP JUMPDEST JUMPDEST SWAP3 SWAP2 POP POP JUMP JUMPDEST PUSH32 0x5468652074696D6520666F7220706C616365206120626964206861732066696E PUSH0 DUP3 ADD MSTORE PUSH32 0x6973680000000000000000000000000000000000000000000000000000000000 PUSH1 0x20 DUP3 ADD MSTORE POP JUMP JUMPDEST PUSH0 PUSH2 0xC79 PUSH1 0x23 DUP4 PUSH2 0x9D8 JUMP JUMPDEST SWAP2 POP PUSH2 0xC84 DUP3 PUSH2 0xC1F JUMP JUMPDEST PUSH1 0x40 DUP3 ADD SWAP1 POP SWAP2 SWAP1 POP JUMP JUMPDEST PUSH0 PUSH1 0x20 DUP3 ADD SWAP1 POP DUP2 DUP2 SUB PUSH0 DUP4 ADD MSTORE PUSH2 0xCA6 DUP2 PUSH2 0xC6D JUMP JUMPDEST SWAP1 POP SWAP2 SWAP1 POP JUMP JUMPDEST PUSH32 0x412076616C696420626964206D75737420626520352025206772656174657220 PUSH0 DUP3 ADD MSTORE PUSH32 0x7468616E20746865206C617374206269642E0000000000000000000000000000 PUSH1 0x20 DUP3 ADD MSTORE POP JUMP JUMPDEST PUSH0 PUSH2 0xD07 PUSH1 0x32 DUP4 PUSH2 0x9D8 JUMP JUMPDEST SWAP2 POP PUSH2 0xD12 DUP3 PUSH2 0xCAD JUMP JUMPDEST PUSH1 0x40 DUP3 ADD SWAP1 POP SWAP2 SWAP1 POP JUMP JUMPDEST PUSH0 PUSH1 0x20 DUP3 ADD SWAP1 POP DUP2 DUP2 SUB PUSH0 DUP4 ADD MSTORE PUSH2 0xD34 DUP2 PUSH2 0xCFB JUMP JUMPDEST SWAP1 POP SWAP2 SWAP1 POP JUMP JUMPDEST PUSH32 0x4F6E6C79204269646465722061726520616C6C6F7765642E0000000000000000 PUSH0 DUP3 ADD MSTORE POP JUMP JUMPDEST PUSH0 PUSH2 0xD6F PUSH1 0x18 DUP4 PUSH2 0x9D8 JUMP JUMPDEST SWAP2 POP PUSH2 0xD7A DUP3 PUSH2 0xD3B JUMP JUMPDEST PUSH1 0x20 DUP3 ADD SWAP1 POP SWAP2 SWAP1 POP JUMP JUMPDEST PUSH0 PUSH1 0x20 DUP3 ADD SWAP1 POP DUP2 DUP2 SUB PUSH0 DUP4 ADD MSTORE PUSH2 0xD9C DUP2 PUSH2 0xD63 JUMP JUMPDEST SWAP1 POP SWAP2 SWAP1 POP JUMP INVALID LOG2 PUSH5 0x6970667358 0x22 SLT KECCAK256 PUSH28 0x5C24CBC407F182FBEF93706E38328ED66C1A8B3E6CD2892F8C6BC4DC LOG2 0xAF JUMP PUSH5 0x736F6C6343 STOP ADDMOD 0x1E STOP CALLER "
		},
		"gasEstimates": {
			"creation": {
				"codeDepositCost": "709000",
				"executionCost": "infinite",
				"totalCost": "infinite"
			},
			"external": {
				"bit()": "infinite",
				"returnFunds()": "infinite",
				"withdrawal()": "infinite"
			}
		},
		"methodIdentifiers": {
			"bit()": "9e407998",
			"returnFunds()": "1eb5ea2e",
			"withdrawal()": "d4e93292"
		}
	},
	"abi": [
		{
			"inputs": [
				{
					"internalType": "string",
					"name": "_item",
					"type": "string"
				},
				{
					"internalType": "uint32",
					"name": "_duration",
					"type": "uint32"
				},
				{
					"internalType": "uint32",
					"name": "_basePrice",
					"type": "uint32"
				}
			],
			"stateMutability": "nonpayable",
			"type": "constructor"
		},
		{
			"inputs": [],
			"name": "bit",
			"outputs": [],
			"stateMutability": "payable",
			"type": "function"
		},
		{
			"inputs": [],
			"name": "returnFunds",
			"outputs": [],
			"stateMutability": "nonpayable",
			"type": "function"
		},
		{
			"inputs": [],
			"name": "withdrawal",
			"outputs": [],
			"stateMutability": "nonpayable",
			"type": "function"
		}
	]
}