{
	"data": {
		"bytecode": {
			"linkReferences": {},
			"object": "608060405234801561000f575f80fd5b506040516117fa3803806117fa83398181016040528101906100319190610283565b335f806101000a81548173ffffffffffffffffffffffffffffffffffffffff021916908373ffffffffffffffffffffffffffffffffffffffff160217905550826001908161007f91906104fc565b508163ffffffff164261009291906105f8565b6002819055508063ffffffff1660038190555060016040516100b491906106b5565b60405180910390207f88b524d6621d7de004458e51f7f3a0dec805641fc7853fa1c25d15a1266b459e6003546040516100ed91906106da565b60405180910390a25050506106f3565b5f604051905090565b5f80fd5b5f80fd5b5f80fd5b5f80fd5b5f601f19601f8301169050919050565b7f4e487b71000000000000000000000000000000000000000000000000000000005f52604160045260245ffd5b61015c82610116565b810181811067ffffffffffffffff8211171561017b5761017a610126565b5b80604052505050565b5f61018d6100fd565b90506101998282610153565b919050565b5f67ffffffffffffffff8211156101b8576101b7610126565b5b6101c182610116565b9050602081019050919050565b8281835e5f83830152505050565b5f6101ee6101e98461019e565b610184565b90508281526020810184848401111561020a57610209610112565b5b6102158482856101ce565b509392505050565b5f82601f8301126102315761023061010e565b5b81516102418482602086016101dc565b91505092915050565b5f63ffffffff82169050919050565b6102628161024a565b811461026c575f80fd5b50565b5f8151905061027d81610259565b92915050565b5f805f6060848603121561029a57610299610106565b5b5f84015167ffffffffffffffff8111156102b7576102b661010a565b5b6102c38682870161021d565b93505060206102d48682870161026f565b92505060406102e58682870161026f565b9150509250925092565b5f81519050919050565b7f4e487b71000000000000000000000000000000000000000000000000000000005f52602260045260245ffd5b5f600282049050600182168061033d57607f821691505b6020821081036103505761034f6102f9565b5b50919050565b5f819050815f5260205f209050919050565b5f6020601f8301049050919050565b5f82821b905092915050565b5f600883026103b27fffffffffffffffffffffffffffffffffffffffffffffffffffffffffffffffff82610377565b6103bc8683610377565b95508019841693508086168417925050509392505050565b5f819050919050565b5f819050919050565b5f6104006103fb6103f6846103d4565b6103dd565b6103d4565b9050919050565b5f819050919050565b610419836103e6565b61042d61042582610407565b848454610383565b825550505050565b5f90565b610441610435565b61044c818484610410565b505050565b5b8181101561046f576104645f82610439565b600181019050610452565b5050565b601f8211156104b45761048581610356565b61048e84610368565b8101602085101561049d578190505b6104b16104a985610368565b830182610451565b50505b505050565b5f82821c905092915050565b5f6104d45f19846008026104b9565b1980831691505092915050565b5f6104ec83836104c5565b9150826002028217905092915050565b610505826102ef565b67ffffffffffffffff81111561051e5761051d610126565b5b6105288254610326565b610533828285610473565b5f60209050601f831160018114610564575f8415610552578287015190505b61055c85826104e1565b8655506105c3565b601f19841661057286610356565b5f5b8281101561059957848901518255600182019150602085019450602081019050610574565b868310156105b657848901516105b2601f8916826104c5565b8355505b6001600288020188555050505b505050505050565b7f4e487b71000000000000000000000000000000000000000000000000000000005f52601160045260245ffd5b5f610602826103d4565b915061060d836103d4565b9250828201905080821115610625576106246105cb565b5b92915050565b5f81905092915050565b5f815461064181610326565b61064b818661062b565b9450600182165f8114610665576001811461067a576106ac565b60ff19831686528115158202860193506106ac565b61068385610356565b5f5b838110156106a457815481890152600182019150602081019050610685565b838801955050505b50505092915050565b5f6106c08284610635565b915081905092915050565b6106d4816103d4565b82525050565b5f6020820190506106ed5f8301846106cb565b92915050565b6110fa806107005f395ff3fe60806040526004361061003e575f3560e01c80631998aeef1461004257806343d726d61461004c578063bb10d00614610062578063d4e932921461008d575b5f80fd5b61004a6100a3565b005b348015610057575f80fd5b50610060610474565b005b34801561006d575f80fd5b50610076610845565b604051610084929190610bb3565b60405180910390f35b348015610098575f80fd5b506100a16108da565b005b5f6102586002546100b49190610c07565b4210156100c457600190506100fd565b600480015f9054906101000a900460ff1680156100f257506102586004600101546100ef9190610c3a565b42105b156100fc57600190505b5b8061013d576040517f08c379a000000000000000000000000000000000000000000000000000000000815260040161013490610ced565b60405180910390fd5b5f600480015f9054906101000a900460ff16801561018757506064600560046003015461016a9190610d0b565b6101749190610d79565b6004600301546101849190610c3a565b34115b1561019557600190506101ca565b606460056003546101a69190610d0b565b6101b09190610d79565b6003546101bd9190610c3a565b3411156101c957600190505b5b8061020a576040517f08c379a000000000000000000000000000000000000000000000000000000000815260040161020190610e19565b60405180910390fd5b600a5f3373ffffffffffffffffffffffffffffffffffffffff1673ffffffffffffffffffffffffffffffffffffffff1681526020019081526020015f206004015f9054906101000a900460ff166102bc57600933908060018154018082558091505060019003905f5260205f20015f9091909190916101000a81548173ffffffffffffffffffffffffffffffffffffffff021916908373ffffffffffffffffffffffffffffffffffffffff1602179055505b3460046002015f8282546102d09190610c3a565b92505081905550346004600301819055503360045f015f6101000a81548173ffffffffffffffffffffffffffffffffffffffff021916908373ffffffffffffffffffffffffffffffffffffffff1602179055506001600480015f6101000a81548160ff021916908315150217905550426004600101819055506004600a5f3373ffffffffffffffffffffffffffffffffffffffff1673ffffffffffffffffffffffffffffffffffffffff1681526020019081526020015f205f82015f9054906101000a900473ffffffffffffffffffffffffffffffffffffffff16815f015f6101000a81548173ffffffffffffffffffffffffffffffffffffffff021916908373ffffffffffffffffffffffffffffffffffffffff160217905550600182015481600101556002820154816002015560038201548160030155600482015f9054906101000a900460ff16816004015f6101000a81548160ff0219169083151502179055509050507fdd0b6c6a77960e2066c96171b4d7ac9e8b4c184011f38544afa36a5bb63ec59f3334604051610468929190610bb3565b60405180910390a15050565b5f8054906101000a900473ffffffffffffffffffffffffffffffffffffffff1673ffffffffffffffffffffffffffffffffffffffff163373ffffffffffffffffffffffffffffffffffffffff1614610501576040517f08c379a00000000000000000000000000000000000000000000000000000000081526004016104f890610e81565b60405180910390fd5b6002544211801561052357506102586004600101546105209190610c3a565b42115b610562576040517f08c379a000000000000000000000000000000000000000000000000000000000815260040161055990610ee9565b60405180910390fd5b60045f015f9054906101000a900473ffffffffffffffffffffffffffffffffffffffff1673ffffffffffffffffffffffffffffffffffffffff1660016040516105ab9190611000565b60405180910390207fef1c1ac56c3e721a0a9bdb9f70b99f3cd67d25c1aabe4830f296c2391dc1c2e86004600301546040516105e79190611016565b60405180910390a35f5b6009805490508110156108425760045f015f9054906101000a900473ffffffffffffffffffffffffffffffffffffffff1673ffffffffffffffffffffffffffffffffffffffff166009828154811061064c5761064b61102f565b5b905f5260205f20015f9054906101000a900473ffffffffffffffffffffffffffffffffffffffff1673ffffffffffffffffffffffffffffffffffffffff1614610835575f600a5f600984815481106106a7576106a661102f565b5b905f5260205f20015f9054906101000a900473ffffffffffffffffffffffffffffffffffffffff1673ffffffffffffffffffffffffffffffffffffffff1673ffffffffffffffffffffffffffffffffffffffff1681526020019081526020015f20600201549050606460028261071d9190610d0b565b6107279190610d79565b816107329190610c07565b90505f600a5f6009858154811061074c5761074b61102f565b5b905f5260205f20015f9054906101000a900473ffffffffffffffffffffffffffffffffffffffff1673ffffffffffffffffffffffffffffffffffffffff1673ffffffffffffffffffffffffffffffffffffffff1681526020019081526020015f2060020181905550600982815481106107c8576107c761102f565b5b905f5260205f20015f9054906101000a900473ffffffffffffffffffffffffffffffffffffffff1673ffffffffffffffffffffffffffffffffffffffff166108fc8290811502906040515f60405180830381858888f19350505050158015610832573d5f803e3d5ffd5b50505b80806001019150506105f1565b50565b5f806002544211801561086957506102586004600101546108669190610c3a565b42115b6108a8576040517f08c379a000000000000000000000000000000000000000000000000000000000815260040161089f90610ee9565b60405180910390fd5b60045f015f9054906101000a900473ffffffffffffffffffffffffffffffffffffffff16600460030154915091509091565b600a5f3373ffffffffffffffffffffffffffffffffffffffff1673ffffffffffffffffffffffffffffffffffffffff1681526020019081526020015f206004015f9054906101000a900460ff16610966576040517f08c379a000000000000000000000000000000000000000000000000000000000815260040161095d906110a6565b60405180910390fd5b5f6102586002546109779190610c07565b42101561098757600190506109c0565b600480015f9054906101000a900460ff1680156109b557506102586004600101546109b29190610c3a565b42105b156109bf57600190505b5b80610a00576040517f08c379a00000000000000000000000000000000000000000000000000000000081526004016109f790610ced565b60405180910390fd5b5f600a5f3373ffffffffffffffffffffffffffffffffffffffff1673ffffffffffffffffffffffffffffffffffffffff1681526020019081526020015f2060030154600a5f3373ffffffffffffffffffffffffffffffffffffffff1673ffffffffffffffffffffffffffffffffffffffff1681526020019081526020015f2060020154610a8d9190610c07565b9050600a5f3373ffffffffffffffffffffffffffffffffffffffff1673ffffffffffffffffffffffffffffffffffffffff1681526020019081526020015f2060030154600a5f3373ffffffffffffffffffffffffffffffffffffffff1673ffffffffffffffffffffffffffffffffffffffff1681526020019081526020015f20600201819055503373ffffffffffffffffffffffffffffffffffffffff166108fc8290811502906040515f60405180830381858888f19350505050158015610b57573d5f803e3d5ffd5b505050565b5f73ffffffffffffffffffffffffffffffffffffffff82169050919050565b5f610b8582610b5c565b9050919050565b610b9581610b7b565b82525050565b5f819050919050565b610bad81610b9b565b82525050565b5f604082019050610bc65f830185610b8c565b610bd36020830184610ba4565b9392505050565b7f4e487b71000000000000000000000000000000000000000000000000000000005f52601160045260245ffd5b5f610c1182610b9b565b9150610c1c83610b9b565b9250828203905081811115610c3457610c33610bda565b5b92915050565b5f610c4482610b9b565b9150610c4f83610b9b565b9250828201905080821115610c6757610c66610bda565b5b92915050565b5f82825260208201905092915050565b7f5468652074696d6520666f7220706c616365206120626964206861732066696e5f8201527f6973680000000000000000000000000000000000000000000000000000000000602082015250565b5f610cd7602383610c6d565b9150610ce282610c7d565b604082019050919050565b5f6020820190508181035f830152610d0481610ccb565b9050919050565b5f610d1582610b9b565b9150610d2083610b9b565b9250828202610d2e81610b9b565b91508282048414831517610d4557610d44610bda565b5b5092915050565b7f4e487b71000000000000000000000000000000000000000000000000000000005f52601260045260245ffd5b5f610d8382610b9b565b9150610d8e83610b9b565b925082610d9e57610d9d610d4c565b5b828204905092915050565b7f412076616c696420626964206d757374206265203520252067726561746572205f8201527f7468616e20746865206c617374206269642e0000000000000000000000000000602082015250565b5f610e03603283610c6d565b9150610e0e82610da9565b604082019050919050565b5f6020820190508181035f830152610e3081610df7565b9050919050565b7f4f6e6c792041646d696e205573657220697320616c6c6f7765642e00000000005f82015250565b5f610e6b601b83610c6d565b9150610e7682610e37565b602082019050919050565b5f6020820190508181035f830152610e9881610e5f565b9050919050565b7f5468652061756374696f6e20686173206e6f7420656e646564207965742e00005f82015250565b5f610ed3601e83610c6d565b9150610ede82610e9f565b602082019050919050565b5f6020820190508181035f830152610f0081610ec7565b9050919050565b7f4e487b71000000000000000000000000000000000000000000000000000000005f52602260045260245ffd5b5f6002820490506001821680610f4b57607f821691505b602082108103610f5e57610f5d610f07565b5b50919050565b5f81905092915050565b5f819050815f5260205f209050919050565b5f8154610f8c81610f34565b610f968186610f64565b9450600182165f8114610fb05760018114610fc557610ff7565b60ff1983168652811515820286019350610ff7565b610fce85610f6e565b5f5b83811015610fef57815481890152600182019150602081019050610fd0565b838801955050505b50505092915050565b5f61100b8284610f80565b915081905092915050565b5f6020820190506110295f830184610ba4565b92915050565b7f4e487b71000000000000000000000000000000000000000000000000000000005f52603260045260245ffd5b7f4f6e6c79204269646465722061726520616c6c6f7765642e00000000000000005f82015250565b5f611090601883610c6d565b915061109b8261105c565b602082019050919050565b5f6020820190508181035f8301526110bd81611084565b905091905056fea2646970667358221220e14dd48c9787d3f8657731b15e2d34e0846a6a0c88b6b83034d7f5c4bc64eab364736f6c634300081a0033",
			"opcodes": "PUSH1 0x80 PUSH1 0x40 MSTORE CALLVALUE DUP1 ISZERO PUSH2 0xF JUMPI PUSH0 DUP1 REVERT JUMPDEST POP PUSH1 0x40 MLOAD PUSH2 0x17FA CODESIZE SUB DUP1 PUSH2 0x17FA DUP4 CODECOPY DUP2 DUP2 ADD PUSH1 0x40 MSTORE DUP2 ADD SWAP1 PUSH2 0x31 SWAP2 SWAP1 PUSH2 0x283 JUMP JUMPDEST CALLER PUSH0 DUP1 PUSH2 0x100 EXP DUP2 SLOAD DUP2 PUSH20 0xFFFFFFFFFFFFFFFFFFFFFFFFFFFFFFFFFFFFFFFF MUL NOT AND SWAP1 DUP4 PUSH20 0xFFFFFFFFFFFFFFFFFFFFFFFFFFFFFFFFFFFFFFFF AND MUL OR SWAP1 SSTORE POP DUP3 PUSH1 0x1 SWAP1 DUP2 PUSH2 0x7F SWAP2 SWAP1 PUSH2 0x4FC JUMP JUMPDEST POP DUP2 PUSH4 0xFFFFFFFF AND TIMESTAMP PUSH2 0x92 SWAP2 SWAP1 PUSH2 0x5F8 JUMP JUMPDEST PUSH1 0x2 DUP2 SWAP1 SSTORE POP DUP1 PUSH4 0xFFFFFFFF AND PUSH1 0x3 DUP2 SWAP1 SSTORE POP PUSH1 0x1 PUSH1 0x40 MLOAD PUSH2 0xB4 SWAP2 SWAP1 PUSH2 0x6B5 JUMP JUMPDEST PUSH1 0x40 MLOAD DUP1 SWAP2 SUB SWAP1 KECCAK256 PUSH32 0x88B524D6621D7DE004458E51F7F3A0DEC805641FC7853FA1C25D15A1266B459E PUSH1 0x3 SLOAD PUSH1 0x40 MLOAD PUSH2 0xED SWAP2 SWAP1 PUSH2 0x6DA JUMP JUMPDEST PUSH1 0x40 MLOAD DUP1 SWAP2 SUB SWAP1 LOG2 POP POP POP PUSH2 0x6F3 JUMP JUMPDEST PUSH0 PUSH1 0x40 MLOAD SWAP1 POP SWAP1 JUMP JUMPDEST PUSH0 DUP1 REVERT JUMPDEST PUSH0 DUP1 REVERT JUMPDEST PUSH0 DUP1 REVERT JUMPDEST PUSH0 DUP1 REVERT JUMPDEST PUSH0 PUSH1 0x1F NOT PUSH1 0x1F DUP4 ADD AND SWAP1 POP SWAP2 SWAP1 POP JUMP JUMPDEST PUSH32 0x4E487B7100000000000000000000000000000000000000000000000000000000 PUSH0 MSTORE PUSH1 0x41 PUSH1 0x4 MSTORE PUSH1 0x24 PUSH0 REVERT JUMPDEST PUSH2 0x15C DUP3 PUSH2 0x116 JUMP JUMPDEST DUP2 ADD DUP2 DUP2 LT PUSH8 0xFFFFFFFFFFFFFFFF DUP3 GT OR ISZERO PUSH2 0x17B JUMPI PUSH2 0x17A PUSH2 0x126 JUMP JUMPDEST JUMPDEST DUP1 PUSH1 0x40 MSTORE POP POP POP JUMP JUMPDEST PUSH0 PUSH2 0x18D PUSH2 0xFD JUMP JUMPDEST SWAP1 POP PUSH2 0x199 DUP3 DUP3 PUSH2 0x153 JUMP JUMPDEST SWAP2 SWAP1 POP JUMP JUMPDEST PUSH0 PUSH8 0xFFFFFFFFFFFFFFFF DUP3 GT ISZERO PUSH2 0x1B8 JUMPI PUSH2 0x1B7 PUSH2 0x126 JUMP JUMPDEST JUMPDEST PUSH2 0x1C1 DUP3 PUSH2 0x116 JUMP JUMPDEST SWAP1 POP PUSH1 0x20 DUP2 ADD SWAP1 POP SWAP2 SWAP1 POP JUMP JUMPDEST DUP3 DUP2 DUP4 MCOPY PUSH0 DUP4 DUP4 ADD MSTORE POP POP POP JUMP JUMPDEST PUSH0 PUSH2 0x1EE PUSH2 0x1E9 DUP5 PUSH2 0x19E JUMP JUMPDEST PUSH2 0x184 JUMP JUMPDEST SWAP1 POP DUP3 DUP2 MSTORE PUSH1 0x20 DUP2 ADD DUP5 DUP5 DUP5 ADD GT ISZERO PUSH2 0x20A JUMPI PUSH2 0x209 PUSH2 0x112 JUMP JUMPDEST JUMPDEST PUSH2 0x215 DUP5 DUP3 DUP6 PUSH2 0x1CE JUMP JUMPDEST POP SWAP4 SWAP3 POP POP POP JUMP JUMPDEST PUSH0 DUP3 PUSH1 0x1F DUP4 ADD SLT PUSH2 0x231 JUMPI PUSH2 0x230 PUSH2 0x10E JUMP JUMPDEST JUMPDEST DUP2 MLOAD PUSH2 0x241 DUP5 DUP3 PUSH1 0x20 DUP7 ADD PUSH2 0x1DC JUMP JUMPDEST SWAP2 POP POP SWAP3 SWAP2 POP POP JUMP JUMPDEST PUSH0 PUSH4 0xFFFFFFFF DUP3 AND SWAP1 POP SWAP2 SWAP1 POP JUMP JUMPDEST PUSH2 0x262 DUP2 PUSH2 0x24A JUMP JUMPDEST DUP2 EQ PUSH2 0x26C JUMPI PUSH0 DUP1 REVERT JUMPDEST POP JUMP JUMPDEST PUSH0 DUP2 MLOAD SWAP1 POP PUSH2 0x27D DUP2 PUSH2 0x259 JUMP JUMPDEST SWAP3 SWAP2 POP POP JUMP JUMPDEST PUSH0 DUP1 PUSH0 PUSH1 0x60 DUP5 DUP7 SUB SLT ISZERO PUSH2 0x29A JUMPI PUSH2 0x299 PUSH2 0x106 JUMP JUMPDEST JUMPDEST PUSH0 DUP5 ADD MLOAD PUSH8 0xFFFFFFFFFFFFFFFF DUP2 GT ISZERO PUSH2 0x2B7 JUMPI PUSH2 0x2B6 PUSH2 0x10A JUMP JUMPDEST JUMPDEST PUSH2 0x2C3 DUP7 DUP3 DUP8 ADD PUSH2 0x21D JUMP JUMPDEST SWAP4 POP POP PUSH1 0x20 PUSH2 0x2D4 DUP7 DUP3 DUP8 ADD PUSH2 0x26F JUMP JUMPDEST SWAP3 POP POP PUSH1 0x40 PUSH2 0x2E5 DUP7 DUP3 DUP8 ADD PUSH2 0x26F JUMP JUMPDEST SWAP2 POP POP SWAP3 POP SWAP3 POP SWAP3 JUMP JUMPDEST PUSH0 DUP2 MLOAD SWAP1 POP SWAP2 SWAP1 POP JUMP JUMPDEST PUSH32 0x4E487B7100000000000000000000000000000000000000000000000000000000 PUSH0 MSTORE PUSH1 0x22 PUSH1 0x4 MSTORE PUSH1 0x24 PUSH0 REVERT JUMPDEST PUSH0 PUSH1 0x2 DUP3 DIV SWAP1 POP PUSH1 0x1 DUP3 AND DUP1 PUSH2 0x33D JUMPI PUSH1 0x7F DUP3 AND SWAP2 POP JUMPDEST PUSH1 0x20 DUP3 LT DUP2 SUB PUSH2 0x350 JUMPI PUSH2 0x34F PUSH2 0x2F9 JUMP JUMPDEST JUMPDEST POP SWAP2 SWAP1 POP JUMP JUMPDEST PUSH0 DUP2 SWAP1 POP DUP2 PUSH0 MSTORE PUSH1 0x20 PUSH0 KECCAK256 SWAP1 POP SWAP2 SWAP1 POP JUMP JUMPDEST PUSH0 PUSH1 0x20 PUSH1 0x1F DUP4 ADD DIV SWAP1 POP SWAP2 SWAP1 POP JUMP JUMPDEST PUSH0 DUP3 DUP3 SHL SWAP1 POP SWAP3 SWAP2 POP POP JUMP JUMPDEST PUSH0 PUSH1 0x8 DUP4 MUL PUSH2 0x3B2 PUSH32 0xFFFFFFFFFFFFFFFFFFFFFFFFFFFFFFFFFFFFFFFFFFFFFFFFFFFFFFFFFFFFFFFF DUP3 PUSH2 0x377 JUMP JUMPDEST PUSH2 0x3BC DUP7 DUP4 PUSH2 0x377 JUMP JUMPDEST SWAP6 POP DUP1 NOT DUP5 AND SWAP4 POP DUP1 DUP7 AND DUP5 OR SWAP3 POP POP POP SWAP4 SWAP3 POP POP POP JUMP JUMPDEST PUSH0 DUP2 SWAP1 POP SWAP2 SWAP1 POP JUMP JUMPDEST PUSH0 DUP2 SWAP1 POP SWAP2 SWAP1 POP JUMP JUMPDEST PUSH0 PUSH2 0x400 PUSH2 0x3FB PUSH2 0x3F6 DUP5 PUSH2 0x3D4 JUMP JUMPDEST PUSH2 0x3DD JUMP JUMPDEST PUSH2 0x3D4 JUMP JUMPDEST SWAP1 POP SWAP2 SWAP1 POP JUMP JUMPDEST PUSH0 DUP2 SWAP1 POP SWAP2 SWAP1 POP JUMP JUMPDEST PUSH2 0x419 DUP4 PUSH2 0x3E6 JUMP JUMPDEST PUSH2 0x42D PUSH2 0x425 DUP3 PUSH2 0x407 JUMP JUMPDEST DUP5 DUP5 SLOAD PUSH2 0x383 JUMP JUMPDEST DUP3 SSTORE POP POP POP POP JUMP JUMPDEST PUSH0 SWAP1 JUMP JUMPDEST PUSH2 0x441 PUSH2 0x435 JUMP JUMPDEST PUSH2 0x44C DUP2 DUP5 DUP5 PUSH2 0x410 JUMP JUMPDEST POP POP POP JUMP JUMPDEST JUMPDEST DUP2 DUP2 LT ISZERO PUSH2 0x46F JUMPI PUSH2 0x464 PUSH0 DUP3 PUSH2 0x439 JUMP JUMPDEST PUSH1 0x1 DUP2 ADD SWAP1 POP PUSH2 0x452 JUMP JUMPDEST POP POP JUMP JUMPDEST PUSH1 0x1F DUP3 GT ISZERO PUSH2 0x4B4 JUMPI PUSH2 0x485 DUP2 PUSH2 0x356 JUMP JUMPDEST PUSH2 0x48E DUP5 PUSH2 0x368 JUMP JUMPDEST DUP2 ADD PUSH1 0x20 DUP6 LT ISZERO PUSH2 0x49D JUMPI DUP2 SWAP1 POP JUMPDEST PUSH2 0x4B1 PUSH2 0x4A9 DUP6 PUSH2 0x368 JUMP JUMPDEST DUP4 ADD DUP3 PUSH2 0x451 JUMP JUMPDEST POP POP JUMPDEST POP POP POP JUMP JUMPDEST PUSH0 DUP3 DUP3 SHR SWAP1 POP SWAP3 SWAP2 POP POP JUMP JUMPDEST PUSH0 PUSH2 0x4D4 PUSH0 NOT DUP5 PUSH1 0x8 MUL PUSH2 0x4B9 JUMP JUMPDEST NOT DUP1 DUP4 AND SWAP2 POP POP SWAP3 SWAP2 POP POP JUMP JUMPDEST PUSH0 PUSH2 0x4EC DUP4 DUP4 PUSH2 0x4C5 JUMP JUMPDEST SWAP2 POP DUP3 PUSH1 0x2 MUL DUP3 OR SWAP1 POP SWAP3 SWAP2 POP POP JUMP JUMPDEST PUSH2 0x505 DUP3 PUSH2 0x2EF JUMP JUMPDEST PUSH8 0xFFFFFFFFFFFFFFFF DUP2 GT ISZERO PUSH2 0x51E JUMPI PUSH2 0x51D PUSH2 0x126 JUMP JUMPDEST JUMPDEST PUSH2 0x528 DUP3 SLOAD PUSH2 0x326 JUMP JUMPDEST PUSH2 0x533 DUP3 DUP3 DUP6 PUSH2 0x473 JUMP JUMPDEST PUSH0 PUSH1 0x20 SWAP1 POP PUSH1 0x1F DUP4 GT PUSH1 0x1 DUP2 EQ PUSH2 0x564 JUMPI PUSH0 DUP5 ISZERO PUSH2 0x552 JUMPI DUP3 DUP8 ADD MLOAD SWAP1 POP JUMPDEST PUSH2 0x55C DUP6 DUP3 PUSH2 0x4E1 JUMP JUMPDEST DUP7 SSTORE POP PUSH2 0x5C3 JUMP JUMPDEST PUSH1 0x1F NOT DUP5 AND PUSH2 0x572 DUP7 PUSH2 0x356 JUMP JUMPDEST PUSH0 JUMPDEST DUP3 DUP2 LT ISZERO PUSH2 0x599 JUMPI DUP5 DUP10 ADD MLOAD DUP3 SSTORE PUSH1 0x1 DUP3 ADD SWAP2 POP PUSH1 0x20 DUP6 ADD SWAP5 POP PUSH1 0x20 DUP2 ADD SWAP1 POP PUSH2 0x574 JUMP JUMPDEST DUP7 DUP4 LT ISZERO PUSH2 0x5B6 JUMPI DUP5 DUP10 ADD MLOAD PUSH2 0x5B2 PUSH1 0x1F DUP10 AND DUP3 PUSH2 0x4C5 JUMP JUMPDEST DUP4 SSTORE POP JUMPDEST PUSH1 0x1 PUSH1 0x2 DUP9 MUL ADD DUP9 SSTORE POP POP POP JUMPDEST POP POP POP POP POP POP JUMP JUMPDEST PUSH32 0x4E487B7100000000000000000000000000000000000000000000000000000000 PUSH0 MSTORE PUSH1 0x11 PUSH1 0x4 MSTORE PUSH1 0x24 PUSH0 REVERT JUMPDEST PUSH0 PUSH2 0x602 DUP3 PUSH2 0x3D4 JUMP JUMPDEST SWAP2 POP PUSH2 0x60D DUP4 PUSH2 0x3D4 JUMP JUMPDEST SWAP3 POP DUP3 DUP3 ADD SWAP1 POP DUP1 DUP3 GT ISZERO PUSH2 0x625 JUMPI PUSH2 0x624 PUSH2 0x5CB JUMP JUMPDEST JUMPDEST SWAP3 SWAP2 POP POP JUMP JUMPDEST PUSH0 DUP2 SWAP1 POP SWAP3 SWAP2 POP POP JUMP JUMPDEST PUSH0 DUP2 SLOAD PUSH2 0x641 DUP2 PUSH2 0x326 JUMP JUMPDEST PUSH2 0x64B DUP2 DUP7 PUSH2 0x62B JUMP JUMPDEST SWAP5 POP PUSH1 0x1 DUP3 AND PUSH0 DUP2 EQ PUSH2 0x665 JUMPI PUSH1 0x1 DUP2 EQ PUSH2 0x67A JUMPI PUSH2 0x6AC JUMP JUMPDEST PUSH1 0xFF NOT DUP4 AND DUP7 MSTORE DUP2 ISZERO ISZERO DUP3 MUL DUP7 ADD SWAP4 POP PUSH2 0x6AC JUMP JUMPDEST PUSH2 0x683 DUP6 PUSH2 0x356 JUMP JUMPDEST PUSH0 JUMPDEST DUP4 DUP2 LT ISZERO PUSH2 0x6A4 JUMPI DUP2 SLOAD DUP2 DUP10 ADD MSTORE PUSH1 0x1 DUP3 ADD SWAP2 POP PUSH1 0x20 DUP2 ADD SWAP1 POP PUSH2 0x685 JUMP JUMPDEST DUP4 DUP9 ADD SWAP6 POP POP POP JUMPDEST POP POP POP SWAP3 SWAP2 POP POP JUMP JUMPDEST PUSH0 PUSH2 0x6C0 DUP3 DUP5 PUSH2 0x635 JUMP JUMPDEST SWAP2 POP DUP2 SWAP1 POP SWAP3 SWAP2 POP POP JUMP JUMPDEST PUSH2 0x6D4 DUP2 PUSH2 0x3D4 JUMP JUMPDEST DUP3 MSTORE POP POP JUMP JUMPDEST PUSH0 PUSH1 0x20 DUP3 ADD SWAP1 POP PUSH2 0x6ED PUSH0 DUP4 ADD DUP5 PUSH2 0x6CB JUMP JUMPDEST SWAP3 SWAP2 POP POP JUMP JUMPDEST PUSH2 0x10FA DUP1 PUSH2 0x700 PUSH0 CODECOPY PUSH0 RETURN INVALID PUSH1 0x80 PUSH1 0x40 MSTORE PUSH1 0x4 CALLDATASIZE LT PUSH2 0x3E JUMPI PUSH0 CALLDATALOAD PUSH1 0xE0 SHR DUP1 PUSH4 0x1998AEEF EQ PUSH2 0x42 JUMPI DUP1 PUSH4 0x43D726D6 EQ PUSH2 0x4C JUMPI DUP1 PUSH4 0xBB10D006 EQ PUSH2 0x62 JUMPI DUP1 PUSH4 0xD4E93292 EQ PUSH2 0x8D JUMPI JUMPDEST PUSH0 DUP1 REVERT JUMPDEST PUSH2 0x4A PUSH2 0xA3 JUMP JUMPDEST STOP JUMPDEST CALLVALUE DUP1 ISZERO PUSH2 0x57 JUMPI PUSH0 DUP1 REVERT JUMPDEST POP PUSH2 0x60 PUSH2 0x474 JUMP JUMPDEST STOP JUMPDEST CALLVALUE DUP1 ISZERO PUSH2 0x6D JUMPI PUSH0 DUP1 REVERT JUMPDEST POP PUSH2 0x76 PUSH2 0x845 JUMP JUMPDEST PUSH1 0x40 MLOAD PUSH2 0x84 SWAP3 SWAP2 SWAP1 PUSH2 0xBB3 JUMP JUMPDEST PUSH1 0x40 MLOAD DUP1 SWAP2 SUB SWAP1 RETURN JUMPDEST CALLVALUE DUP1 ISZERO PUSH2 0x98 JUMPI PUSH0 DUP1 REVERT JUMPDEST POP PUSH2 0xA1 PUSH2 0x8DA JUMP JUMPDEST STOP JUMPDEST PUSH0 PUSH2 0x258 PUSH1 0x2 SLOAD PUSH2 0xB4 SWAP2 SWAP1 PUSH2 0xC07 JUMP JUMPDEST TIMESTAMP LT ISZERO PUSH2 0xC4 JUMPI PUSH1 0x1 SWAP1 POP PUSH2 0xFD JUMP JUMPDEST PUSH1 0x4 DUP1 ADD PUSH0 SWAP1 SLOAD SWAP1 PUSH2 0x100 EXP SWAP1 DIV PUSH1 0xFF AND DUP1 ISZERO PUSH2 0xF2 JUMPI POP PUSH2 0x258 PUSH1 0x4 PUSH1 0x1 ADD SLOAD PUSH2 0xEF SWAP2 SWAP1 PUSH2 0xC3A JUMP JUMPDEST TIMESTAMP LT JUMPDEST ISZERO PUSH2 0xFC JUMPI PUSH1 0x1 SWAP1 POP JUMPDEST JUMPDEST DUP1 PUSH2 0x13D JUMPI PUSH1 0x40 MLOAD PUSH32 0x8C379A000000000000000000000000000000000000000000000000000000000 DUP2 MSTORE PUSH1 0x4 ADD PUSH2 0x134 SWAP1 PUSH2 0xCED JUMP JUMPDEST PUSH1 0x40 MLOAD DUP1 SWAP2 SUB SWAP1 REVERT JUMPDEST PUSH0 PUSH1 0x4 DUP1 ADD PUSH0 SWAP1 SLOAD SWAP1 PUSH2 0x100 EXP SWAP1 DIV PUSH1 0xFF AND DUP1 ISZERO PUSH2 0x187 JUMPI POP PUSH1 0x64 PUSH1 0x5 PUSH1 0x4 PUSH1 0x3 ADD SLOAD PUSH2 0x16A SWAP2 SWAP1 PUSH2 0xD0B JUMP JUMPDEST PUSH2 0x174 SWAP2 SWAP1 PUSH2 0xD79 JUMP JUMPDEST PUSH1 0x4 PUSH1 0x3 ADD SLOAD PUSH2 0x184 SWAP2 SWAP1 PUSH2 0xC3A JUMP JUMPDEST CALLVALUE GT JUMPDEST ISZERO PUSH2 0x195 JUMPI PUSH1 0x1 SWAP1 POP PUSH2 0x1CA JUMP JUMPDEST PUSH1 0x64 PUSH1 0x5 PUSH1 0x3 SLOAD PUSH2 0x1A6 SWAP2 SWAP1 PUSH2 0xD0B JUMP JUMPDEST PUSH2 0x1B0 SWAP2 SWAP1 PUSH2 0xD79 JUMP JUMPDEST PUSH1 0x3 SLOAD PUSH2 0x1BD SWAP2 SWAP1 PUSH2 0xC3A JUMP JUMPDEST CALLVALUE GT ISZERO PUSH2 0x1C9 JUMPI PUSH1 0x1 SWAP1 POP JUMPDEST JUMPDEST DUP1 PUSH2 0x20A JUMPI PUSH1 0x40 MLOAD PUSH32 0x8C379A000000000000000000000000000000000000000000000000000000000 DUP2 MSTORE PUSH1 0x4 ADD PUSH2 0x201 SWAP1 PUSH2 0xE19 JUMP JUMPDEST PUSH1 0x40 MLOAD DUP1 SWAP2 SUB SWAP1 REVERT JUMPDEST PUSH1 0xA PUSH0 CALLER PUSH20 0xFFFFFFFFFFFFFFFFFFFFFFFFFFFFFFFFFFFFFFFF AND PUSH20 0xFFFFFFFFFFFFFFFFFFFFFFFFFFFFFFFFFFFFFFFF AND DUP2 MSTORE PUSH1 0x20 ADD SWAP1 DUP2 MSTORE PUSH1 0x20 ADD PUSH0 KECCAK256 PUSH1 0x4 ADD PUSH0 SWAP1 SLOAD SWAP1 PUSH2 0x100 EXP SWAP1 DIV PUSH1 0xFF AND PUSH2 0x2BC JUMPI PUSH1 0x9 CALLER SWAP1 DUP1 PUSH1 0x1 DUP2 SLOAD ADD DUP1 DUP3 SSTORE DUP1 SWAP2 POP POP PUSH1 0x1 SWAP1 SUB SWAP1 PUSH0 MSTORE PUSH1 0x20 PUSH0 KECCAK256 ADD PUSH0 SWAP1 SWAP2 SWAP1 SWAP2 SWAP1 SWAP2 PUSH2 0x100 EXP DUP2 SLOAD DUP2 PUSH20 0xFFFFFFFFFFFFFFFFFFFFFFFFFFFFFFFFFFFFFFFF MUL NOT AND SWAP1 DUP4 PUSH20 0xFFFFFFFFFFFFFFFFFFFFFFFFFFFFFFFFFFFFFFFF AND MUL OR SWAP1 SSTORE POP JUMPDEST CALLVALUE PUSH1 0x4 PUSH1 0x2 ADD PUSH0 DUP3 DUP3 SLOAD PUSH2 0x2D0 SWAP2 SWAP1 PUSH2 0xC3A JUMP JUMPDEST SWAP3 POP POP DUP2 SWAP1 SSTORE POP CALLVALUE PUSH1 0x4 PUSH1 0x3 ADD DUP2 SWAP1 SSTORE POP CALLER PUSH1 0x4 PUSH0 ADD PUSH0 PUSH2 0x100 EXP DUP2 SLOAD DUP2 PUSH20 0xFFFFFFFFFFFFFFFFFFFFFFFFFFFFFFFFFFFFFFFF MUL NOT AND SWAP1 DUP4 PUSH20 0xFFFFFFFFFFFFFFFFFFFFFFFFFFFFFFFFFFFFFFFF AND MUL OR SWAP1 SSTORE POP PUSH1 0x1 PUSH1 0x4 DUP1 ADD PUSH0 PUSH2 0x100 EXP DUP2 SLOAD DUP2 PUSH1 0xFF MUL NOT AND SWAP1 DUP4 ISZERO ISZERO MUL OR SWAP1 SSTORE POP TIMESTAMP PUSH1 0x4 PUSH1 0x1 ADD DUP2 SWAP1 SSTORE POP PUSH1 0x4 PUSH1 0xA PUSH0 CALLER PUSH20 0xFFFFFFFFFFFFFFFFFFFFFFFFFFFFFFFFFFFFFFFF AND PUSH20 0xFFFFFFFFFFFFFFFFFFFFFFFFFFFFFFFFFFFFFFFF AND DUP2 MSTORE PUSH1 0x20 ADD SWAP1 DUP2 MSTORE PUSH1 0x20 ADD PUSH0 KECCAK256 PUSH0 DUP3 ADD PUSH0 SWAP1 SLOAD SWAP1 PUSH2 0x100 EXP SWAP1 DIV PUSH20 0xFFFFFFFFFFFFFFFFFFFFFFFFFFFFFFFFFFFFFFFF AND DUP2 PUSH0 ADD PUSH0 PUSH2 0x100 EXP DUP2 SLOAD DUP2 PUSH20 0xFFFFFFFFFFFFFFFFFFFFFFFFFFFFFFFFFFFFFFFF MUL NOT AND SWAP1 DUP4 PUSH20 0xFFFFFFFFFFFFFFFFFFFFFFFFFFFFFFFFFFFFFFFF AND MUL OR SWAP1 SSTORE POP PUSH1 0x1 DUP3 ADD SLOAD DUP2 PUSH1 0x1 ADD SSTORE PUSH1 0x2 DUP3 ADD SLOAD DUP2 PUSH1 0x2 ADD SSTORE PUSH1 0x3 DUP3 ADD SLOAD DUP2 PUSH1 0x3 ADD SSTORE PUSH1 0x4 DUP3 ADD PUSH0 SWAP1 SLOAD SWAP1 PUSH2 0x100 EXP SWAP1 DIV PUSH1 0xFF AND DUP2 PUSH1 0x4 ADD PUSH0 PUSH2 0x100 EXP DUP2 SLOAD DUP2 PUSH1 0xFF MUL NOT AND SWAP1 DUP4 ISZERO ISZERO MUL OR SWAP1 SSTORE POP SWAP1 POP POP PUSH32 0xDD0B6C6A77960E2066C96171B4D7AC9E8B4C184011F38544AFA36A5BB63EC59F CALLER CALLVALUE PUSH1 0x40 MLOAD PUSH2 0x468 SWAP3 SWAP2 SWAP1 PUSH2 0xBB3 JUMP JUMPDEST PUSH1 0x40 MLOAD DUP1 SWAP2 SUB SWAP1 LOG1 POP POP JUMP JUMPDEST PUSH0 DUP1 SLOAD SWAP1 PUSH2 0x100 EXP SWAP1 DIV PUSH20 0xFFFFFFFFFFFFFFFFFFFFFFFFFFFFFFFFFFFFFFFF AND PUSH20 0xFFFFFFFFFFFFFFFFFFFFFFFFFFFFFFFFFFFFFFFF AND CALLER PUSH20 0xFFFFFFFFFFFFFFFFFFFFFFFFFFFFFFFFFFFFFFFF AND EQ PUSH2 0x501 JUMPI PUSH1 0x40 MLOAD PUSH32 0x8C379A000000000000000000000000000000000000000000000000000000000 DUP2 MSTORE PUSH1 0x4 ADD PUSH2 0x4F8 SWAP1 PUSH2 0xE81 JUMP JUMPDEST PUSH1 0x40 MLOAD DUP1 SWAP2 SUB SWAP1 REVERT JUMPDEST PUSH1 0x2 SLOAD TIMESTAMP GT DUP1 ISZERO PUSH2 0x523 JUMPI POP PUSH2 0x258 PUSH1 0x4 PUSH1 0x1 ADD SLOAD PUSH2 0x520 SWAP2 SWAP1 PUSH2 0xC3A JUMP JUMPDEST TIMESTAMP GT JUMPDEST PUSH2 0x562 JUMPI PUSH1 0x40 MLOAD PUSH32 0x8C379A000000000000000000000000000000000000000000000000000000000 DUP2 MSTORE PUSH1 0x4 ADD PUSH2 0x559 SWAP1 PUSH2 0xEE9 JUMP JUMPDEST PUSH1 0x40 MLOAD DUP1 SWAP2 SUB SWAP1 REVERT JUMPDEST PUSH1 0x4 PUSH0 ADD PUSH0 SWAP1 SLOAD SWAP1 PUSH2 0x100 EXP SWAP1 DIV PUSH20 0xFFFFFFFFFFFFFFFFFFFFFFFFFFFFFFFFFFFFFFFF AND PUSH20 0xFFFFFFFFFFFFFFFFFFFFFFFFFFFFFFFFFFFFFFFF AND PUSH1 0x1 PUSH1 0x40 MLOAD PUSH2 0x5AB SWAP2 SWAP1 PUSH2 0x1000 JUMP JUMPDEST PUSH1 0x40 MLOAD DUP1 SWAP2 SUB SWAP1 KECCAK256 PUSH32 0xEF1C1AC56C3E721A0A9BDB9F70B99F3CD67D25C1AABE4830F296C2391DC1C2E8 PUSH1 0x4 PUSH1 0x3 ADD SLOAD PUSH1 0x40 MLOAD PUSH2 0x5E7 SWAP2 SWAP1 PUSH2 0x1016 JUMP JUMPDEST PUSH1 0x40 MLOAD DUP1 SWAP2 SUB SWAP1 LOG3 PUSH0 JUMPDEST PUSH1 0x9 DUP1 SLOAD SWAP1 POP DUP2 LT ISZERO PUSH2 0x842 JUMPI PUSH1 0x4 PUSH0 ADD PUSH0 SWAP1 SLOAD SWAP1 PUSH2 0x100 EXP SWAP1 DIV PUSH20 0xFFFFFFFFFFFFFFFFFFFFFFFFFFFFFFFFFFFFFFFF AND PUSH20 0xFFFFFFFFFFFFFFFFFFFFFFFFFFFFFFFFFFFFFFFF AND PUSH1 0x9 DUP3 DUP2 SLOAD DUP2 LT PUSH2 0x64C JUMPI PUSH2 0x64B PUSH2 0x102F JUMP JUMPDEST JUMPDEST SWAP1 PUSH0 MSTORE PUSH1 0x20 PUSH0 KECCAK256 ADD PUSH0 SWAP1 SLOAD SWAP1 PUSH2 0x100 EXP SWAP1 DIV PUSH20 0xFFFFFFFFFFFFFFFFFFFFFFFFFFFFFFFFFFFFFFFF AND PUSH20 0xFFFFFFFFFFFFFFFFFFFFFFFFFFFFFFFFFFFFFFFF AND EQ PUSH2 0x835 JUMPI PUSH0 PUSH1 0xA PUSH0 PUSH1 0x9 DUP5 DUP2 SLOAD DUP2 LT PUSH2 0x6A7 JUMPI PUSH2 0x6A6 PUSH2 0x102F JUMP JUMPDEST JUMPDEST SWAP1 PUSH0 MSTORE PUSH1 0x20 PUSH0 KECCAK256 ADD PUSH0 SWAP1 SLOAD SWAP1 PUSH2 0x100 EXP SWAP1 DIV PUSH20 0xFFFFFFFFFFFFFFFFFFFFFFFFFFFFFFFFFFFFFFFF AND PUSH20 0xFFFFFFFFFFFFFFFFFFFFFFFFFFFFFFFFFFFFFFFF AND PUSH20 0xFFFFFFFFFFFFFFFFFFFFFFFFFFFFFFFFFFFFFFFF AND DUP2 MSTORE PUSH1 0x20 ADD SWAP1 DUP2 MSTORE PUSH1 0x20 ADD PUSH0 KECCAK256 PUSH1 0x2 ADD SLOAD SWAP1 POP PUSH1 0x64 PUSH1 0x2 DUP3 PUSH2 0x71D SWAP2 SWAP1 PUSH2 0xD0B JUMP JUMPDEST PUSH2 0x727 SWAP2 SWAP1 PUSH2 0xD79 JUMP JUMPDEST DUP2 PUSH2 0x732 SWAP2 SWAP1 PUSH2 0xC07 JUMP JUMPDEST SWAP1 POP PUSH0 PUSH1 0xA PUSH0 PUSH1 0x9 DUP6 DUP2 SLOAD DUP2 LT PUSH2 0x74C JUMPI PUSH2 0x74B PUSH2 0x102F JUMP JUMPDEST JUMPDEST SWAP1 PUSH0 MSTORE PUSH1 0x20 PUSH0 KECCAK256 ADD PUSH0 SWAP1 SLOAD SWAP1 PUSH2 0x100 EXP SWAP1 DIV PUSH20 0xFFFFFFFFFFFFFFFFFFFFFFFFFFFFFFFFFFFFFFFF AND PUSH20 0xFFFFFFFFFFFFFFFFFFFFFFFFFFFFFFFFFFFFFFFF AND PUSH20 0xFFFFFFFFFFFFFFFFFFFFFFFFFFFFFFFFFFFFFFFF AND DUP2 MSTORE PUSH1 0x20 ADD SWAP1 DUP2 MSTORE PUSH1 0x20 ADD PUSH0 KECCAK256 PUSH1 0x2 ADD DUP2 SWAP1 SSTORE POP PUSH1 0x9 DUP3 DUP2 SLOAD DUP2 LT PUSH2 0x7C8 JUMPI PUSH2 0x7C7 PUSH2 0x102F JUMP JUMPDEST JUMPDEST SWAP1 PUSH0 MSTORE PUSH1 0x20 PUSH0 KECCAK256 ADD PUSH0 SWAP1 SLOAD SWAP1 PUSH2 0x100 EXP SWAP1 DIV PUSH20 0xFFFFFFFFFFFFFFFFFFFFFFFFFFFFFFFFFFFFFFFF AND PUSH20 0xFFFFFFFFFFFFFFFFFFFFFFFFFFFFFFFFFFFFFFFF AND PUSH2 0x8FC DUP3 SWAP1 DUP2 ISZERO MUL SWAP1 PUSH1 0x40 MLOAD PUSH0 PUSH1 0x40 MLOAD DUP1 DUP4 SUB DUP2 DUP6 DUP9 DUP9 CALL SWAP4 POP POP POP POP ISZERO DUP1 ISZERO PUSH2 0x832 JUMPI RETURNDATASIZE PUSH0 DUP1 RETURNDATACOPY RETURNDATASIZE PUSH0 REVERT JUMPDEST POP POP JUMPDEST DUP1 DUP1 PUSH1 0x1 ADD SWAP2 POP POP PUSH2 0x5F1 JUMP JUMPDEST POP JUMP JUMPDEST PUSH0 DUP1 PUSH1 0x2 SLOAD TIMESTAMP GT DUP1 ISZERO PUSH2 0x869 JUMPI POP PUSH2 0x258 PUSH1 0x4 PUSH1 0x1 ADD SLOAD PUSH2 0x866 SWAP2 SWAP1 PUSH2 0xC3A JUMP JUMPDEST TIMESTAMP GT JUMPDEST PUSH2 0x8A8 JUMPI PUSH1 0x40 MLOAD PUSH32 0x8C379A000000000000000000000000000000000000000000000000000000000 DUP2 MSTORE PUSH1 0x4 ADD PUSH2 0x89F SWAP1 PUSH2 0xEE9 JUMP JUMPDEST PUSH1 0x40 MLOAD DUP1 SWAP2 SUB SWAP1 REVERT JUMPDEST PUSH1 0x4 PUSH0 ADD PUSH0 SWAP1 SLOAD SWAP1 PUSH2 0x100 EXP SWAP1 DIV PUSH20 0xFFFFFFFFFFFFFFFFFFFFFFFFFFFFFFFFFFFFFFFF AND PUSH1 0x4 PUSH1 0x3 ADD SLOAD SWAP2 POP SWAP2 POP SWAP1 SWAP2 JUMP JUMPDEST PUSH1 0xA PUSH0 CALLER PUSH20 0xFFFFFFFFFFFFFFFFFFFFFFFFFFFFFFFFFFFFFFFF AND PUSH20 0xFFFFFFFFFFFFFFFFFFFFFFFFFFFFFFFFFFFFFFFF AND DUP2 MSTORE PUSH1 0x20 ADD SWAP1 DUP2 MSTORE PUSH1 0x20 ADD PUSH0 KECCAK256 PUSH1 0x4 ADD PUSH0 SWAP1 SLOAD SWAP1 PUSH2 0x100 EXP SWAP1 DIV PUSH1 0xFF AND PUSH2 0x966 JUMPI PUSH1 0x40 MLOAD PUSH32 0x8C379A000000000000000000000000000000000000000000000000000000000 DUP2 MSTORE PUSH1 0x4 ADD PUSH2 0x95D SWAP1 PUSH2 0x10A6 JUMP JUMPDEST PUSH1 0x40 MLOAD DUP1 SWAP2 SUB SWAP1 REVERT JUMPDEST PUSH0 PUSH2 0x258 PUSH1 0x2 SLOAD PUSH2 0x977 SWAP2 SWAP1 PUSH2 0xC07 JUMP JUMPDEST TIMESTAMP LT ISZERO PUSH2 0x987 JUMPI PUSH1 0x1 SWAP1 POP PUSH2 0x9C0 JUMP JUMPDEST PUSH1 0x4 DUP1 ADD PUSH0 SWAP1 SLOAD SWAP1 PUSH2 0x100 EXP SWAP1 DIV PUSH1 0xFF AND DUP1 ISZERO PUSH2 0x9B5 JUMPI POP PUSH2 0x258 PUSH1 0x4 PUSH1 0x1 ADD SLOAD PUSH2 0x9B2 SWAP2 SWAP1 PUSH2 0xC3A JUMP JUMPDEST TIMESTAMP LT JUMPDEST ISZERO PUSH2 0x9BF JUMPI PUSH1 0x1 SWAP1 POP JUMPDEST JUMPDEST DUP1 PUSH2 0xA00 JUMPI PUSH1 0x40 MLOAD PUSH32 0x8C379A000000000000000000000000000000000000000000000000000000000 DUP2 MSTORE PUSH1 0x4 ADD PUSH2 0x9F7 SWAP1 PUSH2 0xCED JUMP JUMPDEST PUSH1 0x40 MLOAD DUP1 SWAP2 SUB SWAP1 REVERT JUMPDEST PUSH0 PUSH1 0xA PUSH0 CALLER PUSH20 0xFFFFFFFFFFFFFFFFFFFFFFFFFFFFFFFFFFFFFFFF AND PUSH20 0xFFFFFFFFFFFFFFFFFFFFFFFFFFFFFFFFFFFFFFFF AND DUP2 MSTORE PUSH1 0x20 ADD SWAP1 DUP2 MSTORE PUSH1 0x20 ADD PUSH0 KECCAK256 PUSH1 0x3 ADD SLOAD PUSH1 0xA PUSH0 CALLER PUSH20 0xFFFFFFFFFFFFFFFFFFFFFFFFFFFFFFFFFFFFFFFF AND PUSH20 0xFFFFFFFFFFFFFFFFFFFFFFFFFFFFFFFFFFFFFFFF AND DUP2 MSTORE PUSH1 0x20 ADD SWAP1 DUP2 MSTORE PUSH1 0x20 ADD PUSH0 KECCAK256 PUSH1 0x2 ADD SLOAD PUSH2 0xA8D SWAP2 SWAP1 PUSH2 0xC07 JUMP JUMPDEST SWAP1 POP PUSH1 0xA PUSH0 CALLER PUSH20 0xFFFFFFFFFFFFFFFFFFFFFFFFFFFFFFFFFFFFFFFF AND PUSH20 0xFFFFFFFFFFFFFFFFFFFFFFFFFFFFFFFFFFFFFFFF AND DUP2 MSTORE PUSH1 0x20 ADD SWAP1 DUP2 MSTORE PUSH1 0x20 ADD PUSH0 KECCAK256 PUSH1 0x3 ADD SLOAD PUSH1 0xA PUSH0 CALLER PUSH20 0xFFFFFFFFFFFFFFFFFFFFFFFFFFFFFFFFFFFFFFFF AND PUSH20 0xFFFFFFFFFFFFFFFFFFFFFFFFFFFFFFFFFFFFFFFF AND DUP2 MSTORE PUSH1 0x20 ADD SWAP1 DUP2 MSTORE PUSH1 0x20 ADD PUSH0 KECCAK256 PUSH1 0x2 ADD DUP2 SWAP1 SSTORE POP CALLER PUSH20 0xFFFFFFFFFFFFFFFFFFFFFFFFFFFFFFFFFFFFFFFF AND PUSH2 0x8FC DUP3 SWAP1 DUP2 ISZERO MUL SWAP1 PUSH1 0x40 MLOAD PUSH0 PUSH1 0x40 MLOAD DUP1 DUP4 SUB DUP2 DUP6 DUP9 DUP9 CALL SWAP4 POP POP POP POP ISZERO DUP1 ISZERO PUSH2 0xB57 JUMPI RETURNDATASIZE PUSH0 DUP1 RETURNDATACOPY RETURNDATASIZE PUSH0 REVERT JUMPDEST POP POP POP JUMP JUMPDEST PUSH0 PUSH20 0xFFFFFFFFFFFFFFFFFFFFFFFFFFFFFFFFFFFFFFFF DUP3 AND SWAP1 POP SWAP2 SWAP1 POP JUMP JUMPDEST PUSH0 PUSH2 0xB85 DUP3 PUSH2 0xB5C JUMP JUMPDEST SWAP1 POP SWAP2 SWAP1 POP JUMP JUMPDEST PUSH2 0xB95 DUP2 PUSH2 0xB7B JUMP JUMPDEST DUP3 MSTORE POP POP JUMP JUMPDEST PUSH0 DUP2 SWAP1 POP SWAP2 SWAP1 POP JUMP JUMPDEST PUSH2 0xBAD DUP2 PUSH2 0xB9B JUMP JUMPDEST DUP3 MSTORE POP POP JUMP JUMPDEST PUSH0 PUSH1 0x40 DUP3 ADD SWAP1 POP PUSH2 0xBC6 PUSH0 DUP4 ADD DUP6 PUSH2 0xB8C JUMP JUMPDEST PUSH2 0xBD3 PUSH1 0x20 DUP4 ADD DUP5 PUSH2 0xBA4 JUMP JUMPDEST SWAP4 SWAP3 POP POP POP JUMP JUMPDEST PUSH32 0x4E487B7100000000000000000000000000000000000000000000000000000000 PUSH0 MSTORE PUSH1 0x11 PUSH1 0x4 MSTORE PUSH1 0x24 PUSH0 REVERT JUMPDEST PUSH0 PUSH2 0xC11 DUP3 PUSH2 0xB9B JUMP JUMPDEST SWAP2 POP PUSH2 0xC1C DUP4 PUSH2 0xB9B JUMP JUMPDEST SWAP3 POP DUP3 DUP3 SUB SWAP1 POP DUP2 DUP2 GT ISZERO PUSH2 0xC34 JUMPI PUSH2 0xC33 PUSH2 0xBDA JUMP JUMPDEST JUMPDEST SWAP3 SWAP2 POP POP JUMP JUMPDEST PUSH0 PUSH2 0xC44 DUP3 PUSH2 0xB9B JUMP JUMPDEST SWAP2 POP PUSH2 0xC4F DUP4 PUSH2 0xB9B JUMP JUMPDEST SWAP3 POP DUP3 DUP3 ADD SWAP1 POP DUP1 DUP3 GT ISZERO PUSH2 0xC67 JUMPI PUSH2 0xC66 PUSH2 0xBDA JUMP JUMPDEST JUMPDEST SWAP3 SWAP2 POP POP JUMP JUMPDEST PUSH0 DUP3 DUP3 MSTORE PUSH1 0x20 DUP3 ADD SWAP1 POP SWAP3 SWAP2 POP POP JUMP JUMPDEST PUSH32 0x5468652074696D6520666F7220706C616365206120626964206861732066696E PUSH0 DUP3 ADD MSTORE PUSH32 0x6973680000000000000000000000000000000000000000000000000000000000 PUSH1 0x20 DUP3 ADD MSTORE POP JUMP JUMPDEST PUSH0 PUSH2 0xCD7 PUSH1 0x23 DUP4 PUSH2 0xC6D JUMP JUMPDEST SWAP2 POP PUSH2 0xCE2 DUP3 PUSH2 0xC7D JUMP JUMPDEST PUSH1 0x40 DUP3 ADD SWAP1 POP SWAP2 SWAP1 POP JUMP JUMPDEST PUSH0 PUSH1 0x20 DUP3 ADD SWAP1 POP DUP2 DUP2 SUB PUSH0 DUP4 ADD MSTORE PUSH2 0xD04 DUP2 PUSH2 0xCCB JUMP JUMPDEST SWAP1 POP SWAP2 SWAP1 POP JUMP JUMPDEST PUSH0 PUSH2 0xD15 DUP3 PUSH2 0xB9B JUMP JUMPDEST SWAP2 POP PUSH2 0xD20 DUP4 PUSH2 0xB9B JUMP JUMPDEST SWAP3 POP DUP3 DUP3 MUL PUSH2 0xD2E DUP2 PUSH2 0xB9B JUMP JUMPDEST SWAP2 POP DUP3 DUP3 DIV DUP5 EQ DUP4 ISZERO OR PUSH2 0xD45 JUMPI PUSH2 0xD44 PUSH2 0xBDA JUMP JUMPDEST JUMPDEST POP SWAP3 SWAP2 POP POP JUMP JUMPDEST PUSH32 0x4E487B7100000000000000000000000000000000000000000000000000000000 PUSH0 MSTORE PUSH1 0x12 PUSH1 0x4 MSTORE PUSH1 0x24 PUSH0 REVERT JUMPDEST PUSH0 PUSH2 0xD83 DUP3 PUSH2 0xB9B JUMP JUMPDEST SWAP2 POP PUSH2 0xD8E DUP4 PUSH2 0xB9B JUMP JUMPDEST SWAP3 POP DUP3 PUSH2 0xD9E JUMPI PUSH2 0xD9D PUSH2 0xD4C JUMP JUMPDEST JUMPDEST DUP3 DUP3 DIV SWAP1 POP SWAP3 SWAP2 POP POP JUMP JUMPDEST PUSH32 0x412076616C696420626964206D75737420626520352025206772656174657220 PUSH0 DUP3 ADD MSTORE PUSH32 0x7468616E20746865206C617374206269642E0000000000000000000000000000 PUSH1 0x20 DUP3 ADD MSTORE POP JUMP JUMPDEST PUSH0 PUSH2 0xE03 PUSH1 0x32 DUP4 PUSH2 0xC6D JUMP JUMPDEST SWAP2 POP PUSH2 0xE0E DUP3 PUSH2 0xDA9 JUMP JUMPDEST PUSH1 0x40 DUP3 ADD SWAP1 POP SWAP2 SWAP1 POP JUMP JUMPDEST PUSH0 PUSH1 0x20 DUP3 ADD SWAP1 POP DUP2 DUP2 SUB PUSH0 DUP4 ADD MSTORE PUSH2 0xE30 DUP2 PUSH2 0xDF7 JUMP JUMPDEST SWAP1 POP SWAP2 SWAP1 POP JUMP JUMPDEST PUSH32 0x4F6E6C792041646D696E205573657220697320616C6C6F7765642E0000000000 PUSH0 DUP3 ADD MSTORE POP JUMP JUMPDEST PUSH0 PUSH2 0xE6B PUSH1 0x1B DUP4 PUSH2 0xC6D JUMP JUMPDEST SWAP2 POP PUSH2 0xE76 DUP3 PUSH2 0xE37 JUMP JUMPDEST PUSH1 0x20 DUP3 ADD SWAP1 POP SWAP2 SWAP1 POP JUMP JUMPDEST PUSH0 PUSH1 0x20 DUP3 ADD SWAP1 POP DUP2 DUP2 SUB PUSH0 DUP4 ADD MSTORE PUSH2 0xE98 DUP2 PUSH2 0xE5F JUMP JUMPDEST SWAP1 POP SWAP2 SWAP1 POP JUMP JUMPDEST PUSH32 0x5468652061756374696F6E20686173206E6F7420656E646564207965742E0000 PUSH0 DUP3 ADD MSTORE POP JUMP JUMPDEST PUSH0 PUSH2 0xED3 PUSH1 0x1E DUP4 PUSH2 0xC6D JUMP JUMPDEST SWAP2 POP PUSH2 0xEDE DUP3 PUSH2 0xE9F JUMP JUMPDEST PUSH1 0x20 DUP3 ADD SWAP1 POP SWAP2 SWAP1 POP JUMP JUMPDEST PUSH0 PUSH1 0x20 DUP3 ADD SWAP1 POP DUP2 DUP2 SUB PUSH0 DUP4 ADD MSTORE PUSH2 0xF00 DUP2 PUSH2 0xEC7 JUMP JUMPDEST SWAP1 POP SWAP2 SWAP1 POP JUMP JUMPDEST PUSH32 0x4E487B7100000000000000000000000000000000000000000000000000000000 PUSH0 MSTORE PUSH1 0x22 PUSH1 0x4 MSTORE PUSH1 0x24 PUSH0 REVERT JUMPDEST PUSH0 PUSH1 0x2 DUP3 DIV SWAP1 POP PUSH1 0x1 DUP3 AND DUP1 PUSH2 0xF4B JUMPI PUSH1 0x7F DUP3 AND SWAP2 POP JUMPDEST PUSH1 0x20 DUP3 LT DUP2 SUB PUSH2 0xF5E JUMPI PUSH2 0xF5D PUSH2 0xF07 JUMP JUMPDEST JUMPDEST POP SWAP2 SWAP1 POP JUMP JUMPDEST PUSH0 DUP2 SWAP1 POP SWAP3 SWAP2 POP POP JUMP JUMPDEST PUSH0 DUP2 SWAP1 POP DUP2 PUSH0 MSTORE PUSH1 0x20 PUSH0 KECCAK256 SWAP1 POP SWAP2 SWAP1 POP JUMP JUMPDEST PUSH0 DUP2 SLOAD PUSH2 0xF8C DUP2 PUSH2 0xF34 JUMP JUMPDEST PUSH2 0xF96 DUP2 DUP7 PUSH2 0xF64 JUMP JUMPDEST SWAP5 POP PUSH1 0x1 DUP3 AND PUSH0 DUP2 EQ PUSH2 0xFB0 JUMPI PUSH1 0x1 DUP2 EQ PUSH2 0xFC5 JUMPI PUSH2 0xFF7 JUMP JUMPDEST PUSH1 0xFF NOT DUP4 AND DUP7 MSTORE DUP2 ISZERO ISZERO DUP3 MUL DUP7 ADD SWAP4 POP PUSH2 0xFF7 JUMP JUMPDEST PUSH2 0xFCE DUP6 PUSH2 0xF6E JUMP JUMPDEST PUSH0 JUMPDEST DUP4 DUP2 LT ISZERO PUSH2 0xFEF JUMPI DUP2 SLOAD DUP2 DUP10 ADD MSTORE PUSH1 0x1 DUP3 ADD SWAP2 POP PUSH1 0x20 DUP2 ADD SWAP1 POP PUSH2 0xFD0 JUMP JUMPDEST DUP4 DUP9 ADD SWAP6 POP POP POP JUMPDEST POP POP POP SWAP3 SWAP2 POP POP JUMP JUMPDEST PUSH0 PUSH2 0x100B DUP3 DUP5 PUSH2 0xF80 JUMP JUMPDEST SWAP2 POP DUP2 SWAP1 POP SWAP3 SWAP2 POP POP JUMP JUMPDEST PUSH0 PUSH1 0x20 DUP3 ADD SWAP1 POP PUSH2 0x1029 PUSH0 DUP4 ADD DUP5 PUSH2 0xBA4 JUMP JUMPDEST SWAP3 SWAP2 POP POP JUMP JUMPDEST PUSH32 0x4E487B7100000000000000000000000000000000000000000000000000000000 PUSH0 MSTORE PUSH1 0x32 PUSH1 0x4 MSTORE PUSH1 0x24 PUSH0 REVERT JUMPDEST PUSH32 0x4F6E6C79204269646465722061726520616C6C6F7765642E0000000000000000 PUSH0 DUP3 ADD MSTORE POP JUMP JUMPDEST PUSH0 PUSH2 0x1090 PUSH1 0x18 DUP4 PUSH2 0xC6D JUMP JUMPDEST SWAP2 POP PUSH2 0x109B DUP3 PUSH2 0x105C JUMP JUMPDEST PUSH1 0x20 DUP3 ADD SWAP1 POP SWAP2 SWAP1 POP JUMP JUMPDEST PUSH0 PUSH1 0x20 DUP3 ADD SWAP1 POP DUP2 DUP2 SUB PUSH0 DUP4 ADD MSTORE PUSH2 0x10BD DUP2 PUSH2 0x1084 JUMP JUMPDEST SWAP1 POP SWAP2 SWAP1 POP JUMP INVALID LOG2 PUSH5 0x6970667358 0x22 SLT KECCAK256 0xE1 0x4D 0xD4 DUP13 SWAP8 DUP8 0xD3 0xF8 PUSH6 0x7731B15E2D34 0xE0 DUP5 PUSH11 0x6A0C88B6B83034D7F5C4BC PUSH5 0xEAB364736F PUSH13 0x634300081A0033000000000000 "
		},
		"gasEstimates": {
			"creation": {
				"codeDepositCost": "869200",
				"executionCost": "infinite",
				"totalCost": "infinite"
			},
			"external": {
				"bid()": "infinite",
				"close()": "infinite",
				"inforWinner()": "infinite",
				"withdrawal()": "infinite"
			}
		},
		"methodIdentifiers": {
			"bid()": "1998aeef",
			"close()": "43d726d6",
			"inforWinner()": "bb10d006",
			"withdrawal()": "d4e93292"
		}
	},
	"abi": [
		{
			"inputs": [
				{
					"internalType": "string",
					"name": "_item",
					"type": "string"
				},
				{
					"internalType": "uint32",
					"name": "_duration",
					"type": "uint32"
				},
				{
					"internalType": "uint32",
					"name": "_basePrice",
					"type": "uint32"
				}
			],
			"stateMutability": "nonpayable",
			"type": "constructor"
		},
		{
			"anonymous": false,
			"inputs": [
				{
					"indexed": true,
					"internalType": "string",
					"name": "auctioneItem",
					"type": "string"
				},
				{
					"indexed": true,
					"internalType": "address",
					"name": "winner",
					"type": "address"
				},
				{
					"indexed": false,
					"internalType": "uint256",
					"name": "amount",
					"type": "uint256"
				}
			],
			"name": "AuctionFinished",
			"type": "event"
		},
		{
			"anonymous": false,
			"inputs": [
				{
					"indexed": true,
					"internalType": "string",
					"name": "item",
					"type": "string"
				},
				{
					"indexed": false,
					"internalType": "uint256",
					"name": "base",
					"type": "uint256"
				}
			],
			"name": "AuctionOpened",
			"type": "event"
		},
		{
			"anonymous": false,
			"inputs": [
				{
					"indexed": false,
					"internalType": "address",
					"name": "bidder",
					"type": "address"
				},
				{
					"indexed": false,
					"internalType": "uint256",
					"name": "amount",
					"type": "uint256"
				}
			],
			"name": "NewBid",
			"type": "event"
		},
		{
			"inputs": [],
			"name": "bid",
			"outputs": [],
			"stateMutability": "payable",
			"type": "function"
		},
		{
			"inputs": [],
			"name": "close",
			"outputs": [],
			"stateMutability": "nonpayable",
			"type": "function"
		},
		{
			"inputs": [],
			"name": "inforWinner",
			"outputs": [
				{
					"internalType": "address",
					"name": "winner",
					"type": "address"
				},
				{
					"internalType": "uint256",
					"name": "amount",
					"type": "uint256"
				}
			],
			"stateMutability": "view",
			"type": "function"
		},
		{
			"inputs": [],
			"name": "withdrawal",
			"outputs": [],
			"stateMutability": "nonpayable",
			"type": "function"
		}
	]
}