{
	"contracts/tp4/GradeMe.sol": {
		"Grader5": {
			"abi": [
				{
					"inputs": [],
					"stateMutability": "payable",
					"type": "constructor"
				},
				{
					"inputs": [
						{
							"internalType": "address",
							"name": "owner",
							"type": "address"
						}
					],
					"name": "OwnableInvalidOwner",
					"type": "error"
				},
				{
					"inputs": [
						{
							"internalType": "address",
							"name": "account",
							"type": "address"
						}
					],
					"name": "OwnableUnauthorizedAccount",
					"type": "error"
				},
				{
					"anonymous": false,
					"inputs": [
						{
							"indexed": true,
							"internalType": "address",
							"name": "previousOwner",
							"type": "address"
						},
						{
							"indexed": true,
							"internalType": "address",
							"name": "newOwner",
							"type": "address"
						}
					],
					"name": "OwnershipTransferred",
					"type": "event"
				},
				{
					"inputs": [
						{
							"internalType": "address",
							"name": "",
							"type": "address"
						}
					],
					"name": "counter",
					"outputs": [
						{
							"internalType": "uint256",
							"name": "",
							"type": "uint256"
						}
					],
					"stateMutability": "view",
					"type": "function"
				},
				{
					"inputs": [],
					"name": "deadline",
					"outputs": [
						{
							"internalType": "uint256",
							"name": "",
							"type": "uint256"
						}
					],
					"stateMutability": "view",
					"type": "function"
				},
				{
					"inputs": [],
					"name": "divisor",
					"outputs": [
						{
							"internalType": "uint256",
							"name": "",
							"type": "uint256"
						}
					],
					"stateMutability": "view",
					"type": "function"
				},
				{
					"inputs": [
						{
							"internalType": "string",
							"name": "name",
							"type": "string"
						}
					],
					"name": "gradeMe",
					"outputs": [],
					"stateMutability": "nonpayable",
					"type": "function"
				},
				{
					"inputs": [
						{
							"internalType": "address",
							"name": "",
							"type": "address"
						}
					],
					"name": "isGraded",
					"outputs": [
						{
							"internalType": "bool",
							"name": "",
							"type": "bool"
						}
					],
					"stateMutability": "view",
					"type": "function"
				},
				{
					"inputs": [],
					"name": "owner",
					"outputs": [
						{
							"internalType": "address",
							"name": "",
							"type": "address"
						}
					],
					"stateMutability": "view",
					"type": "function"
				},
				{
					"inputs": [],
					"name": "renounceOwnership",
					"outputs": [],
					"stateMutability": "nonpayable",
					"type": "function"
				},
				{
					"inputs": [],
					"name": "retrieve",
					"outputs": [],
					"stateMutability": "payable",
					"type": "function"
				},
				{
					"inputs": [
						{
							"internalType": "uint256",
							"name": "_deadline",
							"type": "uint256"
						}
					],
					"name": "setDeadline",
					"outputs": [],
					"stateMutability": "nonpayable",
					"type": "function"
				},
				{
					"inputs": [
						{
							"internalType": "uint256",
							"name": "_divisor",
							"type": "uint256"
						}
					],
					"name": "setDivisor",
					"outputs": [],
					"stateMutability": "nonpayable",
					"type": "function"
				},
				{
					"inputs": [
						{
							"internalType": "uint256",
							"name": "_startTime",
							"type": "uint256"
						}
					],
					"name": "setStartTime",
					"outputs": [],
					"stateMutability": "nonpayable",
					"type": "function"
				},
				{
					"inputs": [
						{
							"internalType": "uint256",
							"name": "_studentCounter",
							"type": "uint256"
						}
					],
					"name": "setStudentCounter",
					"outputs": [],
					"stateMutability": "nonpayable",
					"type": "function"
				},
				{
					"inputs": [],
					"name": "startTime",
					"outputs": [
						{
							"internalType": "uint256",
							"name": "",
							"type": "uint256"
						}
					],
					"stateMutability": "view",
					"type": "function"
				},
				{
					"inputs": [],
					"name": "studentCounter",
					"outputs": [
						{
							"internalType": "uint256",
							"name": "",
							"type": "uint256"
						}
					],
					"stateMutability": "view",
					"type": "function"
				},
				{
					"inputs": [
						{
							"internalType": "string",
							"name": "",
							"type": "string"
						}
					],
					"name": "students",
					"outputs": [
						{
							"internalType": "uint256",
							"name": "",
							"type": "uint256"
						}
					],
					"stateMutability": "view",
					"type": "function"
				},
				{
					"inputs": [
						{
							"internalType": "address",
							"name": "newOwner",
							"type": "address"
						}
					],
					"name": "transferOwnership",
					"outputs": [],
					"stateMutability": "nonpayable",
					"type": "function"
				},
				{
					"inputs": [],
					"name": "withdraw",
					"outputs": [],
					"stateMutability": "nonpayable",
					"type": "function"
				}
			],
			"devdoc": {
				"errors": {
					"OwnableInvalidOwner(address)": [
						{
							"details": "The owner is not a valid owner account. (eg. `address(0)`)"
						}
					],
					"OwnableUnauthorizedAccount(address)": [
						{
							"details": "The caller account is not authorized to perform an operation."
						}
					]
				},
				"kind": "dev",
				"methods": {
					"owner()": {
						"details": "Returns the address of the current owner."
					},
					"renounceOwnership()": {
						"details": "Leaves the contract without owner. It will not be possible to call `onlyOwner` functions. Can only be called by the current owner. NOTE: Renouncing ownership will leave the contract without an owner, thereby disabling any functionality that is only available to the owner."
					},
					"transferOwnership(address)": {
						"details": "Transfers ownership of the contract to a new account (`newOwner`). Can only be called by the current owner."
					}
				},
				"version": 1
			},
			"evm": {
				"assembly": "    /* \"contracts/tp4/GradeMe.sol\":134:2162  contract Grader5 is Ownable{... */\n  mstore(0x40, 0x80)\n    /* \"contracts/tp4/GradeMe.sol\":375:376  8 */\n  0x08\n    /* \"contracts/tp4/GradeMe.sol\":350:376  uint256 public divisor = 8 */\n  0x05\n  sstore\n    /* \"contracts/tp4/GradeMe.sol\":409:432  10000000000000000000000 */\n  0x021e19e0c9bab2400000\n    /* \"contracts/tp4/GradeMe.sol\":383:432  uint256 public deadline = 10000000000000000000000 */\n  0x06\n  sstore\n    /* \"contracts/tp4/GradeMe.sol\":466:467  0 */\n  0x00\n    /* \"contracts/tp4/GradeMe.sol\":439:467  uint256 public startTime = 0 */\n  0x07\n  sstore\n    /* \"contracts/tp4/GradeMe.sol\":498:508  msg.sender */\n  caller\n    /* \"@openzeppelin/contracts/access/Ownable.sol\":1297:1298  0 */\n  0x00\n    /* \"@openzeppelin/contracts/access/Ownable.sol\":1273:1299  initialOwner == address(0) */\n  0xffffffffffffffffffffffffffffffffffffffff\n  and\n    /* \"@openzeppelin/contracts/access/Ownable.sol\":1273:1285  initialOwner */\n  dup2\n    /* \"@openzeppelin/contracts/access/Ownable.sol\":1273:1299  initialOwner == address(0) */\n  0xffffffffffffffffffffffffffffffffffffffff\n  and\n  sub\n    /* \"@openzeppelin/contracts/access/Ownable.sol\":1269:1364  if (initialOwner == address(0)) {... */\n  tag_4\n  jumpi\n    /* \"@openzeppelin/contracts/access/Ownable.sol\":1350:1351  0 */\n  0x00\n    /* \"@openzeppelin/contracts/access/Ownable.sol\":1322:1353  OwnableInvalidOwner(address(0)) */\n  mload(0x40)\n  0x1e4fbdf700000000000000000000000000000000000000000000000000000000\n  dup2\n  mstore\n  0x04\n  add\n  tag_5\n  swap2\n  swap1\n  tag_6\n  jump\t// in\ntag_5:\n  mload(0x40)\n  dup1\n  swap2\n  sub\n  swap1\n  revert\n    /* \"@openzeppelin/contracts/access/Ownable.sol\":1269:1364  if (initialOwner == address(0)) {... */\ntag_4:\n    /* \"@openzeppelin/contracts/access/Ownable.sol\":1373:1405  _transferOwnership(initialOwner) */\n  tag_7\n    /* \"@openzeppelin/contracts/access/Ownable.sol\":1392:1404  initialOwner */\n  dup2\n    /* \"@openzeppelin/contracts/access/Ownable.sol\":1373:1391  _transferOwnership */\n  shl(0x20, tag_8)\n    /* \"@openzeppelin/contracts/access/Ownable.sol\":1373:1405  _transferOwnership(initialOwner) */\n  0x20\n  shr\n  jump\t// in\ntag_7:\n    /* \"@openzeppelin/contracts/access/Ownable.sol\":1225:1412  constructor(address initialOwner) {... */\n  pop\n    /* \"contracts/tp4/GradeMe.sol\":134:2162  contract Grader5 is Ownable{... */\n  jump(tag_10)\n    /* \"@openzeppelin/contracts/access/Ownable.sol\":2912:3099  function _transferOwnership(address newOwner) internal virtual {... */\ntag_8:\n    /* \"@openzeppelin/contracts/access/Ownable.sol\":2985:3001  address oldOwner */\n  0x00\n    /* \"@openzeppelin/contracts/access/Ownable.sol\":3004:3010  _owner */\n  dup1\n  0x00\n  swap1\n  sload\n  swap1\n  0x0100\n  exp\n  swap1\n  div\n  0xffffffffffffffffffffffffffffffffffffffff\n  and\n    /* \"@openzeppelin/contracts/access/Ownable.sol\":2985:3010  address oldOwner = _owner */\n  swap1\n  pop\n    /* \"@openzeppelin/contracts/access/Ownable.sol\":3029:3037  newOwner */\n  dup2\n    /* \"@openzeppelin/contracts/access/Ownable.sol\":3020:3026  _owner */\n  0x00\n  dup1\n    /* \"@openzeppelin/contracts/access/Ownable.sol\":3020:3037  _owner = newOwner */\n  0x0100\n  exp\n  dup2\n  sload\n  dup2\n  0xffffffffffffffffffffffffffffffffffffffff\n  mul\n  not\n  and\n  swap1\n  dup4\n  0xffffffffffffffffffffffffffffffffffffffff\n  and\n  mul\n  or\n  swap1\n  sstore\n  pop\n    /* \"@openzeppelin/contracts/access/Ownable.sol\":3083:3091  newOwner */\n  dup2\n    /* \"@openzeppelin/contracts/access/Ownable.sol\":3052:3092  OwnershipTransferred(oldOwner, newOwner) */\n  0xffffffffffffffffffffffffffffffffffffffff\n  and\n    /* \"@openzeppelin/contracts/access/Ownable.sol\":3073:3081  oldOwner */\n  dup2\n    /* \"@openzeppelin/contracts/access/Ownable.sol\":3052:3092  OwnershipTransferred(oldOwner, newOwner) */\n  0xffffffffffffffffffffffffffffffffffffffff\n  and\n  0x8be0079c531659141344cd1fd0a4f28419497f9722a3daafe3b4186f6b6457e0\n  mload(0x40)\n  mload(0x40)\n  dup1\n  swap2\n  sub\n  swap1\n  log3\n    /* \"@openzeppelin/contracts/access/Ownable.sol\":2975:3099  {... */\n  pop\n    /* \"@openzeppelin/contracts/access/Ownable.sol\":2912:3099  function _transferOwnership(address newOwner) internal virtual {... */\n  pop\n  jump\t// out\n    /* \"#utility.yul\":7:133   */\ntag_12:\n    /* \"#utility.yul\":44:51   */\n  0x00\n    /* \"#utility.yul\":84:126   */\n  0xffffffffffffffffffffffffffffffffffffffff\n    /* \"#utility.yul\":77:82   */\n  dup3\n    /* \"#utility.yul\":73:127   */\n  and\n    /* \"#utility.yul\":62:127   */\n  swap1\n  pop\n    /* \"#utility.yul\":7:133   */\n  swap2\n  swap1\n  pop\n  jump\t// out\n    /* \"#utility.yul\":139:235   */\ntag_13:\n    /* \"#utility.yul\":176:183   */\n  0x00\n    /* \"#utility.yul\":205:229   */\n  tag_18\n    /* \"#utility.yul\":223:228   */\n  dup3\n    /* \"#utility.yul\":205:229   */\n  tag_12\n  jump\t// in\ntag_18:\n    /* \"#utility.yul\":194:229   */\n  swap1\n  pop\n    /* \"#utility.yul\":139:235   */\n  swap2\n  swap1\n  pop\n  jump\t// out\n    /* \"#utility.yul\":241:359   */\ntag_14:\n    /* \"#utility.yul\":328:352   */\n  tag_20\n    /* \"#utility.yul\":346:351   */\n  dup2\n    /* \"#utility.yul\":328:352   */\n  tag_13\n  jump\t// in\ntag_20:\n    /* \"#utility.yul\":323:326   */\n  dup3\n    /* \"#utility.yul\":316:353   */\n  mstore\n    /* \"#utility.yul\":241:359   */\n  pop\n  pop\n  jump\t// out\n    /* \"#utility.yul\":365:587   */\ntag_6:\n    /* \"#utility.yul\":458:462   */\n  0x00\n    /* \"#utility.yul\":496:498   */\n  0x20\n    /* \"#utility.yul\":485:494   */\n  dup3\n    /* \"#utility.yul\":481:499   */\n  add\n    /* \"#utility.yul\":473:499   */\n  swap1\n  pop\n    /* \"#utility.yul\":509:580   */\n  tag_22\n    /* \"#utility.yul\":577:578   */\n  0x00\n    /* \"#utility.yul\":566:575   */\n  dup4\n    /* \"#utility.yul\":562:579   */\n  add\n    /* \"#utility.yul\":553:559   */\n  dup5\n    /* \"#utility.yul\":509:580   */\n  tag_14\n  jump\t// in\ntag_22:\n    /* \"#utility.yul\":365:587   */\n  swap3\n  swap2\n  pop\n  pop\n  jump\t// out\n    /* \"contracts/tp4/GradeMe.sol\":134:2162  contract Grader5 is Ownable{... */\ntag_10:\n  dataSize(sub_0)\n  dup1\n  dataOffset(sub_0)\n  0x00\n  codecopy\n  0x00\n  return\nstop\n\nsub_0: assembly {\n        /* \"contracts/tp4/GradeMe.sol\":134:2162  contract Grader5 is Ownable{... */\n      mstore(0x40, 0x80)\n      jumpi(tag_1, lt(calldatasize, 0x04))\n      shr(0xe0, calldataload(0x00))\n      dup1\n      0x62844fe0\n      gt\n      tag_19\n      jumpi\n      dup1\n      0x8da5cb5b\n      gt\n      tag_20\n      jumpi\n      dup1\n      0x8da5cb5b\n      eq\n      tag_14\n      jumpi\n      dup1\n      0xc12327b8\n      eq\n      tag_15\n      jumpi\n      dup1\n      0xc7ef6bfb\n      eq\n      tag_16\n      jumpi\n      dup1\n      0xe3596cac\n      eq\n      tag_17\n      jumpi\n      dup1\n      0xf2fde38b\n      eq\n      tag_18\n      jumpi\n      jump(tag_1)\n    tag_20:\n      dup1\n      0x62844fe0\n      eq\n      tag_10\n      jumpi\n      dup1\n      0x709f5ccc\n      eq\n      tag_11\n      jumpi\n      dup1\n      0x715018a6\n      eq\n      tag_12\n      jumpi\n      dup1\n      0x78e97925\n      eq\n      tag_13\n      jumpi\n      jump(tag_1)\n    tag_19:\n      dup1\n      0x29dcb0cf\n      gt\n      tag_21\n      jumpi\n      dup1\n      0x29dcb0cf\n      eq\n      tag_6\n      jumpi\n      dup1\n      0x2e64cec1\n      eq\n      tag_7\n      jumpi\n      dup1\n      0x3ccfd60b\n      eq\n      tag_8\n      jumpi\n      dup1\n      0x3e0a322d\n      eq\n      tag_9\n      jumpi\n      jump(tag_1)\n    tag_21:\n      dup1\n      0x16d6ecb0\n      eq\n      tag_2\n      jumpi\n      dup1\n      0x195199f6\n      eq\n      tag_3\n      jumpi\n      dup1\n      0x1d86b167\n      eq\n      tag_4\n      jumpi\n      dup1\n      0x1f2dc5ef\n      eq\n      tag_5\n      jumpi\n    tag_1:\n      0x00\n      dup1\n      revert\n        /* \"contracts/tp4/GradeMe.sol\":1814:1934  function setStudentCounter(uint256 _studentCounter) public onlyOwner {... */\n    tag_2:\n      callvalue\n      dup1\n      iszero\n      tag_22\n      jumpi\n      0x00\n      dup1\n      revert\n    tag_22:\n      pop\n      tag_23\n      0x04\n      dup1\n      calldatasize\n      sub\n      dup2\n      add\n      swap1\n      tag_24\n      swap2\n      swap1\n      tag_25\n      jump\t// in\n    tag_24:\n      tag_26\n      jump\t// in\n    tag_23:\n      stop\n        /* \"contracts/tp4/GradeMe.sol\":1710:1806  function setDeadline(uint256 _deadline) public onlyOwner {... */\n    tag_3:\n      callvalue\n      dup1\n      iszero\n      tag_27\n      jumpi\n      0x00\n      dup1\n      revert\n    tag_27:\n      pop\n      tag_28\n      0x04\n      dup1\n      calldatasize\n      sub\n      dup2\n      add\n      swap1\n      tag_29\n      swap2\n      swap1\n      tag_25\n      jump\t// in\n    tag_29:\n      tag_30\n      jump\t// in\n    tag_28:\n      stop\n        /* \"contracts/tp4/GradeMe.sol\":921:1543  function gradeMe(string calldata name) public {... */\n    tag_4:\n      callvalue\n      dup1\n      iszero\n      tag_31\n      jumpi\n      0x00\n      dup1\n      revert\n    tag_31:\n      pop\n      tag_32\n      0x04\n      dup1\n      calldatasize\n      sub\n      dup2\n      add\n      swap1\n      tag_33\n      swap2\n      swap1\n      tag_34\n      jump\t// in\n    tag_33:\n      tag_35\n      jump\t// in\n    tag_32:\n      stop\n        /* \"contracts/tp4/GradeMe.sol\":350:376  uint256 public divisor = 8 */\n    tag_5:\n      callvalue\n      dup1\n      iszero\n      tag_36\n      jumpi\n      0x00\n      dup1\n      revert\n    tag_36:\n      pop\n      tag_37\n      tag_38\n      jump\t// in\n    tag_37:\n      mload(0x40)\n      tag_39\n      swap2\n      swap1\n      tag_40\n      jump\t// in\n    tag_39:\n      mload(0x40)\n      dup1\n      swap2\n      sub\n      swap1\n      return\n        /* \"contracts/tp4/GradeMe.sol\":383:432  uint256 public deadline = 10000000000000000000000 */\n    tag_6:\n      callvalue\n      dup1\n      iszero\n      tag_41\n      jumpi\n      0x00\n      dup1\n      revert\n    tag_41:\n      pop\n      tag_42\n      tag_43\n      jump\t// in\n    tag_42:\n      mload(0x40)\n      tag_44\n      swap2\n      swap1\n      tag_40\n      jump\t// in\n    tag_44:\n      mload(0x40)\n      dup1\n      swap2\n      sub\n      swap1\n      return\n        /* \"contracts/tp4/GradeMe.sol\":528:911  function retrieve() external payable {... */\n    tag_7:\n      tag_45\n      tag_46\n      jump\t// in\n    tag_45:\n      stop\n        /* \"contracts/tp4/GradeMe.sol\":2050:2157  function withdraw() public onlyOwner {... */\n    tag_8:\n      callvalue\n      dup1\n      iszero\n      tag_47\n      jumpi\n      0x00\n      dup1\n      revert\n    tag_47:\n      pop\n      tag_48\n      tag_49\n      jump\t// in\n    tag_48:\n      stop\n        /* \"contracts/tp4/GradeMe.sol\":1942:2042  function setStartTime(uint256 _startTime) public onlyOwner {... */\n    tag_9:\n      callvalue\n      dup1\n      iszero\n      tag_50\n      jumpi\n      0x00\n      dup1\n      revert\n    tag_50:\n      pop\n      tag_51\n      0x04\n      dup1\n      calldatasize\n      sub\n      dup2\n      add\n      swap1\n      tag_52\n      swap2\n      swap1\n      tag_25\n      jump\t// in\n    tag_52:\n      tag_53\n      jump\t// in\n    tag_51:\n      stop\n        /* \"contracts/tp4/GradeMe.sol\":267:307  mapping(address => bool) public isGraded */\n    tag_10:\n      callvalue\n      dup1\n      iszero\n      tag_54\n      jumpi\n      0x00\n      dup1\n      revert\n    tag_54:\n      pop\n      tag_55\n      0x04\n      dup1\n      calldatasize\n      sub\n      dup2\n      add\n      swap1\n      tag_56\n      swap2\n      swap1\n      tag_57\n      jump\t// in\n    tag_56:\n      tag_58\n      jump\t// in\n    tag_55:\n      mload(0x40)\n      tag_59\n      swap2\n      swap1\n      tag_60\n      jump\t// in\n    tag_59:\n      mload(0x40)\n      dup1\n      swap2\n      sub\n      swap1\n      return\n        /* \"contracts/tp4/GradeMe.sol\":1581:1673  function setDivisor(uint256 _divisor) public onlyOwner {... */\n    tag_11:\n      callvalue\n      dup1\n      iszero\n      tag_61\n      jumpi\n      0x00\n      dup1\n      revert\n    tag_61:\n      pop\n      tag_62\n      0x04\n      dup1\n      calldatasize\n      sub\n      dup2\n      add\n      swap1\n      tag_63\n      swap2\n      swap1\n      tag_25\n      jump\t// in\n    tag_63:\n      tag_64\n      jump\t// in\n    tag_62:\n      stop\n        /* \"@openzeppelin/contracts/access/Ownable.sol\":2293:2394  function renounceOwnership() public virtual onlyOwner {... */\n    tag_12:\n      callvalue\n      dup1\n      iszero\n      tag_65\n      jumpi\n      0x00\n      dup1\n      revert\n    tag_65:\n      pop\n      tag_66\n      tag_67\n      jump\t// in\n    tag_66:\n      stop\n        /* \"contracts/tp4/GradeMe.sol\":439:467  uint256 public startTime = 0 */\n    tag_13:\n      callvalue\n      dup1\n      iszero\n      tag_68\n      jumpi\n      0x00\n      dup1\n      revert\n    tag_68:\n      pop\n      tag_69\n      tag_70\n      jump\t// in\n    tag_69:\n      mload(0x40)\n      tag_71\n      swap2\n      swap1\n      tag_40\n      jump\t// in\n    tag_71:\n      mload(0x40)\n      dup1\n      swap2\n      sub\n      swap1\n      return\n        /* \"@openzeppelin/contracts/access/Ownable.sol\":1638:1723  function owner() public view virtual returns (address) {... */\n    tag_14:\n      callvalue\n      dup1\n      iszero\n      tag_72\n      jumpi\n      0x00\n      dup1\n      revert\n    tag_72:\n      pop\n      tag_73\n      tag_74\n      jump\t// in\n    tag_73:\n      mload(0x40)\n      tag_75\n      swap2\n      swap1\n      tag_76\n      jump\t// in\n    tag_75:\n      mload(0x40)\n      dup1\n      swap2\n      sub\n      swap1\n      return\n        /* \"contracts/tp4/GradeMe.sol\":170:211  mapping (address=>uint256) public counter */\n    tag_15:\n      callvalue\n      dup1\n      iszero\n      tag_77\n      jumpi\n      0x00\n      dup1\n      revert\n    tag_77:\n      pop\n      tag_78\n      0x04\n      dup1\n      calldatasize\n      sub\n      dup2\n      add\n      swap1\n      tag_79\n      swap2\n      swap1\n      tag_57\n      jump\t// in\n    tag_79:\n      tag_80\n      jump\t// in\n    tag_78:\n      mload(0x40)\n      tag_81\n      swap2\n      swap1\n      tag_40\n      jump\t// in\n    tag_81:\n      mload(0x40)\n      dup1\n      swap2\n      sub\n      swap1\n      return\n        /* \"contracts/tp4/GradeMe.sol\":218:260  mapping(string => uint256) public students */\n    tag_16:\n      callvalue\n      dup1\n      iszero\n      tag_82\n      jumpi\n      0x00\n      dup1\n      revert\n    tag_82:\n      pop\n      tag_83\n      0x04\n      dup1\n      calldatasize\n      sub\n      dup2\n      add\n      swap1\n      tag_84\n      swap2\n      swap1\n      tag_85\n      jump\t// in\n    tag_84:\n      tag_86\n      jump\t// in\n    tag_83:\n      mload(0x40)\n      tag_87\n      swap2\n      swap1\n      tag_40\n      jump\t// in\n    tag_87:\n      mload(0x40)\n      dup1\n      swap2\n      sub\n      swap1\n      return\n        /* \"contracts/tp4/GradeMe.sol\":314:343  uint256 public studentCounter */\n    tag_17:\n      callvalue\n      dup1\n      iszero\n      tag_88\n      jumpi\n      0x00\n      dup1\n      revert\n    tag_88:\n      pop\n      tag_89\n      tag_90\n      jump\t// in\n    tag_89:\n      mload(0x40)\n      tag_91\n      swap2\n      swap1\n      tag_40\n      jump\t// in\n    tag_91:\n      mload(0x40)\n      dup1\n      swap2\n      sub\n      swap1\n      return\n        /* \"@openzeppelin/contracts/access/Ownable.sol\":2543:2758  function transferOwnership(address newOwner) public virtual onlyOwner {... */\n    tag_18:\n      callvalue\n      dup1\n      iszero\n      tag_92\n      jumpi\n      0x00\n      dup1\n      revert\n    tag_92:\n      pop\n      tag_93\n      0x04\n      dup1\n      calldatasize\n      sub\n      dup2\n      add\n      swap1\n      tag_94\n      swap2\n      swap1\n      tag_57\n      jump\t// in\n    tag_94:\n      tag_95\n      jump\t// in\n    tag_93:\n      stop\n        /* \"contracts/tp4/GradeMe.sol\":1814:1934  function setStudentCounter(uint256 _studentCounter) public onlyOwner {... */\n    tag_26:\n        /* \"@openzeppelin/contracts/access/Ownable.sol\":1531:1544  _checkOwner() */\n      tag_97\n        /* \"@openzeppelin/contracts/access/Ownable.sol\":1531:1542  _checkOwner */\n      tag_98\n        /* \"@openzeppelin/contracts/access/Ownable.sol\":1531:1544  _checkOwner() */\n      jump\t// in\n    tag_97:\n        /* \"contracts/tp4/GradeMe.sol\":1911:1926  _studentCounter */\n      dup1\n        /* \"contracts/tp4/GradeMe.sol\":1894:1908  studentCounter */\n      0x04\n        /* \"contracts/tp4/GradeMe.sol\":1894:1926  studentCounter = _studentCounter */\n      dup2\n      swap1\n      sstore\n      pop\n        /* \"contracts/tp4/GradeMe.sol\":1814:1934  function setStudentCounter(uint256 _studentCounter) public onlyOwner {... */\n      pop\n      jump\t// out\n        /* \"contracts/tp4/GradeMe.sol\":1710:1806  function setDeadline(uint256 _deadline) public onlyOwner {... */\n    tag_30:\n        /* \"@openzeppelin/contracts/access/Ownable.sol\":1531:1544  _checkOwner() */\n      tag_101\n        /* \"@openzeppelin/contracts/access/Ownable.sol\":1531:1542  _checkOwner */\n      tag_98\n        /* \"@openzeppelin/contracts/access/Ownable.sol\":1531:1544  _checkOwner() */\n      jump\t// in\n    tag_101:\n        /* \"contracts/tp4/GradeMe.sol\":1789:1798  _deadline */\n      dup1\n        /* \"contracts/tp4/GradeMe.sol\":1778:1786  deadline */\n      0x06\n        /* \"contracts/tp4/GradeMe.sol\":1778:1798  deadline = _deadline */\n      dup2\n      swap1\n      sstore\n      pop\n        /* \"contracts/tp4/GradeMe.sol\":1710:1806  function setDeadline(uint256 _deadline) public onlyOwner {... */\n      pop\n      jump\t// out\n        /* \"contracts/tp4/GradeMe.sol\":921:1543  function gradeMe(string calldata name) public {... */\n    tag_35:\n        /* \"contracts/tp4/GradeMe.sol\":1002:1010  deadline */\n      sload(0x06)\n        /* \"contracts/tp4/GradeMe.sol\":986:1001  block.timestamp */\n      timestamp\n        /* \"contracts/tp4/GradeMe.sol\":986:1010  block.timestamp<deadline */\n      lt\n        /* \"contracts/tp4/GradeMe.sol\":978:1021  require(block.timestamp<deadline,\"The end\") */\n      tag_104\n      jumpi\n      mload(0x40)\n      0x08c379a000000000000000000000000000000000000000000000000000000000\n      dup2\n      mstore\n      0x04\n      add\n      tag_105\n      swap1\n      tag_106\n      jump\t// in\n    tag_105:\n      mload(0x40)\n      dup1\n      swap2\n      sub\n      swap1\n      revert\n    tag_104:\n        /* \"contracts/tp4/GradeMe.sol\":1056:1065  startTime */\n      sload(0x07)\n        /* \"contracts/tp4/GradeMe.sol\":1040:1055  block.timestamp */\n      timestamp\n        /* \"contracts/tp4/GradeMe.sol\":1040:1065  block.timestamp>startTime */\n      gt\n        /* \"contracts/tp4/GradeMe.sol\":1032:1076  require(block.timestamp>startTime,\"The end\") */\n      tag_107\n      jumpi\n      mload(0x40)\n      0x08c379a000000000000000000000000000000000000000000000000000000000\n      dup2\n      mstore\n      0x04\n      add\n      tag_108\n      swap1\n      tag_106\n      jump\t// in\n    tag_108:\n      mload(0x40)\n      dup1\n      swap2\n      sub\n      swap1\n      revert\n    tag_107:\n        /* \"contracts/tp4/GradeMe.sol\":1118:1119  1 */\n      0x01\n        /* \"contracts/tp4/GradeMe.sol\":1096:1103  counter */\n      dup1\n        /* \"contracts/tp4/GradeMe.sol\":1096:1115  counter[msg.sender] */\n      0x00\n        /* \"contracts/tp4/GradeMe.sol\":1104:1114  msg.sender */\n      caller\n        /* \"contracts/tp4/GradeMe.sol\":1096:1115  counter[msg.sender] */\n      0xffffffffffffffffffffffffffffffffffffffff\n      and\n      0xffffffffffffffffffffffffffffffffffffffff\n      and\n      dup2\n      mstore\n      0x20\n      add\n      swap1\n      dup2\n      mstore\n      0x20\n      add\n      0x00\n      keccak256\n      sload\n        /* \"contracts/tp4/GradeMe.sol\":1096:1119  counter[msg.sender] > 1 */\n      gt\n        /* \"contracts/tp4/GradeMe.sol\":1087:1130  require( counter[msg.sender] > 1,\"Not yet\") */\n      tag_109\n      jumpi\n      mload(0x40)\n      0x08c379a000000000000000000000000000000000000000000000000000000000\n      dup2\n      mstore\n      0x04\n      add\n      tag_110\n      swap1\n      tag_111\n      jump\t// in\n    tag_110:\n      mload(0x40)\n      dup1\n      swap2\n      sub\n      swap1\n      revert\n    tag_109:\n        /* \"contracts/tp4/GradeMe.sol\":1141:1155  uint256 _grade */\n      0x00\n        /* \"contracts/tp4/GradeMe.sol\":1173:1180  divisor */\n      sload(0x05)\n        /* \"contracts/tp4/GradeMe.sol\":1158:1172  studentCounter */\n      sload(0x04)\n        /* \"contracts/tp4/GradeMe.sol\":1158:1180  studentCounter/divisor */\n      tag_112\n      swap2\n      swap1\n      tag_113\n      jump\t// in\n    tag_112:\n        /* \"contracts/tp4/GradeMe.sol\":1141:1180  uint256 _grade = studentCounter/divisor */\n      swap1\n      pop\n        /* \"contracts/tp4/GradeMe.sol\":1193:1207  studentCounter */\n      0x04\n      0x00\n        /* \"contracts/tp4/GradeMe.sol\":1191:1207  ++studentCounter */\n      dup2\n      sload\n      tag_114\n      swap1\n      tag_115\n      jump\t// in\n    tag_114:\n      swap2\n      swap1\n      pop\n      dup2\n      swap1\n      sstore\n      pop\n        /* \"contracts/tp4/GradeMe.sol\":1234:1235  6 */\n      0x06\n        /* \"contracts/tp4/GradeMe.sol\":1224:1230  _grade */\n      dup2\n        /* \"contracts/tp4/GradeMe.sol\":1224:1235  _grade <= 6 */\n      gt\n        /* \"contracts/tp4/GradeMe.sol\":1220:1333  if (_grade <= 6) {... */\n      tag_116\n      jumpi\n        /* \"contracts/tp4/GradeMe.sol\":1276:1277  5 */\n      0x05\n        /* \"contracts/tp4/GradeMe.sol\":1267:1273  _grade */\n      dup2\n        /* \"contracts/tp4/GradeMe.sol\":1267:1277  _grade * 5 */\n      tag_117\n      swap2\n      swap1\n      tag_118\n      jump\t// in\n    tag_117:\n        /* \"contracts/tp4/GradeMe.sol\":1261:1264  100 */\n      0x64\n        /* \"contracts/tp4/GradeMe.sol\":1261:1277  100 - _grade * 5 */\n      tag_119\n      swap2\n      swap1\n      tag_120\n      jump\t// in\n    tag_119:\n        /* \"contracts/tp4/GradeMe.sol\":1252:1277  _grade = 100 - _grade * 5 */\n      swap1\n      pop\n        /* \"contracts/tp4/GradeMe.sol\":1220:1333  if (_grade <= 6) {... */\n      jump(tag_121)\n    tag_116:\n        /* \"contracts/tp4/GradeMe.sol\":1319:1321  70 */\n      0x46\n        /* \"contracts/tp4/GradeMe.sol\":1310:1321  _grade = 70 */\n      swap1\n      pop\n        /* \"contracts/tp4/GradeMe.sol\":1220:1333  if (_grade <= 6) {... */\n    tag_121:\n        /* \"contracts/tp4/GradeMe.sol\":1371:1372  0 */\n      0x00\n        /* \"contracts/tp4/GradeMe.sol\":1355:1363  students */\n      0x02\n        /* \"contracts/tp4/GradeMe.sol\":1364:1368  name */\n      dup5\n      dup5\n        /* \"contracts/tp4/GradeMe.sol\":1355:1369  students[name] */\n      mload(0x40)\n      tag_122\n      swap3\n      swap2\n      swap1\n      tag_123\n      jump\t// in\n    tag_122:\n      swap1\n      dup2\n      mstore\n      0x20\n      add\n      mload(0x40)\n      dup1\n      swap2\n      sub\n      swap1\n      keccak256\n      sload\n        /* \"contracts/tp4/GradeMe.sol\":1355:1372  students[name]==0 */\n      eq\n        /* \"contracts/tp4/GradeMe.sol\":1347:1398  require(students[name]==0,\"student already exists\") */\n      tag_124\n      jumpi\n      mload(0x40)\n      0x08c379a000000000000000000000000000000000000000000000000000000000\n      dup2\n      mstore\n      0x04\n      add\n      tag_125\n      swap1\n      tag_126\n      jump\t// in\n    tag_125:\n      mload(0x40)\n      dup1\n      swap2\n      sub\n      swap1\n      revert\n    tag_124:\n        /* \"contracts/tp4/GradeMe.sol\":1439:1444  false */\n      0x00\n        /* \"contracts/tp4/GradeMe.sol\":1417:1444  isGraded[msg.sender]==false */\n      iszero\n      iszero\n        /* \"contracts/tp4/GradeMe.sol\":1417:1425  isGraded */\n      0x03\n        /* \"contracts/tp4/GradeMe.sol\":1417:1437  isGraded[msg.sender] */\n      0x00\n        /* \"contracts/tp4/GradeMe.sol\":1426:1436  msg.sender */\n      caller\n        /* \"contracts/tp4/GradeMe.sol\":1417:1437  isGraded[msg.sender] */\n      0xffffffffffffffffffffffffffffffffffffffff\n      and\n      0xffffffffffffffffffffffffffffffffffffffff\n      and\n      dup2\n      mstore\n      0x20\n      add\n      swap1\n      dup2\n      mstore\n      0x20\n      add\n      0x00\n      keccak256\n      0x00\n      swap1\n      sload\n      swap1\n      0x0100\n      exp\n      swap1\n      div\n      0xff\n      and\n        /* \"contracts/tp4/GradeMe.sol\":1417:1444  isGraded[msg.sender]==false */\n      iszero\n      iszero\n      eq\n        /* \"contracts/tp4/GradeMe.sol\":1409:1463  require(isGraded[msg.sender]==false, \"already graded\") */\n      tag_127\n      jumpi\n      mload(0x40)\n      0x08c379a000000000000000000000000000000000000000000000000000000000\n      dup2\n      mstore\n      0x04\n      add\n      tag_128\n      swap1\n      tag_129\n      jump\t// in\n    tag_128:\n      mload(0x40)\n      dup1\n      swap2\n      sub\n      swap1\n      revert\n    tag_127:\n        /* \"contracts/tp4/GradeMe.sol\":1497:1501  true */\n      0x01\n        /* \"contracts/tp4/GradeMe.sol\":1474:1482  isGraded */\n      0x03\n        /* \"contracts/tp4/GradeMe.sol\":1474:1494  isGraded[msg.sender] */\n      0x00\n        /* \"contracts/tp4/GradeMe.sol\":1483:1493  msg.sender */\n      caller\n        /* \"contracts/tp4/GradeMe.sol\":1474:1494  isGraded[msg.sender] */\n      0xffffffffffffffffffffffffffffffffffffffff\n      and\n      0xffffffffffffffffffffffffffffffffffffffff\n      and\n      dup2\n      mstore\n      0x20\n      add\n      swap1\n      dup2\n      mstore\n      0x20\n      add\n      0x00\n      keccak256\n      0x00\n        /* \"contracts/tp4/GradeMe.sol\":1474:1501  isGraded[msg.sender] = true */\n      0x0100\n      exp\n      dup2\n      sload\n      dup2\n      0xff\n      mul\n      not\n      and\n      swap1\n      dup4\n      iszero\n      iszero\n      mul\n      or\n      swap1\n      sstore\n      pop\n        /* \"contracts/tp4/GradeMe.sol\":1529:1535  _grade */\n      dup1\n        /* \"contracts/tp4/GradeMe.sol\":1512:1520  students */\n      0x02\n        /* \"contracts/tp4/GradeMe.sol\":1521:1525  name */\n      dup5\n      dup5\n        /* \"contracts/tp4/GradeMe.sol\":1512:1526  students[name] */\n      mload(0x40)\n      tag_130\n      swap3\n      swap2\n      swap1\n      tag_123\n      jump\t// in\n    tag_130:\n      swap1\n      dup2\n      mstore\n      0x20\n      add\n      mload(0x40)\n      dup1\n      swap2\n      sub\n      swap1\n      keccak256\n        /* \"contracts/tp4/GradeMe.sol\":1512:1535  students[name] = _grade */\n      dup2\n      swap1\n      sstore\n      pop\n        /* \"contracts/tp4/GradeMe.sol\":967:1543  {... */\n      pop\n        /* \"contracts/tp4/GradeMe.sol\":921:1543  function gradeMe(string calldata name) public {... */\n      pop\n      pop\n      jump\t// out\n        /* \"contracts/tp4/GradeMe.sol\":350:376  uint256 public divisor = 8 */\n    tag_38:\n      sload(0x05)\n      dup2\n      jump\t// out\n        /* \"contracts/tp4/GradeMe.sol\":383:432  uint256 public deadline = 10000000000000000000000 */\n    tag_43:\n      sload(0x06)\n      dup2\n      jump\t// out\n        /* \"contracts/tp4/GradeMe.sol\":528:911  function retrieve() external payable {... */\n    tag_46:\n        /* \"contracts/tp4/GradeMe.sol\":596:597  3 */\n      0x03\n        /* \"contracts/tp4/GradeMe.sol\":584:593  msg.value */\n      callvalue\n        /* \"contracts/tp4/GradeMe.sol\":584:597  msg.value > 3 */\n      gt\n        /* \"contracts/tp4/GradeMe.sol\":576:617  require(msg.value > 3,\"not enough money\") */\n      tag_132\n      jumpi\n      mload(0x40)\n      0x08c379a000000000000000000000000000000000000000000000000000000000\n      dup2\n      mstore\n      0x04\n      add\n      tag_133\n      swap1\n      tag_134\n      jump\t// in\n    tag_133:\n      mload(0x40)\n      dup1\n      swap2\n      sub\n      swap1\n      revert\n    tag_132:\n        /* \"contracts/tp4/GradeMe.sol\":628:635  counter */\n      0x01\n        /* \"contracts/tp4/GradeMe.sol\":628:647  counter[msg.sender] */\n      0x00\n        /* \"contracts/tp4/GradeMe.sol\":636:646  msg.sender */\n      caller\n        /* \"contracts/tp4/GradeMe.sol\":628:647  counter[msg.sender] */\n      0xffffffffffffffffffffffffffffffffffffffff\n      and\n      0xffffffffffffffffffffffffffffffffffffffff\n      and\n      dup2\n      mstore\n      0x20\n      add\n      swap1\n      dup2\n      mstore\n      0x20\n      add\n      0x00\n      keccak256\n      0x00\n        /* \"contracts/tp4/GradeMe.sol\":628:649  counter[msg.sender]++ */\n      dup2\n      sload\n      dup1\n      swap3\n      swap2\n      swap1\n      tag_135\n      swap1\n      tag_115\n      jump\t// in\n    tag_135:\n      swap2\n      swap1\n      pop\n      sstore\n      pop\n        /* \"contracts/tp4/GradeMe.sol\":688:689  4 */\n      0x04\n        /* \"contracts/tp4/GradeMe.sol\":668:675  counter */\n      0x01\n        /* \"contracts/tp4/GradeMe.sol\":668:687  counter[msg.sender] */\n      0x00\n        /* \"contracts/tp4/GradeMe.sol\":676:686  msg.sender */\n      caller\n        /* \"contracts/tp4/GradeMe.sol\":668:687  counter[msg.sender] */\n      0xffffffffffffffffffffffffffffffffffffffff\n      and\n      0xffffffffffffffffffffffffffffffffffffffff\n      and\n      dup2\n      mstore\n      0x20\n      add\n      swap1\n      dup2\n      mstore\n      0x20\n      add\n      0x00\n      keccak256\n      sload\n        /* \"contracts/tp4/GradeMe.sol\":668:689  counter[msg.sender]<4 */\n      lt\n        /* \"contracts/tp4/GradeMe.sol\":660:690  require(counter[msg.sender]<4) */\n      tag_136\n      jumpi\n      0x00\n      dup1\n      revert\n    tag_136:\n        /* \"contracts/tp4/GradeMe.sol\":702:711  bool sent */\n      0x00\n        /* \"contracts/tp4/GradeMe.sol\":725:735  msg.sender */\n      caller\n        /* \"contracts/tp4/GradeMe.sol\":717:741  payable(msg.sender).call */\n      0xffffffffffffffffffffffffffffffffffffffff\n      and\n        /* \"contracts/tp4/GradeMe.sol\":749:750  1 */\n      0x01\n        /* \"contracts/tp4/GradeMe.sol\":757:766  gasleft() */\n      gas\n        /* \"contracts/tp4/GradeMe.sol\":717:771  payable(msg.sender).call{value: 1, gas: gasleft()}(\"\") */\n      swap1\n      mload(0x40)\n      tag_137\n      swap1\n      tag_138\n      jump\t// in\n    tag_137:\n      0x00\n      mload(0x40)\n      dup1\n      dup4\n      sub\n      dup2\n      dup6\n      dup9\n      dup9\n      call\n      swap4\n      pop\n      pop\n      pop\n      pop\n      returndatasize\n      dup1\n      0x00\n      dup2\n      eq\n      tag_141\n      jumpi\n      mload(0x40)\n      swap2\n      pop\n      and(add(returndatasize, 0x3f), not(0x1f))\n      dup3\n      add\n      0x40\n      mstore\n      returndatasize\n      dup3\n      mstore\n      returndatasize\n      0x00\n      0x20\n      dup5\n      add\n      returndatacopy\n      jump(tag_140)\n    tag_141:\n      0x60\n      swap2\n      pop\n    tag_140:\n      pop\n        /* \"contracts/tp4/GradeMe.sol\":701:771  (bool sent, ) = payable(msg.sender).call{value: 1, gas: gasleft()}(\"\") */\n      pop\n      swap1\n      pop\n        /* \"contracts/tp4/GradeMe.sol\":790:794  sent */\n      dup1\n        /* \"contracts/tp4/GradeMe.sol\":782:819  require(sent, \"Failed to send Ether\") */\n      tag_142\n      jumpi\n      mload(0x40)\n      0x08c379a000000000000000000000000000000000000000000000000000000000\n      dup2\n      mstore\n      0x04\n      add\n      tag_143\n      swap1\n      tag_144\n      jump\t// in\n    tag_143:\n      mload(0x40)\n      dup1\n      swap2\n      sub\n      swap1\n      revert\n    tag_142:\n        /* \"contracts/tp4/GradeMe.sol\":853:854  2 */\n      0x02\n        /* \"contracts/tp4/GradeMe.sol\":833:840  counter */\n      0x01\n        /* \"contracts/tp4/GradeMe.sol\":833:852  counter[msg.sender] */\n      0x00\n        /* \"contracts/tp4/GradeMe.sol\":841:851  msg.sender */\n      caller\n        /* \"contracts/tp4/GradeMe.sol\":833:852  counter[msg.sender] */\n      0xffffffffffffffffffffffffffffffffffffffff\n      and\n      0xffffffffffffffffffffffffffffffffffffffff\n      and\n      dup2\n      mstore\n      0x20\n      add\n      swap1\n      dup2\n      mstore\n      0x20\n      add\n      0x00\n      keccak256\n      sload\n        /* \"contracts/tp4/GradeMe.sol\":833:854  counter[msg.sender]<2 */\n      lt\n        /* \"contracts/tp4/GradeMe.sol\":830:904  if(counter[msg.sender]<2) {... */\n      iszero\n      tag_145\n      jumpi\n        /* \"contracts/tp4/GradeMe.sol\":891:892  0 */\n      0x00\n        /* \"contracts/tp4/GradeMe.sol\":871:878  counter */\n      0x01\n        /* \"contracts/tp4/GradeMe.sol\":871:890  counter[msg.sender] */\n      0x00\n        /* \"contracts/tp4/GradeMe.sol\":879:889  msg.sender */\n      caller\n        /* \"contracts/tp4/GradeMe.sol\":871:890  counter[msg.sender] */\n      0xffffffffffffffffffffffffffffffffffffffff\n      and\n      0xffffffffffffffffffffffffffffffffffffffff\n      and\n      dup2\n      mstore\n      0x20\n      add\n      swap1\n      dup2\n      mstore\n      0x20\n      add\n      0x00\n      keccak256\n        /* \"contracts/tp4/GradeMe.sol\":871:892  counter[msg.sender]=0 */\n      dup2\n      swap1\n      sstore\n      pop\n        /* \"contracts/tp4/GradeMe.sol\":830:904  if(counter[msg.sender]<2) {... */\n    tag_145:\n        /* \"contracts/tp4/GradeMe.sol\":565:911  {... */\n      pop\n        /* \"contracts/tp4/GradeMe.sol\":528:911  function retrieve() external payable {... */\n      jump\t// out\n        /* \"contracts/tp4/GradeMe.sol\":2050:2157  function withdraw() public onlyOwner {... */\n    tag_49:\n        /* \"@openzeppelin/contracts/access/Ownable.sol\":1531:1544  _checkOwner() */\n      tag_147\n        /* \"@openzeppelin/contracts/access/Ownable.sol\":1531:1542  _checkOwner */\n      tag_98\n        /* \"@openzeppelin/contracts/access/Ownable.sol\":1531:1544  _checkOwner() */\n      jump\t// in\n    tag_147:\n        /* \"contracts/tp4/GradeMe.sol\":2106:2116  msg.sender */\n      caller\n        /* \"contracts/tp4/GradeMe.sol\":2098:2126  payable(msg.sender).transfer */\n      0xffffffffffffffffffffffffffffffffffffffff\n      and\n        /* \"contracts/tp4/GradeMe.sol\":2098:2149  payable(msg.sender).transfer(address(this).balance) */\n      0x08fc\n        /* \"contracts/tp4/GradeMe.sol\":2127:2148  address(this).balance */\n      selfbalance\n        /* \"contracts/tp4/GradeMe.sol\":2098:2149  payable(msg.sender).transfer(address(this).balance) */\n      swap1\n      dup2\n      iszero\n      mul\n      swap1\n      mload(0x40)\n      0x00\n      mload(0x40)\n      dup1\n      dup4\n      sub\n      dup2\n      dup6\n      dup9\n      dup9\n      call\n      swap4\n      pop\n      pop\n      pop\n      pop\n      iszero\n      dup1\n      iszero\n      tag_150\n      jumpi\n      returndatasize\n      0x00\n      dup1\n      returndatacopy\n      revert(0x00, returndatasize)\n    tag_150:\n      pop\n        /* \"contracts/tp4/GradeMe.sol\":2050:2157  function withdraw() public onlyOwner {... */\n      jump\t// out\n        /* \"contracts/tp4/GradeMe.sol\":1942:2042  function setStartTime(uint256 _startTime) public onlyOwner {... */\n    tag_53:\n        /* \"@openzeppelin/contracts/access/Ownable.sol\":1531:1544  _checkOwner() */\n      tag_152\n        /* \"@openzeppelin/contracts/access/Ownable.sol\":1531:1542  _checkOwner */\n      tag_98\n        /* \"@openzeppelin/contracts/access/Ownable.sol\":1531:1544  _checkOwner() */\n      jump\t// in\n    tag_152:\n        /* \"contracts/tp4/GradeMe.sol\":2024:2034  _startTime */\n      dup1\n        /* \"contracts/tp4/GradeMe.sol\":2012:2021  startTime */\n      0x07\n        /* \"contracts/tp4/GradeMe.sol\":2012:2034  startTime = _startTime */\n      dup2\n      swap1\n      sstore\n      pop\n        /* \"contracts/tp4/GradeMe.sol\":1942:2042  function setStartTime(uint256 _startTime) public onlyOwner {... */\n      pop\n      jump\t// out\n        /* \"contracts/tp4/GradeMe.sol\":267:307  mapping(address => bool) public isGraded */\n    tag_58:\n      mstore(0x20, 0x03)\n      dup1\n      0x00\n      mstore\n      keccak256(0x00, 0x40)\n      0x00\n      swap2\n      pop\n      sload\n      swap1\n      0x0100\n      exp\n      swap1\n      div\n      0xff\n      and\n      dup2\n      jump\t// out\n        /* \"contracts/tp4/GradeMe.sol\":1581:1673  function setDivisor(uint256 _divisor) public onlyOwner {... */\n    tag_64:\n        /* \"@openzeppelin/contracts/access/Ownable.sol\":1531:1544  _checkOwner() */\n      tag_155\n        /* \"@openzeppelin/contracts/access/Ownable.sol\":1531:1542  _checkOwner */\n      tag_98\n        /* \"@openzeppelin/contracts/access/Ownable.sol\":1531:1544  _checkOwner() */\n      jump\t// in\n    tag_155:\n        /* \"contracts/tp4/GradeMe.sol\":1657:1665  _divisor */\n      dup1\n        /* \"contracts/tp4/GradeMe.sol\":1647:1654  divisor */\n      0x05\n        /* \"contracts/tp4/GradeMe.sol\":1647:1665  divisor = _divisor */\n      dup2\n      swap1\n      sstore\n      pop\n        /* \"contracts/tp4/GradeMe.sol\":1581:1673  function setDivisor(uint256 _divisor) public onlyOwner {... */\n      pop\n      jump\t// out\n        /* \"@openzeppelin/contracts/access/Ownable.sol\":2293:2394  function renounceOwnership() public virtual onlyOwner {... */\n    tag_67:\n        /* \"@openzeppelin/contracts/access/Ownable.sol\":1531:1544  _checkOwner() */\n      tag_158\n        /* \"@openzeppelin/contracts/access/Ownable.sol\":1531:1542  _checkOwner */\n      tag_98\n        /* \"@openzeppelin/contracts/access/Ownable.sol\":1531:1544  _checkOwner() */\n      jump\t// in\n    tag_158:\n        /* \"@openzeppelin/contracts/access/Ownable.sol\":2357:2387  _transferOwnership(address(0)) */\n      tag_160\n        /* \"@openzeppelin/contracts/access/Ownable.sol\":2384:2385  0 */\n      0x00\n        /* \"@openzeppelin/contracts/access/Ownable.sol\":2357:2375  _transferOwnership */\n      tag_161\n        /* \"@openzeppelin/contracts/access/Ownable.sol\":2357:2387  _transferOwnership(address(0)) */\n      jump\t// in\n    tag_160:\n        /* \"@openzeppelin/contracts/access/Ownable.sol\":2293:2394  function renounceOwnership() public virtual onlyOwner {... */\n      jump\t// out\n        /* \"contracts/tp4/GradeMe.sol\":439:467  uint256 public startTime = 0 */\n    tag_70:\n      sload(0x07)\n      dup2\n      jump\t// out\n        /* \"@openzeppelin/contracts/access/Ownable.sol\":1638:1723  function owner() public view virtual returns (address) {... */\n    tag_74:\n        /* \"@openzeppelin/contracts/access/Ownable.sol\":1684:1691  address */\n      0x00\n        /* \"@openzeppelin/contracts/access/Ownable.sol\":1710:1716  _owner */\n      dup1\n      0x00\n      swap1\n      sload\n      swap1\n      0x0100\n      exp\n      swap1\n      div\n      0xffffffffffffffffffffffffffffffffffffffff\n      and\n        /* \"@openzeppelin/contracts/access/Ownable.sol\":1703:1716  return _owner */\n      swap1\n      pop\n        /* \"@openzeppelin/contracts/access/Ownable.sol\":1638:1723  function owner() public view virtual returns (address) {... */\n      swap1\n      jump\t// out\n        /* \"contracts/tp4/GradeMe.sol\":170:211  mapping (address=>uint256) public counter */\n    tag_80:\n      mstore(0x20, 0x01)\n      dup1\n      0x00\n      mstore\n      keccak256(0x00, 0x40)\n      0x00\n      swap2\n      pop\n      swap1\n      pop\n      sload\n      dup2\n      jump\t// out\n        /* \"contracts/tp4/GradeMe.sol\":218:260  mapping(string => uint256) public students */\n    tag_86:\n      0x02\n      dup2\n      dup1\n      mload\n      0x20\n      dup2\n      add\n      dup3\n      add\n      dup1\n      mload\n      dup5\n      dup3\n      mstore\n      0x20\n      dup4\n      add\n      0x20\n      dup6\n      add\n      keccak256\n      dup2\n      dup4\n      mstore\n      dup1\n      swap6\n      pop\n      pop\n      pop\n      pop\n      pop\n      pop\n      0x00\n      swap2\n      pop\n      swap1\n      pop\n      sload\n      dup2\n      jump\t// out\n        /* \"contracts/tp4/GradeMe.sol\":314:343  uint256 public studentCounter */\n    tag_90:\n      sload(0x04)\n      dup2\n      jump\t// out\n        /* \"@openzeppelin/contracts/access/Ownable.sol\":2543:2758  function transferOwnership(address newOwner) public virtual onlyOwner {... */\n    tag_95:\n        /* \"@openzeppelin/contracts/access/Ownable.sol\":1531:1544  _checkOwner() */\n      tag_164\n        /* \"@openzeppelin/contracts/access/Ownable.sol\":1531:1542  _checkOwner */\n      tag_98\n        /* \"@openzeppelin/contracts/access/Ownable.sol\":1531:1544  _checkOwner() */\n      jump\t// in\n    tag_164:\n        /* \"@openzeppelin/contracts/access/Ownable.sol\":2647:2648  0 */\n      0x00\n        /* \"@openzeppelin/contracts/access/Ownable.sol\":2627:2649  newOwner == address(0) */\n      0xffffffffffffffffffffffffffffffffffffffff\n      and\n        /* \"@openzeppelin/contracts/access/Ownable.sol\":2627:2635  newOwner */\n      dup2\n        /* \"@openzeppelin/contracts/access/Ownable.sol\":2627:2649  newOwner == address(0) */\n      0xffffffffffffffffffffffffffffffffffffffff\n      and\n      sub\n        /* \"@openzeppelin/contracts/access/Ownable.sol\":2623:2714  if (newOwner == address(0)) {... */\n      tag_166\n      jumpi\n        /* \"@openzeppelin/contracts/access/Ownable.sol\":2700:2701  0 */\n      0x00\n        /* \"@openzeppelin/contracts/access/Ownable.sol\":2672:2703  OwnableInvalidOwner(address(0)) */\n      mload(0x40)\n      0x1e4fbdf700000000000000000000000000000000000000000000000000000000\n      dup2\n      mstore\n      0x04\n      add\n      tag_167\n      swap2\n      swap1\n      tag_76\n      jump\t// in\n    tag_167:\n      mload(0x40)\n      dup1\n      swap2\n      sub\n      swap1\n      revert\n        /* \"@openzeppelin/contracts/access/Ownable.sol\":2623:2714  if (newOwner == address(0)) {... */\n    tag_166:\n        /* \"@openzeppelin/contracts/access/Ownable.sol\":2723:2751  _transferOwnership(newOwner) */\n      tag_168\n        /* \"@openzeppelin/contracts/access/Ownable.sol\":2742:2750  newOwner */\n      dup2\n        /* \"@openzeppelin/contracts/access/Ownable.sol\":2723:2741  _transferOwnership */\n      tag_161\n        /* \"@openzeppelin/contracts/access/Ownable.sol\":2723:2751  _transferOwnership(newOwner) */\n      jump\t// in\n    tag_168:\n        /* \"@openzeppelin/contracts/access/Ownable.sol\":2543:2758  function transferOwnership(address newOwner) public virtual onlyOwner {... */\n      pop\n      jump\t// out\n        /* \"@openzeppelin/contracts/access/Ownable.sol\":1796:1958  function _checkOwner() internal view virtual {... */\n    tag_98:\n        /* \"@openzeppelin/contracts/access/Ownable.sol\":1866:1878  _msgSender() */\n      tag_170\n        /* \"@openzeppelin/contracts/access/Ownable.sol\":1866:1876  _msgSender */\n      tag_171\n        /* \"@openzeppelin/contracts/access/Ownable.sol\":1866:1878  _msgSender() */\n      jump\t// in\n    tag_170:\n        /* \"@openzeppelin/contracts/access/Ownable.sol\":1855:1878  owner() != _msgSender() */\n      0xffffffffffffffffffffffffffffffffffffffff\n      and\n        /* \"@openzeppelin/contracts/access/Ownable.sol\":1855:1862  owner() */\n      tag_172\n        /* \"@openzeppelin/contracts/access/Ownable.sol\":1855:1860  owner */\n      tag_74\n        /* \"@openzeppelin/contracts/access/Ownable.sol\":1855:1862  owner() */\n      jump\t// in\n    tag_172:\n        /* \"@openzeppelin/contracts/access/Ownable.sol\":1855:1878  owner() != _msgSender() */\n      0xffffffffffffffffffffffffffffffffffffffff\n      and\n      eq\n        /* \"@openzeppelin/contracts/access/Ownable.sol\":1851:1952  if (owner() != _msgSender()) {... */\n      tag_173\n      jumpi\n        /* \"@openzeppelin/contracts/access/Ownable.sol\":1928:1940  _msgSender() */\n      tag_174\n        /* \"@openzeppelin/contracts/access/Ownable.sol\":1928:1938  _msgSender */\n      tag_171\n        /* \"@openzeppelin/contracts/access/Ownable.sol\":1928:1940  _msgSender() */\n      jump\t// in\n    tag_174:\n        /* \"@openzeppelin/contracts/access/Ownable.sol\":1901:1941  OwnableUnauthorizedAccount(_msgSender()) */\n      mload(0x40)\n      0x118cdaa700000000000000000000000000000000000000000000000000000000\n      dup2\n      mstore\n      0x04\n      add\n      tag_175\n      swap2\n      swap1\n      tag_76\n      jump\t// in\n    tag_175:\n      mload(0x40)\n      dup1\n      swap2\n      sub\n      swap1\n      revert\n        /* \"@openzeppelin/contracts/access/Ownable.sol\":1851:1952  if (owner() != _msgSender()) {... */\n    tag_173:\n        /* \"@openzeppelin/contracts/access/Ownable.sol\":1796:1958  function _checkOwner() internal view virtual {... */\n      jump\t// out\n        /* \"@openzeppelin/contracts/access/Ownable.sol\":2912:3099  function _transferOwnership(address newOwner) internal virtual {... */\n    tag_161:\n        /* \"@openzeppelin/contracts/access/Ownable.sol\":2985:3001  address oldOwner */\n      0x00\n        /* \"@openzeppelin/contracts/access/Ownable.sol\":3004:3010  _owner */\n      dup1\n      0x00\n      swap1\n      sload\n      swap1\n      0x0100\n      exp\n      swap1\n      div\n      0xffffffffffffffffffffffffffffffffffffffff\n      and\n        /* \"@openzeppelin/contracts/access/Ownable.sol\":2985:3010  address oldOwner = _owner */\n      swap1\n      pop\n        /* \"@openzeppelin/contracts/access/Ownable.sol\":3029:3037  newOwner */\n      dup2\n        /* \"@openzeppelin/contracts/access/Ownable.sol\":3020:3026  _owner */\n      0x00\n      dup1\n        /* \"@openzeppelin/contracts/access/Ownable.sol\":3020:3037  _owner = newOwner */\n      0x0100\n      exp\n      dup2\n      sload\n      dup2\n      0xffffffffffffffffffffffffffffffffffffffff\n      mul\n      not\n      and\n      swap1\n      dup4\n      0xffffffffffffffffffffffffffffffffffffffff\n      and\n      mul\n      or\n      swap1\n      sstore\n      pop\n        /* \"@openzeppelin/contracts/access/Ownable.sol\":3083:3091  newOwner */\n      dup2\n        /* \"@openzeppelin/contracts/access/Ownable.sol\":3052:3092  OwnershipTransferred(oldOwner, newOwner) */\n      0xffffffffffffffffffffffffffffffffffffffff\n      and\n        /* \"@openzeppelin/contracts/access/Ownable.sol\":3073:3081  oldOwner */\n      dup2\n        /* \"@openzeppelin/contracts/access/Ownable.sol\":3052:3092  OwnershipTransferred(oldOwner, newOwner) */\n      0xffffffffffffffffffffffffffffffffffffffff\n      and\n      0x8be0079c531659141344cd1fd0a4f28419497f9722a3daafe3b4186f6b6457e0\n      mload(0x40)\n      mload(0x40)\n      dup1\n      swap2\n      sub\n      swap1\n      log3\n        /* \"@openzeppelin/contracts/access/Ownable.sol\":2975:3099  {... */\n      pop\n        /* \"@openzeppelin/contracts/access/Ownable.sol\":2912:3099  function _transferOwnership(address newOwner) internal virtual {... */\n      pop\n      jump\t// out\n        /* \"@openzeppelin/contracts/utils/Context.sol\":656:752  function _msgSender() internal view virtual returns (address) {... */\n    tag_171:\n        /* \"@openzeppelin/contracts/utils/Context.sol\":709:716  address */\n      0x00\n        /* \"@openzeppelin/contracts/utils/Context.sol\":735:745  msg.sender */\n      caller\n        /* \"@openzeppelin/contracts/utils/Context.sol\":728:745  return msg.sender */\n      swap1\n      pop\n        /* \"@openzeppelin/contracts/utils/Context.sol\":656:752  function _msgSender() internal view virtual returns (address) {... */\n      swap1\n      jump\t// out\n        /* \"#utility.yul\":7:82   */\n    tag_178:\n        /* \"#utility.yul\":40:46   */\n      0x00\n        /* \"#utility.yul\":73:75   */\n      0x40\n        /* \"#utility.yul\":67:76   */\n      mload\n        /* \"#utility.yul\":57:76   */\n      swap1\n      pop\n        /* \"#utility.yul\":7:82   */\n      swap1\n      jump\t// out\n        /* \"#utility.yul\":88:205   */\n    tag_179:\n        /* \"#utility.yul\":197:198   */\n      0x00\n        /* \"#utility.yul\":194:195   */\n      dup1\n        /* \"#utility.yul\":187:199   */\n      revert\n        /* \"#utility.yul\":211:328   */\n    tag_180:\n        /* \"#utility.yul\":320:321   */\n      0x00\n        /* \"#utility.yul\":317:318   */\n      dup1\n        /* \"#utility.yul\":310:322   */\n      revert\n        /* \"#utility.yul\":334:411   */\n    tag_181:\n        /* \"#utility.yul\":371:378   */\n      0x00\n        /* \"#utility.yul\":400:405   */\n      dup2\n        /* \"#utility.yul\":389:405   */\n      swap1\n      pop\n        /* \"#utility.yul\":334:411   */\n      swap2\n      swap1\n      pop\n      jump\t// out\n        /* \"#utility.yul\":417:539   */\n    tag_182:\n        /* \"#utility.yul\":490:514   */\n      tag_231\n        /* \"#utility.yul\":508:513   */\n      dup2\n        /* \"#utility.yul\":490:514   */\n      tag_181\n      jump\t// in\n    tag_231:\n        /* \"#utility.yul\":483:488   */\n      dup2\n        /* \"#utility.yul\":480:515   */\n      eq\n        /* \"#utility.yul\":470:533   */\n      tag_232\n      jumpi\n        /* \"#utility.yul\":529:530   */\n      0x00\n        /* \"#utility.yul\":526:527   */\n      dup1\n        /* \"#utility.yul\":519:531   */\n      revert\n        /* \"#utility.yul\":470:533   */\n    tag_232:\n        /* \"#utility.yul\":417:539   */\n      pop\n      jump\t// out\n        /* \"#utility.yul\":545:684   */\n    tag_183:\n        /* \"#utility.yul\":591:596   */\n      0x00\n        /* \"#utility.yul\":629:635   */\n      dup2\n        /* \"#utility.yul\":616:636   */\n      calldataload\n        /* \"#utility.yul\":607:636   */\n      swap1\n      pop\n        /* \"#utility.yul\":645:678   */\n      tag_234\n        /* \"#utility.yul\":672:677   */\n      dup2\n        /* \"#utility.yul\":645:678   */\n      tag_182\n      jump\t// in\n    tag_234:\n        /* \"#utility.yul\":545:684   */\n      swap3\n      swap2\n      pop\n      pop\n      jump\t// out\n        /* \"#utility.yul\":690:1019   */\n    tag_25:\n        /* \"#utility.yul\":749:755   */\n      0x00\n        /* \"#utility.yul\":798:800   */\n      0x20\n        /* \"#utility.yul\":786:795   */\n      dup3\n        /* \"#utility.yul\":777:784   */\n      dup5\n        /* \"#utility.yul\":773:796   */\n      sub\n        /* \"#utility.yul\":769:801   */\n      slt\n        /* \"#utility.yul\":766:885   */\n      iszero\n      tag_236\n      jumpi\n        /* \"#utility.yul\":804:883   */\n      tag_237\n      tag_179\n      jump\t// in\n    tag_237:\n        /* \"#utility.yul\":766:885   */\n    tag_236:\n        /* \"#utility.yul\":924:925   */\n      0x00\n        /* \"#utility.yul\":949:1002   */\n      tag_238\n        /* \"#utility.yul\":994:1001   */\n      dup5\n        /* \"#utility.yul\":985:991   */\n      dup3\n        /* \"#utility.yul\":974:983   */\n      dup6\n        /* \"#utility.yul\":970:992   */\n      add\n        /* \"#utility.yul\":949:1002   */\n      tag_183\n      jump\t// in\n    tag_238:\n        /* \"#utility.yul\":939:1002   */\n      swap2\n      pop\n        /* \"#utility.yul\":895:1012   */\n      pop\n        /* \"#utility.yul\":690:1019   */\n      swap3\n      swap2\n      pop\n      pop\n      jump\t// out\n        /* \"#utility.yul\":1025:1142   */\n    tag_184:\n        /* \"#utility.yul\":1134:1135   */\n      0x00\n        /* \"#utility.yul\":1131:1132   */\n      dup1\n        /* \"#utility.yul\":1124:1136   */\n      revert\n        /* \"#utility.yul\":1148:1265   */\n    tag_185:\n        /* \"#utility.yul\":1257:1258   */\n      0x00\n        /* \"#utility.yul\":1254:1255   */\n      dup1\n        /* \"#utility.yul\":1247:1259   */\n      revert\n        /* \"#utility.yul\":1271:1388   */\n    tag_186:\n        /* \"#utility.yul\":1380:1381   */\n      0x00\n        /* \"#utility.yul\":1377:1378   */\n      dup1\n        /* \"#utility.yul\":1370:1382   */\n      revert\n        /* \"#utility.yul\":1408:1961   */\n    tag_187:\n        /* \"#utility.yul\":1466:1474   */\n      0x00\n        /* \"#utility.yul\":1476:1482   */\n      dup1\n        /* \"#utility.yul\":1526:1529   */\n      dup4\n        /* \"#utility.yul\":1519:1523   */\n      0x1f\n        /* \"#utility.yul\":1511:1517   */\n      dup5\n        /* \"#utility.yul\":1507:1524   */\n      add\n        /* \"#utility.yul\":1503:1530   */\n      slt\n        /* \"#utility.yul\":1493:1615   */\n      tag_243\n      jumpi\n        /* \"#utility.yul\":1534:1613   */\n      tag_244\n      tag_184\n      jump\t// in\n    tag_244:\n        /* \"#utility.yul\":1493:1615   */\n    tag_243:\n        /* \"#utility.yul\":1647:1653   */\n      dup3\n        /* \"#utility.yul\":1634:1654   */\n      calldataload\n        /* \"#utility.yul\":1624:1654   */\n      swap1\n      pop\n        /* \"#utility.yul\":1677:1695   */\n      0xffffffffffffffff\n        /* \"#utility.yul\":1669:1675   */\n      dup2\n        /* \"#utility.yul\":1666:1696   */\n      gt\n        /* \"#utility.yul\":1663:1780   */\n      iszero\n      tag_245\n      jumpi\n        /* \"#utility.yul\":1699:1778   */\n      tag_246\n      tag_185\n      jump\t// in\n    tag_246:\n        /* \"#utility.yul\":1663:1780   */\n    tag_245:\n        /* \"#utility.yul\":1813:1817   */\n      0x20\n        /* \"#utility.yul\":1805:1811   */\n      dup4\n        /* \"#utility.yul\":1801:1818   */\n      add\n        /* \"#utility.yul\":1789:1818   */\n      swap2\n      pop\n        /* \"#utility.yul\":1867:1870   */\n      dup4\n        /* \"#utility.yul\":1859:1863   */\n      0x01\n        /* \"#utility.yul\":1851:1857   */\n      dup3\n        /* \"#utility.yul\":1847:1864   */\n      mul\n        /* \"#utility.yul\":1837:1845   */\n      dup4\n        /* \"#utility.yul\":1833:1865   */\n      add\n        /* \"#utility.yul\":1830:1871   */\n      gt\n        /* \"#utility.yul\":1827:1955   */\n      iszero\n      tag_247\n      jumpi\n        /* \"#utility.yul\":1874:1953   */\n      tag_248\n      tag_186\n      jump\t// in\n    tag_248:\n        /* \"#utility.yul\":1827:1955   */\n    tag_247:\n        /* \"#utility.yul\":1408:1961   */\n      swap3\n      pop\n      swap3\n      swap1\n      pop\n      jump\t// out\n        /* \"#utility.yul\":1967:2496   */\n    tag_34:\n        /* \"#utility.yul\":2038:2044   */\n      0x00\n        /* \"#utility.yul\":2046:2052   */\n      dup1\n        /* \"#utility.yul\":2095:2097   */\n      0x20\n        /* \"#utility.yul\":2083:2092   */\n      dup4\n        /* \"#utility.yul\":2074:2081   */\n      dup6\n        /* \"#utility.yul\":2070:2093   */\n      sub\n        /* \"#utility.yul\":2066:2098   */\n      slt\n        /* \"#utility.yul\":2063:2182   */\n      iszero\n      tag_250\n      jumpi\n        /* \"#utility.yul\":2101:2180   */\n      tag_251\n      tag_179\n      jump\t// in\n    tag_251:\n        /* \"#utility.yul\":2063:2182   */\n    tag_250:\n        /* \"#utility.yul\":2249:2250   */\n      0x00\n        /* \"#utility.yul\":2238:2247   */\n      dup4\n        /* \"#utility.yul\":2234:2251   */\n      add\n        /* \"#utility.yul\":2221:2252   */\n      calldataload\n        /* \"#utility.yul\":2279:2297   */\n      0xffffffffffffffff\n        /* \"#utility.yul\":2271:2277   */\n      dup2\n        /* \"#utility.yul\":2268:2298   */\n      gt\n        /* \"#utility.yul\":2265:2382   */\n      iszero\n      tag_252\n      jumpi\n        /* \"#utility.yul\":2301:2380   */\n      tag_253\n      tag_180\n      jump\t// in\n    tag_253:\n        /* \"#utility.yul\":2265:2382   */\n    tag_252:\n        /* \"#utility.yul\":2414:2479   */\n      tag_254\n        /* \"#utility.yul\":2471:2478   */\n      dup6\n        /* \"#utility.yul\":2462:2468   */\n      dup3\n        /* \"#utility.yul\":2451:2460   */\n      dup7\n        /* \"#utility.yul\":2447:2469   */\n      add\n        /* \"#utility.yul\":2414:2479   */\n      tag_187\n      jump\t// in\n    tag_254:\n        /* \"#utility.yul\":2396:2479   */\n      swap3\n      pop\n      swap3\n      pop\n        /* \"#utility.yul\":2192:2489   */\n      pop\n        /* \"#utility.yul\":1967:2496   */\n      swap3\n      pop\n      swap3\n      swap1\n      pop\n      jump\t// out\n        /* \"#utility.yul\":2502:2620   */\n    tag_188:\n        /* \"#utility.yul\":2589:2613   */\n      tag_256\n        /* \"#utility.yul\":2607:2612   */\n      dup2\n        /* \"#utility.yul\":2589:2613   */\n      tag_181\n      jump\t// in\n    tag_256:\n        /* \"#utility.yul\":2584:2587   */\n      dup3\n        /* \"#utility.yul\":2577:2614   */\n      mstore\n        /* \"#utility.yul\":2502:2620   */\n      pop\n      pop\n      jump\t// out\n        /* \"#utility.yul\":2626:2848   */\n    tag_40:\n        /* \"#utility.yul\":2719:2723   */\n      0x00\n        /* \"#utility.yul\":2757:2759   */\n      0x20\n        /* \"#utility.yul\":2746:2755   */\n      dup3\n        /* \"#utility.yul\":2742:2760   */\n      add\n        /* \"#utility.yul\":2734:2760   */\n      swap1\n      pop\n        /* \"#utility.yul\":2770:2841   */\n      tag_258\n        /* \"#utility.yul\":2838:2839   */\n      0x00\n        /* \"#utility.yul\":2827:2836   */\n      dup4\n        /* \"#utility.yul\":2823:2840   */\n      add\n        /* \"#utility.yul\":2814:2820   */\n      dup5\n        /* \"#utility.yul\":2770:2841   */\n      tag_188\n      jump\t// in\n    tag_258:\n        /* \"#utility.yul\":2626:2848   */\n      swap3\n      swap2\n      pop\n      pop\n      jump\t// out\n        /* \"#utility.yul\":2854:2980   */\n    tag_189:\n        /* \"#utility.yul\":2891:2898   */\n      0x00\n        /* \"#utility.yul\":2931:2973   */\n      0xffffffffffffffffffffffffffffffffffffffff\n        /* \"#utility.yul\":2924:2929   */\n      dup3\n        /* \"#utility.yul\":2920:2974   */\n      and\n        /* \"#utility.yul\":2909:2974   */\n      swap1\n      pop\n        /* \"#utility.yul\":2854:2980   */\n      swap2\n      swap1\n      pop\n      jump\t// out\n        /* \"#utility.yul\":2986:3082   */\n    tag_190:\n        /* \"#utility.yul\":3023:3030   */\n      0x00\n        /* \"#utility.yul\":3052:3076   */\n      tag_261\n        /* \"#utility.yul\":3070:3075   */\n      dup3\n        /* \"#utility.yul\":3052:3076   */\n      tag_189\n      jump\t// in\n    tag_261:\n        /* \"#utility.yul\":3041:3076   */\n      swap1\n      pop\n        /* \"#utility.yul\":2986:3082   */\n      swap2\n      swap1\n      pop\n      jump\t// out\n        /* \"#utility.yul\":3088:3210   */\n    tag_191:\n        /* \"#utility.yul\":3161:3185   */\n      tag_263\n        /* \"#utility.yul\":3179:3184   */\n      dup2\n        /* \"#utility.yul\":3161:3185   */\n      tag_190\n      jump\t// in\n    tag_263:\n        /* \"#utility.yul\":3154:3159   */\n      dup2\n        /* \"#utility.yul\":3151:3186   */\n      eq\n        /* \"#utility.yul\":3141:3204   */\n      tag_264\n      jumpi\n        /* \"#utility.yul\":3200:3201   */\n      0x00\n        /* \"#utility.yul\":3197:3198   */\n      dup1\n        /* \"#utility.yul\":3190:3202   */\n      revert\n        /* \"#utility.yul\":3141:3204   */\n    tag_264:\n        /* \"#utility.yul\":3088:3210   */\n      pop\n      jump\t// out\n        /* \"#utility.yul\":3216:3355   */\n    tag_192:\n        /* \"#utility.yul\":3262:3267   */\n      0x00\n        /* \"#utility.yul\":3300:3306   */\n      dup2\n        /* \"#utility.yul\":3287:3307   */\n      calldataload\n        /* \"#utility.yul\":3278:3307   */\n      swap1\n      pop\n        /* \"#utility.yul\":3316:3349   */\n      tag_266\n        /* \"#utility.yul\":3343:3348   */\n      dup2\n        /* \"#utility.yul\":3316:3349   */\n      tag_191\n      jump\t// in\n    tag_266:\n        /* \"#utility.yul\":3216:3355   */\n      swap3\n      swap2\n      pop\n      pop\n      jump\t// out\n        /* \"#utility.yul\":3361:3690   */\n    tag_57:\n        /* \"#utility.yul\":3420:3426   */\n      0x00\n        /* \"#utility.yul\":3469:3471   */\n      0x20\n        /* \"#utility.yul\":3457:3466   */\n      dup3\n        /* \"#utility.yul\":3448:3455   */\n      dup5\n        /* \"#utility.yul\":3444:3467   */\n      sub\n        /* \"#utility.yul\":3440:3472   */\n      slt\n        /* \"#utility.yul\":3437:3556   */\n      iszero\n      tag_268\n      jumpi\n        /* \"#utility.yul\":3475:3554   */\n      tag_269\n      tag_179\n      jump\t// in\n    tag_269:\n        /* \"#utility.yul\":3437:3556   */\n    tag_268:\n        /* \"#utility.yul\":3595:3596   */\n      0x00\n        /* \"#utility.yul\":3620:3673   */\n      tag_270\n        /* \"#utility.yul\":3665:3672   */\n      dup5\n        /* \"#utility.yul\":3656:3662   */\n      dup3\n        /* \"#utility.yul\":3645:3654   */\n      dup6\n        /* \"#utility.yul\":3641:3663   */\n      add\n        /* \"#utility.yul\":3620:3673   */\n      tag_192\n      jump\t// in\n    tag_270:\n        /* \"#utility.yul\":3610:3673   */\n      swap2\n      pop\n        /* \"#utility.yul\":3566:3683   */\n      pop\n        /* \"#utility.yul\":3361:3690   */\n      swap3\n      swap2\n      pop\n      pop\n      jump\t// out\n        /* \"#utility.yul\":3696:3786   */\n    tag_193:\n        /* \"#utility.yul\":3730:3737   */\n      0x00\n        /* \"#utility.yul\":3773:3778   */\n      dup2\n        /* \"#utility.yul\":3766:3779   */\n      iszero\n        /* \"#utility.yul\":3759:3780   */\n      iszero\n        /* \"#utility.yul\":3748:3780   */\n      swap1\n      pop\n        /* \"#utility.yul\":3696:3786   */\n      swap2\n      swap1\n      pop\n      jump\t// out\n        /* \"#utility.yul\":3792:3901   */\n    tag_194:\n        /* \"#utility.yul\":3873:3894   */\n      tag_273\n        /* \"#utility.yul\":3888:3893   */\n      dup2\n        /* \"#utility.yul\":3873:3894   */\n      tag_193\n      jump\t// in\n    tag_273:\n        /* \"#utility.yul\":3868:3871   */\n      dup3\n        /* \"#utility.yul\":3861:3895   */\n      mstore\n        /* \"#utility.yul\":3792:3901   */\n      pop\n      pop\n      jump\t// out\n        /* \"#utility.yul\":3907:4117   */\n    tag_60:\n        /* \"#utility.yul\":3994:3998   */\n      0x00\n        /* \"#utility.yul\":4032:4034   */\n      0x20\n        /* \"#utility.yul\":4021:4030   */\n      dup3\n        /* \"#utility.yul\":4017:4035   */\n      add\n        /* \"#utility.yul\":4009:4035   */\n      swap1\n      pop\n        /* \"#utility.yul\":4045:4110   */\n      tag_275\n        /* \"#utility.yul\":4107:4108   */\n      0x00\n        /* \"#utility.yul\":4096:4105   */\n      dup4\n        /* \"#utility.yul\":4092:4109   */\n      add\n        /* \"#utility.yul\":4083:4089   */\n      dup5\n        /* \"#utility.yul\":4045:4110   */\n      tag_194\n      jump\t// in\n    tag_275:\n        /* \"#utility.yul\":3907:4117   */\n      swap3\n      swap2\n      pop\n      pop\n      jump\t// out\n        /* \"#utility.yul\":4123:4241   */\n    tag_195:\n        /* \"#utility.yul\":4210:4234   */\n      tag_277\n        /* \"#utility.yul\":4228:4233   */\n      dup2\n        /* \"#utility.yul\":4210:4234   */\n      tag_190\n      jump\t// in\n    tag_277:\n        /* \"#utility.yul\":4205:4208   */\n      dup3\n        /* \"#utility.yul\":4198:4235   */\n      mstore\n        /* \"#utility.yul\":4123:4241   */\n      pop\n      pop\n      jump\t// out\n        /* \"#utility.yul\":4247:4469   */\n    tag_76:\n        /* \"#utility.yul\":4340:4344   */\n      0x00\n        /* \"#utility.yul\":4378:4380   */\n      0x20\n        /* \"#utility.yul\":4367:4376   */\n      dup3\n        /* \"#utility.yul\":4363:4381   */\n      add\n        /* \"#utility.yul\":4355:4381   */\n      swap1\n      pop\n        /* \"#utility.yul\":4391:4462   */\n      tag_279\n        /* \"#utility.yul\":4459:4460   */\n      0x00\n        /* \"#utility.yul\":4448:4457   */\n      dup4\n        /* \"#utility.yul\":4444:4461   */\n      add\n        /* \"#utility.yul\":4435:4441   */\n      dup5\n        /* \"#utility.yul\":4391:4462   */\n      tag_195\n      jump\t// in\n    tag_279:\n        /* \"#utility.yul\":4247:4469   */\n      swap3\n      swap2\n      pop\n      pop\n      jump\t// out\n        /* \"#utility.yul\":4475:4592   */\n    tag_196:\n        /* \"#utility.yul\":4584:4585   */\n      0x00\n        /* \"#utility.yul\":4581:4582   */\n      dup1\n        /* \"#utility.yul\":4574:4586   */\n      revert\n        /* \"#utility.yul\":4598:4700   */\n    tag_197:\n        /* \"#utility.yul\":4639:4645   */\n      0x00\n        /* \"#utility.yul\":4690:4692   */\n      0x1f\n        /* \"#utility.yul\":4686:4693   */\n      not\n        /* \"#utility.yul\":4681:4683   */\n      0x1f\n        /* \"#utility.yul\":4674:4679   */\n      dup4\n        /* \"#utility.yul\":4670:4684   */\n      add\n        /* \"#utility.yul\":4666:4694   */\n      and\n        /* \"#utility.yul\":4656:4694   */\n      swap1\n      pop\n        /* \"#utility.yul\":4598:4700   */\n      swap2\n      swap1\n      pop\n      jump\t// out\n        /* \"#utility.yul\":4706:4886   */\n    tag_198:\n        /* \"#utility.yul\":4754:4831   */\n      0x4e487b7100000000000000000000000000000000000000000000000000000000\n        /* \"#utility.yul\":4751:4752   */\n      0x00\n        /* \"#utility.yul\":4744:4832   */\n      mstore\n        /* \"#utility.yul\":4851:4855   */\n      0x41\n        /* \"#utility.yul\":4848:4849   */\n      0x04\n        /* \"#utility.yul\":4841:4856   */\n      mstore\n        /* \"#utility.yul\":4875:4879   */\n      0x24\n        /* \"#utility.yul\":4872:4873   */\n      0x00\n        /* \"#utility.yul\":4865:4880   */\n      revert\n        /* \"#utility.yul\":4892:5173   */\n    tag_199:\n        /* \"#utility.yul\":4975:5002   */\n      tag_284\n        /* \"#utility.yul\":4997:5001   */\n      dup3\n        /* \"#utility.yul\":4975:5002   */\n      tag_197\n      jump\t// in\n    tag_284:\n        /* \"#utility.yul\":4967:4973   */\n      dup2\n        /* \"#utility.yul\":4963:5003   */\n      add\n        /* \"#utility.yul\":5105:5111   */\n      dup2\n        /* \"#utility.yul\":5093:5103   */\n      dup2\n        /* \"#utility.yul\":5090:5112   */\n      lt\n        /* \"#utility.yul\":5069:5087   */\n      0xffffffffffffffff\n        /* \"#utility.yul\":5057:5067   */\n      dup3\n        /* \"#utility.yul\":5054:5088   */\n      gt\n        /* \"#utility.yul\":5051:5113   */\n      or\n        /* \"#utility.yul\":5048:5136   */\n      iszero\n      tag_285\n      jumpi\n        /* \"#utility.yul\":5116:5134   */\n      tag_286\n      tag_198\n      jump\t// in\n    tag_286:\n        /* \"#utility.yul\":5048:5136   */\n    tag_285:\n        /* \"#utility.yul\":5156:5166   */\n      dup1\n        /* \"#utility.yul\":5152:5154   */\n      0x40\n        /* \"#utility.yul\":5145:5167   */\n      mstore\n        /* \"#utility.yul\":4935:5173   */\n      pop\n        /* \"#utility.yul\":4892:5173   */\n      pop\n      pop\n      jump\t// out\n        /* \"#utility.yul\":5179:5308   */\n    tag_200:\n        /* \"#utility.yul\":5213:5219   */\n      0x00\n        /* \"#utility.yul\":5240:5260   */\n      tag_288\n      tag_178\n      jump\t// in\n    tag_288:\n        /* \"#utility.yul\":5230:5260   */\n      swap1\n      pop\n        /* \"#utility.yul\":5269:5302   */\n      tag_289\n        /* \"#utility.yul\":5297:5301   */\n      dup3\n        /* \"#utility.yul\":5289:5295   */\n      dup3\n        /* \"#utility.yul\":5269:5302   */\n      tag_199\n      jump\t// in\n    tag_289:\n        /* \"#utility.yul\":5179:5308   */\n      swap2\n      swap1\n      pop\n      jump\t// out\n        /* \"#utility.yul\":5314:5622   */\n    tag_201:\n        /* \"#utility.yul\":5376:5380   */\n      0x00\n        /* \"#utility.yul\":5466:5484   */\n      0xffffffffffffffff\n        /* \"#utility.yul\":5458:5464   */\n      dup3\n        /* \"#utility.yul\":5455:5485   */\n      gt\n        /* \"#utility.yul\":5452:5508   */\n      iszero\n      tag_291\n      jumpi\n        /* \"#utility.yul\":5488:5506   */\n      tag_292\n      tag_198\n      jump\t// in\n    tag_292:\n        /* \"#utility.yul\":5452:5508   */\n    tag_291:\n        /* \"#utility.yul\":5526:5555   */\n      tag_293\n        /* \"#utility.yul\":5548:5554   */\n      dup3\n        /* \"#utility.yul\":5526:5555   */\n      tag_197\n      jump\t// in\n    tag_293:\n        /* \"#utility.yul\":5518:5555   */\n      swap1\n      pop\n        /* \"#utility.yul\":5610:5614   */\n      0x20\n        /* \"#utility.yul\":5604:5608   */\n      dup2\n        /* \"#utility.yul\":5600:5615   */\n      add\n        /* \"#utility.yul\":5592:5615   */\n      swap1\n      pop\n        /* \"#utility.yul\":5314:5622   */\n      swap2\n      swap1\n      pop\n      jump\t// out\n        /* \"#utility.yul\":5628:5776   */\n    tag_202:\n        /* \"#utility.yul\":5726:5732   */\n      dup3\n        /* \"#utility.yul\":5721:5724   */\n      dup2\n        /* \"#utility.yul\":5716:5719   */\n      dup4\n        /* \"#utility.yul\":5703:5733   */\n      calldatacopy\n        /* \"#utility.yul\":5767:5768   */\n      0x00\n        /* \"#utility.yul\":5758:5764   */\n      dup4\n        /* \"#utility.yul\":5753:5756   */\n      dup4\n        /* \"#utility.yul\":5749:5765   */\n      add\n        /* \"#utility.yul\":5742:5769   */\n      mstore\n        /* \"#utility.yul\":5628:5776   */\n      pop\n      pop\n      pop\n      jump\t// out\n        /* \"#utility.yul\":5782:6207   */\n    tag_203:\n        /* \"#utility.yul\":5860:5865   */\n      0x00\n        /* \"#utility.yul\":5885:5951   */\n      tag_296\n        /* \"#utility.yul\":5901:5950   */\n      tag_297\n        /* \"#utility.yul\":5943:5949   */\n      dup5\n        /* \"#utility.yul\":5901:5950   */\n      tag_201\n      jump\t// in\n    tag_297:\n        /* \"#utility.yul\":5885:5951   */\n      tag_200\n      jump\t// in\n    tag_296:\n        /* \"#utility.yul\":5876:5951   */\n      swap1\n      pop\n        /* \"#utility.yul\":5974:5980   */\n      dup3\n        /* \"#utility.yul\":5967:5972   */\n      dup2\n        /* \"#utility.yul\":5960:5981   */\n      mstore\n        /* \"#utility.yul\":6012:6016   */\n      0x20\n        /* \"#utility.yul\":6005:6010   */\n      dup2\n        /* \"#utility.yul\":6001:6017   */\n      add\n        /* \"#utility.yul\":6050:6053   */\n      dup5\n        /* \"#utility.yul\":6041:6047   */\n      dup5\n        /* \"#utility.yul\":6036:6039   */\n      dup5\n        /* \"#utility.yul\":6032:6048   */\n      add\n        /* \"#utility.yul\":6029:6054   */\n      gt\n        /* \"#utility.yul\":6026:6138   */\n      iszero\n      tag_298\n      jumpi\n        /* \"#utility.yul\":6057:6136   */\n      tag_299\n      tag_196\n      jump\t// in\n    tag_299:\n        /* \"#utility.yul\":6026:6138   */\n    tag_298:\n        /* \"#utility.yul\":6147:6201   */\n      tag_300\n        /* \"#utility.yul\":6194:6200   */\n      dup5\n        /* \"#utility.yul\":6189:6192   */\n      dup3\n        /* \"#utility.yul\":6184:6187   */\n      dup6\n        /* \"#utility.yul\":6147:6201   */\n      tag_202\n      jump\t// in\n    tag_300:\n        /* \"#utility.yul\":5866:6207   */\n      pop\n        /* \"#utility.yul\":5782:6207   */\n      swap4\n      swap3\n      pop\n      pop\n      pop\n      jump\t// out\n        /* \"#utility.yul\":6227:6567   */\n    tag_204:\n        /* \"#utility.yul\":6283:6288   */\n      0x00\n        /* \"#utility.yul\":6332:6335   */\n      dup3\n        /* \"#utility.yul\":6325:6329   */\n      0x1f\n        /* \"#utility.yul\":6317:6323   */\n      dup4\n        /* \"#utility.yul\":6313:6330   */\n      add\n        /* \"#utility.yul\":6309:6336   */\n      slt\n        /* \"#utility.yul\":6299:6421   */\n      tag_302\n      jumpi\n        /* \"#utility.yul\":6340:6419   */\n      tag_303\n      tag_184\n      jump\t// in\n    tag_303:\n        /* \"#utility.yul\":6299:6421   */\n    tag_302:\n        /* \"#utility.yul\":6457:6463   */\n      dup2\n        /* \"#utility.yul\":6444:6464   */\n      calldataload\n        /* \"#utility.yul\":6482:6561   */\n      tag_304\n        /* \"#utility.yul\":6557:6560   */\n      dup5\n        /* \"#utility.yul\":6549:6555   */\n      dup3\n        /* \"#utility.yul\":6542:6546   */\n      0x20\n        /* \"#utility.yul\":6534:6540   */\n      dup7\n        /* \"#utility.yul\":6530:6547   */\n      add\n        /* \"#utility.yul\":6482:6561   */\n      tag_203\n      jump\t// in\n    tag_304:\n        /* \"#utility.yul\":6473:6561   */\n      swap2\n      pop\n        /* \"#utility.yul\":6289:6567   */\n      pop\n        /* \"#utility.yul\":6227:6567   */\n      swap3\n      swap2\n      pop\n      pop\n      jump\t// out\n        /* \"#utility.yul\":6573:7082   */\n    tag_85:\n        /* \"#utility.yul\":6642:6648   */\n      0x00\n        /* \"#utility.yul\":6691:6693   */\n      0x20\n        /* \"#utility.yul\":6679:6688   */\n      dup3\n        /* \"#utility.yul\":6670:6677   */\n      dup5\n        /* \"#utility.yul\":6666:6689   */\n      sub\n        /* \"#utility.yul\":6662:6694   */\n      slt\n        /* \"#utility.yul\":6659:6778   */\n      iszero\n      tag_306\n      jumpi\n        /* \"#utility.yul\":6697:6776   */\n      tag_307\n      tag_179\n      jump\t// in\n    tag_307:\n        /* \"#utility.yul\":6659:6778   */\n    tag_306:\n        /* \"#utility.yul\":6845:6846   */\n      0x00\n        /* \"#utility.yul\":6834:6843   */\n      dup3\n        /* \"#utility.yul\":6830:6847   */\n      add\n        /* \"#utility.yul\":6817:6848   */\n      calldataload\n        /* \"#utility.yul\":6875:6893   */\n      0xffffffffffffffff\n        /* \"#utility.yul\":6867:6873   */\n      dup2\n        /* \"#utility.yul\":6864:6894   */\n      gt\n        /* \"#utility.yul\":6861:6978   */\n      iszero\n      tag_308\n      jumpi\n        /* \"#utility.yul\":6897:6976   */\n      tag_309\n      tag_180\n      jump\t// in\n    tag_309:\n        /* \"#utility.yul\":6861:6978   */\n    tag_308:\n        /* \"#utility.yul\":7002:7065   */\n      tag_310\n        /* \"#utility.yul\":7057:7064   */\n      dup5\n        /* \"#utility.yul\":7048:7054   */\n      dup3\n        /* \"#utility.yul\":7037:7046   */\n      dup6\n        /* \"#utility.yul\":7033:7055   */\n      add\n        /* \"#utility.yul\":7002:7065   */\n      tag_204\n      jump\t// in\n    tag_310:\n        /* \"#utility.yul\":6992:7065   */\n      swap2\n      pop\n        /* \"#utility.yul\":6788:7075   */\n      pop\n        /* \"#utility.yul\":6573:7082   */\n      swap3\n      swap2\n      pop\n      pop\n      jump\t// out\n        /* \"#utility.yul\":7088:7257   */\n    tag_205:\n        /* \"#utility.yul\":7172:7183   */\n      0x00\n        /* \"#utility.yul\":7206:7212   */\n      dup3\n        /* \"#utility.yul\":7201:7204   */\n      dup3\n        /* \"#utility.yul\":7194:7213   */\n      mstore\n        /* \"#utility.yul\":7246:7250   */\n      0x20\n        /* \"#utility.yul\":7241:7244   */\n      dup3\n        /* \"#utility.yul\":7237:7251   */\n      add\n        /* \"#utility.yul\":7222:7251   */\n      swap1\n      pop\n        /* \"#utility.yul\":7088:7257   */\n      swap3\n      swap2\n      pop\n      pop\n      jump\t// out\n        /* \"#utility.yul\":7263:7420   */\n    tag_206:\n        /* \"#utility.yul\":7403:7412   */\n      0x54686520656e6400000000000000000000000000000000000000000000000000\n        /* \"#utility.yul\":7399:7400   */\n      0x00\n        /* \"#utility.yul\":7391:7397   */\n      dup3\n        /* \"#utility.yul\":7387:7401   */\n      add\n        /* \"#utility.yul\":7380:7413   */\n      mstore\n        /* \"#utility.yul\":7263:7420   */\n      pop\n      jump\t// out\n        /* \"#utility.yul\":7426:7791   */\n    tag_207:\n        /* \"#utility.yul\":7568:7571   */\n      0x00\n        /* \"#utility.yul\":7589:7655   */\n      tag_314\n        /* \"#utility.yul\":7653:7654   */\n      0x07\n        /* \"#utility.yul\":7648:7651   */\n      dup4\n        /* \"#utility.yul\":7589:7655   */\n      tag_205\n      jump\t// in\n    tag_314:\n        /* \"#utility.yul\":7582:7655   */\n      swap2\n      pop\n        /* \"#utility.yul\":7664:7757   */\n      tag_315\n        /* \"#utility.yul\":7753:7756   */\n      dup3\n        /* \"#utility.yul\":7664:7757   */\n      tag_206\n      jump\t// in\n    tag_315:\n        /* \"#utility.yul\":7782:7784   */\n      0x20\n        /* \"#utility.yul\":7777:7780   */\n      dup3\n        /* \"#utility.yul\":7773:7785   */\n      add\n        /* \"#utility.yul\":7766:7785   */\n      swap1\n      pop\n        /* \"#utility.yul\":7426:7791   */\n      swap2\n      swap1\n      pop\n      jump\t// out\n        /* \"#utility.yul\":7797:8216   */\n    tag_106:\n        /* \"#utility.yul\":7963:7967   */\n      0x00\n        /* \"#utility.yul\":8001:8003   */\n      0x20\n        /* \"#utility.yul\":7990:7999   */\n      dup3\n        /* \"#utility.yul\":7986:8004   */\n      add\n        /* \"#utility.yul\":7978:8004   */\n      swap1\n      pop\n        /* \"#utility.yul\":8050:8059   */\n      dup2\n        /* \"#utility.yul\":8044:8048   */\n      dup2\n        /* \"#utility.yul\":8040:8060   */\n      sub\n        /* \"#utility.yul\":8036:8037   */\n      0x00\n        /* \"#utility.yul\":8025:8034   */\n      dup4\n        /* \"#utility.yul\":8021:8038   */\n      add\n        /* \"#utility.yul\":8014:8061   */\n      mstore\n        /* \"#utility.yul\":8078:8209   */\n      tag_317\n        /* \"#utility.yul\":8204:8208   */\n      dup2\n        /* \"#utility.yul\":8078:8209   */\n      tag_207\n      jump\t// in\n    tag_317:\n        /* \"#utility.yul\":8070:8209   */\n      swap1\n      pop\n        /* \"#utility.yul\":7797:8216   */\n      swap2\n      swap1\n      pop\n      jump\t// out\n        /* \"#utility.yul\":8222:8379   */\n    tag_208:\n        /* \"#utility.yul\":8362:8371   */\n      0x4e6f742079657400000000000000000000000000000000000000000000000000\n        /* \"#utility.yul\":8358:8359   */\n      0x00\n        /* \"#utility.yul\":8350:8356   */\n      dup3\n        /* \"#utility.yul\":8346:8360   */\n      add\n        /* \"#utility.yul\":8339:8372   */\n      mstore\n        /* \"#utility.yul\":8222:8379   */\n      pop\n      jump\t// out\n        /* \"#utility.yul\":8385:8750   */\n    tag_209:\n        /* \"#utility.yul\":8527:8530   */\n      0x00\n        /* \"#utility.yul\":8548:8614   */\n      tag_320\n        /* \"#utility.yul\":8612:8613   */\n      0x07\n        /* \"#utility.yul\":8607:8610   */\n      dup4\n        /* \"#utility.yul\":8548:8614   */\n      tag_205\n      jump\t// in\n    tag_320:\n        /* \"#utility.yul\":8541:8614   */\n      swap2\n      pop\n        /* \"#utility.yul\":8623:8716   */\n      tag_321\n        /* \"#utility.yul\":8712:8715   */\n      dup3\n        /* \"#utility.yul\":8623:8716   */\n      tag_208\n      jump\t// in\n    tag_321:\n        /* \"#utility.yul\":8741:8743   */\n      0x20\n        /* \"#utility.yul\":8736:8739   */\n      dup3\n        /* \"#utility.yul\":8732:8744   */\n      add\n        /* \"#utility.yul\":8725:8744   */\n      swap1\n      pop\n        /* \"#utility.yul\":8385:8750   */\n      swap2\n      swap1\n      pop\n      jump\t// out\n        /* \"#utility.yul\":8756:9175   */\n    tag_111:\n        /* \"#utility.yul\":8922:8926   */\n      0x00\n        /* \"#utility.yul\":8960:8962   */\n      0x20\n        /* \"#utility.yul\":8949:8958   */\n      dup3\n        /* \"#utility.yul\":8945:8963   */\n      add\n        /* \"#utility.yul\":8937:8963   */\n      swap1\n      pop\n        /* \"#utility.yul\":9009:9018   */\n      dup2\n        /* \"#utility.yul\":9003:9007   */\n      dup2\n        /* \"#utility.yul\":8999:9019   */\n      sub\n        /* \"#utility.yul\":8995:8996   */\n      0x00\n        /* \"#utility.yul\":8984:8993   */\n      dup4\n        /* \"#utility.yul\":8980:8997   */\n      add\n        /* \"#utility.yul\":8973:9020   */\n      mstore\n        /* \"#utility.yul\":9037:9168   */\n      tag_323\n        /* \"#utility.yul\":9163:9167   */\n      dup2\n        /* \"#utility.yul\":9037:9168   */\n      tag_209\n      jump\t// in\n    tag_323:\n        /* \"#utility.yul\":9029:9168   */\n      swap1\n      pop\n        /* \"#utility.yul\":8756:9175   */\n      swap2\n      swap1\n      pop\n      jump\t// out\n        /* \"#utility.yul\":9181:9361   */\n    tag_210:\n        /* \"#utility.yul\":9229:9306   */\n      0x4e487b7100000000000000000000000000000000000000000000000000000000\n        /* \"#utility.yul\":9226:9227   */\n      0x00\n        /* \"#utility.yul\":9219:9307   */\n      mstore\n        /* \"#utility.yul\":9326:9330   */\n      0x12\n        /* \"#utility.yul\":9323:9324   */\n      0x04\n        /* \"#utility.yul\":9316:9331   */\n      mstore\n        /* \"#utility.yul\":9350:9354   */\n      0x24\n        /* \"#utility.yul\":9347:9348   */\n      0x00\n        /* \"#utility.yul\":9340:9355   */\n      revert\n        /* \"#utility.yul\":9367:9547   */\n    tag_211:\n        /* \"#utility.yul\":9415:9492   */\n      0x4e487b7100000000000000000000000000000000000000000000000000000000\n        /* \"#utility.yul\":9412:9413   */\n      0x00\n        /* \"#utility.yul\":9405:9493   */\n      mstore\n        /* \"#utility.yul\":9512:9516   */\n      0x11\n        /* \"#utility.yul\":9509:9510   */\n      0x04\n        /* \"#utility.yul\":9502:9517   */\n      mstore\n        /* \"#utility.yul\":9536:9540   */\n      0x24\n        /* \"#utility.yul\":9533:9534   */\n      0x00\n        /* \"#utility.yul\":9526:9541   */\n      revert\n        /* \"#utility.yul\":9553:9738   */\n    tag_113:\n        /* \"#utility.yul\":9593:9594   */\n      0x00\n        /* \"#utility.yul\":9610:9630   */\n      tag_327\n        /* \"#utility.yul\":9628:9629   */\n      dup3\n        /* \"#utility.yul\":9610:9630   */\n      tag_181\n      jump\t// in\n    tag_327:\n        /* \"#utility.yul\":9605:9630   */\n      swap2\n      pop\n        /* \"#utility.yul\":9644:9664   */\n      tag_328\n        /* \"#utility.yul\":9662:9663   */\n      dup4\n        /* \"#utility.yul\":9644:9664   */\n      tag_181\n      jump\t// in\n    tag_328:\n        /* \"#utility.yul\":9639:9664   */\n      swap3\n      pop\n        /* \"#utility.yul\":9683:9684   */\n      dup3\n        /* \"#utility.yul\":9673:9708   */\n      tag_329\n      jumpi\n        /* \"#utility.yul\":9688:9706   */\n      tag_330\n      tag_210\n      jump\t// in\n    tag_330:\n        /* \"#utility.yul\":9673:9708   */\n    tag_329:\n        /* \"#utility.yul\":9730:9731   */\n      dup3\n        /* \"#utility.yul\":9727:9728   */\n      dup3\n        /* \"#utility.yul\":9723:9732   */\n      div\n        /* \"#utility.yul\":9718:9732   */\n      swap1\n      pop\n        /* \"#utility.yul\":9553:9738   */\n      swap3\n      swap2\n      pop\n      pop\n      jump\t// out\n        /* \"#utility.yul\":9744:9977   */\n    tag_115:\n        /* \"#utility.yul\":9783:9786   */\n      0x00\n        /* \"#utility.yul\":9806:9830   */\n      tag_332\n        /* \"#utility.yul\":9824:9829   */\n      dup3\n        /* \"#utility.yul\":9806:9830   */\n      tag_181\n      jump\t// in\n    tag_332:\n        /* \"#utility.yul\":9797:9830   */\n      swap2\n      pop\n        /* \"#utility.yul\":9852:9918   */\n      0xffffffffffffffffffffffffffffffffffffffffffffffffffffffffffffffff\n        /* \"#utility.yul\":9845:9850   */\n      dup3\n        /* \"#utility.yul\":9842:9919   */\n      sub\n        /* \"#utility.yul\":9839:9942   */\n      tag_333\n      jumpi\n        /* \"#utility.yul\":9922:9940   */\n      tag_334\n      tag_211\n      jump\t// in\n    tag_334:\n        /* \"#utility.yul\":9839:9942   */\n    tag_333:\n        /* \"#utility.yul\":9969:9970   */\n      0x01\n        /* \"#utility.yul\":9962:9967   */\n      dup3\n        /* \"#utility.yul\":9958:9971   */\n      add\n        /* \"#utility.yul\":9951:9971   */\n      swap1\n      pop\n        /* \"#utility.yul\":9744:9977   */\n      swap2\n      swap1\n      pop\n      jump\t// out\n        /* \"#utility.yul\":9983:10393   */\n    tag_118:\n        /* \"#utility.yul\":10023:10030   */\n      0x00\n        /* \"#utility.yul\":10046:10066   */\n      tag_336\n        /* \"#utility.yul\":10064:10065   */\n      dup3\n        /* \"#utility.yul\":10046:10066   */\n      tag_181\n      jump\t// in\n    tag_336:\n        /* \"#utility.yul\":10041:10066   */\n      swap2\n      pop\n        /* \"#utility.yul\":10080:10100   */\n      tag_337\n        /* \"#utility.yul\":10098:10099   */\n      dup4\n        /* \"#utility.yul\":10080:10100   */\n      tag_181\n      jump\t// in\n    tag_337:\n        /* \"#utility.yul\":10075:10100   */\n      swap3\n      pop\n        /* \"#utility.yul\":10135:10136   */\n      dup3\n        /* \"#utility.yul\":10132:10133   */\n      dup3\n        /* \"#utility.yul\":10128:10137   */\n      mul\n        /* \"#utility.yul\":10157:10187   */\n      tag_338\n        /* \"#utility.yul\":10175:10186   */\n      dup2\n        /* \"#utility.yul\":10157:10187   */\n      tag_181\n      jump\t// in\n    tag_338:\n        /* \"#utility.yul\":10146:10187   */\n      swap2\n      pop\n        /* \"#utility.yul\":10336:10337   */\n      dup3\n        /* \"#utility.yul\":10327:10334   */\n      dup3\n        /* \"#utility.yul\":10323:10338   */\n      div\n        /* \"#utility.yul\":10320:10321   */\n      dup5\n        /* \"#utility.yul\":10317:10339   */\n      eq\n        /* \"#utility.yul\":10297:10298   */\n      dup4\n        /* \"#utility.yul\":10290:10299   */\n      iszero\n        /* \"#utility.yul\":10270:10353   */\n      or\n        /* \"#utility.yul\":10247:10386   */\n      tag_339\n      jumpi\n        /* \"#utility.yul\":10366:10384   */\n      tag_340\n      tag_211\n      jump\t// in\n    tag_340:\n        /* \"#utility.yul\":10247:10386   */\n    tag_339:\n        /* \"#utility.yul\":10031:10393   */\n      pop\n        /* \"#utility.yul\":9983:10393   */\n      swap3\n      swap2\n      pop\n      pop\n      jump\t// out\n        /* \"#utility.yul\":10399:10593   */\n    tag_120:\n        /* \"#utility.yul\":10439:10443   */\n      0x00\n        /* \"#utility.yul\":10459:10479   */\n      tag_342\n        /* \"#utility.yul\":10477:10478   */\n      dup3\n        /* \"#utility.yul\":10459:10479   */\n      tag_181\n      jump\t// in\n    tag_342:\n        /* \"#utility.yul\":10454:10479   */\n      swap2\n      pop\n        /* \"#utility.yul\":10493:10513   */\n      tag_343\n        /* \"#utility.yul\":10511:10512   */\n      dup4\n        /* \"#utility.yul\":10493:10513   */\n      tag_181\n      jump\t// in\n    tag_343:\n        /* \"#utility.yul\":10488:10513   */\n      swap3\n      pop\n        /* \"#utility.yul\":10537:10538   */\n      dup3\n        /* \"#utility.yul\":10534:10535   */\n      dup3\n        /* \"#utility.yul\":10530:10539   */\n      sub\n        /* \"#utility.yul\":10522:10539   */\n      swap1\n      pop\n        /* \"#utility.yul\":10561:10562   */\n      dup2\n        /* \"#utility.yul\":10555:10559   */\n      dup2\n        /* \"#utility.yul\":10552:10563   */\n      gt\n        /* \"#utility.yul\":10549:10586   */\n      iszero\n      tag_344\n      jumpi\n        /* \"#utility.yul\":10566:10584   */\n      tag_345\n      tag_211\n      jump\t// in\n    tag_345:\n        /* \"#utility.yul\":10549:10586   */\n    tag_344:\n        /* \"#utility.yul\":10399:10593   */\n      swap3\n      swap2\n      pop\n      pop\n      jump\t// out\n        /* \"#utility.yul\":10599:10747   */\n    tag_212:\n        /* \"#utility.yul\":10701:10712   */\n      0x00\n        /* \"#utility.yul\":10738:10741   */\n      dup2\n        /* \"#utility.yul\":10723:10741   */\n      swap1\n      pop\n        /* \"#utility.yul\":10599:10747   */\n      swap3\n      swap2\n      pop\n      pop\n      jump\t// out\n        /* \"#utility.yul\":10777:11107   */\n    tag_213:\n        /* \"#utility.yul\":10893:10896   */\n      0x00\n        /* \"#utility.yul\":10914:11003   */\n      tag_348\n        /* \"#utility.yul\":10996:11002   */\n      dup4\n        /* \"#utility.yul\":10991:10994   */\n      dup6\n        /* \"#utility.yul\":10914:11003   */\n      tag_212\n      jump\t// in\n    tag_348:\n        /* \"#utility.yul\":10907:11003   */\n      swap4\n      pop\n        /* \"#utility.yul\":11013:11069   */\n      tag_349\n        /* \"#utility.yul\":11062:11068   */\n      dup4\n        /* \"#utility.yul\":11057:11060   */\n      dup6\n        /* \"#utility.yul\":11050:11055   */\n      dup5\n        /* \"#utility.yul\":11013:11069   */\n      tag_202\n      jump\t// in\n    tag_349:\n        /* \"#utility.yul\":11094:11100   */\n      dup3\n        /* \"#utility.yul\":11089:11092   */\n      dup5\n        /* \"#utility.yul\":11085:11101   */\n      add\n        /* \"#utility.yul\":11078:11101   */\n      swap1\n      pop\n        /* \"#utility.yul\":10777:11107   */\n      swap4\n      swap3\n      pop\n      pop\n      pop\n      jump\t// out\n        /* \"#utility.yul\":11113:11408   */\n    tag_123:\n        /* \"#utility.yul\":11255:11258   */\n      0x00\n        /* \"#utility.yul\":11277:11382   */\n      tag_351\n        /* \"#utility.yul\":11378:11381   */\n      dup3\n        /* \"#utility.yul\":11369:11375   */\n      dup5\n        /* \"#utility.yul\":11361:11367   */\n      dup7\n        /* \"#utility.yul\":11277:11382   */\n      tag_213\n      jump\t// in\n    tag_351:\n        /* \"#utility.yul\":11270:11382   */\n      swap2\n      pop\n        /* \"#utility.yul\":11399:11402   */\n      dup2\n        /* \"#utility.yul\":11392:11402   */\n      swap1\n      pop\n        /* \"#utility.yul\":11113:11408   */\n      swap4\n      swap3\n      pop\n      pop\n      pop\n      jump\t// out\n        /* \"#utility.yul\":11414:11586   */\n    tag_214:\n        /* \"#utility.yul\":11554:11578   */\n      0x73747564656e7420616c72656164792065786973747300000000000000000000\n        /* \"#utility.yul\":11550:11551   */\n      0x00\n        /* \"#utility.yul\":11542:11548   */\n      dup3\n        /* \"#utility.yul\":11538:11552   */\n      add\n        /* \"#utility.yul\":11531:11579   */\n      mstore\n        /* \"#utility.yul\":11414:11586   */\n      pop\n      jump\t// out\n        /* \"#utility.yul\":11592:11958   */\n    tag_215:\n        /* \"#utility.yul\":11734:11737   */\n      0x00\n        /* \"#utility.yul\":11755:11822   */\n      tag_354\n        /* \"#utility.yul\":11819:11821   */\n      0x16\n        /* \"#utility.yul\":11814:11817   */\n      dup4\n        /* \"#utility.yul\":11755:11822   */\n      tag_205\n      jump\t// in\n    tag_354:\n        /* \"#utility.yul\":11748:11822   */\n      swap2\n      pop\n        /* \"#utility.yul\":11831:11924   */\n      tag_355\n        /* \"#utility.yul\":11920:11923   */\n      dup3\n        /* \"#utility.yul\":11831:11924   */\n      tag_214\n      jump\t// in\n    tag_355:\n        /* \"#utility.yul\":11949:11951   */\n      0x20\n        /* \"#utility.yul\":11944:11947   */\n      dup3\n        /* \"#utility.yul\":11940:11952   */\n      add\n        /* \"#utility.yul\":11933:11952   */\n      swap1\n      pop\n        /* \"#utility.yul\":11592:11958   */\n      swap2\n      swap1\n      pop\n      jump\t// out\n        /* \"#utility.yul\":11964:12383   */\n    tag_126:\n        /* \"#utility.yul\":12130:12134   */\n      0x00\n        /* \"#utility.yul\":12168:12170   */\n      0x20\n        /* \"#utility.yul\":12157:12166   */\n      dup3\n        /* \"#utility.yul\":12153:12171   */\n      add\n        /* \"#utility.yul\":12145:12171   */\n      swap1\n      pop\n        /* \"#utility.yul\":12217:12226   */\n      dup2\n        /* \"#utility.yul\":12211:12215   */\n      dup2\n        /* \"#utility.yul\":12207:12227   */\n      sub\n        /* \"#utility.yul\":12203:12204   */\n      0x00\n        /* \"#utility.yul\":12192:12201   */\n      dup4\n        /* \"#utility.yul\":12188:12205   */\n      add\n        /* \"#utility.yul\":12181:12228   */\n      mstore\n        /* \"#utility.yul\":12245:12376   */\n      tag_357\n        /* \"#utility.yul\":12371:12375   */\n      dup2\n        /* \"#utility.yul\":12245:12376   */\n      tag_215\n      jump\t// in\n    tag_357:\n        /* \"#utility.yul\":12237:12376   */\n      swap1\n      pop\n        /* \"#utility.yul\":11964:12383   */\n      swap2\n      swap1\n      pop\n      jump\t// out\n        /* \"#utility.yul\":12389:12553   */\n    tag_216:\n        /* \"#utility.yul\":12529:12545   */\n      0x616c726561647920677261646564000000000000000000000000000000000000\n        /* \"#utility.yul\":12525:12526   */\n      0x00\n        /* \"#utility.yul\":12517:12523   */\n      dup3\n        /* \"#utility.yul\":12513:12527   */\n      add\n        /* \"#utility.yul\":12506:12546   */\n      mstore\n        /* \"#utility.yul\":12389:12553   */\n      pop\n      jump\t// out\n        /* \"#utility.yul\":12559:12925   */\n    tag_217:\n        /* \"#utility.yul\":12701:12704   */\n      0x00\n        /* \"#utility.yul\":12722:12789   */\n      tag_360\n        /* \"#utility.yul\":12786:12788   */\n      0x0e\n        /* \"#utility.yul\":12781:12784   */\n      dup4\n        /* \"#utility.yul\":12722:12789   */\n      tag_205\n      jump\t// in\n    tag_360:\n        /* \"#utility.yul\":12715:12789   */\n      swap2\n      pop\n        /* \"#utility.yul\":12798:12891   */\n      tag_361\n        /* \"#utility.yul\":12887:12890   */\n      dup3\n        /* \"#utility.yul\":12798:12891   */\n      tag_216\n      jump\t// in\n    tag_361:\n        /* \"#utility.yul\":12916:12918   */\n      0x20\n        /* \"#utility.yul\":12911:12914   */\n      dup3\n        /* \"#utility.yul\":12907:12919   */\n      add\n        /* \"#utility.yul\":12900:12919   */\n      swap1\n      pop\n        /* \"#utility.yul\":12559:12925   */\n      swap2\n      swap1\n      pop\n      jump\t// out\n        /* \"#utility.yul\":12931:13350   */\n    tag_129:\n        /* \"#utility.yul\":13097:13101   */\n      0x00\n        /* \"#utility.yul\":13135:13137   */\n      0x20\n        /* \"#utility.yul\":13124:13133   */\n      dup3\n        /* \"#utility.yul\":13120:13138   */\n      add\n        /* \"#utility.yul\":13112:13138   */\n      swap1\n      pop\n        /* \"#utility.yul\":13184:13193   */\n      dup2\n        /* \"#utility.yul\":13178:13182   */\n      dup2\n        /* \"#utility.yul\":13174:13194   */\n      sub\n        /* \"#utility.yul\":13170:13171   */\n      0x00\n        /* \"#utility.yul\":13159:13168   */\n      dup4\n        /* \"#utility.yul\":13155:13172   */\n      add\n        /* \"#utility.yul\":13148:13195   */\n      mstore\n        /* \"#utility.yul\":13212:13343   */\n      tag_363\n        /* \"#utility.yul\":13338:13342   */\n      dup2\n        /* \"#utility.yul\":13212:13343   */\n      tag_217\n      jump\t// in\n    tag_363:\n        /* \"#utility.yul\":13204:13343   */\n      swap1\n      pop\n        /* \"#utility.yul\":12931:13350   */\n      swap2\n      swap1\n      pop\n      jump\t// out\n        /* \"#utility.yul\":13356:13522   */\n    tag_218:\n        /* \"#utility.yul\":13496:13514   */\n      0x6e6f7420656e6f756768206d6f6e657900000000000000000000000000000000\n        /* \"#utility.yul\":13492:13493   */\n      0x00\n        /* \"#utility.yul\":13484:13490   */\n      dup3\n        /* \"#utility.yul\":13480:13494   */\n      add\n        /* \"#utility.yul\":13473:13515   */\n      mstore\n        /* \"#utility.yul\":13356:13522   */\n      pop\n      jump\t// out\n        /* \"#utility.yul\":13528:13894   */\n    tag_219:\n        /* \"#utility.yul\":13670:13673   */\n      0x00\n        /* \"#utility.yul\":13691:13758   */\n      tag_366\n        /* \"#utility.yul\":13755:13757   */\n      0x10\n        /* \"#utility.yul\":13750:13753   */\n      dup4\n        /* \"#utility.yul\":13691:13758   */\n      tag_205\n      jump\t// in\n    tag_366:\n        /* \"#utility.yul\":13684:13758   */\n      swap2\n      pop\n        /* \"#utility.yul\":13767:13860   */\n      tag_367\n        /* \"#utility.yul\":13856:13859   */\n      dup3\n        /* \"#utility.yul\":13767:13860   */\n      tag_218\n      jump\t// in\n    tag_367:\n        /* \"#utility.yul\":13885:13887   */\n      0x20\n        /* \"#utility.yul\":13880:13883   */\n      dup3\n        /* \"#utility.yul\":13876:13888   */\n      add\n        /* \"#utility.yul\":13869:13888   */\n      swap1\n      pop\n        /* \"#utility.yul\":13528:13894   */\n      swap2\n      swap1\n      pop\n      jump\t// out\n        /* \"#utility.yul\":13900:14319   */\n    tag_134:\n        /* \"#utility.yul\":14066:14070   */\n      0x00\n        /* \"#utility.yul\":14104:14106   */\n      0x20\n        /* \"#utility.yul\":14093:14102   */\n      dup3\n        /* \"#utility.yul\":14089:14107   */\n      add\n        /* \"#utility.yul\":14081:14107   */\n      swap1\n      pop\n        /* \"#utility.yul\":14153:14162   */\n      dup2\n        /* \"#utility.yul\":14147:14151   */\n      dup2\n        /* \"#utility.yul\":14143:14163   */\n      sub\n        /* \"#utility.yul\":14139:14140   */\n      0x00\n        /* \"#utility.yul\":14128:14137   */\n      dup4\n        /* \"#utility.yul\":14124:14141   */\n      add\n        /* \"#utility.yul\":14117:14164   */\n      mstore\n        /* \"#utility.yul\":14181:14312   */\n      tag_369\n        /* \"#utility.yul\":14307:14311   */\n      dup2\n        /* \"#utility.yul\":14181:14312   */\n      tag_219\n      jump\t// in\n    tag_369:\n        /* \"#utility.yul\":14173:14312   */\n      swap1\n      pop\n        /* \"#utility.yul\":13900:14319   */\n      swap2\n      swap1\n      pop\n      jump\t// out\n        /* \"#utility.yul\":14325:14472   */\n    tag_220:\n        /* \"#utility.yul\":14426:14437   */\n      0x00\n        /* \"#utility.yul\":14463:14466   */\n      dup2\n        /* \"#utility.yul\":14448:14466   */\n      swap1\n      pop\n        /* \"#utility.yul\":14325:14472   */\n      swap3\n      swap2\n      pop\n      pop\n      jump\t// out\n        /* \"#utility.yul\":14478:14592   */\n    tag_221:\n      pop\n      jump\t// out\n        /* \"#utility.yul\":14598:14996   */\n    tag_222:\n        /* \"#utility.yul\":14757:14760   */\n      0x00\n        /* \"#utility.yul\":14778:14861   */\n      tag_373\n        /* \"#utility.yul\":14859:14860   */\n      0x00\n        /* \"#utility.yul\":14854:14857   */\n      dup4\n        /* \"#utility.yul\":14778:14861   */\n      tag_220\n      jump\t// in\n    tag_373:\n        /* \"#utility.yul\":14771:14861   */\n      swap2\n      pop\n        /* \"#utility.yul\":14870:14963   */\n      tag_374\n        /* \"#utility.yul\":14959:14962   */\n      dup3\n        /* \"#utility.yul\":14870:14963   */\n      tag_221\n      jump\t// in\n    tag_374:\n        /* \"#utility.yul\":14988:14989   */\n      0x00\n        /* \"#utility.yul\":14983:14986   */\n      dup3\n        /* \"#utility.yul\":14979:14990   */\n      add\n        /* \"#utility.yul\":14972:14990   */\n      swap1\n      pop\n        /* \"#utility.yul\":14598:14996   */\n      swap2\n      swap1\n      pop\n      jump\t// out\n        /* \"#utility.yul\":15002:15381   */\n    tag_138:\n        /* \"#utility.yul\":15186:15189   */\n      0x00\n        /* \"#utility.yul\":15208:15355   */\n      tag_376\n        /* \"#utility.yul\":15351:15354   */\n      dup3\n        /* \"#utility.yul\":15208:15355   */\n      tag_222\n      jump\t// in\n    tag_376:\n        /* \"#utility.yul\":15201:15355   */\n      swap2\n      pop\n        /* \"#utility.yul\":15372:15375   */\n      dup2\n        /* \"#utility.yul\":15365:15375   */\n      swap1\n      pop\n        /* \"#utility.yul\":15002:15381   */\n      swap2\n      swap1\n      pop\n      jump\t// out\n        /* \"#utility.yul\":15387:15557   */\n    tag_223:\n        /* \"#utility.yul\":15527:15549   */\n      0x4661696c656420746f2073656e64204574686572000000000000000000000000\n        /* \"#utility.yul\":15523:15524   */\n      0x00\n        /* \"#utility.yul\":15515:15521   */\n      dup3\n        /* \"#utility.yul\":15511:15525   */\n      add\n        /* \"#utility.yul\":15504:15550   */\n      mstore\n        /* \"#utility.yul\":15387:15557   */\n      pop\n      jump\t// out\n        /* \"#utility.yul\":15563:15929   */\n    tag_224:\n        /* \"#utility.yul\":15705:15708   */\n      0x00\n        /* \"#utility.yul\":15726:15793   */\n      tag_379\n        /* \"#utility.yul\":15790:15792   */\n      0x14\n        /* \"#utility.yul\":15785:15788   */\n      dup4\n        /* \"#utility.yul\":15726:15793   */\n      tag_205\n      jump\t// in\n    tag_379:\n        /* \"#utility.yul\":15719:15793   */\n      swap2\n      pop\n        /* \"#utility.yul\":15802:15895   */\n      tag_380\n        /* \"#utility.yul\":15891:15894   */\n      dup3\n        /* \"#utility.yul\":15802:15895   */\n      tag_223\n      jump\t// in\n    tag_380:\n        /* \"#utility.yul\":15920:15922   */\n      0x20\n        /* \"#utility.yul\":15915:15918   */\n      dup3\n        /* \"#utility.yul\":15911:15923   */\n      add\n        /* \"#utility.yul\":15904:15923   */\n      swap1\n      pop\n        /* \"#utility.yul\":15563:15929   */\n      swap2\n      swap1\n      pop\n      jump\t// out\n        /* \"#utility.yul\":15935:16354   */\n    tag_144:\n        /* \"#utility.yul\":16101:16105   */\n      0x00\n        /* \"#utility.yul\":16139:16141   */\n      0x20\n        /* \"#utility.yul\":16128:16137   */\n      dup3\n        /* \"#utility.yul\":16124:16142   */\n      add\n        /* \"#utility.yul\":16116:16142   */\n      swap1\n      pop\n        /* \"#utility.yul\":16188:16197   */\n      dup2\n        /* \"#utility.yul\":16182:16186   */\n      dup2\n        /* \"#utility.yul\":16178:16198   */\n      sub\n        /* \"#utility.yul\":16174:16175   */\n      0x00\n        /* \"#utility.yul\":16163:16172   */\n      dup4\n        /* \"#utility.yul\":16159:16176   */\n      add\n        /* \"#utility.yul\":16152:16199   */\n      mstore\n        /* \"#utility.yul\":16216:16347   */\n      tag_382\n        /* \"#utility.yul\":16342:16346   */\n      dup2\n        /* \"#utility.yul\":16216:16347   */\n      tag_224\n      jump\t// in\n    tag_382:\n        /* \"#utility.yul\":16208:16347   */\n      swap1\n      pop\n        /* \"#utility.yul\":15935:16354   */\n      swap2\n      swap1\n      pop\n      jump\t// out\n\n    auxdata: 0xa2646970667358221220148bc5e555447825c4a1f01ec7e52e058db5d19f27ccf5e204fc84ea2b0a503364736f6c634300081a0033\n}\n",
				"bytecode": {
					"linkReferences": {},
					"object": "6080604052600860055569021e19e0c9bab24000006006555f600755335f73ffffffffffffffffffffffffffffffffffffffff168173ffffffffffffffffffffffffffffffffffffffff160361008c575f6040517f1e4fbdf700000000000000000000000000000000000000000000000000000000815260040161008391906101a1565b60405180910390fd5b61009b816100a160201b60201c565b506101ba565b5f805f9054906101000a900473ffffffffffffffffffffffffffffffffffffffff169050815f806101000a81548173ffffffffffffffffffffffffffffffffffffffff021916908373ffffffffffffffffffffffffffffffffffffffff1602179055508173ffffffffffffffffffffffffffffffffffffffff168173ffffffffffffffffffffffffffffffffffffffff167f8be0079c531659141344cd1fd0a4f28419497f9722a3daafe3b4186f6b6457e060405160405180910390a35050565b5f73ffffffffffffffffffffffffffffffffffffffff82169050919050565b5f61018b82610162565b9050919050565b61019b81610181565b82525050565b5f6020820190506101b45f830184610192565b92915050565b6113cd806101c75f395ff3fe6080604052600436106100fd575f3560e01c806362844fe0116100945780638da5cb5b116100635780638da5cb5b146102b9578063c12327b8146102e3578063c7ef6bfb1461031f578063e3596cac1461035b578063f2fde38b14610385576100fd565b806362844fe014610215578063709f5ccc14610251578063715018a61461027957806378e979251461028f576100fd565b806329dcb0cf116100d057806329dcb0cf146101a35780632e64cec1146101cd5780633ccfd60b146101d75780633e0a322d146101ed576100fd565b806316d6ecb014610101578063195199f6146101295780631d86b167146101515780631f2dc5ef14610179575b5f80fd5b34801561010c575f80fd5b5061012760048036038101906101229190610bed565b6103ad565b005b348015610134575f80fd5b5061014f600480360381019061014a9190610bed565b6103bf565b005b34801561015c575f80fd5b5061017760048036038101906101729190610c79565b6103d1565b005b348015610184575f80fd5b5061018d61069d565b60405161019a9190610cd3565b60405180910390f35b3480156101ae575f80fd5b506101b76106a3565b6040516101c49190610cd3565b60405180910390f35b6101d56106a9565b005b3480156101e2575f80fd5b506101eb6108bf565b005b3480156101f8575f80fd5b50610213600480360381019061020e9190610bed565b61090d565b005b348015610220575f80fd5b5061023b60048036038101906102369190610d46565b61091f565b6040516102489190610d8b565b60405180910390f35b34801561025c575f80fd5b5061027760048036038101906102729190610bed565b61093c565b005b348015610284575f80fd5b5061028d61094e565b005b34801561029a575f80fd5b506102a3610961565b6040516102b09190610cd3565b60405180910390f35b3480156102c4575f80fd5b506102cd610967565b6040516102da9190610db3565b60405180910390f35b3480156102ee575f80fd5b5061030960048036038101906103049190610d46565b61098e565b6040516103169190610cd3565b60405180910390f35b34801561032a575f80fd5b5061034560048036038101906103409190610f04565b6109a3565b6040516103529190610cd3565b60405180910390f35b348015610366575f80fd5b5061036f6109d0565b60405161037c9190610cd3565b60405180910390f35b348015610390575f80fd5b506103ab60048036038101906103a69190610d46565b6109d6565b005b6103b5610a5a565b8060048190555050565b6103c7610a5a565b8060068190555050565b6006544210610415576040517f08c379a000000000000000000000000000000000000000000000000000000000815260040161040c90610fa5565b60405180910390fd5b6007544211610459576040517f08c379a000000000000000000000000000000000000000000000000000000000815260040161045090610fa5565b60405180910390fd5b6001805f3373ffffffffffffffffffffffffffffffffffffffff1673ffffffffffffffffffffffffffffffffffffffff1681526020019081526020015f2054116104d8576040517f08c379a00000000000000000000000000000000000000000000000000000000081526004016104cf9061100d565b60405180910390fd5b5f6005546004546104e99190611085565b905060045f81546104f9906110b5565b91905081905550600681116105285760058161051591906110fc565b6064610521919061113d565b905061052d565b604690505b5f6002848460405161054092919061119e565b9081526020016040518091039020541461058f576040517f08c379a000000000000000000000000000000000000000000000000000000000815260040161058690611200565b60405180910390fd5b5f151560035f3373ffffffffffffffffffffffffffffffffffffffff1673ffffffffffffffffffffffffffffffffffffffff1681526020019081526020015f205f9054906101000a900460ff1615151461061e576040517f08c379a000000000000000000000000000000000000000000000000000000000815260040161061590611268565b60405180910390fd5b600160035f3373ffffffffffffffffffffffffffffffffffffffff1673ffffffffffffffffffffffffffffffffffffffff1681526020019081526020015f205f6101000a81548160ff021916908315150217905550806002848460405161068692919061119e565b908152602001604051809103902081905550505050565b60055481565b60065481565b600334116106ec576040517f08c379a00000000000000000000000000000000000000000000000000000000081526004016106e3906112d0565b60405180910390fd5b60015f3373ffffffffffffffffffffffffffffffffffffffff1673ffffffffffffffffffffffffffffffffffffffff1681526020019081526020015f205f815480929190610739906110b5565b9190505550600460015f3373ffffffffffffffffffffffffffffffffffffffff1673ffffffffffffffffffffffffffffffffffffffff1681526020019081526020015f205410610787575f80fd5b5f3373ffffffffffffffffffffffffffffffffffffffff1660015a906040516107af9061131b565b5f60405180830381858888f193505050503d805f81146107ea576040519150601f19603f3d011682016040523d82523d5f602084013e6107ef565b606091505b5050905080610833576040517f08c379a000000000000000000000000000000000000000000000000000000000815260040161082a90611379565b60405180910390fd5b600260015f3373ffffffffffffffffffffffffffffffffffffffff1673ffffffffffffffffffffffffffffffffffffffff1681526020019081526020015f205410156108bc575f60015f3373ffffffffffffffffffffffffffffffffffffffff1673ffffffffffffffffffffffffffffffffffffffff1681526020019081526020015f20819055505b50565b6108c7610a5a565b3373ffffffffffffffffffffffffffffffffffffffff166108fc4790811502906040515f60405180830381858888f1935050505015801561090a573d5f803e3d5ffd5b50565b610915610a5a565b8060078190555050565b6003602052805f5260405f205f915054906101000a900460ff1681565b610944610a5a565b8060058190555050565b610956610a5a565b61095f5f610ae1565b565b60075481565b5f805f9054906101000a900473ffffffffffffffffffffffffffffffffffffffff16905090565b6001602052805f5260405f205f915090505481565b6002818051602081018201805184825260208301602085012081835280955050505050505f915090505481565b60045481565b6109de610a5a565b5f73ffffffffffffffffffffffffffffffffffffffff168173ffffffffffffffffffffffffffffffffffffffff1603610a4e575f6040517f1e4fbdf7000000000000000000000000000000000000000000000000000000008152600401610a459190610db3565b60405180910390fd5b610a5781610ae1565b50565b610a62610ba2565b73ffffffffffffffffffffffffffffffffffffffff16610a80610967565b73ffffffffffffffffffffffffffffffffffffffff1614610adf57610aa3610ba2565b6040517f118cdaa7000000000000000000000000000000000000000000000000000000008152600401610ad69190610db3565b60405180910390fd5b565b5f805f9054906101000a900473ffffffffffffffffffffffffffffffffffffffff169050815f806101000a81548173ffffffffffffffffffffffffffffffffffffffff021916908373ffffffffffffffffffffffffffffffffffffffff1602179055508173ffffffffffffffffffffffffffffffffffffffff168173ffffffffffffffffffffffffffffffffffffffff167f8be0079c531659141344cd1fd0a4f28419497f9722a3daafe3b4186f6b6457e060405160405180910390a35050565b5f33905090565b5f604051905090565b5f80fd5b5f80fd5b5f819050919050565b610bcc81610bba565b8114610bd6575f80fd5b50565b5f81359050610be781610bc3565b92915050565b5f60208284031215610c0257610c01610bb2565b5b5f610c0f84828501610bd9565b91505092915050565b5f80fd5b5f80fd5b5f80fd5b5f8083601f840112610c3957610c38610c18565b5b8235905067ffffffffffffffff811115610c5657610c55610c1c565b5b602083019150836001820283011115610c7257610c71610c20565b5b9250929050565b5f8060208385031215610c8f57610c8e610bb2565b5b5f83013567ffffffffffffffff811115610cac57610cab610bb6565b5b610cb885828601610c24565b92509250509250929050565b610ccd81610bba565b82525050565b5f602082019050610ce65f830184610cc4565b92915050565b5f73ffffffffffffffffffffffffffffffffffffffff82169050919050565b5f610d1582610cec565b9050919050565b610d2581610d0b565b8114610d2f575f80fd5b50565b5f81359050610d4081610d1c565b92915050565b5f60208284031215610d5b57610d5a610bb2565b5b5f610d6884828501610d32565b91505092915050565b5f8115159050919050565b610d8581610d71565b82525050565b5f602082019050610d9e5f830184610d7c565b92915050565b610dad81610d0b565b82525050565b5f602082019050610dc65f830184610da4565b92915050565b5f80fd5b5f601f19601f8301169050919050565b7f4e487b71000000000000000000000000000000000000000000000000000000005f52604160045260245ffd5b610e1682610dd0565b810181811067ffffffffffffffff82111715610e3557610e34610de0565b5b80604052505050565b5f610e47610ba9565b9050610e538282610e0d565b919050565b5f67ffffffffffffffff821115610e7257610e71610de0565b5b610e7b82610dd0565b9050602081019050919050565b828183375f83830152505050565b5f610ea8610ea384610e58565b610e3e565b905082815260208101848484011115610ec457610ec3610dcc565b5b610ecf848285610e88565b509392505050565b5f82601f830112610eeb57610eea610c18565b5b8135610efb848260208601610e96565b91505092915050565b5f60208284031215610f1957610f18610bb2565b5b5f82013567ffffffffffffffff811115610f3657610f35610bb6565b5b610f4284828501610ed7565b91505092915050565b5f82825260208201905092915050565b7f54686520656e64000000000000000000000000000000000000000000000000005f82015250565b5f610f8f600783610f4b565b9150610f9a82610f5b565b602082019050919050565b5f6020820190508181035f830152610fbc81610f83565b9050919050565b7f4e6f7420796574000000000000000000000000000000000000000000000000005f82015250565b5f610ff7600783610f4b565b915061100282610fc3565b602082019050919050565b5f6020820190508181035f83015261102481610feb565b9050919050565b7f4e487b71000000000000000000000000000000000000000000000000000000005f52601260045260245ffd5b7f4e487b71000000000000000000000000000000000000000000000000000000005f52601160045260245ffd5b5f61108f82610bba565b915061109a83610bba565b9250826110aa576110a961102b565b5b828204905092915050565b5f6110bf82610bba565b91507fffffffffffffffffffffffffffffffffffffffffffffffffffffffffffffffff82036110f1576110f0611058565b5b600182019050919050565b5f61110682610bba565b915061111183610bba565b925082820261111f81610bba565b9150828204841483151761113657611135611058565b5b5092915050565b5f61114782610bba565b915061115283610bba565b925082820390508181111561116a57611169611058565b5b92915050565b5f81905092915050565b5f6111858385611170565b9350611192838584610e88565b82840190509392505050565b5f6111aa82848661117a565b91508190509392505050565b7f73747564656e7420616c726561647920657869737473000000000000000000005f82015250565b5f6111ea601683610f4b565b91506111f5826111b6565b602082019050919050565b5f6020820190508181035f830152611217816111de565b9050919050565b7f616c7265616479206772616465640000000000000000000000000000000000005f82015250565b5f611252600e83610f4b565b915061125d8261121e565b602082019050919050565b5f6020820190508181035f83015261127f81611246565b9050919050565b7f6e6f7420656e6f756768206d6f6e6579000000000000000000000000000000005f82015250565b5f6112ba601083610f4b565b91506112c582611286565b602082019050919050565b5f6020820190508181035f8301526112e7816112ae565b9050919050565b5f81905092915050565b50565b5f6113065f836112ee565b9150611311826112f8565b5f82019050919050565b5f611325826112fb565b9150819050919050565b7f4661696c656420746f2073656e642045746865720000000000000000000000005f82015250565b5f611363601483610f4b565b915061136e8261132f565b602082019050919050565b5f6020820190508181035f83015261139081611357565b905091905056fea2646970667358221220148bc5e555447825c4a1f01ec7e52e058db5d19f27ccf5e204fc84ea2b0a503364736f6c634300081a0033",
					"opcodes": "PUSH1 0x80 PUSH1 0x40 MSTORE PUSH1 0x8 PUSH1 0x5 SSTORE PUSH10 0x21E19E0C9BAB2400000 PUSH1 0x6 SSTORE PUSH0 PUSH1 0x7 SSTORE CALLER PUSH0 PUSH20 0xFFFFFFFFFFFFFFFFFFFFFFFFFFFFFFFFFFFFFFFF AND DUP2 PUSH20 0xFFFFFFFFFFFFFFFFFFFFFFFFFFFFFFFFFFFFFFFF AND SUB PUSH2 0x8C JUMPI PUSH0 PUSH1 0x40 MLOAD PUSH32 0x1E4FBDF700000000000000000000000000000000000000000000000000000000 DUP2 MSTORE PUSH1 0x4 ADD PUSH2 0x83 SWAP2 SWAP1 PUSH2 0x1A1 JUMP JUMPDEST PUSH1 0x40 MLOAD DUP1 SWAP2 SUB SWAP1 REVERT JUMPDEST PUSH2 0x9B DUP2 PUSH2 0xA1 PUSH1 0x20 SHL PUSH1 0x20 SHR JUMP JUMPDEST POP PUSH2 0x1BA JUMP JUMPDEST PUSH0 DUP1 PUSH0 SWAP1 SLOAD SWAP1 PUSH2 0x100 EXP SWAP1 DIV PUSH20 0xFFFFFFFFFFFFFFFFFFFFFFFFFFFFFFFFFFFFFFFF AND SWAP1 POP DUP2 PUSH0 DUP1 PUSH2 0x100 EXP DUP2 SLOAD DUP2 PUSH20 0xFFFFFFFFFFFFFFFFFFFFFFFFFFFFFFFFFFFFFFFF MUL NOT AND SWAP1 DUP4 PUSH20 0xFFFFFFFFFFFFFFFFFFFFFFFFFFFFFFFFFFFFFFFF AND MUL OR SWAP1 SSTORE POP DUP2 PUSH20 0xFFFFFFFFFFFFFFFFFFFFFFFFFFFFFFFFFFFFFFFF AND DUP2 PUSH20 0xFFFFFFFFFFFFFFFFFFFFFFFFFFFFFFFFFFFFFFFF AND PUSH32 0x8BE0079C531659141344CD1FD0A4F28419497F9722A3DAAFE3B4186F6B6457E0 PUSH1 0x40 MLOAD PUSH1 0x40 MLOAD DUP1 SWAP2 SUB SWAP1 LOG3 POP POP JUMP JUMPDEST PUSH0 PUSH20 0xFFFFFFFFFFFFFFFFFFFFFFFFFFFFFFFFFFFFFFFF DUP3 AND SWAP1 POP SWAP2 SWAP1 POP JUMP JUMPDEST PUSH0 PUSH2 0x18B DUP3 PUSH2 0x162 JUMP JUMPDEST SWAP1 POP SWAP2 SWAP1 POP JUMP JUMPDEST PUSH2 0x19B DUP2 PUSH2 0x181 JUMP JUMPDEST DUP3 MSTORE POP POP JUMP JUMPDEST PUSH0 PUSH1 0x20 DUP3 ADD SWAP1 POP PUSH2 0x1B4 PUSH0 DUP4 ADD DUP5 PUSH2 0x192 JUMP JUMPDEST SWAP3 SWAP2 POP POP JUMP JUMPDEST PUSH2 0x13CD DUP1 PUSH2 0x1C7 PUSH0 CODECOPY PUSH0 RETURN INVALID PUSH1 0x80 PUSH1 0x40 MSTORE PUSH1 0x4 CALLDATASIZE LT PUSH2 0xFD JUMPI PUSH0 CALLDATALOAD PUSH1 0xE0 SHR DUP1 PUSH4 0x62844FE0 GT PUSH2 0x94 JUMPI DUP1 PUSH4 0x8DA5CB5B GT PUSH2 0x63 JUMPI DUP1 PUSH4 0x8DA5CB5B EQ PUSH2 0x2B9 JUMPI DUP1 PUSH4 0xC12327B8 EQ PUSH2 0x2E3 JUMPI DUP1 PUSH4 0xC7EF6BFB EQ PUSH2 0x31F JUMPI DUP1 PUSH4 0xE3596CAC EQ PUSH2 0x35B JUMPI DUP1 PUSH4 0xF2FDE38B EQ PUSH2 0x385 JUMPI PUSH2 0xFD JUMP JUMPDEST DUP1 PUSH4 0x62844FE0 EQ PUSH2 0x215 JUMPI DUP1 PUSH4 0x709F5CCC EQ PUSH2 0x251 JUMPI DUP1 PUSH4 0x715018A6 EQ PUSH2 0x279 JUMPI DUP1 PUSH4 0x78E97925 EQ PUSH2 0x28F JUMPI PUSH2 0xFD JUMP JUMPDEST DUP1 PUSH4 0x29DCB0CF GT PUSH2 0xD0 JUMPI DUP1 PUSH4 0x29DCB0CF EQ PUSH2 0x1A3 JUMPI DUP1 PUSH4 0x2E64CEC1 EQ PUSH2 0x1CD JUMPI DUP1 PUSH4 0x3CCFD60B EQ PUSH2 0x1D7 JUMPI DUP1 PUSH4 0x3E0A322D EQ PUSH2 0x1ED JUMPI PUSH2 0xFD JUMP JUMPDEST DUP1 PUSH4 0x16D6ECB0 EQ PUSH2 0x101 JUMPI DUP1 PUSH4 0x195199F6 EQ PUSH2 0x129 JUMPI DUP1 PUSH4 0x1D86B167 EQ PUSH2 0x151 JUMPI DUP1 PUSH4 0x1F2DC5EF EQ PUSH2 0x179 JUMPI JUMPDEST PUSH0 DUP1 REVERT JUMPDEST CALLVALUE DUP1 ISZERO PUSH2 0x10C JUMPI PUSH0 DUP1 REVERT JUMPDEST POP PUSH2 0x127 PUSH1 0x4 DUP1 CALLDATASIZE SUB DUP2 ADD SWAP1 PUSH2 0x122 SWAP2 SWAP1 PUSH2 0xBED JUMP JUMPDEST PUSH2 0x3AD JUMP JUMPDEST STOP JUMPDEST CALLVALUE DUP1 ISZERO PUSH2 0x134 JUMPI PUSH0 DUP1 REVERT JUMPDEST POP PUSH2 0x14F PUSH1 0x4 DUP1 CALLDATASIZE SUB DUP2 ADD SWAP1 PUSH2 0x14A SWAP2 SWAP1 PUSH2 0xBED JUMP JUMPDEST PUSH2 0x3BF JUMP JUMPDEST STOP JUMPDEST CALLVALUE DUP1 ISZERO PUSH2 0x15C JUMPI PUSH0 DUP1 REVERT JUMPDEST POP PUSH2 0x177 PUSH1 0x4 DUP1 CALLDATASIZE SUB DUP2 ADD SWAP1 PUSH2 0x172 SWAP2 SWAP1 PUSH2 0xC79 JUMP JUMPDEST PUSH2 0x3D1 JUMP JUMPDEST STOP JUMPDEST CALLVALUE DUP1 ISZERO PUSH2 0x184 JUMPI PUSH0 DUP1 REVERT JUMPDEST POP PUSH2 0x18D PUSH2 0x69D JUMP JUMPDEST PUSH1 0x40 MLOAD PUSH2 0x19A SWAP2 SWAP1 PUSH2 0xCD3 JUMP JUMPDEST PUSH1 0x40 MLOAD DUP1 SWAP2 SUB SWAP1 RETURN JUMPDEST CALLVALUE DUP1 ISZERO PUSH2 0x1AE JUMPI PUSH0 DUP1 REVERT JUMPDEST POP PUSH2 0x1B7 PUSH2 0x6A3 JUMP JUMPDEST PUSH1 0x40 MLOAD PUSH2 0x1C4 SWAP2 SWAP1 PUSH2 0xCD3 JUMP JUMPDEST PUSH1 0x40 MLOAD DUP1 SWAP2 SUB SWAP1 RETURN JUMPDEST PUSH2 0x1D5 PUSH2 0x6A9 JUMP JUMPDEST STOP JUMPDEST CALLVALUE DUP1 ISZERO PUSH2 0x1E2 JUMPI PUSH0 DUP1 REVERT JUMPDEST POP PUSH2 0x1EB PUSH2 0x8BF JUMP JUMPDEST STOP JUMPDEST CALLVALUE DUP1 ISZERO PUSH2 0x1F8 JUMPI PUSH0 DUP1 REVERT JUMPDEST POP PUSH2 0x213 PUSH1 0x4 DUP1 CALLDATASIZE SUB DUP2 ADD SWAP1 PUSH2 0x20E SWAP2 SWAP1 PUSH2 0xBED JUMP JUMPDEST PUSH2 0x90D JUMP JUMPDEST STOP JUMPDEST CALLVALUE DUP1 ISZERO PUSH2 0x220 JUMPI PUSH0 DUP1 REVERT JUMPDEST POP PUSH2 0x23B PUSH1 0x4 DUP1 CALLDATASIZE SUB DUP2 ADD SWAP1 PUSH2 0x236 SWAP2 SWAP1 PUSH2 0xD46 JUMP JUMPDEST PUSH2 0x91F JUMP JUMPDEST PUSH1 0x40 MLOAD PUSH2 0x248 SWAP2 SWAP1 PUSH2 0xD8B JUMP JUMPDEST PUSH1 0x40 MLOAD DUP1 SWAP2 SUB SWAP1 RETURN JUMPDEST CALLVALUE DUP1 ISZERO PUSH2 0x25C JUMPI PUSH0 DUP1 REVERT JUMPDEST POP PUSH2 0x277 PUSH1 0x4 DUP1 CALLDATASIZE SUB DUP2 ADD SWAP1 PUSH2 0x272 SWAP2 SWAP1 PUSH2 0xBED JUMP JUMPDEST PUSH2 0x93C JUMP JUMPDEST STOP JUMPDEST CALLVALUE DUP1 ISZERO PUSH2 0x284 JUMPI PUSH0 DUP1 REVERT JUMPDEST POP PUSH2 0x28D PUSH2 0x94E JUMP JUMPDEST STOP JUMPDEST CALLVALUE DUP1 ISZERO PUSH2 0x29A JUMPI PUSH0 DUP1 REVERT JUMPDEST POP PUSH2 0x2A3 PUSH2 0x961 JUMP JUMPDEST PUSH1 0x40 MLOAD PUSH2 0x2B0 SWAP2 SWAP1 PUSH2 0xCD3 JUMP JUMPDEST PUSH1 0x40 MLOAD DUP1 SWAP2 SUB SWAP1 RETURN JUMPDEST CALLVALUE DUP1 ISZERO PUSH2 0x2C4 JUMPI PUSH0 DUP1 REVERT JUMPDEST POP PUSH2 0x2CD PUSH2 0x967 JUMP JUMPDEST PUSH1 0x40 MLOAD PUSH2 0x2DA SWAP2 SWAP1 PUSH2 0xDB3 JUMP JUMPDEST PUSH1 0x40 MLOAD DUP1 SWAP2 SUB SWAP1 RETURN JUMPDEST CALLVALUE DUP1 ISZERO PUSH2 0x2EE JUMPI PUSH0 DUP1 REVERT JUMPDEST POP PUSH2 0x309 PUSH1 0x4 DUP1 CALLDATASIZE SUB DUP2 ADD SWAP1 PUSH2 0x304 SWAP2 SWAP1 PUSH2 0xD46 JUMP JUMPDEST PUSH2 0x98E JUMP JUMPDEST PUSH1 0x40 MLOAD PUSH2 0x316 SWAP2 SWAP1 PUSH2 0xCD3 JUMP JUMPDEST PUSH1 0x40 MLOAD DUP1 SWAP2 SUB SWAP1 RETURN JUMPDEST CALLVALUE DUP1 ISZERO PUSH2 0x32A JUMPI PUSH0 DUP1 REVERT JUMPDEST POP PUSH2 0x345 PUSH1 0x4 DUP1 CALLDATASIZE SUB DUP2 ADD SWAP1 PUSH2 0x340 SWAP2 SWAP1 PUSH2 0xF04 JUMP JUMPDEST PUSH2 0x9A3 JUMP JUMPDEST PUSH1 0x40 MLOAD PUSH2 0x352 SWAP2 SWAP1 PUSH2 0xCD3 JUMP JUMPDEST PUSH1 0x40 MLOAD DUP1 SWAP2 SUB SWAP1 RETURN JUMPDEST CALLVALUE DUP1 ISZERO PUSH2 0x366 JUMPI PUSH0 DUP1 REVERT JUMPDEST POP PUSH2 0x36F PUSH2 0x9D0 JUMP JUMPDEST PUSH1 0x40 MLOAD PUSH2 0x37C SWAP2 SWAP1 PUSH2 0xCD3 JUMP JUMPDEST PUSH1 0x40 MLOAD DUP1 SWAP2 SUB SWAP1 RETURN JUMPDEST CALLVALUE DUP1 ISZERO PUSH2 0x390 JUMPI PUSH0 DUP1 REVERT JUMPDEST POP PUSH2 0x3AB PUSH1 0x4 DUP1 CALLDATASIZE SUB DUP2 ADD SWAP1 PUSH2 0x3A6 SWAP2 SWAP1 PUSH2 0xD46 JUMP JUMPDEST PUSH2 0x9D6 JUMP JUMPDEST STOP JUMPDEST PUSH2 0x3B5 PUSH2 0xA5A JUMP JUMPDEST DUP1 PUSH1 0x4 DUP2 SWAP1 SSTORE POP POP JUMP JUMPDEST PUSH2 0x3C7 PUSH2 0xA5A JUMP JUMPDEST DUP1 PUSH1 0x6 DUP2 SWAP1 SSTORE POP POP JUMP JUMPDEST PUSH1 0x6 SLOAD TIMESTAMP LT PUSH2 0x415 JUMPI PUSH1 0x40 MLOAD PUSH32 0x8C379A000000000000000000000000000000000000000000000000000000000 DUP2 MSTORE PUSH1 0x4 ADD PUSH2 0x40C SWAP1 PUSH2 0xFA5 JUMP JUMPDEST PUSH1 0x40 MLOAD DUP1 SWAP2 SUB SWAP1 REVERT JUMPDEST PUSH1 0x7 SLOAD TIMESTAMP GT PUSH2 0x459 JUMPI PUSH1 0x40 MLOAD PUSH32 0x8C379A000000000000000000000000000000000000000000000000000000000 DUP2 MSTORE PUSH1 0x4 ADD PUSH2 0x450 SWAP1 PUSH2 0xFA5 JUMP JUMPDEST PUSH1 0x40 MLOAD DUP1 SWAP2 SUB SWAP1 REVERT JUMPDEST PUSH1 0x1 DUP1 PUSH0 CALLER PUSH20 0xFFFFFFFFFFFFFFFFFFFFFFFFFFFFFFFFFFFFFFFF AND PUSH20 0xFFFFFFFFFFFFFFFFFFFFFFFFFFFFFFFFFFFFFFFF AND DUP2 MSTORE PUSH1 0x20 ADD SWAP1 DUP2 MSTORE PUSH1 0x20 ADD PUSH0 KECCAK256 SLOAD GT PUSH2 0x4D8 JUMPI PUSH1 0x40 MLOAD PUSH32 0x8C379A000000000000000000000000000000000000000000000000000000000 DUP2 MSTORE PUSH1 0x4 ADD PUSH2 0x4CF SWAP1 PUSH2 0x100D JUMP JUMPDEST PUSH1 0x40 MLOAD DUP1 SWAP2 SUB SWAP1 REVERT JUMPDEST PUSH0 PUSH1 0x5 SLOAD PUSH1 0x4 SLOAD PUSH2 0x4E9 SWAP2 SWAP1 PUSH2 0x1085 JUMP JUMPDEST SWAP1 POP PUSH1 0x4 PUSH0 DUP2 SLOAD PUSH2 0x4F9 SWAP1 PUSH2 0x10B5 JUMP JUMPDEST SWAP2 SWAP1 POP DUP2 SWAP1 SSTORE POP PUSH1 0x6 DUP2 GT PUSH2 0x528 JUMPI PUSH1 0x5 DUP2 PUSH2 0x515 SWAP2 SWAP1 PUSH2 0x10FC JUMP JUMPDEST PUSH1 0x64 PUSH2 0x521 SWAP2 SWAP1 PUSH2 0x113D JUMP JUMPDEST SWAP1 POP PUSH2 0x52D JUMP JUMPDEST PUSH1 0x46 SWAP1 POP JUMPDEST PUSH0 PUSH1 0x2 DUP5 DUP5 PUSH1 0x40 MLOAD PUSH2 0x540 SWAP3 SWAP2 SWAP1 PUSH2 0x119E JUMP JUMPDEST SWAP1 DUP2 MSTORE PUSH1 0x20 ADD PUSH1 0x40 MLOAD DUP1 SWAP2 SUB SWAP1 KECCAK256 SLOAD EQ PUSH2 0x58F JUMPI PUSH1 0x40 MLOAD PUSH32 0x8C379A000000000000000000000000000000000000000000000000000000000 DUP2 MSTORE PUSH1 0x4 ADD PUSH2 0x586 SWAP1 PUSH2 0x1200 JUMP JUMPDEST PUSH1 0x40 MLOAD DUP1 SWAP2 SUB SWAP1 REVERT JUMPDEST PUSH0 ISZERO ISZERO PUSH1 0x3 PUSH0 CALLER PUSH20 0xFFFFFFFFFFFFFFFFFFFFFFFFFFFFFFFFFFFFFFFF AND PUSH20 0xFFFFFFFFFFFFFFFFFFFFFFFFFFFFFFFFFFFFFFFF AND DUP2 MSTORE PUSH1 0x20 ADD SWAP1 DUP2 MSTORE PUSH1 0x20 ADD PUSH0 KECCAK256 PUSH0 SWAP1 SLOAD SWAP1 PUSH2 0x100 EXP SWAP1 DIV PUSH1 0xFF AND ISZERO ISZERO EQ PUSH2 0x61E JUMPI PUSH1 0x40 MLOAD PUSH32 0x8C379A000000000000000000000000000000000000000000000000000000000 DUP2 MSTORE PUSH1 0x4 ADD PUSH2 0x615 SWAP1 PUSH2 0x1268 JUMP JUMPDEST PUSH1 0x40 MLOAD DUP1 SWAP2 SUB SWAP1 REVERT JUMPDEST PUSH1 0x1 PUSH1 0x3 PUSH0 CALLER PUSH20 0xFFFFFFFFFFFFFFFFFFFFFFFFFFFFFFFFFFFFFFFF AND PUSH20 0xFFFFFFFFFFFFFFFFFFFFFFFFFFFFFFFFFFFFFFFF AND DUP2 MSTORE PUSH1 0x20 ADD SWAP1 DUP2 MSTORE PUSH1 0x20 ADD PUSH0 KECCAK256 PUSH0 PUSH2 0x100 EXP DUP2 SLOAD DUP2 PUSH1 0xFF MUL NOT AND SWAP1 DUP4 ISZERO ISZERO MUL OR SWAP1 SSTORE POP DUP1 PUSH1 0x2 DUP5 DUP5 PUSH1 0x40 MLOAD PUSH2 0x686 SWAP3 SWAP2 SWAP1 PUSH2 0x119E JUMP JUMPDEST SWAP1 DUP2 MSTORE PUSH1 0x20 ADD PUSH1 0x40 MLOAD DUP1 SWAP2 SUB SWAP1 KECCAK256 DUP2 SWAP1 SSTORE POP POP POP POP JUMP JUMPDEST PUSH1 0x5 SLOAD DUP2 JUMP JUMPDEST PUSH1 0x6 SLOAD DUP2 JUMP JUMPDEST PUSH1 0x3 CALLVALUE GT PUSH2 0x6EC JUMPI PUSH1 0x40 MLOAD PUSH32 0x8C379A000000000000000000000000000000000000000000000000000000000 DUP2 MSTORE PUSH1 0x4 ADD PUSH2 0x6E3 SWAP1 PUSH2 0x12D0 JUMP JUMPDEST PUSH1 0x40 MLOAD DUP1 SWAP2 SUB SWAP1 REVERT JUMPDEST PUSH1 0x1 PUSH0 CALLER PUSH20 0xFFFFFFFFFFFFFFFFFFFFFFFFFFFFFFFFFFFFFFFF AND PUSH20 0xFFFFFFFFFFFFFFFFFFFFFFFFFFFFFFFFFFFFFFFF AND DUP2 MSTORE PUSH1 0x20 ADD SWAP1 DUP2 MSTORE PUSH1 0x20 ADD PUSH0 KECCAK256 PUSH0 DUP2 SLOAD DUP1 SWAP3 SWAP2 SWAP1 PUSH2 0x739 SWAP1 PUSH2 0x10B5 JUMP JUMPDEST SWAP2 SWAP1 POP SSTORE POP PUSH1 0x4 PUSH1 0x1 PUSH0 CALLER PUSH20 0xFFFFFFFFFFFFFFFFFFFFFFFFFFFFFFFFFFFFFFFF AND PUSH20 0xFFFFFFFFFFFFFFFFFFFFFFFFFFFFFFFFFFFFFFFF AND DUP2 MSTORE PUSH1 0x20 ADD SWAP1 DUP2 MSTORE PUSH1 0x20 ADD PUSH0 KECCAK256 SLOAD LT PUSH2 0x787 JUMPI PUSH0 DUP1 REVERT JUMPDEST PUSH0 CALLER PUSH20 0xFFFFFFFFFFFFFFFFFFFFFFFFFFFFFFFFFFFFFFFF AND PUSH1 0x1 GAS SWAP1 PUSH1 0x40 MLOAD PUSH2 0x7AF SWAP1 PUSH2 0x131B JUMP JUMPDEST PUSH0 PUSH1 0x40 MLOAD DUP1 DUP4 SUB DUP2 DUP6 DUP9 DUP9 CALL SWAP4 POP POP POP POP RETURNDATASIZE DUP1 PUSH0 DUP2 EQ PUSH2 0x7EA JUMPI PUSH1 0x40 MLOAD SWAP2 POP PUSH1 0x1F NOT PUSH1 0x3F RETURNDATASIZE ADD AND DUP3 ADD PUSH1 0x40 MSTORE RETURNDATASIZE DUP3 MSTORE RETURNDATASIZE PUSH0 PUSH1 0x20 DUP5 ADD RETURNDATACOPY PUSH2 0x7EF JUMP JUMPDEST PUSH1 0x60 SWAP2 POP JUMPDEST POP POP SWAP1 POP DUP1 PUSH2 0x833 JUMPI PUSH1 0x40 MLOAD PUSH32 0x8C379A000000000000000000000000000000000000000000000000000000000 DUP2 MSTORE PUSH1 0x4 ADD PUSH2 0x82A SWAP1 PUSH2 0x1379 JUMP JUMPDEST PUSH1 0x40 MLOAD DUP1 SWAP2 SUB SWAP1 REVERT JUMPDEST PUSH1 0x2 PUSH1 0x1 PUSH0 CALLER PUSH20 0xFFFFFFFFFFFFFFFFFFFFFFFFFFFFFFFFFFFFFFFF AND PUSH20 0xFFFFFFFFFFFFFFFFFFFFFFFFFFFFFFFFFFFFFFFF AND DUP2 MSTORE PUSH1 0x20 ADD SWAP1 DUP2 MSTORE PUSH1 0x20 ADD PUSH0 KECCAK256 SLOAD LT ISZERO PUSH2 0x8BC JUMPI PUSH0 PUSH1 0x1 PUSH0 CALLER PUSH20 0xFFFFFFFFFFFFFFFFFFFFFFFFFFFFFFFFFFFFFFFF AND PUSH20 0xFFFFFFFFFFFFFFFFFFFFFFFFFFFFFFFFFFFFFFFF AND DUP2 MSTORE PUSH1 0x20 ADD SWAP1 DUP2 MSTORE PUSH1 0x20 ADD PUSH0 KECCAK256 DUP2 SWAP1 SSTORE POP JUMPDEST POP JUMP JUMPDEST PUSH2 0x8C7 PUSH2 0xA5A JUMP JUMPDEST CALLER PUSH20 0xFFFFFFFFFFFFFFFFFFFFFFFFFFFFFFFFFFFFFFFF AND PUSH2 0x8FC SELFBALANCE SWAP1 DUP2 ISZERO MUL SWAP1 PUSH1 0x40 MLOAD PUSH0 PUSH1 0x40 MLOAD DUP1 DUP4 SUB DUP2 DUP6 DUP9 DUP9 CALL SWAP4 POP POP POP POP ISZERO DUP1 ISZERO PUSH2 0x90A JUMPI RETURNDATASIZE PUSH0 DUP1 RETURNDATACOPY RETURNDATASIZE PUSH0 REVERT JUMPDEST POP JUMP JUMPDEST PUSH2 0x915 PUSH2 0xA5A JUMP JUMPDEST DUP1 PUSH1 0x7 DUP2 SWAP1 SSTORE POP POP JUMP JUMPDEST PUSH1 0x3 PUSH1 0x20 MSTORE DUP1 PUSH0 MSTORE PUSH1 0x40 PUSH0 KECCAK256 PUSH0 SWAP2 POP SLOAD SWAP1 PUSH2 0x100 EXP SWAP1 DIV PUSH1 0xFF AND DUP2 JUMP JUMPDEST PUSH2 0x944 PUSH2 0xA5A JUMP JUMPDEST DUP1 PUSH1 0x5 DUP2 SWAP1 SSTORE POP POP JUMP JUMPDEST PUSH2 0x956 PUSH2 0xA5A JUMP JUMPDEST PUSH2 0x95F PUSH0 PUSH2 0xAE1 JUMP JUMPDEST JUMP JUMPDEST PUSH1 0x7 SLOAD DUP2 JUMP JUMPDEST PUSH0 DUP1 PUSH0 SWAP1 SLOAD SWAP1 PUSH2 0x100 EXP SWAP1 DIV PUSH20 0xFFFFFFFFFFFFFFFFFFFFFFFFFFFFFFFFFFFFFFFF AND SWAP1 POP SWAP1 JUMP JUMPDEST PUSH1 0x1 PUSH1 0x20 MSTORE DUP1 PUSH0 MSTORE PUSH1 0x40 PUSH0 KECCAK256 PUSH0 SWAP2 POP SWAP1 POP SLOAD DUP2 JUMP JUMPDEST PUSH1 0x2 DUP2 DUP1 MLOAD PUSH1 0x20 DUP2 ADD DUP3 ADD DUP1 MLOAD DUP5 DUP3 MSTORE PUSH1 0x20 DUP4 ADD PUSH1 0x20 DUP6 ADD KECCAK256 DUP2 DUP4 MSTORE DUP1 SWAP6 POP POP POP POP POP POP PUSH0 SWAP2 POP SWAP1 POP SLOAD DUP2 JUMP JUMPDEST PUSH1 0x4 SLOAD DUP2 JUMP JUMPDEST PUSH2 0x9DE PUSH2 0xA5A JUMP JUMPDEST PUSH0 PUSH20 0xFFFFFFFFFFFFFFFFFFFFFFFFFFFFFFFFFFFFFFFF AND DUP2 PUSH20 0xFFFFFFFFFFFFFFFFFFFFFFFFFFFFFFFFFFFFFFFF AND SUB PUSH2 0xA4E JUMPI PUSH0 PUSH1 0x40 MLOAD PUSH32 0x1E4FBDF700000000000000000000000000000000000000000000000000000000 DUP2 MSTORE PUSH1 0x4 ADD PUSH2 0xA45 SWAP2 SWAP1 PUSH2 0xDB3 JUMP JUMPDEST PUSH1 0x40 MLOAD DUP1 SWAP2 SUB SWAP1 REVERT JUMPDEST PUSH2 0xA57 DUP2 PUSH2 0xAE1 JUMP JUMPDEST POP JUMP JUMPDEST PUSH2 0xA62 PUSH2 0xBA2 JUMP JUMPDEST PUSH20 0xFFFFFFFFFFFFFFFFFFFFFFFFFFFFFFFFFFFFFFFF AND PUSH2 0xA80 PUSH2 0x967 JUMP JUMPDEST PUSH20 0xFFFFFFFFFFFFFFFFFFFFFFFFFFFFFFFFFFFFFFFF AND EQ PUSH2 0xADF JUMPI PUSH2 0xAA3 PUSH2 0xBA2 JUMP JUMPDEST PUSH1 0x40 MLOAD PUSH32 0x118CDAA700000000000000000000000000000000000000000000000000000000 DUP2 MSTORE PUSH1 0x4 ADD PUSH2 0xAD6 SWAP2 SWAP1 PUSH2 0xDB3 JUMP JUMPDEST PUSH1 0x40 MLOAD DUP1 SWAP2 SUB SWAP1 REVERT JUMPDEST JUMP JUMPDEST PUSH0 DUP1 PUSH0 SWAP1 SLOAD SWAP1 PUSH2 0x100 EXP SWAP1 DIV PUSH20 0xFFFFFFFFFFFFFFFFFFFFFFFFFFFFFFFFFFFFFFFF AND SWAP1 POP DUP2 PUSH0 DUP1 PUSH2 0x100 EXP DUP2 SLOAD DUP2 PUSH20 0xFFFFFFFFFFFFFFFFFFFFFFFFFFFFFFFFFFFFFFFF MUL NOT AND SWAP1 DUP4 PUSH20 0xFFFFFFFFFFFFFFFFFFFFFFFFFFFFFFFFFFFFFFFF AND MUL OR SWAP1 SSTORE POP DUP2 PUSH20 0xFFFFFFFFFFFFFFFFFFFFFFFFFFFFFFFFFFFFFFFF AND DUP2 PUSH20 0xFFFFFFFFFFFFFFFFFFFFFFFFFFFFFFFFFFFFFFFF AND PUSH32 0x8BE0079C531659141344CD1FD0A4F28419497F9722A3DAAFE3B4186F6B6457E0 PUSH1 0x40 MLOAD PUSH1 0x40 MLOAD DUP1 SWAP2 SUB SWAP1 LOG3 POP POP JUMP JUMPDEST PUSH0 CALLER SWAP1 POP SWAP1 JUMP JUMPDEST PUSH0 PUSH1 0x40 MLOAD SWAP1 POP SWAP1 JUMP JUMPDEST PUSH0 DUP1 REVERT JUMPDEST PUSH0 DUP1 REVERT JUMPDEST PUSH0 DUP2 SWAP1 POP SWAP2 SWAP1 POP JUMP JUMPDEST PUSH2 0xBCC DUP2 PUSH2 0xBBA JUMP JUMPDEST DUP2 EQ PUSH2 0xBD6 JUMPI PUSH0 DUP1 REVERT JUMPDEST POP JUMP JUMPDEST PUSH0 DUP2 CALLDATALOAD SWAP1 POP PUSH2 0xBE7 DUP2 PUSH2 0xBC3 JUMP JUMPDEST SWAP3 SWAP2 POP POP JUMP JUMPDEST PUSH0 PUSH1 0x20 DUP3 DUP5 SUB SLT ISZERO PUSH2 0xC02 JUMPI PUSH2 0xC01 PUSH2 0xBB2 JUMP JUMPDEST JUMPDEST PUSH0 PUSH2 0xC0F DUP5 DUP3 DUP6 ADD PUSH2 0xBD9 JUMP JUMPDEST SWAP2 POP POP SWAP3 SWAP2 POP POP JUMP JUMPDEST PUSH0 DUP1 REVERT JUMPDEST PUSH0 DUP1 REVERT JUMPDEST PUSH0 DUP1 REVERT JUMPDEST PUSH0 DUP1 DUP4 PUSH1 0x1F DUP5 ADD SLT PUSH2 0xC39 JUMPI PUSH2 0xC38 PUSH2 0xC18 JUMP JUMPDEST JUMPDEST DUP3 CALLDATALOAD SWAP1 POP PUSH8 0xFFFFFFFFFFFFFFFF DUP2 GT ISZERO PUSH2 0xC56 JUMPI PUSH2 0xC55 PUSH2 0xC1C JUMP JUMPDEST JUMPDEST PUSH1 0x20 DUP4 ADD SWAP2 POP DUP4 PUSH1 0x1 DUP3 MUL DUP4 ADD GT ISZERO PUSH2 0xC72 JUMPI PUSH2 0xC71 PUSH2 0xC20 JUMP JUMPDEST JUMPDEST SWAP3 POP SWAP3 SWAP1 POP JUMP JUMPDEST PUSH0 DUP1 PUSH1 0x20 DUP4 DUP6 SUB SLT ISZERO PUSH2 0xC8F JUMPI PUSH2 0xC8E PUSH2 0xBB2 JUMP JUMPDEST JUMPDEST PUSH0 DUP4 ADD CALLDATALOAD PUSH8 0xFFFFFFFFFFFFFFFF DUP2 GT ISZERO PUSH2 0xCAC JUMPI PUSH2 0xCAB PUSH2 0xBB6 JUMP JUMPDEST JUMPDEST PUSH2 0xCB8 DUP6 DUP3 DUP7 ADD PUSH2 0xC24 JUMP JUMPDEST SWAP3 POP SWAP3 POP POP SWAP3 POP SWAP3 SWAP1 POP JUMP JUMPDEST PUSH2 0xCCD DUP2 PUSH2 0xBBA JUMP JUMPDEST DUP3 MSTORE POP POP JUMP JUMPDEST PUSH0 PUSH1 0x20 DUP3 ADD SWAP1 POP PUSH2 0xCE6 PUSH0 DUP4 ADD DUP5 PUSH2 0xCC4 JUMP JUMPDEST SWAP3 SWAP2 POP POP JUMP JUMPDEST PUSH0 PUSH20 0xFFFFFFFFFFFFFFFFFFFFFFFFFFFFFFFFFFFFFFFF DUP3 AND SWAP1 POP SWAP2 SWAP1 POP JUMP JUMPDEST PUSH0 PUSH2 0xD15 DUP3 PUSH2 0xCEC JUMP JUMPDEST SWAP1 POP SWAP2 SWAP1 POP JUMP JUMPDEST PUSH2 0xD25 DUP2 PUSH2 0xD0B JUMP JUMPDEST DUP2 EQ PUSH2 0xD2F JUMPI PUSH0 DUP1 REVERT JUMPDEST POP JUMP JUMPDEST PUSH0 DUP2 CALLDATALOAD SWAP1 POP PUSH2 0xD40 DUP2 PUSH2 0xD1C JUMP JUMPDEST SWAP3 SWAP2 POP POP JUMP JUMPDEST PUSH0 PUSH1 0x20 DUP3 DUP5 SUB SLT ISZERO PUSH2 0xD5B JUMPI PUSH2 0xD5A PUSH2 0xBB2 JUMP JUMPDEST JUMPDEST PUSH0 PUSH2 0xD68 DUP5 DUP3 DUP6 ADD PUSH2 0xD32 JUMP JUMPDEST SWAP2 POP POP SWAP3 SWAP2 POP POP JUMP JUMPDEST PUSH0 DUP2 ISZERO ISZERO SWAP1 POP SWAP2 SWAP1 POP JUMP JUMPDEST PUSH2 0xD85 DUP2 PUSH2 0xD71 JUMP JUMPDEST DUP3 MSTORE POP POP JUMP JUMPDEST PUSH0 PUSH1 0x20 DUP3 ADD SWAP1 POP PUSH2 0xD9E PUSH0 DUP4 ADD DUP5 PUSH2 0xD7C JUMP JUMPDEST SWAP3 SWAP2 POP POP JUMP JUMPDEST PUSH2 0xDAD DUP2 PUSH2 0xD0B JUMP JUMPDEST DUP3 MSTORE POP POP JUMP JUMPDEST PUSH0 PUSH1 0x20 DUP3 ADD SWAP1 POP PUSH2 0xDC6 PUSH0 DUP4 ADD DUP5 PUSH2 0xDA4 JUMP JUMPDEST SWAP3 SWAP2 POP POP JUMP JUMPDEST PUSH0 DUP1 REVERT JUMPDEST PUSH0 PUSH1 0x1F NOT PUSH1 0x1F DUP4 ADD AND SWAP1 POP SWAP2 SWAP1 POP JUMP JUMPDEST PUSH32 0x4E487B7100000000000000000000000000000000000000000000000000000000 PUSH0 MSTORE PUSH1 0x41 PUSH1 0x4 MSTORE PUSH1 0x24 PUSH0 REVERT JUMPDEST PUSH2 0xE16 DUP3 PUSH2 0xDD0 JUMP JUMPDEST DUP2 ADD DUP2 DUP2 LT PUSH8 0xFFFFFFFFFFFFFFFF DUP3 GT OR ISZERO PUSH2 0xE35 JUMPI PUSH2 0xE34 PUSH2 0xDE0 JUMP JUMPDEST JUMPDEST DUP1 PUSH1 0x40 MSTORE POP POP POP JUMP JUMPDEST PUSH0 PUSH2 0xE47 PUSH2 0xBA9 JUMP JUMPDEST SWAP1 POP PUSH2 0xE53 DUP3 DUP3 PUSH2 0xE0D JUMP JUMPDEST SWAP2 SWAP1 POP JUMP JUMPDEST PUSH0 PUSH8 0xFFFFFFFFFFFFFFFF DUP3 GT ISZERO PUSH2 0xE72 JUMPI PUSH2 0xE71 PUSH2 0xDE0 JUMP JUMPDEST JUMPDEST PUSH2 0xE7B DUP3 PUSH2 0xDD0 JUMP JUMPDEST SWAP1 POP PUSH1 0x20 DUP2 ADD SWAP1 POP SWAP2 SWAP1 POP JUMP JUMPDEST DUP3 DUP2 DUP4 CALLDATACOPY PUSH0 DUP4 DUP4 ADD MSTORE POP POP POP JUMP JUMPDEST PUSH0 PUSH2 0xEA8 PUSH2 0xEA3 DUP5 PUSH2 0xE58 JUMP JUMPDEST PUSH2 0xE3E JUMP JUMPDEST SWAP1 POP DUP3 DUP2 MSTORE PUSH1 0x20 DUP2 ADD DUP5 DUP5 DUP5 ADD GT ISZERO PUSH2 0xEC4 JUMPI PUSH2 0xEC3 PUSH2 0xDCC JUMP JUMPDEST JUMPDEST PUSH2 0xECF DUP5 DUP3 DUP6 PUSH2 0xE88 JUMP JUMPDEST POP SWAP4 SWAP3 POP POP POP JUMP JUMPDEST PUSH0 DUP3 PUSH1 0x1F DUP4 ADD SLT PUSH2 0xEEB JUMPI PUSH2 0xEEA PUSH2 0xC18 JUMP JUMPDEST JUMPDEST DUP2 CALLDATALOAD PUSH2 0xEFB DUP5 DUP3 PUSH1 0x20 DUP7 ADD PUSH2 0xE96 JUMP JUMPDEST SWAP2 POP POP SWAP3 SWAP2 POP POP JUMP JUMPDEST PUSH0 PUSH1 0x20 DUP3 DUP5 SUB SLT ISZERO PUSH2 0xF19 JUMPI PUSH2 0xF18 PUSH2 0xBB2 JUMP JUMPDEST JUMPDEST PUSH0 DUP3 ADD CALLDATALOAD PUSH8 0xFFFFFFFFFFFFFFFF DUP2 GT ISZERO PUSH2 0xF36 JUMPI PUSH2 0xF35 PUSH2 0xBB6 JUMP JUMPDEST JUMPDEST PUSH2 0xF42 DUP5 DUP3 DUP6 ADD PUSH2 0xED7 JUMP JUMPDEST SWAP2 POP POP SWAP3 SWAP2 POP POP JUMP JUMPDEST PUSH0 DUP3 DUP3 MSTORE PUSH1 0x20 DUP3 ADD SWAP1 POP SWAP3 SWAP2 POP POP JUMP JUMPDEST PUSH32 0x54686520656E6400000000000000000000000000000000000000000000000000 PUSH0 DUP3 ADD MSTORE POP JUMP JUMPDEST PUSH0 PUSH2 0xF8F PUSH1 0x7 DUP4 PUSH2 0xF4B JUMP JUMPDEST SWAP2 POP PUSH2 0xF9A DUP3 PUSH2 0xF5B JUMP JUMPDEST PUSH1 0x20 DUP3 ADD SWAP1 POP SWAP2 SWAP1 POP JUMP JUMPDEST PUSH0 PUSH1 0x20 DUP3 ADD SWAP1 POP DUP2 DUP2 SUB PUSH0 DUP4 ADD MSTORE PUSH2 0xFBC DUP2 PUSH2 0xF83 JUMP JUMPDEST SWAP1 POP SWAP2 SWAP1 POP JUMP JUMPDEST PUSH32 0x4E6F742079657400000000000000000000000000000000000000000000000000 PUSH0 DUP3 ADD MSTORE POP JUMP JUMPDEST PUSH0 PUSH2 0xFF7 PUSH1 0x7 DUP4 PUSH2 0xF4B JUMP JUMPDEST SWAP2 POP PUSH2 0x1002 DUP3 PUSH2 0xFC3 JUMP JUMPDEST PUSH1 0x20 DUP3 ADD SWAP1 POP SWAP2 SWAP1 POP JUMP JUMPDEST PUSH0 PUSH1 0x20 DUP3 ADD SWAP1 POP DUP2 DUP2 SUB PUSH0 DUP4 ADD MSTORE PUSH2 0x1024 DUP2 PUSH2 0xFEB JUMP JUMPDEST SWAP1 POP SWAP2 SWAP1 POP JUMP JUMPDEST PUSH32 0x4E487B7100000000000000000000000000000000000000000000000000000000 PUSH0 MSTORE PUSH1 0x12 PUSH1 0x4 MSTORE PUSH1 0x24 PUSH0 REVERT JUMPDEST PUSH32 0x4E487B7100000000000000000000000000000000000000000000000000000000 PUSH0 MSTORE PUSH1 0x11 PUSH1 0x4 MSTORE PUSH1 0x24 PUSH0 REVERT JUMPDEST PUSH0 PUSH2 0x108F DUP3 PUSH2 0xBBA JUMP JUMPDEST SWAP2 POP PUSH2 0x109A DUP4 PUSH2 0xBBA JUMP JUMPDEST SWAP3 POP DUP3 PUSH2 0x10AA JUMPI PUSH2 0x10A9 PUSH2 0x102B JUMP JUMPDEST JUMPDEST DUP3 DUP3 DIV SWAP1 POP SWAP3 SWAP2 POP POP JUMP JUMPDEST PUSH0 PUSH2 0x10BF DUP3 PUSH2 0xBBA JUMP JUMPDEST SWAP2 POP PUSH32 0xFFFFFFFFFFFFFFFFFFFFFFFFFFFFFFFFFFFFFFFFFFFFFFFFFFFFFFFFFFFFFFFF DUP3 SUB PUSH2 0x10F1 JUMPI PUSH2 0x10F0 PUSH2 0x1058 JUMP JUMPDEST JUMPDEST PUSH1 0x1 DUP3 ADD SWAP1 POP SWAP2 SWAP1 POP JUMP JUMPDEST PUSH0 PUSH2 0x1106 DUP3 PUSH2 0xBBA JUMP JUMPDEST SWAP2 POP PUSH2 0x1111 DUP4 PUSH2 0xBBA JUMP JUMPDEST SWAP3 POP DUP3 DUP3 MUL PUSH2 0x111F DUP2 PUSH2 0xBBA JUMP JUMPDEST SWAP2 POP DUP3 DUP3 DIV DUP5 EQ DUP4 ISZERO OR PUSH2 0x1136 JUMPI PUSH2 0x1135 PUSH2 0x1058 JUMP JUMPDEST JUMPDEST POP SWAP3 SWAP2 POP POP JUMP JUMPDEST PUSH0 PUSH2 0x1147 DUP3 PUSH2 0xBBA JUMP JUMPDEST SWAP2 POP PUSH2 0x1152 DUP4 PUSH2 0xBBA JUMP JUMPDEST SWAP3 POP DUP3 DUP3 SUB SWAP1 POP DUP2 DUP2 GT ISZERO PUSH2 0x116A JUMPI PUSH2 0x1169 PUSH2 0x1058 JUMP JUMPDEST JUMPDEST SWAP3 SWAP2 POP POP JUMP JUMPDEST PUSH0 DUP2 SWAP1 POP SWAP3 SWAP2 POP POP JUMP JUMPDEST PUSH0 PUSH2 0x1185 DUP4 DUP6 PUSH2 0x1170 JUMP JUMPDEST SWAP4 POP PUSH2 0x1192 DUP4 DUP6 DUP5 PUSH2 0xE88 JUMP JUMPDEST DUP3 DUP5 ADD SWAP1 POP SWAP4 SWAP3 POP POP POP JUMP JUMPDEST PUSH0 PUSH2 0x11AA DUP3 DUP5 DUP7 PUSH2 0x117A JUMP JUMPDEST SWAP2 POP DUP2 SWAP1 POP SWAP4 SWAP3 POP POP POP JUMP JUMPDEST PUSH32 0x73747564656E7420616C72656164792065786973747300000000000000000000 PUSH0 DUP3 ADD MSTORE POP JUMP JUMPDEST PUSH0 PUSH2 0x11EA PUSH1 0x16 DUP4 PUSH2 0xF4B JUMP JUMPDEST SWAP2 POP PUSH2 0x11F5 DUP3 PUSH2 0x11B6 JUMP JUMPDEST PUSH1 0x20 DUP3 ADD SWAP1 POP SWAP2 SWAP1 POP JUMP JUMPDEST PUSH0 PUSH1 0x20 DUP3 ADD SWAP1 POP DUP2 DUP2 SUB PUSH0 DUP4 ADD MSTORE PUSH2 0x1217 DUP2 PUSH2 0x11DE JUMP JUMPDEST SWAP1 POP SWAP2 SWAP1 POP JUMP JUMPDEST PUSH32 0x616C726561647920677261646564000000000000000000000000000000000000 PUSH0 DUP3 ADD MSTORE POP JUMP JUMPDEST PUSH0 PUSH2 0x1252 PUSH1 0xE DUP4 PUSH2 0xF4B JUMP JUMPDEST SWAP2 POP PUSH2 0x125D DUP3 PUSH2 0x121E JUMP JUMPDEST PUSH1 0x20 DUP3 ADD SWAP1 POP SWAP2 SWAP1 POP JUMP JUMPDEST PUSH0 PUSH1 0x20 DUP3 ADD SWAP1 POP DUP2 DUP2 SUB PUSH0 DUP4 ADD MSTORE PUSH2 0x127F DUP2 PUSH2 0x1246 JUMP JUMPDEST SWAP1 POP SWAP2 SWAP1 POP JUMP JUMPDEST PUSH32 0x6E6F7420656E6F756768206D6F6E657900000000000000000000000000000000 PUSH0 DUP3 ADD MSTORE POP JUMP JUMPDEST PUSH0 PUSH2 0x12BA PUSH1 0x10 DUP4 PUSH2 0xF4B JUMP JUMPDEST SWAP2 POP PUSH2 0x12C5 DUP3 PUSH2 0x1286 JUMP JUMPDEST PUSH1 0x20 DUP3 ADD SWAP1 POP SWAP2 SWAP1 POP JUMP JUMPDEST PUSH0 PUSH1 0x20 DUP3 ADD SWAP1 POP DUP2 DUP2 SUB PUSH0 DUP4 ADD MSTORE PUSH2 0x12E7 DUP2 PUSH2 0x12AE JUMP JUMPDEST SWAP1 POP SWAP2 SWAP1 POP JUMP JUMPDEST PUSH0 DUP2 SWAP1 POP SWAP3 SWAP2 POP POP JUMP JUMPDEST POP JUMP JUMPDEST PUSH0 PUSH2 0x1306 PUSH0 DUP4 PUSH2 0x12EE JUMP JUMPDEST SWAP2 POP PUSH2 0x1311 DUP3 PUSH2 0x12F8 JUMP JUMPDEST PUSH0 DUP3 ADD SWAP1 POP SWAP2 SWAP1 POP JUMP JUMPDEST PUSH0 PUSH2 0x1325 DUP3 PUSH2 0x12FB JUMP JUMPDEST SWAP2 POP DUP2 SWAP1 POP SWAP2 SWAP1 POP JUMP JUMPDEST PUSH32 0x4661696C656420746F2073656E64204574686572000000000000000000000000 PUSH0 DUP3 ADD MSTORE POP JUMP JUMPDEST PUSH0 PUSH2 0x1363 PUSH1 0x14 DUP4 PUSH2 0xF4B JUMP JUMPDEST SWAP2 POP PUSH2 0x136E DUP3 PUSH2 0x132F JUMP JUMPDEST PUSH1 0x20 DUP3 ADD SWAP1 POP SWAP2 SWAP1 POP JUMP JUMPDEST PUSH0 PUSH1 0x20 DUP3 ADD SWAP1 POP DUP2 DUP2 SUB PUSH0 DUP4 ADD MSTORE PUSH2 0x1390 DUP2 PUSH2 0x1357 JUMP JUMPDEST SWAP1 POP SWAP2 SWAP1 POP JUMP INVALID LOG2 PUSH5 0x6970667358 0x22 SLT KECCAK256 EQ DUP12 0xC5 0xE5 SSTORE PREVRANDAO PUSH25 0x25C4A1F01EC7E52E058DB5D19F27CCF5E204FC84EA2B0A5033 PUSH5 0x736F6C6343 STOP ADDMOD BYTE STOP CALLER "
				},
				"gasEstimates": {
					"creation": {
						"codeDepositCost": "1013800",
						"executionCost": "infinite",
						"totalCost": "infinite"
					},
					"external": {
						"counter(address)": "2846",
						"deadline()": "2448",
						"divisor()": "2515",
						"gradeMe(string)": "infinite",
						"isGraded(address)": "2856",
						"owner()": "2537",
						"renounceOwnership()": "infinite",
						"retrieve()": "infinite",
						"setDeadline(uint256)": "infinite",
						"setDivisor(uint256)": "infinite",
						"setStartTime(uint256)": "infinite",
						"setStudentCounter(uint256)": "infinite",
						"startTime()": "2514",
						"studentCounter()": "2513",
						"students(string)": "infinite",
						"transferOwnership(address)": "infinite",
						"withdraw()": "infinite"
					}
				},
				"methodIdentifiers": {
					"counter(address)": "c12327b8",
					"deadline()": "29dcb0cf",
					"divisor()": "1f2dc5ef",
					"gradeMe(string)": "1d86b167",
					"isGraded(address)": "62844fe0",
					"owner()": "8da5cb5b",
					"renounceOwnership()": "715018a6",
					"retrieve()": "2e64cec1",
					"setDeadline(uint256)": "195199f6",
					"setDivisor(uint256)": "709f5ccc",
					"setStartTime(uint256)": "3e0a322d",
					"setStudentCounter(uint256)": "16d6ecb0",
					"startTime()": "78e97925",
					"studentCounter()": "e3596cac",
					"students(string)": "c7ef6bfb",
					"transferOwnership(address)": "f2fde38b",
					"withdraw()": "3ccfd60b"
				}
			},
			"storageLayout": {
				"storage": [
					{
						"astId": 8,
						"contract": "contracts/tp4/GradeMe.sol:Grader5",
						"label": "_owner",
						"offset": 0,
						"slot": "0",
						"type": "t_address"
					},
					{
						"astId": 187,
						"contract": "contracts/tp4/GradeMe.sol:Grader5",
						"label": "counter",
						"offset": 0,
						"slot": "1",
						"type": "t_mapping(t_address,t_uint256)"
					},
					{
						"astId": 191,
						"contract": "contracts/tp4/GradeMe.sol:Grader5",
						"label": "students",
						"offset": 0,
						"slot": "2",
						"type": "t_mapping(t_string_memory_ptr,t_uint256)"
					},
					{
						"astId": 195,
						"contract": "contracts/tp4/GradeMe.sol:Grader5",
						"label": "isGraded",
						"offset": 0,
						"slot": "3",
						"type": "t_mapping(t_address,t_bool)"
					},
					{
						"astId": 197,
						"contract": "contracts/tp4/GradeMe.sol:Grader5",
						"label": "studentCounter",
						"offset": 0,
						"slot": "4",
						"type": "t_uint256"
					},
					{
						"astId": 200,
						"contract": "contracts/tp4/GradeMe.sol:Grader5",
						"label": "divisor",
						"offset": 0,
						"slot": "5",
						"type": "t_uint256"
					},
					{
						"astId": 203,
						"contract": "contracts/tp4/GradeMe.sol:Grader5",
						"label": "deadline",
						"offset": 0,
						"slot": "6",
						"type": "t_uint256"
					},
					{
						"astId": 206,
						"contract": "contracts/tp4/GradeMe.sol:Grader5",
						"label": "startTime",
						"offset": 0,
						"slot": "7",
						"type": "t_uint256"
					}
				],
				"types": {
					"t_address": {
						"encoding": "inplace",
						"label": "address",
						"numberOfBytes": "20"
					},
					"t_bool": {
						"encoding": "inplace",
						"label": "bool",
						"numberOfBytes": "1"
					},
					"t_mapping(t_address,t_bool)": {
						"encoding": "mapping",
						"key": "t_address",
						"label": "mapping(address => bool)",
						"numberOfBytes": "32",
						"value": "t_bool"
					},
					"t_mapping(t_address,t_uint256)": {
						"encoding": "mapping",
						"key": "t_address",
						"label": "mapping(address => uint256)",
						"numberOfBytes": "32",
						"value": "t_uint256"
					},
					"t_mapping(t_string_memory_ptr,t_uint256)": {
						"encoding": "mapping",
						"key": "t_string_memory_ptr",
						"label": "mapping(string => uint256)",
						"numberOfBytes": "32",
						"value": "t_uint256"
					},
					"t_string_memory_ptr": {
						"encoding": "bytes",
						"label": "string",
						"numberOfBytes": "32"
					},
					"t_uint256": {
						"encoding": "inplace",
						"label": "uint256",
						"numberOfBytes": "32"
					}
				}
			},
			"userdoc": {
				"kind": "user",
				"methods": {},
				"version": 1
			}
		}
	}
}