{
	"contracts/tp4/HackMe.sol": {
		"HackMe": {
			"abi": [
				{
					"inputs": [
						{
							"internalType": "address",
							"name": "_gradeMeSC",
							"type": "address"
						}
					],
					"stateMutability": "payable",
					"type": "constructor"
				},
				{
					"anonymous": false,
					"inputs": [
						{
							"indexed": false,
							"internalType": "address",
							"name": "sender",
							"type": "address"
						},
						{
							"indexed": false,
							"internalType": "uint256",
							"name": "amount",
							"type": "uint256"
						}
					],
					"name": "Received",
					"type": "event"
				},
				{
					"inputs": [],
					"name": "counter",
					"outputs": [
						{
							"internalType": "uint256",
							"name": "",
							"type": "uint256"
						}
					],
					"stateMutability": "view",
					"type": "function"
				},
				{
					"inputs": [],
					"name": "hack",
					"outputs": [],
					"stateMutability": "nonpayable",
					"type": "function"
				},
				{
					"stateMutability": "payable",
					"type": "receive"
				}
			],
			"devdoc": {
				"kind": "dev",
				"methods": {},
				"version": 1
			},
			"evm": {
				"assembly": "    /* \"contracts/tp4/HackMe.sol\":88:754  contract HackMe {... */\n  mstore(0x40, 0x80)\n    /* \"contracts/tp4/HackMe.sol\":173:285  constructor(address _gradeMeSC) payable {... */\n  mload(0x40)\n  sub(codesize, bytecodeSize)\n  dup1\n  bytecodeSize\n  dup4\n  codecopy\n  dup2\n  dup2\n  add\n  0x40\n  mstore\n  dup2\n  add\n  swap1\n  tag_1\n  swap2\n  swap1\n  tag_2\n  jump\t// in\ntag_1:\n    /* \"contracts/tp4/HackMe.sol\":244:254  _gradeMeSC */\n  dup1\n    /* \"contracts/tp4/HackMe.sol\":224:233  gradeMeSC */\n  0x00\n  dup1\n    /* \"contracts/tp4/HackMe.sol\":224:255  gradeMeSC = Grader5(_gradeMeSC) */\n  0x0100\n  exp\n  dup2\n  sload\n  dup2\n  0xffffffffffffffffffffffffffffffffffffffff\n  mul\n  not\n  and\n  swap1\n  dup4\n  0xffffffffffffffffffffffffffffffffffffffff\n  and\n  mul\n  or\n  swap1\n  sstore\n  pop\n    /* \"contracts/tp4/HackMe.sol\":276:277  0 */\n  0x00\n    /* \"contracts/tp4/HackMe.sol\":266:273  counter */\n  0x01\n    /* \"contracts/tp4/HackMe.sol\":266:277  counter = 0 */\n  dup2\n  swap1\n  sstore\n  pop\n    /* \"contracts/tp4/HackMe.sol\":173:285  constructor(address _gradeMeSC) payable {... */\n  pop\n    /* \"contracts/tp4/HackMe.sol\":88:754  contract HackMe {... */\n  jump(tag_5)\n    /* \"#utility.yul\":88:205   */\ntag_7:\n    /* \"#utility.yul\":197:198   */\n  0x00\n    /* \"#utility.yul\":194:195   */\n  dup1\n    /* \"#utility.yul\":187:199   */\n  revert\n    /* \"#utility.yul\":334:460   */\ntag_9:\n    /* \"#utility.yul\":371:378   */\n  0x00\n    /* \"#utility.yul\":411:453   */\n  0xffffffffffffffffffffffffffffffffffffffff\n    /* \"#utility.yul\":404:409   */\n  dup3\n    /* \"#utility.yul\":400:454   */\n  and\n    /* \"#utility.yul\":389:454   */\n  swap1\n  pop\n    /* \"#utility.yul\":334:460   */\n  swap2\n  swap1\n  pop\n  jump\t// out\n    /* \"#utility.yul\":466:562   */\ntag_10:\n    /* \"#utility.yul\":503:510   */\n  0x00\n    /* \"#utility.yul\":532:556   */\n  tag_19\n    /* \"#utility.yul\":550:555   */\n  dup3\n    /* \"#utility.yul\":532:556   */\n  tag_9\n  jump\t// in\ntag_19:\n    /* \"#utility.yul\":521:556   */\n  swap1\n  pop\n    /* \"#utility.yul\":466:562   */\n  swap2\n  swap1\n  pop\n  jump\t// out\n    /* \"#utility.yul\":568:690   */\ntag_11:\n    /* \"#utility.yul\":641:665   */\n  tag_21\n    /* \"#utility.yul\":659:664   */\n  dup2\n    /* \"#utility.yul\":641:665   */\n  tag_10\n  jump\t// in\ntag_21:\n    /* \"#utility.yul\":634:639   */\n  dup2\n    /* \"#utility.yul\":631:666   */\n  eq\n    /* \"#utility.yul\":621:684   */\n  tag_22\n  jumpi\n    /* \"#utility.yul\":680:681   */\n  0x00\n    /* \"#utility.yul\":677:678   */\n  dup1\n    /* \"#utility.yul\":670:682   */\n  revert\n    /* \"#utility.yul\":621:684   */\ntag_22:\n    /* \"#utility.yul\":568:690   */\n  pop\n  jump\t// out\n    /* \"#utility.yul\":696:839   */\ntag_12:\n    /* \"#utility.yul\":753:758   */\n  0x00\n    /* \"#utility.yul\":784:790   */\n  dup2\n    /* \"#utility.yul\":778:791   */\n  mload\n    /* \"#utility.yul\":769:791   */\n  swap1\n  pop\n    /* \"#utility.yul\":800:833   */\n  tag_24\n    /* \"#utility.yul\":827:832   */\n  dup2\n    /* \"#utility.yul\":800:833   */\n  tag_11\n  jump\t// in\ntag_24:\n    /* \"#utility.yul\":696:839   */\n  swap3\n  swap2\n  pop\n  pop\n  jump\t// out\n    /* \"#utility.yul\":845:1196   */\ntag_2:\n    /* \"#utility.yul\":915:921   */\n  0x00\n    /* \"#utility.yul\":964:966   */\n  0x20\n    /* \"#utility.yul\":952:961   */\n  dup3\n    /* \"#utility.yul\":943:950   */\n  dup5\n    /* \"#utility.yul\":939:962   */\n  sub\n    /* \"#utility.yul\":935:967   */\n  slt\n    /* \"#utility.yul\":932:1051   */\n  iszero\n  tag_26\n  jumpi\n    /* \"#utility.yul\":970:1049   */\n  tag_27\n  tag_7\n  jump\t// in\ntag_27:\n    /* \"#utility.yul\":932:1051   */\ntag_26:\n    /* \"#utility.yul\":1090:1091   */\n  0x00\n    /* \"#utility.yul\":1115:1179   */\n  tag_28\n    /* \"#utility.yul\":1171:1178   */\n  dup5\n    /* \"#utility.yul\":1162:1168   */\n  dup3\n    /* \"#utility.yul\":1151:1160   */\n  dup6\n    /* \"#utility.yul\":1147:1169   */\n  add\n    /* \"#utility.yul\":1115:1179   */\n  tag_12\n  jump\t// in\ntag_28:\n    /* \"#utility.yul\":1105:1179   */\n  swap2\n  pop\n    /* \"#utility.yul\":1061:1189   */\n  pop\n    /* \"#utility.yul\":845:1196   */\n  swap3\n  swap2\n  pop\n  pop\n  jump\t// out\n    /* \"contracts/tp4/HackMe.sol\":88:754  contract HackMe {... */\ntag_5:\n  dataSize(sub_0)\n  dup1\n  dataOffset(sub_0)\n  0x00\n  codecopy\n  0x00\n  return\nstop\n\nsub_0: assembly {\n        /* \"contracts/tp4/HackMe.sol\":88:754  contract HackMe {... */\n      mstore(0x40, 0x80)\n      jumpi(tag_1, lt(calldatasize, 0x04))\n      shr(0xe0, calldataload(0x00))\n      dup1\n      0x4de260a2\n      eq\n      tag_3\n      jumpi\n      dup1\n      0x61bc221a\n      eq\n      tag_4\n      jumpi\n      jump(tag_2)\n    tag_1:\n      jumpi(tag_2, calldatasize)\n        /* \"contracts/tp4/HackMe.sol\":388:419  Received(msg.sender, msg.value) */\n      0x88a5966d370b9919b20f3e2c13ff65706f196a4e32cc2c12bf57088f88525874\n        /* \"contracts/tp4/HackMe.sol\":397:407  msg.sender */\n      caller\n        /* \"contracts/tp4/HackMe.sol\":409:418  msg.value */\n      callvalue\n        /* \"contracts/tp4/HackMe.sol\":388:419  Received(msg.sender, msg.value) */\n      mload(0x40)\n      tag_7\n      swap3\n      swap2\n      swap1\n      tag_8\n      jump\t// in\n    tag_7:\n      mload(0x40)\n      dup1\n      swap2\n      sub\n      swap1\n      log1\n        /* \"contracts/tp4/HackMe.sol\":443:444  1 */\n      0x01\n        /* \"contracts/tp4/HackMe.sol\":433:440  counter */\n      dup1\n      sload\n        /* \"contracts/tp4/HackMe.sol\":433:444  counter < 1 */\n      lt\n        /* \"contracts/tp4/HackMe.sol\":430:527  if(counter < 1) {... */\n      iszero\n      tag_9\n      jumpi\n        /* \"contracts/tp4/HackMe.sol\":461:470  gradeMeSC */\n      0x00\n      dup1\n      sload\n      swap1\n      0x0100\n      exp\n      swap1\n      div\n      0xffffffffffffffffffffffffffffffffffffffff\n      and\n        /* \"contracts/tp4/HackMe.sol\":461:479  gradeMeSC.retrieve */\n      0xffffffffffffffffffffffffffffffffffffffff\n      and\n      0x2e64cec1\n        /* \"contracts/tp4/HackMe.sol\":487:488  4 */\n      0x04\n        /* \"contracts/tp4/HackMe.sol\":461:491  gradeMeSC.retrieve{value: 4}() */\n      mload(0x40)\n      dup3\n      0xffffffff\n      and\n      0xe0\n      shl\n      dup2\n      mstore\n      0x04\n      add\n      0x00\n      mload(0x40)\n      dup1\n      dup4\n      sub\n      dup2\n      dup6\n      dup9\n      dup1\n      extcodesize\n      iszero\n      dup1\n      iszero\n      tag_10\n      jumpi\n      0x00\n      dup1\n      revert\n    tag_10:\n      pop\n      gas\n      call\n      iszero\n      dup1\n      iszero\n      tag_12\n      jumpi\n      returndatasize\n      0x00\n      dup1\n      returndatacopy\n      revert(0x00, returndatasize)\n    tag_12:\n      pop\n      pop\n      pop\n      pop\n      pop\n        /* \"contracts/tp4/HackMe.sol\":508:515  counter */\n      0x01\n      0x00\n        /* \"contracts/tp4/HackMe.sol\":506:515  ++counter */\n      dup2\n      sload\n      tag_13\n      swap1\n      tag_14\n      jump\t// in\n    tag_13:\n      swap2\n      swap1\n      pop\n      dup2\n      swap1\n      sstore\n      pop\n        /* \"contracts/tp4/HackMe.sol\":430:527  if(counter < 1) {... */\n    tag_9:\n        /* \"contracts/tp4/HackMe.sol\":537:546  gradeMeSC */\n      0x00\n      dup1\n      sload\n      swap1\n      0x0100\n      exp\n      swap1\n      div\n      0xffffffffffffffffffffffffffffffffffffffff\n      and\n        /* \"contracts/tp4/HackMe.sol\":537:554  gradeMeSC.gradeMe */\n      0xffffffffffffffffffffffffffffffffffffffff\n      and\n      0x1d86b167\n        /* \"contracts/tp4/HackMe.sol\":537:573  gradeMeSC.gradeMe(\"Cristian Alinez\") */\n      mload(0x40)\n      dup2\n      0xffffffff\n      and\n      0xe0\n      shl\n      dup2\n      mstore\n      0x04\n      add\n      tag_15\n      swap1\n      tag_16\n      jump\t// in\n    tag_15:\n      0x00\n      mload(0x40)\n      dup1\n      dup4\n      sub\n      dup2\n      0x00\n      dup8\n      dup1\n      extcodesize\n      iszero\n      dup1\n      iszero\n      tag_17\n      jumpi\n      0x00\n      dup1\n      revert\n    tag_17:\n      pop\n      gas\n      call\n      iszero\n      dup1\n      iszero\n      tag_19\n      jumpi\n      returndatasize\n      0x00\n      dup1\n      returndatacopy\n      revert(0x00, returndatasize)\n    tag_19:\n      stop\n        /* \"contracts/tp4/HackMe.sol\":88:754  contract HackMe {... */\n    tag_2:\n      0x00\n      dup1\n      revert\n        /* \"contracts/tp4/HackMe.sol\":589:743  function hack() external {... */\n    tag_3:\n      callvalue\n      dup1\n      iszero\n      tag_20\n      jumpi\n      0x00\n      dup1\n      revert\n    tag_20:\n      pop\n      tag_21\n      tag_22\n      jump\t// in\n    tag_21:\n      stop\n        /* \"contracts/tp4/HackMe.sol\":145:164  uint public counter */\n    tag_4:\n      callvalue\n      dup1\n      iszero\n      tag_23\n      jumpi\n      0x00\n      dup1\n      revert\n    tag_23:\n      pop\n      tag_24\n      tag_25\n      jump\t// in\n    tag_24:\n      mload(0x40)\n      tag_26\n      swap2\n      swap1\n      tag_27\n      jump\t// in\n    tag_26:\n      mload(0x40)\n      dup1\n      swap2\n      sub\n      swap1\n      return\n        /* \"contracts/tp4/HackMe.sol\":589:743  function hack() external {... */\n    tag_22:\n        /* \"contracts/tp4/HackMe.sol\":638:639  1 */\n      0x01\n        /* \"contracts/tp4/HackMe.sol\":628:635  counter */\n      dup1\n      sload\n        /* \"contracts/tp4/HackMe.sol\":628:639  counter < 1 */\n      lt\n        /* \"contracts/tp4/HackMe.sol\":625:698  if(counter < 1) {... */\n      iszero\n      tag_29\n      jumpi\n        /* \"contracts/tp4/HackMe.sol\":656:665  gradeMeSC */\n      0x00\n      dup1\n      sload\n      swap1\n      0x0100\n      exp\n      swap1\n      div\n      0xffffffffffffffffffffffffffffffffffffffff\n      and\n        /* \"contracts/tp4/HackMe.sol\":656:674  gradeMeSC.retrieve */\n      0xffffffffffffffffffffffffffffffffffffffff\n      and\n      0x2e64cec1\n        /* \"contracts/tp4/HackMe.sol\":682:683  4 */\n      0x04\n        /* \"contracts/tp4/HackMe.sol\":656:686  gradeMeSC.retrieve{value: 4}() */\n      mload(0x40)\n      dup3\n      0xffffffff\n      and\n      0xe0\n      shl\n      dup2\n      mstore\n      0x04\n      add\n      0x00\n      mload(0x40)\n      dup1\n      dup4\n      sub\n      dup2\n      dup6\n      dup9\n      dup1\n      extcodesize\n      iszero\n      dup1\n      iszero\n      tag_30\n      jumpi\n      0x00\n      dup1\n      revert\n    tag_30:\n      pop\n      gas\n      call\n      iszero\n      dup1\n      iszero\n      tag_32\n      jumpi\n      returndatasize\n      0x00\n      dup1\n      returndatacopy\n      revert(0x00, returndatasize)\n    tag_32:\n      pop\n      pop\n      pop\n      pop\n      pop\n        /* \"contracts/tp4/HackMe.sol\":625:698  if(counter < 1) {... */\n    tag_29:\n        /* \"contracts/tp4/HackMe.sol\":708:717  gradeMeSC */\n      0x00\n      dup1\n      sload\n      swap1\n      0x0100\n      exp\n      swap1\n      div\n      0xffffffffffffffffffffffffffffffffffffffff\n      and\n        /* \"contracts/tp4/HackMe.sol\":708:725  gradeMeSC.gradeMe */\n      0xffffffffffffffffffffffffffffffffffffffff\n      and\n      0x1d86b167\n        /* \"contracts/tp4/HackMe.sol\":708:735  gradeMeSC.gradeMe(\"Alinez\") */\n      mload(0x40)\n      dup2\n      0xffffffff\n      and\n      0xe0\n      shl\n      dup2\n      mstore\n      0x04\n      add\n      tag_33\n      swap1\n      tag_34\n      jump\t// in\n    tag_33:\n      0x00\n      mload(0x40)\n      dup1\n      dup4\n      sub\n      dup2\n      0x00\n      dup8\n      dup1\n      extcodesize\n      iszero\n      dup1\n      iszero\n      tag_35\n      jumpi\n      0x00\n      dup1\n      revert\n    tag_35:\n      pop\n      gas\n      call\n      iszero\n      dup1\n      iszero\n      tag_37\n      jumpi\n      returndatasize\n      0x00\n      dup1\n      returndatacopy\n      revert(0x00, returndatasize)\n    tag_37:\n      pop\n      pop\n      pop\n      pop\n        /* \"contracts/tp4/HackMe.sol\":589:743  function hack() external {... */\n      jump\t// out\n        /* \"contracts/tp4/HackMe.sol\":145:164  uint public counter */\n    tag_25:\n      sload(0x01)\n      dup2\n      jump\t// out\n        /* \"#utility.yul\":7:133   */\n    tag_38:\n        /* \"#utility.yul\":44:51   */\n      0x00\n        /* \"#utility.yul\":84:126   */\n      0xffffffffffffffffffffffffffffffffffffffff\n        /* \"#utility.yul\":77:82   */\n      dup3\n        /* \"#utility.yul\":73:127   */\n      and\n        /* \"#utility.yul\":62:127   */\n      swap1\n      pop\n        /* \"#utility.yul\":7:133   */\n      swap2\n      swap1\n      pop\n      jump\t// out\n        /* \"#utility.yul\":139:235   */\n    tag_39:\n        /* \"#utility.yul\":176:183   */\n      0x00\n        /* \"#utility.yul\":205:229   */\n      tag_52\n        /* \"#utility.yul\":223:228   */\n      dup3\n        /* \"#utility.yul\":205:229   */\n      tag_38\n      jump\t// in\n    tag_52:\n        /* \"#utility.yul\":194:229   */\n      swap1\n      pop\n        /* \"#utility.yul\":139:235   */\n      swap2\n      swap1\n      pop\n      jump\t// out\n        /* \"#utility.yul\":241:359   */\n    tag_40:\n        /* \"#utility.yul\":328:352   */\n      tag_54\n        /* \"#utility.yul\":346:351   */\n      dup2\n        /* \"#utility.yul\":328:352   */\n      tag_39\n      jump\t// in\n    tag_54:\n        /* \"#utility.yul\":323:326   */\n      dup3\n        /* \"#utility.yul\":316:353   */\n      mstore\n        /* \"#utility.yul\":241:359   */\n      pop\n      pop\n      jump\t// out\n        /* \"#utility.yul\":365:442   */\n    tag_41:\n        /* \"#utility.yul\":402:409   */\n      0x00\n        /* \"#utility.yul\":431:436   */\n      dup2\n        /* \"#utility.yul\":420:436   */\n      swap1\n      pop\n        /* \"#utility.yul\":365:442   */\n      swap2\n      swap1\n      pop\n      jump\t// out\n        /* \"#utility.yul\":448:566   */\n    tag_42:\n        /* \"#utility.yul\":535:559   */\n      tag_57\n        /* \"#utility.yul\":553:558   */\n      dup2\n        /* \"#utility.yul\":535:559   */\n      tag_41\n      jump\t// in\n    tag_57:\n        /* \"#utility.yul\":530:533   */\n      dup3\n        /* \"#utility.yul\":523:560   */\n      mstore\n        /* \"#utility.yul\":448:566   */\n      pop\n      pop\n      jump\t// out\n        /* \"#utility.yul\":572:904   */\n    tag_8:\n        /* \"#utility.yul\":693:697   */\n      0x00\n        /* \"#utility.yul\":731:733   */\n      0x40\n        /* \"#utility.yul\":720:729   */\n      dup3\n        /* \"#utility.yul\":716:734   */\n      add\n        /* \"#utility.yul\":708:734   */\n      swap1\n      pop\n        /* \"#utility.yul\":744:815   */\n      tag_59\n        /* \"#utility.yul\":812:813   */\n      0x00\n        /* \"#utility.yul\":801:810   */\n      dup4\n        /* \"#utility.yul\":797:814   */\n      add\n        /* \"#utility.yul\":788:794   */\n      dup6\n        /* \"#utility.yul\":744:815   */\n      tag_40\n      jump\t// in\n    tag_59:\n        /* \"#utility.yul\":825:897   */\n      tag_60\n        /* \"#utility.yul\":893:895   */\n      0x20\n        /* \"#utility.yul\":882:891   */\n      dup4\n        /* \"#utility.yul\":878:896   */\n      add\n        /* \"#utility.yul\":869:875   */\n      dup5\n        /* \"#utility.yul\":825:897   */\n      tag_42\n      jump\t// in\n    tag_60:\n        /* \"#utility.yul\":572:904   */\n      swap4\n      swap3\n      pop\n      pop\n      pop\n      jump\t// out\n        /* \"#utility.yul\":910:1090   */\n    tag_43:\n        /* \"#utility.yul\":958:1035   */\n      0x4e487b7100000000000000000000000000000000000000000000000000000000\n        /* \"#utility.yul\":955:956   */\n      0x00\n        /* \"#utility.yul\":948:1036   */\n      mstore\n        /* \"#utility.yul\":1055:1059   */\n      0x11\n        /* \"#utility.yul\":1052:1053   */\n      0x04\n        /* \"#utility.yul\":1045:1060   */\n      mstore\n        /* \"#utility.yul\":1079:1083   */\n      0x24\n        /* \"#utility.yul\":1076:1077   */\n      0x00\n        /* \"#utility.yul\":1069:1084   */\n      revert\n        /* \"#utility.yul\":1096:1329   */\n    tag_14:\n        /* \"#utility.yul\":1135:1138   */\n      0x00\n        /* \"#utility.yul\":1158:1182   */\n      tag_63\n        /* \"#utility.yul\":1176:1181   */\n      dup3\n        /* \"#utility.yul\":1158:1182   */\n      tag_41\n      jump\t// in\n    tag_63:\n        /* \"#utility.yul\":1149:1182   */\n      swap2\n      pop\n        /* \"#utility.yul\":1204:1270   */\n      0xffffffffffffffffffffffffffffffffffffffffffffffffffffffffffffffff\n        /* \"#utility.yul\":1197:1202   */\n      dup3\n        /* \"#utility.yul\":1194:1271   */\n      sub\n        /* \"#utility.yul\":1191:1294   */\n      tag_64\n      jumpi\n        /* \"#utility.yul\":1274:1292   */\n      tag_65\n      tag_43\n      jump\t// in\n    tag_65:\n        /* \"#utility.yul\":1191:1294   */\n    tag_64:\n        /* \"#utility.yul\":1321:1322   */\n      0x01\n        /* \"#utility.yul\":1314:1319   */\n      dup3\n        /* \"#utility.yul\":1310:1323   */\n      add\n        /* \"#utility.yul\":1303:1323   */\n      swap1\n      pop\n        /* \"#utility.yul\":1096:1329   */\n      swap2\n      swap1\n      pop\n      jump\t// out\n        /* \"#utility.yul\":1335:1504   */\n    tag_44:\n        /* \"#utility.yul\":1419:1430   */\n      0x00\n        /* \"#utility.yul\":1453:1459   */\n      dup3\n        /* \"#utility.yul\":1448:1451   */\n      dup3\n        /* \"#utility.yul\":1441:1460   */\n      mstore\n        /* \"#utility.yul\":1493:1497   */\n      0x20\n        /* \"#utility.yul\":1488:1491   */\n      dup3\n        /* \"#utility.yul\":1484:1498   */\n      add\n        /* \"#utility.yul\":1469:1498   */\n      swap1\n      pop\n        /* \"#utility.yul\":1335:1504   */\n      swap3\n      swap2\n      pop\n      pop\n      jump\t// out\n        /* \"#utility.yul\":1510:1675   */\n    tag_45:\n        /* \"#utility.yul\":1650:1667   */\n      0x437269737469616e20416c696e657a0000000000000000000000000000000000\n        /* \"#utility.yul\":1646:1647   */\n      0x00\n        /* \"#utility.yul\":1638:1644   */\n      dup3\n        /* \"#utility.yul\":1634:1648   */\n      add\n        /* \"#utility.yul\":1627:1668   */\n      mstore\n        /* \"#utility.yul\":1510:1675   */\n      pop\n      jump\t// out\n        /* \"#utility.yul\":1681:2047   */\n    tag_46:\n        /* \"#utility.yul\":1823:1826   */\n      0x00\n        /* \"#utility.yul\":1844:1911   */\n      tag_69\n        /* \"#utility.yul\":1908:1910   */\n      0x0f\n        /* \"#utility.yul\":1903:1906   */\n      dup4\n        /* \"#utility.yul\":1844:1911   */\n      tag_44\n      jump\t// in\n    tag_69:\n        /* \"#utility.yul\":1837:1911   */\n      swap2\n      pop\n        /* \"#utility.yul\":1920:2013   */\n      tag_70\n        /* \"#utility.yul\":2009:2012   */\n      dup3\n        /* \"#utility.yul\":1920:2013   */\n      tag_45\n      jump\t// in\n    tag_70:\n        /* \"#utility.yul\":2038:2040   */\n      0x20\n        /* \"#utility.yul\":2033:2036   */\n      dup3\n        /* \"#utility.yul\":2029:2041   */\n      add\n        /* \"#utility.yul\":2022:2041   */\n      swap1\n      pop\n        /* \"#utility.yul\":1681:2047   */\n      swap2\n      swap1\n      pop\n      jump\t// out\n        /* \"#utility.yul\":2053:2472   */\n    tag_16:\n        /* \"#utility.yul\":2219:2223   */\n      0x00\n        /* \"#utility.yul\":2257:2259   */\n      0x20\n        /* \"#utility.yul\":2246:2255   */\n      dup3\n        /* \"#utility.yul\":2242:2260   */\n      add\n        /* \"#utility.yul\":2234:2260   */\n      swap1\n      pop\n        /* \"#utility.yul\":2306:2315   */\n      dup2\n        /* \"#utility.yul\":2300:2304   */\n      dup2\n        /* \"#utility.yul\":2296:2316   */\n      sub\n        /* \"#utility.yul\":2292:2293   */\n      0x00\n        /* \"#utility.yul\":2281:2290   */\n      dup4\n        /* \"#utility.yul\":2277:2294   */\n      add\n        /* \"#utility.yul\":2270:2317   */\n      mstore\n        /* \"#utility.yul\":2334:2465   */\n      tag_72\n        /* \"#utility.yul\":2460:2464   */\n      dup2\n        /* \"#utility.yul\":2334:2465   */\n      tag_46\n      jump\t// in\n    tag_72:\n        /* \"#utility.yul\":2326:2465   */\n      swap1\n      pop\n        /* \"#utility.yul\":2053:2472   */\n      swap2\n      swap1\n      pop\n      jump\t// out\n        /* \"#utility.yul\":2478:2700   */\n    tag_27:\n        /* \"#utility.yul\":2571:2575   */\n      0x00\n        /* \"#utility.yul\":2609:2611   */\n      0x20\n        /* \"#utility.yul\":2598:2607   */\n      dup3\n        /* \"#utility.yul\":2594:2612   */\n      add\n        /* \"#utility.yul\":2586:2612   */\n      swap1\n      pop\n        /* \"#utility.yul\":2622:2693   */\n      tag_74\n        /* \"#utility.yul\":2690:2691   */\n      0x00\n        /* \"#utility.yul\":2679:2688   */\n      dup4\n        /* \"#utility.yul\":2675:2692   */\n      add\n        /* \"#utility.yul\":2666:2672   */\n      dup5\n        /* \"#utility.yul\":2622:2693   */\n      tag_42\n      jump\t// in\n    tag_74:\n        /* \"#utility.yul\":2478:2700   */\n      swap3\n      swap2\n      pop\n      pop\n      jump\t// out\n        /* \"#utility.yul\":2706:2862   */\n    tag_47:\n        /* \"#utility.yul\":2846:2854   */\n      0x416c696e657a0000000000000000000000000000000000000000000000000000\n        /* \"#utility.yul\":2842:2843   */\n      0x00\n        /* \"#utility.yul\":2834:2840   */\n      dup3\n        /* \"#utility.yul\":2830:2844   */\n      add\n        /* \"#utility.yul\":2823:2855   */\n      mstore\n        /* \"#utility.yul\":2706:2862   */\n      pop\n      jump\t// out\n        /* \"#utility.yul\":2868:3233   */\n    tag_48:\n        /* \"#utility.yul\":3010:3013   */\n      0x00\n        /* \"#utility.yul\":3031:3097   */\n      tag_77\n        /* \"#utility.yul\":3095:3096   */\n      0x06\n        /* \"#utility.yul\":3090:3093   */\n      dup4\n        /* \"#utility.yul\":3031:3097   */\n      tag_44\n      jump\t// in\n    tag_77:\n        /* \"#utility.yul\":3024:3097   */\n      swap2\n      pop\n        /* \"#utility.yul\":3106:3199   */\n      tag_78\n        /* \"#utility.yul\":3195:3198   */\n      dup3\n        /* \"#utility.yul\":3106:3199   */\n      tag_47\n      jump\t// in\n    tag_78:\n        /* \"#utility.yul\":3224:3226   */\n      0x20\n        /* \"#utility.yul\":3219:3222   */\n      dup3\n        /* \"#utility.yul\":3215:3227   */\n      add\n        /* \"#utility.yul\":3208:3227   */\n      swap1\n      pop\n        /* \"#utility.yul\":2868:3233   */\n      swap2\n      swap1\n      pop\n      jump\t// out\n        /* \"#utility.yul\":3239:3658   */\n    tag_34:\n        /* \"#utility.yul\":3405:3409   */\n      0x00\n        /* \"#utility.yul\":3443:3445   */\n      0x20\n        /* \"#utility.yul\":3432:3441   */\n      dup3\n        /* \"#utility.yul\":3428:3446   */\n      add\n        /* \"#utility.yul\":3420:3446   */\n      swap1\n      pop\n        /* \"#utility.yul\":3492:3501   */\n      dup2\n        /* \"#utility.yul\":3486:3490   */\n      dup2\n        /* \"#utility.yul\":3482:3502   */\n      sub\n        /* \"#utility.yul\":3478:3479   */\n      0x00\n        /* \"#utility.yul\":3467:3476   */\n      dup4\n        /* \"#utility.yul\":3463:3480   */\n      add\n        /* \"#utility.yul\":3456:3503   */\n      mstore\n        /* \"#utility.yul\":3520:3651   */\n      tag_80\n        /* \"#utility.yul\":3646:3650   */\n      dup2\n        /* \"#utility.yul\":3520:3651   */\n      tag_48\n      jump\t// in\n    tag_80:\n        /* \"#utility.yul\":3512:3651   */\n      swap1\n      pop\n        /* \"#utility.yul\":3239:3658   */\n      swap2\n      swap1\n      pop\n      jump\t// out\n\n    auxdata: 0xa26469706673582212200c2dabb22ecc667af06483bf0e045948edd04362a4a7225a2311da02306f1e4664736f6c634300081a0033\n}\n",
				"bytecode": {
					"linkReferences": {},
					"object": "6080604052604051610607380380610607833981810160405281019061002591906100cf565b805f806101000a81548173ffffffffffffffffffffffffffffffffffffffff021916908373ffffffffffffffffffffffffffffffffffffffff1602179055505f600181905550506100fa565b5f80fd5b5f73ffffffffffffffffffffffffffffffffffffffff82169050919050565b5f61009e82610075565b9050919050565b6100ae81610094565b81146100b8575f80fd5b50565b5f815190506100c9816100a5565b92915050565b5f602082840312156100e4576100e3610071565b5b5f6100f1848285016100bb565b91505092915050565b610500806101075f395ff3fe60806040526004361061002c575f3560e01c80634de260a21461018c57806361bc221a146101a257610188565b36610188577f88a5966d370b9919b20f3e2c13ff65706f196a4e32cc2c12bf57088f885258743334604051610062929190610336565b60405180910390a1600180541015610107575f8054906101000a900473ffffffffffffffffffffffffffffffffffffffff1673ffffffffffffffffffffffffffffffffffffffff16632e64cec160046040518263ffffffff1660e01b81526004015f604051808303818588803b1580156100da575f80fd5b505af11580156100ec573d5f803e3d5ffd5b505050505060015f81546100ff9061038a565b919050819055505b5f8054906101000a900473ffffffffffffffffffffffffffffffffffffffff1673ffffffffffffffffffffffffffffffffffffffff16631d86b1676040518163ffffffff1660e01b815260040161015d9061042b565b5f604051808303815f87803b158015610174575f80fd5b505af1158015610186573d5f803e3d5ffd5b005b5f80fd5b348015610197575f80fd5b506101a06101cc565b005b3480156101ad575f80fd5b506101b66102d9565b6040516101c39190610449565b60405180910390f35b600180541015610254575f8054906101000a900473ffffffffffffffffffffffffffffffffffffffff1673ffffffffffffffffffffffffffffffffffffffff16632e64cec160046040518263ffffffff1660e01b81526004015f604051808303818588803b15801561023c575f80fd5b505af115801561024e573d5f803e3d5ffd5b50505050505b5f8054906101000a900473ffffffffffffffffffffffffffffffffffffffff1673ffffffffffffffffffffffffffffffffffffffff16631d86b1676040518163ffffffff1660e01b81526004016102aa906104ac565b5f604051808303815f87803b1580156102c1575f80fd5b505af11580156102d3573d5f803e3d5ffd5b50505050565b60015481565b5f73ffffffffffffffffffffffffffffffffffffffff82169050919050565b5f610308826102df565b9050919050565b610318816102fe565b82525050565b5f819050919050565b6103308161031e565b82525050565b5f6040820190506103495f83018561030f565b6103566020830184610327565b9392505050565b7f4e487b71000000000000000000000000000000000000000000000000000000005f52601160045260245ffd5b5f6103948261031e565b91507fffffffffffffffffffffffffffffffffffffffffffffffffffffffffffffffff82036103c6576103c561035d565b5b600182019050919050565b5f82825260208201905092915050565b7f437269737469616e20416c696e657a00000000000000000000000000000000005f82015250565b5f610415600f836103d1565b9150610420826103e1565b602082019050919050565b5f6020820190508181035f83015261044281610409565b9050919050565b5f60208201905061045c5f830184610327565b92915050565b7f416c696e657a00000000000000000000000000000000000000000000000000005f82015250565b5f6104966006836103d1565b91506104a182610462565b602082019050919050565b5f6020820190508181035f8301526104c38161048a565b905091905056fea26469706673582212200c2dabb22ecc667af06483bf0e045948edd04362a4a7225a2311da02306f1e4664736f6c634300081a0033",
					"opcodes": "PUSH1 0x80 PUSH1 0x40 MSTORE PUSH1 0x40 MLOAD PUSH2 0x607 CODESIZE SUB DUP1 PUSH2 0x607 DUP4 CODECOPY DUP2 DUP2 ADD PUSH1 0x40 MSTORE DUP2 ADD SWAP1 PUSH2 0x25 SWAP2 SWAP1 PUSH2 0xCF JUMP JUMPDEST DUP1 PUSH0 DUP1 PUSH2 0x100 EXP DUP2 SLOAD DUP2 PUSH20 0xFFFFFFFFFFFFFFFFFFFFFFFFFFFFFFFFFFFFFFFF MUL NOT AND SWAP1 DUP4 PUSH20 0xFFFFFFFFFFFFFFFFFFFFFFFFFFFFFFFFFFFFFFFF AND MUL OR SWAP1 SSTORE POP PUSH0 PUSH1 0x1 DUP2 SWAP1 SSTORE POP POP PUSH2 0xFA JUMP JUMPDEST PUSH0 DUP1 REVERT JUMPDEST PUSH0 PUSH20 0xFFFFFFFFFFFFFFFFFFFFFFFFFFFFFFFFFFFFFFFF DUP3 AND SWAP1 POP SWAP2 SWAP1 POP JUMP JUMPDEST PUSH0 PUSH2 0x9E DUP3 PUSH2 0x75 JUMP JUMPDEST SWAP1 POP SWAP2 SWAP1 POP JUMP JUMPDEST PUSH2 0xAE DUP2 PUSH2 0x94 JUMP JUMPDEST DUP2 EQ PUSH2 0xB8 JUMPI PUSH0 DUP1 REVERT JUMPDEST POP JUMP JUMPDEST PUSH0 DUP2 MLOAD SWAP1 POP PUSH2 0xC9 DUP2 PUSH2 0xA5 JUMP JUMPDEST SWAP3 SWAP2 POP POP JUMP JUMPDEST PUSH0 PUSH1 0x20 DUP3 DUP5 SUB SLT ISZERO PUSH2 0xE4 JUMPI PUSH2 0xE3 PUSH2 0x71 JUMP JUMPDEST JUMPDEST PUSH0 PUSH2 0xF1 DUP5 DUP3 DUP6 ADD PUSH2 0xBB JUMP JUMPDEST SWAP2 POP POP SWAP3 SWAP2 POP POP JUMP JUMPDEST PUSH2 0x500 DUP1 PUSH2 0x107 PUSH0 CODECOPY PUSH0 RETURN INVALID PUSH1 0x80 PUSH1 0x40 MSTORE PUSH1 0x4 CALLDATASIZE LT PUSH2 0x2C JUMPI PUSH0 CALLDATALOAD PUSH1 0xE0 SHR DUP1 PUSH4 0x4DE260A2 EQ PUSH2 0x18C JUMPI DUP1 PUSH4 0x61BC221A EQ PUSH2 0x1A2 JUMPI PUSH2 0x188 JUMP JUMPDEST CALLDATASIZE PUSH2 0x188 JUMPI PUSH32 0x88A5966D370B9919B20F3E2C13FF65706F196A4E32CC2C12BF57088F88525874 CALLER CALLVALUE PUSH1 0x40 MLOAD PUSH2 0x62 SWAP3 SWAP2 SWAP1 PUSH2 0x336 JUMP JUMPDEST PUSH1 0x40 MLOAD DUP1 SWAP2 SUB SWAP1 LOG1 PUSH1 0x1 DUP1 SLOAD LT ISZERO PUSH2 0x107 JUMPI PUSH0 DUP1 SLOAD SWAP1 PUSH2 0x100 EXP SWAP1 DIV PUSH20 0xFFFFFFFFFFFFFFFFFFFFFFFFFFFFFFFFFFFFFFFF AND PUSH20 0xFFFFFFFFFFFFFFFFFFFFFFFFFFFFFFFFFFFFFFFF AND PUSH4 0x2E64CEC1 PUSH1 0x4 PUSH1 0x40 MLOAD DUP3 PUSH4 0xFFFFFFFF AND PUSH1 0xE0 SHL DUP2 MSTORE PUSH1 0x4 ADD PUSH0 PUSH1 0x40 MLOAD DUP1 DUP4 SUB DUP2 DUP6 DUP9 DUP1 EXTCODESIZE ISZERO DUP1 ISZERO PUSH2 0xDA JUMPI PUSH0 DUP1 REVERT JUMPDEST POP GAS CALL ISZERO DUP1 ISZERO PUSH2 0xEC JUMPI RETURNDATASIZE PUSH0 DUP1 RETURNDATACOPY RETURNDATASIZE PUSH0 REVERT JUMPDEST POP POP POP POP POP PUSH1 0x1 PUSH0 DUP2 SLOAD PUSH2 0xFF SWAP1 PUSH2 0x38A JUMP JUMPDEST SWAP2 SWAP1 POP DUP2 SWAP1 SSTORE POP JUMPDEST PUSH0 DUP1 SLOAD SWAP1 PUSH2 0x100 EXP SWAP1 DIV PUSH20 0xFFFFFFFFFFFFFFFFFFFFFFFFFFFFFFFFFFFFFFFF AND PUSH20 0xFFFFFFFFFFFFFFFFFFFFFFFFFFFFFFFFFFFFFFFF AND PUSH4 0x1D86B167 PUSH1 0x40 MLOAD DUP2 PUSH4 0xFFFFFFFF AND PUSH1 0xE0 SHL DUP2 MSTORE PUSH1 0x4 ADD PUSH2 0x15D SWAP1 PUSH2 0x42B JUMP JUMPDEST PUSH0 PUSH1 0x40 MLOAD DUP1 DUP4 SUB DUP2 PUSH0 DUP8 DUP1 EXTCODESIZE ISZERO DUP1 ISZERO PUSH2 0x174 JUMPI PUSH0 DUP1 REVERT JUMPDEST POP GAS CALL ISZERO DUP1 ISZERO PUSH2 0x186 JUMPI RETURNDATASIZE PUSH0 DUP1 RETURNDATACOPY RETURNDATASIZE PUSH0 REVERT JUMPDEST STOP JUMPDEST PUSH0 DUP1 REVERT JUMPDEST CALLVALUE DUP1 ISZERO PUSH2 0x197 JUMPI PUSH0 DUP1 REVERT JUMPDEST POP PUSH2 0x1A0 PUSH2 0x1CC JUMP JUMPDEST STOP JUMPDEST CALLVALUE DUP1 ISZERO PUSH2 0x1AD JUMPI PUSH0 DUP1 REVERT JUMPDEST POP PUSH2 0x1B6 PUSH2 0x2D9 JUMP JUMPDEST PUSH1 0x40 MLOAD PUSH2 0x1C3 SWAP2 SWAP1 PUSH2 0x449 JUMP JUMPDEST PUSH1 0x40 MLOAD DUP1 SWAP2 SUB SWAP1 RETURN JUMPDEST PUSH1 0x1 DUP1 SLOAD LT ISZERO PUSH2 0x254 JUMPI PUSH0 DUP1 SLOAD SWAP1 PUSH2 0x100 EXP SWAP1 DIV PUSH20 0xFFFFFFFFFFFFFFFFFFFFFFFFFFFFFFFFFFFFFFFF AND PUSH20 0xFFFFFFFFFFFFFFFFFFFFFFFFFFFFFFFFFFFFFFFF AND PUSH4 0x2E64CEC1 PUSH1 0x4 PUSH1 0x40 MLOAD DUP3 PUSH4 0xFFFFFFFF AND PUSH1 0xE0 SHL DUP2 MSTORE PUSH1 0x4 ADD PUSH0 PUSH1 0x40 MLOAD DUP1 DUP4 SUB DUP2 DUP6 DUP9 DUP1 EXTCODESIZE ISZERO DUP1 ISZERO PUSH2 0x23C JUMPI PUSH0 DUP1 REVERT JUMPDEST POP GAS CALL ISZERO DUP1 ISZERO PUSH2 0x24E JUMPI RETURNDATASIZE PUSH0 DUP1 RETURNDATACOPY RETURNDATASIZE PUSH0 REVERT JUMPDEST POP POP POP POP POP JUMPDEST PUSH0 DUP1 SLOAD SWAP1 PUSH2 0x100 EXP SWAP1 DIV PUSH20 0xFFFFFFFFFFFFFFFFFFFFFFFFFFFFFFFFFFFFFFFF AND PUSH20 0xFFFFFFFFFFFFFFFFFFFFFFFFFFFFFFFFFFFFFFFF AND PUSH4 0x1D86B167 PUSH1 0x40 MLOAD DUP2 PUSH4 0xFFFFFFFF AND PUSH1 0xE0 SHL DUP2 MSTORE PUSH1 0x4 ADD PUSH2 0x2AA SWAP1 PUSH2 0x4AC JUMP JUMPDEST PUSH0 PUSH1 0x40 MLOAD DUP1 DUP4 SUB DUP2 PUSH0 DUP8 DUP1 EXTCODESIZE ISZERO DUP1 ISZERO PUSH2 0x2C1 JUMPI PUSH0 DUP1 REVERT JUMPDEST POP GAS CALL ISZERO DUP1 ISZERO PUSH2 0x2D3 JUMPI RETURNDATASIZE PUSH0 DUP1 RETURNDATACOPY RETURNDATASIZE PUSH0 REVERT JUMPDEST POP POP POP POP JUMP JUMPDEST PUSH1 0x1 SLOAD DUP2 JUMP JUMPDEST PUSH0 PUSH20 0xFFFFFFFFFFFFFFFFFFFFFFFFFFFFFFFFFFFFFFFF DUP3 AND SWAP1 POP SWAP2 SWAP1 POP JUMP JUMPDEST PUSH0 PUSH2 0x308 DUP3 PUSH2 0x2DF JUMP JUMPDEST SWAP1 POP SWAP2 SWAP1 POP JUMP JUMPDEST PUSH2 0x318 DUP2 PUSH2 0x2FE JUMP JUMPDEST DUP3 MSTORE POP POP JUMP JUMPDEST PUSH0 DUP2 SWAP1 POP SWAP2 SWAP1 POP JUMP JUMPDEST PUSH2 0x330 DUP2 PUSH2 0x31E JUMP JUMPDEST DUP3 MSTORE POP POP JUMP JUMPDEST PUSH0 PUSH1 0x40 DUP3 ADD SWAP1 POP PUSH2 0x349 PUSH0 DUP4 ADD DUP6 PUSH2 0x30F JUMP JUMPDEST PUSH2 0x356 PUSH1 0x20 DUP4 ADD DUP5 PUSH2 0x327 JUMP JUMPDEST SWAP4 SWAP3 POP POP POP JUMP JUMPDEST PUSH32 0x4E487B7100000000000000000000000000000000000000000000000000000000 PUSH0 MSTORE PUSH1 0x11 PUSH1 0x4 MSTORE PUSH1 0x24 PUSH0 REVERT JUMPDEST PUSH0 PUSH2 0x394 DUP3 PUSH2 0x31E JUMP JUMPDEST SWAP2 POP PUSH32 0xFFFFFFFFFFFFFFFFFFFFFFFFFFFFFFFFFFFFFFFFFFFFFFFFFFFFFFFFFFFFFFFF DUP3 SUB PUSH2 0x3C6 JUMPI PUSH2 0x3C5 PUSH2 0x35D JUMP JUMPDEST JUMPDEST PUSH1 0x1 DUP3 ADD SWAP1 POP SWAP2 SWAP1 POP JUMP JUMPDEST PUSH0 DUP3 DUP3 MSTORE PUSH1 0x20 DUP3 ADD SWAP1 POP SWAP3 SWAP2 POP POP JUMP JUMPDEST PUSH32 0x437269737469616E20416C696E657A0000000000000000000000000000000000 PUSH0 DUP3 ADD MSTORE POP JUMP JUMPDEST PUSH0 PUSH2 0x415 PUSH1 0xF DUP4 PUSH2 0x3D1 JUMP JUMPDEST SWAP2 POP PUSH2 0x420 DUP3 PUSH2 0x3E1 JUMP JUMPDEST PUSH1 0x20 DUP3 ADD SWAP1 POP SWAP2 SWAP1 POP JUMP JUMPDEST PUSH0 PUSH1 0x20 DUP3 ADD SWAP1 POP DUP2 DUP2 SUB PUSH0 DUP4 ADD MSTORE PUSH2 0x442 DUP2 PUSH2 0x409 JUMP JUMPDEST SWAP1 POP SWAP2 SWAP1 POP JUMP JUMPDEST PUSH0 PUSH1 0x20 DUP3 ADD SWAP1 POP PUSH2 0x45C PUSH0 DUP4 ADD DUP5 PUSH2 0x327 JUMP JUMPDEST SWAP3 SWAP2 POP POP JUMP JUMPDEST PUSH32 0x416C696E657A0000000000000000000000000000000000000000000000000000 PUSH0 DUP3 ADD MSTORE POP JUMP JUMPDEST PUSH0 PUSH2 0x496 PUSH1 0x6 DUP4 PUSH2 0x3D1 JUMP JUMPDEST SWAP2 POP PUSH2 0x4A1 DUP3 PUSH2 0x462 JUMP JUMPDEST PUSH1 0x20 DUP3 ADD SWAP1 POP SWAP2 SWAP1 POP JUMP JUMPDEST PUSH0 PUSH1 0x20 DUP3 ADD SWAP1 POP DUP2 DUP2 SUB PUSH0 DUP4 ADD MSTORE PUSH2 0x4C3 DUP2 PUSH2 0x48A JUMP JUMPDEST SWAP1 POP SWAP2 SWAP1 POP JUMP INVALID LOG2 PUSH5 0x6970667358 0x22 SLT KECCAK256 0xC 0x2D 0xAB 0xB2 0x2E 0xCC PUSH7 0x7AF06483BF0E04 MSIZE BASEFEE 0xED 0xD0 NUMBER PUSH3 0xA4A722 GAS 0x23 GT 0xDA MUL ADDRESS PUSH16 0x1E4664736F6C634300081A0033000000 "
				},
				"gasEstimates": {
					"creation": {
						"codeDepositCost": "256000",
						"executionCost": "infinite",
						"totalCost": "infinite"
					},
					"external": {
						"counter()": "2425",
						"hack()": "infinite"
					}
				},
				"methodIdentifiers": {
					"counter()": "61bc221a",
					"hack()": "4de260a2"
				}
			},
			"storageLayout": {
				"storage": [
					{
						"astId": 441,
						"contract": "contracts/tp4/HackMe.sol:HackMe",
						"label": "gradeMeSC",
						"offset": 0,
						"slot": "0",
						"type": "t_contract(Grader5)435"
					},
					{
						"astId": 443,
						"contract": "contracts/tp4/HackMe.sol:HackMe",
						"label": "counter",
						"offset": 0,
						"slot": "1",
						"type": "t_uint256"
					}
				],
				"types": {
					"t_contract(Grader5)435": {
						"encoding": "inplace",
						"label": "contract Grader5",
						"numberOfBytes": "20"
					},
					"t_uint256": {
						"encoding": "inplace",
						"label": "uint256",
						"numberOfBytes": "32"
					}
				}
			},
			"userdoc": {
				"kind": "user",
				"methods": {},
				"version": 1
			}
		}
	}
}