{
	"data": {
		"bytecode": {
			"linkReferences": {},
			"object": "608060405234801561000f575f5ffd5b506040516118fc3803806118fc83398181016040528101906100319190610269565b806040518060400160405280600881526020017f4d79546f6b656e410000000000000000000000000000000000000000000000008152506040518060400160405280600481526020017f4d544b420000000000000000000000000000000000000000000000000000000081525081600390816100ad91906104d1565b5080600490816100bd91906104d1565b5050505f73ffffffffffffffffffffffffffffffffffffffff168173ffffffffffffffffffffffffffffffffffffffff1603610130575f6040517f1e4fbdf700000000000000000000000000000000000000000000000000000000815260040161012791906105af565b60405180910390fd5b61013f8161014660201b60201c565b50506105c8565b5f600560019054906101000a900473ffffffffffffffffffffffffffffffffffffffff16905081600560016101000a81548173ffffffffffffffffffffffffffffffffffffffff021916908373ffffffffffffffffffffffffffffffffffffffff1602179055508173ffffffffffffffffffffffffffffffffffffffff168173ffffffffffffffffffffffffffffffffffffffff167f8be0079c531659141344cd1fd0a4f28419497f9722a3daafe3b4186f6b6457e060405160405180910390a35050565b5f5ffd5b5f73ffffffffffffffffffffffffffffffffffffffff82169050919050565b5f6102388261020f565b9050919050565b6102488161022e565b8114610252575f5ffd5b50565b5f815190506102638161023f565b92915050565b5f6020828403121561027e5761027d61020b565b5b5f61028b84828501610255565b91505092915050565b5f81519050919050565b7f4e487b71000000000000000000000000000000000000000000000000000000005f52604160045260245ffd5b7f4e487b71000000000000000000000000000000000000000000000000000000005f52602260045260245ffd5b5f600282049050600182168061030f57607f821691505b602082108103610322576103216102cb565b5b50919050565b5f819050815f5260205f209050919050565b5f6020601f8301049050919050565b5f82821b905092915050565b5f600883026103847fffffffffffffffffffffffffffffffffffffffffffffffffffffffffffffffff82610349565b61038e8683610349565b95508019841693508086168417925050509392505050565b5f819050919050565b5f819050919050565b5f6103d26103cd6103c8846103a6565b6103af565b6103a6565b9050919050565b5f819050919050565b6103eb836103b8565b6103ff6103f7826103d9565b848454610355565b825550505050565b5f5f905090565b610416610407565b6104218184846103e2565b505050565b5b81811015610444576104395f8261040e565b600181019050610427565b5050565b601f8211156104895761045a81610328565b6104638461033a565b81016020851015610472578190505b61048661047e8561033a565b830182610426565b50505b505050565b5f82821c905092915050565b5f6104a95f198460080261048e565b1980831691505092915050565b5f6104c1838361049a565b9150826002028217905092915050565b6104da82610294565b67ffffffffffffffff8111156104f3576104f261029e565b5b6104fd82546102f8565b610508828285610448565b5f60209050601f831160018114610539575f8415610527578287015190505b61053185826104b6565b865550610598565b601f19841661054786610328565b5f5b8281101561056e57848901518255600182019150602085019450602081019050610549565b8683101561058b5784890151610587601f89168261049a565b8355505b6001600288020188555050505b505050505050565b6105a98161022e565b82525050565b5f6020820190506105c25f8301846105a0565b92915050565b611327806105d55f395ff3fe608060405234801561000f575f5ffd5b50600436106100fe575f3560e01c806370a082311161009557806395d89b411161006457806395d89b4114610262578063a9059cbb14610280578063dd62ed3e146102b0578063f2fde38b146102e0576100fe565b806370a0823114610200578063715018a6146102305780638456cb591461023a5780638da5cb5b14610244576100fe565b8063313ce567116100d1578063313ce5671461019e5780633f4ba83a146101bc57806340c10f19146101c65780635c975abb146101e2576100fe565b806306fdde0314610102578063095ea7b31461012057806318160ddd1461015057806323b872dd1461016e575b5f5ffd5b61010a6102fc565b6040516101179190610fa0565b60405180910390f35b61013a60048036038101906101359190611051565b61038c565b60405161014791906110a9565b60405180910390f35b6101586103ae565b60405161016591906110d1565b60405180910390f35b610188600480360381019061018391906110ea565b6103b7565b60405161019591906110a9565b60405180910390f35b6101a66103e5565b6040516101b39190611155565b60405180910390f35b6101c46103ed565b005b6101e060048036038101906101db9190611051565b6103ff565b005b6101ea610415565b6040516101f791906110a9565b60405180910390f35b61021a6004803603810190610215919061116e565b61042a565b60405161022791906110d1565b60405180910390f35b61023861046f565b005b610242610482565b005b61024c610494565b60405161025991906111a8565b60405180910390f35b61026a6104bd565b6040516102779190610fa0565b60405180910390f35b61029a60048036038101906102959190611051565b61054d565b6040516102a791906110a9565b60405180910390f35b6102ca60048036038101906102c591906111c1565b61056f565b6040516102d791906110d1565b60405180910390f35b6102fa60048036038101906102f5919061116e565b6105f1565b005b60606003805461030b9061122c565b80601f01602080910402602001604051908101604052809291908181526020018280546103379061122c565b80156103825780601f1061035957610100808354040283529160200191610382565b820191905f5260205f20905b81548152906001019060200180831161036557829003601f168201915b5050505050905090565b5f5f610396610675565b90506103a381858561067c565b600191505092915050565b5f600254905090565b5f5f6103c1610675565b90506103ce85828561068e565b6103d9858585610721565b60019150509392505050565b5f6012905090565b6103f5610811565b6103fd610898565b565b610407610811565b61041182826108f9565b5050565b5f60055f9054906101000a900460ff16905090565b5f5f5f8373ffffffffffffffffffffffffffffffffffffffff1673ffffffffffffffffffffffffffffffffffffffff1681526020019081526020015f20549050919050565b610477610811565b6104805f610978565b565b61048a610811565b610492610a3d565b565b5f600560019054906101000a900473ffffffffffffffffffffffffffffffffffffffff16905090565b6060600480546104cc9061122c565b80601f01602080910402602001604051908101604052809291908181526020018280546104f89061122c565b80156105435780601f1061051a57610100808354040283529160200191610543565b820191905f5260205f20905b81548152906001019060200180831161052657829003601f168201915b5050505050905090565b5f5f610557610675565b9050610564818585610721565b600191505092915050565b5f60015f8473ffffffffffffffffffffffffffffffffffffffff1673ffffffffffffffffffffffffffffffffffffffff1681526020019081526020015f205f8373ffffffffffffffffffffffffffffffffffffffff1673ffffffffffffffffffffffffffffffffffffffff1681526020019081526020015f2054905092915050565b6105f9610811565b5f73ffffffffffffffffffffffffffffffffffffffff168173ffffffffffffffffffffffffffffffffffffffff1603610669575f6040517f1e4fbdf700000000000000000000000000000000000000000000000000000000815260040161066091906111a8565b60405180910390fd5b61067281610978565b50565b5f33905090565b6106898383836001610a9f565b505050565b5f610699848461056f565b90507fffffffffffffffffffffffffffffffffffffffffffffffffffffffffffffffff81101561071b578181101561070c578281836040517ffb8f41b20000000000000000000000000000000000000000000000000000000081526004016107039392919061125c565b60405180910390fd5b61071a84848484035f610a9f565b5b50505050565b5f73ffffffffffffffffffffffffffffffffffffffff168373ffffffffffffffffffffffffffffffffffffffff1603610791575f6040517f96c6fd1e00000000000000000000000000000000000000000000000000000000815260040161078891906111a8565b60405180910390fd5b5f73ffffffffffffffffffffffffffffffffffffffff168273ffffffffffffffffffffffffffffffffffffffff1603610801575f6040517fec442f050000000000000000000000000000000000000000000000000000000081526004016107f891906111a8565b60405180910390fd5b61080c838383610c6e565b505050565b610819610675565b73ffffffffffffffffffffffffffffffffffffffff16610837610494565b73ffffffffffffffffffffffffffffffffffffffff16146108965761085a610675565b6040517f118cdaa700000000000000000000000000000000000000000000000000000000815260040161088d91906111a8565b60405180910390fd5b565b6108a0610c7e565b5f60055f6101000a81548160ff0219169083151502179055507f5db9ee0a495bf2e6ff9c91a7834c1ba4fdd244a5e8aa4e537bd38aeae4b073aa6108e2610675565b6040516108ef91906111a8565b60405180910390a1565b5f73ffffffffffffffffffffffffffffffffffffffff168273ffffffffffffffffffffffffffffffffffffffff1603610969575f6040517fec442f0500000000000000000000000000000000000000000000000000000000815260040161096091906111a8565b60405180910390fd5b6109745f8383610c6e565b5050565b5f600560019054906101000a900473ffffffffffffffffffffffffffffffffffffffff16905081600560016101000a81548173ffffffffffffffffffffffffffffffffffffffff021916908373ffffffffffffffffffffffffffffffffffffffff1602179055508173ffffffffffffffffffffffffffffffffffffffff168173ffffffffffffffffffffffffffffffffffffffff167f8be0079c531659141344cd1fd0a4f28419497f9722a3daafe3b4186f6b6457e060405160405180910390a35050565b610a45610cbe565b600160055f6101000a81548160ff0219169083151502179055507f62e78cea01bee320cd4e420270b5ea74000d11b0c9f74754ebdbfc544b05a258610a88610675565b604051610a9591906111a8565b60405180910390a1565b5f73ffffffffffffffffffffffffffffffffffffffff168473ffffffffffffffffffffffffffffffffffffffff1603610b0f575f6040517fe602df05000000000000000000000000000000000000000000000000000000008152600401610b0691906111a8565b60405180910390fd5b5f73ffffffffffffffffffffffffffffffffffffffff168373ffffffffffffffffffffffffffffffffffffffff1603610b7f575f6040517f94280d62000000000000000000000000000000000000000000000000000000008152600401610b7691906111a8565b60405180910390fd5b8160015f8673ffffffffffffffffffffffffffffffffffffffff1673ffffffffffffffffffffffffffffffffffffffff1681526020019081526020015f205f8573ffffffffffffffffffffffffffffffffffffffff1673ffffffffffffffffffffffffffffffffffffffff1681526020019081526020015f20819055508015610c68578273ffffffffffffffffffffffffffffffffffffffff168473ffffffffffffffffffffffffffffffffffffffff167f8c5be1e5ebec7d5bd14f71427d1e84f3dd0314c0f7b2291e5b200ac8c7c3b92584604051610c5f91906110d1565b60405180910390a35b50505050565b610c79838383610cff565b505050565b610c86610415565b610cbc576040517f8dfc202b00000000000000000000000000000000000000000000000000000000815260040160405180910390fd5b565b610cc6610415565b15610cfd576040517fd93c066500000000000000000000000000000000000000000000000000000000815260040160405180910390fd5b565b610d07610cbe565b610d12838383610d17565b505050565b5f73ffffffffffffffffffffffffffffffffffffffff168373ffffffffffffffffffffffffffffffffffffffff1603610d67578060025f828254610d5b91906112be565b92505081905550610e35565b5f5f5f8573ffffffffffffffffffffffffffffffffffffffff1673ffffffffffffffffffffffffffffffffffffffff1681526020019081526020015f2054905081811015610df0578381836040517fe450d38c000000000000000000000000000000000000000000000000000000008152600401610de79392919061125c565b60405180910390fd5b8181035f5f8673ffffffffffffffffffffffffffffffffffffffff1673ffffffffffffffffffffffffffffffffffffffff1681526020019081526020015f2081905550505b5f73ffffffffffffffffffffffffffffffffffffffff168273ffffffffffffffffffffffffffffffffffffffff1603610e7c578060025f8282540392505081905550610ec6565b805f5f8473ffffffffffffffffffffffffffffffffffffffff1673ffffffffffffffffffffffffffffffffffffffff1681526020019081526020015f205f82825401925050819055505b8173ffffffffffffffffffffffffffffffffffffffff168373ffffffffffffffffffffffffffffffffffffffff167fddf252ad1be2c89b69c2b068fc378daa952ba7f163c4a11628f55a4df523b3ef83604051610f2391906110d1565b60405180910390a3505050565b5f81519050919050565b5f82825260208201905092915050565b8281835e5f83830152505050565b5f601f19601f8301169050919050565b5f610f7282610f30565b610f7c8185610f3a565b9350610f8c818560208601610f4a565b610f9581610f58565b840191505092915050565b5f6020820190508181035f830152610fb88184610f68565b905092915050565b5f5ffd5b5f73ffffffffffffffffffffffffffffffffffffffff82169050919050565b5f610fed82610fc4565b9050919050565b610ffd81610fe3565b8114611007575f5ffd5b50565b5f8135905061101881610ff4565b92915050565b5f819050919050565b6110308161101e565b811461103a575f5ffd5b50565b5f8135905061104b81611027565b92915050565b5f5f6040838503121561106757611066610fc0565b5b5f6110748582860161100a565b92505060206110858582860161103d565b9150509250929050565b5f8115159050919050565b6110a38161108f565b82525050565b5f6020820190506110bc5f83018461109a565b92915050565b6110cb8161101e565b82525050565b5f6020820190506110e45f8301846110c2565b92915050565b5f5f5f6060848603121561110157611100610fc0565b5b5f61110e8682870161100a565b935050602061111f8682870161100a565b92505060406111308682870161103d565b9150509250925092565b5f60ff82169050919050565b61114f8161113a565b82525050565b5f6020820190506111685f830184611146565b92915050565b5f6020828403121561118357611182610fc0565b5b5f6111908482850161100a565b91505092915050565b6111a281610fe3565b82525050565b5f6020820190506111bb5f830184611199565b92915050565b5f5f604083850312156111d7576111d6610fc0565b5b5f6111e48582860161100a565b92505060206111f58582860161100a565b9150509250929050565b7f4e487b71000000000000000000000000000000000000000000000000000000005f52602260045260245ffd5b5f600282049050600182168061124357607f821691505b602082108103611256576112556111ff565b5b50919050565b5f60608201905061126f5f830186611199565b61127c60208301856110c2565b61128960408301846110c2565b949350505050565b7f4e487b71000000000000000000000000000000000000000000000000000000005f52601160045260245ffd5b5f6112c88261101e565b91506112d38361101e565b92508282019050808211156112eb576112ea611291565b5b9291505056fea264697066735822122078e29a3f6e307433af1c1f2a26a13c2adea3368bf69b14010653fec76e67203b64736f6c634300081b0033",
			"opcodes": "PUSH1 0x80 PUSH1 0x40 MSTORE CALLVALUE DUP1 ISZERO PUSH2 0xF JUMPI PUSH0 PUSH0 REVERT JUMPDEST POP PUSH1 0x40 MLOAD PUSH2 0x18FC CODESIZE SUB DUP1 PUSH2 0x18FC DUP4 CODECOPY DUP2 DUP2 ADD PUSH1 0x40 MSTORE DUP2 ADD SWAP1 PUSH2 0x31 SWAP2 SWAP1 PUSH2 0x269 JUMP JUMPDEST DUP1 PUSH1 0x40 MLOAD DUP1 PUSH1 0x40 ADD PUSH1 0x40 MSTORE DUP1 PUSH1 0x8 DUP2 MSTORE PUSH1 0x20 ADD PUSH32 0x4D79546F6B656E41000000000000000000000000000000000000000000000000 DUP2 MSTORE POP PUSH1 0x40 MLOAD DUP1 PUSH1 0x40 ADD PUSH1 0x40 MSTORE DUP1 PUSH1 0x4 DUP2 MSTORE PUSH1 0x20 ADD PUSH32 0x4D544B4200000000000000000000000000000000000000000000000000000000 DUP2 MSTORE POP DUP2 PUSH1 0x3 SWAP1 DUP2 PUSH2 0xAD SWAP2 SWAP1 PUSH2 0x4D1 JUMP JUMPDEST POP DUP1 PUSH1 0x4 SWAP1 DUP2 PUSH2 0xBD SWAP2 SWAP1 PUSH2 0x4D1 JUMP JUMPDEST POP POP POP PUSH0 PUSH20 0xFFFFFFFFFFFFFFFFFFFFFFFFFFFFFFFFFFFFFFFF AND DUP2 PUSH20 0xFFFFFFFFFFFFFFFFFFFFFFFFFFFFFFFFFFFFFFFF AND SUB PUSH2 0x130 JUMPI PUSH0 PUSH1 0x40 MLOAD PUSH32 0x1E4FBDF700000000000000000000000000000000000000000000000000000000 DUP2 MSTORE PUSH1 0x4 ADD PUSH2 0x127 SWAP2 SWAP1 PUSH2 0x5AF JUMP JUMPDEST PUSH1 0x40 MLOAD DUP1 SWAP2 SUB SWAP1 REVERT JUMPDEST PUSH2 0x13F DUP2 PUSH2 0x146 PUSH1 0x20 SHL PUSH1 0x20 SHR JUMP JUMPDEST POP POP PUSH2 0x5C8 JUMP JUMPDEST PUSH0 PUSH1 0x5 PUSH1 0x1 SWAP1 SLOAD SWAP1 PUSH2 0x100 EXP SWAP1 DIV PUSH20 0xFFFFFFFFFFFFFFFFFFFFFFFFFFFFFFFFFFFFFFFF AND SWAP1 POP DUP2 PUSH1 0x5 PUSH1 0x1 PUSH2 0x100 EXP DUP2 SLOAD DUP2 PUSH20 0xFFFFFFFFFFFFFFFFFFFFFFFFFFFFFFFFFFFFFFFF MUL NOT AND SWAP1 DUP4 PUSH20 0xFFFFFFFFFFFFFFFFFFFFFFFFFFFFFFFFFFFFFFFF AND MUL OR SWAP1 SSTORE POP DUP2 PUSH20 0xFFFFFFFFFFFFFFFFFFFFFFFFFFFFFFFFFFFFFFFF AND DUP2 PUSH20 0xFFFFFFFFFFFFFFFFFFFFFFFFFFFFFFFFFFFFFFFF AND PUSH32 0x8BE0079C531659141344CD1FD0A4F28419497F9722A3DAAFE3B4186F6B6457E0 PUSH1 0x40 MLOAD PUSH1 0x40 MLOAD DUP1 SWAP2 SUB SWAP1 LOG3 POP POP JUMP JUMPDEST PUSH0 PUSH0 REVERT JUMPDEST PUSH0 PUSH20 0xFFFFFFFFFFFFFFFFFFFFFFFFFFFFFFFFFFFFFFFF DUP3 AND SWAP1 POP SWAP2 SWAP1 POP JUMP JUMPDEST PUSH0 PUSH2 0x238 DUP3 PUSH2 0x20F JUMP JUMPDEST SWAP1 POP SWAP2 SWAP1 POP JUMP JUMPDEST PUSH2 0x248 DUP2 PUSH2 0x22E JUMP JUMPDEST DUP2 EQ PUSH2 0x252 JUMPI PUSH0 PUSH0 REVERT JUMPDEST POP JUMP JUMPDEST PUSH0 DUP2 MLOAD SWAP1 POP PUSH2 0x263 DUP2 PUSH2 0x23F JUMP JUMPDEST SWAP3 SWAP2 POP POP JUMP JUMPDEST PUSH0 PUSH1 0x20 DUP3 DUP5 SUB SLT ISZERO PUSH2 0x27E JUMPI PUSH2 0x27D PUSH2 0x20B JUMP JUMPDEST JUMPDEST PUSH0 PUSH2 0x28B DUP5 DUP3 DUP6 ADD PUSH2 0x255 JUMP JUMPDEST SWAP2 POP POP SWAP3 SWAP2 POP POP JUMP JUMPDEST PUSH0 DUP2 MLOAD SWAP1 POP SWAP2 SWAP1 POP JUMP JUMPDEST PUSH32 0x4E487B7100000000000000000000000000000000000000000000000000000000 PUSH0 MSTORE PUSH1 0x41 PUSH1 0x4 MSTORE PUSH1 0x24 PUSH0 REVERT JUMPDEST PUSH32 0x4E487B7100000000000000000000000000000000000000000000000000000000 PUSH0 MSTORE PUSH1 0x22 PUSH1 0x4 MSTORE PUSH1 0x24 PUSH0 REVERT JUMPDEST PUSH0 PUSH1 0x2 DUP3 DIV SWAP1 POP PUSH1 0x1 DUP3 AND DUP1 PUSH2 0x30F JUMPI PUSH1 0x7F DUP3 AND SWAP2 POP JUMPDEST PUSH1 0x20 DUP3 LT DUP2 SUB PUSH2 0x322 JUMPI PUSH2 0x321 PUSH2 0x2CB JUMP JUMPDEST JUMPDEST POP SWAP2 SWAP1 POP JUMP JUMPDEST PUSH0 DUP2 SWAP1 POP DUP2 PUSH0 MSTORE PUSH1 0x20 PUSH0 KECCAK256 SWAP1 POP SWAP2 SWAP1 POP JUMP JUMPDEST PUSH0 PUSH1 0x20 PUSH1 0x1F DUP4 ADD DIV SWAP1 POP SWAP2 SWAP1 POP JUMP JUMPDEST PUSH0 DUP3 DUP3 SHL SWAP1 POP SWAP3 SWAP2 POP POP JUMP JUMPDEST PUSH0 PUSH1 0x8 DUP4 MUL PUSH2 0x384 PUSH32 0xFFFFFFFFFFFFFFFFFFFFFFFFFFFFFFFFFFFFFFFFFFFFFFFFFFFFFFFFFFFFFFFF DUP3 PUSH2 0x349 JUMP JUMPDEST PUSH2 0x38E DUP7 DUP4 PUSH2 0x349 JUMP JUMPDEST SWAP6 POP DUP1 NOT DUP5 AND SWAP4 POP DUP1 DUP7 AND DUP5 OR SWAP3 POP POP POP SWAP4 SWAP3 POP POP POP JUMP JUMPDEST PUSH0 DUP2 SWAP1 POP SWAP2 SWAP1 POP JUMP JUMPDEST PUSH0 DUP2 SWAP1 POP SWAP2 SWAP1 POP JUMP JUMPDEST PUSH0 PUSH2 0x3D2 PUSH2 0x3CD PUSH2 0x3C8 DUP5 PUSH2 0x3A6 JUMP JUMPDEST PUSH2 0x3AF JUMP JUMPDEST PUSH2 0x3A6 JUMP JUMPDEST SWAP1 POP SWAP2 SWAP1 POP JUMP JUMPDEST PUSH0 DUP2 SWAP1 POP SWAP2 SWAP1 POP JUMP JUMPDEST PUSH2 0x3EB DUP4 PUSH2 0x3B8 JUMP JUMPDEST PUSH2 0x3FF PUSH2 0x3F7 DUP3 PUSH2 0x3D9 JUMP JUMPDEST DUP5 DUP5 SLOAD PUSH2 0x355 JUMP JUMPDEST DUP3 SSTORE POP POP POP POP JUMP JUMPDEST PUSH0 PUSH0 SWAP1 POP SWAP1 JUMP JUMPDEST PUSH2 0x416 PUSH2 0x407 JUMP JUMPDEST PUSH2 0x421 DUP2 DUP5 DUP5 PUSH2 0x3E2 JUMP JUMPDEST POP POP POP JUMP JUMPDEST JUMPDEST DUP2 DUP2 LT ISZERO PUSH2 0x444 JUMPI PUSH2 0x439 PUSH0 DUP3 PUSH2 0x40E JUMP JUMPDEST PUSH1 0x1 DUP2 ADD SWAP1 POP PUSH2 0x427 JUMP JUMPDEST POP POP JUMP JUMPDEST PUSH1 0x1F DUP3 GT ISZERO PUSH2 0x489 JUMPI PUSH2 0x45A DUP2 PUSH2 0x328 JUMP JUMPDEST PUSH2 0x463 DUP5 PUSH2 0x33A JUMP JUMPDEST DUP2 ADD PUSH1 0x20 DUP6 LT ISZERO PUSH2 0x472 JUMPI DUP2 SWAP1 POP JUMPDEST PUSH2 0x486 PUSH2 0x47E DUP6 PUSH2 0x33A JUMP JUMPDEST DUP4 ADD DUP3 PUSH2 0x426 JUMP JUMPDEST POP POP JUMPDEST POP POP POP JUMP JUMPDEST PUSH0 DUP3 DUP3 SHR SWAP1 POP SWAP3 SWAP2 POP POP JUMP JUMPDEST PUSH0 PUSH2 0x4A9 PUSH0 NOT DUP5 PUSH1 0x8 MUL PUSH2 0x48E JUMP JUMPDEST NOT DUP1 DUP4 AND SWAP2 POP POP SWAP3 SWAP2 POP POP JUMP JUMPDEST PUSH0 PUSH2 0x4C1 DUP4 DUP4 PUSH2 0x49A JUMP JUMPDEST SWAP2 POP DUP3 PUSH1 0x2 MUL DUP3 OR SWAP1 POP SWAP3 SWAP2 POP POP JUMP JUMPDEST PUSH2 0x4DA DUP3 PUSH2 0x294 JUMP JUMPDEST PUSH8 0xFFFFFFFFFFFFFFFF DUP2 GT ISZERO PUSH2 0x4F3 JUMPI PUSH2 0x4F2 PUSH2 0x29E JUMP JUMPDEST JUMPDEST PUSH2 0x4FD DUP3 SLOAD PUSH2 0x2F8 JUMP JUMPDEST PUSH2 0x508 DUP3 DUP3 DUP6 PUSH2 0x448 JUMP JUMPDEST PUSH0 PUSH1 0x20 SWAP1 POP PUSH1 0x1F DUP4 GT PUSH1 0x1 DUP2 EQ PUSH2 0x539 JUMPI PUSH0 DUP5 ISZERO PUSH2 0x527 JUMPI DUP3 DUP8 ADD MLOAD SWAP1 POP JUMPDEST PUSH2 0x531 DUP6 DUP3 PUSH2 0x4B6 JUMP JUMPDEST DUP7 SSTORE POP PUSH2 0x598 JUMP JUMPDEST PUSH1 0x1F NOT DUP5 AND PUSH2 0x547 DUP7 PUSH2 0x328 JUMP JUMPDEST PUSH0 JUMPDEST DUP3 DUP2 LT ISZERO PUSH2 0x56E JUMPI DUP5 DUP10 ADD MLOAD DUP3 SSTORE PUSH1 0x1 DUP3 ADD SWAP2 POP PUSH1 0x20 DUP6 ADD SWAP5 POP PUSH1 0x20 DUP2 ADD SWAP1 POP PUSH2 0x549 JUMP JUMPDEST DUP7 DUP4 LT ISZERO PUSH2 0x58B JUMPI DUP5 DUP10 ADD MLOAD PUSH2 0x587 PUSH1 0x1F DUP10 AND DUP3 PUSH2 0x49A JUMP JUMPDEST DUP4 SSTORE POP JUMPDEST PUSH1 0x1 PUSH1 0x2 DUP9 MUL ADD DUP9 SSTORE POP POP POP JUMPDEST POP POP POP POP POP POP JUMP JUMPDEST PUSH2 0x5A9 DUP2 PUSH2 0x22E JUMP JUMPDEST DUP3 MSTORE POP POP JUMP JUMPDEST PUSH0 PUSH1 0x20 DUP3 ADD SWAP1 POP PUSH2 0x5C2 PUSH0 DUP4 ADD DUP5 PUSH2 0x5A0 JUMP JUMPDEST SWAP3 SWAP2 POP POP JUMP JUMPDEST PUSH2 0x1327 DUP1 PUSH2 0x5D5 PUSH0 CODECOPY PUSH0 RETURN INVALID PUSH1 0x80 PUSH1 0x40 MSTORE CALLVALUE DUP1 ISZERO PUSH2 0xF JUMPI PUSH0 PUSH0 REVERT JUMPDEST POP PUSH1 0x4 CALLDATASIZE LT PUSH2 0xFE JUMPI PUSH0 CALLDATALOAD PUSH1 0xE0 SHR DUP1 PUSH4 0x70A08231 GT PUSH2 0x95 JUMPI DUP1 PUSH4 0x95D89B41 GT PUSH2 0x64 JUMPI DUP1 PUSH4 0x95D89B41 EQ PUSH2 0x262 JUMPI DUP1 PUSH4 0xA9059CBB EQ PUSH2 0x280 JUMPI DUP1 PUSH4 0xDD62ED3E EQ PUSH2 0x2B0 JUMPI DUP1 PUSH4 0xF2FDE38B EQ PUSH2 0x2E0 JUMPI PUSH2 0xFE JUMP JUMPDEST DUP1 PUSH4 0x70A08231 EQ PUSH2 0x200 JUMPI DUP1 PUSH4 0x715018A6 EQ PUSH2 0x230 JUMPI DUP1 PUSH4 0x8456CB59 EQ PUSH2 0x23A JUMPI DUP1 PUSH4 0x8DA5CB5B EQ PUSH2 0x244 JUMPI PUSH2 0xFE JUMP JUMPDEST DUP1 PUSH4 0x313CE567 GT PUSH2 0xD1 JUMPI DUP1 PUSH4 0x313CE567 EQ PUSH2 0x19E JUMPI DUP1 PUSH4 0x3F4BA83A EQ PUSH2 0x1BC JUMPI DUP1 PUSH4 0x40C10F19 EQ PUSH2 0x1C6 JUMPI DUP1 PUSH4 0x5C975ABB EQ PUSH2 0x1E2 JUMPI PUSH2 0xFE JUMP JUMPDEST DUP1 PUSH4 0x6FDDE03 EQ PUSH2 0x102 JUMPI DUP1 PUSH4 0x95EA7B3 EQ PUSH2 0x120 JUMPI DUP1 PUSH4 0x18160DDD EQ PUSH2 0x150 JUMPI DUP1 PUSH4 0x23B872DD EQ PUSH2 0x16E JUMPI JUMPDEST PUSH0 PUSH0 REVERT JUMPDEST PUSH2 0x10A PUSH2 0x2FC JUMP JUMPDEST PUSH1 0x40 MLOAD PUSH2 0x117 SWAP2 SWAP1 PUSH2 0xFA0 JUMP JUMPDEST PUSH1 0x40 MLOAD DUP1 SWAP2 SUB SWAP1 RETURN JUMPDEST PUSH2 0x13A PUSH1 0x4 DUP1 CALLDATASIZE SUB DUP2 ADD SWAP1 PUSH2 0x135 SWAP2 SWAP1 PUSH2 0x1051 JUMP JUMPDEST PUSH2 0x38C JUMP JUMPDEST PUSH1 0x40 MLOAD PUSH2 0x147 SWAP2 SWAP1 PUSH2 0x10A9 JUMP JUMPDEST PUSH1 0x40 MLOAD DUP1 SWAP2 SUB SWAP1 RETURN JUMPDEST PUSH2 0x158 PUSH2 0x3AE JUMP JUMPDEST PUSH1 0x40 MLOAD PUSH2 0x165 SWAP2 SWAP1 PUSH2 0x10D1 JUMP JUMPDEST PUSH1 0x40 MLOAD DUP1 SWAP2 SUB SWAP1 RETURN JUMPDEST PUSH2 0x188 PUSH1 0x4 DUP1 CALLDATASIZE SUB DUP2 ADD SWAP1 PUSH2 0x183 SWAP2 SWAP1 PUSH2 0x10EA JUMP JUMPDEST PUSH2 0x3B7 JUMP JUMPDEST PUSH1 0x40 MLOAD PUSH2 0x195 SWAP2 SWAP1 PUSH2 0x10A9 JUMP JUMPDEST PUSH1 0x40 MLOAD DUP1 SWAP2 SUB SWAP1 RETURN JUMPDEST PUSH2 0x1A6 PUSH2 0x3E5 JUMP JUMPDEST PUSH1 0x40 MLOAD PUSH2 0x1B3 SWAP2 SWAP1 PUSH2 0x1155 JUMP JUMPDEST PUSH1 0x40 MLOAD DUP1 SWAP2 SUB SWAP1 RETURN JUMPDEST PUSH2 0x1C4 PUSH2 0x3ED JUMP JUMPDEST STOP JUMPDEST PUSH2 0x1E0 PUSH1 0x4 DUP1 CALLDATASIZE SUB DUP2 ADD SWAP1 PUSH2 0x1DB SWAP2 SWAP1 PUSH2 0x1051 JUMP JUMPDEST PUSH2 0x3FF JUMP JUMPDEST STOP JUMPDEST PUSH2 0x1EA PUSH2 0x415 JUMP JUMPDEST PUSH1 0x40 MLOAD PUSH2 0x1F7 SWAP2 SWAP1 PUSH2 0x10A9 JUMP JUMPDEST PUSH1 0x40 MLOAD DUP1 SWAP2 SUB SWAP1 RETURN JUMPDEST PUSH2 0x21A PUSH1 0x4 DUP1 CALLDATASIZE SUB DUP2 ADD SWAP1 PUSH2 0x215 SWAP2 SWAP1 PUSH2 0x116E JUMP JUMPDEST PUSH2 0x42A JUMP JUMPDEST PUSH1 0x40 MLOAD PUSH2 0x227 SWAP2 SWAP1 PUSH2 0x10D1 JUMP JUMPDEST PUSH1 0x40 MLOAD DUP1 SWAP2 SUB SWAP1 RETURN JUMPDEST PUSH2 0x238 PUSH2 0x46F JUMP JUMPDEST STOP JUMPDEST PUSH2 0x242 PUSH2 0x482 JUMP JUMPDEST STOP JUMPDEST PUSH2 0x24C PUSH2 0x494 JUMP JUMPDEST PUSH1 0x40 MLOAD PUSH2 0x259 SWAP2 SWAP1 PUSH2 0x11A8 JUMP JUMPDEST PUSH1 0x40 MLOAD DUP1 SWAP2 SUB SWAP1 RETURN JUMPDEST PUSH2 0x26A PUSH2 0x4BD JUMP JUMPDEST PUSH1 0x40 MLOAD PUSH2 0x277 SWAP2 SWAP1 PUSH2 0xFA0 JUMP JUMPDEST PUSH1 0x40 MLOAD DUP1 SWAP2 SUB SWAP1 RETURN JUMPDEST PUSH2 0x29A PUSH1 0x4 DUP1 CALLDATASIZE SUB DUP2 ADD SWAP1 PUSH2 0x295 SWAP2 SWAP1 PUSH2 0x1051 JUMP JUMPDEST PUSH2 0x54D JUMP JUMPDEST PUSH1 0x40 MLOAD PUSH2 0x2A7 SWAP2 SWAP1 PUSH2 0x10A9 JUMP JUMPDEST PUSH1 0x40 MLOAD DUP1 SWAP2 SUB SWAP1 RETURN JUMPDEST PUSH2 0x2CA PUSH1 0x4 DUP1 CALLDATASIZE SUB DUP2 ADD SWAP1 PUSH2 0x2C5 SWAP2 SWAP1 PUSH2 0x11C1 JUMP JUMPDEST PUSH2 0x56F JUMP JUMPDEST PUSH1 0x40 MLOAD PUSH2 0x2D7 SWAP2 SWAP1 PUSH2 0x10D1 JUMP JUMPDEST PUSH1 0x40 MLOAD DUP1 SWAP2 SUB SWAP1 RETURN JUMPDEST PUSH2 0x2FA PUSH1 0x4 DUP1 CALLDATASIZE SUB DUP2 ADD SWAP1 PUSH2 0x2F5 SWAP2 SWAP1 PUSH2 0x116E JUMP JUMPDEST PUSH2 0x5F1 JUMP JUMPDEST STOP JUMPDEST PUSH1 0x60 PUSH1 0x3 DUP1 SLOAD PUSH2 0x30B SWAP1 PUSH2 0x122C JUMP JUMPDEST DUP1 PUSH1 0x1F ADD PUSH1 0x20 DUP1 SWAP2 DIV MUL PUSH1 0x20 ADD PUSH1 0x40 MLOAD SWAP1 DUP2 ADD PUSH1 0x40 MSTORE DUP1 SWAP3 SWAP2 SWAP1 DUP2 DUP2 MSTORE PUSH1 0x20 ADD DUP3 DUP1 SLOAD PUSH2 0x337 SWAP1 PUSH2 0x122C JUMP JUMPDEST DUP1 ISZERO PUSH2 0x382 JUMPI DUP1 PUSH1 0x1F LT PUSH2 0x359 JUMPI PUSH2 0x100 DUP1 DUP4 SLOAD DIV MUL DUP4 MSTORE SWAP2 PUSH1 0x20 ADD SWAP2 PUSH2 0x382 JUMP JUMPDEST DUP3 ADD SWAP2 SWAP1 PUSH0 MSTORE PUSH1 0x20 PUSH0 KECCAK256 SWAP1 JUMPDEST DUP2 SLOAD DUP2 MSTORE SWAP1 PUSH1 0x1 ADD SWAP1 PUSH1 0x20 ADD DUP1 DUP4 GT PUSH2 0x365 JUMPI DUP3 SWAP1 SUB PUSH1 0x1F AND DUP3 ADD SWAP2 JUMPDEST POP POP POP POP POP SWAP1 POP SWAP1 JUMP JUMPDEST PUSH0 PUSH0 PUSH2 0x396 PUSH2 0x675 JUMP JUMPDEST SWAP1 POP PUSH2 0x3A3 DUP2 DUP6 DUP6 PUSH2 0x67C JUMP JUMPDEST PUSH1 0x1 SWAP2 POP POP SWAP3 SWAP2 POP POP JUMP JUMPDEST PUSH0 PUSH1 0x2 SLOAD SWAP1 POP SWAP1 JUMP JUMPDEST PUSH0 PUSH0 PUSH2 0x3C1 PUSH2 0x675 JUMP JUMPDEST SWAP1 POP PUSH2 0x3CE DUP6 DUP3 DUP6 PUSH2 0x68E JUMP JUMPDEST PUSH2 0x3D9 DUP6 DUP6 DUP6 PUSH2 0x721 JUMP JUMPDEST PUSH1 0x1 SWAP2 POP POP SWAP4 SWAP3 POP POP POP JUMP JUMPDEST PUSH0 PUSH1 0x12 SWAP1 POP SWAP1 JUMP JUMPDEST PUSH2 0x3F5 PUSH2 0x811 JUMP JUMPDEST PUSH2 0x3FD PUSH2 0x898 JUMP JUMPDEST JUMP JUMPDEST PUSH2 0x407 PUSH2 0x811 JUMP JUMPDEST PUSH2 0x411 DUP3 DUP3 PUSH2 0x8F9 JUMP JUMPDEST POP POP JUMP JUMPDEST PUSH0 PUSH1 0x5 PUSH0 SWAP1 SLOAD SWAP1 PUSH2 0x100 EXP SWAP1 DIV PUSH1 0xFF AND SWAP1 POP SWAP1 JUMP JUMPDEST PUSH0 PUSH0 PUSH0 DUP4 PUSH20 0xFFFFFFFFFFFFFFFFFFFFFFFFFFFFFFFFFFFFFFFF AND PUSH20 0xFFFFFFFFFFFFFFFFFFFFFFFFFFFFFFFFFFFFFFFF AND DUP2 MSTORE PUSH1 0x20 ADD SWAP1 DUP2 MSTORE PUSH1 0x20 ADD PUSH0 KECCAK256 SLOAD SWAP1 POP SWAP2 SWAP1 POP JUMP JUMPDEST PUSH2 0x477 PUSH2 0x811 JUMP JUMPDEST PUSH2 0x480 PUSH0 PUSH2 0x978 JUMP JUMPDEST JUMP JUMPDEST PUSH2 0x48A PUSH2 0x811 JUMP JUMPDEST PUSH2 0x492 PUSH2 0xA3D JUMP JUMPDEST JUMP JUMPDEST PUSH0 PUSH1 0x5 PUSH1 0x1 SWAP1 SLOAD SWAP1 PUSH2 0x100 EXP SWAP1 DIV PUSH20 0xFFFFFFFFFFFFFFFFFFFFFFFFFFFFFFFFFFFFFFFF AND SWAP1 POP SWAP1 JUMP JUMPDEST PUSH1 0x60 PUSH1 0x4 DUP1 SLOAD PUSH2 0x4CC SWAP1 PUSH2 0x122C JUMP JUMPDEST DUP1 PUSH1 0x1F ADD PUSH1 0x20 DUP1 SWAP2 DIV MUL PUSH1 0x20 ADD PUSH1 0x40 MLOAD SWAP1 DUP2 ADD PUSH1 0x40 MSTORE DUP1 SWAP3 SWAP2 SWAP1 DUP2 DUP2 MSTORE PUSH1 0x20 ADD DUP3 DUP1 SLOAD PUSH2 0x4F8 SWAP1 PUSH2 0x122C JUMP JUMPDEST DUP1 ISZERO PUSH2 0x543 JUMPI DUP1 PUSH1 0x1F LT PUSH2 0x51A JUMPI PUSH2 0x100 DUP1 DUP4 SLOAD DIV MUL DUP4 MSTORE SWAP2 PUSH1 0x20 ADD SWAP2 PUSH2 0x543 JUMP JUMPDEST DUP3 ADD SWAP2 SWAP1 PUSH0 MSTORE PUSH1 0x20 PUSH0 KECCAK256 SWAP1 JUMPDEST DUP2 SLOAD DUP2 MSTORE SWAP1 PUSH1 0x1 ADD SWAP1 PUSH1 0x20 ADD DUP1 DUP4 GT PUSH2 0x526 JUMPI DUP3 SWAP1 SUB PUSH1 0x1F AND DUP3 ADD SWAP2 JUMPDEST POP POP POP POP POP SWAP1 POP SWAP1 JUMP JUMPDEST PUSH0 PUSH0 PUSH2 0x557 PUSH2 0x675 JUMP JUMPDEST SWAP1 POP PUSH2 0x564 DUP2 DUP6 DUP6 PUSH2 0x721 JUMP JUMPDEST PUSH1 0x1 SWAP2 POP POP SWAP3 SWAP2 POP POP JUMP JUMPDEST PUSH0 PUSH1 0x1 PUSH0 DUP5 PUSH20 0xFFFFFFFFFFFFFFFFFFFFFFFFFFFFFFFFFFFFFFFF AND PUSH20 0xFFFFFFFFFFFFFFFFFFFFFFFFFFFFFFFFFFFFFFFF AND DUP2 MSTORE PUSH1 0x20 ADD SWAP1 DUP2 MSTORE PUSH1 0x20 ADD PUSH0 KECCAK256 PUSH0 DUP4 PUSH20 0xFFFFFFFFFFFFFFFFFFFFFFFFFFFFFFFFFFFFFFFF AND PUSH20 0xFFFFFFFFFFFFFFFFFFFFFFFFFFFFFFFFFFFFFFFF AND DUP2 MSTORE PUSH1 0x20 ADD SWAP1 DUP2 MSTORE PUSH1 0x20 ADD PUSH0 KECCAK256 SLOAD SWAP1 POP SWAP3 SWAP2 POP POP JUMP JUMPDEST PUSH2 0x5F9 PUSH2 0x811 JUMP JUMPDEST PUSH0 PUSH20 0xFFFFFFFFFFFFFFFFFFFFFFFFFFFFFFFFFFFFFFFF AND DUP2 PUSH20 0xFFFFFFFFFFFFFFFFFFFFFFFFFFFFFFFFFFFFFFFF AND SUB PUSH2 0x669 JUMPI PUSH0 PUSH1 0x40 MLOAD PUSH32 0x1E4FBDF700000000000000000000000000000000000000000000000000000000 DUP2 MSTORE PUSH1 0x4 ADD PUSH2 0x660 SWAP2 SWAP1 PUSH2 0x11A8 JUMP JUMPDEST PUSH1 0x40 MLOAD DUP1 SWAP2 SUB SWAP1 REVERT JUMPDEST PUSH2 0x672 DUP2 PUSH2 0x978 JUMP JUMPDEST POP JUMP JUMPDEST PUSH0 CALLER SWAP1 POP SWAP1 JUMP JUMPDEST PUSH2 0x689 DUP4 DUP4 DUP4 PUSH1 0x1 PUSH2 0xA9F JUMP JUMPDEST POP POP POP JUMP JUMPDEST PUSH0 PUSH2 0x699 DUP5 DUP5 PUSH2 0x56F JUMP JUMPDEST SWAP1 POP PUSH32 0xFFFFFFFFFFFFFFFFFFFFFFFFFFFFFFFFFFFFFFFFFFFFFFFFFFFFFFFFFFFFFFFF DUP2 LT ISZERO PUSH2 0x71B JUMPI DUP2 DUP2 LT ISZERO PUSH2 0x70C JUMPI DUP3 DUP2 DUP4 PUSH1 0x40 MLOAD PUSH32 0xFB8F41B200000000000000000000000000000000000000000000000000000000 DUP2 MSTORE PUSH1 0x4 ADD PUSH2 0x703 SWAP4 SWAP3 SWAP2 SWAP1 PUSH2 0x125C JUMP JUMPDEST PUSH1 0x40 MLOAD DUP1 SWAP2 SUB SWAP1 REVERT JUMPDEST PUSH2 0x71A DUP5 DUP5 DUP5 DUP5 SUB PUSH0 PUSH2 0xA9F JUMP JUMPDEST JUMPDEST POP POP POP POP JUMP JUMPDEST PUSH0 PUSH20 0xFFFFFFFFFFFFFFFFFFFFFFFFFFFFFFFFFFFFFFFF AND DUP4 PUSH20 0xFFFFFFFFFFFFFFFFFFFFFFFFFFFFFFFFFFFFFFFF AND SUB PUSH2 0x791 JUMPI PUSH0 PUSH1 0x40 MLOAD PUSH32 0x96C6FD1E00000000000000000000000000000000000000000000000000000000 DUP2 MSTORE PUSH1 0x4 ADD PUSH2 0x788 SWAP2 SWAP1 PUSH2 0x11A8 JUMP JUMPDEST PUSH1 0x40 MLOAD DUP1 SWAP2 SUB SWAP1 REVERT JUMPDEST PUSH0 PUSH20 0xFFFFFFFFFFFFFFFFFFFFFFFFFFFFFFFFFFFFFFFF AND DUP3 PUSH20 0xFFFFFFFFFFFFFFFFFFFFFFFFFFFFFFFFFFFFFFFF AND SUB PUSH2 0x801 JUMPI PUSH0 PUSH1 0x40 MLOAD PUSH32 0xEC442F0500000000000000000000000000000000000000000000000000000000 DUP2 MSTORE PUSH1 0x4 ADD PUSH2 0x7F8 SWAP2 SWAP1 PUSH2 0x11A8 JUMP JUMPDEST PUSH1 0x40 MLOAD DUP1 SWAP2 SUB SWAP1 REVERT JUMPDEST PUSH2 0x80C DUP4 DUP4 DUP4 PUSH2 0xC6E JUMP JUMPDEST POP POP POP JUMP JUMPDEST PUSH2 0x819 PUSH2 0x675 JUMP JUMPDEST PUSH20 0xFFFFFFFFFFFFFFFFFFFFFFFFFFFFFFFFFFFFFFFF AND PUSH2 0x837 PUSH2 0x494 JUMP JUMPDEST PUSH20 0xFFFFFFFFFFFFFFFFFFFFFFFFFFFFFFFFFFFFFFFF AND EQ PUSH2 0x896 JUMPI PUSH2 0x85A PUSH2 0x675 JUMP JUMPDEST PUSH1 0x40 MLOAD PUSH32 0x118CDAA700000000000000000000000000000000000000000000000000000000 DUP2 MSTORE PUSH1 0x4 ADD PUSH2 0x88D SWAP2 SWAP1 PUSH2 0x11A8 JUMP JUMPDEST PUSH1 0x40 MLOAD DUP1 SWAP2 SUB SWAP1 REVERT JUMPDEST JUMP JUMPDEST PUSH2 0x8A0 PUSH2 0xC7E JUMP JUMPDEST PUSH0 PUSH1 0x5 PUSH0 PUSH2 0x100 EXP DUP2 SLOAD DUP2 PUSH1 0xFF MUL NOT AND SWAP1 DUP4 ISZERO ISZERO MUL OR SWAP1 SSTORE POP PUSH32 0x5DB9EE0A495BF2E6FF9C91A7834C1BA4FDD244A5E8AA4E537BD38AEAE4B073AA PUSH2 0x8E2 PUSH2 0x675 JUMP JUMPDEST PUSH1 0x40 MLOAD PUSH2 0x8EF SWAP2 SWAP1 PUSH2 0x11A8 JUMP JUMPDEST PUSH1 0x40 MLOAD DUP1 SWAP2 SUB SWAP1 LOG1 JUMP JUMPDEST PUSH0 PUSH20 0xFFFFFFFFFFFFFFFFFFFFFFFFFFFFFFFFFFFFFFFF AND DUP3 PUSH20 0xFFFFFFFFFFFFFFFFFFFFFFFFFFFFFFFFFFFFFFFF AND SUB PUSH2 0x969 JUMPI PUSH0 PUSH1 0x40 MLOAD PUSH32 0xEC442F0500000000000000000000000000000000000000000000000000000000 DUP2 MSTORE PUSH1 0x4 ADD PUSH2 0x960 SWAP2 SWAP1 PUSH2 0x11A8 JUMP JUMPDEST PUSH1 0x40 MLOAD DUP1 SWAP2 SUB SWAP1 REVERT JUMPDEST PUSH2 0x974 PUSH0 DUP4 DUP4 PUSH2 0xC6E JUMP JUMPDEST POP POP JUMP JUMPDEST PUSH0 PUSH1 0x5 PUSH1 0x1 SWAP1 SLOAD SWAP1 PUSH2 0x100 EXP SWAP1 DIV PUSH20 0xFFFFFFFFFFFFFFFFFFFFFFFFFFFFFFFFFFFFFFFF AND SWAP1 POP DUP2 PUSH1 0x5 PUSH1 0x1 PUSH2 0x100 EXP DUP2 SLOAD DUP2 PUSH20 0xFFFFFFFFFFFFFFFFFFFFFFFFFFFFFFFFFFFFFFFF MUL NOT AND SWAP1 DUP4 PUSH20 0xFFFFFFFFFFFFFFFFFFFFFFFFFFFFFFFFFFFFFFFF AND MUL OR SWAP1 SSTORE POP DUP2 PUSH20 0xFFFFFFFFFFFFFFFFFFFFFFFFFFFFFFFFFFFFFFFF AND DUP2 PUSH20 0xFFFFFFFFFFFFFFFFFFFFFFFFFFFFFFFFFFFFFFFF AND PUSH32 0x8BE0079C531659141344CD1FD0A4F28419497F9722A3DAAFE3B4186F6B6457E0 PUSH1 0x40 MLOAD PUSH1 0x40 MLOAD DUP1 SWAP2 SUB SWAP1 LOG3 POP POP JUMP JUMPDEST PUSH2 0xA45 PUSH2 0xCBE JUMP JUMPDEST PUSH1 0x1 PUSH1 0x5 PUSH0 PUSH2 0x100 EXP DUP2 SLOAD DUP2 PUSH1 0xFF MUL NOT AND SWAP1 DUP4 ISZERO ISZERO MUL OR SWAP1 SSTORE POP PUSH32 0x62E78CEA01BEE320CD4E420270B5EA74000D11B0C9F74754EBDBFC544B05A258 PUSH2 0xA88 PUSH2 0x675 JUMP JUMPDEST PUSH1 0x40 MLOAD PUSH2 0xA95 SWAP2 SWAP1 PUSH2 0x11A8 JUMP JUMPDEST PUSH1 0x40 MLOAD DUP1 SWAP2 SUB SWAP1 LOG1 JUMP JUMPDEST PUSH0 PUSH20 0xFFFFFFFFFFFFFFFFFFFFFFFFFFFFFFFFFFFFFFFF AND DUP5 PUSH20 0xFFFFFFFFFFFFFFFFFFFFFFFFFFFFFFFFFFFFFFFF AND SUB PUSH2 0xB0F JUMPI PUSH0 PUSH1 0x40 MLOAD PUSH32 0xE602DF0500000000000000000000000000000000000000000000000000000000 DUP2 MSTORE PUSH1 0x4 ADD PUSH2 0xB06 SWAP2 SWAP1 PUSH2 0x11A8 JUMP JUMPDEST PUSH1 0x40 MLOAD DUP1 SWAP2 SUB SWAP1 REVERT JUMPDEST PUSH0 PUSH20 0xFFFFFFFFFFFFFFFFFFFFFFFFFFFFFFFFFFFFFFFF AND DUP4 PUSH20 0xFFFFFFFFFFFFFFFFFFFFFFFFFFFFFFFFFFFFFFFF AND SUB PUSH2 0xB7F JUMPI PUSH0 PUSH1 0x40 MLOAD PUSH32 0x94280D6200000000000000000000000000000000000000000000000000000000 DUP2 MSTORE PUSH1 0x4 ADD PUSH2 0xB76 SWAP2 SWAP1 PUSH2 0x11A8 JUMP JUMPDEST PUSH1 0x40 MLOAD DUP1 SWAP2 SUB SWAP1 REVERT JUMPDEST DUP2 PUSH1 0x1 PUSH0 DUP7 PUSH20 0xFFFFFFFFFFFFFFFFFFFFFFFFFFFFFFFFFFFFFFFF AND PUSH20 0xFFFFFFFFFFFFFFFFFFFFFFFFFFFFFFFFFFFFFFFF AND DUP2 MSTORE PUSH1 0x20 ADD SWAP1 DUP2 MSTORE PUSH1 0x20 ADD PUSH0 KECCAK256 PUSH0 DUP6 PUSH20 0xFFFFFFFFFFFFFFFFFFFFFFFFFFFFFFFFFFFFFFFF AND PUSH20 0xFFFFFFFFFFFFFFFFFFFFFFFFFFFFFFFFFFFFFFFF AND DUP2 MSTORE PUSH1 0x20 ADD SWAP1 DUP2 MSTORE PUSH1 0x20 ADD PUSH0 KECCAK256 DUP2 SWAP1 SSTORE POP DUP1 ISZERO PUSH2 0xC68 JUMPI DUP3 PUSH20 0xFFFFFFFFFFFFFFFFFFFFFFFFFFFFFFFFFFFFFFFF AND DUP5 PUSH20 0xFFFFFFFFFFFFFFFFFFFFFFFFFFFFFFFFFFFFFFFF AND PUSH32 0x8C5BE1E5EBEC7D5BD14F71427D1E84F3DD0314C0F7B2291E5B200AC8C7C3B925 DUP5 PUSH1 0x40 MLOAD PUSH2 0xC5F SWAP2 SWAP1 PUSH2 0x10D1 JUMP JUMPDEST PUSH1 0x40 MLOAD DUP1 SWAP2 SUB SWAP1 LOG3 JUMPDEST POP POP POP POP JUMP JUMPDEST PUSH2 0xC79 DUP4 DUP4 DUP4 PUSH2 0xCFF JUMP JUMPDEST POP POP POP JUMP JUMPDEST PUSH2 0xC86 PUSH2 0x415 JUMP JUMPDEST PUSH2 0xCBC JUMPI PUSH1 0x40 MLOAD PUSH32 0x8DFC202B00000000000000000000000000000000000000000000000000000000 DUP2 MSTORE PUSH1 0x4 ADD PUSH1 0x40 MLOAD DUP1 SWAP2 SUB SWAP1 REVERT JUMPDEST JUMP JUMPDEST PUSH2 0xCC6 PUSH2 0x415 JUMP JUMPDEST ISZERO PUSH2 0xCFD JUMPI PUSH1 0x40 MLOAD PUSH32 0xD93C066500000000000000000000000000000000000000000000000000000000 DUP2 MSTORE PUSH1 0x4 ADD PUSH1 0x40 MLOAD DUP1 SWAP2 SUB SWAP1 REVERT JUMPDEST JUMP JUMPDEST PUSH2 0xD07 PUSH2 0xCBE JUMP JUMPDEST PUSH2 0xD12 DUP4 DUP4 DUP4 PUSH2 0xD17 JUMP JUMPDEST POP POP POP JUMP JUMPDEST PUSH0 PUSH20 0xFFFFFFFFFFFFFFFFFFFFFFFFFFFFFFFFFFFFFFFF AND DUP4 PUSH20 0xFFFFFFFFFFFFFFFFFFFFFFFFFFFFFFFFFFFFFFFF AND SUB PUSH2 0xD67 JUMPI DUP1 PUSH1 0x2 PUSH0 DUP3 DUP3 SLOAD PUSH2 0xD5B SWAP2 SWAP1 PUSH2 0x12BE JUMP JUMPDEST SWAP3 POP POP DUP2 SWAP1 SSTORE POP PUSH2 0xE35 JUMP JUMPDEST PUSH0 PUSH0 PUSH0 DUP6 PUSH20 0xFFFFFFFFFFFFFFFFFFFFFFFFFFFFFFFFFFFFFFFF AND PUSH20 0xFFFFFFFFFFFFFFFFFFFFFFFFFFFFFFFFFFFFFFFF AND DUP2 MSTORE PUSH1 0x20 ADD SWAP1 DUP2 MSTORE PUSH1 0x20 ADD PUSH0 KECCAK256 SLOAD SWAP1 POP DUP2 DUP2 LT ISZERO PUSH2 0xDF0 JUMPI DUP4 DUP2 DUP4 PUSH1 0x40 MLOAD PUSH32 0xE450D38C00000000000000000000000000000000000000000000000000000000 DUP2 MSTORE PUSH1 0x4 ADD PUSH2 0xDE7 SWAP4 SWAP3 SWAP2 SWAP1 PUSH2 0x125C JUMP JUMPDEST PUSH1 0x40 MLOAD DUP1 SWAP2 SUB SWAP1 REVERT JUMPDEST DUP2 DUP2 SUB PUSH0 PUSH0 DUP7 PUSH20 0xFFFFFFFFFFFFFFFFFFFFFFFFFFFFFFFFFFFFFFFF AND PUSH20 0xFFFFFFFFFFFFFFFFFFFFFFFFFFFFFFFFFFFFFFFF AND DUP2 MSTORE PUSH1 0x20 ADD SWAP1 DUP2 MSTORE PUSH1 0x20 ADD PUSH0 KECCAK256 DUP2 SWAP1 SSTORE POP POP JUMPDEST PUSH0 PUSH20 0xFFFFFFFFFFFFFFFFFFFFFFFFFFFFFFFFFFFFFFFF AND DUP3 PUSH20 0xFFFFFFFFFFFFFFFFFFFFFFFFFFFFFFFFFFFFFFFF AND SUB PUSH2 0xE7C JUMPI DUP1 PUSH1 0x2 PUSH0 DUP3 DUP3 SLOAD SUB SWAP3 POP POP DUP2 SWAP1 SSTORE POP PUSH2 0xEC6 JUMP JUMPDEST DUP1 PUSH0 PUSH0 DUP5 PUSH20 0xFFFFFFFFFFFFFFFFFFFFFFFFFFFFFFFFFFFFFFFF AND PUSH20 0xFFFFFFFFFFFFFFFFFFFFFFFFFFFFFFFFFFFFFFFF AND DUP2 MSTORE PUSH1 0x20 ADD SWAP1 DUP2 MSTORE PUSH1 0x20 ADD PUSH0 KECCAK256 PUSH0 DUP3 DUP3 SLOAD ADD SWAP3 POP POP DUP2 SWAP1 SSTORE POP JUMPDEST DUP2 PUSH20 0xFFFFFFFFFFFFFFFFFFFFFFFFFFFFFFFFFFFFFFFF AND DUP4 PUSH20 0xFFFFFFFFFFFFFFFFFFFFFFFFFFFFFFFFFFFFFFFF AND PUSH32 0xDDF252AD1BE2C89B69C2B068FC378DAA952BA7F163C4A11628F55A4DF523B3EF DUP4 PUSH1 0x40 MLOAD PUSH2 0xF23 SWAP2 SWAP1 PUSH2 0x10D1 JUMP JUMPDEST PUSH1 0x40 MLOAD DUP1 SWAP2 SUB SWAP1 LOG3 POP POP POP JUMP JUMPDEST PUSH0 DUP2 MLOAD SWAP1 POP SWAP2 SWAP1 POP JUMP JUMPDEST PUSH0 DUP3 DUP3 MSTORE PUSH1 0x20 DUP3 ADD SWAP1 POP SWAP3 SWAP2 POP POP JUMP JUMPDEST DUP3 DUP2 DUP4 MCOPY PUSH0 DUP4 DUP4 ADD MSTORE POP POP POP JUMP JUMPDEST PUSH0 PUSH1 0x1F NOT PUSH1 0x1F DUP4 ADD AND SWAP1 POP SWAP2 SWAP1 POP JUMP JUMPDEST PUSH0 PUSH2 0xF72 DUP3 PUSH2 0xF30 JUMP JUMPDEST PUSH2 0xF7C DUP2 DUP6 PUSH2 0xF3A JUMP JUMPDEST SWAP4 POP PUSH2 0xF8C DUP2 DUP6 PUSH1 0x20 DUP7 ADD PUSH2 0xF4A JUMP JUMPDEST PUSH2 0xF95 DUP2 PUSH2 0xF58 JUMP JUMPDEST DUP5 ADD SWAP2 POP POP SWAP3 SWAP2 POP POP JUMP JUMPDEST PUSH0 PUSH1 0x20 DUP3 ADD SWAP1 POP DUP2 DUP2 SUB PUSH0 DUP4 ADD MSTORE PUSH2 0xFB8 DUP2 DUP5 PUSH2 0xF68 JUMP JUMPDEST SWAP1 POP SWAP3 SWAP2 POP POP JUMP JUMPDEST PUSH0 PUSH0 REVERT JUMPDEST PUSH0 PUSH20 0xFFFFFFFFFFFFFFFFFFFFFFFFFFFFFFFFFFFFFFFF DUP3 AND SWAP1 POP SWAP2 SWAP1 POP JUMP JUMPDEST PUSH0 PUSH2 0xFED DUP3 PUSH2 0xFC4 JUMP JUMPDEST SWAP1 POP SWAP2 SWAP1 POP JUMP JUMPDEST PUSH2 0xFFD DUP2 PUSH2 0xFE3 JUMP JUMPDEST DUP2 EQ PUSH2 0x1007 JUMPI PUSH0 PUSH0 REVERT JUMPDEST POP JUMP JUMPDEST PUSH0 DUP2 CALLDATALOAD SWAP1 POP PUSH2 0x1018 DUP2 PUSH2 0xFF4 JUMP JUMPDEST SWAP3 SWAP2 POP POP JUMP JUMPDEST PUSH0 DUP2 SWAP1 POP SWAP2 SWAP1 POP JUMP JUMPDEST PUSH2 0x1030 DUP2 PUSH2 0x101E JUMP JUMPDEST DUP2 EQ PUSH2 0x103A JUMPI PUSH0 PUSH0 REVERT JUMPDEST POP JUMP JUMPDEST PUSH0 DUP2 CALLDATALOAD SWAP1 POP PUSH2 0x104B DUP2 PUSH2 0x1027 JUMP JUMPDEST SWAP3 SWAP2 POP POP JUMP JUMPDEST PUSH0 PUSH0 PUSH1 0x40 DUP4 DUP6 SUB SLT ISZERO PUSH2 0x1067 JUMPI PUSH2 0x1066 PUSH2 0xFC0 JUMP JUMPDEST JUMPDEST PUSH0 PUSH2 0x1074 DUP6 DUP3 DUP7 ADD PUSH2 0x100A JUMP JUMPDEST SWAP3 POP POP PUSH1 0x20 PUSH2 0x1085 DUP6 DUP3 DUP7 ADD PUSH2 0x103D JUMP JUMPDEST SWAP2 POP POP SWAP3 POP SWAP3 SWAP1 POP JUMP JUMPDEST PUSH0 DUP2 ISZERO ISZERO SWAP1 POP SWAP2 SWAP1 POP JUMP JUMPDEST PUSH2 0x10A3 DUP2 PUSH2 0x108F JUMP JUMPDEST DUP3 MSTORE POP POP JUMP JUMPDEST PUSH0 PUSH1 0x20 DUP3 ADD SWAP1 POP PUSH2 0x10BC PUSH0 DUP4 ADD DUP5 PUSH2 0x109A JUMP JUMPDEST SWAP3 SWAP2 POP POP JUMP JUMPDEST PUSH2 0x10CB DUP2 PUSH2 0x101E JUMP JUMPDEST DUP3 MSTORE POP POP JUMP JUMPDEST PUSH0 PUSH1 0x20 DUP3 ADD SWAP1 POP PUSH2 0x10E4 PUSH0 DUP4 ADD DUP5 PUSH2 0x10C2 JUMP JUMPDEST SWAP3 SWAP2 POP POP JUMP JUMPDEST PUSH0 PUSH0 PUSH0 PUSH1 0x60 DUP5 DUP7 SUB SLT ISZERO PUSH2 0x1101 JUMPI PUSH2 0x1100 PUSH2 0xFC0 JUMP JUMPDEST JUMPDEST PUSH0 PUSH2 0x110E DUP7 DUP3 DUP8 ADD PUSH2 0x100A JUMP JUMPDEST SWAP4 POP POP PUSH1 0x20 PUSH2 0x111F DUP7 DUP3 DUP8 ADD PUSH2 0x100A JUMP JUMPDEST SWAP3 POP POP PUSH1 0x40 PUSH2 0x1130 DUP7 DUP3 DUP8 ADD PUSH2 0x103D JUMP JUMPDEST SWAP2 POP POP SWAP3 POP SWAP3 POP SWAP3 JUMP JUMPDEST PUSH0 PUSH1 0xFF DUP3 AND SWAP1 POP SWAP2 SWAP1 POP JUMP JUMPDEST PUSH2 0x114F DUP2 PUSH2 0x113A JUMP JUMPDEST DUP3 MSTORE POP POP JUMP JUMPDEST PUSH0 PUSH1 0x20 DUP3 ADD SWAP1 POP PUSH2 0x1168 PUSH0 DUP4 ADD DUP5 PUSH2 0x1146 JUMP JUMPDEST SWAP3 SWAP2 POP POP JUMP JUMPDEST PUSH0 PUSH1 0x20 DUP3 DUP5 SUB SLT ISZERO PUSH2 0x1183 JUMPI PUSH2 0x1182 PUSH2 0xFC0 JUMP JUMPDEST JUMPDEST PUSH0 PUSH2 0x1190 DUP5 DUP3 DUP6 ADD PUSH2 0x100A JUMP JUMPDEST SWAP2 POP POP SWAP3 SWAP2 POP POP JUMP JUMPDEST PUSH2 0x11A2 DUP2 PUSH2 0xFE3 JUMP JUMPDEST DUP3 MSTORE POP POP JUMP JUMPDEST PUSH0 PUSH1 0x20 DUP3 ADD SWAP1 POP PUSH2 0x11BB PUSH0 DUP4 ADD DUP5 PUSH2 0x1199 JUMP JUMPDEST SWAP3 SWAP2 POP POP JUMP JUMPDEST PUSH0 PUSH0 PUSH1 0x40 DUP4 DUP6 SUB SLT ISZERO PUSH2 0x11D7 JUMPI PUSH2 0x11D6 PUSH2 0xFC0 JUMP JUMPDEST JUMPDEST PUSH0 PUSH2 0x11E4 DUP6 DUP3 DUP7 ADD PUSH2 0x100A JUMP JUMPDEST SWAP3 POP POP PUSH1 0x20 PUSH2 0x11F5 DUP6 DUP3 DUP7 ADD PUSH2 0x100A JUMP JUMPDEST SWAP2 POP POP SWAP3 POP SWAP3 SWAP1 POP JUMP JUMPDEST PUSH32 0x4E487B7100000000000000000000000000000000000000000000000000000000 PUSH0 MSTORE PUSH1 0x22 PUSH1 0x4 MSTORE PUSH1 0x24 PUSH0 REVERT JUMPDEST PUSH0 PUSH1 0x2 DUP3 DIV SWAP1 POP PUSH1 0x1 DUP3 AND DUP1 PUSH2 0x1243 JUMPI PUSH1 0x7F DUP3 AND SWAP2 POP JUMPDEST PUSH1 0x20 DUP3 LT DUP2 SUB PUSH2 0x1256 JUMPI PUSH2 0x1255 PUSH2 0x11FF JUMP JUMPDEST JUMPDEST POP SWAP2 SWAP1 POP JUMP JUMPDEST PUSH0 PUSH1 0x60 DUP3 ADD SWAP1 POP PUSH2 0x126F PUSH0 DUP4 ADD DUP7 PUSH2 0x1199 JUMP JUMPDEST PUSH2 0x127C PUSH1 0x20 DUP4 ADD DUP6 PUSH2 0x10C2 JUMP JUMPDEST PUSH2 0x1289 PUSH1 0x40 DUP4 ADD DUP5 PUSH2 0x10C2 JUMP JUMPDEST SWAP5 SWAP4 POP POP POP POP JUMP JUMPDEST PUSH32 0x4E487B7100000000000000000000000000000000000000000000000000000000 PUSH0 MSTORE PUSH1 0x11 PUSH1 0x4 MSTORE PUSH1 0x24 PUSH0 REVERT JUMPDEST PUSH0 PUSH2 0x12C8 DUP3 PUSH2 0x101E JUMP JUMPDEST SWAP2 POP PUSH2 0x12D3 DUP4 PUSH2 0x101E JUMP JUMPDEST SWAP3 POP DUP3 DUP3 ADD SWAP1 POP DUP1 DUP3 GT ISZERO PUSH2 0x12EB JUMPI PUSH2 0x12EA PUSH2 0x1291 JUMP JUMPDEST JUMPDEST SWAP3 SWAP2 POP POP JUMP INVALID LOG2 PUSH5 0x6970667358 0x22 SLT KECCAK256 PUSH25 0xE29A3F6E307433AF1C1F2A26A13C2ADEA3368BF69B14010653 INVALID 0xC7 PUSH15 0x67203B64736F6C634300081B003300 "
		},
		"gasEstimates": {
			"creation": {
				"codeDepositCost": "980600",
				"executionCost": "infinite",
				"totalCost": "infinite"
			},
			"external": {
				"allowance(address,address)": "infinite",
				"approve(address,uint256)": "infinite",
				"balanceOf(address)": "2851",
				"decimals()": "361",
				"mint(address,uint256)": "infinite",
				"name()": "infinite",
				"owner()": "2655",
				"pause()": "infinite",
				"paused()": "2562",
				"renounceOwnership()": "infinite",
				"symbol()": "infinite",
				"totalSupply()": "2500",
				"transfer(address,uint256)": "infinite",
				"transferFrom(address,address,uint256)": "infinite",
				"transferOwnership(address)": "infinite",
				"unpause()": "infinite"
			},
			"internal": {
				"_update(address,address,uint256)": "infinite"
			}
		},
		"methodIdentifiers": {
			"allowance(address,address)": "dd62ed3e",
			"approve(address,uint256)": "095ea7b3",
			"balanceOf(address)": "70a08231",
			"decimals()": "313ce567",
			"mint(address,uint256)": "40c10f19",
			"name()": "06fdde03",
			"owner()": "8da5cb5b",
			"pause()": "8456cb59",
			"paused()": "5c975abb",
			"renounceOwnership()": "715018a6",
			"symbol()": "95d89b41",
			"totalSupply()": "18160ddd",
			"transfer(address,uint256)": "a9059cbb",
			"transferFrom(address,address,uint256)": "23b872dd",
			"transferOwnership(address)": "f2fde38b",
			"unpause()": "3f4ba83a"
		}
	},
	"abi": [
		{
			"inputs": [
				{
					"internalType": "address",
					"name": "initialOwner",
					"type": "address"
				}
			],
			"stateMutability": "nonpayable",
			"type": "constructor"
		},
		{
			"inputs": [
				{
					"internalType": "address",
					"name": "spender",
					"type": "address"
				},
				{
					"internalType": "uint256",
					"name": "allowance",
					"type": "uint256"
				},
				{
					"internalType": "uint256",
					"name": "needed",
					"type": "uint256"
				}
			],
			"name": "ERC20InsufficientAllowance",
			"type": "error"
		},
		{
			"inputs": [
				{
					"internalType": "address",
					"name": "sender",
					"type": "address"
				},
				{
					"internalType": "uint256",
					"name": "balance",
					"type": "uint256"
				},
				{
					"internalType": "uint256",
					"name": "needed",
					"type": "uint256"
				}
			],
			"name": "ERC20InsufficientBalance",
			"type": "error"
		},
		{
			"inputs": [
				{
					"internalType": "address",
					"name": "approver",
					"type": "address"
				}
			],
			"name": "ERC20InvalidApprover",
			"type": "error"
		},
		{
			"inputs": [
				{
					"internalType": "address",
					"name": "receiver",
					"type": "address"
				}
			],
			"name": "ERC20InvalidReceiver",
			"type": "error"
		},
		{
			"inputs": [
				{
					"internalType": "address",
					"name": "sender",
					"type": "address"
				}
			],
			"name": "ERC20InvalidSender",
			"type": "error"
		},
		{
			"inputs": [
				{
					"internalType": "address",
					"name": "spender",
					"type": "address"
				}
			],
			"name": "ERC20InvalidSpender",
			"type": "error"
		},
		{
			"inputs": [],
			"name": "EnforcedPause",
			"type": "error"
		},
		{
			"inputs": [],
			"name": "ExpectedPause",
			"type": "error"
		},
		{
			"inputs": [
				{
					"internalType": "address",
					"name": "owner",
					"type": "address"
				}
			],
			"name": "OwnableInvalidOwner",
			"type": "error"
		},
		{
			"inputs": [
				{
					"internalType": "address",
					"name": "account",
					"type": "address"
				}
			],
			"name": "OwnableUnauthorizedAccount",
			"type": "error"
		},
		{
			"anonymous": false,
			"inputs": [
				{
					"indexed": true,
					"internalType": "address",
					"name": "owner",
					"type": "address"
				},
				{
					"indexed": true,
					"internalType": "address",
					"name": "spender",
					"type": "address"
				},
				{
					"indexed": false,
					"internalType": "uint256",
					"name": "value",
					"type": "uint256"
				}
			],
			"name": "Approval",
			"type": "event"
		},
		{
			"anonymous": false,
			"inputs": [
				{
					"indexed": true,
					"internalType": "address",
					"name": "previousOwner",
					"type": "address"
				},
				{
					"indexed": true,
					"internalType": "address",
					"name": "newOwner",
					"type": "address"
				}
			],
			"name": "OwnershipTransferred",
			"type": "event"
		},
		{
			"anonymous": false,
			"inputs": [
				{
					"indexed": false,
					"internalType": "address",
					"name": "account",
					"type": "address"
				}
			],
			"name": "Paused",
			"type": "event"
		},
		{
			"anonymous": false,
			"inputs": [
				{
					"indexed": true,
					"internalType": "address",
					"name": "from",
					"type": "address"
				},
				{
					"indexed": true,
					"internalType": "address",
					"name": "to",
					"type": "address"
				},
				{
					"indexed": false,
					"internalType": "uint256",
					"name": "value",
					"type": "uint256"
				}
			],
			"name": "Transfer",
			"type": "event"
		},
		{
			"anonymous": false,
			"inputs": [
				{
					"indexed": false,
					"internalType": "address",
					"name": "account",
					"type": "address"
				}
			],
			"name": "Unpaused",
			"type": "event"
		},
		{
			"inputs": [
				{
					"internalType": "address",
					"name": "owner",
					"type": "address"
				},
				{
					"internalType": "address",
					"name": "spender",
					"type": "address"
				}
			],
			"name": "allowance",
			"outputs": [
				{
					"internalType": "uint256",
					"name": "",
					"type": "uint256"
				}
			],
			"stateMutability": "view",
			"type": "function"
		},
		{
			"inputs": [
				{
					"internalType": "address",
					"name": "spender",
					"type": "address"
				},
				{
					"internalType": "uint256",
					"name": "value",
					"type": "uint256"
				}
			],
			"name": "approve",
			"outputs": [
				{
					"internalType": "bool",
					"name": "",
					"type": "bool"
				}
			],
			"stateMutability": "nonpayable",
			"type": "function"
		},
		{
			"inputs": [
				{
					"internalType": "address",
					"name": "account",
					"type": "address"
				}
			],
			"name": "balanceOf",
			"outputs": [
				{
					"internalType": "uint256",
					"name": "",
					"type": "uint256"
				}
			],
			"stateMutability": "view",
			"type": "function"
		},
		{
			"inputs": [],
			"name": "decimals",
			"outputs": [
				{
					"internalType": "uint8",
					"name": "",
					"type": "uint8"
				}
			],
			"stateMutability": "view",
			"type": "function"
		},
		{
			"inputs": [
				{
					"internalType": "address",
					"name": "to",
					"type": "address"
				},
				{
					"internalType": "uint256",
					"name": "amount",
					"type": "uint256"
				}
			],
			"name": "mint",
			"outputs": [],
			"stateMutability": "nonpayable",
			"type": "function"
		},
		{
			"inputs": [],
			"name": "name",
			"outputs": [
				{
					"internalType": "string",
					"name": "",
					"type": "string"
				}
			],
			"stateMutability": "view",
			"type": "function"
		},
		{
			"inputs": [],
			"name": "owner",
			"outputs": [
				{
					"internalType": "address",
					"name": "",
					"type": "address"
				}
			],
			"stateMutability": "view",
			"type": "function"
		},
		{
			"inputs": [],
			"name": "pause",
			"outputs": [],
			"stateMutability": "nonpayable",
			"type": "function"
		},
		{
			"inputs": [],
			"name": "paused",
			"outputs": [
				{
					"internalType": "bool",
					"name": "",
					"type": "bool"
				}
			],
			"stateMutability": "view",
			"type": "function"
		},
		{
			"inputs": [],
			"name": "renounceOwnership",
			"outputs": [],
			"stateMutability": "nonpayable",
			"type": "function"
		},
		{
			"inputs": [],
			"name": "symbol",
			"outputs": [
				{
					"internalType": "string",
					"name": "",
					"type": "string"
				}
			],
			"stateMutability": "view",
			"type": "function"
		},
		{
			"inputs": [],
			"name": "totalSupply",
			"outputs": [
				{
					"internalType": "uint256",
					"name": "",
					"type": "uint256"
				}
			],
			"stateMutability": "view",
			"type": "function"
		},
		{
			"inputs": [
				{
					"internalType": "address",
					"name": "to",
					"type": "address"
				},
				{
					"internalType": "uint256",
					"name": "value",
					"type": "uint256"
				}
			],
			"name": "transfer",
			"outputs": [
				{
					"internalType": "bool",
					"name": "",
					"type": "bool"
				}
			],
			"stateMutability": "nonpayable",
			"type": "function"
		},
		{
			"inputs": [
				{
					"internalType": "address",
					"name": "from",
					"type": "address"
				},
				{
					"internalType": "address",
					"name": "to",
					"type": "address"
				},
				{
					"internalType": "uint256",
					"name": "value",
					"type": "uint256"
				}
			],
			"name": "transferFrom",
			"outputs": [
				{
					"internalType": "bool",
					"name": "",
					"type": "bool"
				}
			],
			"stateMutability": "nonpayable",
			"type": "function"
		},
		{
			"inputs": [
				{
					"internalType": "address",
					"name": "newOwner",
					"type": "address"
				}
			],
			"name": "transferOwnership",
			"outputs": [],
			"stateMutability": "nonpayable",
			"type": "function"
		},
		{
			"inputs": [],
			"name": "unpause",
			"outputs": [],
			"stateMutability": "nonpayable",
			"type": "function"
		}
	]
}