{
	"data": {
		"bytecode": {
			"linkReferences": {},
			"object": "608060405234801561000f575f5ffd5b506040516122cf3803806122cf83398181016040528101906100319190610269565b806040518060400160405280600e81526020017f4c6971756964697479546f6b656e0000000000000000000000000000000000008152506040518060400160405280600381526020017f4c544b000000000000000000000000000000000000000000000000000000000081525081600390816100ad91906104d1565b5080600490816100bd91906104d1565b5050505f73ffffffffffffffffffffffffffffffffffffffff168173ffffffffffffffffffffffffffffffffffffffff1603610130575f6040517f1e4fbdf700000000000000000000000000000000000000000000000000000000815260040161012791906105af565b60405180910390fd5b61013f8161014660201b60201c565b50506105c8565b5f600560019054906101000a900473ffffffffffffffffffffffffffffffffffffffff16905081600560016101000a81548173ffffffffffffffffffffffffffffffffffffffff021916908373ffffffffffffffffffffffffffffffffffffffff1602179055508173ffffffffffffffffffffffffffffffffffffffff168173ffffffffffffffffffffffffffffffffffffffff167f8be0079c531659141344cd1fd0a4f28419497f9722a3daafe3b4186f6b6457e060405160405180910390a35050565b5f5ffd5b5f73ffffffffffffffffffffffffffffffffffffffff82169050919050565b5f6102388261020f565b9050919050565b6102488161022e565b8114610252575f5ffd5b50565b5f815190506102638161023f565b92915050565b5f6020828403121561027e5761027d61020b565b5b5f61028b84828501610255565b91505092915050565b5f81519050919050565b7f4e487b71000000000000000000000000000000000000000000000000000000005f52604160045260245ffd5b7f4e487b71000000000000000000000000000000000000000000000000000000005f52602260045260245ffd5b5f600282049050600182168061030f57607f821691505b602082108103610322576103216102cb565b5b50919050565b5f819050815f5260205f209050919050565b5f6020601f8301049050919050565b5f82821b905092915050565b5f600883026103847fffffffffffffffffffffffffffffffffffffffffffffffffffffffffffffffff82610349565b61038e8683610349565b95508019841693508086168417925050509392505050565b5f819050919050565b5f819050919050565b5f6103d26103cd6103c8846103a6565b6103af565b6103a6565b9050919050565b5f819050919050565b6103eb836103b8565b6103ff6103f7826103d9565b848454610355565b825550505050565b5f5f905090565b610416610407565b6104218184846103e2565b505050565b5b81811015610444576104395f8261040e565b600181019050610427565b5050565b601f8211156104895761045a81610328565b6104638461033a565b81016020851015610472578190505b61048661047e8561033a565b830182610426565b50505b505050565b5f82821c905092915050565b5f6104a95f198460080261048e565b1980831691505092915050565b5f6104c1838361049a565b9150826002028217905092915050565b6104da82610294565b67ffffffffffffffff8111156104f3576104f261029e565b5b6104fd82546102f8565b610508828285610448565b5f60209050601f831160018114610539575f8415610527578287015190505b61053185826104b6565b865550610598565b601f19841661054786610328565b5f5b8281101561056e57848901518255600182019150602085019450602081019050610549565b8683101561058b5784890151610587601f89168261049a565b8355505b6001600288020188555050505b505050505050565b6105a98161022e565b82525050565b5f6020820190506105c25f8301846105a0565b92915050565b611cfa806105d55f395ff3fe608060405234801561000f575f5ffd5b50600436106100fe575f3560e01c8063715018a611610095578063a9059cbb11610064578063a9059cbb14610264578063dd62ed3e14610294578063e8e33700146102c4578063f2fde38b146102f6576100fe565b8063715018a6146102145780638456cb591461021e5780638da5cb5b1461022857806395d89b4114610246576100fe565b8063313ce567116100d1578063313ce5671461019e5780633f4ba83a146101bc5780635c975abb146101c657806370a08231146101e4576100fe565b806306fdde0314610102578063095ea7b31461012057806318160ddd1461015057806323b872dd1461016e575b5f5ffd5b61010a610312565b604051610117919061144e565b60405180910390f35b61013a600480360381019061013591906114ff565b6103a2565b6040516101479190611557565b60405180910390f35b6101586103c4565b604051610165919061157f565b60405180910390f35b61018860048036038101906101839190611598565b6103cd565b6040516101959190611557565b60405180910390f35b6101a66103fb565b6040516101b39190611603565b60405180910390f35b6101c4610403565b005b6101ce610415565b6040516101db9190611557565b60405180910390f35b6101fe60048036038101906101f9919061161c565b61042a565b60405161020b919061157f565b60405180910390f35b61021c61046f565b005b610226610482565b005b610230610494565b60405161023d9190611656565b60405180910390f35b61024e6104bd565b60405161025b919061144e565b60405180910390f35b61027e600480360381019061027991906114ff565b61054d565b60405161028b9190611557565b60405180910390f35b6102ae60048036038101906102a9919061166f565b61056f565b6040516102bb919061157f565b60405180910390f35b6102de60048036038101906102d991906116ad565b6105f1565b6040516102ed9392919061175e565b60405180910390f35b610310600480360381019061030b919061161c565b610a9b565b005b606060038054610321906117c0565b80601f016020809104026020016040519081016040528092919081815260200182805461034d906117c0565b80156103985780601f1061036f57610100808354040283529160200191610398565b820191905f5260205f20905b81548152906001019060200180831161037b57829003601f168201915b5050505050905090565b5f5f6103ac610b1f565b90506103b9818585610b26565b600191505092915050565b5f600254905090565b5f5f6103d7610b1f565b90506103e4858285610b38565b6103ef858585610bcb565b60019150509392505050565b5f6012905090565b61040b610cbb565b610413610d42565b565b5f60055f9054906101000a900460ff16905090565b5f5f5f8373ffffffffffffffffffffffffffffffffffffffff1673ffffffffffffffffffffffffffffffffffffffff1681526020019081526020015f20549050919050565b610477610cbb565b6104805f610da3565b565b61048a610cbb565b610492610e68565b565b5f600560019054906101000a900473ffffffffffffffffffffffffffffffffffffffff16905090565b6060600480546104cc906117c0565b80601f01602080910402602001604051908101604052809291908181526020018280546104f8906117c0565b80156105435780601f1061051a57610100808354040283529160200191610543565b820191905f5260205f20905b81548152906001019060200180831161052657829003601f168201915b5050505050905090565b5f5f610557610b1f565b9050610564818585610bcb565b600191505092915050565b5f60015f8473ffffffffffffffffffffffffffffffffffffffff1673ffffffffffffffffffffffffffffffffffffffff1681526020019081526020015f205f8373ffffffffffffffffffffffffffffffffffffffff1673ffffffffffffffffffffffffffffffffffffffff1681526020019081526020015f2054905092915050565b5f5f5f5f73ffffffffffffffffffffffffffffffffffffffff168b73ffffffffffffffffffffffffffffffffffffffff161415801561065c57505f73ffffffffffffffffffffffffffffffffffffffff168a73ffffffffffffffffffffffffffffffffffffffff1614155b61069b576040517f08c379a00000000000000000000000000000000000000000000000000000000081526004016106929061183a565b60405180910390fd5b5f73ffffffffffffffffffffffffffffffffffffffff168573ffffffffffffffffffffffffffffffffffffffff1603610709576040517f08c379a0000000000000000000000000000000000000000000000000000000008152600401610700906118a2565b60405180910390fd5b5f8911158061071857505f8811155b610757576040517f08c379a000000000000000000000000000000000000000000000000000000000815260040161074e9061190a565b60405180910390fd5b6107618989610eca565b80935081945050508683116107ab576040517f08c379a00000000000000000000000000000000000000000000000000000000081526004016107a290611972565b60405180910390fd5b8582116107ed576040517f08c379a00000000000000000000000000000000000000000000000000000000081526004016107e4906119da565b60405180910390fd5b828b73ffffffffffffffffffffffffffffffffffffffff166370a08231336040518263ffffffff1660e01b81526004016108279190611656565b602060405180830381865afa158015610842573d5f5f3e3d5ffd5b505050506040513d601f19601f820116820180604052508101906108669190611a0c565b10156108a7576040517f08c379a000000000000000000000000000000000000000000000000000000000815260040161089e90611a81565b60405180910390fd5b818a73ffffffffffffffffffffffffffffffffffffffff166370a08231336040518263ffffffff1660e01b81526004016108e19190611656565b602060405180830381865afa1580156108fc573d5f5f3e3d5ffd5b505050506040513d601f19601f820116820180604052508101906109209190611a0c565b1015610961576040517f08c379a000000000000000000000000000000000000000000000000000000000815260040161095890611ae9565b60405180910390fd5b8260065f8282546109729190611b34565b925050819055508160075f82825461098a9190611b34565b925050819055508a73ffffffffffffffffffffffffffffffffffffffff166323b872dd3330866040518463ffffffff1660e01b81526004016109ce93929190611b67565b6020604051808303815f875af11580156109ea573d5f5f3e3d5ffd5b505050506040513d601f19601f82011682018060405250810190610a0e9190611bc6565b508973ffffffffffffffffffffffffffffffffffffffff166323b872dd3330856040518463ffffffff1660e01b8152600401610a4c93929190611b67565b6020604051808303815f875af1158015610a68573d5f5f3e3d5ffd5b505050506040513d601f19601f82011682018060405250810190610a8c9190611bc6565b50985098509895505050505050565b610aa3610cbb565b5f73ffffffffffffffffffffffffffffffffffffffff168173ffffffffffffffffffffffffffffffffffffffff1603610b13575f6040517f1e4fbdf7000000000000000000000000000000000000000000000000000000008152600401610b0a9190611656565b60405180910390fd5b610b1c81610da3565b50565b5f33905090565b610b338383836001610f4d565b505050565b5f610b43848461056f565b90507fffffffffffffffffffffffffffffffffffffffffffffffffffffffffffffffff811015610bc55781811015610bb6578281836040517ffb8f41b2000000000000000000000000000000000000000000000000000000008152600401610bad93929190611bf1565b60405180910390fd5b610bc484848484035f610f4d565b5b50505050565b5f73ffffffffffffffffffffffffffffffffffffffff168373ffffffffffffffffffffffffffffffffffffffff1603610c3b575f6040517f96c6fd1e000000000000000000000000000000000000000000000000000000008152600401610c329190611656565b60405180910390fd5b5f73ffffffffffffffffffffffffffffffffffffffff168273ffffffffffffffffffffffffffffffffffffffff1603610cab575f6040517fec442f05000000000000000000000000000000000000000000000000000000008152600401610ca29190611656565b60405180910390fd5b610cb683838361111c565b505050565b610cc3610b1f565b73ffffffffffffffffffffffffffffffffffffffff16610ce1610494565b73ffffffffffffffffffffffffffffffffffffffff1614610d4057610d04610b1f565b6040517f118cdaa7000000000000000000000000000000000000000000000000000000008152600401610d379190611656565b60405180910390fd5b565b610d4a61112c565b5f60055f6101000a81548160ff0219169083151502179055507f5db9ee0a495bf2e6ff9c91a7834c1ba4fdd244a5e8aa4e537bd38aeae4b073aa610d8c610b1f565b604051610d999190611656565b60405180910390a1565b5f600560019054906101000a900473ffffffffffffffffffffffffffffffffffffffff16905081600560016101000a81548173ffffffffffffffffffffffffffffffffffffffff021916908373ffffffffffffffffffffffffffffffffffffffff1602179055508173ffffffffffffffffffffffffffffffffffffffff168173ffffffffffffffffffffffffffffffffffffffff167f8be0079c531659141344cd1fd0a4f28419497f9722a3daafe3b4186f6b6457e060405160405180910390a35050565b610e7061116c565b600160055f6101000a81548160ff0219169083151502179055507f62e78cea01bee320cd4e420270b5ea74000d11b0c9f74754ebdbfc544b05a258610eb3610b1f565b604051610ec09190611656565b60405180910390a1565b5f5f5f600654148015610ede57505f600754145b15610eee57838391509150610f46565b5f60065460075486610f009190611c26565b610f0a9190611c94565b9050838111610f1f5784819250925050610f46565b5f60075460065486610f319190611c26565b610f3b9190611c94565b905080859350935050505b9250929050565b5f73ffffffffffffffffffffffffffffffffffffffff168473ffffffffffffffffffffffffffffffffffffffff1603610fbd575f6040517fe602df05000000000000000000000000000000000000000000000000000000008152600401610fb49190611656565b60405180910390fd5b5f73ffffffffffffffffffffffffffffffffffffffff168373ffffffffffffffffffffffffffffffffffffffff160361102d575f6040517f94280d620000000000000000000000000000000000000000000000000000000081526004016110249190611656565b60405180910390fd5b8160015f8673ffffffffffffffffffffffffffffffffffffffff1673ffffffffffffffffffffffffffffffffffffffff1681526020019081526020015f205f8573ffffffffffffffffffffffffffffffffffffffff1673ffffffffffffffffffffffffffffffffffffffff1681526020019081526020015f20819055508015611116578273ffffffffffffffffffffffffffffffffffffffff168473ffffffffffffffffffffffffffffffffffffffff167f8c5be1e5ebec7d5bd14f71427d1e84f3dd0314c0f7b2291e5b200ac8c7c3b9258460405161110d919061157f565b60405180910390a35b50505050565b6111278383836111ad565b505050565b611134610415565b61116a576040517f8dfc202b00000000000000000000000000000000000000000000000000000000815260040160405180910390fd5b565b611174610415565b156111ab576040517fd93c066500000000000000000000000000000000000000000000000000000000815260040160405180910390fd5b565b6111b561116c565b6111c08383836111c5565b505050565b5f73ffffffffffffffffffffffffffffffffffffffff168373ffffffffffffffffffffffffffffffffffffffff1603611215578060025f8282546112099190611b34565b925050819055506112e3565b5f5f5f8573ffffffffffffffffffffffffffffffffffffffff1673ffffffffffffffffffffffffffffffffffffffff1681526020019081526020015f205490508181101561129e578381836040517fe450d38c00000000000000000000000000000000000000000000000000000000815260040161129593929190611bf1565b60405180910390fd5b8181035f5f8673ffffffffffffffffffffffffffffffffffffffff1673ffffffffffffffffffffffffffffffffffffffff1681526020019081526020015f2081905550505b5f73ffffffffffffffffffffffffffffffffffffffff168273ffffffffffffffffffffffffffffffffffffffff160361132a578060025f8282540392505081905550611374565b805f5f8473ffffffffffffffffffffffffffffffffffffffff1673ffffffffffffffffffffffffffffffffffffffff1681526020019081526020015f205f82825401925050819055505b8173ffffffffffffffffffffffffffffffffffffffff168373ffffffffffffffffffffffffffffffffffffffff167fddf252ad1be2c89b69c2b068fc378daa952ba7f163c4a11628f55a4df523b3ef836040516113d1919061157f565b60405180910390a3505050565b5f81519050919050565b5f82825260208201905092915050565b8281835e5f83830152505050565b5f601f19601f8301169050919050565b5f611420826113de565b61142a81856113e8565b935061143a8185602086016113f8565b61144381611406565b840191505092915050565b5f6020820190508181035f8301526114668184611416565b905092915050565b5f5ffd5b5f73ffffffffffffffffffffffffffffffffffffffff82169050919050565b5f61149b82611472565b9050919050565b6114ab81611491565b81146114b5575f5ffd5b50565b5f813590506114c6816114a2565b92915050565b5f819050919050565b6114de816114cc565b81146114e8575f5ffd5b50565b5f813590506114f9816114d5565b92915050565b5f5f604083850312156115155761151461146e565b5b5f611522858286016114b8565b9250506020611533858286016114eb565b9150509250929050565b5f8115159050919050565b6115518161153d565b82525050565b5f60208201905061156a5f830184611548565b92915050565b611579816114cc565b82525050565b5f6020820190506115925f830184611570565b92915050565b5f5f5f606084860312156115af576115ae61146e565b5b5f6115bc868287016114b8565b93505060206115cd868287016114b8565b92505060406115de868287016114eb565b9150509250925092565b5f60ff82169050919050565b6115fd816115e8565b82525050565b5f6020820190506116165f8301846115f4565b92915050565b5f602082840312156116315761163061146e565b5b5f61163e848285016114b8565b91505092915050565b61165081611491565b82525050565b5f6020820190506116695f830184611647565b92915050565b5f5f604083850312156116855761168461146e565b5b5f611692858286016114b8565b92505060206116a3858286016114b8565b9150509250929050565b5f5f5f5f5f5f5f5f610100898b0312156116ca576116c961146e565b5b5f6116d78b828c016114b8565b98505060206116e88b828c016114b8565b97505060406116f98b828c016114eb565b965050606061170a8b828c016114eb565b955050608061171b8b828c016114eb565b94505060a061172c8b828c016114eb565b93505060c061173d8b828c016114b8565b92505060e061174e8b828c016114eb565b9150509295985092959890939650565b5f6060820190506117715f830186611570565b61177e6020830185611570565b61178b6040830184611570565b949350505050565b7f4e487b71000000000000000000000000000000000000000000000000000000005f52602260045260245ffd5b5f60028204905060018216806117d757607f821691505b6020821081036117ea576117e9611793565b5b50919050565b7f496e76616c696420746f6b656e206164647265737365732100000000000000005f82015250565b5f6118246018836113e8565b915061182f826117f0565b602082019050919050565b5f6020820190508181035f83015261185181611818565b9050919050565b7f496e76616c696420726563697069656e742061646472657373000000000000005f82015250565b5f61188c6019836113e8565b915061189782611858565b602082019050919050565b5f6020820190508181035f8301526118b981611880565b9050919050565b7f496e76616c696420696e70757420706172616d657465727321000000000000005f82015250565b5f6118f46019836113e8565b91506118ff826118c0565b602082019050919050565b5f6020820190508181035f830152611921816118e8565b9050919050565b7f4e6f74206d65657420746865206d696e696d756d20666f7220546f6b656e41215f82015250565b5f61195c6020836113e8565b915061196782611928565b602082019050919050565b5f6020820190508181035f83015261198981611950565b9050919050565b7f4e6f74206d65657420746865206d696e696d756d20666f7220546f6b656e42215f82015250565b5f6119c46020836113e8565b91506119cf82611990565b602082019050919050565b5f6020820190508181035f8301526119f1816119b8565b9050919050565b5f81519050611a06816114d5565b92915050565b5f60208284031215611a2157611a2061146e565b5b5f611a2e848285016119f8565b91505092915050565b7f496e73756666696369656e7420546f6b656e412066756e6473210000000000005f82015250565b5f611a6b601a836113e8565b9150611a7682611a37565b602082019050919050565b5f6020820190508181035f830152611a9881611a5f565b9050919050565b7f496e73756666696369656e7420546f6b656e422066756e6473210000000000005f82015250565b5f611ad3601a836113e8565b9150611ade82611a9f565b602082019050919050565b5f6020820190508181035f830152611b0081611ac7565b9050919050565b7f4e487b71000000000000000000000000000000000000000000000000000000005f52601160045260245ffd5b5f611b3e826114cc565b9150611b49836114cc565b9250828201905080821115611b6157611b60611b07565b5b92915050565b5f606082019050611b7a5f830186611647565b611b876020830185611647565b611b946040830184611570565b949350505050565b611ba58161153d565b8114611baf575f5ffd5b50565b5f81519050611bc081611b9c565b92915050565b5f60208284031215611bdb57611bda61146e565b5b5f611be884828501611bb2565b91505092915050565b5f606082019050611c045f830186611647565b611c116020830185611570565b611c1e6040830184611570565b949350505050565b5f611c30826114cc565b9150611c3b836114cc565b9250828202611c49816114cc565b91508282048414831517611c6057611c5f611b07565b5b5092915050565b7f4e487b71000000000000000000000000000000000000000000000000000000005f52601260045260245ffd5b5f611c9e826114cc565b9150611ca9836114cc565b925082611cb957611cb8611c67565b5b82820490509291505056fea2646970667358221220ec5c2ae4bf0b87e1766de415ae4d24913d713ab0ac632558c2b7ae4695838a6c64736f6c634300081b0033",
			"opcodes": "PUSH1 0x80 PUSH1 0x40 MSTORE CALLVALUE DUP1 ISZERO PUSH2 0xF JUMPI PUSH0 PUSH0 REVERT JUMPDEST POP PUSH1 0x40 MLOAD PUSH2 0x22CF CODESIZE SUB DUP1 PUSH2 0x22CF DUP4 CODECOPY DUP2 DUP2 ADD PUSH1 0x40 MSTORE DUP2 ADD SWAP1 PUSH2 0x31 SWAP2 SWAP1 PUSH2 0x269 JUMP JUMPDEST DUP1 PUSH1 0x40 MLOAD DUP1 PUSH1 0x40 ADD PUSH1 0x40 MSTORE DUP1 PUSH1 0xE DUP2 MSTORE PUSH1 0x20 ADD PUSH32 0x4C6971756964697479546F6B656E000000000000000000000000000000000000 DUP2 MSTORE POP PUSH1 0x40 MLOAD DUP1 PUSH1 0x40 ADD PUSH1 0x40 MSTORE DUP1 PUSH1 0x3 DUP2 MSTORE PUSH1 0x20 ADD PUSH32 0x4C544B0000000000000000000000000000000000000000000000000000000000 DUP2 MSTORE POP DUP2 PUSH1 0x3 SWAP1 DUP2 PUSH2 0xAD SWAP2 SWAP1 PUSH2 0x4D1 JUMP JUMPDEST POP DUP1 PUSH1 0x4 SWAP1 DUP2 PUSH2 0xBD SWAP2 SWAP1 PUSH2 0x4D1 JUMP JUMPDEST POP POP POP PUSH0 PUSH20 0xFFFFFFFFFFFFFFFFFFFFFFFFFFFFFFFFFFFFFFFF AND DUP2 PUSH20 0xFFFFFFFFFFFFFFFFFFFFFFFFFFFFFFFFFFFFFFFF AND SUB PUSH2 0x130 JUMPI PUSH0 PUSH1 0x40 MLOAD PUSH32 0x1E4FBDF700000000000000000000000000000000000000000000000000000000 DUP2 MSTORE PUSH1 0x4 ADD PUSH2 0x127 SWAP2 SWAP1 PUSH2 0x5AF JUMP JUMPDEST PUSH1 0x40 MLOAD DUP1 SWAP2 SUB SWAP1 REVERT JUMPDEST PUSH2 0x13F DUP2 PUSH2 0x146 PUSH1 0x20 SHL PUSH1 0x20 SHR JUMP JUMPDEST POP POP PUSH2 0x5C8 JUMP JUMPDEST PUSH0 PUSH1 0x5 PUSH1 0x1 SWAP1 SLOAD SWAP1 PUSH2 0x100 EXP SWAP1 DIV PUSH20 0xFFFFFFFFFFFFFFFFFFFFFFFFFFFFFFFFFFFFFFFF AND SWAP1 POP DUP2 PUSH1 0x5 PUSH1 0x1 PUSH2 0x100 EXP DUP2 SLOAD DUP2 PUSH20 0xFFFFFFFFFFFFFFFFFFFFFFFFFFFFFFFFFFFFFFFF MUL NOT AND SWAP1 DUP4 PUSH20 0xFFFFFFFFFFFFFFFFFFFFFFFFFFFFFFFFFFFFFFFF AND MUL OR SWAP1 SSTORE POP DUP2 PUSH20 0xFFFFFFFFFFFFFFFFFFFFFFFFFFFFFFFFFFFFFFFF AND DUP2 PUSH20 0xFFFFFFFFFFFFFFFFFFFFFFFFFFFFFFFFFFFFFFFF AND PUSH32 0x8BE0079C531659141344CD1FD0A4F28419497F9722A3DAAFE3B4186F6B6457E0 PUSH1 0x40 MLOAD PUSH1 0x40 MLOAD DUP1 SWAP2 SUB SWAP1 LOG3 POP POP JUMP JUMPDEST PUSH0 PUSH0 REVERT JUMPDEST PUSH0 PUSH20 0xFFFFFFFFFFFFFFFFFFFFFFFFFFFFFFFFFFFFFFFF DUP3 AND SWAP1 POP SWAP2 SWAP1 POP JUMP JUMPDEST PUSH0 PUSH2 0x238 DUP3 PUSH2 0x20F JUMP JUMPDEST SWAP1 POP SWAP2 SWAP1 POP JUMP JUMPDEST PUSH2 0x248 DUP2 PUSH2 0x22E JUMP JUMPDEST DUP2 EQ PUSH2 0x252 JUMPI PUSH0 PUSH0 REVERT JUMPDEST POP JUMP JUMPDEST PUSH0 DUP2 MLOAD SWAP1 POP PUSH2 0x263 DUP2 PUSH2 0x23F JUMP JUMPDEST SWAP3 SWAP2 POP POP JUMP JUMPDEST PUSH0 PUSH1 0x20 DUP3 DUP5 SUB SLT ISZERO PUSH2 0x27E JUMPI PUSH2 0x27D PUSH2 0x20B JUMP JUMPDEST JUMPDEST PUSH0 PUSH2 0x28B DUP5 DUP3 DUP6 ADD PUSH2 0x255 JUMP JUMPDEST SWAP2 POP POP SWAP3 SWAP2 POP POP JUMP JUMPDEST PUSH0 DUP2 MLOAD SWAP1 POP SWAP2 SWAP1 POP JUMP JUMPDEST PUSH32 0x4E487B7100000000000000000000000000000000000000000000000000000000 PUSH0 MSTORE PUSH1 0x41 PUSH1 0x4 MSTORE PUSH1 0x24 PUSH0 REVERT JUMPDEST PUSH32 0x4E487B7100000000000000000000000000000000000000000000000000000000 PUSH0 MSTORE PUSH1 0x22 PUSH1 0x4 MSTORE PUSH1 0x24 PUSH0 REVERT JUMPDEST PUSH0 PUSH1 0x2 DUP3 DIV SWAP1 POP PUSH1 0x1 DUP3 AND DUP1 PUSH2 0x30F JUMPI PUSH1 0x7F DUP3 AND SWAP2 POP JUMPDEST PUSH1 0x20 DUP3 LT DUP2 SUB PUSH2 0x322 JUMPI PUSH2 0x321 PUSH2 0x2CB JUMP JUMPDEST JUMPDEST POP SWAP2 SWAP1 POP JUMP JUMPDEST PUSH0 DUP2 SWAP1 POP DUP2 PUSH0 MSTORE PUSH1 0x20 PUSH0 KECCAK256 SWAP1 POP SWAP2 SWAP1 POP JUMP JUMPDEST PUSH0 PUSH1 0x20 PUSH1 0x1F DUP4 ADD DIV SWAP1 POP SWAP2 SWAP1 POP JUMP JUMPDEST PUSH0 DUP3 DUP3 SHL SWAP1 POP SWAP3 SWAP2 POP POP JUMP JUMPDEST PUSH0 PUSH1 0x8 DUP4 MUL PUSH2 0x384 PUSH32 0xFFFFFFFFFFFFFFFFFFFFFFFFFFFFFFFFFFFFFFFFFFFFFFFFFFFFFFFFFFFFFFFF DUP3 PUSH2 0x349 JUMP JUMPDEST PUSH2 0x38E DUP7 DUP4 PUSH2 0x349 JUMP JUMPDEST SWAP6 POP DUP1 NOT DUP5 AND SWAP4 POP DUP1 DUP7 AND DUP5 OR SWAP3 POP POP POP SWAP4 SWAP3 POP POP POP JUMP JUMPDEST PUSH0 DUP2 SWAP1 POP SWAP2 SWAP1 POP JUMP JUMPDEST PUSH0 DUP2 SWAP1 POP SWAP2 SWAP1 POP JUMP JUMPDEST PUSH0 PUSH2 0x3D2 PUSH2 0x3CD PUSH2 0x3C8 DUP5 PUSH2 0x3A6 JUMP JUMPDEST PUSH2 0x3AF JUMP JUMPDEST PUSH2 0x3A6 JUMP JUMPDEST SWAP1 POP SWAP2 SWAP1 POP JUMP JUMPDEST PUSH0 DUP2 SWAP1 POP SWAP2 SWAP1 POP JUMP JUMPDEST PUSH2 0x3EB DUP4 PUSH2 0x3B8 JUMP JUMPDEST PUSH2 0x3FF PUSH2 0x3F7 DUP3 PUSH2 0x3D9 JUMP JUMPDEST DUP5 DUP5 SLOAD PUSH2 0x355 JUMP JUMPDEST DUP3 SSTORE POP POP POP POP JUMP JUMPDEST PUSH0 PUSH0 SWAP1 POP SWAP1 JUMP JUMPDEST PUSH2 0x416 PUSH2 0x407 JUMP JUMPDEST PUSH2 0x421 DUP2 DUP5 DUP5 PUSH2 0x3E2 JUMP JUMPDEST POP POP POP JUMP JUMPDEST JUMPDEST DUP2 DUP2 LT ISZERO PUSH2 0x444 JUMPI PUSH2 0x439 PUSH0 DUP3 PUSH2 0x40E JUMP JUMPDEST PUSH1 0x1 DUP2 ADD SWAP1 POP PUSH2 0x427 JUMP JUMPDEST POP POP JUMP JUMPDEST PUSH1 0x1F DUP3 GT ISZERO PUSH2 0x489 JUMPI PUSH2 0x45A DUP2 PUSH2 0x328 JUMP JUMPDEST PUSH2 0x463 DUP5 PUSH2 0x33A JUMP JUMPDEST DUP2 ADD PUSH1 0x20 DUP6 LT ISZERO PUSH2 0x472 JUMPI DUP2 SWAP1 POP JUMPDEST PUSH2 0x486 PUSH2 0x47E DUP6 PUSH2 0x33A JUMP JUMPDEST DUP4 ADD DUP3 PUSH2 0x426 JUMP JUMPDEST POP POP JUMPDEST POP POP POP JUMP JUMPDEST PUSH0 DUP3 DUP3 SHR SWAP1 POP SWAP3 SWAP2 POP POP JUMP JUMPDEST PUSH0 PUSH2 0x4A9 PUSH0 NOT DUP5 PUSH1 0x8 MUL PUSH2 0x48E JUMP JUMPDEST NOT DUP1 DUP4 AND SWAP2 POP POP SWAP3 SWAP2 POP POP JUMP JUMPDEST PUSH0 PUSH2 0x4C1 DUP4 DUP4 PUSH2 0x49A JUMP JUMPDEST SWAP2 POP DUP3 PUSH1 0x2 MUL DUP3 OR SWAP1 POP SWAP3 SWAP2 POP POP JUMP JUMPDEST PUSH2 0x4DA DUP3 PUSH2 0x294 JUMP JUMPDEST PUSH8 0xFFFFFFFFFFFFFFFF DUP2 GT ISZERO PUSH2 0x4F3 JUMPI PUSH2 0x4F2 PUSH2 0x29E JUMP JUMPDEST JUMPDEST PUSH2 0x4FD DUP3 SLOAD PUSH2 0x2F8 JUMP JUMPDEST PUSH2 0x508 DUP3 DUP3 DUP6 PUSH2 0x448 JUMP JUMPDEST PUSH0 PUSH1 0x20 SWAP1 POP PUSH1 0x1F DUP4 GT PUSH1 0x1 DUP2 EQ PUSH2 0x539 JUMPI PUSH0 DUP5 ISZERO PUSH2 0x527 JUMPI DUP3 DUP8 ADD MLOAD SWAP1 POP JUMPDEST PUSH2 0x531 DUP6 DUP3 PUSH2 0x4B6 JUMP JUMPDEST DUP7 SSTORE POP PUSH2 0x598 JUMP JUMPDEST PUSH1 0x1F NOT DUP5 AND PUSH2 0x547 DUP7 PUSH2 0x328 JUMP JUMPDEST PUSH0 JUMPDEST DUP3 DUP2 LT ISZERO PUSH2 0x56E JUMPI DUP5 DUP10 ADD MLOAD DUP3 SSTORE PUSH1 0x1 DUP3 ADD SWAP2 POP PUSH1 0x20 DUP6 ADD SWAP5 POP PUSH1 0x20 DUP2 ADD SWAP1 POP PUSH2 0x549 JUMP JUMPDEST DUP7 DUP4 LT ISZERO PUSH2 0x58B JUMPI DUP5 DUP10 ADD MLOAD PUSH2 0x587 PUSH1 0x1F DUP10 AND DUP3 PUSH2 0x49A JUMP JUMPDEST DUP4 SSTORE POP JUMPDEST PUSH1 0x1 PUSH1 0x2 DUP9 MUL ADD DUP9 SSTORE POP POP POP JUMPDEST POP POP POP POP POP POP JUMP JUMPDEST PUSH2 0x5A9 DUP2 PUSH2 0x22E JUMP JUMPDEST DUP3 MSTORE POP POP JUMP JUMPDEST PUSH0 PUSH1 0x20 DUP3 ADD SWAP1 POP PUSH2 0x5C2 PUSH0 DUP4 ADD DUP5 PUSH2 0x5A0 JUMP JUMPDEST SWAP3 SWAP2 POP POP JUMP JUMPDEST PUSH2 0x1CFA DUP1 PUSH2 0x5D5 PUSH0 CODECOPY PUSH0 RETURN INVALID PUSH1 0x80 PUSH1 0x40 MSTORE CALLVALUE DUP1 ISZERO PUSH2 0xF JUMPI PUSH0 PUSH0 REVERT JUMPDEST POP PUSH1 0x4 CALLDATASIZE LT PUSH2 0xFE JUMPI PUSH0 CALLDATALOAD PUSH1 0xE0 SHR DUP1 PUSH4 0x715018A6 GT PUSH2 0x95 JUMPI DUP1 PUSH4 0xA9059CBB GT PUSH2 0x64 JUMPI DUP1 PUSH4 0xA9059CBB EQ PUSH2 0x264 JUMPI DUP1 PUSH4 0xDD62ED3E EQ PUSH2 0x294 JUMPI DUP1 PUSH4 0xE8E33700 EQ PUSH2 0x2C4 JUMPI DUP1 PUSH4 0xF2FDE38B EQ PUSH2 0x2F6 JUMPI PUSH2 0xFE JUMP JUMPDEST DUP1 PUSH4 0x715018A6 EQ PUSH2 0x214 JUMPI DUP1 PUSH4 0x8456CB59 EQ PUSH2 0x21E JUMPI DUP1 PUSH4 0x8DA5CB5B EQ PUSH2 0x228 JUMPI DUP1 PUSH4 0x95D89B41 EQ PUSH2 0x246 JUMPI PUSH2 0xFE JUMP JUMPDEST DUP1 PUSH4 0x313CE567 GT PUSH2 0xD1 JUMPI DUP1 PUSH4 0x313CE567 EQ PUSH2 0x19E JUMPI DUP1 PUSH4 0x3F4BA83A EQ PUSH2 0x1BC JUMPI DUP1 PUSH4 0x5C975ABB EQ PUSH2 0x1C6 JUMPI DUP1 PUSH4 0x70A08231 EQ PUSH2 0x1E4 JUMPI PUSH2 0xFE JUMP JUMPDEST DUP1 PUSH4 0x6FDDE03 EQ PUSH2 0x102 JUMPI DUP1 PUSH4 0x95EA7B3 EQ PUSH2 0x120 JUMPI DUP1 PUSH4 0x18160DDD EQ PUSH2 0x150 JUMPI DUP1 PUSH4 0x23B872DD EQ PUSH2 0x16E JUMPI JUMPDEST PUSH0 PUSH0 REVERT JUMPDEST PUSH2 0x10A PUSH2 0x312 JUMP JUMPDEST PUSH1 0x40 MLOAD PUSH2 0x117 SWAP2 SWAP1 PUSH2 0x144E JUMP JUMPDEST PUSH1 0x40 MLOAD DUP1 SWAP2 SUB SWAP1 RETURN JUMPDEST PUSH2 0x13A PUSH1 0x4 DUP1 CALLDATASIZE SUB DUP2 ADD SWAP1 PUSH2 0x135 SWAP2 SWAP1 PUSH2 0x14FF JUMP JUMPDEST PUSH2 0x3A2 JUMP JUMPDEST PUSH1 0x40 MLOAD PUSH2 0x147 SWAP2 SWAP1 PUSH2 0x1557 JUMP JUMPDEST PUSH1 0x40 MLOAD DUP1 SWAP2 SUB SWAP1 RETURN JUMPDEST PUSH2 0x158 PUSH2 0x3C4 JUMP JUMPDEST PUSH1 0x40 MLOAD PUSH2 0x165 SWAP2 SWAP1 PUSH2 0x157F JUMP JUMPDEST PUSH1 0x40 MLOAD DUP1 SWAP2 SUB SWAP1 RETURN JUMPDEST PUSH2 0x188 PUSH1 0x4 DUP1 CALLDATASIZE SUB DUP2 ADD SWAP1 PUSH2 0x183 SWAP2 SWAP1 PUSH2 0x1598 JUMP JUMPDEST PUSH2 0x3CD JUMP JUMPDEST PUSH1 0x40 MLOAD PUSH2 0x195 SWAP2 SWAP1 PUSH2 0x1557 JUMP JUMPDEST PUSH1 0x40 MLOAD DUP1 SWAP2 SUB SWAP1 RETURN JUMPDEST PUSH2 0x1A6 PUSH2 0x3FB JUMP JUMPDEST PUSH1 0x40 MLOAD PUSH2 0x1B3 SWAP2 SWAP1 PUSH2 0x1603 JUMP JUMPDEST PUSH1 0x40 MLOAD DUP1 SWAP2 SUB SWAP1 RETURN JUMPDEST PUSH2 0x1C4 PUSH2 0x403 JUMP JUMPDEST STOP JUMPDEST PUSH2 0x1CE PUSH2 0x415 JUMP JUMPDEST PUSH1 0x40 MLOAD PUSH2 0x1DB SWAP2 SWAP1 PUSH2 0x1557 JUMP JUMPDEST PUSH1 0x40 MLOAD DUP1 SWAP2 SUB SWAP1 RETURN JUMPDEST PUSH2 0x1FE PUSH1 0x4 DUP1 CALLDATASIZE SUB DUP2 ADD SWAP1 PUSH2 0x1F9 SWAP2 SWAP1 PUSH2 0x161C JUMP JUMPDEST PUSH2 0x42A JUMP JUMPDEST PUSH1 0x40 MLOAD PUSH2 0x20B SWAP2 SWAP1 PUSH2 0x157F JUMP JUMPDEST PUSH1 0x40 MLOAD DUP1 SWAP2 SUB SWAP1 RETURN JUMPDEST PUSH2 0x21C PUSH2 0x46F JUMP JUMPDEST STOP JUMPDEST PUSH2 0x226 PUSH2 0x482 JUMP JUMPDEST STOP JUMPDEST PUSH2 0x230 PUSH2 0x494 JUMP JUMPDEST PUSH1 0x40 MLOAD PUSH2 0x23D SWAP2 SWAP1 PUSH2 0x1656 JUMP JUMPDEST PUSH1 0x40 MLOAD DUP1 SWAP2 SUB SWAP1 RETURN JUMPDEST PUSH2 0x24E PUSH2 0x4BD JUMP JUMPDEST PUSH1 0x40 MLOAD PUSH2 0x25B SWAP2 SWAP1 PUSH2 0x144E JUMP JUMPDEST PUSH1 0x40 MLOAD DUP1 SWAP2 SUB SWAP1 RETURN JUMPDEST PUSH2 0x27E PUSH1 0x4 DUP1 CALLDATASIZE SUB DUP2 ADD SWAP1 PUSH2 0x279 SWAP2 SWAP1 PUSH2 0x14FF JUMP JUMPDEST PUSH2 0x54D JUMP JUMPDEST PUSH1 0x40 MLOAD PUSH2 0x28B SWAP2 SWAP1 PUSH2 0x1557 JUMP JUMPDEST PUSH1 0x40 MLOAD DUP1 SWAP2 SUB SWAP1 RETURN JUMPDEST PUSH2 0x2AE PUSH1 0x4 DUP1 CALLDATASIZE SUB DUP2 ADD SWAP1 PUSH2 0x2A9 SWAP2 SWAP1 PUSH2 0x166F JUMP JUMPDEST PUSH2 0x56F JUMP JUMPDEST PUSH1 0x40 MLOAD PUSH2 0x2BB SWAP2 SWAP1 PUSH2 0x157F JUMP JUMPDEST PUSH1 0x40 MLOAD DUP1 SWAP2 SUB SWAP1 RETURN JUMPDEST PUSH2 0x2DE PUSH1 0x4 DUP1 CALLDATASIZE SUB DUP2 ADD SWAP1 PUSH2 0x2D9 SWAP2 SWAP1 PUSH2 0x16AD JUMP JUMPDEST PUSH2 0x5F1 JUMP JUMPDEST PUSH1 0x40 MLOAD PUSH2 0x2ED SWAP4 SWAP3 SWAP2 SWAP1 PUSH2 0x175E JUMP JUMPDEST PUSH1 0x40 MLOAD DUP1 SWAP2 SUB SWAP1 RETURN JUMPDEST PUSH2 0x310 PUSH1 0x4 DUP1 CALLDATASIZE SUB DUP2 ADD SWAP1 PUSH2 0x30B SWAP2 SWAP1 PUSH2 0x161C JUMP JUMPDEST PUSH2 0xA9B JUMP JUMPDEST STOP JUMPDEST PUSH1 0x60 PUSH1 0x3 DUP1 SLOAD PUSH2 0x321 SWAP1 PUSH2 0x17C0 JUMP JUMPDEST DUP1 PUSH1 0x1F ADD PUSH1 0x20 DUP1 SWAP2 DIV MUL PUSH1 0x20 ADD PUSH1 0x40 MLOAD SWAP1 DUP2 ADD PUSH1 0x40 MSTORE DUP1 SWAP3 SWAP2 SWAP1 DUP2 DUP2 MSTORE PUSH1 0x20 ADD DUP3 DUP1 SLOAD PUSH2 0x34D SWAP1 PUSH2 0x17C0 JUMP JUMPDEST DUP1 ISZERO PUSH2 0x398 JUMPI DUP1 PUSH1 0x1F LT PUSH2 0x36F JUMPI PUSH2 0x100 DUP1 DUP4 SLOAD DIV MUL DUP4 MSTORE SWAP2 PUSH1 0x20 ADD SWAP2 PUSH2 0x398 JUMP JUMPDEST DUP3 ADD SWAP2 SWAP1 PUSH0 MSTORE PUSH1 0x20 PUSH0 KECCAK256 SWAP1 JUMPDEST DUP2 SLOAD DUP2 MSTORE SWAP1 PUSH1 0x1 ADD SWAP1 PUSH1 0x20 ADD DUP1 DUP4 GT PUSH2 0x37B JUMPI DUP3 SWAP1 SUB PUSH1 0x1F AND DUP3 ADD SWAP2 JUMPDEST POP POP POP POP POP SWAP1 POP SWAP1 JUMP JUMPDEST PUSH0 PUSH0 PUSH2 0x3AC PUSH2 0xB1F JUMP JUMPDEST SWAP1 POP PUSH2 0x3B9 DUP2 DUP6 DUP6 PUSH2 0xB26 JUMP JUMPDEST PUSH1 0x1 SWAP2 POP POP SWAP3 SWAP2 POP POP JUMP JUMPDEST PUSH0 PUSH1 0x2 SLOAD SWAP1 POP SWAP1 JUMP JUMPDEST PUSH0 PUSH0 PUSH2 0x3D7 PUSH2 0xB1F JUMP JUMPDEST SWAP1 POP PUSH2 0x3E4 DUP6 DUP3 DUP6 PUSH2 0xB38 JUMP JUMPDEST PUSH2 0x3EF DUP6 DUP6 DUP6 PUSH2 0xBCB JUMP JUMPDEST PUSH1 0x1 SWAP2 POP POP SWAP4 SWAP3 POP POP POP JUMP JUMPDEST PUSH0 PUSH1 0x12 SWAP1 POP SWAP1 JUMP JUMPDEST PUSH2 0x40B PUSH2 0xCBB JUMP JUMPDEST PUSH2 0x413 PUSH2 0xD42 JUMP JUMPDEST JUMP JUMPDEST PUSH0 PUSH1 0x5 PUSH0 SWAP1 SLOAD SWAP1 PUSH2 0x100 EXP SWAP1 DIV PUSH1 0xFF AND SWAP1 POP SWAP1 JUMP JUMPDEST PUSH0 PUSH0 PUSH0 DUP4 PUSH20 0xFFFFFFFFFFFFFFFFFFFFFFFFFFFFFFFFFFFFFFFF AND PUSH20 0xFFFFFFFFFFFFFFFFFFFFFFFFFFFFFFFFFFFFFFFF AND DUP2 MSTORE PUSH1 0x20 ADD SWAP1 DUP2 MSTORE PUSH1 0x20 ADD PUSH0 KECCAK256 SLOAD SWAP1 POP SWAP2 SWAP1 POP JUMP JUMPDEST PUSH2 0x477 PUSH2 0xCBB JUMP JUMPDEST PUSH2 0x480 PUSH0 PUSH2 0xDA3 JUMP JUMPDEST JUMP JUMPDEST PUSH2 0x48A PUSH2 0xCBB JUMP JUMPDEST PUSH2 0x492 PUSH2 0xE68 JUMP JUMPDEST JUMP JUMPDEST PUSH0 PUSH1 0x5 PUSH1 0x1 SWAP1 SLOAD SWAP1 PUSH2 0x100 EXP SWAP1 DIV PUSH20 0xFFFFFFFFFFFFFFFFFFFFFFFFFFFFFFFFFFFFFFFF AND SWAP1 POP SWAP1 JUMP JUMPDEST PUSH1 0x60 PUSH1 0x4 DUP1 SLOAD PUSH2 0x4CC SWAP1 PUSH2 0x17C0 JUMP JUMPDEST DUP1 PUSH1 0x1F ADD PUSH1 0x20 DUP1 SWAP2 DIV MUL PUSH1 0x20 ADD PUSH1 0x40 MLOAD SWAP1 DUP2 ADD PUSH1 0x40 MSTORE DUP1 SWAP3 SWAP2 SWAP1 DUP2 DUP2 MSTORE PUSH1 0x20 ADD DUP3 DUP1 SLOAD PUSH2 0x4F8 SWAP1 PUSH2 0x17C0 JUMP JUMPDEST DUP1 ISZERO PUSH2 0x543 JUMPI DUP1 PUSH1 0x1F LT PUSH2 0x51A JUMPI PUSH2 0x100 DUP1 DUP4 SLOAD DIV MUL DUP4 MSTORE SWAP2 PUSH1 0x20 ADD SWAP2 PUSH2 0x543 JUMP JUMPDEST DUP3 ADD SWAP2 SWAP1 PUSH0 MSTORE PUSH1 0x20 PUSH0 KECCAK256 SWAP1 JUMPDEST DUP2 SLOAD DUP2 MSTORE SWAP1 PUSH1 0x1 ADD SWAP1 PUSH1 0x20 ADD DUP1 DUP4 GT PUSH2 0x526 JUMPI DUP3 SWAP1 SUB PUSH1 0x1F AND DUP3 ADD SWAP2 JUMPDEST POP POP POP POP POP SWAP1 POP SWAP1 JUMP JUMPDEST PUSH0 PUSH0 PUSH2 0x557 PUSH2 0xB1F JUMP JUMPDEST SWAP1 POP PUSH2 0x564 DUP2 DUP6 DUP6 PUSH2 0xBCB JUMP JUMPDEST PUSH1 0x1 SWAP2 POP POP SWAP3 SWAP2 POP POP JUMP JUMPDEST PUSH0 PUSH1 0x1 PUSH0 DUP5 PUSH20 0xFFFFFFFFFFFFFFFFFFFFFFFFFFFFFFFFFFFFFFFF AND PUSH20 0xFFFFFFFFFFFFFFFFFFFFFFFFFFFFFFFFFFFFFFFF AND DUP2 MSTORE PUSH1 0x20 ADD SWAP1 DUP2 MSTORE PUSH1 0x20 ADD PUSH0 KECCAK256 PUSH0 DUP4 PUSH20 0xFFFFFFFFFFFFFFFFFFFFFFFFFFFFFFFFFFFFFFFF AND PUSH20 0xFFFFFFFFFFFFFFFFFFFFFFFFFFFFFFFFFFFFFFFF AND DUP2 MSTORE PUSH1 0x20 ADD SWAP1 DUP2 MSTORE PUSH1 0x20 ADD PUSH0 KECCAK256 SLOAD SWAP1 POP SWAP3 SWAP2 POP POP JUMP JUMPDEST PUSH0 PUSH0 PUSH0 PUSH0 PUSH20 0xFFFFFFFFFFFFFFFFFFFFFFFFFFFFFFFFFFFFFFFF AND DUP12 PUSH20 0xFFFFFFFFFFFFFFFFFFFFFFFFFFFFFFFFFFFFFFFF AND EQ ISZERO DUP1 ISZERO PUSH2 0x65C JUMPI POP PUSH0 PUSH20 0xFFFFFFFFFFFFFFFFFFFFFFFFFFFFFFFFFFFFFFFF AND DUP11 PUSH20 0xFFFFFFFFFFFFFFFFFFFFFFFFFFFFFFFFFFFFFFFF AND EQ ISZERO JUMPDEST PUSH2 0x69B JUMPI PUSH1 0x40 MLOAD PUSH32 0x8C379A000000000000000000000000000000000000000000000000000000000 DUP2 MSTORE PUSH1 0x4 ADD PUSH2 0x692 SWAP1 PUSH2 0x183A JUMP JUMPDEST PUSH1 0x40 MLOAD DUP1 SWAP2 SUB SWAP1 REVERT JUMPDEST PUSH0 PUSH20 0xFFFFFFFFFFFFFFFFFFFFFFFFFFFFFFFFFFFFFFFF AND DUP6 PUSH20 0xFFFFFFFFFFFFFFFFFFFFFFFFFFFFFFFFFFFFFFFF AND SUB PUSH2 0x709 JUMPI PUSH1 0x40 MLOAD PUSH32 0x8C379A000000000000000000000000000000000000000000000000000000000 DUP2 MSTORE PUSH1 0x4 ADD PUSH2 0x700 SWAP1 PUSH2 0x18A2 JUMP JUMPDEST PUSH1 0x40 MLOAD DUP1 SWAP2 SUB SWAP1 REVERT JUMPDEST PUSH0 DUP10 GT ISZERO DUP1 PUSH2 0x718 JUMPI POP PUSH0 DUP9 GT ISZERO JUMPDEST PUSH2 0x757 JUMPI PUSH1 0x40 MLOAD PUSH32 0x8C379A000000000000000000000000000000000000000000000000000000000 DUP2 MSTORE PUSH1 0x4 ADD PUSH2 0x74E SWAP1 PUSH2 0x190A JUMP JUMPDEST PUSH1 0x40 MLOAD DUP1 SWAP2 SUB SWAP1 REVERT JUMPDEST PUSH2 0x761 DUP10 DUP10 PUSH2 0xECA JUMP JUMPDEST DUP1 SWAP4 POP DUP2 SWAP5 POP POP POP DUP7 DUP4 GT PUSH2 0x7AB JUMPI PUSH1 0x40 MLOAD PUSH32 0x8C379A000000000000000000000000000000000000000000000000000000000 DUP2 MSTORE PUSH1 0x4 ADD PUSH2 0x7A2 SWAP1 PUSH2 0x1972 JUMP JUMPDEST PUSH1 0x40 MLOAD DUP1 SWAP2 SUB SWAP1 REVERT JUMPDEST DUP6 DUP3 GT PUSH2 0x7ED JUMPI PUSH1 0x40 MLOAD PUSH32 0x8C379A000000000000000000000000000000000000000000000000000000000 DUP2 MSTORE PUSH1 0x4 ADD PUSH2 0x7E4 SWAP1 PUSH2 0x19DA JUMP JUMPDEST PUSH1 0x40 MLOAD DUP1 SWAP2 SUB SWAP1 REVERT JUMPDEST DUP3 DUP12 PUSH20 0xFFFFFFFFFFFFFFFFFFFFFFFFFFFFFFFFFFFFFFFF AND PUSH4 0x70A08231 CALLER PUSH1 0x40 MLOAD DUP3 PUSH4 0xFFFFFFFF AND PUSH1 0xE0 SHL DUP2 MSTORE PUSH1 0x4 ADD PUSH2 0x827 SWAP2 SWAP1 PUSH2 0x1656 JUMP JUMPDEST PUSH1 0x20 PUSH1 0x40 MLOAD DUP1 DUP4 SUB DUP2 DUP7 GAS STATICCALL ISZERO DUP1 ISZERO PUSH2 0x842 JUMPI RETURNDATASIZE PUSH0 PUSH0 RETURNDATACOPY RETURNDATASIZE PUSH0 REVERT JUMPDEST POP POP POP POP PUSH1 0x40 MLOAD RETURNDATASIZE PUSH1 0x1F NOT PUSH1 0x1F DUP3 ADD AND DUP3 ADD DUP1 PUSH1 0x40 MSTORE POP DUP2 ADD SWAP1 PUSH2 0x866 SWAP2 SWAP1 PUSH2 0x1A0C JUMP JUMPDEST LT ISZERO PUSH2 0x8A7 JUMPI PUSH1 0x40 MLOAD PUSH32 0x8C379A000000000000000000000000000000000000000000000000000000000 DUP2 MSTORE PUSH1 0x4 ADD PUSH2 0x89E SWAP1 PUSH2 0x1A81 JUMP JUMPDEST PUSH1 0x40 MLOAD DUP1 SWAP2 SUB SWAP1 REVERT JUMPDEST DUP2 DUP11 PUSH20 0xFFFFFFFFFFFFFFFFFFFFFFFFFFFFFFFFFFFFFFFF AND PUSH4 0x70A08231 CALLER PUSH1 0x40 MLOAD DUP3 PUSH4 0xFFFFFFFF AND PUSH1 0xE0 SHL DUP2 MSTORE PUSH1 0x4 ADD PUSH2 0x8E1 SWAP2 SWAP1 PUSH2 0x1656 JUMP JUMPDEST PUSH1 0x20 PUSH1 0x40 MLOAD DUP1 DUP4 SUB DUP2 DUP7 GAS STATICCALL ISZERO DUP1 ISZERO PUSH2 0x8FC JUMPI RETURNDATASIZE PUSH0 PUSH0 RETURNDATACOPY RETURNDATASIZE PUSH0 REVERT JUMPDEST POP POP POP POP PUSH1 0x40 MLOAD RETURNDATASIZE PUSH1 0x1F NOT PUSH1 0x1F DUP3 ADD AND DUP3 ADD DUP1 PUSH1 0x40 MSTORE POP DUP2 ADD SWAP1 PUSH2 0x920 SWAP2 SWAP1 PUSH2 0x1A0C JUMP JUMPDEST LT ISZERO PUSH2 0x961 JUMPI PUSH1 0x40 MLOAD PUSH32 0x8C379A000000000000000000000000000000000000000000000000000000000 DUP2 MSTORE PUSH1 0x4 ADD PUSH2 0x958 SWAP1 PUSH2 0x1AE9 JUMP JUMPDEST PUSH1 0x40 MLOAD DUP1 SWAP2 SUB SWAP1 REVERT JUMPDEST DUP3 PUSH1 0x6 PUSH0 DUP3 DUP3 SLOAD PUSH2 0x972 SWAP2 SWAP1 PUSH2 0x1B34 JUMP JUMPDEST SWAP3 POP POP DUP2 SWAP1 SSTORE POP DUP2 PUSH1 0x7 PUSH0 DUP3 DUP3 SLOAD PUSH2 0x98A SWAP2 SWAP1 PUSH2 0x1B34 JUMP JUMPDEST SWAP3 POP POP DUP2 SWAP1 SSTORE POP DUP11 PUSH20 0xFFFFFFFFFFFFFFFFFFFFFFFFFFFFFFFFFFFFFFFF AND PUSH4 0x23B872DD CALLER ADDRESS DUP7 PUSH1 0x40 MLOAD DUP5 PUSH4 0xFFFFFFFF AND PUSH1 0xE0 SHL DUP2 MSTORE PUSH1 0x4 ADD PUSH2 0x9CE SWAP4 SWAP3 SWAP2 SWAP1 PUSH2 0x1B67 JUMP JUMPDEST PUSH1 0x20 PUSH1 0x40 MLOAD DUP1 DUP4 SUB DUP2 PUSH0 DUP8 GAS CALL ISZERO DUP1 ISZERO PUSH2 0x9EA JUMPI RETURNDATASIZE PUSH0 PUSH0 RETURNDATACOPY RETURNDATASIZE PUSH0 REVERT JUMPDEST POP POP POP POP PUSH1 0x40 MLOAD RETURNDATASIZE PUSH1 0x1F NOT PUSH1 0x1F DUP3 ADD AND DUP3 ADD DUP1 PUSH1 0x40 MSTORE POP DUP2 ADD SWAP1 PUSH2 0xA0E SWAP2 SWAP1 PUSH2 0x1BC6 JUMP JUMPDEST POP DUP10 PUSH20 0xFFFFFFFFFFFFFFFFFFFFFFFFFFFFFFFFFFFFFFFF AND PUSH4 0x23B872DD CALLER ADDRESS DUP6 PUSH1 0x40 MLOAD DUP5 PUSH4 0xFFFFFFFF AND PUSH1 0xE0 SHL DUP2 MSTORE PUSH1 0x4 ADD PUSH2 0xA4C SWAP4 SWAP3 SWAP2 SWAP1 PUSH2 0x1B67 JUMP JUMPDEST PUSH1 0x20 PUSH1 0x40 MLOAD DUP1 DUP4 SUB DUP2 PUSH0 DUP8 GAS CALL ISZERO DUP1 ISZERO PUSH2 0xA68 JUMPI RETURNDATASIZE PUSH0 PUSH0 RETURNDATACOPY RETURNDATASIZE PUSH0 REVERT JUMPDEST POP POP POP POP PUSH1 0x40 MLOAD RETURNDATASIZE PUSH1 0x1F NOT PUSH1 0x1F DUP3 ADD AND DUP3 ADD DUP1 PUSH1 0x40 MSTORE POP DUP2 ADD SWAP1 PUSH2 0xA8C SWAP2 SWAP1 PUSH2 0x1BC6 JUMP JUMPDEST POP SWAP9 POP SWAP9 POP SWAP9 SWAP6 POP POP POP POP POP POP JUMP JUMPDEST PUSH2 0xAA3 PUSH2 0xCBB JUMP JUMPDEST PUSH0 PUSH20 0xFFFFFFFFFFFFFFFFFFFFFFFFFFFFFFFFFFFFFFFF AND DUP2 PUSH20 0xFFFFFFFFFFFFFFFFFFFFFFFFFFFFFFFFFFFFFFFF AND SUB PUSH2 0xB13 JUMPI PUSH0 PUSH1 0x40 MLOAD PUSH32 0x1E4FBDF700000000000000000000000000000000000000000000000000000000 DUP2 MSTORE PUSH1 0x4 ADD PUSH2 0xB0A SWAP2 SWAP1 PUSH2 0x1656 JUMP JUMPDEST PUSH1 0x40 MLOAD DUP1 SWAP2 SUB SWAP1 REVERT JUMPDEST PUSH2 0xB1C DUP2 PUSH2 0xDA3 JUMP JUMPDEST POP JUMP JUMPDEST PUSH0 CALLER SWAP1 POP SWAP1 JUMP JUMPDEST PUSH2 0xB33 DUP4 DUP4 DUP4 PUSH1 0x1 PUSH2 0xF4D JUMP JUMPDEST POP POP POP JUMP JUMPDEST PUSH0 PUSH2 0xB43 DUP5 DUP5 PUSH2 0x56F JUMP JUMPDEST SWAP1 POP PUSH32 0xFFFFFFFFFFFFFFFFFFFFFFFFFFFFFFFFFFFFFFFFFFFFFFFFFFFFFFFFFFFFFFFF DUP2 LT ISZERO PUSH2 0xBC5 JUMPI DUP2 DUP2 LT ISZERO PUSH2 0xBB6 JUMPI DUP3 DUP2 DUP4 PUSH1 0x40 MLOAD PUSH32 0xFB8F41B200000000000000000000000000000000000000000000000000000000 DUP2 MSTORE PUSH1 0x4 ADD PUSH2 0xBAD SWAP4 SWAP3 SWAP2 SWAP1 PUSH2 0x1BF1 JUMP JUMPDEST PUSH1 0x40 MLOAD DUP1 SWAP2 SUB SWAP1 REVERT JUMPDEST PUSH2 0xBC4 DUP5 DUP5 DUP5 DUP5 SUB PUSH0 PUSH2 0xF4D JUMP JUMPDEST JUMPDEST POP POP POP POP JUMP JUMPDEST PUSH0 PUSH20 0xFFFFFFFFFFFFFFFFFFFFFFFFFFFFFFFFFFFFFFFF AND DUP4 PUSH20 0xFFFFFFFFFFFFFFFFFFFFFFFFFFFFFFFFFFFFFFFF AND SUB PUSH2 0xC3B JUMPI PUSH0 PUSH1 0x40 MLOAD PUSH32 0x96C6FD1E00000000000000000000000000000000000000000000000000000000 DUP2 MSTORE PUSH1 0x4 ADD PUSH2 0xC32 SWAP2 SWAP1 PUSH2 0x1656 JUMP JUMPDEST PUSH1 0x40 MLOAD DUP1 SWAP2 SUB SWAP1 REVERT JUMPDEST PUSH0 PUSH20 0xFFFFFFFFFFFFFFFFFFFFFFFFFFFFFFFFFFFFFFFF AND DUP3 PUSH20 0xFFFFFFFFFFFFFFFFFFFFFFFFFFFFFFFFFFFFFFFF AND SUB PUSH2 0xCAB JUMPI PUSH0 PUSH1 0x40 MLOAD PUSH32 0xEC442F0500000000000000000000000000000000000000000000000000000000 DUP2 MSTORE PUSH1 0x4 ADD PUSH2 0xCA2 SWAP2 SWAP1 PUSH2 0x1656 JUMP JUMPDEST PUSH1 0x40 MLOAD DUP1 SWAP2 SUB SWAP1 REVERT JUMPDEST PUSH2 0xCB6 DUP4 DUP4 DUP4 PUSH2 0x111C JUMP JUMPDEST POP POP POP JUMP JUMPDEST PUSH2 0xCC3 PUSH2 0xB1F JUMP JUMPDEST PUSH20 0xFFFFFFFFFFFFFFFFFFFFFFFFFFFFFFFFFFFFFFFF AND PUSH2 0xCE1 PUSH2 0x494 JUMP JUMPDEST PUSH20 0xFFFFFFFFFFFFFFFFFFFFFFFFFFFFFFFFFFFFFFFF AND EQ PUSH2 0xD40 JUMPI PUSH2 0xD04 PUSH2 0xB1F JUMP JUMPDEST PUSH1 0x40 MLOAD PUSH32 0x118CDAA700000000000000000000000000000000000000000000000000000000 DUP2 MSTORE PUSH1 0x4 ADD PUSH2 0xD37 SWAP2 SWAP1 PUSH2 0x1656 JUMP JUMPDEST PUSH1 0x40 MLOAD DUP1 SWAP2 SUB SWAP1 REVERT JUMPDEST JUMP JUMPDEST PUSH2 0xD4A PUSH2 0x112C JUMP JUMPDEST PUSH0 PUSH1 0x5 PUSH0 PUSH2 0x100 EXP DUP2 SLOAD DUP2 PUSH1 0xFF MUL NOT AND SWAP1 DUP4 ISZERO ISZERO MUL OR SWAP1 SSTORE POP PUSH32 0x5DB9EE0A495BF2E6FF9C91A7834C1BA4FDD244A5E8AA4E537BD38AEAE4B073AA PUSH2 0xD8C PUSH2 0xB1F JUMP JUMPDEST PUSH1 0x40 MLOAD PUSH2 0xD99 SWAP2 SWAP1 PUSH2 0x1656 JUMP JUMPDEST PUSH1 0x40 MLOAD DUP1 SWAP2 SUB SWAP1 LOG1 JUMP JUMPDEST PUSH0 PUSH1 0x5 PUSH1 0x1 SWAP1 SLOAD SWAP1 PUSH2 0x100 EXP SWAP1 DIV PUSH20 0xFFFFFFFFFFFFFFFFFFFFFFFFFFFFFFFFFFFFFFFF AND SWAP1 POP DUP2 PUSH1 0x5 PUSH1 0x1 PUSH2 0x100 EXP DUP2 SLOAD DUP2 PUSH20 0xFFFFFFFFFFFFFFFFFFFFFFFFFFFFFFFFFFFFFFFF MUL NOT AND SWAP1 DUP4 PUSH20 0xFFFFFFFFFFFFFFFFFFFFFFFFFFFFFFFFFFFFFFFF AND MUL OR SWAP1 SSTORE POP DUP2 PUSH20 0xFFFFFFFFFFFFFFFFFFFFFFFFFFFFFFFFFFFFFFFF AND DUP2 PUSH20 0xFFFFFFFFFFFFFFFFFFFFFFFFFFFFFFFFFFFFFFFF AND PUSH32 0x8BE0079C531659141344CD1FD0A4F28419497F9722A3DAAFE3B4186F6B6457E0 PUSH1 0x40 MLOAD PUSH1 0x40 MLOAD DUP1 SWAP2 SUB SWAP1 LOG3 POP POP JUMP JUMPDEST PUSH2 0xE70 PUSH2 0x116C JUMP JUMPDEST PUSH1 0x1 PUSH1 0x5 PUSH0 PUSH2 0x100 EXP DUP2 SLOAD DUP2 PUSH1 0xFF MUL NOT AND SWAP1 DUP4 ISZERO ISZERO MUL OR SWAP1 SSTORE POP PUSH32 0x62E78CEA01BEE320CD4E420270B5EA74000D11B0C9F74754EBDBFC544B05A258 PUSH2 0xEB3 PUSH2 0xB1F JUMP JUMPDEST PUSH1 0x40 MLOAD PUSH2 0xEC0 SWAP2 SWAP1 PUSH2 0x1656 JUMP JUMPDEST PUSH1 0x40 MLOAD DUP1 SWAP2 SUB SWAP1 LOG1 JUMP JUMPDEST PUSH0 PUSH0 PUSH0 PUSH1 0x6 SLOAD EQ DUP1 ISZERO PUSH2 0xEDE JUMPI POP PUSH0 PUSH1 0x7 SLOAD EQ JUMPDEST ISZERO PUSH2 0xEEE JUMPI DUP4 DUP4 SWAP2 POP SWAP2 POP PUSH2 0xF46 JUMP JUMPDEST PUSH0 PUSH1 0x6 SLOAD PUSH1 0x7 SLOAD DUP7 PUSH2 0xF00 SWAP2 SWAP1 PUSH2 0x1C26 JUMP JUMPDEST PUSH2 0xF0A SWAP2 SWAP1 PUSH2 0x1C94 JUMP JUMPDEST SWAP1 POP DUP4 DUP2 GT PUSH2 0xF1F JUMPI DUP5 DUP2 SWAP3 POP SWAP3 POP POP PUSH2 0xF46 JUMP JUMPDEST PUSH0 PUSH1 0x7 SLOAD PUSH1 0x6 SLOAD DUP7 PUSH2 0xF31 SWAP2 SWAP1 PUSH2 0x1C26 JUMP JUMPDEST PUSH2 0xF3B SWAP2 SWAP1 PUSH2 0x1C94 JUMP JUMPDEST SWAP1 POP DUP1 DUP6 SWAP4 POP SWAP4 POP POP POP JUMPDEST SWAP3 POP SWAP3 SWAP1 POP JUMP JUMPDEST PUSH0 PUSH20 0xFFFFFFFFFFFFFFFFFFFFFFFFFFFFFFFFFFFFFFFF AND DUP5 PUSH20 0xFFFFFFFFFFFFFFFFFFFFFFFFFFFFFFFFFFFFFFFF AND SUB PUSH2 0xFBD JUMPI PUSH0 PUSH1 0x40 MLOAD PUSH32 0xE602DF0500000000000000000000000000000000000000000000000000000000 DUP2 MSTORE PUSH1 0x4 ADD PUSH2 0xFB4 SWAP2 SWAP1 PUSH2 0x1656 JUMP JUMPDEST PUSH1 0x40 MLOAD DUP1 SWAP2 SUB SWAP1 REVERT JUMPDEST PUSH0 PUSH20 0xFFFFFFFFFFFFFFFFFFFFFFFFFFFFFFFFFFFFFFFF AND DUP4 PUSH20 0xFFFFFFFFFFFFFFFFFFFFFFFFFFFFFFFFFFFFFFFF AND SUB PUSH2 0x102D JUMPI PUSH0 PUSH1 0x40 MLOAD PUSH32 0x94280D6200000000000000000000000000000000000000000000000000000000 DUP2 MSTORE PUSH1 0x4 ADD PUSH2 0x1024 SWAP2 SWAP1 PUSH2 0x1656 JUMP JUMPDEST PUSH1 0x40 MLOAD DUP1 SWAP2 SUB SWAP1 REVERT JUMPDEST DUP2 PUSH1 0x1 PUSH0 DUP7 PUSH20 0xFFFFFFFFFFFFFFFFFFFFFFFFFFFFFFFFFFFFFFFF AND PUSH20 0xFFFFFFFFFFFFFFFFFFFFFFFFFFFFFFFFFFFFFFFF AND DUP2 MSTORE PUSH1 0x20 ADD SWAP1 DUP2 MSTORE PUSH1 0x20 ADD PUSH0 KECCAK256 PUSH0 DUP6 PUSH20 0xFFFFFFFFFFFFFFFFFFFFFFFFFFFFFFFFFFFFFFFF AND PUSH20 0xFFFFFFFFFFFFFFFFFFFFFFFFFFFFFFFFFFFFFFFF AND DUP2 MSTORE PUSH1 0x20 ADD SWAP1 DUP2 MSTORE PUSH1 0x20 ADD PUSH0 KECCAK256 DUP2 SWAP1 SSTORE POP DUP1 ISZERO PUSH2 0x1116 JUMPI DUP3 PUSH20 0xFFFFFFFFFFFFFFFFFFFFFFFFFFFFFFFFFFFFFFFF AND DUP5 PUSH20 0xFFFFFFFFFFFFFFFFFFFFFFFFFFFFFFFFFFFFFFFF AND PUSH32 0x8C5BE1E5EBEC7D5BD14F71427D1E84F3DD0314C0F7B2291E5B200AC8C7C3B925 DUP5 PUSH1 0x40 MLOAD PUSH2 0x110D SWAP2 SWAP1 PUSH2 0x157F JUMP JUMPDEST PUSH1 0x40 MLOAD DUP1 SWAP2 SUB SWAP1 LOG3 JUMPDEST POP POP POP POP JUMP JUMPDEST PUSH2 0x1127 DUP4 DUP4 DUP4 PUSH2 0x11AD JUMP JUMPDEST POP POP POP JUMP JUMPDEST PUSH2 0x1134 PUSH2 0x415 JUMP JUMPDEST PUSH2 0x116A JUMPI PUSH1 0x40 MLOAD PUSH32 0x8DFC202B00000000000000000000000000000000000000000000000000000000 DUP2 MSTORE PUSH1 0x4 ADD PUSH1 0x40 MLOAD DUP1 SWAP2 SUB SWAP1 REVERT JUMPDEST JUMP JUMPDEST PUSH2 0x1174 PUSH2 0x415 JUMP JUMPDEST ISZERO PUSH2 0x11AB JUMPI PUSH1 0x40 MLOAD PUSH32 0xD93C066500000000000000000000000000000000000000000000000000000000 DUP2 MSTORE PUSH1 0x4 ADD PUSH1 0x40 MLOAD DUP1 SWAP2 SUB SWAP1 REVERT JUMPDEST JUMP JUMPDEST PUSH2 0x11B5 PUSH2 0x116C JUMP JUMPDEST PUSH2 0x11C0 DUP4 DUP4 DUP4 PUSH2 0x11C5 JUMP JUMPDEST POP POP POP JUMP JUMPDEST PUSH0 PUSH20 0xFFFFFFFFFFFFFFFFFFFFFFFFFFFFFFFFFFFFFFFF AND DUP4 PUSH20 0xFFFFFFFFFFFFFFFFFFFFFFFFFFFFFFFFFFFFFFFF AND SUB PUSH2 0x1215 JUMPI DUP1 PUSH1 0x2 PUSH0 DUP3 DUP3 SLOAD PUSH2 0x1209 SWAP2 SWAP1 PUSH2 0x1B34 JUMP JUMPDEST SWAP3 POP POP DUP2 SWAP1 SSTORE POP PUSH2 0x12E3 JUMP JUMPDEST PUSH0 PUSH0 PUSH0 DUP6 PUSH20 0xFFFFFFFFFFFFFFFFFFFFFFFFFFFFFFFFFFFFFFFF AND PUSH20 0xFFFFFFFFFFFFFFFFFFFFFFFFFFFFFFFFFFFFFFFF AND DUP2 MSTORE PUSH1 0x20 ADD SWAP1 DUP2 MSTORE PUSH1 0x20 ADD PUSH0 KECCAK256 SLOAD SWAP1 POP DUP2 DUP2 LT ISZERO PUSH2 0x129E JUMPI DUP4 DUP2 DUP4 PUSH1 0x40 MLOAD PUSH32 0xE450D38C00000000000000000000000000000000000000000000000000000000 DUP2 MSTORE PUSH1 0x4 ADD PUSH2 0x1295 SWAP4 SWAP3 SWAP2 SWAP1 PUSH2 0x1BF1 JUMP JUMPDEST PUSH1 0x40 MLOAD DUP1 SWAP2 SUB SWAP1 REVERT JUMPDEST DUP2 DUP2 SUB PUSH0 PUSH0 DUP7 PUSH20 0xFFFFFFFFFFFFFFFFFFFFFFFFFFFFFFFFFFFFFFFF AND PUSH20 0xFFFFFFFFFFFFFFFFFFFFFFFFFFFFFFFFFFFFFFFF AND DUP2 MSTORE PUSH1 0x20 ADD SWAP1 DUP2 MSTORE PUSH1 0x20 ADD PUSH0 KECCAK256 DUP2 SWAP1 SSTORE POP POP JUMPDEST PUSH0 PUSH20 0xFFFFFFFFFFFFFFFFFFFFFFFFFFFFFFFFFFFFFFFF AND DUP3 PUSH20 0xFFFFFFFFFFFFFFFFFFFFFFFFFFFFFFFFFFFFFFFF AND SUB PUSH2 0x132A JUMPI DUP1 PUSH1 0x2 PUSH0 DUP3 DUP3 SLOAD SUB SWAP3 POP POP DUP2 SWAP1 SSTORE POP PUSH2 0x1374 JUMP JUMPDEST DUP1 PUSH0 PUSH0 DUP5 PUSH20 0xFFFFFFFFFFFFFFFFFFFFFFFFFFFFFFFFFFFFFFFF AND PUSH20 0xFFFFFFFFFFFFFFFFFFFFFFFFFFFFFFFFFFFFFFFF AND DUP2 MSTORE PUSH1 0x20 ADD SWAP1 DUP2 MSTORE PUSH1 0x20 ADD PUSH0 KECCAK256 PUSH0 DUP3 DUP3 SLOAD ADD SWAP3 POP POP DUP2 SWAP1 SSTORE POP JUMPDEST DUP2 PUSH20 0xFFFFFFFFFFFFFFFFFFFFFFFFFFFFFFFFFFFFFFFF AND DUP4 PUSH20 0xFFFFFFFFFFFFFFFFFFFFFFFFFFFFFFFFFFFFFFFF AND PUSH32 0xDDF252AD1BE2C89B69C2B068FC378DAA952BA7F163C4A11628F55A4DF523B3EF DUP4 PUSH1 0x40 MLOAD PUSH2 0x13D1 SWAP2 SWAP1 PUSH2 0x157F JUMP JUMPDEST PUSH1 0x40 MLOAD DUP1 SWAP2 SUB SWAP1 LOG3 POP POP POP JUMP JUMPDEST PUSH0 DUP2 MLOAD SWAP1 POP SWAP2 SWAP1 POP JUMP JUMPDEST PUSH0 DUP3 DUP3 MSTORE PUSH1 0x20 DUP3 ADD SWAP1 POP SWAP3 SWAP2 POP POP JUMP JUMPDEST DUP3 DUP2 DUP4 MCOPY PUSH0 DUP4 DUP4 ADD MSTORE POP POP POP JUMP JUMPDEST PUSH0 PUSH1 0x1F NOT PUSH1 0x1F DUP4 ADD AND SWAP1 POP SWAP2 SWAP1 POP JUMP JUMPDEST PUSH0 PUSH2 0x1420 DUP3 PUSH2 0x13DE JUMP JUMPDEST PUSH2 0x142A DUP2 DUP6 PUSH2 0x13E8 JUMP JUMPDEST SWAP4 POP PUSH2 0x143A DUP2 DUP6 PUSH1 0x20 DUP7 ADD PUSH2 0x13F8 JUMP JUMPDEST PUSH2 0x1443 DUP2 PUSH2 0x1406 JUMP JUMPDEST DUP5 ADD SWAP2 POP POP SWAP3 SWAP2 POP POP JUMP JUMPDEST PUSH0 PUSH1 0x20 DUP3 ADD SWAP1 POP DUP2 DUP2 SUB PUSH0 DUP4 ADD MSTORE PUSH2 0x1466 DUP2 DUP5 PUSH2 0x1416 JUMP JUMPDEST SWAP1 POP SWAP3 SWAP2 POP POP JUMP JUMPDEST PUSH0 PUSH0 REVERT JUMPDEST PUSH0 PUSH20 0xFFFFFFFFFFFFFFFFFFFFFFFFFFFFFFFFFFFFFFFF DUP3 AND SWAP1 POP SWAP2 SWAP1 POP JUMP JUMPDEST PUSH0 PUSH2 0x149B DUP3 PUSH2 0x1472 JUMP JUMPDEST SWAP1 POP SWAP2 SWAP1 POP JUMP JUMPDEST PUSH2 0x14AB DUP2 PUSH2 0x1491 JUMP JUMPDEST DUP2 EQ PUSH2 0x14B5 JUMPI PUSH0 PUSH0 REVERT JUMPDEST POP JUMP JUMPDEST PUSH0 DUP2 CALLDATALOAD SWAP1 POP PUSH2 0x14C6 DUP2 PUSH2 0x14A2 JUMP JUMPDEST SWAP3 SWAP2 POP POP JUMP JUMPDEST PUSH0 DUP2 SWAP1 POP SWAP2 SWAP1 POP JUMP JUMPDEST PUSH2 0x14DE DUP2 PUSH2 0x14CC JUMP JUMPDEST DUP2 EQ PUSH2 0x14E8 JUMPI PUSH0 PUSH0 REVERT JUMPDEST POP JUMP JUMPDEST PUSH0 DUP2 CALLDATALOAD SWAP1 POP PUSH2 0x14F9 DUP2 PUSH2 0x14D5 JUMP JUMPDEST SWAP3 SWAP2 POP POP JUMP JUMPDEST PUSH0 PUSH0 PUSH1 0x40 DUP4 DUP6 SUB SLT ISZERO PUSH2 0x1515 JUMPI PUSH2 0x1514 PUSH2 0x146E JUMP JUMPDEST JUMPDEST PUSH0 PUSH2 0x1522 DUP6 DUP3 DUP7 ADD PUSH2 0x14B8 JUMP JUMPDEST SWAP3 POP POP PUSH1 0x20 PUSH2 0x1533 DUP6 DUP3 DUP7 ADD PUSH2 0x14EB JUMP JUMPDEST SWAP2 POP POP SWAP3 POP SWAP3 SWAP1 POP JUMP JUMPDEST PUSH0 DUP2 ISZERO ISZERO SWAP1 POP SWAP2 SWAP1 POP JUMP JUMPDEST PUSH2 0x1551 DUP2 PUSH2 0x153D JUMP JUMPDEST DUP3 MSTORE POP POP JUMP JUMPDEST PUSH0 PUSH1 0x20 DUP3 ADD SWAP1 POP PUSH2 0x156A PUSH0 DUP4 ADD DUP5 PUSH2 0x1548 JUMP JUMPDEST SWAP3 SWAP2 POP POP JUMP JUMPDEST PUSH2 0x1579 DUP2 PUSH2 0x14CC JUMP JUMPDEST DUP3 MSTORE POP POP JUMP JUMPDEST PUSH0 PUSH1 0x20 DUP3 ADD SWAP1 POP PUSH2 0x1592 PUSH0 DUP4 ADD DUP5 PUSH2 0x1570 JUMP JUMPDEST SWAP3 SWAP2 POP POP JUMP JUMPDEST PUSH0 PUSH0 PUSH0 PUSH1 0x60 DUP5 DUP7 SUB SLT ISZERO PUSH2 0x15AF JUMPI PUSH2 0x15AE PUSH2 0x146E JUMP JUMPDEST JUMPDEST PUSH0 PUSH2 0x15BC DUP7 DUP3 DUP8 ADD PUSH2 0x14B8 JUMP JUMPDEST SWAP4 POP POP PUSH1 0x20 PUSH2 0x15CD DUP7 DUP3 DUP8 ADD PUSH2 0x14B8 JUMP JUMPDEST SWAP3 POP POP PUSH1 0x40 PUSH2 0x15DE DUP7 DUP3 DUP8 ADD PUSH2 0x14EB JUMP JUMPDEST SWAP2 POP POP SWAP3 POP SWAP3 POP SWAP3 JUMP JUMPDEST PUSH0 PUSH1 0xFF DUP3 AND SWAP1 POP SWAP2 SWAP1 POP JUMP JUMPDEST PUSH2 0x15FD DUP2 PUSH2 0x15E8 JUMP JUMPDEST DUP3 MSTORE POP POP JUMP JUMPDEST PUSH0 PUSH1 0x20 DUP3 ADD SWAP1 POP PUSH2 0x1616 PUSH0 DUP4 ADD DUP5 PUSH2 0x15F4 JUMP JUMPDEST SWAP3 SWAP2 POP POP JUMP JUMPDEST PUSH0 PUSH1 0x20 DUP3 DUP5 SUB SLT ISZERO PUSH2 0x1631 JUMPI PUSH2 0x1630 PUSH2 0x146E JUMP JUMPDEST JUMPDEST PUSH0 PUSH2 0x163E DUP5 DUP3 DUP6 ADD PUSH2 0x14B8 JUMP JUMPDEST SWAP2 POP POP SWAP3 SWAP2 POP POP JUMP JUMPDEST PUSH2 0x1650 DUP2 PUSH2 0x1491 JUMP JUMPDEST DUP3 MSTORE POP POP JUMP JUMPDEST PUSH0 PUSH1 0x20 DUP3 ADD SWAP1 POP PUSH2 0x1669 PUSH0 DUP4 ADD DUP5 PUSH2 0x1647 JUMP JUMPDEST SWAP3 SWAP2 POP POP JUMP JUMPDEST PUSH0 PUSH0 PUSH1 0x40 DUP4 DUP6 SUB SLT ISZERO PUSH2 0x1685 JUMPI PUSH2 0x1684 PUSH2 0x146E JUMP JUMPDEST JUMPDEST PUSH0 PUSH2 0x1692 DUP6 DUP3 DUP7 ADD PUSH2 0x14B8 JUMP JUMPDEST SWAP3 POP POP PUSH1 0x20 PUSH2 0x16A3 DUP6 DUP3 DUP7 ADD PUSH2 0x14B8 JUMP JUMPDEST SWAP2 POP POP SWAP3 POP SWAP3 SWAP1 POP JUMP JUMPDEST PUSH0 PUSH0 PUSH0 PUSH0 PUSH0 PUSH0 PUSH0 PUSH0 PUSH2 0x100 DUP10 DUP12 SUB SLT ISZERO PUSH2 0x16CA JUMPI PUSH2 0x16C9 PUSH2 0x146E JUMP JUMPDEST JUMPDEST PUSH0 PUSH2 0x16D7 DUP12 DUP3 DUP13 ADD PUSH2 0x14B8 JUMP JUMPDEST SWAP9 POP POP PUSH1 0x20 PUSH2 0x16E8 DUP12 DUP3 DUP13 ADD PUSH2 0x14B8 JUMP JUMPDEST SWAP8 POP POP PUSH1 0x40 PUSH2 0x16F9 DUP12 DUP3 DUP13 ADD PUSH2 0x14EB JUMP JUMPDEST SWAP7 POP POP PUSH1 0x60 PUSH2 0x170A DUP12 DUP3 DUP13 ADD PUSH2 0x14EB JUMP JUMPDEST SWAP6 POP POP PUSH1 0x80 PUSH2 0x171B DUP12 DUP3 DUP13 ADD PUSH2 0x14EB JUMP JUMPDEST SWAP5 POP POP PUSH1 0xA0 PUSH2 0x172C DUP12 DUP3 DUP13 ADD PUSH2 0x14EB JUMP JUMPDEST SWAP4 POP POP PUSH1 0xC0 PUSH2 0x173D DUP12 DUP3 DUP13 ADD PUSH2 0x14B8 JUMP JUMPDEST SWAP3 POP POP PUSH1 0xE0 PUSH2 0x174E DUP12 DUP3 DUP13 ADD PUSH2 0x14EB JUMP JUMPDEST SWAP2 POP POP SWAP3 SWAP6 SWAP9 POP SWAP3 SWAP6 SWAP9 SWAP1 SWAP4 SWAP7 POP JUMP JUMPDEST PUSH0 PUSH1 0x60 DUP3 ADD SWAP1 POP PUSH2 0x1771 PUSH0 DUP4 ADD DUP7 PUSH2 0x1570 JUMP JUMPDEST PUSH2 0x177E PUSH1 0x20 DUP4 ADD DUP6 PUSH2 0x1570 JUMP JUMPDEST PUSH2 0x178B PUSH1 0x40 DUP4 ADD DUP5 PUSH2 0x1570 JUMP JUMPDEST SWAP5 SWAP4 POP POP POP POP JUMP JUMPDEST PUSH32 0x4E487B7100000000000000000000000000000000000000000000000000000000 PUSH0 MSTORE PUSH1 0x22 PUSH1 0x4 MSTORE PUSH1 0x24 PUSH0 REVERT JUMPDEST PUSH0 PUSH1 0x2 DUP3 DIV SWAP1 POP PUSH1 0x1 DUP3 AND DUP1 PUSH2 0x17D7 JUMPI PUSH1 0x7F DUP3 AND SWAP2 POP JUMPDEST PUSH1 0x20 DUP3 LT DUP2 SUB PUSH2 0x17EA JUMPI PUSH2 0x17E9 PUSH2 0x1793 JUMP JUMPDEST JUMPDEST POP SWAP2 SWAP1 POP JUMP JUMPDEST PUSH32 0x496E76616C696420746F6B656E20616464726573736573210000000000000000 PUSH0 DUP3 ADD MSTORE POP JUMP JUMPDEST PUSH0 PUSH2 0x1824 PUSH1 0x18 DUP4 PUSH2 0x13E8 JUMP JUMPDEST SWAP2 POP PUSH2 0x182F DUP3 PUSH2 0x17F0 JUMP JUMPDEST PUSH1 0x20 DUP3 ADD SWAP1 POP SWAP2 SWAP1 POP JUMP JUMPDEST PUSH0 PUSH1 0x20 DUP3 ADD SWAP1 POP DUP2 DUP2 SUB PUSH0 DUP4 ADD MSTORE PUSH2 0x1851 DUP2 PUSH2 0x1818 JUMP JUMPDEST SWAP1 POP SWAP2 SWAP1 POP JUMP JUMPDEST PUSH32 0x496E76616C696420726563697069656E74206164647265737300000000000000 PUSH0 DUP3 ADD MSTORE POP JUMP JUMPDEST PUSH0 PUSH2 0x188C PUSH1 0x19 DUP4 PUSH2 0x13E8 JUMP JUMPDEST SWAP2 POP PUSH2 0x1897 DUP3 PUSH2 0x1858 JUMP JUMPDEST PUSH1 0x20 DUP3 ADD SWAP1 POP SWAP2 SWAP1 POP JUMP JUMPDEST PUSH0 PUSH1 0x20 DUP3 ADD SWAP1 POP DUP2 DUP2 SUB PUSH0 DUP4 ADD MSTORE PUSH2 0x18B9 DUP2 PUSH2 0x1880 JUMP JUMPDEST SWAP1 POP SWAP2 SWAP1 POP JUMP JUMPDEST PUSH32 0x496E76616C696420696E70757420706172616D65746572732100000000000000 PUSH0 DUP3 ADD MSTORE POP JUMP JUMPDEST PUSH0 PUSH2 0x18F4 PUSH1 0x19 DUP4 PUSH2 0x13E8 JUMP JUMPDEST SWAP2 POP PUSH2 0x18FF DUP3 PUSH2 0x18C0 JUMP JUMPDEST PUSH1 0x20 DUP3 ADD SWAP1 POP SWAP2 SWAP1 POP JUMP JUMPDEST PUSH0 PUSH1 0x20 DUP3 ADD SWAP1 POP DUP2 DUP2 SUB PUSH0 DUP4 ADD MSTORE PUSH2 0x1921 DUP2 PUSH2 0x18E8 JUMP JUMPDEST SWAP1 POP SWAP2 SWAP1 POP JUMP JUMPDEST PUSH32 0x4E6F74206D65657420746865206D696E696D756D20666F7220546F6B656E4121 PUSH0 DUP3 ADD MSTORE POP JUMP JUMPDEST PUSH0 PUSH2 0x195C PUSH1 0x20 DUP4 PUSH2 0x13E8 JUMP JUMPDEST SWAP2 POP PUSH2 0x1967 DUP3 PUSH2 0x1928 JUMP JUMPDEST PUSH1 0x20 DUP3 ADD SWAP1 POP SWAP2 SWAP1 POP JUMP JUMPDEST PUSH0 PUSH1 0x20 DUP3 ADD SWAP1 POP DUP2 DUP2 SUB PUSH0 DUP4 ADD MSTORE PUSH2 0x1989 DUP2 PUSH2 0x1950 JUMP JUMPDEST SWAP1 POP SWAP2 SWAP1 POP JUMP JUMPDEST PUSH32 0x4E6F74206D65657420746865206D696E696D756D20666F7220546F6B656E4221 PUSH0 DUP3 ADD MSTORE POP JUMP JUMPDEST PUSH0 PUSH2 0x19C4 PUSH1 0x20 DUP4 PUSH2 0x13E8 JUMP JUMPDEST SWAP2 POP PUSH2 0x19CF DUP3 PUSH2 0x1990 JUMP JUMPDEST PUSH1 0x20 DUP3 ADD SWAP1 POP SWAP2 SWAP1 POP JUMP JUMPDEST PUSH0 PUSH1 0x20 DUP3 ADD SWAP1 POP DUP2 DUP2 SUB PUSH0 DUP4 ADD MSTORE PUSH2 0x19F1 DUP2 PUSH2 0x19B8 JUMP JUMPDEST SWAP1 POP SWAP2 SWAP1 POP JUMP JUMPDEST PUSH0 DUP2 MLOAD SWAP1 POP PUSH2 0x1A06 DUP2 PUSH2 0x14D5 JUMP JUMPDEST SWAP3 SWAP2 POP POP JUMP JUMPDEST PUSH0 PUSH1 0x20 DUP3 DUP5 SUB SLT ISZERO PUSH2 0x1A21 JUMPI PUSH2 0x1A20 PUSH2 0x146E JUMP JUMPDEST JUMPDEST PUSH0 PUSH2 0x1A2E DUP5 DUP3 DUP6 ADD PUSH2 0x19F8 JUMP JUMPDEST SWAP2 POP POP SWAP3 SWAP2 POP POP JUMP JUMPDEST PUSH32 0x496E73756666696369656E7420546F6B656E412066756E647321000000000000 PUSH0 DUP3 ADD MSTORE POP JUMP JUMPDEST PUSH0 PUSH2 0x1A6B PUSH1 0x1A DUP4 PUSH2 0x13E8 JUMP JUMPDEST SWAP2 POP PUSH2 0x1A76 DUP3 PUSH2 0x1A37 JUMP JUMPDEST PUSH1 0x20 DUP3 ADD SWAP1 POP SWAP2 SWAP1 POP JUMP JUMPDEST PUSH0 PUSH1 0x20 DUP3 ADD SWAP1 POP DUP2 DUP2 SUB PUSH0 DUP4 ADD MSTORE PUSH2 0x1A98 DUP2 PUSH2 0x1A5F JUMP JUMPDEST SWAP1 POP SWAP2 SWAP1 POP JUMP JUMPDEST PUSH32 0x496E73756666696369656E7420546F6B656E422066756E647321000000000000 PUSH0 DUP3 ADD MSTORE POP JUMP JUMPDEST PUSH0 PUSH2 0x1AD3 PUSH1 0x1A DUP4 PUSH2 0x13E8 JUMP JUMPDEST SWAP2 POP PUSH2 0x1ADE DUP3 PUSH2 0x1A9F JUMP JUMPDEST PUSH1 0x20 DUP3 ADD SWAP1 POP SWAP2 SWAP1 POP JUMP JUMPDEST PUSH0 PUSH1 0x20 DUP3 ADD SWAP1 POP DUP2 DUP2 SUB PUSH0 DUP4 ADD MSTORE PUSH2 0x1B00 DUP2 PUSH2 0x1AC7 JUMP JUMPDEST SWAP1 POP SWAP2 SWAP1 POP JUMP JUMPDEST PUSH32 0x4E487B7100000000000000000000000000000000000000000000000000000000 PUSH0 MSTORE PUSH1 0x11 PUSH1 0x4 MSTORE PUSH1 0x24 PUSH0 REVERT JUMPDEST PUSH0 PUSH2 0x1B3E DUP3 PUSH2 0x14CC JUMP JUMPDEST SWAP2 POP PUSH2 0x1B49 DUP4 PUSH2 0x14CC JUMP JUMPDEST SWAP3 POP DUP3 DUP3 ADD SWAP1 POP DUP1 DUP3 GT ISZERO PUSH2 0x1B61 JUMPI PUSH2 0x1B60 PUSH2 0x1B07 JUMP JUMPDEST JUMPDEST SWAP3 SWAP2 POP POP JUMP JUMPDEST PUSH0 PUSH1 0x60 DUP3 ADD SWAP1 POP PUSH2 0x1B7A PUSH0 DUP4 ADD DUP7 PUSH2 0x1647 JUMP JUMPDEST PUSH2 0x1B87 PUSH1 0x20 DUP4 ADD DUP6 PUSH2 0x1647 JUMP JUMPDEST PUSH2 0x1B94 PUSH1 0x40 DUP4 ADD DUP5 PUSH2 0x1570 JUMP JUMPDEST SWAP5 SWAP4 POP POP POP POP JUMP JUMPDEST PUSH2 0x1BA5 DUP2 PUSH2 0x153D JUMP JUMPDEST DUP2 EQ PUSH2 0x1BAF JUMPI PUSH0 PUSH0 REVERT JUMPDEST POP JUMP JUMPDEST PUSH0 DUP2 MLOAD SWAP1 POP PUSH2 0x1BC0 DUP2 PUSH2 0x1B9C JUMP JUMPDEST SWAP3 SWAP2 POP POP JUMP JUMPDEST PUSH0 PUSH1 0x20 DUP3 DUP5 SUB SLT ISZERO PUSH2 0x1BDB JUMPI PUSH2 0x1BDA PUSH2 0x146E JUMP JUMPDEST JUMPDEST PUSH0 PUSH2 0x1BE8 DUP5 DUP3 DUP6 ADD PUSH2 0x1BB2 JUMP JUMPDEST SWAP2 POP POP SWAP3 SWAP2 POP POP JUMP JUMPDEST PUSH0 PUSH1 0x60 DUP3 ADD SWAP1 POP PUSH2 0x1C04 PUSH0 DUP4 ADD DUP7 PUSH2 0x1647 JUMP JUMPDEST PUSH2 0x1C11 PUSH1 0x20 DUP4 ADD DUP6 PUSH2 0x1570 JUMP JUMPDEST PUSH2 0x1C1E PUSH1 0x40 DUP4 ADD DUP5 PUSH2 0x1570 JUMP JUMPDEST SWAP5 SWAP4 POP POP POP POP JUMP JUMPDEST PUSH0 PUSH2 0x1C30 DUP3 PUSH2 0x14CC JUMP JUMPDEST SWAP2 POP PUSH2 0x1C3B DUP4 PUSH2 0x14CC JUMP JUMPDEST SWAP3 POP DUP3 DUP3 MUL PUSH2 0x1C49 DUP2 PUSH2 0x14CC JUMP JUMPDEST SWAP2 POP DUP3 DUP3 DIV DUP5 EQ DUP4 ISZERO OR PUSH2 0x1C60 JUMPI PUSH2 0x1C5F PUSH2 0x1B07 JUMP JUMPDEST JUMPDEST POP SWAP3 SWAP2 POP POP JUMP JUMPDEST PUSH32 0x4E487B7100000000000000000000000000000000000000000000000000000000 PUSH0 MSTORE PUSH1 0x12 PUSH1 0x4 MSTORE PUSH1 0x24 PUSH0 REVERT JUMPDEST PUSH0 PUSH2 0x1C9E DUP3 PUSH2 0x14CC JUMP JUMPDEST SWAP2 POP PUSH2 0x1CA9 DUP4 PUSH2 0x14CC JUMP JUMPDEST SWAP3 POP DUP3 PUSH2 0x1CB9 JUMPI PUSH2 0x1CB8 PUSH2 0x1C67 JUMP JUMPDEST JUMPDEST DUP3 DUP3 DIV SWAP1 POP SWAP3 SWAP2 POP POP JUMP INVALID LOG2 PUSH5 0x6970667358 0x22 SLT KECCAK256 0xEC TLOAD 0x2A 0xE4 0xBF SIGNEXTEND DUP8 0xE1 PUSH23 0x6DE415AE4D24913D713AB0AC632558C2B7AE4695838A6C PUSH5 0x736F6C6343 STOP ADDMOD SHL STOP CALLER "
		},
		"gasEstimates": {
			"creation": {
				"codeDepositCost": "1483600",
				"executionCost": "infinite",
				"totalCost": "infinite"
			},
			"external": {
				"addLiquidity(address,address,uint256,uint256,uint256,uint256,address,uint256)": "infinite",
				"allowance(address,address)": "infinite",
				"approve(address,uint256)": "infinite",
				"balanceOf(address)": "2917",
				"decimals()": "361",
				"name()": "infinite",
				"owner()": "2633",
				"pause()": "infinite",
				"paused()": "2540",
				"renounceOwnership()": "infinite",
				"symbol()": "infinite",
				"totalSupply()": "2500",
				"transfer(address,uint256)": "infinite",
				"transferFrom(address,address,uint256)": "infinite",
				"transferOwnership(address)": "infinite",
				"unpause()": "infinite"
			},
			"internal": {
				"_update(address,address,uint256)": "infinite",
				"calculateLiquidityAmounts(uint256,uint256)": "infinite",
				"calculateLiquidityToken(uint256,uint256)": "infinite",
				"quote(uint256,uint256,uint256)": "infinite"
			}
		},
		"methodIdentifiers": {
			"addLiquidity(address,address,uint256,uint256,uint256,uint256,address,uint256)": "e8e33700",
			"allowance(address,address)": "dd62ed3e",
			"approve(address,uint256)": "095ea7b3",
			"balanceOf(address)": "70a08231",
			"decimals()": "313ce567",
			"name()": "06fdde03",
			"owner()": "8da5cb5b",
			"pause()": "8456cb59",
			"paused()": "5c975abb",
			"renounceOwnership()": "715018a6",
			"symbol()": "95d89b41",
			"totalSupply()": "18160ddd",
			"transfer(address,uint256)": "a9059cbb",
			"transferFrom(address,address,uint256)": "23b872dd",
			"transferOwnership(address)": "f2fde38b",
			"unpause()": "3f4ba83a"
		}
	},
	"abi": [
		{
			"inputs": [
				{
					"internalType": "address",
					"name": "initialOwner",
					"type": "address"
				}
			],
			"stateMutability": "nonpayable",
			"type": "constructor"
		},
		{
			"inputs": [
				{
					"internalType": "address",
					"name": "spender",
					"type": "address"
				},
				{
					"internalType": "uint256",
					"name": "allowance",
					"type": "uint256"
				},
				{
					"internalType": "uint256",
					"name": "needed",
					"type": "uint256"
				}
			],
			"name": "ERC20InsufficientAllowance",
			"type": "error"
		},
		{
			"inputs": [
				{
					"internalType": "address",
					"name": "sender",
					"type": "address"
				},
				{
					"internalType": "uint256",
					"name": "balance",
					"type": "uint256"
				},
				{
					"internalType": "uint256",
					"name": "needed",
					"type": "uint256"
				}
			],
			"name": "ERC20InsufficientBalance",
			"type": "error"
		},
		{
			"inputs": [
				{
					"internalType": "address",
					"name": "approver",
					"type": "address"
				}
			],
			"name": "ERC20InvalidApprover",
			"type": "error"
		},
		{
			"inputs": [
				{
					"internalType": "address",
					"name": "receiver",
					"type": "address"
				}
			],
			"name": "ERC20InvalidReceiver",
			"type": "error"
		},
		{
			"inputs": [
				{
					"internalType": "address",
					"name": "sender",
					"type": "address"
				}
			],
			"name": "ERC20InvalidSender",
			"type": "error"
		},
		{
			"inputs": [
				{
					"internalType": "address",
					"name": "spender",
					"type": "address"
				}
			],
			"name": "ERC20InvalidSpender",
			"type": "error"
		},
		{
			"inputs": [],
			"name": "EnforcedPause",
			"type": "error"
		},
		{
			"inputs": [],
			"name": "ExpectedPause",
			"type": "error"
		},
		{
			"inputs": [
				{
					"internalType": "address",
					"name": "owner",
					"type": "address"
				}
			],
			"name": "OwnableInvalidOwner",
			"type": "error"
		},
		{
			"inputs": [
				{
					"internalType": "address",
					"name": "account",
					"type": "address"
				}
			],
			"name": "OwnableUnauthorizedAccount",
			"type": "error"
		},
		{
			"anonymous": false,
			"inputs": [
				{
					"indexed": true,
					"internalType": "address",
					"name": "owner",
					"type": "address"
				},
				{
					"indexed": true,
					"internalType": "address",
					"name": "spender",
					"type": "address"
				},
				{
					"indexed": false,
					"internalType": "uint256",
					"name": "value",
					"type": "uint256"
				}
			],
			"name": "Approval",
			"type": "event"
		},
		{
			"anonymous": false,
			"inputs": [
				{
					"indexed": true,
					"internalType": "address",
					"name": "previousOwner",
					"type": "address"
				},
				{
					"indexed": true,
					"internalType": "address",
					"name": "newOwner",
					"type": "address"
				}
			],
			"name": "OwnershipTransferred",
			"type": "event"
		},
		{
			"anonymous": false,
			"inputs": [
				{
					"indexed": false,
					"internalType": "address",
					"name": "account",
					"type": "address"
				}
			],
			"name": "Paused",
			"type": "event"
		},
		{
			"anonymous": false,
			"inputs": [
				{
					"indexed": true,
					"internalType": "address",
					"name": "from",
					"type": "address"
				},
				{
					"indexed": true,
					"internalType": "address",
					"name": "to",
					"type": "address"
				},
				{
					"indexed": false,
					"internalType": "uint256",
					"name": "value",
					"type": "uint256"
				}
			],
			"name": "Transfer",
			"type": "event"
		},
		{
			"anonymous": false,
			"inputs": [
				{
					"indexed": false,
					"internalType": "address",
					"name": "account",
					"type": "address"
				}
			],
			"name": "Unpaused",
			"type": "event"
		},
		{
			"inputs": [
				{
					"internalType": "address",
					"name": "tokenA",
					"type": "address"
				},
				{
					"internalType": "address",
					"name": "tokenB",
					"type": "address"
				},
				{
					"internalType": "uint256",
					"name": "amountADesired",
					"type": "uint256"
				},
				{
					"internalType": "uint256",
					"name": "amountBDesired",
					"type": "uint256"
				},
				{
					"internalType": "uint256",
					"name": "amountAMin",
					"type": "uint256"
				},
				{
					"internalType": "uint256",
					"name": "amountBMin",
					"type": "uint256"
				},
				{
					"internalType": "address",
					"name": "to",
					"type": "address"
				},
				{
					"internalType": "uint256",
					"name": "deadline",
					"type": "uint256"
				}
			],
			"name": "addLiquidity",
			"outputs": [
				{
					"internalType": "uint256",
					"name": "amountA",
					"type": "uint256"
				},
				{
					"internalType": "uint256",
					"name": "amountB",
					"type": "uint256"
				},
				{
					"internalType": "uint256",
					"name": "liquidity",
					"type": "uint256"
				}
			],
			"stateMutability": "nonpayable",
			"type": "function"
		},
		{
			"inputs": [
				{
					"internalType": "address",
					"name": "owner",
					"type": "address"
				},
				{
					"internalType": "address",
					"name": "spender",
					"type": "address"
				}
			],
			"name": "allowance",
			"outputs": [
				{
					"internalType": "uint256",
					"name": "",
					"type": "uint256"
				}
			],
			"stateMutability": "view",
			"type": "function"
		},
		{
			"inputs": [
				{
					"internalType": "address",
					"name": "spender",
					"type": "address"
				},
				{
					"internalType": "uint256",
					"name": "value",
					"type": "uint256"
				}
			],
			"name": "approve",
			"outputs": [
				{
					"internalType": "bool",
					"name": "",
					"type": "bool"
				}
			],
			"stateMutability": "nonpayable",
			"type": "function"
		},
		{
			"inputs": [
				{
					"internalType": "address",
					"name": "account",
					"type": "address"
				}
			],
			"name": "balanceOf",
			"outputs": [
				{
					"internalType": "uint256",
					"name": "",
					"type": "uint256"
				}
			],
			"stateMutability": "view",
			"type": "function"
		},
		{
			"inputs": [],
			"name": "decimals",
			"outputs": [
				{
					"internalType": "uint8",
					"name": "",
					"type": "uint8"
				}
			],
			"stateMutability": "view",
			"type": "function"
		},
		{
			"inputs": [],
			"name": "name",
			"outputs": [
				{
					"internalType": "string",
					"name": "",
					"type": "string"
				}
			],
			"stateMutability": "view",
			"type": "function"
		},
		{
			"inputs": [],
			"name": "owner",
			"outputs": [
				{
					"internalType": "address",
					"name": "",
					"type": "address"
				}
			],
			"stateMutability": "view",
			"type": "function"
		},
		{
			"inputs": [],
			"name": "pause",
			"outputs": [],
			"stateMutability": "nonpayable",
			"type": "function"
		},
		{
			"inputs": [],
			"name": "paused",
			"outputs": [
				{
					"internalType": "bool",
					"name": "",
					"type": "bool"
				}
			],
			"stateMutability": "view",
			"type": "function"
		},
		{
			"inputs": [],
			"name": "renounceOwnership",
			"outputs": [],
			"stateMutability": "nonpayable",
			"type": "function"
		},
		{
			"inputs": [],
			"name": "symbol",
			"outputs": [
				{
					"internalType": "string",
					"name": "",
					"type": "string"
				}
			],
			"stateMutability": "view",
			"type": "function"
		},
		{
			"inputs": [],
			"name": "totalSupply",
			"outputs": [
				{
					"internalType": "uint256",
					"name": "",
					"type": "uint256"
				}
			],
			"stateMutability": "view",
			"type": "function"
		},
		{
			"inputs": [
				{
					"internalType": "address",
					"name": "to",
					"type": "address"
				},
				{
					"internalType": "uint256",
					"name": "value",
					"type": "uint256"
				}
			],
			"name": "transfer",
			"outputs": [
				{
					"internalType": "bool",
					"name": "",
					"type": "bool"
				}
			],
			"stateMutability": "nonpayable",
			"type": "function"
		},
		{
			"inputs": [
				{
					"internalType": "address",
					"name": "from",
					"type": "address"
				},
				{
					"internalType": "address",
					"name": "to",
					"type": "address"
				},
				{
					"internalType": "uint256",
					"name": "value",
					"type": "uint256"
				}
			],
			"name": "transferFrom",
			"outputs": [
				{
					"internalType": "bool",
					"name": "",
					"type": "bool"
				}
			],
			"stateMutability": "nonpayable",
			"type": "function"
		},
		{
			"inputs": [
				{
					"internalType": "address",
					"name": "newOwner",
					"type": "address"
				}
			],
			"name": "transferOwnership",
			"outputs": [],
			"stateMutability": "nonpayable",
			"type": "function"
		},
		{
			"inputs": [],
			"name": "unpause",
			"outputs": [],
			"stateMutability": "nonpayable",
			"type": "function"
		}
	]
}