{
	"data": {
		"bytecode": {
			"linkReferences": {},
			"object": "608060405234801561000f575f5ffd5b50604051613fc8380380613fc883398181016040528101906100319190610269565b806040518060400160405280600e81526020017f4c6971756964697479546f6b656e0000000000000000000000000000000000008152506040518060400160405280600381526020017f4c544b000000000000000000000000000000000000000000000000000000000081525081600390816100ad91906104d1565b5080600490816100bd91906104d1565b5050505f73ffffffffffffffffffffffffffffffffffffffff168173ffffffffffffffffffffffffffffffffffffffff1603610130575f6040517f1e4fbdf700000000000000000000000000000000000000000000000000000000815260040161012791906105af565b60405180910390fd5b61013f8161014660201b60201c565b50506105c8565b5f600560019054906101000a900473ffffffffffffffffffffffffffffffffffffffff16905081600560016101000a81548173ffffffffffffffffffffffffffffffffffffffff021916908373ffffffffffffffffffffffffffffffffffffffff1602179055508173ffffffffffffffffffffffffffffffffffffffff168173ffffffffffffffffffffffffffffffffffffffff167f8be0079c531659141344cd1fd0a4f28419497f9722a3daafe3b4186f6b6457e060405160405180910390a35050565b5f5ffd5b5f73ffffffffffffffffffffffffffffffffffffffff82169050919050565b5f6102388261020f565b9050919050565b6102488161022e565b8114610252575f5ffd5b50565b5f815190506102638161023f565b92915050565b5f6020828403121561027e5761027d61020b565b5b5f61028b84828501610255565b91505092915050565b5f81519050919050565b7f4e487b71000000000000000000000000000000000000000000000000000000005f52604160045260245ffd5b7f4e487b71000000000000000000000000000000000000000000000000000000005f52602260045260245ffd5b5f600282049050600182168061030f57607f821691505b602082108103610322576103216102cb565b5b50919050565b5f819050815f5260205f209050919050565b5f6020601f8301049050919050565b5f82821b905092915050565b5f600883026103847fffffffffffffffffffffffffffffffffffffffffffffffffffffffffffffffff82610349565b61038e8683610349565b95508019841693508086168417925050509392505050565b5f819050919050565b5f819050919050565b5f6103d26103cd6103c8846103a6565b6103af565b6103a6565b9050919050565b5f819050919050565b6103eb836103b8565b6103ff6103f7826103d9565b848454610355565b825550505050565b5f5f905090565b610416610407565b6104218184846103e2565b505050565b5b81811015610444576104395f8261040e565b600181019050610427565b5050565b601f8211156104895761045a81610328565b6104638461033a565b81016020851015610472578190505b61048661047e8561033a565b830182610426565b50505b505050565b5f82821c905092915050565b5f6104a95f198460080261048e565b1980831691505092915050565b5f6104c1838361049a565b9150826002028217905092915050565b6104da82610294565b67ffffffffffffffff8111156104f3576104f261029e565b5b6104fd82546102f8565b610508828285610448565b5f60209050601f831160018114610539575f8415610527578287015190505b61053185826104b6565b865550610598565b601f19841661054786610328565b5f5b8281101561056e57848901518255600182019150602085019450602081019050610549565b8683101561058b5784890151610587601f89168261049a565b8355505b6001600288020188555050505b505050505050565b6105a98161022e565b82525050565b5f6020820190506105c25f8301846105a0565b92915050565b6139f3806105d55f395ff3fe608060405234801561000f575f5ffd5b506004361061012a575f3560e01c8063715018a6116100ab578063ac41865a1161006f578063ac41865a14610320578063baa2abde14610350578063dd62ed3e14610381578063e8e33700146103b1578063f2fde38b146103e35761012a565b8063715018a6146102a05780638456cb59146102aa5780638da5cb5b146102b457806395d89b41146102d2578063a9059cbb146102f05761012a565b8063313ce567116100f2578063313ce567146101fa57806338ed1739146102185780633f4ba83a146102485780635c975abb1461025257806370a08231146102705761012a565b8063054d50d41461012e57806306fdde031461015e578063095ea7b31461017c57806318160ddd146101ac57806323b872dd146101ca575b5f5ffd5b610148600480360381019061014391906128be565b6103ff565b604051610155919061291d565b60405180910390f35b61016661046d565b60405161017391906129a6565b60405180910390f35b61019660048036038101906101919190612a20565b6104fd565b6040516101a39190612a78565b60405180910390f35b6101b461051f565b6040516101c1919061291d565b60405180910390f35b6101e460048036038101906101df9190612a91565b610528565b6040516101f19190612a78565b60405180910390f35b610202610556565b60405161020f9190612afc565b60405180910390f35b610232600480360381019061022d9190612b76565b61055e565b60405161023f9190612cc3565b60405180910390f35b610250610cff565b005b61025a610d11565b6040516102679190612a78565b60405180910390f35b61028a60048036038101906102859190612ce3565b610d26565b604051610297919061291d565b60405180910390f35b6102a8610d6b565b005b6102b2610d7e565b005b6102bc610d90565b6040516102c99190612d1d565b60405180910390f35b6102da610db9565b6040516102e791906129a6565b60405180910390f35b61030a60048036038101906103059190612a20565b610e49565b6040516103179190612a78565b60405180910390f35b61033a60048036038101906103359190612d36565b610e6b565b604051610347919061291d565b60405180910390f35b61036a60048036038101906103659190612d74565b610f8f565b604051610378929190612e11565b60405180910390f35b61039b60048036038101906103969190612d36565b611474565b6040516103a8919061291d565b60405180910390f35b6103cb60048036038101906103c69190612e38565b6114f6565b6040516103da93929190612ee9565b60405180910390f35b6103fd60048036038101906103f89190612ce3565b611a9c565b005b5f5f8411610442576040517f08c379a000000000000000000000000000000000000000000000000000000000815260040161043990612f68565b60405180910390fd5b838361044e9190612fb3565b828561045a9190612fe6565b6104649190613054565b90509392505050565b60606003805461047c906130b1565b80601f01602080910402602001604051908101604052809291908181526020018280546104a8906130b1565b80156104f35780601f106104ca576101008083540402835291602001916104f3565b820191905f5260205f20905b8154815290600101906020018083116104d657829003601f168201915b5050505050905090565b5f5f610507611b20565b9050610514818585611b27565b600191505092915050565b5f600254905090565b5f5f610532611b20565b905061053f858285611b39565b61054a858585611bcc565b60019150509392505050565b5f6012905090565b60605f4290505f8811801561057257505f87115b80156105815750600286869050145b6105c0576040517f08c379a00000000000000000000000000000000000000000000000000000000081526004016105b790612f68565b60405180910390fd5b5f73ffffffffffffffffffffffffffffffffffffffff1686865f8181106105ea576105e96130e1565b5b90506020020160208101906105ff9190612ce3565b73ffffffffffffffffffffffffffffffffffffffff161415801561067757505f73ffffffffffffffffffffffffffffffffffffffff1686866001818110610649576106486130e1565b5b905060200201602081019061065e9190612ce3565b73ffffffffffffffffffffffffffffffffffffffff1614155b6106b6576040517f08c379a00000000000000000000000000000000000000000000000000000000081526004016106ad90613158565b60405180910390fd5b5f73ffffffffffffffffffffffffffffffffffffffff168473ffffffffffffffffffffffffffffffffffffffff1603610724576040517f08c379a000000000000000000000000000000000000000000000000000000000815260040161071b906131c0565b60405180910390fd5b5f60405160200161073490613232565b6040516020818303038152906040528051906020012087875f81811061075d5761075c6130e1565b5b90506020020160208101906107729190612ce3565b73ffffffffffffffffffffffffffffffffffffffff166395d89b416040518163ffffffff1660e01b81526004015f60405180830381865afa1580156107b9573d5f5f3e3d5ffd5b505050506040513d5f823e3d601f19601f820116820180604052508101906107e19190613360565b6040516020016107f191906133d7565b604051602081830303815290604052805190602001201490505f3073ffffffffffffffffffffffffffffffffffffffff1663054d50d48b8461083557600754610839565b6006545b856108465760065461084a565b6007545b6040518463ffffffff1660e01b815260040161086893929190612ee9565b602060405180830381865afa158015610883573d5f5f3e3d5ffd5b505050506040513d601f19601f820116820180604052508101906108a79190613401565b9050888110156108ec576040517f08c379a00000000000000000000000000000000000000000000000000000000081526004016108e390613476565b60405180910390fd5b8988885f818110610900576108ff6130e1565b5b90506020020160208101906109159190612ce3565b73ffffffffffffffffffffffffffffffffffffffff166370a08231336040518263ffffffff1660e01b815260040161094d9190612d1d565b602060405180830381865afa158015610968573d5f5f3e3d5ffd5b505050506040513d601f19601f8201168201806040525081019061098c9190613401565b10156109cd576040517f08c379a00000000000000000000000000000000000000000000000000000000081526004016109c4906134de565b60405180910390fd5b80888860018181106109e2576109e16130e1565b5b90506020020160208101906109f79190612ce3565b73ffffffffffffffffffffffffffffffffffffffff166370a08231306040518263ffffffff1660e01b8152600401610a2f9190612d1d565b602060405180830381865afa158015610a4a573d5f5f3e3d5ffd5b505050506040513d601f19601f82011682018060405250810190610a6e9190613401565b1015610aaf576040517f08c379a0000000000000000000000000000000000000000000000000000000008152600401610aa6906134de565b60405180910390fd5b8115610aea578960065f828254610ac69190612fb3565b925050819055508060075f828254610ade91906134fc565b92505081905550610b1b565b8960065f828254610afb91906134fc565b925050819055508060075f828254610b139190612fb3565b925050819055505b87875f818110610b2e57610b2d6130e1565b5b9050602002016020810190610b439190612ce3565b73ffffffffffffffffffffffffffffffffffffffff166323b872dd33308d6040518463ffffffff1660e01b8152600401610b7f9392919061352f565b6020604051808303815f875af1158015610b9b573d5f5f3e3d5ffd5b505050506040513d601f19601f82011682018060405250810190610bbf919061358e565b5087876001818110610bd457610bd36130e1565b5b9050602002016020810190610be99190612ce3565b73ffffffffffffffffffffffffffffffffffffffff1663a9059cbb33836040518363ffffffff1660e01b8152600401610c239291906135b9565b6020604051808303815f875af1158015610c3f573d5f5f3e3d5ffd5b505050506040513d601f19601f82011682018060405250810190610c63919061358e565b5089845f81518110610c7857610c776130e1565b5b6020026020010181815250508084600181518110610c9957610c986130e1565b5b6020026020010181815250508242610cb191906134fc565b8511610cf2576040517f08c379a0000000000000000000000000000000000000000000000000000000008152600401610ce99061362a565b60405180910390fd5b5050509695505050505050565b610d07611cbc565b610d0f611d43565b565b5f60055f9054906101000a900460ff16905090565b5f5f5f8373ffffffffffffffffffffffffffffffffffffffff1673ffffffffffffffffffffffffffffffffffffffff1681526020019081526020015f20549050919050565b610d73611cbc565b610d7c5f611da4565b565b610d86611cbc565b610d8e611e69565b565b5f600560019054906101000a900473ffffffffffffffffffffffffffffffffffffffff16905090565b606060048054610dc8906130b1565b80601f0160208091040260200160405190810160405280929190818152602001828054610df4906130b1565b8015610e3f5780601f10610e1657610100808354040283529160200191610e3f565b820191905f5260205f20905b815481529060010190602001808311610e2257829003601f168201915b5050505050905090565b5f5f610e53611b20565b9050610e60818585611bcc565b600191505092915050565b5f5f73ffffffffffffffffffffffffffffffffffffffff168373ffffffffffffffffffffffffffffffffffffffff1614158015610ed457505f73ffffffffffffffffffffffffffffffffffffffff168273ffffffffffffffffffffffffffffffffffffffff1614155b610f13576040517f08c379a0000000000000000000000000000000000000000000000000000000008152600401610f0a90613158565b60405180910390fd5b5f600654118015610f2557505f600754115b610f64576040517f08c379a0000000000000000000000000000000000000000000000000000000008152600401610f5b90613692565b60405180910390fd5b600654670de0b6b3a7640000600754610f7d9190612fe6565b610f879190613054565b905092915050565b5f5f5f4290505f73ffffffffffffffffffffffffffffffffffffffff168a73ffffffffffffffffffffffffffffffffffffffff1614158015610ffd57505f73ffffffffffffffffffffffffffffffffffffffff168973ffffffffffffffffffffffffffffffffffffffff1614155b61103c576040517f08c379a000000000000000000000000000000000000000000000000000000000815260040161103390613158565b60405180910390fd5b5f73ffffffffffffffffffffffffffffffffffffffff168573ffffffffffffffffffffffffffffffffffffffff16036110aa576040517f08c379a00000000000000000000000000000000000000000000000000000000081526004016110a1906131c0565b60405180910390fd5b5f881180156110b857505f84115b80156110c357505f87115b80156110ce57505f86115b61110d576040517f08c379a000000000000000000000000000000000000000000000000000000000815260040161110490612f68565b60405180910390fd5b873073ffffffffffffffffffffffffffffffffffffffff166370a08231336040518263ffffffff1660e01b81526004016111479190612d1d565b602060405180830381865afa158015611162573d5f5f3e3d5ffd5b505050506040513d601f19601f820116820180604052508101906111869190613401565b10156111c7576040517f08c379a00000000000000000000000000000000000000000000000000000000081526004016111be906136fa565b60405180910390fd5b6111d088611ecb565b80935081945050508683101561121b576040517f08c379a000000000000000000000000000000000000000000000000000000000815260040161121290613762565b60405180910390fd5b8582101561125e576040517f08c379a0000000000000000000000000000000000000000000000000000000008152600401611255906137ca565b60405180910390fd5b8260065410156112a3576040517f08c379a000000000000000000000000000000000000000000000000000000000815260040161129a90613832565b60405180910390fd5b8160075410156112e8576040517f08c379a00000000000000000000000000000000000000000000000000000000081526004016112df9061389a565b60405180910390fd5b6112f23389611fe0565b8260065f82825461130391906134fc565b925050819055508160075f82825461131b91906134fc565b925050819055508973ffffffffffffffffffffffffffffffffffffffff1663a9059cbb86856040518363ffffffff1660e01b815260040161135d9291906135b9565b6020604051808303815f875af1158015611379573d5f5f3e3d5ffd5b505050506040513d601f19601f8201168201806040525081019061139d919061358e565b508873ffffffffffffffffffffffffffffffffffffffff1663a9059cbb86846040518363ffffffff1660e01b81526004016113d99291906135b9565b6020604051808303815f875af11580156113f5573d5f5f3e3d5ffd5b505050506040513d601f19601f82011682018060405250810190611419919061358e565b50804261142691906134fc565b8411611467576040517f08c379a000000000000000000000000000000000000000000000000000000000815260040161145e9061362a565b60405180910390fd5b5097509795505050505050565b5f60015f8473ffffffffffffffffffffffffffffffffffffffff1673ffffffffffffffffffffffffffffffffffffffff1681526020019081526020015f205f8373ffffffffffffffffffffffffffffffffffffffff1673ffffffffffffffffffffffffffffffffffffffff1681526020019081526020015f2054905092915050565b5f5f5f5f4290505f73ffffffffffffffffffffffffffffffffffffffff168c73ffffffffffffffffffffffffffffffffffffffff161415801561156557505f73ffffffffffffffffffffffffffffffffffffffff168b73ffffffffffffffffffffffffffffffffffffffff1614155b6115a4576040517f08c379a000000000000000000000000000000000000000000000000000000000815260040161159b90613158565b60405180910390fd5b5f73ffffffffffffffffffffffffffffffffffffffff168673ffffffffffffffffffffffffffffffffffffffff1603611612576040517f08c379a0000000000000000000000000000000000000000000000000000000008152600401611609906131c0565b60405180910390fd5b5f8a11801561162057505f89115b801561162b57505f85115b801561163657505f88115b801561164157505f87115b611680576040517f08c379a000000000000000000000000000000000000000000000000000000000815260040161167790612f68565b60405180910390fd5b61168a8a8a61205f565b8094508195505050878410156116d5576040517f08c379a00000000000000000000000000000000000000000000000000000000081526004016116cc90613762565b60405180910390fd5b86831015611718576040517f08c379a000000000000000000000000000000000000000000000000000000000815260040161170f906137ca565b60405180910390fd5b838c73ffffffffffffffffffffffffffffffffffffffff166370a08231336040518263ffffffff1660e01b81526004016117529190612d1d565b602060405180830381865afa15801561176d573d5f5f3e3d5ffd5b505050506040513d601f19601f820116820180604052508101906117919190613401565b10156117d2576040517f08c379a00000000000000000000000000000000000000000000000000000000081526004016117c990613902565b60405180910390fd5b828b73ffffffffffffffffffffffffffffffffffffffff166370a08231336040518263ffffffff1660e01b815260040161180c9190612d1d565b602060405180830381865afa158015611827573d5f5f3e3d5ffd5b505050506040513d601f19601f8201168201806040525081019061184b9190613401565b101561188c576040517f08c379a00000000000000000000000000000000000000000000000000000000081526004016118839061396a565b60405180910390fd5b8360065f82825461189d9190612fb3565b925050819055508260075f8282546118b59190612fb3565b925050819055508b73ffffffffffffffffffffffffffffffffffffffff166323b872dd3330876040518463ffffffff1660e01b81526004016118f99392919061352f565b6020604051808303815f875af1158015611915573d5f5f3e3d5ffd5b505050506040513d601f19601f82011682018060405250810190611939919061358e565b508a73ffffffffffffffffffffffffffffffffffffffff166323b872dd3330866040518463ffffffff1660e01b81526004016119779392919061352f565b6020604051808303815f875af1158015611993573d5f5f3e3d5ffd5b505050506040513d601f19601f820116820180604052508101906119b7919061358e565b506119c284846120e2565b91503073ffffffffffffffffffffffffffffffffffffffff1663a9059cbb33846040518363ffffffff1660e01b81526004016119ff9291906135b9565b6020604051808303815f875af1158015611a1b573d5f5f3e3d5ffd5b505050506040513d601f19601f82011682018060405250810190611a3f919061358e565b508042611a4c91906134fc565b8511611a8d576040517f08c379a0000000000000000000000000000000000000000000000000000000008152600401611a849061362a565b60405180910390fd5b50985098509895505050505050565b611aa4611cbc565b5f73ffffffffffffffffffffffffffffffffffffffff168173ffffffffffffffffffffffffffffffffffffffff1603611b14575f6040517f1e4fbdf7000000000000000000000000000000000000000000000000000000008152600401611b0b9190612d1d565b60405180910390fd5b611b1d81611da4565b50565b5f33905090565b611b348383836001612215565b505050565b5f611b448484611474565b90507fffffffffffffffffffffffffffffffffffffffffffffffffffffffffffffffff811015611bc65781811015611bb7578281836040517ffb8f41b2000000000000000000000000000000000000000000000000000000008152600401611bae93929190613988565b60405180910390fd5b611bc584848484035f612215565b5b50505050565b5f73ffffffffffffffffffffffffffffffffffffffff168373ffffffffffffffffffffffffffffffffffffffff1603611c3c575f6040517f96c6fd1e000000000000000000000000000000000000000000000000000000008152600401611c339190612d1d565b60405180910390fd5b5f73ffffffffffffffffffffffffffffffffffffffff168273ffffffffffffffffffffffffffffffffffffffff1603611cac575f6040517fec442f05000000000000000000000000000000000000000000000000000000008152600401611ca39190612d1d565b60405180910390fd5b611cb78383836123e4565b505050565b611cc4611b20565b73ffffffffffffffffffffffffffffffffffffffff16611ce2610d90565b73ffffffffffffffffffffffffffffffffffffffff1614611d4157611d05611b20565b6040517f118cdaa7000000000000000000000000000000000000000000000000000000008152600401611d389190612d1d565b60405180910390fd5b565b611d4b6123f4565b5f60055f6101000a81548160ff0219169083151502179055507f5db9ee0a495bf2e6ff9c91a7834c1ba4fdd244a5e8aa4e537bd38aeae4b073aa611d8d611b20565b604051611d9a9190612d1d565b60405180910390a1565b5f600560019054906101000a900473ffffffffffffffffffffffffffffffffffffffff16905081600560016101000a81548173ffffffffffffffffffffffffffffffffffffffff021916908373ffffffffffffffffffffffffffffffffffffffff1602179055508173ffffffffffffffffffffffffffffffffffffffff168173ffffffffffffffffffffffffffffffffffffffff167f8be0079c531659141344cd1fd0a4f28419497f9722a3daafe3b4186f6b6457e060405160405180910390a35050565b611e71612434565b600160055f6101000a81548160ff0219169083151502179055507f62e78cea01bee320cd4e420270b5ea74000d11b0c9f74754ebdbfc544b05a258611eb4611b20565b604051611ec19190612d1d565b60405180910390a1565b5f5f3073ffffffffffffffffffffffffffffffffffffffff166318160ddd6040518163ffffffff1660e01b8152600401602060405180830381865afa158015611f16573d5f5f3e3d5ffd5b505050506040513d601f19601f82011682018060405250810190611f3a9190613401565b60065484611f489190612fe6565b611f529190613054565b3073ffffffffffffffffffffffffffffffffffffffff166318160ddd6040518163ffffffff1660e01b8152600401602060405180830381865afa158015611f9b573d5f5f3e3d5ffd5b505050506040513d601f19601f82011682018060405250810190611fbf9190613401565b60065485611fcd9190612fe6565b611fd79190613054565b91509150915091565b5f73ffffffffffffffffffffffffffffffffffffffff168273ffffffffffffffffffffffffffffffffffffffff1603612050575f6040517f96c6fd1e0000000000000000000000000000000000000000000000000000000081526004016120479190612d1d565b60405180910390fd5b61205b825f836123e4565b5050565b5f5f5f60065414801561207357505f600754145b15612083578383915091506120db565b5f600654600754866120959190612fe6565b61209f9190613054565b90508381116120b457848192509250506120db565b5f600754600654866120c69190612fe6565b6120d09190613054565b905080859350935050505b9250929050565b5f5f3073ffffffffffffffffffffffffffffffffffffffff166318160ddd6040518163ffffffff1660e01b8152600401602060405180830381865afa15801561212d573d5f5f3e3d5ffd5b505050506040513d601f19601f820116820180604052508101906121519190613401565b036121715761216a82846121659190612fe6565b612475565b905061220f565b3073ffffffffffffffffffffffffffffffffffffffff166318160ddd6040518163ffffffff1660e01b8152600401602060405180830381865afa1580156121ba573d5f5f3e3d5ffd5b505050506040513d601f19601f820116820180604052508101906121de9190613401565b612202600654856121ef9190613054565b600754856121fd9190613054565b61260f565b61220c9190612fe6565b90505b92915050565b5f73ffffffffffffffffffffffffffffffffffffffff168473ffffffffffffffffffffffffffffffffffffffff1603612285575f6040517fe602df0500000000000000000000000000000000000000000000000000000000815260040161227c9190612d1d565b60405180910390fd5b5f73ffffffffffffffffffffffffffffffffffffffff168373ffffffffffffffffffffffffffffffffffffffff16036122f5575f6040517f94280d620000000000000000000000000000000000000000000000000000000081526004016122ec9190612d1d565b60405180910390fd5b8160015f8673ffffffffffffffffffffffffffffffffffffffff1673ffffffffffffffffffffffffffffffffffffffff1681526020019081526020015f205f8573ffffffffffffffffffffffffffffffffffffffff1673ffffffffffffffffffffffffffffffffffffffff1681526020019081526020015f208190555080156123de578273ffffffffffffffffffffffffffffffffffffffff168473ffffffffffffffffffffffffffffffffffffffff167f8c5be1e5ebec7d5bd14f71427d1e84f3dd0314c0f7b2291e5b200ac8c7c3b925846040516123d5919061291d565b60405180910390a35b50505050565b6123ef838383612625565b505050565b6123fc610d11565b612432576040517f8dfc202b00000000000000000000000000000000000000000000000000000000815260040160405180910390fd5b565b61243c610d11565b15612473576040517fd93c066500000000000000000000000000000000000000000000000000000000815260040160405180910390fd5b565b5f600182116124865781905061260a565b5f8290505f6001905070010000000000000000000000000000000082106124b657608082901c9150604081901b90505b6801000000000000000082106124d557604082901c9150602081901b90505b64010000000082106124f057602082901c9150601081901b90505b62010000821061250957601082901c9150600881901b90505b610100821061252157600882901c9150600481901b90505b6010821061253857600482901c9150600281901b90505b6004821061254857600181901b90505b600181600302901c9050600181858161256457612563613027565b5b048201901c9050600181858161257d5761257c613027565b5b048201901c9050600181858161259657612595613027565b5b048201901c905060018185816125af576125ae613027565b5b048201901c905060018185816125c8576125c7613027565b5b048201901c905060018185816125e1576125e0613027565b5b048201901c90506126038185816125fb576125fa613027565b5b04821161263d565b8103925050505b919050565b5f61261d8284108484612648565b905092915050565b61262d612434565b612638838383612661565b505050565b5f8115159050919050565b5f6126528461263d565b82841802821890509392505050565b5f73ffffffffffffffffffffffffffffffffffffffff168373ffffffffffffffffffffffffffffffffffffffff16036126b1578060025f8282546126a59190612fb3565b9250508190555061277f565b5f5f5f8573ffffffffffffffffffffffffffffffffffffffff1673ffffffffffffffffffffffffffffffffffffffff1681526020019081526020015f205490508181101561273a578381836040517fe450d38c00000000000000000000000000000000000000000000000000000000815260040161273193929190613988565b60405180910390fd5b8181035f5f8673ffffffffffffffffffffffffffffffffffffffff1673ffffffffffffffffffffffffffffffffffffffff1681526020019081526020015f2081905550505b5f73ffffffffffffffffffffffffffffffffffffffff168273ffffffffffffffffffffffffffffffffffffffff16036127c6578060025f8282540392505081905550612810565b805f5f8473ffffffffffffffffffffffffffffffffffffffff1673ffffffffffffffffffffffffffffffffffffffff1681526020019081526020015f205f82825401925050819055505b8173ffffffffffffffffffffffffffffffffffffffff168373ffffffffffffffffffffffffffffffffffffffff167fddf252ad1be2c89b69c2b068fc378daa952ba7f163c4a11628f55a4df523b3ef8360405161286d919061291d565b60405180910390a3505050565b5f604051905090565b5f5ffd5b5f5ffd5b5f819050919050565b61289d8161288b565b81146128a7575f5ffd5b50565b5f813590506128b881612894565b92915050565b5f5f5f606084860312156128d5576128d4612883565b5b5f6128e2868287016128aa565b93505060206128f3868287016128aa565b9250506040612904868287016128aa565b9150509250925092565b6129178161288b565b82525050565b5f6020820190506129305f83018461290e565b92915050565b5f81519050919050565b5f82825260208201905092915050565b8281835e5f83830152505050565b5f601f19601f8301169050919050565b5f61297882612936565b6129828185612940565b9350612992818560208601612950565b61299b8161295e565b840191505092915050565b5f6020820190508181035f8301526129be818461296e565b905092915050565b5f73ffffffffffffffffffffffffffffffffffffffff82169050919050565b5f6129ef826129c6565b9050919050565b6129ff816129e5565b8114612a09575f5ffd5b50565b5f81359050612a1a816129f6565b92915050565b5f5f60408385031215612a3657612a35612883565b5b5f612a4385828601612a0c565b9250506020612a54858286016128aa565b9150509250929050565b5f8115159050919050565b612a7281612a5e565b82525050565b5f602082019050612a8b5f830184612a69565b92915050565b5f5f5f60608486031215612aa857612aa7612883565b5b5f612ab586828701612a0c565b9350506020612ac686828701612a0c565b9250506040612ad7868287016128aa565b9150509250925092565b5f60ff82169050919050565b612af681612ae1565b82525050565b5f602082019050612b0f5f830184612aed565b92915050565b5f5ffd5b5f5ffd5b5f5ffd5b5f5f83601f840112612b3657612b35612b15565b5b8235905067ffffffffffffffff811115612b5357612b52612b19565b5b602083019150836020820283011115612b6f57612b6e612b1d565b5b9250929050565b5f5f5f5f5f5f60a08789031215612b9057612b8f612883565b5b5f612b9d89828a016128aa565b9650506020612bae89828a016128aa565b955050604087013567ffffffffffffffff811115612bcf57612bce612887565b5b612bdb89828a01612b21565b94509450506060612bee89828a01612a0c565b9250506080612bff89828a016128aa565b9150509295509295509295565b5f81519050919050565b5f82825260208201905092915050565b5f819050602082019050919050565b612c3e8161288b565b82525050565b5f612c4f8383612c35565b60208301905092915050565b5f602082019050919050565b5f612c7182612c0c565b612c7b8185612c16565b9350612c8683612c26565b805f5b83811015612cb6578151612c9d8882612c44565b9750612ca883612c5b565b925050600181019050612c89565b5085935050505092915050565b5f6020820190508181035f830152612cdb8184612c67565b905092915050565b5f60208284031215612cf857612cf7612883565b5b5f612d0584828501612a0c565b91505092915050565b612d17816129e5565b82525050565b5f602082019050612d305f830184612d0e565b92915050565b5f5f60408385031215612d4c57612d4b612883565b5b5f612d5985828601612a0c565b9250506020612d6a85828601612a0c565b9150509250929050565b5f5f5f5f5f5f5f60e0888a031215612d8f57612d8e612883565b5b5f612d9c8a828b01612a0c565b9750506020612dad8a828b01612a0c565b9650506040612dbe8a828b016128aa565b9550506060612dcf8a828b016128aa565b9450506080612de08a828b016128aa565b93505060a0612df18a828b01612a0c565b92505060c0612e028a828b016128aa565b91505092959891949750929550565b5f604082019050612e245f83018561290e565b612e31602083018461290e565b9392505050565b5f5f5f5f5f5f5f5f610100898b031215612e5557612e54612883565b5b5f612e628b828c01612a0c565b9850506020612e738b828c01612a0c565b9750506040612e848b828c016128aa565b9650506060612e958b828c016128aa565b9550506080612ea68b828c016128aa565b94505060a0612eb78b828c016128aa565b93505060c0612ec88b828c01612a0c565b92505060e0612ed98b828c016128aa565b9150509295985092959890939650565b5f606082019050612efc5f83018661290e565b612f09602083018561290e565b612f16604083018461290e565b949350505050565b7f496e76616c696420696e70757420706172616d657465727321000000000000005f82015250565b5f612f52601983612940565b9150612f5d82612f1e565b602082019050919050565b5f6020820190508181035f830152612f7f81612f46565b9050919050565b7f4e487b71000000000000000000000000000000000000000000000000000000005f52601160045260245ffd5b5f612fbd8261288b565b9150612fc88361288b565b9250828201905080821115612fe057612fdf612f86565b5b92915050565b5f612ff08261288b565b9150612ffb8361288b565b92508282026130098161288b565b915082820484148315176130205761301f612f86565b5b5092915050565b7f4e487b71000000000000000000000000000000000000000000000000000000005f52601260045260245ffd5b5f61305e8261288b565b91506130698361288b565b92508261307957613078613027565b5b828204905092915050565b7f4e487b71000000000000000000000000000000000000000000000000000000005f52602260045260245ffd5b5f60028204905060018216806130c857607f821691505b6020821081036130db576130da613084565b5b50919050565b7f4e487b71000000000000000000000000000000000000000000000000000000005f52603260045260245ffd5b7f496e76616c696420746f6b656e206164647265737365732100000000000000005f82015250565b5f613142601883612940565b915061314d8261310e565b602082019050919050565b5f6020820190508181035f83015261316f81613136565b9050919050565b7f496e76616c696420726563697069656e742061646472657373000000000000005f82015250565b5f6131aa601983612940565b91506131b582613176565b602082019050919050565b5f6020820190508181035f8301526131d78161319e565b9050919050565b5f81905092915050565b7f4d544b41000000000000000000000000000000000000000000000000000000005f82015250565b5f61321c6004836131de565b9150613227826131e8565b600482019050919050565b5f61323c82613210565b9150819050919050565b5f5ffd5b7f4e487b71000000000000000000000000000000000000000000000000000000005f52604160045260245ffd5b6132808261295e565b810181811067ffffffffffffffff8211171561329f5761329e61324a565b5b80604052505050565b5f6132b161287a565b90506132bd8282613277565b919050565b5f67ffffffffffffffff8211156132dc576132db61324a565b5b6132e58261295e565b9050602081019050919050565b5f6133046132ff846132c2565b6132a8565b9050828152602081018484840111156133205761331f613246565b5b61332b848285612950565b509392505050565b5f82601f83011261334757613346612b15565b5b81516133578482602086016132f2565b91505092915050565b5f6020828403121561337557613374612883565b5b5f82015167ffffffffffffffff81111561339257613391612887565b5b61339e84828501613333565b91505092915050565b5f6133b182612936565b6133bb81856131de565b93506133cb818560208601612950565b80840191505092915050565b5f6133e282846133a7565b915081905092915050565b5f815190506133fb81612894565b92915050565b5f6020828403121561341657613415612883565b5b5f613423848285016133ed565b91505092915050565b7f4e6f74206d65657420746865206d696e696d756d2100000000000000000000005f82015250565b5f613460601583612940565b915061346b8261342c565b602082019050919050565b5f6020820190508181035f83015261348d81613454565b9050919050565b7f496e73756666696369656e7420546f6b656e2066756e647321000000000000005f82015250565b5f6134c8601983612940565b91506134d382613494565b602082019050919050565b5f6020820190508181035f8301526134f5816134bc565b9050919050565b5f6135068261288b565b91506135118361288b565b925082820390508181111561352957613528612f86565b5b92915050565b5f6060820190506135425f830186612d0e565b61354f6020830185612d0e565b61355c604083018461290e565b949350505050565b61356d81612a5e565b8114613577575f5ffd5b50565b5f8151905061358881613564565b92915050565b5f602082840312156135a3576135a2612883565b5b5f6135b08482850161357a565b91505092915050565b5f6040820190506135cc5f830185612d0e565b6135d9602083018461290e565b9392505050565b7f446561646c696e652072656163686564210000000000000000000000000000005f82015250565b5f613614601183612940565b915061361f826135e0565b602082019050919050565b5f6020820190508181035f83015261364181613608565b9050919050565b7f4e6f20617661696c61626c65206c697175696469747920746f6b656e732100005f82015250565b5f61367c601e83612940565b915061368782613648565b602082019050919050565b5f6020820190508181035f8301526136a981613670565b9050919050565b7f496e73756666696369656e74204c697175696469747920546f6b656e732100005f82015250565b5f6136e4601e83612940565b91506136ef826136b0565b602082019050919050565b5f6020820190508181035f830152613711816136d8565b9050919050565b7f4e6f74206d65657420746865206d696e696d756d20666f7220546f6b656e41215f82015250565b5f61374c602083612940565b915061375782613718565b602082019050919050565b5f6020820190508181035f83015261377981613740565b9050919050565b7f4e6f74206d65657420746865206d696e696d756d20666f7220546f6b656e42215f82015250565b5f6137b4602083612940565b91506137bf82613780565b602082019050919050565b5f6020820190508181035f8301526137e1816137a8565b9050919050565b7f496e73756666696369656e7420546f6b656e41210000000000000000000000005f82015250565b5f61381c601483612940565b9150613827826137e8565b602082019050919050565b5f6020820190508181035f83015261384981613810565b9050919050565b7f496e73756666696369656e7420546f6b656e42210000000000000000000000005f82015250565b5f613884601483612940565b915061388f82613850565b602082019050919050565b5f6020820190508181035f8301526138b181613878565b9050919050565b7f496e73756666696369656e7420546f6b656e412066756e6473210000000000005f82015250565b5f6138ec601a83612940565b91506138f7826138b8565b602082019050919050565b5f6020820190508181035f830152613919816138e0565b9050919050565b7f496e73756666696369656e7420546f6b656e422066756e6473210000000000005f82015250565b5f613954601a83612940565b915061395f82613920565b602082019050919050565b5f6020820190508181035f83015261398181613948565b9050919050565b5f60608201905061399b5f830186612d0e565b6139a8602083018561290e565b6139b5604083018461290e565b94935050505056fea2646970667358221220181d81271c55471107f086609a7346eb8211cab0881bb92f34a6fa68cf15fe8d64736f6c634300081b0033",
			"opcodes": "PUSH1 0x80 PUSH1 0x40 MSTORE CALLVALUE DUP1 ISZERO PUSH2 0xF JUMPI PUSH0 PUSH0 REVERT JUMPDEST POP PUSH1 0x40 MLOAD PUSH2 0x3FC8 CODESIZE SUB DUP1 PUSH2 0x3FC8 DUP4 CODECOPY DUP2 DUP2 ADD PUSH1 0x40 MSTORE DUP2 ADD SWAP1 PUSH2 0x31 SWAP2 SWAP1 PUSH2 0x269 JUMP JUMPDEST DUP1 PUSH1 0x40 MLOAD DUP1 PUSH1 0x40 ADD PUSH1 0x40 MSTORE DUP1 PUSH1 0xE DUP2 MSTORE PUSH1 0x20 ADD PUSH32 0x4C6971756964697479546F6B656E000000000000000000000000000000000000 DUP2 MSTORE POP PUSH1 0x40 MLOAD DUP1 PUSH1 0x40 ADD PUSH1 0x40 MSTORE DUP1 PUSH1 0x3 DUP2 MSTORE PUSH1 0x20 ADD PUSH32 0x4C544B0000000000000000000000000000000000000000000000000000000000 DUP2 MSTORE POP DUP2 PUSH1 0x3 SWAP1 DUP2 PUSH2 0xAD SWAP2 SWAP1 PUSH2 0x4D1 JUMP JUMPDEST POP DUP1 PUSH1 0x4 SWAP1 DUP2 PUSH2 0xBD SWAP2 SWAP1 PUSH2 0x4D1 JUMP JUMPDEST POP POP POP PUSH0 PUSH20 0xFFFFFFFFFFFFFFFFFFFFFFFFFFFFFFFFFFFFFFFF AND DUP2 PUSH20 0xFFFFFFFFFFFFFFFFFFFFFFFFFFFFFFFFFFFFFFFF AND SUB PUSH2 0x130 JUMPI PUSH0 PUSH1 0x40 MLOAD PUSH32 0x1E4FBDF700000000000000000000000000000000000000000000000000000000 DUP2 MSTORE PUSH1 0x4 ADD PUSH2 0x127 SWAP2 SWAP1 PUSH2 0x5AF JUMP JUMPDEST PUSH1 0x40 MLOAD DUP1 SWAP2 SUB SWAP1 REVERT JUMPDEST PUSH2 0x13F DUP2 PUSH2 0x146 PUSH1 0x20 SHL PUSH1 0x20 SHR JUMP JUMPDEST POP POP PUSH2 0x5C8 JUMP JUMPDEST PUSH0 PUSH1 0x5 PUSH1 0x1 SWAP1 SLOAD SWAP1 PUSH2 0x100 EXP SWAP1 DIV PUSH20 0xFFFFFFFFFFFFFFFFFFFFFFFFFFFFFFFFFFFFFFFF AND SWAP1 POP DUP2 PUSH1 0x5 PUSH1 0x1 PUSH2 0x100 EXP DUP2 SLOAD DUP2 PUSH20 0xFFFFFFFFFFFFFFFFFFFFFFFFFFFFFFFFFFFFFFFF MUL NOT AND SWAP1 DUP4 PUSH20 0xFFFFFFFFFFFFFFFFFFFFFFFFFFFFFFFFFFFFFFFF AND MUL OR SWAP1 SSTORE POP DUP2 PUSH20 0xFFFFFFFFFFFFFFFFFFFFFFFFFFFFFFFFFFFFFFFF AND DUP2 PUSH20 0xFFFFFFFFFFFFFFFFFFFFFFFFFFFFFFFFFFFFFFFF AND PUSH32 0x8BE0079C531659141344CD1FD0A4F28419497F9722A3DAAFE3B4186F6B6457E0 PUSH1 0x40 MLOAD PUSH1 0x40 MLOAD DUP1 SWAP2 SUB SWAP1 LOG3 POP POP JUMP JUMPDEST PUSH0 PUSH0 REVERT JUMPDEST PUSH0 PUSH20 0xFFFFFFFFFFFFFFFFFFFFFFFFFFFFFFFFFFFFFFFF DUP3 AND SWAP1 POP SWAP2 SWAP1 POP JUMP JUMPDEST PUSH0 PUSH2 0x238 DUP3 PUSH2 0x20F JUMP JUMPDEST SWAP1 POP SWAP2 SWAP1 POP JUMP JUMPDEST PUSH2 0x248 DUP2 PUSH2 0x22E JUMP JUMPDEST DUP2 EQ PUSH2 0x252 JUMPI PUSH0 PUSH0 REVERT JUMPDEST POP JUMP JUMPDEST PUSH0 DUP2 MLOAD SWAP1 POP PUSH2 0x263 DUP2 PUSH2 0x23F JUMP JUMPDEST SWAP3 SWAP2 POP POP JUMP JUMPDEST PUSH0 PUSH1 0x20 DUP3 DUP5 SUB SLT ISZERO PUSH2 0x27E JUMPI PUSH2 0x27D PUSH2 0x20B JUMP JUMPDEST JUMPDEST PUSH0 PUSH2 0x28B DUP5 DUP3 DUP6 ADD PUSH2 0x255 JUMP JUMPDEST SWAP2 POP POP SWAP3 SWAP2 POP POP JUMP JUMPDEST PUSH0 DUP2 MLOAD SWAP1 POP SWAP2 SWAP1 POP JUMP JUMPDEST PUSH32 0x4E487B7100000000000000000000000000000000000000000000000000000000 PUSH0 MSTORE PUSH1 0x41 PUSH1 0x4 MSTORE PUSH1 0x24 PUSH0 REVERT JUMPDEST PUSH32 0x4E487B7100000000000000000000000000000000000000000000000000000000 PUSH0 MSTORE PUSH1 0x22 PUSH1 0x4 MSTORE PUSH1 0x24 PUSH0 REVERT JUMPDEST PUSH0 PUSH1 0x2 DUP3 DIV SWAP1 POP PUSH1 0x1 DUP3 AND DUP1 PUSH2 0x30F JUMPI PUSH1 0x7F DUP3 AND SWAP2 POP JUMPDEST PUSH1 0x20 DUP3 LT DUP2 SUB PUSH2 0x322 JUMPI PUSH2 0x321 PUSH2 0x2CB JUMP JUMPDEST JUMPDEST POP SWAP2 SWAP1 POP JUMP JUMPDEST PUSH0 DUP2 SWAP1 POP DUP2 PUSH0 MSTORE PUSH1 0x20 PUSH0 KECCAK256 SWAP1 POP SWAP2 SWAP1 POP JUMP JUMPDEST PUSH0 PUSH1 0x20 PUSH1 0x1F DUP4 ADD DIV SWAP1 POP SWAP2 SWAP1 POP JUMP JUMPDEST PUSH0 DUP3 DUP3 SHL SWAP1 POP SWAP3 SWAP2 POP POP JUMP JUMPDEST PUSH0 PUSH1 0x8 DUP4 MUL PUSH2 0x384 PUSH32 0xFFFFFFFFFFFFFFFFFFFFFFFFFFFFFFFFFFFFFFFFFFFFFFFFFFFFFFFFFFFFFFFF DUP3 PUSH2 0x349 JUMP JUMPDEST PUSH2 0x38E DUP7 DUP4 PUSH2 0x349 JUMP JUMPDEST SWAP6 POP DUP1 NOT DUP5 AND SWAP4 POP DUP1 DUP7 AND DUP5 OR SWAP3 POP POP POP SWAP4 SWAP3 POP POP POP JUMP JUMPDEST PUSH0 DUP2 SWAP1 POP SWAP2 SWAP1 POP JUMP JUMPDEST PUSH0 DUP2 SWAP1 POP SWAP2 SWAP1 POP JUMP JUMPDEST PUSH0 PUSH2 0x3D2 PUSH2 0x3CD PUSH2 0x3C8 DUP5 PUSH2 0x3A6 JUMP JUMPDEST PUSH2 0x3AF JUMP JUMPDEST PUSH2 0x3A6 JUMP JUMPDEST SWAP1 POP SWAP2 SWAP1 POP JUMP JUMPDEST PUSH0 DUP2 SWAP1 POP SWAP2 SWAP1 POP JUMP JUMPDEST PUSH2 0x3EB DUP4 PUSH2 0x3B8 JUMP JUMPDEST PUSH2 0x3FF PUSH2 0x3F7 DUP3 PUSH2 0x3D9 JUMP JUMPDEST DUP5 DUP5 SLOAD PUSH2 0x355 JUMP JUMPDEST DUP3 SSTORE POP POP POP POP JUMP JUMPDEST PUSH0 PUSH0 SWAP1 POP SWAP1 JUMP JUMPDEST PUSH2 0x416 PUSH2 0x407 JUMP JUMPDEST PUSH2 0x421 DUP2 DUP5 DUP5 PUSH2 0x3E2 JUMP JUMPDEST POP POP POP JUMP JUMPDEST JUMPDEST DUP2 DUP2 LT ISZERO PUSH2 0x444 JUMPI PUSH2 0x439 PUSH0 DUP3 PUSH2 0x40E JUMP JUMPDEST PUSH1 0x1 DUP2 ADD SWAP1 POP PUSH2 0x427 JUMP JUMPDEST POP POP JUMP JUMPDEST PUSH1 0x1F DUP3 GT ISZERO PUSH2 0x489 JUMPI PUSH2 0x45A DUP2 PUSH2 0x328 JUMP JUMPDEST PUSH2 0x463 DUP5 PUSH2 0x33A JUMP JUMPDEST DUP2 ADD PUSH1 0x20 DUP6 LT ISZERO PUSH2 0x472 JUMPI DUP2 SWAP1 POP JUMPDEST PUSH2 0x486 PUSH2 0x47E DUP6 PUSH2 0x33A JUMP JUMPDEST DUP4 ADD DUP3 PUSH2 0x426 JUMP JUMPDEST POP POP JUMPDEST POP POP POP JUMP JUMPDEST PUSH0 DUP3 DUP3 SHR SWAP1 POP SWAP3 SWAP2 POP POP JUMP JUMPDEST PUSH0 PUSH2 0x4A9 PUSH0 NOT DUP5 PUSH1 0x8 MUL PUSH2 0x48E JUMP JUMPDEST NOT DUP1 DUP4 AND SWAP2 POP POP SWAP3 SWAP2 POP POP JUMP JUMPDEST PUSH0 PUSH2 0x4C1 DUP4 DUP4 PUSH2 0x49A JUMP JUMPDEST SWAP2 POP DUP3 PUSH1 0x2 MUL DUP3 OR SWAP1 POP SWAP3 SWAP2 POP POP JUMP JUMPDEST PUSH2 0x4DA DUP3 PUSH2 0x294 JUMP JUMPDEST PUSH8 0xFFFFFFFFFFFFFFFF DUP2 GT ISZERO PUSH2 0x4F3 JUMPI PUSH2 0x4F2 PUSH2 0x29E JUMP JUMPDEST JUMPDEST PUSH2 0x4FD DUP3 SLOAD PUSH2 0x2F8 JUMP JUMPDEST PUSH2 0x508 DUP3 DUP3 DUP6 PUSH2 0x448 JUMP JUMPDEST PUSH0 PUSH1 0x20 SWAP1 POP PUSH1 0x1F DUP4 GT PUSH1 0x1 DUP2 EQ PUSH2 0x539 JUMPI PUSH0 DUP5 ISZERO PUSH2 0x527 JUMPI DUP3 DUP8 ADD MLOAD SWAP1 POP JUMPDEST PUSH2 0x531 DUP6 DUP3 PUSH2 0x4B6 JUMP JUMPDEST DUP7 SSTORE POP PUSH2 0x598 JUMP JUMPDEST PUSH1 0x1F NOT DUP5 AND PUSH2 0x547 DUP7 PUSH2 0x328 JUMP JUMPDEST PUSH0 JUMPDEST DUP3 DUP2 LT ISZERO PUSH2 0x56E JUMPI DUP5 DUP10 ADD MLOAD DUP3 SSTORE PUSH1 0x1 DUP3 ADD SWAP2 POP PUSH1 0x20 DUP6 ADD SWAP5 POP PUSH1 0x20 DUP2 ADD SWAP1 POP PUSH2 0x549 JUMP JUMPDEST DUP7 DUP4 LT ISZERO PUSH2 0x58B JUMPI DUP5 DUP10 ADD MLOAD PUSH2 0x587 PUSH1 0x1F DUP10 AND DUP3 PUSH2 0x49A JUMP JUMPDEST DUP4 SSTORE POP JUMPDEST PUSH1 0x1 PUSH1 0x2 DUP9 MUL ADD DUP9 SSTORE POP POP POP JUMPDEST POP POP POP POP POP POP JUMP JUMPDEST PUSH2 0x5A9 DUP2 PUSH2 0x22E JUMP JUMPDEST DUP3 MSTORE POP POP JUMP JUMPDEST PUSH0 PUSH1 0x20 DUP3 ADD SWAP1 POP PUSH2 0x5C2 PUSH0 DUP4 ADD DUP5 PUSH2 0x5A0 JUMP JUMPDEST SWAP3 SWAP2 POP POP JUMP JUMPDEST PUSH2 0x39F3 DUP1 PUSH2 0x5D5 PUSH0 CODECOPY PUSH0 RETURN INVALID PUSH1 0x80 PUSH1 0x40 MSTORE CALLVALUE DUP1 ISZERO PUSH2 0xF JUMPI PUSH0 PUSH0 REVERT JUMPDEST POP PUSH1 0x4 CALLDATASIZE LT PUSH2 0x12A JUMPI PUSH0 CALLDATALOAD PUSH1 0xE0 SHR DUP1 PUSH4 0x715018A6 GT PUSH2 0xAB JUMPI DUP1 PUSH4 0xAC41865A GT PUSH2 0x6F JUMPI DUP1 PUSH4 0xAC41865A EQ PUSH2 0x320 JUMPI DUP1 PUSH4 0xBAA2ABDE EQ PUSH2 0x350 JUMPI DUP1 PUSH4 0xDD62ED3E EQ PUSH2 0x381 JUMPI DUP1 PUSH4 0xE8E33700 EQ PUSH2 0x3B1 JUMPI DUP1 PUSH4 0xF2FDE38B EQ PUSH2 0x3E3 JUMPI PUSH2 0x12A JUMP JUMPDEST DUP1 PUSH4 0x715018A6 EQ PUSH2 0x2A0 JUMPI DUP1 PUSH4 0x8456CB59 EQ PUSH2 0x2AA JUMPI DUP1 PUSH4 0x8DA5CB5B EQ PUSH2 0x2B4 JUMPI DUP1 PUSH4 0x95D89B41 EQ PUSH2 0x2D2 JUMPI DUP1 PUSH4 0xA9059CBB EQ PUSH2 0x2F0 JUMPI PUSH2 0x12A JUMP JUMPDEST DUP1 PUSH4 0x313CE567 GT PUSH2 0xF2 JUMPI DUP1 PUSH4 0x313CE567 EQ PUSH2 0x1FA JUMPI DUP1 PUSH4 0x38ED1739 EQ PUSH2 0x218 JUMPI DUP1 PUSH4 0x3F4BA83A EQ PUSH2 0x248 JUMPI DUP1 PUSH4 0x5C975ABB EQ PUSH2 0x252 JUMPI DUP1 PUSH4 0x70A08231 EQ PUSH2 0x270 JUMPI PUSH2 0x12A JUMP JUMPDEST DUP1 PUSH4 0x54D50D4 EQ PUSH2 0x12E JUMPI DUP1 PUSH4 0x6FDDE03 EQ PUSH2 0x15E JUMPI DUP1 PUSH4 0x95EA7B3 EQ PUSH2 0x17C JUMPI DUP1 PUSH4 0x18160DDD EQ PUSH2 0x1AC JUMPI DUP1 PUSH4 0x23B872DD EQ PUSH2 0x1CA JUMPI JUMPDEST PUSH0 PUSH0 REVERT JUMPDEST PUSH2 0x148 PUSH1 0x4 DUP1 CALLDATASIZE SUB DUP2 ADD SWAP1 PUSH2 0x143 SWAP2 SWAP1 PUSH2 0x28BE JUMP JUMPDEST PUSH2 0x3FF JUMP JUMPDEST PUSH1 0x40 MLOAD PUSH2 0x155 SWAP2 SWAP1 PUSH2 0x291D JUMP JUMPDEST PUSH1 0x40 MLOAD DUP1 SWAP2 SUB SWAP1 RETURN JUMPDEST PUSH2 0x166 PUSH2 0x46D JUMP JUMPDEST PUSH1 0x40 MLOAD PUSH2 0x173 SWAP2 SWAP1 PUSH2 0x29A6 JUMP JUMPDEST PUSH1 0x40 MLOAD DUP1 SWAP2 SUB SWAP1 RETURN JUMPDEST PUSH2 0x196 PUSH1 0x4 DUP1 CALLDATASIZE SUB DUP2 ADD SWAP1 PUSH2 0x191 SWAP2 SWAP1 PUSH2 0x2A20 JUMP JUMPDEST PUSH2 0x4FD JUMP JUMPDEST PUSH1 0x40 MLOAD PUSH2 0x1A3 SWAP2 SWAP1 PUSH2 0x2A78 JUMP JUMPDEST PUSH1 0x40 MLOAD DUP1 SWAP2 SUB SWAP1 RETURN JUMPDEST PUSH2 0x1B4 PUSH2 0x51F JUMP JUMPDEST PUSH1 0x40 MLOAD PUSH2 0x1C1 SWAP2 SWAP1 PUSH2 0x291D JUMP JUMPDEST PUSH1 0x40 MLOAD DUP1 SWAP2 SUB SWAP1 RETURN JUMPDEST PUSH2 0x1E4 PUSH1 0x4 DUP1 CALLDATASIZE SUB DUP2 ADD SWAP1 PUSH2 0x1DF SWAP2 SWAP1 PUSH2 0x2A91 JUMP JUMPDEST PUSH2 0x528 JUMP JUMPDEST PUSH1 0x40 MLOAD PUSH2 0x1F1 SWAP2 SWAP1 PUSH2 0x2A78 JUMP JUMPDEST PUSH1 0x40 MLOAD DUP1 SWAP2 SUB SWAP1 RETURN JUMPDEST PUSH2 0x202 PUSH2 0x556 JUMP JUMPDEST PUSH1 0x40 MLOAD PUSH2 0x20F SWAP2 SWAP1 PUSH2 0x2AFC JUMP JUMPDEST PUSH1 0x40 MLOAD DUP1 SWAP2 SUB SWAP1 RETURN JUMPDEST PUSH2 0x232 PUSH1 0x4 DUP1 CALLDATASIZE SUB DUP2 ADD SWAP1 PUSH2 0x22D SWAP2 SWAP1 PUSH2 0x2B76 JUMP JUMPDEST PUSH2 0x55E JUMP JUMPDEST PUSH1 0x40 MLOAD PUSH2 0x23F SWAP2 SWAP1 PUSH2 0x2CC3 JUMP JUMPDEST PUSH1 0x40 MLOAD DUP1 SWAP2 SUB SWAP1 RETURN JUMPDEST PUSH2 0x250 PUSH2 0xCFF JUMP JUMPDEST STOP JUMPDEST PUSH2 0x25A PUSH2 0xD11 JUMP JUMPDEST PUSH1 0x40 MLOAD PUSH2 0x267 SWAP2 SWAP1 PUSH2 0x2A78 JUMP JUMPDEST PUSH1 0x40 MLOAD DUP1 SWAP2 SUB SWAP1 RETURN JUMPDEST PUSH2 0x28A PUSH1 0x4 DUP1 CALLDATASIZE SUB DUP2 ADD SWAP1 PUSH2 0x285 SWAP2 SWAP1 PUSH2 0x2CE3 JUMP JUMPDEST PUSH2 0xD26 JUMP JUMPDEST PUSH1 0x40 MLOAD PUSH2 0x297 SWAP2 SWAP1 PUSH2 0x291D JUMP JUMPDEST PUSH1 0x40 MLOAD DUP1 SWAP2 SUB SWAP1 RETURN JUMPDEST PUSH2 0x2A8 PUSH2 0xD6B JUMP JUMPDEST STOP JUMPDEST PUSH2 0x2B2 PUSH2 0xD7E JUMP JUMPDEST STOP JUMPDEST PUSH2 0x2BC PUSH2 0xD90 JUMP JUMPDEST PUSH1 0x40 MLOAD PUSH2 0x2C9 SWAP2 SWAP1 PUSH2 0x2D1D JUMP JUMPDEST PUSH1 0x40 MLOAD DUP1 SWAP2 SUB SWAP1 RETURN JUMPDEST PUSH2 0x2DA PUSH2 0xDB9 JUMP JUMPDEST PUSH1 0x40 MLOAD PUSH2 0x2E7 SWAP2 SWAP1 PUSH2 0x29A6 JUMP JUMPDEST PUSH1 0x40 MLOAD DUP1 SWAP2 SUB SWAP1 RETURN JUMPDEST PUSH2 0x30A PUSH1 0x4 DUP1 CALLDATASIZE SUB DUP2 ADD SWAP1 PUSH2 0x305 SWAP2 SWAP1 PUSH2 0x2A20 JUMP JUMPDEST PUSH2 0xE49 JUMP JUMPDEST PUSH1 0x40 MLOAD PUSH2 0x317 SWAP2 SWAP1 PUSH2 0x2A78 JUMP JUMPDEST PUSH1 0x40 MLOAD DUP1 SWAP2 SUB SWAP1 RETURN JUMPDEST PUSH2 0x33A PUSH1 0x4 DUP1 CALLDATASIZE SUB DUP2 ADD SWAP1 PUSH2 0x335 SWAP2 SWAP1 PUSH2 0x2D36 JUMP JUMPDEST PUSH2 0xE6B JUMP JUMPDEST PUSH1 0x40 MLOAD PUSH2 0x347 SWAP2 SWAP1 PUSH2 0x291D JUMP JUMPDEST PUSH1 0x40 MLOAD DUP1 SWAP2 SUB SWAP1 RETURN JUMPDEST PUSH2 0x36A PUSH1 0x4 DUP1 CALLDATASIZE SUB DUP2 ADD SWAP1 PUSH2 0x365 SWAP2 SWAP1 PUSH2 0x2D74 JUMP JUMPDEST PUSH2 0xF8F JUMP JUMPDEST PUSH1 0x40 MLOAD PUSH2 0x378 SWAP3 SWAP2 SWAP1 PUSH2 0x2E11 JUMP JUMPDEST PUSH1 0x40 MLOAD DUP1 SWAP2 SUB SWAP1 RETURN JUMPDEST PUSH2 0x39B PUSH1 0x4 DUP1 CALLDATASIZE SUB DUP2 ADD SWAP1 PUSH2 0x396 SWAP2 SWAP1 PUSH2 0x2D36 JUMP JUMPDEST PUSH2 0x1474 JUMP JUMPDEST PUSH1 0x40 MLOAD PUSH2 0x3A8 SWAP2 SWAP1 PUSH2 0x291D JUMP JUMPDEST PUSH1 0x40 MLOAD DUP1 SWAP2 SUB SWAP1 RETURN JUMPDEST PUSH2 0x3CB PUSH1 0x4 DUP1 CALLDATASIZE SUB DUP2 ADD SWAP1 PUSH2 0x3C6 SWAP2 SWAP1 PUSH2 0x2E38 JUMP JUMPDEST PUSH2 0x14F6 JUMP JUMPDEST PUSH1 0x40 MLOAD PUSH2 0x3DA SWAP4 SWAP3 SWAP2 SWAP1 PUSH2 0x2EE9 JUMP JUMPDEST PUSH1 0x40 MLOAD DUP1 SWAP2 SUB SWAP1 RETURN JUMPDEST PUSH2 0x3FD PUSH1 0x4 DUP1 CALLDATASIZE SUB DUP2 ADD SWAP1 PUSH2 0x3F8 SWAP2 SWAP1 PUSH2 0x2CE3 JUMP JUMPDEST PUSH2 0x1A9C JUMP JUMPDEST STOP JUMPDEST PUSH0 PUSH0 DUP5 GT PUSH2 0x442 JUMPI PUSH1 0x40 MLOAD PUSH32 0x8C379A000000000000000000000000000000000000000000000000000000000 DUP2 MSTORE PUSH1 0x4 ADD PUSH2 0x439 SWAP1 PUSH2 0x2F68 JUMP JUMPDEST PUSH1 0x40 MLOAD DUP1 SWAP2 SUB SWAP1 REVERT JUMPDEST DUP4 DUP4 PUSH2 0x44E SWAP2 SWAP1 PUSH2 0x2FB3 JUMP JUMPDEST DUP3 DUP6 PUSH2 0x45A SWAP2 SWAP1 PUSH2 0x2FE6 JUMP JUMPDEST PUSH2 0x464 SWAP2 SWAP1 PUSH2 0x3054 JUMP JUMPDEST SWAP1 POP SWAP4 SWAP3 POP POP POP JUMP JUMPDEST PUSH1 0x60 PUSH1 0x3 DUP1 SLOAD PUSH2 0x47C SWAP1 PUSH2 0x30B1 JUMP JUMPDEST DUP1 PUSH1 0x1F ADD PUSH1 0x20 DUP1 SWAP2 DIV MUL PUSH1 0x20 ADD PUSH1 0x40 MLOAD SWAP1 DUP2 ADD PUSH1 0x40 MSTORE DUP1 SWAP3 SWAP2 SWAP1 DUP2 DUP2 MSTORE PUSH1 0x20 ADD DUP3 DUP1 SLOAD PUSH2 0x4A8 SWAP1 PUSH2 0x30B1 JUMP JUMPDEST DUP1 ISZERO PUSH2 0x4F3 JUMPI DUP1 PUSH1 0x1F LT PUSH2 0x4CA JUMPI PUSH2 0x100 DUP1 DUP4 SLOAD DIV MUL DUP4 MSTORE SWAP2 PUSH1 0x20 ADD SWAP2 PUSH2 0x4F3 JUMP JUMPDEST DUP3 ADD SWAP2 SWAP1 PUSH0 MSTORE PUSH1 0x20 PUSH0 KECCAK256 SWAP1 JUMPDEST DUP2 SLOAD DUP2 MSTORE SWAP1 PUSH1 0x1 ADD SWAP1 PUSH1 0x20 ADD DUP1 DUP4 GT PUSH2 0x4D6 JUMPI DUP3 SWAP1 SUB PUSH1 0x1F AND DUP3 ADD SWAP2 JUMPDEST POP POP POP POP POP SWAP1 POP SWAP1 JUMP JUMPDEST PUSH0 PUSH0 PUSH2 0x507 PUSH2 0x1B20 JUMP JUMPDEST SWAP1 POP PUSH2 0x514 DUP2 DUP6 DUP6 PUSH2 0x1B27 JUMP JUMPDEST PUSH1 0x1 SWAP2 POP POP SWAP3 SWAP2 POP POP JUMP JUMPDEST PUSH0 PUSH1 0x2 SLOAD SWAP1 POP SWAP1 JUMP JUMPDEST PUSH0 PUSH0 PUSH2 0x532 PUSH2 0x1B20 JUMP JUMPDEST SWAP1 POP PUSH2 0x53F DUP6 DUP3 DUP6 PUSH2 0x1B39 JUMP JUMPDEST PUSH2 0x54A DUP6 DUP6 DUP6 PUSH2 0x1BCC JUMP JUMPDEST PUSH1 0x1 SWAP2 POP POP SWAP4 SWAP3 POP POP POP JUMP JUMPDEST PUSH0 PUSH1 0x12 SWAP1 POP SWAP1 JUMP JUMPDEST PUSH1 0x60 PUSH0 TIMESTAMP SWAP1 POP PUSH0 DUP9 GT DUP1 ISZERO PUSH2 0x572 JUMPI POP PUSH0 DUP8 GT JUMPDEST DUP1 ISZERO PUSH2 0x581 JUMPI POP PUSH1 0x2 DUP7 DUP7 SWAP1 POP EQ JUMPDEST PUSH2 0x5C0 JUMPI PUSH1 0x40 MLOAD PUSH32 0x8C379A000000000000000000000000000000000000000000000000000000000 DUP2 MSTORE PUSH1 0x4 ADD PUSH2 0x5B7 SWAP1 PUSH2 0x2F68 JUMP JUMPDEST PUSH1 0x40 MLOAD DUP1 SWAP2 SUB SWAP1 REVERT JUMPDEST PUSH0 PUSH20 0xFFFFFFFFFFFFFFFFFFFFFFFFFFFFFFFFFFFFFFFF AND DUP7 DUP7 PUSH0 DUP2 DUP2 LT PUSH2 0x5EA JUMPI PUSH2 0x5E9 PUSH2 0x30E1 JUMP JUMPDEST JUMPDEST SWAP1 POP PUSH1 0x20 MUL ADD PUSH1 0x20 DUP2 ADD SWAP1 PUSH2 0x5FF SWAP2 SWAP1 PUSH2 0x2CE3 JUMP JUMPDEST PUSH20 0xFFFFFFFFFFFFFFFFFFFFFFFFFFFFFFFFFFFFFFFF AND EQ ISZERO DUP1 ISZERO PUSH2 0x677 JUMPI POP PUSH0 PUSH20 0xFFFFFFFFFFFFFFFFFFFFFFFFFFFFFFFFFFFFFFFF AND DUP7 DUP7 PUSH1 0x1 DUP2 DUP2 LT PUSH2 0x649 JUMPI PUSH2 0x648 PUSH2 0x30E1 JUMP JUMPDEST JUMPDEST SWAP1 POP PUSH1 0x20 MUL ADD PUSH1 0x20 DUP2 ADD SWAP1 PUSH2 0x65E SWAP2 SWAP1 PUSH2 0x2CE3 JUMP JUMPDEST PUSH20 0xFFFFFFFFFFFFFFFFFFFFFFFFFFFFFFFFFFFFFFFF AND EQ ISZERO JUMPDEST PUSH2 0x6B6 JUMPI PUSH1 0x40 MLOAD PUSH32 0x8C379A000000000000000000000000000000000000000000000000000000000 DUP2 MSTORE PUSH1 0x4 ADD PUSH2 0x6AD SWAP1 PUSH2 0x3158 JUMP JUMPDEST PUSH1 0x40 MLOAD DUP1 SWAP2 SUB SWAP1 REVERT JUMPDEST PUSH0 PUSH20 0xFFFFFFFFFFFFFFFFFFFFFFFFFFFFFFFFFFFFFFFF AND DUP5 PUSH20 0xFFFFFFFFFFFFFFFFFFFFFFFFFFFFFFFFFFFFFFFF AND SUB PUSH2 0x724 JUMPI PUSH1 0x40 MLOAD PUSH32 0x8C379A000000000000000000000000000000000000000000000000000000000 DUP2 MSTORE PUSH1 0x4 ADD PUSH2 0x71B SWAP1 PUSH2 0x31C0 JUMP JUMPDEST PUSH1 0x40 MLOAD DUP1 SWAP2 SUB SWAP1 REVERT JUMPDEST PUSH0 PUSH1 0x40 MLOAD PUSH1 0x20 ADD PUSH2 0x734 SWAP1 PUSH2 0x3232 JUMP JUMPDEST PUSH1 0x40 MLOAD PUSH1 0x20 DUP2 DUP4 SUB SUB DUP2 MSTORE SWAP1 PUSH1 0x40 MSTORE DUP1 MLOAD SWAP1 PUSH1 0x20 ADD KECCAK256 DUP8 DUP8 PUSH0 DUP2 DUP2 LT PUSH2 0x75D JUMPI PUSH2 0x75C PUSH2 0x30E1 JUMP JUMPDEST JUMPDEST SWAP1 POP PUSH1 0x20 MUL ADD PUSH1 0x20 DUP2 ADD SWAP1 PUSH2 0x772 SWAP2 SWAP1 PUSH2 0x2CE3 JUMP JUMPDEST PUSH20 0xFFFFFFFFFFFFFFFFFFFFFFFFFFFFFFFFFFFFFFFF AND PUSH4 0x95D89B41 PUSH1 0x40 MLOAD DUP2 PUSH4 0xFFFFFFFF AND PUSH1 0xE0 SHL DUP2 MSTORE PUSH1 0x4 ADD PUSH0 PUSH1 0x40 MLOAD DUP1 DUP4 SUB DUP2 DUP7 GAS STATICCALL ISZERO DUP1 ISZERO PUSH2 0x7B9 JUMPI RETURNDATASIZE PUSH0 PUSH0 RETURNDATACOPY RETURNDATASIZE PUSH0 REVERT JUMPDEST POP POP POP POP PUSH1 0x40 MLOAD RETURNDATASIZE PUSH0 DUP3 RETURNDATACOPY RETURNDATASIZE PUSH1 0x1F NOT PUSH1 0x1F DUP3 ADD AND DUP3 ADD DUP1 PUSH1 0x40 MSTORE POP DUP2 ADD SWAP1 PUSH2 0x7E1 SWAP2 SWAP1 PUSH2 0x3360 JUMP JUMPDEST PUSH1 0x40 MLOAD PUSH1 0x20 ADD PUSH2 0x7F1 SWAP2 SWAP1 PUSH2 0x33D7 JUMP JUMPDEST PUSH1 0x40 MLOAD PUSH1 0x20 DUP2 DUP4 SUB SUB DUP2 MSTORE SWAP1 PUSH1 0x40 MSTORE DUP1 MLOAD SWAP1 PUSH1 0x20 ADD KECCAK256 EQ SWAP1 POP PUSH0 ADDRESS PUSH20 0xFFFFFFFFFFFFFFFFFFFFFFFFFFFFFFFFFFFFFFFF AND PUSH4 0x54D50D4 DUP12 DUP5 PUSH2 0x835 JUMPI PUSH1 0x7 SLOAD PUSH2 0x839 JUMP JUMPDEST PUSH1 0x6 SLOAD JUMPDEST DUP6 PUSH2 0x846 JUMPI PUSH1 0x6 SLOAD PUSH2 0x84A JUMP JUMPDEST PUSH1 0x7 SLOAD JUMPDEST PUSH1 0x40 MLOAD DUP5 PUSH4 0xFFFFFFFF AND PUSH1 0xE0 SHL DUP2 MSTORE PUSH1 0x4 ADD PUSH2 0x868 SWAP4 SWAP3 SWAP2 SWAP1 PUSH2 0x2EE9 JUMP JUMPDEST PUSH1 0x20 PUSH1 0x40 MLOAD DUP1 DUP4 SUB DUP2 DUP7 GAS STATICCALL ISZERO DUP1 ISZERO PUSH2 0x883 JUMPI RETURNDATASIZE PUSH0 PUSH0 RETURNDATACOPY RETURNDATASIZE PUSH0 REVERT JUMPDEST POP POP POP POP PUSH1 0x40 MLOAD RETURNDATASIZE PUSH1 0x1F NOT PUSH1 0x1F DUP3 ADD AND DUP3 ADD DUP1 PUSH1 0x40 MSTORE POP DUP2 ADD SWAP1 PUSH2 0x8A7 SWAP2 SWAP1 PUSH2 0x3401 JUMP JUMPDEST SWAP1 POP DUP9 DUP2 LT ISZERO PUSH2 0x8EC JUMPI PUSH1 0x40 MLOAD PUSH32 0x8C379A000000000000000000000000000000000000000000000000000000000 DUP2 MSTORE PUSH1 0x4 ADD PUSH2 0x8E3 SWAP1 PUSH2 0x3476 JUMP JUMPDEST PUSH1 0x40 MLOAD DUP1 SWAP2 SUB SWAP1 REVERT JUMPDEST DUP10 DUP9 DUP9 PUSH0 DUP2 DUP2 LT PUSH2 0x900 JUMPI PUSH2 0x8FF PUSH2 0x30E1 JUMP JUMPDEST JUMPDEST SWAP1 POP PUSH1 0x20 MUL ADD PUSH1 0x20 DUP2 ADD SWAP1 PUSH2 0x915 SWAP2 SWAP1 PUSH2 0x2CE3 JUMP JUMPDEST PUSH20 0xFFFFFFFFFFFFFFFFFFFFFFFFFFFFFFFFFFFFFFFF AND PUSH4 0x70A08231 CALLER PUSH1 0x40 MLOAD DUP3 PUSH4 0xFFFFFFFF AND PUSH1 0xE0 SHL DUP2 MSTORE PUSH1 0x4 ADD PUSH2 0x94D SWAP2 SWAP1 PUSH2 0x2D1D JUMP JUMPDEST PUSH1 0x20 PUSH1 0x40 MLOAD DUP1 DUP4 SUB DUP2 DUP7 GAS STATICCALL ISZERO DUP1 ISZERO PUSH2 0x968 JUMPI RETURNDATASIZE PUSH0 PUSH0 RETURNDATACOPY RETURNDATASIZE PUSH0 REVERT JUMPDEST POP POP POP POP PUSH1 0x40 MLOAD RETURNDATASIZE PUSH1 0x1F NOT PUSH1 0x1F DUP3 ADD AND DUP3 ADD DUP1 PUSH1 0x40 MSTORE POP DUP2 ADD SWAP1 PUSH2 0x98C SWAP2 SWAP1 PUSH2 0x3401 JUMP JUMPDEST LT ISZERO PUSH2 0x9CD JUMPI PUSH1 0x40 MLOAD PUSH32 0x8C379A000000000000000000000000000000000000000000000000000000000 DUP2 MSTORE PUSH1 0x4 ADD PUSH2 0x9C4 SWAP1 PUSH2 0x34DE JUMP JUMPDEST PUSH1 0x40 MLOAD DUP1 SWAP2 SUB SWAP1 REVERT JUMPDEST DUP1 DUP9 DUP9 PUSH1 0x1 DUP2 DUP2 LT PUSH2 0x9E2 JUMPI PUSH2 0x9E1 PUSH2 0x30E1 JUMP JUMPDEST JUMPDEST SWAP1 POP PUSH1 0x20 MUL ADD PUSH1 0x20 DUP2 ADD SWAP1 PUSH2 0x9F7 SWAP2 SWAP1 PUSH2 0x2CE3 JUMP JUMPDEST PUSH20 0xFFFFFFFFFFFFFFFFFFFFFFFFFFFFFFFFFFFFFFFF AND PUSH4 0x70A08231 ADDRESS PUSH1 0x40 MLOAD DUP3 PUSH4 0xFFFFFFFF AND PUSH1 0xE0 SHL DUP2 MSTORE PUSH1 0x4 ADD PUSH2 0xA2F SWAP2 SWAP1 PUSH2 0x2D1D JUMP JUMPDEST PUSH1 0x20 PUSH1 0x40 MLOAD DUP1 DUP4 SUB DUP2 DUP7 GAS STATICCALL ISZERO DUP1 ISZERO PUSH2 0xA4A JUMPI RETURNDATASIZE PUSH0 PUSH0 RETURNDATACOPY RETURNDATASIZE PUSH0 REVERT JUMPDEST POP POP POP POP PUSH1 0x40 MLOAD RETURNDATASIZE PUSH1 0x1F NOT PUSH1 0x1F DUP3 ADD AND DUP3 ADD DUP1 PUSH1 0x40 MSTORE POP DUP2 ADD SWAP1 PUSH2 0xA6E SWAP2 SWAP1 PUSH2 0x3401 JUMP JUMPDEST LT ISZERO PUSH2 0xAAF JUMPI PUSH1 0x40 MLOAD PUSH32 0x8C379A000000000000000000000000000000000000000000000000000000000 DUP2 MSTORE PUSH1 0x4 ADD PUSH2 0xAA6 SWAP1 PUSH2 0x34DE JUMP JUMPDEST PUSH1 0x40 MLOAD DUP1 SWAP2 SUB SWAP1 REVERT JUMPDEST DUP2 ISZERO PUSH2 0xAEA JUMPI DUP10 PUSH1 0x6 PUSH0 DUP3 DUP3 SLOAD PUSH2 0xAC6 SWAP2 SWAP1 PUSH2 0x2FB3 JUMP JUMPDEST SWAP3 POP POP DUP2 SWAP1 SSTORE POP DUP1 PUSH1 0x7 PUSH0 DUP3 DUP3 SLOAD PUSH2 0xADE SWAP2 SWAP1 PUSH2 0x34FC JUMP JUMPDEST SWAP3 POP POP DUP2 SWAP1 SSTORE POP PUSH2 0xB1B JUMP JUMPDEST DUP10 PUSH1 0x6 PUSH0 DUP3 DUP3 SLOAD PUSH2 0xAFB SWAP2 SWAP1 PUSH2 0x34FC JUMP JUMPDEST SWAP3 POP POP DUP2 SWAP1 SSTORE POP DUP1 PUSH1 0x7 PUSH0 DUP3 DUP3 SLOAD PUSH2 0xB13 SWAP2 SWAP1 PUSH2 0x2FB3 JUMP JUMPDEST SWAP3 POP POP DUP2 SWAP1 SSTORE POP JUMPDEST DUP8 DUP8 PUSH0 DUP2 DUP2 LT PUSH2 0xB2E JUMPI PUSH2 0xB2D PUSH2 0x30E1 JUMP JUMPDEST JUMPDEST SWAP1 POP PUSH1 0x20 MUL ADD PUSH1 0x20 DUP2 ADD SWAP1 PUSH2 0xB43 SWAP2 SWAP1 PUSH2 0x2CE3 JUMP JUMPDEST PUSH20 0xFFFFFFFFFFFFFFFFFFFFFFFFFFFFFFFFFFFFFFFF AND PUSH4 0x23B872DD CALLER ADDRESS DUP14 PUSH1 0x40 MLOAD DUP5 PUSH4 0xFFFFFFFF AND PUSH1 0xE0 SHL DUP2 MSTORE PUSH1 0x4 ADD PUSH2 0xB7F SWAP4 SWAP3 SWAP2 SWAP1 PUSH2 0x352F JUMP JUMPDEST PUSH1 0x20 PUSH1 0x40 MLOAD DUP1 DUP4 SUB DUP2 PUSH0 DUP8 GAS CALL ISZERO DUP1 ISZERO PUSH2 0xB9B JUMPI RETURNDATASIZE PUSH0 PUSH0 RETURNDATACOPY RETURNDATASIZE PUSH0 REVERT JUMPDEST POP POP POP POP PUSH1 0x40 MLOAD RETURNDATASIZE PUSH1 0x1F NOT PUSH1 0x1F DUP3 ADD AND DUP3 ADD DUP1 PUSH1 0x40 MSTORE POP DUP2 ADD SWAP1 PUSH2 0xBBF SWAP2 SWAP1 PUSH2 0x358E JUMP JUMPDEST POP DUP8 DUP8 PUSH1 0x1 DUP2 DUP2 LT PUSH2 0xBD4 JUMPI PUSH2 0xBD3 PUSH2 0x30E1 JUMP JUMPDEST JUMPDEST SWAP1 POP PUSH1 0x20 MUL ADD PUSH1 0x20 DUP2 ADD SWAP1 PUSH2 0xBE9 SWAP2 SWAP1 PUSH2 0x2CE3 JUMP JUMPDEST PUSH20 0xFFFFFFFFFFFFFFFFFFFFFFFFFFFFFFFFFFFFFFFF AND PUSH4 0xA9059CBB CALLER DUP4 PUSH1 0x40 MLOAD DUP4 PUSH4 0xFFFFFFFF AND PUSH1 0xE0 SHL DUP2 MSTORE PUSH1 0x4 ADD PUSH2 0xC23 SWAP3 SWAP2 SWAP1 PUSH2 0x35B9 JUMP JUMPDEST PUSH1 0x20 PUSH1 0x40 MLOAD DUP1 DUP4 SUB DUP2 PUSH0 DUP8 GAS CALL ISZERO DUP1 ISZERO PUSH2 0xC3F JUMPI RETURNDATASIZE PUSH0 PUSH0 RETURNDATACOPY RETURNDATASIZE PUSH0 REVERT JUMPDEST POP POP POP POP PUSH1 0x40 MLOAD RETURNDATASIZE PUSH1 0x1F NOT PUSH1 0x1F DUP3 ADD AND DUP3 ADD DUP1 PUSH1 0x40 MSTORE POP DUP2 ADD SWAP1 PUSH2 0xC63 SWAP2 SWAP1 PUSH2 0x358E JUMP JUMPDEST POP DUP10 DUP5 PUSH0 DUP2 MLOAD DUP2 LT PUSH2 0xC78 JUMPI PUSH2 0xC77 PUSH2 0x30E1 JUMP JUMPDEST JUMPDEST PUSH1 0x20 MUL PUSH1 0x20 ADD ADD DUP2 DUP2 MSTORE POP POP DUP1 DUP5 PUSH1 0x1 DUP2 MLOAD DUP2 LT PUSH2 0xC99 JUMPI PUSH2 0xC98 PUSH2 0x30E1 JUMP JUMPDEST JUMPDEST PUSH1 0x20 MUL PUSH1 0x20 ADD ADD DUP2 DUP2 MSTORE POP POP DUP3 TIMESTAMP PUSH2 0xCB1 SWAP2 SWAP1 PUSH2 0x34FC JUMP JUMPDEST DUP6 GT PUSH2 0xCF2 JUMPI PUSH1 0x40 MLOAD PUSH32 0x8C379A000000000000000000000000000000000000000000000000000000000 DUP2 MSTORE PUSH1 0x4 ADD PUSH2 0xCE9 SWAP1 PUSH2 0x362A JUMP JUMPDEST PUSH1 0x40 MLOAD DUP1 SWAP2 SUB SWAP1 REVERT JUMPDEST POP POP POP SWAP7 SWAP6 POP POP POP POP POP POP JUMP JUMPDEST PUSH2 0xD07 PUSH2 0x1CBC JUMP JUMPDEST PUSH2 0xD0F PUSH2 0x1D43 JUMP JUMPDEST JUMP JUMPDEST PUSH0 PUSH1 0x5 PUSH0 SWAP1 SLOAD SWAP1 PUSH2 0x100 EXP SWAP1 DIV PUSH1 0xFF AND SWAP1 POP SWAP1 JUMP JUMPDEST PUSH0 PUSH0 PUSH0 DUP4 PUSH20 0xFFFFFFFFFFFFFFFFFFFFFFFFFFFFFFFFFFFFFFFF AND PUSH20 0xFFFFFFFFFFFFFFFFFFFFFFFFFFFFFFFFFFFFFFFF AND DUP2 MSTORE PUSH1 0x20 ADD SWAP1 DUP2 MSTORE PUSH1 0x20 ADD PUSH0 KECCAK256 SLOAD SWAP1 POP SWAP2 SWAP1 POP JUMP JUMPDEST PUSH2 0xD73 PUSH2 0x1CBC JUMP JUMPDEST PUSH2 0xD7C PUSH0 PUSH2 0x1DA4 JUMP JUMPDEST JUMP JUMPDEST PUSH2 0xD86 PUSH2 0x1CBC JUMP JUMPDEST PUSH2 0xD8E PUSH2 0x1E69 JUMP JUMPDEST JUMP JUMPDEST PUSH0 PUSH1 0x5 PUSH1 0x1 SWAP1 SLOAD SWAP1 PUSH2 0x100 EXP SWAP1 DIV PUSH20 0xFFFFFFFFFFFFFFFFFFFFFFFFFFFFFFFFFFFFFFFF AND SWAP1 POP SWAP1 JUMP JUMPDEST PUSH1 0x60 PUSH1 0x4 DUP1 SLOAD PUSH2 0xDC8 SWAP1 PUSH2 0x30B1 JUMP JUMPDEST DUP1 PUSH1 0x1F ADD PUSH1 0x20 DUP1 SWAP2 DIV MUL PUSH1 0x20 ADD PUSH1 0x40 MLOAD SWAP1 DUP2 ADD PUSH1 0x40 MSTORE DUP1 SWAP3 SWAP2 SWAP1 DUP2 DUP2 MSTORE PUSH1 0x20 ADD DUP3 DUP1 SLOAD PUSH2 0xDF4 SWAP1 PUSH2 0x30B1 JUMP JUMPDEST DUP1 ISZERO PUSH2 0xE3F JUMPI DUP1 PUSH1 0x1F LT PUSH2 0xE16 JUMPI PUSH2 0x100 DUP1 DUP4 SLOAD DIV MUL DUP4 MSTORE SWAP2 PUSH1 0x20 ADD SWAP2 PUSH2 0xE3F JUMP JUMPDEST DUP3 ADD SWAP2 SWAP1 PUSH0 MSTORE PUSH1 0x20 PUSH0 KECCAK256 SWAP1 JUMPDEST DUP2 SLOAD DUP2 MSTORE SWAP1 PUSH1 0x1 ADD SWAP1 PUSH1 0x20 ADD DUP1 DUP4 GT PUSH2 0xE22 JUMPI DUP3 SWAP1 SUB PUSH1 0x1F AND DUP3 ADD SWAP2 JUMPDEST POP POP POP POP POP SWAP1 POP SWAP1 JUMP JUMPDEST PUSH0 PUSH0 PUSH2 0xE53 PUSH2 0x1B20 JUMP JUMPDEST SWAP1 POP PUSH2 0xE60 DUP2 DUP6 DUP6 PUSH2 0x1BCC JUMP JUMPDEST PUSH1 0x1 SWAP2 POP POP SWAP3 SWAP2 POP POP JUMP JUMPDEST PUSH0 PUSH0 PUSH20 0xFFFFFFFFFFFFFFFFFFFFFFFFFFFFFFFFFFFFFFFF AND DUP4 PUSH20 0xFFFFFFFFFFFFFFFFFFFFFFFFFFFFFFFFFFFFFFFF AND EQ ISZERO DUP1 ISZERO PUSH2 0xED4 JUMPI POP PUSH0 PUSH20 0xFFFFFFFFFFFFFFFFFFFFFFFFFFFFFFFFFFFFFFFF AND DUP3 PUSH20 0xFFFFFFFFFFFFFFFFFFFFFFFFFFFFFFFFFFFFFFFF AND EQ ISZERO JUMPDEST PUSH2 0xF13 JUMPI PUSH1 0x40 MLOAD PUSH32 0x8C379A000000000000000000000000000000000000000000000000000000000 DUP2 MSTORE PUSH1 0x4 ADD PUSH2 0xF0A SWAP1 PUSH2 0x3158 JUMP JUMPDEST PUSH1 0x40 MLOAD DUP1 SWAP2 SUB SWAP1 REVERT JUMPDEST PUSH0 PUSH1 0x6 SLOAD GT DUP1 ISZERO PUSH2 0xF25 JUMPI POP PUSH0 PUSH1 0x7 SLOAD GT JUMPDEST PUSH2 0xF64 JUMPI PUSH1 0x40 MLOAD PUSH32 0x8C379A000000000000000000000000000000000000000000000000000000000 DUP2 MSTORE PUSH1 0x4 ADD PUSH2 0xF5B SWAP1 PUSH2 0x3692 JUMP JUMPDEST PUSH1 0x40 MLOAD DUP1 SWAP2 SUB SWAP1 REVERT JUMPDEST PUSH1 0x6 SLOAD PUSH8 0xDE0B6B3A7640000 PUSH1 0x7 SLOAD PUSH2 0xF7D SWAP2 SWAP1 PUSH2 0x2FE6 JUMP JUMPDEST PUSH2 0xF87 SWAP2 SWAP1 PUSH2 0x3054 JUMP JUMPDEST SWAP1 POP SWAP3 SWAP2 POP POP JUMP JUMPDEST PUSH0 PUSH0 PUSH0 TIMESTAMP SWAP1 POP PUSH0 PUSH20 0xFFFFFFFFFFFFFFFFFFFFFFFFFFFFFFFFFFFFFFFF AND DUP11 PUSH20 0xFFFFFFFFFFFFFFFFFFFFFFFFFFFFFFFFFFFFFFFF AND EQ ISZERO DUP1 ISZERO PUSH2 0xFFD JUMPI POP PUSH0 PUSH20 0xFFFFFFFFFFFFFFFFFFFFFFFFFFFFFFFFFFFFFFFF AND DUP10 PUSH20 0xFFFFFFFFFFFFFFFFFFFFFFFFFFFFFFFFFFFFFFFF AND EQ ISZERO JUMPDEST PUSH2 0x103C JUMPI PUSH1 0x40 MLOAD PUSH32 0x8C379A000000000000000000000000000000000000000000000000000000000 DUP2 MSTORE PUSH1 0x4 ADD PUSH2 0x1033 SWAP1 PUSH2 0x3158 JUMP JUMPDEST PUSH1 0x40 MLOAD DUP1 SWAP2 SUB SWAP1 REVERT JUMPDEST PUSH0 PUSH20 0xFFFFFFFFFFFFFFFFFFFFFFFFFFFFFFFFFFFFFFFF AND DUP6 PUSH20 0xFFFFFFFFFFFFFFFFFFFFFFFFFFFFFFFFFFFFFFFF AND SUB PUSH2 0x10AA JUMPI PUSH1 0x40 MLOAD PUSH32 0x8C379A000000000000000000000000000000000000000000000000000000000 DUP2 MSTORE PUSH1 0x4 ADD PUSH2 0x10A1 SWAP1 PUSH2 0x31C0 JUMP JUMPDEST PUSH1 0x40 MLOAD DUP1 SWAP2 SUB SWAP1 REVERT JUMPDEST PUSH0 DUP9 GT DUP1 ISZERO PUSH2 0x10B8 JUMPI POP PUSH0 DUP5 GT JUMPDEST DUP1 ISZERO PUSH2 0x10C3 JUMPI POP PUSH0 DUP8 GT JUMPDEST DUP1 ISZERO PUSH2 0x10CE JUMPI POP PUSH0 DUP7 GT JUMPDEST PUSH2 0x110D JUMPI PUSH1 0x40 MLOAD PUSH32 0x8C379A000000000000000000000000000000000000000000000000000000000 DUP2 MSTORE PUSH1 0x4 ADD PUSH2 0x1104 SWAP1 PUSH2 0x2F68 JUMP JUMPDEST PUSH1 0x40 MLOAD DUP1 SWAP2 SUB SWAP1 REVERT JUMPDEST DUP8 ADDRESS PUSH20 0xFFFFFFFFFFFFFFFFFFFFFFFFFFFFFFFFFFFFFFFF AND PUSH4 0x70A08231 CALLER PUSH1 0x40 MLOAD DUP3 PUSH4 0xFFFFFFFF AND PUSH1 0xE0 SHL DUP2 MSTORE PUSH1 0x4 ADD PUSH2 0x1147 SWAP2 SWAP1 PUSH2 0x2D1D JUMP JUMPDEST PUSH1 0x20 PUSH1 0x40 MLOAD DUP1 DUP4 SUB DUP2 DUP7 GAS STATICCALL ISZERO DUP1 ISZERO PUSH2 0x1162 JUMPI RETURNDATASIZE PUSH0 PUSH0 RETURNDATACOPY RETURNDATASIZE PUSH0 REVERT JUMPDEST POP POP POP POP PUSH1 0x40 MLOAD RETURNDATASIZE PUSH1 0x1F NOT PUSH1 0x1F DUP3 ADD AND DUP3 ADD DUP1 PUSH1 0x40 MSTORE POP DUP2 ADD SWAP1 PUSH2 0x1186 SWAP2 SWAP1 PUSH2 0x3401 JUMP JUMPDEST LT ISZERO PUSH2 0x11C7 JUMPI PUSH1 0x40 MLOAD PUSH32 0x8C379A000000000000000000000000000000000000000000000000000000000 DUP2 MSTORE PUSH1 0x4 ADD PUSH2 0x11BE SWAP1 PUSH2 0x36FA JUMP JUMPDEST PUSH1 0x40 MLOAD DUP1 SWAP2 SUB SWAP1 REVERT JUMPDEST PUSH2 0x11D0 DUP9 PUSH2 0x1ECB JUMP JUMPDEST DUP1 SWAP4 POP DUP2 SWAP5 POP POP POP DUP7 DUP4 LT ISZERO PUSH2 0x121B JUMPI PUSH1 0x40 MLOAD PUSH32 0x8C379A000000000000000000000000000000000000000000000000000000000 DUP2 MSTORE PUSH1 0x4 ADD PUSH2 0x1212 SWAP1 PUSH2 0x3762 JUMP JUMPDEST PUSH1 0x40 MLOAD DUP1 SWAP2 SUB SWAP1 REVERT JUMPDEST DUP6 DUP3 LT ISZERO PUSH2 0x125E JUMPI PUSH1 0x40 MLOAD PUSH32 0x8C379A000000000000000000000000000000000000000000000000000000000 DUP2 MSTORE PUSH1 0x4 ADD PUSH2 0x1255 SWAP1 PUSH2 0x37CA JUMP JUMPDEST PUSH1 0x40 MLOAD DUP1 SWAP2 SUB SWAP1 REVERT JUMPDEST DUP3 PUSH1 0x6 SLOAD LT ISZERO PUSH2 0x12A3 JUMPI PUSH1 0x40 MLOAD PUSH32 0x8C379A000000000000000000000000000000000000000000000000000000000 DUP2 MSTORE PUSH1 0x4 ADD PUSH2 0x129A SWAP1 PUSH2 0x3832 JUMP JUMPDEST PUSH1 0x40 MLOAD DUP1 SWAP2 SUB SWAP1 REVERT JUMPDEST DUP2 PUSH1 0x7 SLOAD LT ISZERO PUSH2 0x12E8 JUMPI PUSH1 0x40 MLOAD PUSH32 0x8C379A000000000000000000000000000000000000000000000000000000000 DUP2 MSTORE PUSH1 0x4 ADD PUSH2 0x12DF SWAP1 PUSH2 0x389A JUMP JUMPDEST PUSH1 0x40 MLOAD DUP1 SWAP2 SUB SWAP1 REVERT JUMPDEST PUSH2 0x12F2 CALLER DUP10 PUSH2 0x1FE0 JUMP JUMPDEST DUP3 PUSH1 0x6 PUSH0 DUP3 DUP3 SLOAD PUSH2 0x1303 SWAP2 SWAP1 PUSH2 0x34FC JUMP JUMPDEST SWAP3 POP POP DUP2 SWAP1 SSTORE POP DUP2 PUSH1 0x7 PUSH0 DUP3 DUP3 SLOAD PUSH2 0x131B SWAP2 SWAP1 PUSH2 0x34FC JUMP JUMPDEST SWAP3 POP POP DUP2 SWAP1 SSTORE POP DUP10 PUSH20 0xFFFFFFFFFFFFFFFFFFFFFFFFFFFFFFFFFFFFFFFF AND PUSH4 0xA9059CBB DUP7 DUP6 PUSH1 0x40 MLOAD DUP4 PUSH4 0xFFFFFFFF AND PUSH1 0xE0 SHL DUP2 MSTORE PUSH1 0x4 ADD PUSH2 0x135D SWAP3 SWAP2 SWAP1 PUSH2 0x35B9 JUMP JUMPDEST PUSH1 0x20 PUSH1 0x40 MLOAD DUP1 DUP4 SUB DUP2 PUSH0 DUP8 GAS CALL ISZERO DUP1 ISZERO PUSH2 0x1379 JUMPI RETURNDATASIZE PUSH0 PUSH0 RETURNDATACOPY RETURNDATASIZE PUSH0 REVERT JUMPDEST POP POP POP POP PUSH1 0x40 MLOAD RETURNDATASIZE PUSH1 0x1F NOT PUSH1 0x1F DUP3 ADD AND DUP3 ADD DUP1 PUSH1 0x40 MSTORE POP DUP2 ADD SWAP1 PUSH2 0x139D SWAP2 SWAP1 PUSH2 0x358E JUMP JUMPDEST POP DUP9 PUSH20 0xFFFFFFFFFFFFFFFFFFFFFFFFFFFFFFFFFFFFFFFF AND PUSH4 0xA9059CBB DUP7 DUP5 PUSH1 0x40 MLOAD DUP4 PUSH4 0xFFFFFFFF AND PUSH1 0xE0 SHL DUP2 MSTORE PUSH1 0x4 ADD PUSH2 0x13D9 SWAP3 SWAP2 SWAP1 PUSH2 0x35B9 JUMP JUMPDEST PUSH1 0x20 PUSH1 0x40 MLOAD DUP1 DUP4 SUB DUP2 PUSH0 DUP8 GAS CALL ISZERO DUP1 ISZERO PUSH2 0x13F5 JUMPI RETURNDATASIZE PUSH0 PUSH0 RETURNDATACOPY RETURNDATASIZE PUSH0 REVERT JUMPDEST POP POP POP POP PUSH1 0x40 MLOAD RETURNDATASIZE PUSH1 0x1F NOT PUSH1 0x1F DUP3 ADD AND DUP3 ADD DUP1 PUSH1 0x40 MSTORE POP DUP2 ADD SWAP1 PUSH2 0x1419 SWAP2 SWAP1 PUSH2 0x358E JUMP JUMPDEST POP DUP1 TIMESTAMP PUSH2 0x1426 SWAP2 SWAP1 PUSH2 0x34FC JUMP JUMPDEST DUP5 GT PUSH2 0x1467 JUMPI PUSH1 0x40 MLOAD PUSH32 0x8C379A000000000000000000000000000000000000000000000000000000000 DUP2 MSTORE PUSH1 0x4 ADD PUSH2 0x145E SWAP1 PUSH2 0x362A JUMP JUMPDEST PUSH1 0x40 MLOAD DUP1 SWAP2 SUB SWAP1 REVERT JUMPDEST POP SWAP8 POP SWAP8 SWAP6 POP POP POP POP POP POP JUMP JUMPDEST PUSH0 PUSH1 0x1 PUSH0 DUP5 PUSH20 0xFFFFFFFFFFFFFFFFFFFFFFFFFFFFFFFFFFFFFFFF AND PUSH20 0xFFFFFFFFFFFFFFFFFFFFFFFFFFFFFFFFFFFFFFFF AND DUP2 MSTORE PUSH1 0x20 ADD SWAP1 DUP2 MSTORE PUSH1 0x20 ADD PUSH0 KECCAK256 PUSH0 DUP4 PUSH20 0xFFFFFFFFFFFFFFFFFFFFFFFFFFFFFFFFFFFFFFFF AND PUSH20 0xFFFFFFFFFFFFFFFFFFFFFFFFFFFFFFFFFFFFFFFF AND DUP2 MSTORE PUSH1 0x20 ADD SWAP1 DUP2 MSTORE PUSH1 0x20 ADD PUSH0 KECCAK256 SLOAD SWAP1 POP SWAP3 SWAP2 POP POP JUMP JUMPDEST PUSH0 PUSH0 PUSH0 PUSH0 TIMESTAMP SWAP1 POP PUSH0 PUSH20 0xFFFFFFFFFFFFFFFFFFFFFFFFFFFFFFFFFFFFFFFF AND DUP13 PUSH20 0xFFFFFFFFFFFFFFFFFFFFFFFFFFFFFFFFFFFFFFFF AND EQ ISZERO DUP1 ISZERO PUSH2 0x1565 JUMPI POP PUSH0 PUSH20 0xFFFFFFFFFFFFFFFFFFFFFFFFFFFFFFFFFFFFFFFF AND DUP12 PUSH20 0xFFFFFFFFFFFFFFFFFFFFFFFFFFFFFFFFFFFFFFFF AND EQ ISZERO JUMPDEST PUSH2 0x15A4 JUMPI PUSH1 0x40 MLOAD PUSH32 0x8C379A000000000000000000000000000000000000000000000000000000000 DUP2 MSTORE PUSH1 0x4 ADD PUSH2 0x159B SWAP1 PUSH2 0x3158 JUMP JUMPDEST PUSH1 0x40 MLOAD DUP1 SWAP2 SUB SWAP1 REVERT JUMPDEST PUSH0 PUSH20 0xFFFFFFFFFFFFFFFFFFFFFFFFFFFFFFFFFFFFFFFF AND DUP7 PUSH20 0xFFFFFFFFFFFFFFFFFFFFFFFFFFFFFFFFFFFFFFFF AND SUB PUSH2 0x1612 JUMPI PUSH1 0x40 MLOAD PUSH32 0x8C379A000000000000000000000000000000000000000000000000000000000 DUP2 MSTORE PUSH1 0x4 ADD PUSH2 0x1609 SWAP1 PUSH2 0x31C0 JUMP JUMPDEST PUSH1 0x40 MLOAD DUP1 SWAP2 SUB SWAP1 REVERT JUMPDEST PUSH0 DUP11 GT DUP1 ISZERO PUSH2 0x1620 JUMPI POP PUSH0 DUP10 GT JUMPDEST DUP1 ISZERO PUSH2 0x162B JUMPI POP PUSH0 DUP6 GT JUMPDEST DUP1 ISZERO PUSH2 0x1636 JUMPI POP PUSH0 DUP9 GT JUMPDEST DUP1 ISZERO PUSH2 0x1641 JUMPI POP PUSH0 DUP8 GT JUMPDEST PUSH2 0x1680 JUMPI PUSH1 0x40 MLOAD PUSH32 0x8C379A000000000000000000000000000000000000000000000000000000000 DUP2 MSTORE PUSH1 0x4 ADD PUSH2 0x1677 SWAP1 PUSH2 0x2F68 JUMP JUMPDEST PUSH1 0x40 MLOAD DUP1 SWAP2 SUB SWAP1 REVERT JUMPDEST PUSH2 0x168A DUP11 DUP11 PUSH2 0x205F JUMP JUMPDEST DUP1 SWAP5 POP DUP2 SWAP6 POP POP POP DUP8 DUP5 LT ISZERO PUSH2 0x16D5 JUMPI PUSH1 0x40 MLOAD PUSH32 0x8C379A000000000000000000000000000000000000000000000000000000000 DUP2 MSTORE PUSH1 0x4 ADD PUSH2 0x16CC SWAP1 PUSH2 0x3762 JUMP JUMPDEST PUSH1 0x40 MLOAD DUP1 SWAP2 SUB SWAP1 REVERT JUMPDEST DUP7 DUP4 LT ISZERO PUSH2 0x1718 JUMPI PUSH1 0x40 MLOAD PUSH32 0x8C379A000000000000000000000000000000000000000000000000000000000 DUP2 MSTORE PUSH1 0x4 ADD PUSH2 0x170F SWAP1 PUSH2 0x37CA JUMP JUMPDEST PUSH1 0x40 MLOAD DUP1 SWAP2 SUB SWAP1 REVERT JUMPDEST DUP4 DUP13 PUSH20 0xFFFFFFFFFFFFFFFFFFFFFFFFFFFFFFFFFFFFFFFF AND PUSH4 0x70A08231 CALLER PUSH1 0x40 MLOAD DUP3 PUSH4 0xFFFFFFFF AND PUSH1 0xE0 SHL DUP2 MSTORE PUSH1 0x4 ADD PUSH2 0x1752 SWAP2 SWAP1 PUSH2 0x2D1D JUMP JUMPDEST PUSH1 0x20 PUSH1 0x40 MLOAD DUP1 DUP4 SUB DUP2 DUP7 GAS STATICCALL ISZERO DUP1 ISZERO PUSH2 0x176D JUMPI RETURNDATASIZE PUSH0 PUSH0 RETURNDATACOPY RETURNDATASIZE PUSH0 REVERT JUMPDEST POP POP POP POP PUSH1 0x40 MLOAD RETURNDATASIZE PUSH1 0x1F NOT PUSH1 0x1F DUP3 ADD AND DUP3 ADD DUP1 PUSH1 0x40 MSTORE POP DUP2 ADD SWAP1 PUSH2 0x1791 SWAP2 SWAP1 PUSH2 0x3401 JUMP JUMPDEST LT ISZERO PUSH2 0x17D2 JUMPI PUSH1 0x40 MLOAD PUSH32 0x8C379A000000000000000000000000000000000000000000000000000000000 DUP2 MSTORE PUSH1 0x4 ADD PUSH2 0x17C9 SWAP1 PUSH2 0x3902 JUMP JUMPDEST PUSH1 0x40 MLOAD DUP1 SWAP2 SUB SWAP1 REVERT JUMPDEST DUP3 DUP12 PUSH20 0xFFFFFFFFFFFFFFFFFFFFFFFFFFFFFFFFFFFFFFFF AND PUSH4 0x70A08231 CALLER PUSH1 0x40 MLOAD DUP3 PUSH4 0xFFFFFFFF AND PUSH1 0xE0 SHL DUP2 MSTORE PUSH1 0x4 ADD PUSH2 0x180C SWAP2 SWAP1 PUSH2 0x2D1D JUMP JUMPDEST PUSH1 0x20 PUSH1 0x40 MLOAD DUP1 DUP4 SUB DUP2 DUP7 GAS STATICCALL ISZERO DUP1 ISZERO PUSH2 0x1827 JUMPI RETURNDATASIZE PUSH0 PUSH0 RETURNDATACOPY RETURNDATASIZE PUSH0 REVERT JUMPDEST POP POP POP POP PUSH1 0x40 MLOAD RETURNDATASIZE PUSH1 0x1F NOT PUSH1 0x1F DUP3 ADD AND DUP3 ADD DUP1 PUSH1 0x40 MSTORE POP DUP2 ADD SWAP1 PUSH2 0x184B SWAP2 SWAP1 PUSH2 0x3401 JUMP JUMPDEST LT ISZERO PUSH2 0x188C JUMPI PUSH1 0x40 MLOAD PUSH32 0x8C379A000000000000000000000000000000000000000000000000000000000 DUP2 MSTORE PUSH1 0x4 ADD PUSH2 0x1883 SWAP1 PUSH2 0x396A JUMP JUMPDEST PUSH1 0x40 MLOAD DUP1 SWAP2 SUB SWAP1 REVERT JUMPDEST DUP4 PUSH1 0x6 PUSH0 DUP3 DUP3 SLOAD PUSH2 0x189D SWAP2 SWAP1 PUSH2 0x2FB3 JUMP JUMPDEST SWAP3 POP POP DUP2 SWAP1 SSTORE POP DUP3 PUSH1 0x7 PUSH0 DUP3 DUP3 SLOAD PUSH2 0x18B5 SWAP2 SWAP1 PUSH2 0x2FB3 JUMP JUMPDEST SWAP3 POP POP DUP2 SWAP1 SSTORE POP DUP12 PUSH20 0xFFFFFFFFFFFFFFFFFFFFFFFFFFFFFFFFFFFFFFFF AND PUSH4 0x23B872DD CALLER ADDRESS DUP8 PUSH1 0x40 MLOAD DUP5 PUSH4 0xFFFFFFFF AND PUSH1 0xE0 SHL DUP2 MSTORE PUSH1 0x4 ADD PUSH2 0x18F9 SWAP4 SWAP3 SWAP2 SWAP1 PUSH2 0x352F JUMP JUMPDEST PUSH1 0x20 PUSH1 0x40 MLOAD DUP1 DUP4 SUB DUP2 PUSH0 DUP8 GAS CALL ISZERO DUP1 ISZERO PUSH2 0x1915 JUMPI RETURNDATASIZE PUSH0 PUSH0 RETURNDATACOPY RETURNDATASIZE PUSH0 REVERT JUMPDEST POP POP POP POP PUSH1 0x40 MLOAD RETURNDATASIZE PUSH1 0x1F NOT PUSH1 0x1F DUP3 ADD AND DUP3 ADD DUP1 PUSH1 0x40 MSTORE POP DUP2 ADD SWAP1 PUSH2 0x1939 SWAP2 SWAP1 PUSH2 0x358E JUMP JUMPDEST POP DUP11 PUSH20 0xFFFFFFFFFFFFFFFFFFFFFFFFFFFFFFFFFFFFFFFF AND PUSH4 0x23B872DD CALLER ADDRESS DUP7 PUSH1 0x40 MLOAD DUP5 PUSH4 0xFFFFFFFF AND PUSH1 0xE0 SHL DUP2 MSTORE PUSH1 0x4 ADD PUSH2 0x1977 SWAP4 SWAP3 SWAP2 SWAP1 PUSH2 0x352F JUMP JUMPDEST PUSH1 0x20 PUSH1 0x40 MLOAD DUP1 DUP4 SUB DUP2 PUSH0 DUP8 GAS CALL ISZERO DUP1 ISZERO PUSH2 0x1993 JUMPI RETURNDATASIZE PUSH0 PUSH0 RETURNDATACOPY RETURNDATASIZE PUSH0 REVERT JUMPDEST POP POP POP POP PUSH1 0x40 MLOAD RETURNDATASIZE PUSH1 0x1F NOT PUSH1 0x1F DUP3 ADD AND DUP3 ADD DUP1 PUSH1 0x40 MSTORE POP DUP2 ADD SWAP1 PUSH2 0x19B7 SWAP2 SWAP1 PUSH2 0x358E JUMP JUMPDEST POP PUSH2 0x19C2 DUP5 DUP5 PUSH2 0x20E2 JUMP JUMPDEST SWAP2 POP ADDRESS PUSH20 0xFFFFFFFFFFFFFFFFFFFFFFFFFFFFFFFFFFFFFFFF AND PUSH4 0xA9059CBB CALLER DUP5 PUSH1 0x40 MLOAD DUP4 PUSH4 0xFFFFFFFF AND PUSH1 0xE0 SHL DUP2 MSTORE PUSH1 0x4 ADD PUSH2 0x19FF SWAP3 SWAP2 SWAP1 PUSH2 0x35B9 JUMP JUMPDEST PUSH1 0x20 PUSH1 0x40 MLOAD DUP1 DUP4 SUB DUP2 PUSH0 DUP8 GAS CALL ISZERO DUP1 ISZERO PUSH2 0x1A1B JUMPI RETURNDATASIZE PUSH0 PUSH0 RETURNDATACOPY RETURNDATASIZE PUSH0 REVERT JUMPDEST POP POP POP POP PUSH1 0x40 MLOAD RETURNDATASIZE PUSH1 0x1F NOT PUSH1 0x1F DUP3 ADD AND DUP3 ADD DUP1 PUSH1 0x40 MSTORE POP DUP2 ADD SWAP1 PUSH2 0x1A3F SWAP2 SWAP1 PUSH2 0x358E JUMP JUMPDEST POP DUP1 TIMESTAMP PUSH2 0x1A4C SWAP2 SWAP1 PUSH2 0x34FC JUMP JUMPDEST DUP6 GT PUSH2 0x1A8D JUMPI PUSH1 0x40 MLOAD PUSH32 0x8C379A000000000000000000000000000000000000000000000000000000000 DUP2 MSTORE PUSH1 0x4 ADD PUSH2 0x1A84 SWAP1 PUSH2 0x362A JUMP JUMPDEST PUSH1 0x40 MLOAD DUP1 SWAP2 SUB SWAP1 REVERT JUMPDEST POP SWAP9 POP SWAP9 POP SWAP9 SWAP6 POP POP POP POP POP POP JUMP JUMPDEST PUSH2 0x1AA4 PUSH2 0x1CBC JUMP JUMPDEST PUSH0 PUSH20 0xFFFFFFFFFFFFFFFFFFFFFFFFFFFFFFFFFFFFFFFF AND DUP2 PUSH20 0xFFFFFFFFFFFFFFFFFFFFFFFFFFFFFFFFFFFFFFFF AND SUB PUSH2 0x1B14 JUMPI PUSH0 PUSH1 0x40 MLOAD PUSH32 0x1E4FBDF700000000000000000000000000000000000000000000000000000000 DUP2 MSTORE PUSH1 0x4 ADD PUSH2 0x1B0B SWAP2 SWAP1 PUSH2 0x2D1D JUMP JUMPDEST PUSH1 0x40 MLOAD DUP1 SWAP2 SUB SWAP1 REVERT JUMPDEST PUSH2 0x1B1D DUP2 PUSH2 0x1DA4 JUMP JUMPDEST POP JUMP JUMPDEST PUSH0 CALLER SWAP1 POP SWAP1 JUMP JUMPDEST PUSH2 0x1B34 DUP4 DUP4 DUP4 PUSH1 0x1 PUSH2 0x2215 JUMP JUMPDEST POP POP POP JUMP JUMPDEST PUSH0 PUSH2 0x1B44 DUP5 DUP5 PUSH2 0x1474 JUMP JUMPDEST SWAP1 POP PUSH32 0xFFFFFFFFFFFFFFFFFFFFFFFFFFFFFFFFFFFFFFFFFFFFFFFFFFFFFFFFFFFFFFFF DUP2 LT ISZERO PUSH2 0x1BC6 JUMPI DUP2 DUP2 LT ISZERO PUSH2 0x1BB7 JUMPI DUP3 DUP2 DUP4 PUSH1 0x40 MLOAD PUSH32 0xFB8F41B200000000000000000000000000000000000000000000000000000000 DUP2 MSTORE PUSH1 0x4 ADD PUSH2 0x1BAE SWAP4 SWAP3 SWAP2 SWAP1 PUSH2 0x3988 JUMP JUMPDEST PUSH1 0x40 MLOAD DUP1 SWAP2 SUB SWAP1 REVERT JUMPDEST PUSH2 0x1BC5 DUP5 DUP5 DUP5 DUP5 SUB PUSH0 PUSH2 0x2215 JUMP JUMPDEST JUMPDEST POP POP POP POP JUMP JUMPDEST PUSH0 PUSH20 0xFFFFFFFFFFFFFFFFFFFFFFFFFFFFFFFFFFFFFFFF AND DUP4 PUSH20 0xFFFFFFFFFFFFFFFFFFFFFFFFFFFFFFFFFFFFFFFF AND SUB PUSH2 0x1C3C JUMPI PUSH0 PUSH1 0x40 MLOAD PUSH32 0x96C6FD1E00000000000000000000000000000000000000000000000000000000 DUP2 MSTORE PUSH1 0x4 ADD PUSH2 0x1C33 SWAP2 SWAP1 PUSH2 0x2D1D JUMP JUMPDEST PUSH1 0x40 MLOAD DUP1 SWAP2 SUB SWAP1 REVERT JUMPDEST PUSH0 PUSH20 0xFFFFFFFFFFFFFFFFFFFFFFFFFFFFFFFFFFFFFFFF AND DUP3 PUSH20 0xFFFFFFFFFFFFFFFFFFFFFFFFFFFFFFFFFFFFFFFF AND SUB PUSH2 0x1CAC JUMPI PUSH0 PUSH1 0x40 MLOAD PUSH32 0xEC442F0500000000000000000000000000000000000000000000000000000000 DUP2 MSTORE PUSH1 0x4 ADD PUSH2 0x1CA3 SWAP2 SWAP1 PUSH2 0x2D1D JUMP JUMPDEST PUSH1 0x40 MLOAD DUP1 SWAP2 SUB SWAP1 REVERT JUMPDEST PUSH2 0x1CB7 DUP4 DUP4 DUP4 PUSH2 0x23E4 JUMP JUMPDEST POP POP POP JUMP JUMPDEST PUSH2 0x1CC4 PUSH2 0x1B20 JUMP JUMPDEST PUSH20 0xFFFFFFFFFFFFFFFFFFFFFFFFFFFFFFFFFFFFFFFF AND PUSH2 0x1CE2 PUSH2 0xD90 JUMP JUMPDEST PUSH20 0xFFFFFFFFFFFFFFFFFFFFFFFFFFFFFFFFFFFFFFFF AND EQ PUSH2 0x1D41 JUMPI PUSH2 0x1D05 PUSH2 0x1B20 JUMP JUMPDEST PUSH1 0x40 MLOAD PUSH32 0x118CDAA700000000000000000000000000000000000000000000000000000000 DUP2 MSTORE PUSH1 0x4 ADD PUSH2 0x1D38 SWAP2 SWAP1 PUSH2 0x2D1D JUMP JUMPDEST PUSH1 0x40 MLOAD DUP1 SWAP2 SUB SWAP1 REVERT JUMPDEST JUMP JUMPDEST PUSH2 0x1D4B PUSH2 0x23F4 JUMP JUMPDEST PUSH0 PUSH1 0x5 PUSH0 PUSH2 0x100 EXP DUP2 SLOAD DUP2 PUSH1 0xFF MUL NOT AND SWAP1 DUP4 ISZERO ISZERO MUL OR SWAP1 SSTORE POP PUSH32 0x5DB9EE0A495BF2E6FF9C91A7834C1BA4FDD244A5E8AA4E537BD38AEAE4B073AA PUSH2 0x1D8D PUSH2 0x1B20 JUMP JUMPDEST PUSH1 0x40 MLOAD PUSH2 0x1D9A SWAP2 SWAP1 PUSH2 0x2D1D JUMP JUMPDEST PUSH1 0x40 MLOAD DUP1 SWAP2 SUB SWAP1 LOG1 JUMP JUMPDEST PUSH0 PUSH1 0x5 PUSH1 0x1 SWAP1 SLOAD SWAP1 PUSH2 0x100 EXP SWAP1 DIV PUSH20 0xFFFFFFFFFFFFFFFFFFFFFFFFFFFFFFFFFFFFFFFF AND SWAP1 POP DUP2 PUSH1 0x5 PUSH1 0x1 PUSH2 0x100 EXP DUP2 SLOAD DUP2 PUSH20 0xFFFFFFFFFFFFFFFFFFFFFFFFFFFFFFFFFFFFFFFF MUL NOT AND SWAP1 DUP4 PUSH20 0xFFFFFFFFFFFFFFFFFFFFFFFFFFFFFFFFFFFFFFFF AND MUL OR SWAP1 SSTORE POP DUP2 PUSH20 0xFFFFFFFFFFFFFFFFFFFFFFFFFFFFFFFFFFFFFFFF AND DUP2 PUSH20 0xFFFFFFFFFFFFFFFFFFFFFFFFFFFFFFFFFFFFFFFF AND PUSH32 0x8BE0079C531659141344CD1FD0A4F28419497F9722A3DAAFE3B4186F6B6457E0 PUSH1 0x40 MLOAD PUSH1 0x40 MLOAD DUP1 SWAP2 SUB SWAP1 LOG3 POP POP JUMP JUMPDEST PUSH2 0x1E71 PUSH2 0x2434 JUMP JUMPDEST PUSH1 0x1 PUSH1 0x5 PUSH0 PUSH2 0x100 EXP DUP2 SLOAD DUP2 PUSH1 0xFF MUL NOT AND SWAP1 DUP4 ISZERO ISZERO MUL OR SWAP1 SSTORE POP PUSH32 0x62E78CEA01BEE320CD4E420270B5EA74000D11B0C9F74754EBDBFC544B05A258 PUSH2 0x1EB4 PUSH2 0x1B20 JUMP JUMPDEST PUSH1 0x40 MLOAD PUSH2 0x1EC1 SWAP2 SWAP1 PUSH2 0x2D1D JUMP JUMPDEST PUSH1 0x40 MLOAD DUP1 SWAP2 SUB SWAP1 LOG1 JUMP JUMPDEST PUSH0 PUSH0 ADDRESS PUSH20 0xFFFFFFFFFFFFFFFFFFFFFFFFFFFFFFFFFFFFFFFF AND PUSH4 0x18160DDD PUSH1 0x40 MLOAD DUP2 PUSH4 0xFFFFFFFF AND PUSH1 0xE0 SHL DUP2 MSTORE PUSH1 0x4 ADD PUSH1 0x20 PUSH1 0x40 MLOAD DUP1 DUP4 SUB DUP2 DUP7 GAS STATICCALL ISZERO DUP1 ISZERO PUSH2 0x1F16 JUMPI RETURNDATASIZE PUSH0 PUSH0 RETURNDATACOPY RETURNDATASIZE PUSH0 REVERT JUMPDEST POP POP POP POP PUSH1 0x40 MLOAD RETURNDATASIZE PUSH1 0x1F NOT PUSH1 0x1F DUP3 ADD AND DUP3 ADD DUP1 PUSH1 0x40 MSTORE POP DUP2 ADD SWAP1 PUSH2 0x1F3A SWAP2 SWAP1 PUSH2 0x3401 JUMP JUMPDEST PUSH1 0x6 SLOAD DUP5 PUSH2 0x1F48 SWAP2 SWAP1 PUSH2 0x2FE6 JUMP JUMPDEST PUSH2 0x1F52 SWAP2 SWAP1 PUSH2 0x3054 JUMP JUMPDEST ADDRESS PUSH20 0xFFFFFFFFFFFFFFFFFFFFFFFFFFFFFFFFFFFFFFFF AND PUSH4 0x18160DDD PUSH1 0x40 MLOAD DUP2 PUSH4 0xFFFFFFFF AND PUSH1 0xE0 SHL DUP2 MSTORE PUSH1 0x4 ADD PUSH1 0x20 PUSH1 0x40 MLOAD DUP1 DUP4 SUB DUP2 DUP7 GAS STATICCALL ISZERO DUP1 ISZERO PUSH2 0x1F9B JUMPI RETURNDATASIZE PUSH0 PUSH0 RETURNDATACOPY RETURNDATASIZE PUSH0 REVERT JUMPDEST POP POP POP POP PUSH1 0x40 MLOAD RETURNDATASIZE PUSH1 0x1F NOT PUSH1 0x1F DUP3 ADD AND DUP3 ADD DUP1 PUSH1 0x40 MSTORE POP DUP2 ADD SWAP1 PUSH2 0x1FBF SWAP2 SWAP1 PUSH2 0x3401 JUMP JUMPDEST PUSH1 0x6 SLOAD DUP6 PUSH2 0x1FCD SWAP2 SWAP1 PUSH2 0x2FE6 JUMP JUMPDEST PUSH2 0x1FD7 SWAP2 SWAP1 PUSH2 0x3054 JUMP JUMPDEST SWAP2 POP SWAP2 POP SWAP2 POP SWAP2 JUMP JUMPDEST PUSH0 PUSH20 0xFFFFFFFFFFFFFFFFFFFFFFFFFFFFFFFFFFFFFFFF AND DUP3 PUSH20 0xFFFFFFFFFFFFFFFFFFFFFFFFFFFFFFFFFFFFFFFF AND SUB PUSH2 0x2050 JUMPI PUSH0 PUSH1 0x40 MLOAD PUSH32 0x96C6FD1E00000000000000000000000000000000000000000000000000000000 DUP2 MSTORE PUSH1 0x4 ADD PUSH2 0x2047 SWAP2 SWAP1 PUSH2 0x2D1D JUMP JUMPDEST PUSH1 0x40 MLOAD DUP1 SWAP2 SUB SWAP1 REVERT JUMPDEST PUSH2 0x205B DUP3 PUSH0 DUP4 PUSH2 0x23E4 JUMP JUMPDEST POP POP JUMP JUMPDEST PUSH0 PUSH0 PUSH0 PUSH1 0x6 SLOAD EQ DUP1 ISZERO PUSH2 0x2073 JUMPI POP PUSH0 PUSH1 0x7 SLOAD EQ JUMPDEST ISZERO PUSH2 0x2083 JUMPI DUP4 DUP4 SWAP2 POP SWAP2 POP PUSH2 0x20DB JUMP JUMPDEST PUSH0 PUSH1 0x6 SLOAD PUSH1 0x7 SLOAD DUP7 PUSH2 0x2095 SWAP2 SWAP1 PUSH2 0x2FE6 JUMP JUMPDEST PUSH2 0x209F SWAP2 SWAP1 PUSH2 0x3054 JUMP JUMPDEST SWAP1 POP DUP4 DUP2 GT PUSH2 0x20B4 JUMPI DUP5 DUP2 SWAP3 POP SWAP3 POP POP PUSH2 0x20DB JUMP JUMPDEST PUSH0 PUSH1 0x7 SLOAD PUSH1 0x6 SLOAD DUP7 PUSH2 0x20C6 SWAP2 SWAP1 PUSH2 0x2FE6 JUMP JUMPDEST PUSH2 0x20D0 SWAP2 SWAP1 PUSH2 0x3054 JUMP JUMPDEST SWAP1 POP DUP1 DUP6 SWAP4 POP SWAP4 POP POP POP JUMPDEST SWAP3 POP SWAP3 SWAP1 POP JUMP JUMPDEST PUSH0 PUSH0 ADDRESS PUSH20 0xFFFFFFFFFFFFFFFFFFFFFFFFFFFFFFFFFFFFFFFF AND PUSH4 0x18160DDD PUSH1 0x40 MLOAD DUP2 PUSH4 0xFFFFFFFF AND PUSH1 0xE0 SHL DUP2 MSTORE PUSH1 0x4 ADD PUSH1 0x20 PUSH1 0x40 MLOAD DUP1 DUP4 SUB DUP2 DUP7 GAS STATICCALL ISZERO DUP1 ISZERO PUSH2 0x212D JUMPI RETURNDATASIZE PUSH0 PUSH0 RETURNDATACOPY RETURNDATASIZE PUSH0 REVERT JUMPDEST POP POP POP POP PUSH1 0x40 MLOAD RETURNDATASIZE PUSH1 0x1F NOT PUSH1 0x1F DUP3 ADD AND DUP3 ADD DUP1 PUSH1 0x40 MSTORE POP DUP2 ADD SWAP1 PUSH2 0x2151 SWAP2 SWAP1 PUSH2 0x3401 JUMP JUMPDEST SUB PUSH2 0x2171 JUMPI PUSH2 0x216A DUP3 DUP5 PUSH2 0x2165 SWAP2 SWAP1 PUSH2 0x2FE6 JUMP JUMPDEST PUSH2 0x2475 JUMP JUMPDEST SWAP1 POP PUSH2 0x220F JUMP JUMPDEST ADDRESS PUSH20 0xFFFFFFFFFFFFFFFFFFFFFFFFFFFFFFFFFFFFFFFF AND PUSH4 0x18160DDD PUSH1 0x40 MLOAD DUP2 PUSH4 0xFFFFFFFF AND PUSH1 0xE0 SHL DUP2 MSTORE PUSH1 0x4 ADD PUSH1 0x20 PUSH1 0x40 MLOAD DUP1 DUP4 SUB DUP2 DUP7 GAS STATICCALL ISZERO DUP1 ISZERO PUSH2 0x21BA JUMPI RETURNDATASIZE PUSH0 PUSH0 RETURNDATACOPY RETURNDATASIZE PUSH0 REVERT JUMPDEST POP POP POP POP PUSH1 0x40 MLOAD RETURNDATASIZE PUSH1 0x1F NOT PUSH1 0x1F DUP3 ADD AND DUP3 ADD DUP1 PUSH1 0x40 MSTORE POP DUP2 ADD SWAP1 PUSH2 0x21DE SWAP2 SWAP1 PUSH2 0x3401 JUMP JUMPDEST PUSH2 0x2202 PUSH1 0x6 SLOAD DUP6 PUSH2 0x21EF SWAP2 SWAP1 PUSH2 0x3054 JUMP JUMPDEST PUSH1 0x7 SLOAD DUP6 PUSH2 0x21FD SWAP2 SWAP1 PUSH2 0x3054 JUMP JUMPDEST PUSH2 0x260F JUMP JUMPDEST PUSH2 0x220C SWAP2 SWAP1 PUSH2 0x2FE6 JUMP JUMPDEST SWAP1 POP JUMPDEST SWAP3 SWAP2 POP POP JUMP JUMPDEST PUSH0 PUSH20 0xFFFFFFFFFFFFFFFFFFFFFFFFFFFFFFFFFFFFFFFF AND DUP5 PUSH20 0xFFFFFFFFFFFFFFFFFFFFFFFFFFFFFFFFFFFFFFFF AND SUB PUSH2 0x2285 JUMPI PUSH0 PUSH1 0x40 MLOAD PUSH32 0xE602DF0500000000000000000000000000000000000000000000000000000000 DUP2 MSTORE PUSH1 0x4 ADD PUSH2 0x227C SWAP2 SWAP1 PUSH2 0x2D1D JUMP JUMPDEST PUSH1 0x40 MLOAD DUP1 SWAP2 SUB SWAP1 REVERT JUMPDEST PUSH0 PUSH20 0xFFFFFFFFFFFFFFFFFFFFFFFFFFFFFFFFFFFFFFFF AND DUP4 PUSH20 0xFFFFFFFFFFFFFFFFFFFFFFFFFFFFFFFFFFFFFFFF AND SUB PUSH2 0x22F5 JUMPI PUSH0 PUSH1 0x40 MLOAD PUSH32 0x94280D6200000000000000000000000000000000000000000000000000000000 DUP2 MSTORE PUSH1 0x4 ADD PUSH2 0x22EC SWAP2 SWAP1 PUSH2 0x2D1D JUMP JUMPDEST PUSH1 0x40 MLOAD DUP1 SWAP2 SUB SWAP1 REVERT JUMPDEST DUP2 PUSH1 0x1 PUSH0 DUP7 PUSH20 0xFFFFFFFFFFFFFFFFFFFFFFFFFFFFFFFFFFFFFFFF AND PUSH20 0xFFFFFFFFFFFFFFFFFFFFFFFFFFFFFFFFFFFFFFFF AND DUP2 MSTORE PUSH1 0x20 ADD SWAP1 DUP2 MSTORE PUSH1 0x20 ADD PUSH0 KECCAK256 PUSH0 DUP6 PUSH20 0xFFFFFFFFFFFFFFFFFFFFFFFFFFFFFFFFFFFFFFFF AND PUSH20 0xFFFFFFFFFFFFFFFFFFFFFFFFFFFFFFFFFFFFFFFF AND DUP2 MSTORE PUSH1 0x20 ADD SWAP1 DUP2 MSTORE PUSH1 0x20 ADD PUSH0 KECCAK256 DUP2 SWAP1 SSTORE POP DUP1 ISZERO PUSH2 0x23DE JUMPI DUP3 PUSH20 0xFFFFFFFFFFFFFFFFFFFFFFFFFFFFFFFFFFFFFFFF AND DUP5 PUSH20 0xFFFFFFFFFFFFFFFFFFFFFFFFFFFFFFFFFFFFFFFF AND PUSH32 0x8C5BE1E5EBEC7D5BD14F71427D1E84F3DD0314C0F7B2291E5B200AC8C7C3B925 DUP5 PUSH1 0x40 MLOAD PUSH2 0x23D5 SWAP2 SWAP1 PUSH2 0x291D JUMP JUMPDEST PUSH1 0x40 MLOAD DUP1 SWAP2 SUB SWAP1 LOG3 JUMPDEST POP POP POP POP JUMP JUMPDEST PUSH2 0x23EF DUP4 DUP4 DUP4 PUSH2 0x2625 JUMP JUMPDEST POP POP POP JUMP JUMPDEST PUSH2 0x23FC PUSH2 0xD11 JUMP JUMPDEST PUSH2 0x2432 JUMPI PUSH1 0x40 MLOAD PUSH32 0x8DFC202B00000000000000000000000000000000000000000000000000000000 DUP2 MSTORE PUSH1 0x4 ADD PUSH1 0x40 MLOAD DUP1 SWAP2 SUB SWAP1 REVERT JUMPDEST JUMP JUMPDEST PUSH2 0x243C PUSH2 0xD11 JUMP JUMPDEST ISZERO PUSH2 0x2473 JUMPI PUSH1 0x40 MLOAD PUSH32 0xD93C066500000000000000000000000000000000000000000000000000000000 DUP2 MSTORE PUSH1 0x4 ADD PUSH1 0x40 MLOAD DUP1 SWAP2 SUB SWAP1 REVERT JUMPDEST JUMP JUMPDEST PUSH0 PUSH1 0x1 DUP3 GT PUSH2 0x2486 JUMPI DUP2 SWAP1 POP PUSH2 0x260A JUMP JUMPDEST PUSH0 DUP3 SWAP1 POP PUSH0 PUSH1 0x1 SWAP1 POP PUSH17 0x100000000000000000000000000000000 DUP3 LT PUSH2 0x24B6 JUMPI PUSH1 0x80 DUP3 SWAP1 SHR SWAP2 POP PUSH1 0x40 DUP2 SWAP1 SHL SWAP1 POP JUMPDEST PUSH9 0x10000000000000000 DUP3 LT PUSH2 0x24D5 JUMPI PUSH1 0x40 DUP3 SWAP1 SHR SWAP2 POP PUSH1 0x20 DUP2 SWAP1 SHL SWAP1 POP JUMPDEST PUSH5 0x100000000 DUP3 LT PUSH2 0x24F0 JUMPI PUSH1 0x20 DUP3 SWAP1 SHR SWAP2 POP PUSH1 0x10 DUP2 SWAP1 SHL SWAP1 POP JUMPDEST PUSH3 0x10000 DUP3 LT PUSH2 0x2509 JUMPI PUSH1 0x10 DUP3 SWAP1 SHR SWAP2 POP PUSH1 0x8 DUP2 SWAP1 SHL SWAP1 POP JUMPDEST PUSH2 0x100 DUP3 LT PUSH2 0x2521 JUMPI PUSH1 0x8 DUP3 SWAP1 SHR SWAP2 POP PUSH1 0x4 DUP2 SWAP1 SHL SWAP1 POP JUMPDEST PUSH1 0x10 DUP3 LT PUSH2 0x2538 JUMPI PUSH1 0x4 DUP3 SWAP1 SHR SWAP2 POP PUSH1 0x2 DUP2 SWAP1 SHL SWAP1 POP JUMPDEST PUSH1 0x4 DUP3 LT PUSH2 0x2548 JUMPI PUSH1 0x1 DUP2 SWAP1 SHL SWAP1 POP JUMPDEST PUSH1 0x1 DUP2 PUSH1 0x3 MUL SWAP1 SHR SWAP1 POP PUSH1 0x1 DUP2 DUP6 DUP2 PUSH2 0x2564 JUMPI PUSH2 0x2563 PUSH2 0x3027 JUMP JUMPDEST JUMPDEST DIV DUP3 ADD SWAP1 SHR SWAP1 POP PUSH1 0x1 DUP2 DUP6 DUP2 PUSH2 0x257D JUMPI PUSH2 0x257C PUSH2 0x3027 JUMP JUMPDEST JUMPDEST DIV DUP3 ADD SWAP1 SHR SWAP1 POP PUSH1 0x1 DUP2 DUP6 DUP2 PUSH2 0x2596 JUMPI PUSH2 0x2595 PUSH2 0x3027 JUMP JUMPDEST JUMPDEST DIV DUP3 ADD SWAP1 SHR SWAP1 POP PUSH1 0x1 DUP2 DUP6 DUP2 PUSH2 0x25AF JUMPI PUSH2 0x25AE PUSH2 0x3027 JUMP JUMPDEST JUMPDEST DIV DUP3 ADD SWAP1 SHR SWAP1 POP PUSH1 0x1 DUP2 DUP6 DUP2 PUSH2 0x25C8 JUMPI PUSH2 0x25C7 PUSH2 0x3027 JUMP JUMPDEST JUMPDEST DIV DUP3 ADD SWAP1 SHR SWAP1 POP PUSH1 0x1 DUP2 DUP6 DUP2 PUSH2 0x25E1 JUMPI PUSH2 0x25E0 PUSH2 0x3027 JUMP JUMPDEST JUMPDEST DIV DUP3 ADD SWAP1 SHR SWAP1 POP PUSH2 0x2603 DUP2 DUP6 DUP2 PUSH2 0x25FB JUMPI PUSH2 0x25FA PUSH2 0x3027 JUMP JUMPDEST JUMPDEST DIV DUP3 GT PUSH2 0x263D JUMP JUMPDEST DUP2 SUB SWAP3 POP POP POP JUMPDEST SWAP2 SWAP1 POP JUMP JUMPDEST PUSH0 PUSH2 0x261D DUP3 DUP5 LT DUP5 DUP5 PUSH2 0x2648 JUMP JUMPDEST SWAP1 POP SWAP3 SWAP2 POP POP JUMP JUMPDEST PUSH2 0x262D PUSH2 0x2434 JUMP JUMPDEST PUSH2 0x2638 DUP4 DUP4 DUP4 PUSH2 0x2661 JUMP JUMPDEST POP POP POP JUMP JUMPDEST PUSH0 DUP2 ISZERO ISZERO SWAP1 POP SWAP2 SWAP1 POP JUMP JUMPDEST PUSH0 PUSH2 0x2652 DUP5 PUSH2 0x263D JUMP JUMPDEST DUP3 DUP5 XOR MUL DUP3 XOR SWAP1 POP SWAP4 SWAP3 POP POP POP JUMP JUMPDEST PUSH0 PUSH20 0xFFFFFFFFFFFFFFFFFFFFFFFFFFFFFFFFFFFFFFFF AND DUP4 PUSH20 0xFFFFFFFFFFFFFFFFFFFFFFFFFFFFFFFFFFFFFFFF AND SUB PUSH2 0x26B1 JUMPI DUP1 PUSH1 0x2 PUSH0 DUP3 DUP3 SLOAD PUSH2 0x26A5 SWAP2 SWAP1 PUSH2 0x2FB3 JUMP JUMPDEST SWAP3 POP POP DUP2 SWAP1 SSTORE POP PUSH2 0x277F JUMP JUMPDEST PUSH0 PUSH0 PUSH0 DUP6 PUSH20 0xFFFFFFFFFFFFFFFFFFFFFFFFFFFFFFFFFFFFFFFF AND PUSH20 0xFFFFFFFFFFFFFFFFFFFFFFFFFFFFFFFFFFFFFFFF AND DUP2 MSTORE PUSH1 0x20 ADD SWAP1 DUP2 MSTORE PUSH1 0x20 ADD PUSH0 KECCAK256 SLOAD SWAP1 POP DUP2 DUP2 LT ISZERO PUSH2 0x273A JUMPI DUP4 DUP2 DUP4 PUSH1 0x40 MLOAD PUSH32 0xE450D38C00000000000000000000000000000000000000000000000000000000 DUP2 MSTORE PUSH1 0x4 ADD PUSH2 0x2731 SWAP4 SWAP3 SWAP2 SWAP1 PUSH2 0x3988 JUMP JUMPDEST PUSH1 0x40 MLOAD DUP1 SWAP2 SUB SWAP1 REVERT JUMPDEST DUP2 DUP2 SUB PUSH0 PUSH0 DUP7 PUSH20 0xFFFFFFFFFFFFFFFFFFFFFFFFFFFFFFFFFFFFFFFF AND PUSH20 0xFFFFFFFFFFFFFFFFFFFFFFFFFFFFFFFFFFFFFFFF AND DUP2 MSTORE PUSH1 0x20 ADD SWAP1 DUP2 MSTORE PUSH1 0x20 ADD PUSH0 KECCAK256 DUP2 SWAP1 SSTORE POP POP JUMPDEST PUSH0 PUSH20 0xFFFFFFFFFFFFFFFFFFFFFFFFFFFFFFFFFFFFFFFF AND DUP3 PUSH20 0xFFFFFFFFFFFFFFFFFFFFFFFFFFFFFFFFFFFFFFFF AND SUB PUSH2 0x27C6 JUMPI DUP1 PUSH1 0x2 PUSH0 DUP3 DUP3 SLOAD SUB SWAP3 POP POP DUP2 SWAP1 SSTORE POP PUSH2 0x2810 JUMP JUMPDEST DUP1 PUSH0 PUSH0 DUP5 PUSH20 0xFFFFFFFFFFFFFFFFFFFFFFFFFFFFFFFFFFFFFFFF AND PUSH20 0xFFFFFFFFFFFFFFFFFFFFFFFFFFFFFFFFFFFFFFFF AND DUP2 MSTORE PUSH1 0x20 ADD SWAP1 DUP2 MSTORE PUSH1 0x20 ADD PUSH0 KECCAK256 PUSH0 DUP3 DUP3 SLOAD ADD SWAP3 POP POP DUP2 SWAP1 SSTORE POP JUMPDEST DUP2 PUSH20 0xFFFFFFFFFFFFFFFFFFFFFFFFFFFFFFFFFFFFFFFF AND DUP4 PUSH20 0xFFFFFFFFFFFFFFFFFFFFFFFFFFFFFFFFFFFFFFFF AND PUSH32 0xDDF252AD1BE2C89B69C2B068FC378DAA952BA7F163C4A11628F55A4DF523B3EF DUP4 PUSH1 0x40 MLOAD PUSH2 0x286D SWAP2 SWAP1 PUSH2 0x291D JUMP JUMPDEST PUSH1 0x40 MLOAD DUP1 SWAP2 SUB SWAP1 LOG3 POP POP POP JUMP JUMPDEST PUSH0 PUSH1 0x40 MLOAD SWAP1 POP SWAP1 JUMP JUMPDEST PUSH0 PUSH0 REVERT JUMPDEST PUSH0 PUSH0 REVERT JUMPDEST PUSH0 DUP2 SWAP1 POP SWAP2 SWAP1 POP JUMP JUMPDEST PUSH2 0x289D DUP2 PUSH2 0x288B JUMP JUMPDEST DUP2 EQ PUSH2 0x28A7 JUMPI PUSH0 PUSH0 REVERT JUMPDEST POP JUMP JUMPDEST PUSH0 DUP2 CALLDATALOAD SWAP1 POP PUSH2 0x28B8 DUP2 PUSH2 0x2894 JUMP JUMPDEST SWAP3 SWAP2 POP POP JUMP JUMPDEST PUSH0 PUSH0 PUSH0 PUSH1 0x60 DUP5 DUP7 SUB SLT ISZERO PUSH2 0x28D5 JUMPI PUSH2 0x28D4 PUSH2 0x2883 JUMP JUMPDEST JUMPDEST PUSH0 PUSH2 0x28E2 DUP7 DUP3 DUP8 ADD PUSH2 0x28AA JUMP JUMPDEST SWAP4 POP POP PUSH1 0x20 PUSH2 0x28F3 DUP7 DUP3 DUP8 ADD PUSH2 0x28AA JUMP JUMPDEST SWAP3 POP POP PUSH1 0x40 PUSH2 0x2904 DUP7 DUP3 DUP8 ADD PUSH2 0x28AA JUMP JUMPDEST SWAP2 POP POP SWAP3 POP SWAP3 POP SWAP3 JUMP JUMPDEST PUSH2 0x2917 DUP2 PUSH2 0x288B JUMP JUMPDEST DUP3 MSTORE POP POP JUMP JUMPDEST PUSH0 PUSH1 0x20 DUP3 ADD SWAP1 POP PUSH2 0x2930 PUSH0 DUP4 ADD DUP5 PUSH2 0x290E JUMP JUMPDEST SWAP3 SWAP2 POP POP JUMP JUMPDEST PUSH0 DUP2 MLOAD SWAP1 POP SWAP2 SWAP1 POP JUMP JUMPDEST PUSH0 DUP3 DUP3 MSTORE PUSH1 0x20 DUP3 ADD SWAP1 POP SWAP3 SWAP2 POP POP JUMP JUMPDEST DUP3 DUP2 DUP4 MCOPY PUSH0 DUP4 DUP4 ADD MSTORE POP POP POP JUMP JUMPDEST PUSH0 PUSH1 0x1F NOT PUSH1 0x1F DUP4 ADD AND SWAP1 POP SWAP2 SWAP1 POP JUMP JUMPDEST PUSH0 PUSH2 0x2978 DUP3 PUSH2 0x2936 JUMP JUMPDEST PUSH2 0x2982 DUP2 DUP6 PUSH2 0x2940 JUMP JUMPDEST SWAP4 POP PUSH2 0x2992 DUP2 DUP6 PUSH1 0x20 DUP7 ADD PUSH2 0x2950 JUMP JUMPDEST PUSH2 0x299B DUP2 PUSH2 0x295E JUMP JUMPDEST DUP5 ADD SWAP2 POP POP SWAP3 SWAP2 POP POP JUMP JUMPDEST PUSH0 PUSH1 0x20 DUP3 ADD SWAP1 POP DUP2 DUP2 SUB PUSH0 DUP4 ADD MSTORE PUSH2 0x29BE DUP2 DUP5 PUSH2 0x296E JUMP JUMPDEST SWAP1 POP SWAP3 SWAP2 POP POP JUMP JUMPDEST PUSH0 PUSH20 0xFFFFFFFFFFFFFFFFFFFFFFFFFFFFFFFFFFFFFFFF DUP3 AND SWAP1 POP SWAP2 SWAP1 POP JUMP JUMPDEST PUSH0 PUSH2 0x29EF DUP3 PUSH2 0x29C6 JUMP JUMPDEST SWAP1 POP SWAP2 SWAP1 POP JUMP JUMPDEST PUSH2 0x29FF DUP2 PUSH2 0x29E5 JUMP JUMPDEST DUP2 EQ PUSH2 0x2A09 JUMPI PUSH0 PUSH0 REVERT JUMPDEST POP JUMP JUMPDEST PUSH0 DUP2 CALLDATALOAD SWAP1 POP PUSH2 0x2A1A DUP2 PUSH2 0x29F6 JUMP JUMPDEST SWAP3 SWAP2 POP POP JUMP JUMPDEST PUSH0 PUSH0 PUSH1 0x40 DUP4 DUP6 SUB SLT ISZERO PUSH2 0x2A36 JUMPI PUSH2 0x2A35 PUSH2 0x2883 JUMP JUMPDEST JUMPDEST PUSH0 PUSH2 0x2A43 DUP6 DUP3 DUP7 ADD PUSH2 0x2A0C JUMP JUMPDEST SWAP3 POP POP PUSH1 0x20 PUSH2 0x2A54 DUP6 DUP3 DUP7 ADD PUSH2 0x28AA JUMP JUMPDEST SWAP2 POP POP SWAP3 POP SWAP3 SWAP1 POP JUMP JUMPDEST PUSH0 DUP2 ISZERO ISZERO SWAP1 POP SWAP2 SWAP1 POP JUMP JUMPDEST PUSH2 0x2A72 DUP2 PUSH2 0x2A5E JUMP JUMPDEST DUP3 MSTORE POP POP JUMP JUMPDEST PUSH0 PUSH1 0x20 DUP3 ADD SWAP1 POP PUSH2 0x2A8B PUSH0 DUP4 ADD DUP5 PUSH2 0x2A69 JUMP JUMPDEST SWAP3 SWAP2 POP POP JUMP JUMPDEST PUSH0 PUSH0 PUSH0 PUSH1 0x60 DUP5 DUP7 SUB SLT ISZERO PUSH2 0x2AA8 JUMPI PUSH2 0x2AA7 PUSH2 0x2883 JUMP JUMPDEST JUMPDEST PUSH0 PUSH2 0x2AB5 DUP7 DUP3 DUP8 ADD PUSH2 0x2A0C JUMP JUMPDEST SWAP4 POP POP PUSH1 0x20 PUSH2 0x2AC6 DUP7 DUP3 DUP8 ADD PUSH2 0x2A0C JUMP JUMPDEST SWAP3 POP POP PUSH1 0x40 PUSH2 0x2AD7 DUP7 DUP3 DUP8 ADD PUSH2 0x28AA JUMP JUMPDEST SWAP2 POP POP SWAP3 POP SWAP3 POP SWAP3 JUMP JUMPDEST PUSH0 PUSH1 0xFF DUP3 AND SWAP1 POP SWAP2 SWAP1 POP JUMP JUMPDEST PUSH2 0x2AF6 DUP2 PUSH2 0x2AE1 JUMP JUMPDEST DUP3 MSTORE POP POP JUMP JUMPDEST PUSH0 PUSH1 0x20 DUP3 ADD SWAP1 POP PUSH2 0x2B0F PUSH0 DUP4 ADD DUP5 PUSH2 0x2AED JUMP JUMPDEST SWAP3 SWAP2 POP POP JUMP JUMPDEST PUSH0 PUSH0 REVERT JUMPDEST PUSH0 PUSH0 REVERT JUMPDEST PUSH0 PUSH0 REVERT JUMPDEST PUSH0 PUSH0 DUP4 PUSH1 0x1F DUP5 ADD SLT PUSH2 0x2B36 JUMPI PUSH2 0x2B35 PUSH2 0x2B15 JUMP JUMPDEST JUMPDEST DUP3 CALLDATALOAD SWAP1 POP PUSH8 0xFFFFFFFFFFFFFFFF DUP2 GT ISZERO PUSH2 0x2B53 JUMPI PUSH2 0x2B52 PUSH2 0x2B19 JUMP JUMPDEST JUMPDEST PUSH1 0x20 DUP4 ADD SWAP2 POP DUP4 PUSH1 0x20 DUP3 MUL DUP4 ADD GT ISZERO PUSH2 0x2B6F JUMPI PUSH2 0x2B6E PUSH2 0x2B1D JUMP JUMPDEST JUMPDEST SWAP3 POP SWAP3 SWAP1 POP JUMP JUMPDEST PUSH0 PUSH0 PUSH0 PUSH0 PUSH0 PUSH0 PUSH1 0xA0 DUP8 DUP10 SUB SLT ISZERO PUSH2 0x2B90 JUMPI PUSH2 0x2B8F PUSH2 0x2883 JUMP JUMPDEST JUMPDEST PUSH0 PUSH2 0x2B9D DUP10 DUP3 DUP11 ADD PUSH2 0x28AA JUMP JUMPDEST SWAP7 POP POP PUSH1 0x20 PUSH2 0x2BAE DUP10 DUP3 DUP11 ADD PUSH2 0x28AA JUMP JUMPDEST SWAP6 POP POP PUSH1 0x40 DUP8 ADD CALLDATALOAD PUSH8 0xFFFFFFFFFFFFFFFF DUP2 GT ISZERO PUSH2 0x2BCF JUMPI PUSH2 0x2BCE PUSH2 0x2887 JUMP JUMPDEST JUMPDEST PUSH2 0x2BDB DUP10 DUP3 DUP11 ADD PUSH2 0x2B21 JUMP JUMPDEST SWAP5 POP SWAP5 POP POP PUSH1 0x60 PUSH2 0x2BEE DUP10 DUP3 DUP11 ADD PUSH2 0x2A0C JUMP JUMPDEST SWAP3 POP POP PUSH1 0x80 PUSH2 0x2BFF DUP10 DUP3 DUP11 ADD PUSH2 0x28AA JUMP JUMPDEST SWAP2 POP POP SWAP3 SWAP6 POP SWAP3 SWAP6 POP SWAP3 SWAP6 JUMP JUMPDEST PUSH0 DUP2 MLOAD SWAP1 POP SWAP2 SWAP1 POP JUMP JUMPDEST PUSH0 DUP3 DUP3 MSTORE PUSH1 0x20 DUP3 ADD SWAP1 POP SWAP3 SWAP2 POP POP JUMP JUMPDEST PUSH0 DUP2 SWAP1 POP PUSH1 0x20 DUP3 ADD SWAP1 POP SWAP2 SWAP1 POP JUMP JUMPDEST PUSH2 0x2C3E DUP2 PUSH2 0x288B JUMP JUMPDEST DUP3 MSTORE POP POP JUMP JUMPDEST PUSH0 PUSH2 0x2C4F DUP4 DUP4 PUSH2 0x2C35 JUMP JUMPDEST PUSH1 0x20 DUP4 ADD SWAP1 POP SWAP3 SWAP2 POP POP JUMP JUMPDEST PUSH0 PUSH1 0x20 DUP3 ADD SWAP1 POP SWAP2 SWAP1 POP JUMP JUMPDEST PUSH0 PUSH2 0x2C71 DUP3 PUSH2 0x2C0C JUMP JUMPDEST PUSH2 0x2C7B DUP2 DUP6 PUSH2 0x2C16 JUMP JUMPDEST SWAP4 POP PUSH2 0x2C86 DUP4 PUSH2 0x2C26 JUMP JUMPDEST DUP1 PUSH0 JUMPDEST DUP4 DUP2 LT ISZERO PUSH2 0x2CB6 JUMPI DUP2 MLOAD PUSH2 0x2C9D DUP9 DUP3 PUSH2 0x2C44 JUMP JUMPDEST SWAP8 POP PUSH2 0x2CA8 DUP4 PUSH2 0x2C5B JUMP JUMPDEST SWAP3 POP POP PUSH1 0x1 DUP2 ADD SWAP1 POP PUSH2 0x2C89 JUMP JUMPDEST POP DUP6 SWAP4 POP POP POP POP SWAP3 SWAP2 POP POP JUMP JUMPDEST PUSH0 PUSH1 0x20 DUP3 ADD SWAP1 POP DUP2 DUP2 SUB PUSH0 DUP4 ADD MSTORE PUSH2 0x2CDB DUP2 DUP5 PUSH2 0x2C67 JUMP JUMPDEST SWAP1 POP SWAP3 SWAP2 POP POP JUMP JUMPDEST PUSH0 PUSH1 0x20 DUP3 DUP5 SUB SLT ISZERO PUSH2 0x2CF8 JUMPI PUSH2 0x2CF7 PUSH2 0x2883 JUMP JUMPDEST JUMPDEST PUSH0 PUSH2 0x2D05 DUP5 DUP3 DUP6 ADD PUSH2 0x2A0C JUMP JUMPDEST SWAP2 POP POP SWAP3 SWAP2 POP POP JUMP JUMPDEST PUSH2 0x2D17 DUP2 PUSH2 0x29E5 JUMP JUMPDEST DUP3 MSTORE POP POP JUMP JUMPDEST PUSH0 PUSH1 0x20 DUP3 ADD SWAP1 POP PUSH2 0x2D30 PUSH0 DUP4 ADD DUP5 PUSH2 0x2D0E JUMP JUMPDEST SWAP3 SWAP2 POP POP JUMP JUMPDEST PUSH0 PUSH0 PUSH1 0x40 DUP4 DUP6 SUB SLT ISZERO PUSH2 0x2D4C JUMPI PUSH2 0x2D4B PUSH2 0x2883 JUMP JUMPDEST JUMPDEST PUSH0 PUSH2 0x2D59 DUP6 DUP3 DUP7 ADD PUSH2 0x2A0C JUMP JUMPDEST SWAP3 POP POP PUSH1 0x20 PUSH2 0x2D6A DUP6 DUP3 DUP7 ADD PUSH2 0x2A0C JUMP JUMPDEST SWAP2 POP POP SWAP3 POP SWAP3 SWAP1 POP JUMP JUMPDEST PUSH0 PUSH0 PUSH0 PUSH0 PUSH0 PUSH0 PUSH0 PUSH1 0xE0 DUP9 DUP11 SUB SLT ISZERO PUSH2 0x2D8F JUMPI PUSH2 0x2D8E PUSH2 0x2883 JUMP JUMPDEST JUMPDEST PUSH0 PUSH2 0x2D9C DUP11 DUP3 DUP12 ADD PUSH2 0x2A0C JUMP JUMPDEST SWAP8 POP POP PUSH1 0x20 PUSH2 0x2DAD DUP11 DUP3 DUP12 ADD PUSH2 0x2A0C JUMP JUMPDEST SWAP7 POP POP PUSH1 0x40 PUSH2 0x2DBE DUP11 DUP3 DUP12 ADD PUSH2 0x28AA JUMP JUMPDEST SWAP6 POP POP PUSH1 0x60 PUSH2 0x2DCF DUP11 DUP3 DUP12 ADD PUSH2 0x28AA JUMP JUMPDEST SWAP5 POP POP PUSH1 0x80 PUSH2 0x2DE0 DUP11 DUP3 DUP12 ADD PUSH2 0x28AA JUMP JUMPDEST SWAP4 POP POP PUSH1 0xA0 PUSH2 0x2DF1 DUP11 DUP3 DUP12 ADD PUSH2 0x2A0C JUMP JUMPDEST SWAP3 POP POP PUSH1 0xC0 PUSH2 0x2E02 DUP11 DUP3 DUP12 ADD PUSH2 0x28AA JUMP JUMPDEST SWAP2 POP POP SWAP3 SWAP6 SWAP9 SWAP2 SWAP5 SWAP8 POP SWAP3 SWAP6 POP JUMP JUMPDEST PUSH0 PUSH1 0x40 DUP3 ADD SWAP1 POP PUSH2 0x2E24 PUSH0 DUP4 ADD DUP6 PUSH2 0x290E JUMP JUMPDEST PUSH2 0x2E31 PUSH1 0x20 DUP4 ADD DUP5 PUSH2 0x290E JUMP JUMPDEST SWAP4 SWAP3 POP POP POP JUMP JUMPDEST PUSH0 PUSH0 PUSH0 PUSH0 PUSH0 PUSH0 PUSH0 PUSH0 PUSH2 0x100 DUP10 DUP12 SUB SLT ISZERO PUSH2 0x2E55 JUMPI PUSH2 0x2E54 PUSH2 0x2883 JUMP JUMPDEST JUMPDEST PUSH0 PUSH2 0x2E62 DUP12 DUP3 DUP13 ADD PUSH2 0x2A0C JUMP JUMPDEST SWAP9 POP POP PUSH1 0x20 PUSH2 0x2E73 DUP12 DUP3 DUP13 ADD PUSH2 0x2A0C JUMP JUMPDEST SWAP8 POP POP PUSH1 0x40 PUSH2 0x2E84 DUP12 DUP3 DUP13 ADD PUSH2 0x28AA JUMP JUMPDEST SWAP7 POP POP PUSH1 0x60 PUSH2 0x2E95 DUP12 DUP3 DUP13 ADD PUSH2 0x28AA JUMP JUMPDEST SWAP6 POP POP PUSH1 0x80 PUSH2 0x2EA6 DUP12 DUP3 DUP13 ADD PUSH2 0x28AA JUMP JUMPDEST SWAP5 POP POP PUSH1 0xA0 PUSH2 0x2EB7 DUP12 DUP3 DUP13 ADD PUSH2 0x28AA JUMP JUMPDEST SWAP4 POP POP PUSH1 0xC0 PUSH2 0x2EC8 DUP12 DUP3 DUP13 ADD PUSH2 0x2A0C JUMP JUMPDEST SWAP3 POP POP PUSH1 0xE0 PUSH2 0x2ED9 DUP12 DUP3 DUP13 ADD PUSH2 0x28AA JUMP JUMPDEST SWAP2 POP POP SWAP3 SWAP6 SWAP9 POP SWAP3 SWAP6 SWAP9 SWAP1 SWAP4 SWAP7 POP JUMP JUMPDEST PUSH0 PUSH1 0x60 DUP3 ADD SWAP1 POP PUSH2 0x2EFC PUSH0 DUP4 ADD DUP7 PUSH2 0x290E JUMP JUMPDEST PUSH2 0x2F09 PUSH1 0x20 DUP4 ADD DUP6 PUSH2 0x290E JUMP JUMPDEST PUSH2 0x2F16 PUSH1 0x40 DUP4 ADD DUP5 PUSH2 0x290E JUMP JUMPDEST SWAP5 SWAP4 POP POP POP POP JUMP JUMPDEST PUSH32 0x496E76616C696420696E70757420706172616D65746572732100000000000000 PUSH0 DUP3 ADD MSTORE POP JUMP JUMPDEST PUSH0 PUSH2 0x2F52 PUSH1 0x19 DUP4 PUSH2 0x2940 JUMP JUMPDEST SWAP2 POP PUSH2 0x2F5D DUP3 PUSH2 0x2F1E JUMP JUMPDEST PUSH1 0x20 DUP3 ADD SWAP1 POP SWAP2 SWAP1 POP JUMP JUMPDEST PUSH0 PUSH1 0x20 DUP3 ADD SWAP1 POP DUP2 DUP2 SUB PUSH0 DUP4 ADD MSTORE PUSH2 0x2F7F DUP2 PUSH2 0x2F46 JUMP JUMPDEST SWAP1 POP SWAP2 SWAP1 POP JUMP JUMPDEST PUSH32 0x4E487B7100000000000000000000000000000000000000000000000000000000 PUSH0 MSTORE PUSH1 0x11 PUSH1 0x4 MSTORE PUSH1 0x24 PUSH0 REVERT JUMPDEST PUSH0 PUSH2 0x2FBD DUP3 PUSH2 0x288B JUMP JUMPDEST SWAP2 POP PUSH2 0x2FC8 DUP4 PUSH2 0x288B JUMP JUMPDEST SWAP3 POP DUP3 DUP3 ADD SWAP1 POP DUP1 DUP3 GT ISZERO PUSH2 0x2FE0 JUMPI PUSH2 0x2FDF PUSH2 0x2F86 JUMP JUMPDEST JUMPDEST SWAP3 SWAP2 POP POP JUMP JUMPDEST PUSH0 PUSH2 0x2FF0 DUP3 PUSH2 0x288B JUMP JUMPDEST SWAP2 POP PUSH2 0x2FFB DUP4 PUSH2 0x288B JUMP JUMPDEST SWAP3 POP DUP3 DUP3 MUL PUSH2 0x3009 DUP2 PUSH2 0x288B JUMP JUMPDEST SWAP2 POP DUP3 DUP3 DIV DUP5 EQ DUP4 ISZERO OR PUSH2 0x3020 JUMPI PUSH2 0x301F PUSH2 0x2F86 JUMP JUMPDEST JUMPDEST POP SWAP3 SWAP2 POP POP JUMP JUMPDEST PUSH32 0x4E487B7100000000000000000000000000000000000000000000000000000000 PUSH0 MSTORE PUSH1 0x12 PUSH1 0x4 MSTORE PUSH1 0x24 PUSH0 REVERT JUMPDEST PUSH0 PUSH2 0x305E DUP3 PUSH2 0x288B JUMP JUMPDEST SWAP2 POP PUSH2 0x3069 DUP4 PUSH2 0x288B JUMP JUMPDEST SWAP3 POP DUP3 PUSH2 0x3079 JUMPI PUSH2 0x3078 PUSH2 0x3027 JUMP JUMPDEST JUMPDEST DUP3 DUP3 DIV SWAP1 POP SWAP3 SWAP2 POP POP JUMP JUMPDEST PUSH32 0x4E487B7100000000000000000000000000000000000000000000000000000000 PUSH0 MSTORE PUSH1 0x22 PUSH1 0x4 MSTORE PUSH1 0x24 PUSH0 REVERT JUMPDEST PUSH0 PUSH1 0x2 DUP3 DIV SWAP1 POP PUSH1 0x1 DUP3 AND DUP1 PUSH2 0x30C8 JUMPI PUSH1 0x7F DUP3 AND SWAP2 POP JUMPDEST PUSH1 0x20 DUP3 LT DUP2 SUB PUSH2 0x30DB JUMPI PUSH2 0x30DA PUSH2 0x3084 JUMP JUMPDEST JUMPDEST POP SWAP2 SWAP1 POP JUMP JUMPDEST PUSH32 0x4E487B7100000000000000000000000000000000000000000000000000000000 PUSH0 MSTORE PUSH1 0x32 PUSH1 0x4 MSTORE PUSH1 0x24 PUSH0 REVERT JUMPDEST PUSH32 0x496E76616C696420746F6B656E20616464726573736573210000000000000000 PUSH0 DUP3 ADD MSTORE POP JUMP JUMPDEST PUSH0 PUSH2 0x3142 PUSH1 0x18 DUP4 PUSH2 0x2940 JUMP JUMPDEST SWAP2 POP PUSH2 0x314D DUP3 PUSH2 0x310E JUMP JUMPDEST PUSH1 0x20 DUP3 ADD SWAP1 POP SWAP2 SWAP1 POP JUMP JUMPDEST PUSH0 PUSH1 0x20 DUP3 ADD SWAP1 POP DUP2 DUP2 SUB PUSH0 DUP4 ADD MSTORE PUSH2 0x316F DUP2 PUSH2 0x3136 JUMP JUMPDEST SWAP1 POP SWAP2 SWAP1 POP JUMP JUMPDEST PUSH32 0x496E76616C696420726563697069656E74206164647265737300000000000000 PUSH0 DUP3 ADD MSTORE POP JUMP JUMPDEST PUSH0 PUSH2 0x31AA PUSH1 0x19 DUP4 PUSH2 0x2940 JUMP JUMPDEST SWAP2 POP PUSH2 0x31B5 DUP3 PUSH2 0x3176 JUMP JUMPDEST PUSH1 0x20 DUP3 ADD SWAP1 POP SWAP2 SWAP1 POP JUMP JUMPDEST PUSH0 PUSH1 0x20 DUP3 ADD SWAP1 POP DUP2 DUP2 SUB PUSH0 DUP4 ADD MSTORE PUSH2 0x31D7 DUP2 PUSH2 0x319E JUMP JUMPDEST SWAP1 POP SWAP2 SWAP1 POP JUMP JUMPDEST PUSH0 DUP2 SWAP1 POP SWAP3 SWAP2 POP POP JUMP JUMPDEST PUSH32 0x4D544B4100000000000000000000000000000000000000000000000000000000 PUSH0 DUP3 ADD MSTORE POP JUMP JUMPDEST PUSH0 PUSH2 0x321C PUSH1 0x4 DUP4 PUSH2 0x31DE JUMP JUMPDEST SWAP2 POP PUSH2 0x3227 DUP3 PUSH2 0x31E8 JUMP JUMPDEST PUSH1 0x4 DUP3 ADD SWAP1 POP SWAP2 SWAP1 POP JUMP JUMPDEST PUSH0 PUSH2 0x323C DUP3 PUSH2 0x3210 JUMP JUMPDEST SWAP2 POP DUP2 SWAP1 POP SWAP2 SWAP1 POP JUMP JUMPDEST PUSH0 PUSH0 REVERT JUMPDEST PUSH32 0x4E487B7100000000000000000000000000000000000000000000000000000000 PUSH0 MSTORE PUSH1 0x41 PUSH1 0x4 MSTORE PUSH1 0x24 PUSH0 REVERT JUMPDEST PUSH2 0x3280 DUP3 PUSH2 0x295E JUMP JUMPDEST DUP2 ADD DUP2 DUP2 LT PUSH8 0xFFFFFFFFFFFFFFFF DUP3 GT OR ISZERO PUSH2 0x329F JUMPI PUSH2 0x329E PUSH2 0x324A JUMP JUMPDEST JUMPDEST DUP1 PUSH1 0x40 MSTORE POP POP POP JUMP JUMPDEST PUSH0 PUSH2 0x32B1 PUSH2 0x287A JUMP JUMPDEST SWAP1 POP PUSH2 0x32BD DUP3 DUP3 PUSH2 0x3277 JUMP JUMPDEST SWAP2 SWAP1 POP JUMP JUMPDEST PUSH0 PUSH8 0xFFFFFFFFFFFFFFFF DUP3 GT ISZERO PUSH2 0x32DC JUMPI PUSH2 0x32DB PUSH2 0x324A JUMP JUMPDEST JUMPDEST PUSH2 0x32E5 DUP3 PUSH2 0x295E JUMP JUMPDEST SWAP1 POP PUSH1 0x20 DUP2 ADD SWAP1 POP SWAP2 SWAP1 POP JUMP JUMPDEST PUSH0 PUSH2 0x3304 PUSH2 0x32FF DUP5 PUSH2 0x32C2 JUMP JUMPDEST PUSH2 0x32A8 JUMP JUMPDEST SWAP1 POP DUP3 DUP2 MSTORE PUSH1 0x20 DUP2 ADD DUP5 DUP5 DUP5 ADD GT ISZERO PUSH2 0x3320 JUMPI PUSH2 0x331F PUSH2 0x3246 JUMP JUMPDEST JUMPDEST PUSH2 0x332B DUP5 DUP3 DUP6 PUSH2 0x2950 JUMP JUMPDEST POP SWAP4 SWAP3 POP POP POP JUMP JUMPDEST PUSH0 DUP3 PUSH1 0x1F DUP4 ADD SLT PUSH2 0x3347 JUMPI PUSH2 0x3346 PUSH2 0x2B15 JUMP JUMPDEST JUMPDEST DUP2 MLOAD PUSH2 0x3357 DUP5 DUP3 PUSH1 0x20 DUP7 ADD PUSH2 0x32F2 JUMP JUMPDEST SWAP2 POP POP SWAP3 SWAP2 POP POP JUMP JUMPDEST PUSH0 PUSH1 0x20 DUP3 DUP5 SUB SLT ISZERO PUSH2 0x3375 JUMPI PUSH2 0x3374 PUSH2 0x2883 JUMP JUMPDEST JUMPDEST PUSH0 DUP3 ADD MLOAD PUSH8 0xFFFFFFFFFFFFFFFF DUP2 GT ISZERO PUSH2 0x3392 JUMPI PUSH2 0x3391 PUSH2 0x2887 JUMP JUMPDEST JUMPDEST PUSH2 0x339E DUP5 DUP3 DUP6 ADD PUSH2 0x3333 JUMP JUMPDEST SWAP2 POP POP SWAP3 SWAP2 POP POP JUMP JUMPDEST PUSH0 PUSH2 0x33B1 DUP3 PUSH2 0x2936 JUMP JUMPDEST PUSH2 0x33BB DUP2 DUP6 PUSH2 0x31DE JUMP JUMPDEST SWAP4 POP PUSH2 0x33CB DUP2 DUP6 PUSH1 0x20 DUP7 ADD PUSH2 0x2950 JUMP JUMPDEST DUP1 DUP5 ADD SWAP2 POP POP SWAP3 SWAP2 POP POP JUMP JUMPDEST PUSH0 PUSH2 0x33E2 DUP3 DUP5 PUSH2 0x33A7 JUMP JUMPDEST SWAP2 POP DUP2 SWAP1 POP SWAP3 SWAP2 POP POP JUMP JUMPDEST PUSH0 DUP2 MLOAD SWAP1 POP PUSH2 0x33FB DUP2 PUSH2 0x2894 JUMP JUMPDEST SWAP3 SWAP2 POP POP JUMP JUMPDEST PUSH0 PUSH1 0x20 DUP3 DUP5 SUB SLT ISZERO PUSH2 0x3416 JUMPI PUSH2 0x3415 PUSH2 0x2883 JUMP JUMPDEST JUMPDEST PUSH0 PUSH2 0x3423 DUP5 DUP3 DUP6 ADD PUSH2 0x33ED JUMP JUMPDEST SWAP2 POP POP SWAP3 SWAP2 POP POP JUMP JUMPDEST PUSH32 0x4E6F74206D65657420746865206D696E696D756D210000000000000000000000 PUSH0 DUP3 ADD MSTORE POP JUMP JUMPDEST PUSH0 PUSH2 0x3460 PUSH1 0x15 DUP4 PUSH2 0x2940 JUMP JUMPDEST SWAP2 POP PUSH2 0x346B DUP3 PUSH2 0x342C JUMP JUMPDEST PUSH1 0x20 DUP3 ADD SWAP1 POP SWAP2 SWAP1 POP JUMP JUMPDEST PUSH0 PUSH1 0x20 DUP3 ADD SWAP1 POP DUP2 DUP2 SUB PUSH0 DUP4 ADD MSTORE PUSH2 0x348D DUP2 PUSH2 0x3454 JUMP JUMPDEST SWAP1 POP SWAP2 SWAP1 POP JUMP JUMPDEST PUSH32 0x496E73756666696369656E7420546F6B656E2066756E64732100000000000000 PUSH0 DUP3 ADD MSTORE POP JUMP JUMPDEST PUSH0 PUSH2 0x34C8 PUSH1 0x19 DUP4 PUSH2 0x2940 JUMP JUMPDEST SWAP2 POP PUSH2 0x34D3 DUP3 PUSH2 0x3494 JUMP JUMPDEST PUSH1 0x20 DUP3 ADD SWAP1 POP SWAP2 SWAP1 POP JUMP JUMPDEST PUSH0 PUSH1 0x20 DUP3 ADD SWAP1 POP DUP2 DUP2 SUB PUSH0 DUP4 ADD MSTORE PUSH2 0x34F5 DUP2 PUSH2 0x34BC JUMP JUMPDEST SWAP1 POP SWAP2 SWAP1 POP JUMP JUMPDEST PUSH0 PUSH2 0x3506 DUP3 PUSH2 0x288B JUMP JUMPDEST SWAP2 POP PUSH2 0x3511 DUP4 PUSH2 0x288B JUMP JUMPDEST SWAP3 POP DUP3 DUP3 SUB SWAP1 POP DUP2 DUP2 GT ISZERO PUSH2 0x3529 JUMPI PUSH2 0x3528 PUSH2 0x2F86 JUMP JUMPDEST JUMPDEST SWAP3 SWAP2 POP POP JUMP JUMPDEST PUSH0 PUSH1 0x60 DUP3 ADD SWAP1 POP PUSH2 0x3542 PUSH0 DUP4 ADD DUP7 PUSH2 0x2D0E JUMP JUMPDEST PUSH2 0x354F PUSH1 0x20 DUP4 ADD DUP6 PUSH2 0x2D0E JUMP JUMPDEST PUSH2 0x355C PUSH1 0x40 DUP4 ADD DUP5 PUSH2 0x290E JUMP JUMPDEST SWAP5 SWAP4 POP POP POP POP JUMP JUMPDEST PUSH2 0x356D DUP2 PUSH2 0x2A5E JUMP JUMPDEST DUP2 EQ PUSH2 0x3577 JUMPI PUSH0 PUSH0 REVERT JUMPDEST POP JUMP JUMPDEST PUSH0 DUP2 MLOAD SWAP1 POP PUSH2 0x3588 DUP2 PUSH2 0x3564 JUMP JUMPDEST SWAP3 SWAP2 POP POP JUMP JUMPDEST PUSH0 PUSH1 0x20 DUP3 DUP5 SUB SLT ISZERO PUSH2 0x35A3 JUMPI PUSH2 0x35A2 PUSH2 0x2883 JUMP JUMPDEST JUMPDEST PUSH0 PUSH2 0x35B0 DUP5 DUP3 DUP6 ADD PUSH2 0x357A JUMP JUMPDEST SWAP2 POP POP SWAP3 SWAP2 POP POP JUMP JUMPDEST PUSH0 PUSH1 0x40 DUP3 ADD SWAP1 POP PUSH2 0x35CC PUSH0 DUP4 ADD DUP6 PUSH2 0x2D0E JUMP JUMPDEST PUSH2 0x35D9 PUSH1 0x20 DUP4 ADD DUP5 PUSH2 0x290E JUMP JUMPDEST SWAP4 SWAP3 POP POP POP JUMP JUMPDEST PUSH32 0x446561646C696E65207265616368656421000000000000000000000000000000 PUSH0 DUP3 ADD MSTORE POP JUMP JUMPDEST PUSH0 PUSH2 0x3614 PUSH1 0x11 DUP4 PUSH2 0x2940 JUMP JUMPDEST SWAP2 POP PUSH2 0x361F DUP3 PUSH2 0x35E0 JUMP JUMPDEST PUSH1 0x20 DUP3 ADD SWAP1 POP SWAP2 SWAP1 POP JUMP JUMPDEST PUSH0 PUSH1 0x20 DUP3 ADD SWAP1 POP DUP2 DUP2 SUB PUSH0 DUP4 ADD MSTORE PUSH2 0x3641 DUP2 PUSH2 0x3608 JUMP JUMPDEST SWAP1 POP SWAP2 SWAP1 POP JUMP JUMPDEST PUSH32 0x4E6F20617661696C61626C65206C697175696469747920746F6B656E73210000 PUSH0 DUP3 ADD MSTORE POP JUMP JUMPDEST PUSH0 PUSH2 0x367C PUSH1 0x1E DUP4 PUSH2 0x2940 JUMP JUMPDEST SWAP2 POP PUSH2 0x3687 DUP3 PUSH2 0x3648 JUMP JUMPDEST PUSH1 0x20 DUP3 ADD SWAP1 POP SWAP2 SWAP1 POP JUMP JUMPDEST PUSH0 PUSH1 0x20 DUP3 ADD SWAP1 POP DUP2 DUP2 SUB PUSH0 DUP4 ADD MSTORE PUSH2 0x36A9 DUP2 PUSH2 0x3670 JUMP JUMPDEST SWAP1 POP SWAP2 SWAP1 POP JUMP JUMPDEST PUSH32 0x496E73756666696369656E74204C697175696469747920546F6B656E73210000 PUSH0 DUP3 ADD MSTORE POP JUMP JUMPDEST PUSH0 PUSH2 0x36E4 PUSH1 0x1E DUP4 PUSH2 0x2940 JUMP JUMPDEST SWAP2 POP PUSH2 0x36EF DUP3 PUSH2 0x36B0 JUMP JUMPDEST PUSH1 0x20 DUP3 ADD SWAP1 POP SWAP2 SWAP1 POP JUMP JUMPDEST PUSH0 PUSH1 0x20 DUP3 ADD SWAP1 POP DUP2 DUP2 SUB PUSH0 DUP4 ADD MSTORE PUSH2 0x3711 DUP2 PUSH2 0x36D8 JUMP JUMPDEST SWAP1 POP SWAP2 SWAP1 POP JUMP JUMPDEST PUSH32 0x4E6F74206D65657420746865206D696E696D756D20666F7220546F6B656E4121 PUSH0 DUP3 ADD MSTORE POP JUMP JUMPDEST PUSH0 PUSH2 0x374C PUSH1 0x20 DUP4 PUSH2 0x2940 JUMP JUMPDEST SWAP2 POP PUSH2 0x3757 DUP3 PUSH2 0x3718 JUMP JUMPDEST PUSH1 0x20 DUP3 ADD SWAP1 POP SWAP2 SWAP1 POP JUMP JUMPDEST PUSH0 PUSH1 0x20 DUP3 ADD SWAP1 POP DUP2 DUP2 SUB PUSH0 DUP4 ADD MSTORE PUSH2 0x3779 DUP2 PUSH2 0x3740 JUMP JUMPDEST SWAP1 POP SWAP2 SWAP1 POP JUMP JUMPDEST PUSH32 0x4E6F74206D65657420746865206D696E696D756D20666F7220546F6B656E4221 PUSH0 DUP3 ADD MSTORE POP JUMP JUMPDEST PUSH0 PUSH2 0x37B4 PUSH1 0x20 DUP4 PUSH2 0x2940 JUMP JUMPDEST SWAP2 POP PUSH2 0x37BF DUP3 PUSH2 0x3780 JUMP JUMPDEST PUSH1 0x20 DUP3 ADD SWAP1 POP SWAP2 SWAP1 POP JUMP JUMPDEST PUSH0 PUSH1 0x20 DUP3 ADD SWAP1 POP DUP2 DUP2 SUB PUSH0 DUP4 ADD MSTORE PUSH2 0x37E1 DUP2 PUSH2 0x37A8 JUMP JUMPDEST SWAP1 POP SWAP2 SWAP1 POP JUMP JUMPDEST PUSH32 0x496E73756666696369656E7420546F6B656E4121000000000000000000000000 PUSH0 DUP3 ADD MSTORE POP JUMP JUMPDEST PUSH0 PUSH2 0x381C PUSH1 0x14 DUP4 PUSH2 0x2940 JUMP JUMPDEST SWAP2 POP PUSH2 0x3827 DUP3 PUSH2 0x37E8 JUMP JUMPDEST PUSH1 0x20 DUP3 ADD SWAP1 POP SWAP2 SWAP1 POP JUMP JUMPDEST PUSH0 PUSH1 0x20 DUP3 ADD SWAP1 POP DUP2 DUP2 SUB PUSH0 DUP4 ADD MSTORE PUSH2 0x3849 DUP2 PUSH2 0x3810 JUMP JUMPDEST SWAP1 POP SWAP2 SWAP1 POP JUMP JUMPDEST PUSH32 0x496E73756666696369656E7420546F6B656E4221000000000000000000000000 PUSH0 DUP3 ADD MSTORE POP JUMP JUMPDEST PUSH0 PUSH2 0x3884 PUSH1 0x14 DUP4 PUSH2 0x2940 JUMP JUMPDEST SWAP2 POP PUSH2 0x388F DUP3 PUSH2 0x3850 JUMP JUMPDEST PUSH1 0x20 DUP3 ADD SWAP1 POP SWAP2 SWAP1 POP JUMP JUMPDEST PUSH0 PUSH1 0x20 DUP3 ADD SWAP1 POP DUP2 DUP2 SUB PUSH0 DUP4 ADD MSTORE PUSH2 0x38B1 DUP2 PUSH2 0x3878 JUMP JUMPDEST SWAP1 POP SWAP2 SWAP1 POP JUMP JUMPDEST PUSH32 0x496E73756666696369656E7420546F6B656E412066756E647321000000000000 PUSH0 DUP3 ADD MSTORE POP JUMP JUMPDEST PUSH0 PUSH2 0x38EC PUSH1 0x1A DUP4 PUSH2 0x2940 JUMP JUMPDEST SWAP2 POP PUSH2 0x38F7 DUP3 PUSH2 0x38B8 JUMP JUMPDEST PUSH1 0x20 DUP3 ADD SWAP1 POP SWAP2 SWAP1 POP JUMP JUMPDEST PUSH0 PUSH1 0x20 DUP3 ADD SWAP1 POP DUP2 DUP2 SUB PUSH0 DUP4 ADD MSTORE PUSH2 0x3919 DUP2 PUSH2 0x38E0 JUMP JUMPDEST SWAP1 POP SWAP2 SWAP1 POP JUMP JUMPDEST PUSH32 0x496E73756666696369656E7420546F6B656E422066756E647321000000000000 PUSH0 DUP3 ADD MSTORE POP JUMP JUMPDEST PUSH0 PUSH2 0x3954 PUSH1 0x1A DUP4 PUSH2 0x2940 JUMP JUMPDEST SWAP2 POP PUSH2 0x395F DUP3 PUSH2 0x3920 JUMP JUMPDEST PUSH1 0x20 DUP3 ADD SWAP1 POP SWAP2 SWAP1 POP JUMP JUMPDEST PUSH0 PUSH1 0x20 DUP3 ADD SWAP1 POP DUP2 DUP2 SUB PUSH0 DUP4 ADD MSTORE PUSH2 0x3981 DUP2 PUSH2 0x3948 JUMP JUMPDEST SWAP1 POP SWAP2 SWAP1 POP JUMP JUMPDEST PUSH0 PUSH1 0x60 DUP3 ADD SWAP1 POP PUSH2 0x399B PUSH0 DUP4 ADD DUP7 PUSH2 0x2D0E JUMP JUMPDEST PUSH2 0x39A8 PUSH1 0x20 DUP4 ADD DUP6 PUSH2 0x290E JUMP JUMPDEST PUSH2 0x39B5 PUSH1 0x40 DUP4 ADD DUP5 PUSH2 0x290E JUMP JUMPDEST SWAP5 SWAP4 POP POP POP POP JUMP INVALID LOG2 PUSH5 0x6970667358 0x22 SLT KECCAK256 XOR SAR DUP2 0x27 SHR SSTORE SELFBALANCE GT SMOD CREATE DUP7 PUSH1 0x9A PUSH20 0x46EB8211CAB0881BB92F34A6FA68CF15FE8D6473 PUSH16 0x6C634300081B00330000000000000000 "
		},
		"gasEstimates": {
			"creation": {
				"codeDepositCost": "2967000",
				"executionCost": "infinite",
				"totalCost": "infinite"
			},
			"external": {
				"addLiquidity(address,address,uint256,uint256,uint256,uint256,address,uint256)": "infinite",
				"allowance(address,address)": "infinite",
				"approve(address,uint256)": "infinite",
				"balanceOf(address)": "2939",
				"decimals()": "361",
				"getAmountOut(uint256,uint256,uint256)": "infinite",
				"getPrice(address,address)": "infinite",
				"name()": "infinite",
				"owner()": "2633",
				"pause()": "infinite",
				"paused()": "2562",
				"removeLiquidity(address,address,uint256,uint256,uint256,address,uint256)": "infinite",
				"renounceOwnership()": "infinite",
				"swapExactTokensForTokens(uint256,uint256,address[],address,uint256)": "infinite",
				"symbol()": "infinite",
				"totalSupply()": "2522",
				"transfer(address,uint256)": "infinite",
				"transferFrom(address,address,uint256)": "infinite",
				"transferOwnership(address)": "infinite",
				"unpause()": "infinite"
			},
			"internal": {
				"_update(address,address,uint256)": "infinite",
				"calculateLiquidityAmounts(uint256,uint256)": "infinite",
				"calculateLiquidityToken(uint256,uint256)": "infinite",
				"calculateTokenAmounts(uint256)": "infinite",
				"quote(uint256,uint256,uint256)": "infinite"
			}
		},
		"methodIdentifiers": {
			"addLiquidity(address,address,uint256,uint256,uint256,uint256,address,uint256)": "e8e33700",
			"allowance(address,address)": "dd62ed3e",
			"approve(address,uint256)": "095ea7b3",
			"balanceOf(address)": "70a08231",
			"decimals()": "313ce567",
			"getAmountOut(uint256,uint256,uint256)": "054d50d4",
			"getPrice(address,address)": "ac41865a",
			"name()": "06fdde03",
			"owner()": "8da5cb5b",
			"pause()": "8456cb59",
			"paused()": "5c975abb",
			"removeLiquidity(address,address,uint256,uint256,uint256,address,uint256)": "baa2abde",
			"renounceOwnership()": "715018a6",
			"swapExactTokensForTokens(uint256,uint256,address[],address,uint256)": "38ed1739",
			"symbol()": "95d89b41",
			"totalSupply()": "18160ddd",
			"transfer(address,uint256)": "a9059cbb",
			"transferFrom(address,address,uint256)": "23b872dd",
			"transferOwnership(address)": "f2fde38b",
			"unpause()": "3f4ba83a"
		}
	},
	"abi": [
		{
			"inputs": [
				{
					"internalType": "address",
					"name": "initialOwner",
					"type": "address"
				}
			],
			"stateMutability": "nonpayable",
			"type": "constructor"
		},
		{
			"inputs": [
				{
					"internalType": "address",
					"name": "spender",
					"type": "address"
				},
				{
					"internalType": "uint256",
					"name": "allowance",
					"type": "uint256"
				},
				{
					"internalType": "uint256",
					"name": "needed",
					"type": "uint256"
				}
			],
			"name": "ERC20InsufficientAllowance",
			"type": "error"
		},
		{
			"inputs": [
				{
					"internalType": "address",
					"name": "sender",
					"type": "address"
				},
				{
					"internalType": "uint256",
					"name": "balance",
					"type": "uint256"
				},
				{
					"internalType": "uint256",
					"name": "needed",
					"type": "uint256"
				}
			],
			"name": "ERC20InsufficientBalance",
			"type": "error"
		},
		{
			"inputs": [
				{
					"internalType": "address",
					"name": "approver",
					"type": "address"
				}
			],
			"name": "ERC20InvalidApprover",
			"type": "error"
		},
		{
			"inputs": [
				{
					"internalType": "address",
					"name": "receiver",
					"type": "address"
				}
			],
			"name": "ERC20InvalidReceiver",
			"type": "error"
		},
		{
			"inputs": [
				{
					"internalType": "address",
					"name": "sender",
					"type": "address"
				}
			],
			"name": "ERC20InvalidSender",
			"type": "error"
		},
		{
			"inputs": [
				{
					"internalType": "address",
					"name": "spender",
					"type": "address"
				}
			],
			"name": "ERC20InvalidSpender",
			"type": "error"
		},
		{
			"inputs": [],
			"name": "EnforcedPause",
			"type": "error"
		},
		{
			"inputs": [],
			"name": "ExpectedPause",
			"type": "error"
		},
		{
			"inputs": [
				{
					"internalType": "address",
					"name": "owner",
					"type": "address"
				}
			],
			"name": "OwnableInvalidOwner",
			"type": "error"
		},
		{
			"inputs": [
				{
					"internalType": "address",
					"name": "account",
					"type": "address"
				}
			],
			"name": "OwnableUnauthorizedAccount",
			"type": "error"
		},
		{
			"anonymous": false,
			"inputs": [
				{
					"indexed": true,
					"internalType": "address",
					"name": "owner",
					"type": "address"
				},
				{
					"indexed": true,
					"internalType": "address",
					"name": "spender",
					"type": "address"
				},
				{
					"indexed": false,
					"internalType": "uint256",
					"name": "value",
					"type": "uint256"
				}
			],
			"name": "Approval",
			"type": "event"
		},
		{
			"anonymous": false,
			"inputs": [
				{
					"indexed": true,
					"internalType": "address",
					"name": "previousOwner",
					"type": "address"
				},
				{
					"indexed": true,
					"internalType": "address",
					"name": "newOwner",
					"type": "address"
				}
			],
			"name": "OwnershipTransferred",
			"type": "event"
		},
		{
			"anonymous": false,
			"inputs": [
				{
					"indexed": false,
					"internalType": "address",
					"name": "account",
					"type": "address"
				}
			],
			"name": "Paused",
			"type": "event"
		},
		{
			"anonymous": false,
			"inputs": [
				{
					"indexed": true,
					"internalType": "address",
					"name": "from",
					"type": "address"
				},
				{
					"indexed": true,
					"internalType": "address",
					"name": "to",
					"type": "address"
				},
				{
					"indexed": false,
					"internalType": "uint256",
					"name": "value",
					"type": "uint256"
				}
			],
			"name": "Transfer",
			"type": "event"
		},
		{
			"anonymous": false,
			"inputs": [
				{
					"indexed": false,
					"internalType": "address",
					"name": "account",
					"type": "address"
				}
			],
			"name": "Unpaused",
			"type": "event"
		},
		{
			"inputs": [
				{
					"internalType": "address",
					"name": "tokenA",
					"type": "address"
				},
				{
					"internalType": "address",
					"name": "tokenB",
					"type": "address"
				},
				{
					"internalType": "uint256",
					"name": "amountADesired",
					"type": "uint256"
				},
				{
					"internalType": "uint256",
					"name": "amountBDesired",
					"type": "uint256"
				},
				{
					"internalType": "uint256",
					"name": "amountAMin",
					"type": "uint256"
				},
				{
					"internalType": "uint256",
					"name": "amountBMin",
					"type": "uint256"
				},
				{
					"internalType": "address",
					"name": "to",
					"type": "address"
				},
				{
					"internalType": "uint256",
					"name": "deadline",
					"type": "uint256"
				}
			],
			"name": "addLiquidity",
			"outputs": [
				{
					"internalType": "uint256",
					"name": "amountA",
					"type": "uint256"
				},
				{
					"internalType": "uint256",
					"name": "amountB",
					"type": "uint256"
				},
				{
					"internalType": "uint256",
					"name": "liquidity",
					"type": "uint256"
				}
			],
			"stateMutability": "nonpayable",
			"type": "function"
		},
		{
			"inputs": [
				{
					"internalType": "address",
					"name": "owner",
					"type": "address"
				},
				{
					"internalType": "address",
					"name": "spender",
					"type": "address"
				}
			],
			"name": "allowance",
			"outputs": [
				{
					"internalType": "uint256",
					"name": "",
					"type": "uint256"
				}
			],
			"stateMutability": "view",
			"type": "function"
		},
		{
			"inputs": [
				{
					"internalType": "address",
					"name": "spender",
					"type": "address"
				},
				{
					"internalType": "uint256",
					"name": "value",
					"type": "uint256"
				}
			],
			"name": "approve",
			"outputs": [
				{
					"internalType": "bool",
					"name": "",
					"type": "bool"
				}
			],
			"stateMutability": "nonpayable",
			"type": "function"
		},
		{
			"inputs": [
				{
					"internalType": "address",
					"name": "account",
					"type": "address"
				}
			],
			"name": "balanceOf",
			"outputs": [
				{
					"internalType": "uint256",
					"name": "",
					"type": "uint256"
				}
			],
			"stateMutability": "view",
			"type": "function"
		},
		{
			"inputs": [],
			"name": "decimals",
			"outputs": [
				{
					"internalType": "uint8",
					"name": "",
					"type": "uint8"
				}
			],
			"stateMutability": "view",
			"type": "function"
		},
		{
			"inputs": [
				{
					"internalType": "uint256",
					"name": "amountIn",
					"type": "uint256"
				},
				{
					"internalType": "uint256",
					"name": "reserveIn",
					"type": "uint256"
				},
				{
					"internalType": "uint256",
					"name": "reserveOut",
					"type": "uint256"
				}
			],
			"name": "getAmountOut",
			"outputs": [
				{
					"internalType": "uint256",
					"name": "amountOut",
					"type": "uint256"
				}
			],
			"stateMutability": "pure",
			"type": "function"
		},
		{
			"inputs": [
				{
					"internalType": "address",
					"name": "tokenA",
					"type": "address"
				},
				{
					"internalType": "address",
					"name": "tokenB",
					"type": "address"
				}
			],
			"name": "getPrice",
			"outputs": [
				{
					"internalType": "uint256",
					"name": "price",
					"type": "uint256"
				}
			],
			"stateMutability": "view",
			"type": "function"
		},
		{
			"inputs": [],
			"name": "name",
			"outputs": [
				{
					"internalType": "string",
					"name": "",
					"type": "string"
				}
			],
			"stateMutability": "view",
			"type": "function"
		},
		{
			"inputs": [],
			"name": "owner",
			"outputs": [
				{
					"internalType": "address",
					"name": "",
					"type": "address"
				}
			],
			"stateMutability": "view",
			"type": "function"
		},
		{
			"inputs": [],
			"name": "pause",
			"outputs": [],
			"stateMutability": "nonpayable",
			"type": "function"
		},
		{
			"inputs": [],
			"name": "paused",
			"outputs": [
				{
					"internalType": "bool",
					"name": "",
					"type": "bool"
				}
			],
			"stateMutability": "view",
			"type": "function"
		},
		{
			"inputs": [
				{
					"internalType": "address",
					"name": "tokenA",
					"type": "address"
				},
				{
					"internalType": "address",
					"name": "tokenB",
					"type": "address"
				},
				{
					"internalType": "uint256",
					"name": "liquidity",
					"type": "uint256"
				},
				{
					"internalType": "uint256",
					"name": "amountAMin",
					"type": "uint256"
				},
				{
					"internalType": "uint256",
					"name": "amountBMin",
					"type": "uint256"
				},
				{
					"internalType": "address",
					"name": "to",
					"type": "address"
				},
				{
					"internalType": "uint256",
					"name": "deadline",
					"type": "uint256"
				}
			],
			"name": "removeLiquidity",
			"outputs": [
				{
					"internalType": "uint256",
					"name": "amountA",
					"type": "uint256"
				},
				{
					"internalType": "uint256",
					"name": "amountB",
					"type": "uint256"
				}
			],
			"stateMutability": "nonpayable",
			"type": "function"
		},
		{
			"inputs": [],
			"name": "renounceOwnership",
			"outputs": [],
			"stateMutability": "nonpayable",
			"type": "function"
		},
		{
			"inputs": [
				{
					"internalType": "uint256",
					"name": "amountIn",
					"type": "uint256"
				},
				{
					"internalType": "uint256",
					"name": "amountOutMin",
					"type": "uint256"
				},
				{
					"internalType": "address[]",
					"name": "path",
					"type": "address[]"
				},
				{
					"internalType": "address",
					"name": "to",
					"type": "address"
				},
				{
					"internalType": "uint256",
					"name": "deadline",
					"type": "uint256"
				}
			],
			"name": "swapExactTokensForTokens",
			"outputs": [
				{
					"internalType": "uint256[]",
					"name": "amounts",
					"type": "uint256[]"
				}
			],
			"stateMutability": "nonpayable",
			"type": "function"
		},
		{
			"inputs": [],
			"name": "symbol",
			"outputs": [
				{
					"internalType": "string",
					"name": "",
					"type": "string"
				}
			],
			"stateMutability": "view",
			"type": "function"
		},
		{
			"inputs": [],
			"name": "totalSupply",
			"outputs": [
				{
					"internalType": "uint256",
					"name": "",
					"type": "uint256"
				}
			],
			"stateMutability": "view",
			"type": "function"
		},
		{
			"inputs": [
				{
					"internalType": "address",
					"name": "to",
					"type": "address"
				},
				{
					"internalType": "uint256",
					"name": "value",
					"type": "uint256"
				}
			],
			"name": "transfer",
			"outputs": [
				{
					"internalType": "bool",
					"name": "",
					"type": "bool"
				}
			],
			"stateMutability": "nonpayable",
			"type": "function"
		},
		{
			"inputs": [
				{
					"internalType": "address",
					"name": "from",
					"type": "address"
				},
				{
					"internalType": "address",
					"name": "to",
					"type": "address"
				},
				{
					"internalType": "uint256",
					"name": "value",
					"type": "uint256"
				}
			],
			"name": "transferFrom",
			"outputs": [
				{
					"internalType": "bool",
					"name": "",
					"type": "bool"
				}
			],
			"stateMutability": "nonpayable",
			"type": "function"
		},
		{
			"inputs": [
				{
					"internalType": "address",
					"name": "newOwner",
					"type": "address"
				}
			],
			"name": "transferOwnership",
			"outputs": [],
			"stateMutability": "nonpayable",
			"type": "function"
		},
		{
			"inputs": [],
			"name": "unpause",
			"outputs": [],
			"stateMutability": "nonpayable",
			"type": "function"
		}
	]
}