{
	"data": {
		"bytecode": {
			"linkReferences": {},
			"object": "608060405234801561000f575f5ffd5b5060405161403638038061403683398181016040528101906100319190610269565b806040518060400160405280600e81526020017f4c6971756964697479546f6b656e0000000000000000000000000000000000008152506040518060400160405280600381526020017f4c544b000000000000000000000000000000000000000000000000000000000081525081600390816100ad91906104d1565b5080600490816100bd91906104d1565b5050505f73ffffffffffffffffffffffffffffffffffffffff168173ffffffffffffffffffffffffffffffffffffffff1603610130575f6040517f1e4fbdf700000000000000000000000000000000000000000000000000000000815260040161012791906105af565b60405180910390fd5b61013f8161014660201b60201c565b50506105c8565b5f600560019054906101000a900473ffffffffffffffffffffffffffffffffffffffff16905081600560016101000a81548173ffffffffffffffffffffffffffffffffffffffff021916908373ffffffffffffffffffffffffffffffffffffffff1602179055508173ffffffffffffffffffffffffffffffffffffffff168173ffffffffffffffffffffffffffffffffffffffff167f8be0079c531659141344cd1fd0a4f28419497f9722a3daafe3b4186f6b6457e060405160405180910390a35050565b5f5ffd5b5f73ffffffffffffffffffffffffffffffffffffffff82169050919050565b5f6102388261020f565b9050919050565b6102488161022e565b8114610252575f5ffd5b50565b5f815190506102638161023f565b92915050565b5f6020828403121561027e5761027d61020b565b5b5f61028b84828501610255565b91505092915050565b5f81519050919050565b7f4e487b71000000000000000000000000000000000000000000000000000000005f52604160045260245ffd5b7f4e487b71000000000000000000000000000000000000000000000000000000005f52602260045260245ffd5b5f600282049050600182168061030f57607f821691505b602082108103610322576103216102cb565b5b50919050565b5f819050815f5260205f209050919050565b5f6020601f8301049050919050565b5f82821b905092915050565b5f600883026103847fffffffffffffffffffffffffffffffffffffffffffffffffffffffffffffffff82610349565b61038e8683610349565b95508019841693508086168417925050509392505050565b5f819050919050565b5f819050919050565b5f6103d26103cd6103c8846103a6565b6103af565b6103a6565b9050919050565b5f819050919050565b6103eb836103b8565b6103ff6103f7826103d9565b848454610355565b825550505050565b5f5f905090565b610416610407565b6104218184846103e2565b505050565b5b81811015610444576104395f8261040e565b600181019050610427565b5050565b601f8211156104895761045a81610328565b6104638461033a565b81016020851015610472578190505b61048661047e8561033a565b830182610426565b50505b505050565b5f82821c905092915050565b5f6104a95f198460080261048e565b1980831691505092915050565b5f6104c1838361049a565b9150826002028217905092915050565b6104da82610294565b67ffffffffffffffff8111156104f3576104f261029e565b5b6104fd82546102f8565b610508828285610448565b5f60209050601f831160018114610539575f8415610527578287015190505b61053185826104b6565b865550610598565b601f19841661054786610328565b5f5b8281101561056e57848901518255600182019150602085019450602081019050610549565b8683101561058b5784890151610587601f89168261049a565b8355505b6001600288020188555050505b505050505050565b6105a98161022e565b82525050565b5f6020820190506105c25f8301846105a0565b92915050565b613a61806105d55f395ff3fe608060405234801561000f575f5ffd5b5060043610610140575f3560e01c8063715018a6116100b6578063ac41865a1161007a578063ac41865a14610354578063baa2abde14610384578063dc5fa6c5146103b5578063dd62ed3e146103d3578063e8e3370014610403578063f2fde38b1461043557610140565b8063715018a6146102d45780638456cb59146102de5780638da5cb5b146102e857806395d89b4114610306578063a9059cbb1461032457610140565b806323b872dd1161010857806323b872dd146101fe578063313ce5671461022e57806338ed17391461024c5780633f4ba83a1461027c5780635c975abb1461028657806370a08231146102a457610140565b8063054d50d41461014457806306fdde0314610174578063095ea7b31461019257806318160ddd146101c257806319e36f3b146101e0575b5f5ffd5b61015e6004803603810190610159919061292c565b610451565b60405161016b919061298b565b60405180910390f35b61017c6104bf565b6040516101899190612a14565b60405180910390f35b6101ac60048036038101906101a79190612a8e565b61054f565b6040516101b99190612ae6565b60405180910390f35b6101ca610571565b6040516101d7919061298b565b60405180910390f35b6101e861057a565b6040516101f5919061298b565b60405180910390f35b61021860048036038101906102139190612aff565b610580565b6040516102259190612ae6565b60405180910390f35b6102366105ae565b6040516102439190612b6a565b60405180910390f35b61026660048036038101906102619190612be4565b6105b6565b6040516102739190612d31565b60405180910390f35b610284610da3565b005b61028e610db5565b60405161029b9190612ae6565b60405180910390f35b6102be60048036038101906102b99190612d51565b610dca565b6040516102cb919061298b565b60405180910390f35b6102dc610e0f565b005b6102e6610e22565b005b6102f0610e34565b6040516102fd9190612d8b565b60405180910390f35b61030e610e5d565b60405161031b9190612a14565b60405180910390f35b61033e60048036038101906103399190612a8e565b610eed565b60405161034b9190612ae6565b60405180910390f35b61036e60048036038101906103699190612da4565b610f0f565b60405161037b919061298b565b60405180910390f35b61039e60048036038101906103999190612de2565b611033565b6040516103ac929190612e7f565b60405180910390f35b6103bd611518565b6040516103ca919061298b565b60405180910390f35b6103ed60048036038101906103e89190612da4565b61151e565b6040516103fa919061298b565b60405180910390f35b61041d60048036038101906104189190612ea6565b6115a0565b60405161042c93929190612f57565b60405180910390f35b61044f600480360381019061044a9190612d51565b611ad4565b005b5f5f8411610494576040517f08c379a000000000000000000000000000000000000000000000000000000000815260040161048b90612fd6565b60405180910390fd5b83836104a09190613021565b82856104ac9190613054565b6104b691906130c2565b90509392505050565b6060600380546104ce9061311f565b80601f01602080910402602001604051908101604052809291908181526020018280546104fa9061311f565b80156105455780601f1061051c57610100808354040283529160200191610545565b820191905f5260205f20905b81548152906001019060200180831161052857829003601f168201915b5050505050905090565b5f5f610559611b58565b9050610566818585611b5f565b600191505092915050565b5f600254905090565b60075481565b5f5f61058a611b58565b9050610597858285611b71565b6105a2858585611c04565b60019150509392505050565b5f6012905090565b60605f4290505f881180156105ca57505f87115b80156105d95750600286869050145b610618576040517f08c379a000000000000000000000000000000000000000000000000000000000815260040161060f90612fd6565b60405180910390fd5b5f73ffffffffffffffffffffffffffffffffffffffff1686865f8181106106425761064161314f565b5b90506020020160208101906106579190612d51565b73ffffffffffffffffffffffffffffffffffffffff16141580156106cf57505f73ffffffffffffffffffffffffffffffffffffffff16868660018181106106a1576106a061314f565b5b90506020020160208101906106b69190612d51565b73ffffffffffffffffffffffffffffffffffffffff1614155b61070e576040517f08c379a0000000000000000000000000000000000000000000000000000000008152600401610705906131c6565b60405180910390fd5b5f73ffffffffffffffffffffffffffffffffffffffff168473ffffffffffffffffffffffffffffffffffffffff160361077c576040517f08c379a00000000000000000000000000000000000000000000000000000000081526004016107739061322e565b60405180910390fd5b5f60405160200161078c906132a0565b6040516020818303038152906040528051906020012087875f8181106107b5576107b461314f565b5b90506020020160208101906107ca9190612d51565b73ffffffffffffffffffffffffffffffffffffffff166395d89b416040518163ffffffff1660e01b81526004015f60405180830381865afa158015610811573d5f5f3e3d5ffd5b505050506040513d5f823e3d601f19601f8201168201806040525081019061083991906133ce565b6040516020016108499190613445565b604051602081830303815290604052805190602001201490505f3073ffffffffffffffffffffffffffffffffffffffff1663054d50d48b8461088d57600754610891565b6006545b8561089e576006546108a2565b6007545b6040518463ffffffff1660e01b81526004016108c093929190612f57565b602060405180830381865afa1580156108db573d5f5f3e3d5ffd5b505050506040513d601f19601f820116820180604052508101906108ff919061346f565b905088811015610944576040517f08c379a000000000000000000000000000000000000000000000000000000000815260040161093b906134e4565b60405180910390fd5b8988885f8181106109585761095761314f565b5b905060200201602081019061096d9190612d51565b73ffffffffffffffffffffffffffffffffffffffff166370a08231336040518263ffffffff1660e01b81526004016109a59190612d8b565b602060405180830381865afa1580156109c0573d5f5f3e3d5ffd5b505050506040513d601f19601f820116820180604052508101906109e4919061346f565b1015610a25576040517f08c379a0000000000000000000000000000000000000000000000000000000008152600401610a1c9061354c565b60405180910390fd5b8088886001818110610a3a57610a3961314f565b5b9050602002016020810190610a4f9190612d51565b73ffffffffffffffffffffffffffffffffffffffff166370a08231306040518263ffffffff1660e01b8152600401610a879190612d8b565b602060405180830381865afa158015610aa2573d5f5f3e3d5ffd5b505050506040513d601f19601f82011682018060405250810190610ac6919061346f565b1015610b07576040517f08c379a0000000000000000000000000000000000000000000000000000000008152600401610afe9061354c565b60405180910390fd5b8115610b42578960065f828254610b1e9190613021565b925050819055508060075f828254610b36919061356a565b92505081905550610b73565b8960065f828254610b53919061356a565b925050819055508060075f828254610b6b9190613021565b925050819055505b87875f818110610b8657610b8561314f565b5b9050602002016020810190610b9b9190612d51565b73ffffffffffffffffffffffffffffffffffffffff166323b872dd33308d6040518463ffffffff1660e01b8152600401610bd79392919061359d565b6020604051808303815f875af1158015610bf3573d5f5f3e3d5ffd5b505050506040513d601f19601f82011682018060405250810190610c1791906135fc565b5087876001818110610c2c57610c2b61314f565b5b9050602002016020810190610c419190612d51565b73ffffffffffffffffffffffffffffffffffffffff1663a9059cbb33836040518363ffffffff1660e01b8152600401610c7b929190613627565b6020604051808303815f875af1158015610c97573d5f5f3e3d5ffd5b505050506040513d601f19601f82011682018060405250810190610cbb91906135fc565b50600267ffffffffffffffff811115610cd757610cd66132b8565b5b604051908082528060200260200182016040528015610d055781602001602082028036833780820191505090505b50935089845f81518110610d1c57610d1b61314f565b5b6020026020010181815250508084600181518110610d3d57610d3c61314f565b5b6020026020010181815250508242610d55919061356a565b8511610d96576040517f08c379a0000000000000000000000000000000000000000000000000000000008152600401610d8d90613698565b60405180910390fd5b5050509695505050505050565b610dab611cf4565b610db3611d7b565b565b5f60055f9054906101000a900460ff16905090565b5f5f5f8373ffffffffffffffffffffffffffffffffffffffff1673ffffffffffffffffffffffffffffffffffffffff1681526020019081526020015f20549050919050565b610e17611cf4565b610e205f611ddc565b565b610e2a611cf4565b610e32611ea1565b565b5f600560019054906101000a900473ffffffffffffffffffffffffffffffffffffffff16905090565b606060048054610e6c9061311f565b80601f0160208091040260200160405190810160405280929190818152602001828054610e989061311f565b8015610ee35780601f10610eba57610100808354040283529160200191610ee3565b820191905f5260205f20905b815481529060010190602001808311610ec657829003601f168201915b5050505050905090565b5f5f610ef7611b58565b9050610f04818585611c04565b600191505092915050565b5f5f73ffffffffffffffffffffffffffffffffffffffff168373ffffffffffffffffffffffffffffffffffffffff1614158015610f7857505f73ffffffffffffffffffffffffffffffffffffffff168273ffffffffffffffffffffffffffffffffffffffff1614155b610fb7576040517f08c379a0000000000000000000000000000000000000000000000000000000008152600401610fae906131c6565b60405180910390fd5b5f600654118015610fc957505f600754115b611008576040517f08c379a0000000000000000000000000000000000000000000000000000000008152600401610fff90613700565b60405180910390fd5b600654670de0b6b3a76400006007546110219190613054565b61102b91906130c2565b905092915050565b5f5f5f4290505f73ffffffffffffffffffffffffffffffffffffffff168a73ffffffffffffffffffffffffffffffffffffffff16141580156110a157505f73ffffffffffffffffffffffffffffffffffffffff168973ffffffffffffffffffffffffffffffffffffffff1614155b6110e0576040517f08c379a00000000000000000000000000000000000000000000000000000000081526004016110d7906131c6565b60405180910390fd5b5f73ffffffffffffffffffffffffffffffffffffffff168573ffffffffffffffffffffffffffffffffffffffff160361114e576040517f08c379a00000000000000000000000000000000000000000000000000000000081526004016111459061322e565b60405180910390fd5b5f8811801561115c57505f84115b801561116757505f87115b801561117257505f86115b6111b1576040517f08c379a00000000000000000000000000000000000000000000000000000000081526004016111a890612fd6565b60405180910390fd5b873073ffffffffffffffffffffffffffffffffffffffff166370a08231336040518263ffffffff1660e01b81526004016111eb9190612d8b565b602060405180830381865afa158015611206573d5f5f3e3d5ffd5b505050506040513d601f19601f8201168201806040525081019061122a919061346f565b101561126b576040517f08c379a000000000000000000000000000000000000000000000000000000000815260040161126290613768565b60405180910390fd5b61127488611f03565b8093508194505050868310156112bf576040517f08c379a00000000000000000000000000000000000000000000000000000000081526004016112b6906137d0565b60405180910390fd5b85821015611302576040517f08c379a00000000000000000000000000000000000000000000000000000000081526004016112f990613838565b60405180910390fd5b826006541015611347576040517f08c379a000000000000000000000000000000000000000000000000000000000815260040161133e906138a0565b60405180910390fd5b81600754101561138c576040517f08c379a000000000000000000000000000000000000000000000000000000000815260040161138390613908565b60405180910390fd5b6113963389612018565b8260065f8282546113a7919061356a565b925050819055508160075f8282546113bf919061356a565b925050819055508973ffffffffffffffffffffffffffffffffffffffff1663a9059cbb86856040518363ffffffff1660e01b8152600401611401929190613627565b6020604051808303815f875af115801561141d573d5f5f3e3d5ffd5b505050506040513d601f19601f8201168201806040525081019061144191906135fc565b508873ffffffffffffffffffffffffffffffffffffffff1663a9059cbb86846040518363ffffffff1660e01b815260040161147d929190613627565b6020604051808303815f875af1158015611499573d5f5f3e3d5ffd5b505050506040513d601f19601f820116820180604052508101906114bd91906135fc565b5080426114ca919061356a565b841161150b576040517f08c379a000000000000000000000000000000000000000000000000000000000815260040161150290613698565b60405180910390fd5b5097509795505050505050565b60065481565b5f60015f8473ffffffffffffffffffffffffffffffffffffffff1673ffffffffffffffffffffffffffffffffffffffff1681526020019081526020015f205f8373ffffffffffffffffffffffffffffffffffffffff1673ffffffffffffffffffffffffffffffffffffffff1681526020019081526020015f2054905092915050565b5f5f5f5f4290505f73ffffffffffffffffffffffffffffffffffffffff168c73ffffffffffffffffffffffffffffffffffffffff161415801561160f57505f73ffffffffffffffffffffffffffffffffffffffff168b73ffffffffffffffffffffffffffffffffffffffff1614155b61164e576040517f08c379a0000000000000000000000000000000000000000000000000000000008152600401611645906131c6565b60405180910390fd5b5f73ffffffffffffffffffffffffffffffffffffffff168673ffffffffffffffffffffffffffffffffffffffff16036116bc576040517f08c379a00000000000000000000000000000000000000000000000000000000081526004016116b39061322e565b60405180910390fd5b5f8a1180156116ca57505f89115b80156116d557505f85115b80156116e057505f88115b80156116eb57505f87115b61172a576040517f08c379a000000000000000000000000000000000000000000000000000000000815260040161172190612fd6565b60405180910390fd5b6117348a8a612097565b80945081955050508784101561177f576040517f08c379a0000000000000000000000000000000000000000000000000000000008152600401611776906137d0565b60405180910390fd5b868310156117c2576040517f08c379a00000000000000000000000000000000000000000000000000000000081526004016117b990613838565b60405180910390fd5b838c73ffffffffffffffffffffffffffffffffffffffff166370a08231336040518263ffffffff1660e01b81526004016117fc9190612d8b565b602060405180830381865afa158015611817573d5f5f3e3d5ffd5b505050506040513d601f19601f8201168201806040525081019061183b919061346f565b101561187c576040517f08c379a000000000000000000000000000000000000000000000000000000000815260040161187390613970565b60405180910390fd5b828b73ffffffffffffffffffffffffffffffffffffffff166370a08231336040518263ffffffff1660e01b81526004016118b69190612d8b565b602060405180830381865afa1580156118d1573d5f5f3e3d5ffd5b505050506040513d601f19601f820116820180604052508101906118f5919061346f565b1015611936576040517f08c379a000000000000000000000000000000000000000000000000000000000815260040161192d906139d8565b60405180910390fd5b8b73ffffffffffffffffffffffffffffffffffffffff166323b872dd3330876040518463ffffffff1660e01b81526004016119739392919061359d565b6020604051808303815f875af115801561198f573d5f5f3e3d5ffd5b505050506040513d601f19601f820116820180604052508101906119b391906135fc565b508a73ffffffffffffffffffffffffffffffffffffffff166323b872dd3330866040518463ffffffff1660e01b81526004016119f19392919061359d565b6020604051808303815f875af1158015611a0d573d5f5f3e3d5ffd5b505050506040513d601f19601f82011682018060405250810190611a3191906135fc565b50611a3c848461211a565b91508360065f828254611a4f9190613021565b925050819055508260075f828254611a679190613021565b92505081905550611a788683612204565b8042611a84919061356a565b8511611ac5576040517f08c379a0000000000000000000000000000000000000000000000000000000008152600401611abc90613698565b60405180910390fd5b50985098509895505050505050565b611adc611cf4565b5f73ffffffffffffffffffffffffffffffffffffffff168173ffffffffffffffffffffffffffffffffffffffff1603611b4c575f6040517f1e4fbdf7000000000000000000000000000000000000000000000000000000008152600401611b439190612d8b565b60405180910390fd5b611b5581611ddc565b50565b5f33905090565b611b6c8383836001612283565b505050565b5f611b7c848461151e565b90507fffffffffffffffffffffffffffffffffffffffffffffffffffffffffffffffff811015611bfe5781811015611bef578281836040517ffb8f41b2000000000000000000000000000000000000000000000000000000008152600401611be6939291906139f6565b60405180910390fd5b611bfd84848484035f612283565b5b50505050565b5f73ffffffffffffffffffffffffffffffffffffffff168373ffffffffffffffffffffffffffffffffffffffff1603611c74575f6040517f96c6fd1e000000000000000000000000000000000000000000000000000000008152600401611c6b9190612d8b565b60405180910390fd5b5f73ffffffffffffffffffffffffffffffffffffffff168273ffffffffffffffffffffffffffffffffffffffff1603611ce4575f6040517fec442f05000000000000000000000000000000000000000000000000000000008152600401611cdb9190612d8b565b60405180910390fd5b611cef838383612452565b505050565b611cfc611b58565b73ffffffffffffffffffffffffffffffffffffffff16611d1a610e34565b73ffffffffffffffffffffffffffffffffffffffff1614611d7957611d3d611b58565b6040517f118cdaa7000000000000000000000000000000000000000000000000000000008152600401611d709190612d8b565b60405180910390fd5b565b611d83612462565b5f60055f6101000a81548160ff0219169083151502179055507f5db9ee0a495bf2e6ff9c91a7834c1ba4fdd244a5e8aa4e537bd38aeae4b073aa611dc5611b58565b604051611dd29190612d8b565b60405180910390a1565b5f600560019054906101000a900473ffffffffffffffffffffffffffffffffffffffff16905081600560016101000a81548173ffffffffffffffffffffffffffffffffffffffff021916908373ffffffffffffffffffffffffffffffffffffffff1602179055508173ffffffffffffffffffffffffffffffffffffffff168173ffffffffffffffffffffffffffffffffffffffff167f8be0079c531659141344cd1fd0a4f28419497f9722a3daafe3b4186f6b6457e060405160405180910390a35050565b611ea96124a2565b600160055f6101000a81548160ff0219169083151502179055507f62e78cea01bee320cd4e420270b5ea74000d11b0c9f74754ebdbfc544b05a258611eec611b58565b604051611ef99190612d8b565b60405180910390a1565b5f5f3073ffffffffffffffffffffffffffffffffffffffff166318160ddd6040518163ffffffff1660e01b8152600401602060405180830381865afa158015611f4e573d5f5f3e3d5ffd5b505050506040513d601f19601f82011682018060405250810190611f72919061346f565b60065484611f809190613054565b611f8a91906130c2565b3073ffffffffffffffffffffffffffffffffffffffff166318160ddd6040518163ffffffff1660e01b8152600401602060405180830381865afa158015611fd3573d5f5f3e3d5ffd5b505050506040513d601f19601f82011682018060405250810190611ff7919061346f565b600754856120059190613054565b61200f91906130c2565b91509150915091565b5f73ffffffffffffffffffffffffffffffffffffffff168273ffffffffffffffffffffffffffffffffffffffff1603612088575f6040517f96c6fd1e00000000000000000000000000000000000000000000000000000000815260040161207f9190612d8b565b60405180910390fd5b612093825f83612452565b5050565b5f5f5f6006541480156120ab57505f600754145b156120bb57838391509150612113565b5f600654600754866120cd9190613054565b6120d791906130c2565b90508381116120ec5784819250925050612113565b5f600754600654866120fe9190613054565b61210891906130c2565b905080859350935050505b9250929050565b5f5f3073ffffffffffffffffffffffffffffffffffffffff166318160ddd6040518163ffffffff1660e01b8152600401602060405180830381865afa158015612165573d5f5f3e3d5ffd5b505050506040513d601f19601f82011682018060405250810190612189919061346f565b036121a9576121a2828461219d9190613054565b6124e3565b90506121fe565b5f6006546121b5610571565b856121c09190613054565b6121ca91906130c2565b90505f6007546121d8610571565b856121e39190613054565b6121ed91906130c2565b90506121f9828261267d565b925050505b92915050565b5f73ffffffffffffffffffffffffffffffffffffffff168273ffffffffffffffffffffffffffffffffffffffff1603612274575f6040517fec442f0500000000000000000000000000000000000000000000000000000000815260040161226b9190612d8b565b60405180910390fd5b61227f5f8383612452565b5050565b5f73ffffffffffffffffffffffffffffffffffffffff168473ffffffffffffffffffffffffffffffffffffffff16036122f3575f6040517fe602df050000000000000000000000000000000000000000000000000000000081526004016122ea9190612d8b565b60405180910390fd5b5f73ffffffffffffffffffffffffffffffffffffffff168373ffffffffffffffffffffffffffffffffffffffff1603612363575f6040517f94280d6200000000000000000000000000000000000000000000000000000000815260040161235a9190612d8b565b60405180910390fd5b8160015f8673ffffffffffffffffffffffffffffffffffffffff1673ffffffffffffffffffffffffffffffffffffffff1681526020019081526020015f205f8573ffffffffffffffffffffffffffffffffffffffff1673ffffffffffffffffffffffffffffffffffffffff1681526020019081526020015f2081905550801561244c578273ffffffffffffffffffffffffffffffffffffffff168473ffffffffffffffffffffffffffffffffffffffff167f8c5be1e5ebec7d5bd14f71427d1e84f3dd0314c0f7b2291e5b200ac8c7c3b92584604051612443919061298b565b60405180910390a35b50505050565b61245d838383612693565b505050565b61246a610db5565b6124a0576040517f8dfc202b00000000000000000000000000000000000000000000000000000000815260040160405180910390fd5b565b6124aa610db5565b156124e1576040517fd93c066500000000000000000000000000000000000000000000000000000000815260040160405180910390fd5b565b5f600182116124f457819050612678565b5f8290505f60019050700100000000000000000000000000000000821061252457608082901c9150604081901b90505b68010000000000000000821061254357604082901c9150602081901b90505b640100000000821061255e57602082901c9150601081901b90505b62010000821061257757601082901c9150600881901b90505b610100821061258f57600882901c9150600481901b90505b601082106125a657600482901c9150600281901b90505b600482106125b657600181901b90505b600181600302901c905060018185816125d2576125d1613095565b5b048201901c905060018185816125eb576125ea613095565b5b048201901c9050600181858161260457612603613095565b5b048201901c9050600181858161261d5761261c613095565b5b048201901c9050600181858161263657612635613095565b5b048201901c9050600181858161264f5761264e613095565b5b048201901c905061267181858161266957612668613095565b5b0482116126ab565b8103925050505b919050565b5f61268b82841084846126b6565b905092915050565b61269b6124a2565b6126a68383836126cf565b505050565b5f8115159050919050565b5f6126c0846126ab565b82841802821890509392505050565b5f73ffffffffffffffffffffffffffffffffffffffff168373ffffffffffffffffffffffffffffffffffffffff160361271f578060025f8282546127139190613021565b925050819055506127ed565b5f5f5f8573ffffffffffffffffffffffffffffffffffffffff1673ffffffffffffffffffffffffffffffffffffffff1681526020019081526020015f20549050818110156127a8578381836040517fe450d38c00000000000000000000000000000000000000000000000000000000815260040161279f939291906139f6565b60405180910390fd5b8181035f5f8673ffffffffffffffffffffffffffffffffffffffff1673ffffffffffffffffffffffffffffffffffffffff1681526020019081526020015f2081905550505b5f73ffffffffffffffffffffffffffffffffffffffff168273ffffffffffffffffffffffffffffffffffffffff1603612834578060025f828254039250508190555061287e565b805f5f8473ffffffffffffffffffffffffffffffffffffffff1673ffffffffffffffffffffffffffffffffffffffff1681526020019081526020015f205f82825401925050819055505b8173ffffffffffffffffffffffffffffffffffffffff168373ffffffffffffffffffffffffffffffffffffffff167fddf252ad1be2c89b69c2b068fc378daa952ba7f163c4a11628f55a4df523b3ef836040516128db919061298b565b60405180910390a3505050565b5f604051905090565b5f5ffd5b5f5ffd5b5f819050919050565b61290b816128f9565b8114612915575f5ffd5b50565b5f8135905061292681612902565b92915050565b5f5f5f60608486031215612943576129426128f1565b5b5f61295086828701612918565b935050602061296186828701612918565b925050604061297286828701612918565b9150509250925092565b612985816128f9565b82525050565b5f60208201905061299e5f83018461297c565b92915050565b5f81519050919050565b5f82825260208201905092915050565b8281835e5f83830152505050565b5f601f19601f8301169050919050565b5f6129e6826129a4565b6129f081856129ae565b9350612a008185602086016129be565b612a09816129cc565b840191505092915050565b5f6020820190508181035f830152612a2c81846129dc565b905092915050565b5f73ffffffffffffffffffffffffffffffffffffffff82169050919050565b5f612a5d82612a34565b9050919050565b612a6d81612a53565b8114612a77575f5ffd5b50565b5f81359050612a8881612a64565b92915050565b5f5f60408385031215612aa457612aa36128f1565b5b5f612ab185828601612a7a565b9250506020612ac285828601612918565b9150509250929050565b5f8115159050919050565b612ae081612acc565b82525050565b5f602082019050612af95f830184612ad7565b92915050565b5f5f5f60608486031215612b1657612b156128f1565b5b5f612b2386828701612a7a565b9350506020612b3486828701612a7a565b9250506040612b4586828701612918565b9150509250925092565b5f60ff82169050919050565b612b6481612b4f565b82525050565b5f602082019050612b7d5f830184612b5b565b92915050565b5f5ffd5b5f5ffd5b5f5ffd5b5f5f83601f840112612ba457612ba3612b83565b5b8235905067ffffffffffffffff811115612bc157612bc0612b87565b5b602083019150836020820283011115612bdd57612bdc612b8b565b5b9250929050565b5f5f5f5f5f5f60a08789031215612bfe57612bfd6128f1565b5b5f612c0b89828a01612918565b9650506020612c1c89828a01612918565b955050604087013567ffffffffffffffff811115612c3d57612c3c6128f5565b5b612c4989828a01612b8f565b94509450506060612c5c89828a01612a7a565b9250506080612c6d89828a01612918565b9150509295509295509295565b5f81519050919050565b5f82825260208201905092915050565b5f819050602082019050919050565b612cac816128f9565b82525050565b5f612cbd8383612ca3565b60208301905092915050565b5f602082019050919050565b5f612cdf82612c7a565b612ce98185612c84565b9350612cf483612c94565b805f5b83811015612d24578151612d0b8882612cb2565b9750612d1683612cc9565b925050600181019050612cf7565b5085935050505092915050565b5f6020820190508181035f830152612d498184612cd5565b905092915050565b5f60208284031215612d6657612d656128f1565b5b5f612d7384828501612a7a565b91505092915050565b612d8581612a53565b82525050565b5f602082019050612d9e5f830184612d7c565b92915050565b5f5f60408385031215612dba57612db96128f1565b5b5f612dc785828601612a7a565b9250506020612dd885828601612a7a565b9150509250929050565b5f5f5f5f5f5f5f60e0888a031215612dfd57612dfc6128f1565b5b5f612e0a8a828b01612a7a565b9750506020612e1b8a828b01612a7a565b9650506040612e2c8a828b01612918565b9550506060612e3d8a828b01612918565b9450506080612e4e8a828b01612918565b93505060a0612e5f8a828b01612a7a565b92505060c0612e708a828b01612918565b91505092959891949750929550565b5f604082019050612e925f83018561297c565b612e9f602083018461297c565b9392505050565b5f5f5f5f5f5f5f5f610100898b031215612ec357612ec26128f1565b5b5f612ed08b828c01612a7a565b9850506020612ee18b828c01612a7a565b9750506040612ef28b828c01612918565b9650506060612f038b828c01612918565b9550506080612f148b828c01612918565b94505060a0612f258b828c01612918565b93505060c0612f368b828c01612a7a565b92505060e0612f478b828c01612918565b9150509295985092959890939650565b5f606082019050612f6a5f83018661297c565b612f77602083018561297c565b612f84604083018461297c565b949350505050565b7f496e76616c696420696e70757420706172616d657465727321000000000000005f82015250565b5f612fc06019836129ae565b9150612fcb82612f8c565b602082019050919050565b5f6020820190508181035f830152612fed81612fb4565b9050919050565b7f4e487b71000000000000000000000000000000000000000000000000000000005f52601160045260245ffd5b5f61302b826128f9565b9150613036836128f9565b925082820190508082111561304e5761304d612ff4565b5b92915050565b5f61305e826128f9565b9150613069836128f9565b9250828202613077816128f9565b9150828204841483151761308e5761308d612ff4565b5b5092915050565b7f4e487b71000000000000000000000000000000000000000000000000000000005f52601260045260245ffd5b5f6130cc826128f9565b91506130d7836128f9565b9250826130e7576130e6613095565b5b828204905092915050565b7f4e487b71000000000000000000000000000000000000000000000000000000005f52602260045260245ffd5b5f600282049050600182168061313657607f821691505b602082108103613149576131486130f2565b5b50919050565b7f4e487b71000000000000000000000000000000000000000000000000000000005f52603260045260245ffd5b7f496e76616c696420746f6b656e206164647265737365732100000000000000005f82015250565b5f6131b06018836129ae565b91506131bb8261317c565b602082019050919050565b5f6020820190508181035f8301526131dd816131a4565b9050919050565b7f496e76616c696420726563697069656e742061646472657373000000000000005f82015250565b5f6132186019836129ae565b9150613223826131e4565b602082019050919050565b5f6020820190508181035f8301526132458161320c565b9050919050565b5f81905092915050565b7f4d544b41000000000000000000000000000000000000000000000000000000005f82015250565b5f61328a60048361324c565b915061329582613256565b600482019050919050565b5f6132aa8261327e565b9150819050919050565b5f5ffd5b7f4e487b71000000000000000000000000000000000000000000000000000000005f52604160045260245ffd5b6132ee826129cc565b810181811067ffffffffffffffff8211171561330d5761330c6132b8565b5b80604052505050565b5f61331f6128e8565b905061332b82826132e5565b919050565b5f67ffffffffffffffff82111561334a576133496132b8565b5b613353826129cc565b9050602081019050919050565b5f61337261336d84613330565b613316565b90508281526020810184848401111561338e5761338d6132b4565b5b6133998482856129be565b509392505050565b5f82601f8301126133b5576133b4612b83565b5b81516133c5848260208601613360565b91505092915050565b5f602082840312156133e3576133e26128f1565b5b5f82015167ffffffffffffffff811115613400576133ff6128f5565b5b61340c848285016133a1565b91505092915050565b5f61341f826129a4565b613429818561324c565b93506134398185602086016129be565b80840191505092915050565b5f6134508284613415565b915081905092915050565b5f8151905061346981612902565b92915050565b5f60208284031215613484576134836128f1565b5b5f6134918482850161345b565b91505092915050565b7f4e6f74206d65657420746865206d696e696d756d2100000000000000000000005f82015250565b5f6134ce6015836129ae565b91506134d98261349a565b602082019050919050565b5f6020820190508181035f8301526134fb816134c2565b9050919050565b7f496e73756666696369656e7420546f6b656e2066756e647321000000000000005f82015250565b5f6135366019836129ae565b915061354182613502565b602082019050919050565b5f6020820190508181035f8301526135638161352a565b9050919050565b5f613574826128f9565b915061357f836128f9565b925082820390508181111561359757613596612ff4565b5b92915050565b5f6060820190506135b05f830186612d7c565b6135bd6020830185612d7c565b6135ca604083018461297c565b949350505050565b6135db81612acc565b81146135e5575f5ffd5b50565b5f815190506135f6816135d2565b92915050565b5f60208284031215613611576136106128f1565b5b5f61361e848285016135e8565b91505092915050565b5f60408201905061363a5f830185612d7c565b613647602083018461297c565b9392505050565b7f446561646c696e652072656163686564210000000000000000000000000000005f82015250565b5f6136826011836129ae565b915061368d8261364e565b602082019050919050565b5f6020820190508181035f8301526136af81613676565b9050919050565b7f4e6f20617661696c61626c65206c697175696469747920746f6b656e732100005f82015250565b5f6136ea601e836129ae565b91506136f5826136b6565b602082019050919050565b5f6020820190508181035f830152613717816136de565b9050919050565b7f496e73756666696369656e74204c697175696469747920546f6b656e732100005f82015250565b5f613752601e836129ae565b915061375d8261371e565b602082019050919050565b5f6020820190508181035f83015261377f81613746565b9050919050565b7f4e6f74206d65657420746865206d696e696d756d20666f7220546f6b656e41215f82015250565b5f6137ba6020836129ae565b91506137c582613786565b602082019050919050565b5f6020820190508181035f8301526137e7816137ae565b9050919050565b7f4e6f74206d65657420746865206d696e696d756d20666f7220546f6b656e42215f82015250565b5f6138226020836129ae565b915061382d826137ee565b602082019050919050565b5f6020820190508181035f83015261384f81613816565b9050919050565b7f496e73756666696369656e7420546f6b656e41210000000000000000000000005f82015250565b5f61388a6014836129ae565b915061389582613856565b602082019050919050565b5f6020820190508181035f8301526138b78161387e565b9050919050565b7f496e73756666696369656e7420546f6b656e42210000000000000000000000005f82015250565b5f6138f26014836129ae565b91506138fd826138be565b602082019050919050565b5f6020820190508181035f83015261391f816138e6565b9050919050565b7f496e73756666696369656e7420546f6b656e412066756e6473210000000000005f82015250565b5f61395a601a836129ae565b915061396582613926565b602082019050919050565b5f6020820190508181035f8301526139878161394e565b9050919050565b7f496e73756666696369656e7420546f6b656e422066756e6473210000000000005f82015250565b5f6139c2601a836129ae565b91506139cd8261398e565b602082019050919050565b5f6020820190508181035f8301526139ef816139b6565b9050919050565b5f606082019050613a095f830186612d7c565b613a16602083018561297c565b613a23604083018461297c565b94935050505056fea2646970667358221220e05e9d6da511018b598ae28192853e0824eb1f580875f3f861ff52e7f279d3cd64736f6c634300081b0033",
			"opcodes": "PUSH1 0x80 PUSH1 0x40 MSTORE CALLVALUE DUP1 ISZERO PUSH2 0xF JUMPI PUSH0 PUSH0 REVERT JUMPDEST POP PUSH1 0x40 MLOAD PUSH2 0x4036 CODESIZE SUB DUP1 PUSH2 0x4036 DUP4 CODECOPY DUP2 DUP2 ADD PUSH1 0x40 MSTORE DUP2 ADD SWAP1 PUSH2 0x31 SWAP2 SWAP1 PUSH2 0x269 JUMP JUMPDEST DUP1 PUSH1 0x40 MLOAD DUP1 PUSH1 0x40 ADD PUSH1 0x40 MSTORE DUP1 PUSH1 0xE DUP2 MSTORE PUSH1 0x20 ADD PUSH32 0x4C6971756964697479546F6B656E000000000000000000000000000000000000 DUP2 MSTORE POP PUSH1 0x40 MLOAD DUP1 PUSH1 0x40 ADD PUSH1 0x40 MSTORE DUP1 PUSH1 0x3 DUP2 MSTORE PUSH1 0x20 ADD PUSH32 0x4C544B0000000000000000000000000000000000000000000000000000000000 DUP2 MSTORE POP DUP2 PUSH1 0x3 SWAP1 DUP2 PUSH2 0xAD SWAP2 SWAP1 PUSH2 0x4D1 JUMP JUMPDEST POP DUP1 PUSH1 0x4 SWAP1 DUP2 PUSH2 0xBD SWAP2 SWAP1 PUSH2 0x4D1 JUMP JUMPDEST POP POP POP PUSH0 PUSH20 0xFFFFFFFFFFFFFFFFFFFFFFFFFFFFFFFFFFFFFFFF AND DUP2 PUSH20 0xFFFFFFFFFFFFFFFFFFFFFFFFFFFFFFFFFFFFFFFF AND SUB PUSH2 0x130 JUMPI PUSH0 PUSH1 0x40 MLOAD PUSH32 0x1E4FBDF700000000000000000000000000000000000000000000000000000000 DUP2 MSTORE PUSH1 0x4 ADD PUSH2 0x127 SWAP2 SWAP1 PUSH2 0x5AF JUMP JUMPDEST PUSH1 0x40 MLOAD DUP1 SWAP2 SUB SWAP1 REVERT JUMPDEST PUSH2 0x13F DUP2 PUSH2 0x146 PUSH1 0x20 SHL PUSH1 0x20 SHR JUMP JUMPDEST POP POP PUSH2 0x5C8 JUMP JUMPDEST PUSH0 PUSH1 0x5 PUSH1 0x1 SWAP1 SLOAD SWAP1 PUSH2 0x100 EXP SWAP1 DIV PUSH20 0xFFFFFFFFFFFFFFFFFFFFFFFFFFFFFFFFFFFFFFFF AND SWAP1 POP DUP2 PUSH1 0x5 PUSH1 0x1 PUSH2 0x100 EXP DUP2 SLOAD DUP2 PUSH20 0xFFFFFFFFFFFFFFFFFFFFFFFFFFFFFFFFFFFFFFFF MUL NOT AND SWAP1 DUP4 PUSH20 0xFFFFFFFFFFFFFFFFFFFFFFFFFFFFFFFFFFFFFFFF AND MUL OR SWAP1 SSTORE POP DUP2 PUSH20 0xFFFFFFFFFFFFFFFFFFFFFFFFFFFFFFFFFFFFFFFF AND DUP2 PUSH20 0xFFFFFFFFFFFFFFFFFFFFFFFFFFFFFFFFFFFFFFFF AND PUSH32 0x8BE0079C531659141344CD1FD0A4F28419497F9722A3DAAFE3B4186F6B6457E0 PUSH1 0x40 MLOAD PUSH1 0x40 MLOAD DUP1 SWAP2 SUB SWAP1 LOG3 POP POP JUMP JUMPDEST PUSH0 PUSH0 REVERT JUMPDEST PUSH0 PUSH20 0xFFFFFFFFFFFFFFFFFFFFFFFFFFFFFFFFFFFFFFFF DUP3 AND SWAP1 POP SWAP2 SWAP1 POP JUMP JUMPDEST PUSH0 PUSH2 0x238 DUP3 PUSH2 0x20F JUMP JUMPDEST SWAP1 POP SWAP2 SWAP1 POP JUMP JUMPDEST PUSH2 0x248 DUP2 PUSH2 0x22E JUMP JUMPDEST DUP2 EQ PUSH2 0x252 JUMPI PUSH0 PUSH0 REVERT JUMPDEST POP JUMP JUMPDEST PUSH0 DUP2 MLOAD SWAP1 POP PUSH2 0x263 DUP2 PUSH2 0x23F JUMP JUMPDEST SWAP3 SWAP2 POP POP JUMP JUMPDEST PUSH0 PUSH1 0x20 DUP3 DUP5 SUB SLT ISZERO PUSH2 0x27E JUMPI PUSH2 0x27D PUSH2 0x20B JUMP JUMPDEST JUMPDEST PUSH0 PUSH2 0x28B DUP5 DUP3 DUP6 ADD PUSH2 0x255 JUMP JUMPDEST SWAP2 POP POP SWAP3 SWAP2 POP POP JUMP JUMPDEST PUSH0 DUP2 MLOAD SWAP1 POP SWAP2 SWAP1 POP JUMP JUMPDEST PUSH32 0x4E487B7100000000000000000000000000000000000000000000000000000000 PUSH0 MSTORE PUSH1 0x41 PUSH1 0x4 MSTORE PUSH1 0x24 PUSH0 REVERT JUMPDEST PUSH32 0x4E487B7100000000000000000000000000000000000000000000000000000000 PUSH0 MSTORE PUSH1 0x22 PUSH1 0x4 MSTORE PUSH1 0x24 PUSH0 REVERT JUMPDEST PUSH0 PUSH1 0x2 DUP3 DIV SWAP1 POP PUSH1 0x1 DUP3 AND DUP1 PUSH2 0x30F JUMPI PUSH1 0x7F DUP3 AND SWAP2 POP JUMPDEST PUSH1 0x20 DUP3 LT DUP2 SUB PUSH2 0x322 JUMPI PUSH2 0x321 PUSH2 0x2CB JUMP JUMPDEST JUMPDEST POP SWAP2 SWAP1 POP JUMP JUMPDEST PUSH0 DUP2 SWAP1 POP DUP2 PUSH0 MSTORE PUSH1 0x20 PUSH0 KECCAK256 SWAP1 POP SWAP2 SWAP1 POP JUMP JUMPDEST PUSH0 PUSH1 0x20 PUSH1 0x1F DUP4 ADD DIV SWAP1 POP SWAP2 SWAP1 POP JUMP JUMPDEST PUSH0 DUP3 DUP3 SHL SWAP1 POP SWAP3 SWAP2 POP POP JUMP JUMPDEST PUSH0 PUSH1 0x8 DUP4 MUL PUSH2 0x384 PUSH32 0xFFFFFFFFFFFFFFFFFFFFFFFFFFFFFFFFFFFFFFFFFFFFFFFFFFFFFFFFFFFFFFFF DUP3 PUSH2 0x349 JUMP JUMPDEST PUSH2 0x38E DUP7 DUP4 PUSH2 0x349 JUMP JUMPDEST SWAP6 POP DUP1 NOT DUP5 AND SWAP4 POP DUP1 DUP7 AND DUP5 OR SWAP3 POP POP POP SWAP4 SWAP3 POP POP POP JUMP JUMPDEST PUSH0 DUP2 SWAP1 POP SWAP2 SWAP1 POP JUMP JUMPDEST PUSH0 DUP2 SWAP1 POP SWAP2 SWAP1 POP JUMP JUMPDEST PUSH0 PUSH2 0x3D2 PUSH2 0x3CD PUSH2 0x3C8 DUP5 PUSH2 0x3A6 JUMP JUMPDEST PUSH2 0x3AF JUMP JUMPDEST PUSH2 0x3A6 JUMP JUMPDEST SWAP1 POP SWAP2 SWAP1 POP JUMP JUMPDEST PUSH0 DUP2 SWAP1 POP SWAP2 SWAP1 POP JUMP JUMPDEST PUSH2 0x3EB DUP4 PUSH2 0x3B8 JUMP JUMPDEST PUSH2 0x3FF PUSH2 0x3F7 DUP3 PUSH2 0x3D9 JUMP JUMPDEST DUP5 DUP5 SLOAD PUSH2 0x355 JUMP JUMPDEST DUP3 SSTORE POP POP POP POP JUMP JUMPDEST PUSH0 PUSH0 SWAP1 POP SWAP1 JUMP JUMPDEST PUSH2 0x416 PUSH2 0x407 JUMP JUMPDEST PUSH2 0x421 DUP2 DUP5 DUP5 PUSH2 0x3E2 JUMP JUMPDEST POP POP POP JUMP JUMPDEST JUMPDEST DUP2 DUP2 LT ISZERO PUSH2 0x444 JUMPI PUSH2 0x439 PUSH0 DUP3 PUSH2 0x40E JUMP JUMPDEST PUSH1 0x1 DUP2 ADD SWAP1 POP PUSH2 0x427 JUMP JUMPDEST POP POP JUMP JUMPDEST PUSH1 0x1F DUP3 GT ISZERO PUSH2 0x489 JUMPI PUSH2 0x45A DUP2 PUSH2 0x328 JUMP JUMPDEST PUSH2 0x463 DUP5 PUSH2 0x33A JUMP JUMPDEST DUP2 ADD PUSH1 0x20 DUP6 LT ISZERO PUSH2 0x472 JUMPI DUP2 SWAP1 POP JUMPDEST PUSH2 0x486 PUSH2 0x47E DUP6 PUSH2 0x33A JUMP JUMPDEST DUP4 ADD DUP3 PUSH2 0x426 JUMP JUMPDEST POP POP JUMPDEST POP POP POP JUMP JUMPDEST PUSH0 DUP3 DUP3 SHR SWAP1 POP SWAP3 SWAP2 POP POP JUMP JUMPDEST PUSH0 PUSH2 0x4A9 PUSH0 NOT DUP5 PUSH1 0x8 MUL PUSH2 0x48E JUMP JUMPDEST NOT DUP1 DUP4 AND SWAP2 POP POP SWAP3 SWAP2 POP POP JUMP JUMPDEST PUSH0 PUSH2 0x4C1 DUP4 DUP4 PUSH2 0x49A JUMP JUMPDEST SWAP2 POP DUP3 PUSH1 0x2 MUL DUP3 OR SWAP1 POP SWAP3 SWAP2 POP POP JUMP JUMPDEST PUSH2 0x4DA DUP3 PUSH2 0x294 JUMP JUMPDEST PUSH8 0xFFFFFFFFFFFFFFFF DUP2 GT ISZERO PUSH2 0x4F3 JUMPI PUSH2 0x4F2 PUSH2 0x29E JUMP JUMPDEST JUMPDEST PUSH2 0x4FD DUP3 SLOAD PUSH2 0x2F8 JUMP JUMPDEST PUSH2 0x508 DUP3 DUP3 DUP6 PUSH2 0x448 JUMP JUMPDEST PUSH0 PUSH1 0x20 SWAP1 POP PUSH1 0x1F DUP4 GT PUSH1 0x1 DUP2 EQ PUSH2 0x539 JUMPI PUSH0 DUP5 ISZERO PUSH2 0x527 JUMPI DUP3 DUP8 ADD MLOAD SWAP1 POP JUMPDEST PUSH2 0x531 DUP6 DUP3 PUSH2 0x4B6 JUMP JUMPDEST DUP7 SSTORE POP PUSH2 0x598 JUMP JUMPDEST PUSH1 0x1F NOT DUP5 AND PUSH2 0x547 DUP7 PUSH2 0x328 JUMP JUMPDEST PUSH0 JUMPDEST DUP3 DUP2 LT ISZERO PUSH2 0x56E JUMPI DUP5 DUP10 ADD MLOAD DUP3 SSTORE PUSH1 0x1 DUP3 ADD SWAP2 POP PUSH1 0x20 DUP6 ADD SWAP5 POP PUSH1 0x20 DUP2 ADD SWAP1 POP PUSH2 0x549 JUMP JUMPDEST DUP7 DUP4 LT ISZERO PUSH2 0x58B JUMPI DUP5 DUP10 ADD MLOAD PUSH2 0x587 PUSH1 0x1F DUP10 AND DUP3 PUSH2 0x49A JUMP JUMPDEST DUP4 SSTORE POP JUMPDEST PUSH1 0x1 PUSH1 0x2 DUP9 MUL ADD DUP9 SSTORE POP POP POP JUMPDEST POP POP POP POP POP POP JUMP JUMPDEST PUSH2 0x5A9 DUP2 PUSH2 0x22E JUMP JUMPDEST DUP3 MSTORE POP POP JUMP JUMPDEST PUSH0 PUSH1 0x20 DUP3 ADD SWAP1 POP PUSH2 0x5C2 PUSH0 DUP4 ADD DUP5 PUSH2 0x5A0 JUMP JUMPDEST SWAP3 SWAP2 POP POP JUMP JUMPDEST PUSH2 0x3A61 DUP1 PUSH2 0x5D5 PUSH0 CODECOPY PUSH0 RETURN INVALID PUSH1 0x80 PUSH1 0x40 MSTORE CALLVALUE DUP1 ISZERO PUSH2 0xF JUMPI PUSH0 PUSH0 REVERT JUMPDEST POP PUSH1 0x4 CALLDATASIZE LT PUSH2 0x140 JUMPI PUSH0 CALLDATALOAD PUSH1 0xE0 SHR DUP1 PUSH4 0x715018A6 GT PUSH2 0xB6 JUMPI DUP1 PUSH4 0xAC41865A GT PUSH2 0x7A JUMPI DUP1 PUSH4 0xAC41865A EQ PUSH2 0x354 JUMPI DUP1 PUSH4 0xBAA2ABDE EQ PUSH2 0x384 JUMPI DUP1 PUSH4 0xDC5FA6C5 EQ PUSH2 0x3B5 JUMPI DUP1 PUSH4 0xDD62ED3E EQ PUSH2 0x3D3 JUMPI DUP1 PUSH4 0xE8E33700 EQ PUSH2 0x403 JUMPI DUP1 PUSH4 0xF2FDE38B EQ PUSH2 0x435 JUMPI PUSH2 0x140 JUMP JUMPDEST DUP1 PUSH4 0x715018A6 EQ PUSH2 0x2D4 JUMPI DUP1 PUSH4 0x8456CB59 EQ PUSH2 0x2DE JUMPI DUP1 PUSH4 0x8DA5CB5B EQ PUSH2 0x2E8 JUMPI DUP1 PUSH4 0x95D89B41 EQ PUSH2 0x306 JUMPI DUP1 PUSH4 0xA9059CBB EQ PUSH2 0x324 JUMPI PUSH2 0x140 JUMP JUMPDEST DUP1 PUSH4 0x23B872DD GT PUSH2 0x108 JUMPI DUP1 PUSH4 0x23B872DD EQ PUSH2 0x1FE JUMPI DUP1 PUSH4 0x313CE567 EQ PUSH2 0x22E JUMPI DUP1 PUSH4 0x38ED1739 EQ PUSH2 0x24C JUMPI DUP1 PUSH4 0x3F4BA83A EQ PUSH2 0x27C JUMPI DUP1 PUSH4 0x5C975ABB EQ PUSH2 0x286 JUMPI DUP1 PUSH4 0x70A08231 EQ PUSH2 0x2A4 JUMPI PUSH2 0x140 JUMP JUMPDEST DUP1 PUSH4 0x54D50D4 EQ PUSH2 0x144 JUMPI DUP1 PUSH4 0x6FDDE03 EQ PUSH2 0x174 JUMPI DUP1 PUSH4 0x95EA7B3 EQ PUSH2 0x192 JUMPI DUP1 PUSH4 0x18160DDD EQ PUSH2 0x1C2 JUMPI DUP1 PUSH4 0x19E36F3B EQ PUSH2 0x1E0 JUMPI JUMPDEST PUSH0 PUSH0 REVERT JUMPDEST PUSH2 0x15E PUSH1 0x4 DUP1 CALLDATASIZE SUB DUP2 ADD SWAP1 PUSH2 0x159 SWAP2 SWAP1 PUSH2 0x292C JUMP JUMPDEST PUSH2 0x451 JUMP JUMPDEST PUSH1 0x40 MLOAD PUSH2 0x16B SWAP2 SWAP1 PUSH2 0x298B JUMP JUMPDEST PUSH1 0x40 MLOAD DUP1 SWAP2 SUB SWAP1 RETURN JUMPDEST PUSH2 0x17C PUSH2 0x4BF JUMP JUMPDEST PUSH1 0x40 MLOAD PUSH2 0x189 SWAP2 SWAP1 PUSH2 0x2A14 JUMP JUMPDEST PUSH1 0x40 MLOAD DUP1 SWAP2 SUB SWAP1 RETURN JUMPDEST PUSH2 0x1AC PUSH1 0x4 DUP1 CALLDATASIZE SUB DUP2 ADD SWAP1 PUSH2 0x1A7 SWAP2 SWAP1 PUSH2 0x2A8E JUMP JUMPDEST PUSH2 0x54F JUMP JUMPDEST PUSH1 0x40 MLOAD PUSH2 0x1B9 SWAP2 SWAP1 PUSH2 0x2AE6 JUMP JUMPDEST PUSH1 0x40 MLOAD DUP1 SWAP2 SUB SWAP1 RETURN JUMPDEST PUSH2 0x1CA PUSH2 0x571 JUMP JUMPDEST PUSH1 0x40 MLOAD PUSH2 0x1D7 SWAP2 SWAP1 PUSH2 0x298B JUMP JUMPDEST PUSH1 0x40 MLOAD DUP1 SWAP2 SUB SWAP1 RETURN JUMPDEST PUSH2 0x1E8 PUSH2 0x57A JUMP JUMPDEST PUSH1 0x40 MLOAD PUSH2 0x1F5 SWAP2 SWAP1 PUSH2 0x298B JUMP JUMPDEST PUSH1 0x40 MLOAD DUP1 SWAP2 SUB SWAP1 RETURN JUMPDEST PUSH2 0x218 PUSH1 0x4 DUP1 CALLDATASIZE SUB DUP2 ADD SWAP1 PUSH2 0x213 SWAP2 SWAP1 PUSH2 0x2AFF JUMP JUMPDEST PUSH2 0x580 JUMP JUMPDEST PUSH1 0x40 MLOAD PUSH2 0x225 SWAP2 SWAP1 PUSH2 0x2AE6 JUMP JUMPDEST PUSH1 0x40 MLOAD DUP1 SWAP2 SUB SWAP1 RETURN JUMPDEST PUSH2 0x236 PUSH2 0x5AE JUMP JUMPDEST PUSH1 0x40 MLOAD PUSH2 0x243 SWAP2 SWAP1 PUSH2 0x2B6A JUMP JUMPDEST PUSH1 0x40 MLOAD DUP1 SWAP2 SUB SWAP1 RETURN JUMPDEST PUSH2 0x266 PUSH1 0x4 DUP1 CALLDATASIZE SUB DUP2 ADD SWAP1 PUSH2 0x261 SWAP2 SWAP1 PUSH2 0x2BE4 JUMP JUMPDEST PUSH2 0x5B6 JUMP JUMPDEST PUSH1 0x40 MLOAD PUSH2 0x273 SWAP2 SWAP1 PUSH2 0x2D31 JUMP JUMPDEST PUSH1 0x40 MLOAD DUP1 SWAP2 SUB SWAP1 RETURN JUMPDEST PUSH2 0x284 PUSH2 0xDA3 JUMP JUMPDEST STOP JUMPDEST PUSH2 0x28E PUSH2 0xDB5 JUMP JUMPDEST PUSH1 0x40 MLOAD PUSH2 0x29B SWAP2 SWAP1 PUSH2 0x2AE6 JUMP JUMPDEST PUSH1 0x40 MLOAD DUP1 SWAP2 SUB SWAP1 RETURN JUMPDEST PUSH2 0x2BE PUSH1 0x4 DUP1 CALLDATASIZE SUB DUP2 ADD SWAP1 PUSH2 0x2B9 SWAP2 SWAP1 PUSH2 0x2D51 JUMP JUMPDEST PUSH2 0xDCA JUMP JUMPDEST PUSH1 0x40 MLOAD PUSH2 0x2CB SWAP2 SWAP1 PUSH2 0x298B JUMP JUMPDEST PUSH1 0x40 MLOAD DUP1 SWAP2 SUB SWAP1 RETURN JUMPDEST PUSH2 0x2DC PUSH2 0xE0F JUMP JUMPDEST STOP JUMPDEST PUSH2 0x2E6 PUSH2 0xE22 JUMP JUMPDEST STOP JUMPDEST PUSH2 0x2F0 PUSH2 0xE34 JUMP JUMPDEST PUSH1 0x40 MLOAD PUSH2 0x2FD SWAP2 SWAP1 PUSH2 0x2D8B JUMP JUMPDEST PUSH1 0x40 MLOAD DUP1 SWAP2 SUB SWAP1 RETURN JUMPDEST PUSH2 0x30E PUSH2 0xE5D JUMP JUMPDEST PUSH1 0x40 MLOAD PUSH2 0x31B SWAP2 SWAP1 PUSH2 0x2A14 JUMP JUMPDEST PUSH1 0x40 MLOAD DUP1 SWAP2 SUB SWAP1 RETURN JUMPDEST PUSH2 0x33E PUSH1 0x4 DUP1 CALLDATASIZE SUB DUP2 ADD SWAP1 PUSH2 0x339 SWAP2 SWAP1 PUSH2 0x2A8E JUMP JUMPDEST PUSH2 0xEED JUMP JUMPDEST PUSH1 0x40 MLOAD PUSH2 0x34B SWAP2 SWAP1 PUSH2 0x2AE6 JUMP JUMPDEST PUSH1 0x40 MLOAD DUP1 SWAP2 SUB SWAP1 RETURN JUMPDEST PUSH2 0x36E PUSH1 0x4 DUP1 CALLDATASIZE SUB DUP2 ADD SWAP1 PUSH2 0x369 SWAP2 SWAP1 PUSH2 0x2DA4 JUMP JUMPDEST PUSH2 0xF0F JUMP JUMPDEST PUSH1 0x40 MLOAD PUSH2 0x37B SWAP2 SWAP1 PUSH2 0x298B JUMP JUMPDEST PUSH1 0x40 MLOAD DUP1 SWAP2 SUB SWAP1 RETURN JUMPDEST PUSH2 0x39E PUSH1 0x4 DUP1 CALLDATASIZE SUB DUP2 ADD SWAP1 PUSH2 0x399 SWAP2 SWAP1 PUSH2 0x2DE2 JUMP JUMPDEST PUSH2 0x1033 JUMP JUMPDEST PUSH1 0x40 MLOAD PUSH2 0x3AC SWAP3 SWAP2 SWAP1 PUSH2 0x2E7F JUMP JUMPDEST PUSH1 0x40 MLOAD DUP1 SWAP2 SUB SWAP1 RETURN JUMPDEST PUSH2 0x3BD PUSH2 0x1518 JUMP JUMPDEST PUSH1 0x40 MLOAD PUSH2 0x3CA SWAP2 SWAP1 PUSH2 0x298B JUMP JUMPDEST PUSH1 0x40 MLOAD DUP1 SWAP2 SUB SWAP1 RETURN JUMPDEST PUSH2 0x3ED PUSH1 0x4 DUP1 CALLDATASIZE SUB DUP2 ADD SWAP1 PUSH2 0x3E8 SWAP2 SWAP1 PUSH2 0x2DA4 JUMP JUMPDEST PUSH2 0x151E JUMP JUMPDEST PUSH1 0x40 MLOAD PUSH2 0x3FA SWAP2 SWAP1 PUSH2 0x298B JUMP JUMPDEST PUSH1 0x40 MLOAD DUP1 SWAP2 SUB SWAP1 RETURN JUMPDEST PUSH2 0x41D PUSH1 0x4 DUP1 CALLDATASIZE SUB DUP2 ADD SWAP1 PUSH2 0x418 SWAP2 SWAP1 PUSH2 0x2EA6 JUMP JUMPDEST PUSH2 0x15A0 JUMP JUMPDEST PUSH1 0x40 MLOAD PUSH2 0x42C SWAP4 SWAP3 SWAP2 SWAP1 PUSH2 0x2F57 JUMP JUMPDEST PUSH1 0x40 MLOAD DUP1 SWAP2 SUB SWAP1 RETURN JUMPDEST PUSH2 0x44F PUSH1 0x4 DUP1 CALLDATASIZE SUB DUP2 ADD SWAP1 PUSH2 0x44A SWAP2 SWAP1 PUSH2 0x2D51 JUMP JUMPDEST PUSH2 0x1AD4 JUMP JUMPDEST STOP JUMPDEST PUSH0 PUSH0 DUP5 GT PUSH2 0x494 JUMPI PUSH1 0x40 MLOAD PUSH32 0x8C379A000000000000000000000000000000000000000000000000000000000 DUP2 MSTORE PUSH1 0x4 ADD PUSH2 0x48B SWAP1 PUSH2 0x2FD6 JUMP JUMPDEST PUSH1 0x40 MLOAD DUP1 SWAP2 SUB SWAP1 REVERT JUMPDEST DUP4 DUP4 PUSH2 0x4A0 SWAP2 SWAP1 PUSH2 0x3021 JUMP JUMPDEST DUP3 DUP6 PUSH2 0x4AC SWAP2 SWAP1 PUSH2 0x3054 JUMP JUMPDEST PUSH2 0x4B6 SWAP2 SWAP1 PUSH2 0x30C2 JUMP JUMPDEST SWAP1 POP SWAP4 SWAP3 POP POP POP JUMP JUMPDEST PUSH1 0x60 PUSH1 0x3 DUP1 SLOAD PUSH2 0x4CE SWAP1 PUSH2 0x311F JUMP JUMPDEST DUP1 PUSH1 0x1F ADD PUSH1 0x20 DUP1 SWAP2 DIV MUL PUSH1 0x20 ADD PUSH1 0x40 MLOAD SWAP1 DUP2 ADD PUSH1 0x40 MSTORE DUP1 SWAP3 SWAP2 SWAP1 DUP2 DUP2 MSTORE PUSH1 0x20 ADD DUP3 DUP1 SLOAD PUSH2 0x4FA SWAP1 PUSH2 0x311F JUMP JUMPDEST DUP1 ISZERO PUSH2 0x545 JUMPI DUP1 PUSH1 0x1F LT PUSH2 0x51C JUMPI PUSH2 0x100 DUP1 DUP4 SLOAD DIV MUL DUP4 MSTORE SWAP2 PUSH1 0x20 ADD SWAP2 PUSH2 0x545 JUMP JUMPDEST DUP3 ADD SWAP2 SWAP1 PUSH0 MSTORE PUSH1 0x20 PUSH0 KECCAK256 SWAP1 JUMPDEST DUP2 SLOAD DUP2 MSTORE SWAP1 PUSH1 0x1 ADD SWAP1 PUSH1 0x20 ADD DUP1 DUP4 GT PUSH2 0x528 JUMPI DUP3 SWAP1 SUB PUSH1 0x1F AND DUP3 ADD SWAP2 JUMPDEST POP POP POP POP POP SWAP1 POP SWAP1 JUMP JUMPDEST PUSH0 PUSH0 PUSH2 0x559 PUSH2 0x1B58 JUMP JUMPDEST SWAP1 POP PUSH2 0x566 DUP2 DUP6 DUP6 PUSH2 0x1B5F JUMP JUMPDEST PUSH1 0x1 SWAP2 POP POP SWAP3 SWAP2 POP POP JUMP JUMPDEST PUSH0 PUSH1 0x2 SLOAD SWAP1 POP SWAP1 JUMP JUMPDEST PUSH1 0x7 SLOAD DUP2 JUMP JUMPDEST PUSH0 PUSH0 PUSH2 0x58A PUSH2 0x1B58 JUMP JUMPDEST SWAP1 POP PUSH2 0x597 DUP6 DUP3 DUP6 PUSH2 0x1B71 JUMP JUMPDEST PUSH2 0x5A2 DUP6 DUP6 DUP6 PUSH2 0x1C04 JUMP JUMPDEST PUSH1 0x1 SWAP2 POP POP SWAP4 SWAP3 POP POP POP JUMP JUMPDEST PUSH0 PUSH1 0x12 SWAP1 POP SWAP1 JUMP JUMPDEST PUSH1 0x60 PUSH0 TIMESTAMP SWAP1 POP PUSH0 DUP9 GT DUP1 ISZERO PUSH2 0x5CA JUMPI POP PUSH0 DUP8 GT JUMPDEST DUP1 ISZERO PUSH2 0x5D9 JUMPI POP PUSH1 0x2 DUP7 DUP7 SWAP1 POP EQ JUMPDEST PUSH2 0x618 JUMPI PUSH1 0x40 MLOAD PUSH32 0x8C379A000000000000000000000000000000000000000000000000000000000 DUP2 MSTORE PUSH1 0x4 ADD PUSH2 0x60F SWAP1 PUSH2 0x2FD6 JUMP JUMPDEST PUSH1 0x40 MLOAD DUP1 SWAP2 SUB SWAP1 REVERT JUMPDEST PUSH0 PUSH20 0xFFFFFFFFFFFFFFFFFFFFFFFFFFFFFFFFFFFFFFFF AND DUP7 DUP7 PUSH0 DUP2 DUP2 LT PUSH2 0x642 JUMPI PUSH2 0x641 PUSH2 0x314F JUMP JUMPDEST JUMPDEST SWAP1 POP PUSH1 0x20 MUL ADD PUSH1 0x20 DUP2 ADD SWAP1 PUSH2 0x657 SWAP2 SWAP1 PUSH2 0x2D51 JUMP JUMPDEST PUSH20 0xFFFFFFFFFFFFFFFFFFFFFFFFFFFFFFFFFFFFFFFF AND EQ ISZERO DUP1 ISZERO PUSH2 0x6CF JUMPI POP PUSH0 PUSH20 0xFFFFFFFFFFFFFFFFFFFFFFFFFFFFFFFFFFFFFFFF AND DUP7 DUP7 PUSH1 0x1 DUP2 DUP2 LT PUSH2 0x6A1 JUMPI PUSH2 0x6A0 PUSH2 0x314F JUMP JUMPDEST JUMPDEST SWAP1 POP PUSH1 0x20 MUL ADD PUSH1 0x20 DUP2 ADD SWAP1 PUSH2 0x6B6 SWAP2 SWAP1 PUSH2 0x2D51 JUMP JUMPDEST PUSH20 0xFFFFFFFFFFFFFFFFFFFFFFFFFFFFFFFFFFFFFFFF AND EQ ISZERO JUMPDEST PUSH2 0x70E JUMPI PUSH1 0x40 MLOAD PUSH32 0x8C379A000000000000000000000000000000000000000000000000000000000 DUP2 MSTORE PUSH1 0x4 ADD PUSH2 0x705 SWAP1 PUSH2 0x31C6 JUMP JUMPDEST PUSH1 0x40 MLOAD DUP1 SWAP2 SUB SWAP1 REVERT JUMPDEST PUSH0 PUSH20 0xFFFFFFFFFFFFFFFFFFFFFFFFFFFFFFFFFFFFFFFF AND DUP5 PUSH20 0xFFFFFFFFFFFFFFFFFFFFFFFFFFFFFFFFFFFFFFFF AND SUB PUSH2 0x77C JUMPI PUSH1 0x40 MLOAD PUSH32 0x8C379A000000000000000000000000000000000000000000000000000000000 DUP2 MSTORE PUSH1 0x4 ADD PUSH2 0x773 SWAP1 PUSH2 0x322E JUMP JUMPDEST PUSH1 0x40 MLOAD DUP1 SWAP2 SUB SWAP1 REVERT JUMPDEST PUSH0 PUSH1 0x40 MLOAD PUSH1 0x20 ADD PUSH2 0x78C SWAP1 PUSH2 0x32A0 JUMP JUMPDEST PUSH1 0x40 MLOAD PUSH1 0x20 DUP2 DUP4 SUB SUB DUP2 MSTORE SWAP1 PUSH1 0x40 MSTORE DUP1 MLOAD SWAP1 PUSH1 0x20 ADD KECCAK256 DUP8 DUP8 PUSH0 DUP2 DUP2 LT PUSH2 0x7B5 JUMPI PUSH2 0x7B4 PUSH2 0x314F JUMP JUMPDEST JUMPDEST SWAP1 POP PUSH1 0x20 MUL ADD PUSH1 0x20 DUP2 ADD SWAP1 PUSH2 0x7CA SWAP2 SWAP1 PUSH2 0x2D51 JUMP JUMPDEST PUSH20 0xFFFFFFFFFFFFFFFFFFFFFFFFFFFFFFFFFFFFFFFF AND PUSH4 0x95D89B41 PUSH1 0x40 MLOAD DUP2 PUSH4 0xFFFFFFFF AND PUSH1 0xE0 SHL DUP2 MSTORE PUSH1 0x4 ADD PUSH0 PUSH1 0x40 MLOAD DUP1 DUP4 SUB DUP2 DUP7 GAS STATICCALL ISZERO DUP1 ISZERO PUSH2 0x811 JUMPI RETURNDATASIZE PUSH0 PUSH0 RETURNDATACOPY RETURNDATASIZE PUSH0 REVERT JUMPDEST POP POP POP POP PUSH1 0x40 MLOAD RETURNDATASIZE PUSH0 DUP3 RETURNDATACOPY RETURNDATASIZE PUSH1 0x1F NOT PUSH1 0x1F DUP3 ADD AND DUP3 ADD DUP1 PUSH1 0x40 MSTORE POP DUP2 ADD SWAP1 PUSH2 0x839 SWAP2 SWAP1 PUSH2 0x33CE JUMP JUMPDEST PUSH1 0x40 MLOAD PUSH1 0x20 ADD PUSH2 0x849 SWAP2 SWAP1 PUSH2 0x3445 JUMP JUMPDEST PUSH1 0x40 MLOAD PUSH1 0x20 DUP2 DUP4 SUB SUB DUP2 MSTORE SWAP1 PUSH1 0x40 MSTORE DUP1 MLOAD SWAP1 PUSH1 0x20 ADD KECCAK256 EQ SWAP1 POP PUSH0 ADDRESS PUSH20 0xFFFFFFFFFFFFFFFFFFFFFFFFFFFFFFFFFFFFFFFF AND PUSH4 0x54D50D4 DUP12 DUP5 PUSH2 0x88D JUMPI PUSH1 0x7 SLOAD PUSH2 0x891 JUMP JUMPDEST PUSH1 0x6 SLOAD JUMPDEST DUP6 PUSH2 0x89E JUMPI PUSH1 0x6 SLOAD PUSH2 0x8A2 JUMP JUMPDEST PUSH1 0x7 SLOAD JUMPDEST PUSH1 0x40 MLOAD DUP5 PUSH4 0xFFFFFFFF AND PUSH1 0xE0 SHL DUP2 MSTORE PUSH1 0x4 ADD PUSH2 0x8C0 SWAP4 SWAP3 SWAP2 SWAP1 PUSH2 0x2F57 JUMP JUMPDEST PUSH1 0x20 PUSH1 0x40 MLOAD DUP1 DUP4 SUB DUP2 DUP7 GAS STATICCALL ISZERO DUP1 ISZERO PUSH2 0x8DB JUMPI RETURNDATASIZE PUSH0 PUSH0 RETURNDATACOPY RETURNDATASIZE PUSH0 REVERT JUMPDEST POP POP POP POP PUSH1 0x40 MLOAD RETURNDATASIZE PUSH1 0x1F NOT PUSH1 0x1F DUP3 ADD AND DUP3 ADD DUP1 PUSH1 0x40 MSTORE POP DUP2 ADD SWAP1 PUSH2 0x8FF SWAP2 SWAP1 PUSH2 0x346F JUMP JUMPDEST SWAP1 POP DUP9 DUP2 LT ISZERO PUSH2 0x944 JUMPI PUSH1 0x40 MLOAD PUSH32 0x8C379A000000000000000000000000000000000000000000000000000000000 DUP2 MSTORE PUSH1 0x4 ADD PUSH2 0x93B SWAP1 PUSH2 0x34E4 JUMP JUMPDEST PUSH1 0x40 MLOAD DUP1 SWAP2 SUB SWAP1 REVERT JUMPDEST DUP10 DUP9 DUP9 PUSH0 DUP2 DUP2 LT PUSH2 0x958 JUMPI PUSH2 0x957 PUSH2 0x314F JUMP JUMPDEST JUMPDEST SWAP1 POP PUSH1 0x20 MUL ADD PUSH1 0x20 DUP2 ADD SWAP1 PUSH2 0x96D SWAP2 SWAP1 PUSH2 0x2D51 JUMP JUMPDEST PUSH20 0xFFFFFFFFFFFFFFFFFFFFFFFFFFFFFFFFFFFFFFFF AND PUSH4 0x70A08231 CALLER PUSH1 0x40 MLOAD DUP3 PUSH4 0xFFFFFFFF AND PUSH1 0xE0 SHL DUP2 MSTORE PUSH1 0x4 ADD PUSH2 0x9A5 SWAP2 SWAP1 PUSH2 0x2D8B JUMP JUMPDEST PUSH1 0x20 PUSH1 0x40 MLOAD DUP1 DUP4 SUB DUP2 DUP7 GAS STATICCALL ISZERO DUP1 ISZERO PUSH2 0x9C0 JUMPI RETURNDATASIZE PUSH0 PUSH0 RETURNDATACOPY RETURNDATASIZE PUSH0 REVERT JUMPDEST POP POP POP POP PUSH1 0x40 MLOAD RETURNDATASIZE PUSH1 0x1F NOT PUSH1 0x1F DUP3 ADD AND DUP3 ADD DUP1 PUSH1 0x40 MSTORE POP DUP2 ADD SWAP1 PUSH2 0x9E4 SWAP2 SWAP1 PUSH2 0x346F JUMP JUMPDEST LT ISZERO PUSH2 0xA25 JUMPI PUSH1 0x40 MLOAD PUSH32 0x8C379A000000000000000000000000000000000000000000000000000000000 DUP2 MSTORE PUSH1 0x4 ADD PUSH2 0xA1C SWAP1 PUSH2 0x354C JUMP JUMPDEST PUSH1 0x40 MLOAD DUP1 SWAP2 SUB SWAP1 REVERT JUMPDEST DUP1 DUP9 DUP9 PUSH1 0x1 DUP2 DUP2 LT PUSH2 0xA3A JUMPI PUSH2 0xA39 PUSH2 0x314F JUMP JUMPDEST JUMPDEST SWAP1 POP PUSH1 0x20 MUL ADD PUSH1 0x20 DUP2 ADD SWAP1 PUSH2 0xA4F SWAP2 SWAP1 PUSH2 0x2D51 JUMP JUMPDEST PUSH20 0xFFFFFFFFFFFFFFFFFFFFFFFFFFFFFFFFFFFFFFFF AND PUSH4 0x70A08231 ADDRESS PUSH1 0x40 MLOAD DUP3 PUSH4 0xFFFFFFFF AND PUSH1 0xE0 SHL DUP2 MSTORE PUSH1 0x4 ADD PUSH2 0xA87 SWAP2 SWAP1 PUSH2 0x2D8B JUMP JUMPDEST PUSH1 0x20 PUSH1 0x40 MLOAD DUP1 DUP4 SUB DUP2 DUP7 GAS STATICCALL ISZERO DUP1 ISZERO PUSH2 0xAA2 JUMPI RETURNDATASIZE PUSH0 PUSH0 RETURNDATACOPY RETURNDATASIZE PUSH0 REVERT JUMPDEST POP POP POP POP PUSH1 0x40 MLOAD RETURNDATASIZE PUSH1 0x1F NOT PUSH1 0x1F DUP3 ADD AND DUP3 ADD DUP1 PUSH1 0x40 MSTORE POP DUP2 ADD SWAP1 PUSH2 0xAC6 SWAP2 SWAP1 PUSH2 0x346F JUMP JUMPDEST LT ISZERO PUSH2 0xB07 JUMPI PUSH1 0x40 MLOAD PUSH32 0x8C379A000000000000000000000000000000000000000000000000000000000 DUP2 MSTORE PUSH1 0x4 ADD PUSH2 0xAFE SWAP1 PUSH2 0x354C JUMP JUMPDEST PUSH1 0x40 MLOAD DUP1 SWAP2 SUB SWAP1 REVERT JUMPDEST DUP2 ISZERO PUSH2 0xB42 JUMPI DUP10 PUSH1 0x6 PUSH0 DUP3 DUP3 SLOAD PUSH2 0xB1E SWAP2 SWAP1 PUSH2 0x3021 JUMP JUMPDEST SWAP3 POP POP DUP2 SWAP1 SSTORE POP DUP1 PUSH1 0x7 PUSH0 DUP3 DUP3 SLOAD PUSH2 0xB36 SWAP2 SWAP1 PUSH2 0x356A JUMP JUMPDEST SWAP3 POP POP DUP2 SWAP1 SSTORE POP PUSH2 0xB73 JUMP JUMPDEST DUP10 PUSH1 0x6 PUSH0 DUP3 DUP3 SLOAD PUSH2 0xB53 SWAP2 SWAP1 PUSH2 0x356A JUMP JUMPDEST SWAP3 POP POP DUP2 SWAP1 SSTORE POP DUP1 PUSH1 0x7 PUSH0 DUP3 DUP3 SLOAD PUSH2 0xB6B SWAP2 SWAP1 PUSH2 0x3021 JUMP JUMPDEST SWAP3 POP POP DUP2 SWAP1 SSTORE POP JUMPDEST DUP8 DUP8 PUSH0 DUP2 DUP2 LT PUSH2 0xB86 JUMPI PUSH2 0xB85 PUSH2 0x314F JUMP JUMPDEST JUMPDEST SWAP1 POP PUSH1 0x20 MUL ADD PUSH1 0x20 DUP2 ADD SWAP1 PUSH2 0xB9B SWAP2 SWAP1 PUSH2 0x2D51 JUMP JUMPDEST PUSH20 0xFFFFFFFFFFFFFFFFFFFFFFFFFFFFFFFFFFFFFFFF AND PUSH4 0x23B872DD CALLER ADDRESS DUP14 PUSH1 0x40 MLOAD DUP5 PUSH4 0xFFFFFFFF AND PUSH1 0xE0 SHL DUP2 MSTORE PUSH1 0x4 ADD PUSH2 0xBD7 SWAP4 SWAP3 SWAP2 SWAP1 PUSH2 0x359D JUMP JUMPDEST PUSH1 0x20 PUSH1 0x40 MLOAD DUP1 DUP4 SUB DUP2 PUSH0 DUP8 GAS CALL ISZERO DUP1 ISZERO PUSH2 0xBF3 JUMPI RETURNDATASIZE PUSH0 PUSH0 RETURNDATACOPY RETURNDATASIZE PUSH0 REVERT JUMPDEST POP POP POP POP PUSH1 0x40 MLOAD RETURNDATASIZE PUSH1 0x1F NOT PUSH1 0x1F DUP3 ADD AND DUP3 ADD DUP1 PUSH1 0x40 MSTORE POP DUP2 ADD SWAP1 PUSH2 0xC17 SWAP2 SWAP1 PUSH2 0x35FC JUMP JUMPDEST POP DUP8 DUP8 PUSH1 0x1 DUP2 DUP2 LT PUSH2 0xC2C JUMPI PUSH2 0xC2B PUSH2 0x314F JUMP JUMPDEST JUMPDEST SWAP1 POP PUSH1 0x20 MUL ADD PUSH1 0x20 DUP2 ADD SWAP1 PUSH2 0xC41 SWAP2 SWAP1 PUSH2 0x2D51 JUMP JUMPDEST PUSH20 0xFFFFFFFFFFFFFFFFFFFFFFFFFFFFFFFFFFFFFFFF AND PUSH4 0xA9059CBB CALLER DUP4 PUSH1 0x40 MLOAD DUP4 PUSH4 0xFFFFFFFF AND PUSH1 0xE0 SHL DUP2 MSTORE PUSH1 0x4 ADD PUSH2 0xC7B SWAP3 SWAP2 SWAP1 PUSH2 0x3627 JUMP JUMPDEST PUSH1 0x20 PUSH1 0x40 MLOAD DUP1 DUP4 SUB DUP2 PUSH0 DUP8 GAS CALL ISZERO DUP1 ISZERO PUSH2 0xC97 JUMPI RETURNDATASIZE PUSH0 PUSH0 RETURNDATACOPY RETURNDATASIZE PUSH0 REVERT JUMPDEST POP POP POP POP PUSH1 0x40 MLOAD RETURNDATASIZE PUSH1 0x1F NOT PUSH1 0x1F DUP3 ADD AND DUP3 ADD DUP1 PUSH1 0x40 MSTORE POP DUP2 ADD SWAP1 PUSH2 0xCBB SWAP2 SWAP1 PUSH2 0x35FC JUMP JUMPDEST POP PUSH1 0x2 PUSH8 0xFFFFFFFFFFFFFFFF DUP2 GT ISZERO PUSH2 0xCD7 JUMPI PUSH2 0xCD6 PUSH2 0x32B8 JUMP JUMPDEST JUMPDEST PUSH1 0x40 MLOAD SWAP1 DUP1 DUP3 MSTORE DUP1 PUSH1 0x20 MUL PUSH1 0x20 ADD DUP3 ADD PUSH1 0x40 MSTORE DUP1 ISZERO PUSH2 0xD05 JUMPI DUP2 PUSH1 0x20 ADD PUSH1 0x20 DUP3 MUL DUP1 CALLDATASIZE DUP4 CALLDATACOPY DUP1 DUP3 ADD SWAP2 POP POP SWAP1 POP JUMPDEST POP SWAP4 POP DUP10 DUP5 PUSH0 DUP2 MLOAD DUP2 LT PUSH2 0xD1C JUMPI PUSH2 0xD1B PUSH2 0x314F JUMP JUMPDEST JUMPDEST PUSH1 0x20 MUL PUSH1 0x20 ADD ADD DUP2 DUP2 MSTORE POP POP DUP1 DUP5 PUSH1 0x1 DUP2 MLOAD DUP2 LT PUSH2 0xD3D JUMPI PUSH2 0xD3C PUSH2 0x314F JUMP JUMPDEST JUMPDEST PUSH1 0x20 MUL PUSH1 0x20 ADD ADD DUP2 DUP2 MSTORE POP POP DUP3 TIMESTAMP PUSH2 0xD55 SWAP2 SWAP1 PUSH2 0x356A JUMP JUMPDEST DUP6 GT PUSH2 0xD96 JUMPI PUSH1 0x40 MLOAD PUSH32 0x8C379A000000000000000000000000000000000000000000000000000000000 DUP2 MSTORE PUSH1 0x4 ADD PUSH2 0xD8D SWAP1 PUSH2 0x3698 JUMP JUMPDEST PUSH1 0x40 MLOAD DUP1 SWAP2 SUB SWAP1 REVERT JUMPDEST POP POP POP SWAP7 SWAP6 POP POP POP POP POP POP JUMP JUMPDEST PUSH2 0xDAB PUSH2 0x1CF4 JUMP JUMPDEST PUSH2 0xDB3 PUSH2 0x1D7B JUMP JUMPDEST JUMP JUMPDEST PUSH0 PUSH1 0x5 PUSH0 SWAP1 SLOAD SWAP1 PUSH2 0x100 EXP SWAP1 DIV PUSH1 0xFF AND SWAP1 POP SWAP1 JUMP JUMPDEST PUSH0 PUSH0 PUSH0 DUP4 PUSH20 0xFFFFFFFFFFFFFFFFFFFFFFFFFFFFFFFFFFFFFFFF AND PUSH20 0xFFFFFFFFFFFFFFFFFFFFFFFFFFFFFFFFFFFFFFFF AND DUP2 MSTORE PUSH1 0x20 ADD SWAP1 DUP2 MSTORE PUSH1 0x20 ADD PUSH0 KECCAK256 SLOAD SWAP1 POP SWAP2 SWAP1 POP JUMP JUMPDEST PUSH2 0xE17 PUSH2 0x1CF4 JUMP JUMPDEST PUSH2 0xE20 PUSH0 PUSH2 0x1DDC JUMP JUMPDEST JUMP JUMPDEST PUSH2 0xE2A PUSH2 0x1CF4 JUMP JUMPDEST PUSH2 0xE32 PUSH2 0x1EA1 JUMP JUMPDEST JUMP JUMPDEST PUSH0 PUSH1 0x5 PUSH1 0x1 SWAP1 SLOAD SWAP1 PUSH2 0x100 EXP SWAP1 DIV PUSH20 0xFFFFFFFFFFFFFFFFFFFFFFFFFFFFFFFFFFFFFFFF AND SWAP1 POP SWAP1 JUMP JUMPDEST PUSH1 0x60 PUSH1 0x4 DUP1 SLOAD PUSH2 0xE6C SWAP1 PUSH2 0x311F JUMP JUMPDEST DUP1 PUSH1 0x1F ADD PUSH1 0x20 DUP1 SWAP2 DIV MUL PUSH1 0x20 ADD PUSH1 0x40 MLOAD SWAP1 DUP2 ADD PUSH1 0x40 MSTORE DUP1 SWAP3 SWAP2 SWAP1 DUP2 DUP2 MSTORE PUSH1 0x20 ADD DUP3 DUP1 SLOAD PUSH2 0xE98 SWAP1 PUSH2 0x311F JUMP JUMPDEST DUP1 ISZERO PUSH2 0xEE3 JUMPI DUP1 PUSH1 0x1F LT PUSH2 0xEBA JUMPI PUSH2 0x100 DUP1 DUP4 SLOAD DIV MUL DUP4 MSTORE SWAP2 PUSH1 0x20 ADD SWAP2 PUSH2 0xEE3 JUMP JUMPDEST DUP3 ADD SWAP2 SWAP1 PUSH0 MSTORE PUSH1 0x20 PUSH0 KECCAK256 SWAP1 JUMPDEST DUP2 SLOAD DUP2 MSTORE SWAP1 PUSH1 0x1 ADD SWAP1 PUSH1 0x20 ADD DUP1 DUP4 GT PUSH2 0xEC6 JUMPI DUP3 SWAP1 SUB PUSH1 0x1F AND DUP3 ADD SWAP2 JUMPDEST POP POP POP POP POP SWAP1 POP SWAP1 JUMP JUMPDEST PUSH0 PUSH0 PUSH2 0xEF7 PUSH2 0x1B58 JUMP JUMPDEST SWAP1 POP PUSH2 0xF04 DUP2 DUP6 DUP6 PUSH2 0x1C04 JUMP JUMPDEST PUSH1 0x1 SWAP2 POP POP SWAP3 SWAP2 POP POP JUMP JUMPDEST PUSH0 PUSH0 PUSH20 0xFFFFFFFFFFFFFFFFFFFFFFFFFFFFFFFFFFFFFFFF AND DUP4 PUSH20 0xFFFFFFFFFFFFFFFFFFFFFFFFFFFFFFFFFFFFFFFF AND EQ ISZERO DUP1 ISZERO PUSH2 0xF78 JUMPI POP PUSH0 PUSH20 0xFFFFFFFFFFFFFFFFFFFFFFFFFFFFFFFFFFFFFFFF AND DUP3 PUSH20 0xFFFFFFFFFFFFFFFFFFFFFFFFFFFFFFFFFFFFFFFF AND EQ ISZERO JUMPDEST PUSH2 0xFB7 JUMPI PUSH1 0x40 MLOAD PUSH32 0x8C379A000000000000000000000000000000000000000000000000000000000 DUP2 MSTORE PUSH1 0x4 ADD PUSH2 0xFAE SWAP1 PUSH2 0x31C6 JUMP JUMPDEST PUSH1 0x40 MLOAD DUP1 SWAP2 SUB SWAP1 REVERT JUMPDEST PUSH0 PUSH1 0x6 SLOAD GT DUP1 ISZERO PUSH2 0xFC9 JUMPI POP PUSH0 PUSH1 0x7 SLOAD GT JUMPDEST PUSH2 0x1008 JUMPI PUSH1 0x40 MLOAD PUSH32 0x8C379A000000000000000000000000000000000000000000000000000000000 DUP2 MSTORE PUSH1 0x4 ADD PUSH2 0xFFF SWAP1 PUSH2 0x3700 JUMP JUMPDEST PUSH1 0x40 MLOAD DUP1 SWAP2 SUB SWAP1 REVERT JUMPDEST PUSH1 0x6 SLOAD PUSH8 0xDE0B6B3A7640000 PUSH1 0x7 SLOAD PUSH2 0x1021 SWAP2 SWAP1 PUSH2 0x3054 JUMP JUMPDEST PUSH2 0x102B SWAP2 SWAP1 PUSH2 0x30C2 JUMP JUMPDEST SWAP1 POP SWAP3 SWAP2 POP POP JUMP JUMPDEST PUSH0 PUSH0 PUSH0 TIMESTAMP SWAP1 POP PUSH0 PUSH20 0xFFFFFFFFFFFFFFFFFFFFFFFFFFFFFFFFFFFFFFFF AND DUP11 PUSH20 0xFFFFFFFFFFFFFFFFFFFFFFFFFFFFFFFFFFFFFFFF AND EQ ISZERO DUP1 ISZERO PUSH2 0x10A1 JUMPI POP PUSH0 PUSH20 0xFFFFFFFFFFFFFFFFFFFFFFFFFFFFFFFFFFFFFFFF AND DUP10 PUSH20 0xFFFFFFFFFFFFFFFFFFFFFFFFFFFFFFFFFFFFFFFF AND EQ ISZERO JUMPDEST PUSH2 0x10E0 JUMPI PUSH1 0x40 MLOAD PUSH32 0x8C379A000000000000000000000000000000000000000000000000000000000 DUP2 MSTORE PUSH1 0x4 ADD PUSH2 0x10D7 SWAP1 PUSH2 0x31C6 JUMP JUMPDEST PUSH1 0x40 MLOAD DUP1 SWAP2 SUB SWAP1 REVERT JUMPDEST PUSH0 PUSH20 0xFFFFFFFFFFFFFFFFFFFFFFFFFFFFFFFFFFFFFFFF AND DUP6 PUSH20 0xFFFFFFFFFFFFFFFFFFFFFFFFFFFFFFFFFFFFFFFF AND SUB PUSH2 0x114E JUMPI PUSH1 0x40 MLOAD PUSH32 0x8C379A000000000000000000000000000000000000000000000000000000000 DUP2 MSTORE PUSH1 0x4 ADD PUSH2 0x1145 SWAP1 PUSH2 0x322E JUMP JUMPDEST PUSH1 0x40 MLOAD DUP1 SWAP2 SUB SWAP1 REVERT JUMPDEST PUSH0 DUP9 GT DUP1 ISZERO PUSH2 0x115C JUMPI POP PUSH0 DUP5 GT JUMPDEST DUP1 ISZERO PUSH2 0x1167 JUMPI POP PUSH0 DUP8 GT JUMPDEST DUP1 ISZERO PUSH2 0x1172 JUMPI POP PUSH0 DUP7 GT JUMPDEST PUSH2 0x11B1 JUMPI PUSH1 0x40 MLOAD PUSH32 0x8C379A000000000000000000000000000000000000000000000000000000000 DUP2 MSTORE PUSH1 0x4 ADD PUSH2 0x11A8 SWAP1 PUSH2 0x2FD6 JUMP JUMPDEST PUSH1 0x40 MLOAD DUP1 SWAP2 SUB SWAP1 REVERT JUMPDEST DUP8 ADDRESS PUSH20 0xFFFFFFFFFFFFFFFFFFFFFFFFFFFFFFFFFFFFFFFF AND PUSH4 0x70A08231 CALLER PUSH1 0x40 MLOAD DUP3 PUSH4 0xFFFFFFFF AND PUSH1 0xE0 SHL DUP2 MSTORE PUSH1 0x4 ADD PUSH2 0x11EB SWAP2 SWAP1 PUSH2 0x2D8B JUMP JUMPDEST PUSH1 0x20 PUSH1 0x40 MLOAD DUP1 DUP4 SUB DUP2 DUP7 GAS STATICCALL ISZERO DUP1 ISZERO PUSH2 0x1206 JUMPI RETURNDATASIZE PUSH0 PUSH0 RETURNDATACOPY RETURNDATASIZE PUSH0 REVERT JUMPDEST POP POP POP POP PUSH1 0x40 MLOAD RETURNDATASIZE PUSH1 0x1F NOT PUSH1 0x1F DUP3 ADD AND DUP3 ADD DUP1 PUSH1 0x40 MSTORE POP DUP2 ADD SWAP1 PUSH2 0x122A SWAP2 SWAP1 PUSH2 0x346F JUMP JUMPDEST LT ISZERO PUSH2 0x126B JUMPI PUSH1 0x40 MLOAD PUSH32 0x8C379A000000000000000000000000000000000000000000000000000000000 DUP2 MSTORE PUSH1 0x4 ADD PUSH2 0x1262 SWAP1 PUSH2 0x3768 JUMP JUMPDEST PUSH1 0x40 MLOAD DUP1 SWAP2 SUB SWAP1 REVERT JUMPDEST PUSH2 0x1274 DUP9 PUSH2 0x1F03 JUMP JUMPDEST DUP1 SWAP4 POP DUP2 SWAP5 POP POP POP DUP7 DUP4 LT ISZERO PUSH2 0x12BF JUMPI PUSH1 0x40 MLOAD PUSH32 0x8C379A000000000000000000000000000000000000000000000000000000000 DUP2 MSTORE PUSH1 0x4 ADD PUSH2 0x12B6 SWAP1 PUSH2 0x37D0 JUMP JUMPDEST PUSH1 0x40 MLOAD DUP1 SWAP2 SUB SWAP1 REVERT JUMPDEST DUP6 DUP3 LT ISZERO PUSH2 0x1302 JUMPI PUSH1 0x40 MLOAD PUSH32 0x8C379A000000000000000000000000000000000000000000000000000000000 DUP2 MSTORE PUSH1 0x4 ADD PUSH2 0x12F9 SWAP1 PUSH2 0x3838 JUMP JUMPDEST PUSH1 0x40 MLOAD DUP1 SWAP2 SUB SWAP1 REVERT JUMPDEST DUP3 PUSH1 0x6 SLOAD LT ISZERO PUSH2 0x1347 JUMPI PUSH1 0x40 MLOAD PUSH32 0x8C379A000000000000000000000000000000000000000000000000000000000 DUP2 MSTORE PUSH1 0x4 ADD PUSH2 0x133E SWAP1 PUSH2 0x38A0 JUMP JUMPDEST PUSH1 0x40 MLOAD DUP1 SWAP2 SUB SWAP1 REVERT JUMPDEST DUP2 PUSH1 0x7 SLOAD LT ISZERO PUSH2 0x138C JUMPI PUSH1 0x40 MLOAD PUSH32 0x8C379A000000000000000000000000000000000000000000000000000000000 DUP2 MSTORE PUSH1 0x4 ADD PUSH2 0x1383 SWAP1 PUSH2 0x3908 JUMP JUMPDEST PUSH1 0x40 MLOAD DUP1 SWAP2 SUB SWAP1 REVERT JUMPDEST PUSH2 0x1396 CALLER DUP10 PUSH2 0x2018 JUMP JUMPDEST DUP3 PUSH1 0x6 PUSH0 DUP3 DUP3 SLOAD PUSH2 0x13A7 SWAP2 SWAP1 PUSH2 0x356A JUMP JUMPDEST SWAP3 POP POP DUP2 SWAP1 SSTORE POP DUP2 PUSH1 0x7 PUSH0 DUP3 DUP3 SLOAD PUSH2 0x13BF SWAP2 SWAP1 PUSH2 0x356A JUMP JUMPDEST SWAP3 POP POP DUP2 SWAP1 SSTORE POP DUP10 PUSH20 0xFFFFFFFFFFFFFFFFFFFFFFFFFFFFFFFFFFFFFFFF AND PUSH4 0xA9059CBB DUP7 DUP6 PUSH1 0x40 MLOAD DUP4 PUSH4 0xFFFFFFFF AND PUSH1 0xE0 SHL DUP2 MSTORE PUSH1 0x4 ADD PUSH2 0x1401 SWAP3 SWAP2 SWAP1 PUSH2 0x3627 JUMP JUMPDEST PUSH1 0x20 PUSH1 0x40 MLOAD DUP1 DUP4 SUB DUP2 PUSH0 DUP8 GAS CALL ISZERO DUP1 ISZERO PUSH2 0x141D JUMPI RETURNDATASIZE PUSH0 PUSH0 RETURNDATACOPY RETURNDATASIZE PUSH0 REVERT JUMPDEST POP POP POP POP PUSH1 0x40 MLOAD RETURNDATASIZE PUSH1 0x1F NOT PUSH1 0x1F DUP3 ADD AND DUP3 ADD DUP1 PUSH1 0x40 MSTORE POP DUP2 ADD SWAP1 PUSH2 0x1441 SWAP2 SWAP1 PUSH2 0x35FC JUMP JUMPDEST POP DUP9 PUSH20 0xFFFFFFFFFFFFFFFFFFFFFFFFFFFFFFFFFFFFFFFF AND PUSH4 0xA9059CBB DUP7 DUP5 PUSH1 0x40 MLOAD DUP4 PUSH4 0xFFFFFFFF AND PUSH1 0xE0 SHL DUP2 MSTORE PUSH1 0x4 ADD PUSH2 0x147D SWAP3 SWAP2 SWAP1 PUSH2 0x3627 JUMP JUMPDEST PUSH1 0x20 PUSH1 0x40 MLOAD DUP1 DUP4 SUB DUP2 PUSH0 DUP8 GAS CALL ISZERO DUP1 ISZERO PUSH2 0x1499 JUMPI RETURNDATASIZE PUSH0 PUSH0 RETURNDATACOPY RETURNDATASIZE PUSH0 REVERT JUMPDEST POP POP POP POP PUSH1 0x40 MLOAD RETURNDATASIZE PUSH1 0x1F NOT PUSH1 0x1F DUP3 ADD AND DUP3 ADD DUP1 PUSH1 0x40 MSTORE POP DUP2 ADD SWAP1 PUSH2 0x14BD SWAP2 SWAP1 PUSH2 0x35FC JUMP JUMPDEST POP DUP1 TIMESTAMP PUSH2 0x14CA SWAP2 SWAP1 PUSH2 0x356A JUMP JUMPDEST DUP5 GT PUSH2 0x150B JUMPI PUSH1 0x40 MLOAD PUSH32 0x8C379A000000000000000000000000000000000000000000000000000000000 DUP2 MSTORE PUSH1 0x4 ADD PUSH2 0x1502 SWAP1 PUSH2 0x3698 JUMP JUMPDEST PUSH1 0x40 MLOAD DUP1 SWAP2 SUB SWAP1 REVERT JUMPDEST POP SWAP8 POP SWAP8 SWAP6 POP POP POP POP POP POP JUMP JUMPDEST PUSH1 0x6 SLOAD DUP2 JUMP JUMPDEST PUSH0 PUSH1 0x1 PUSH0 DUP5 PUSH20 0xFFFFFFFFFFFFFFFFFFFFFFFFFFFFFFFFFFFFFFFF AND PUSH20 0xFFFFFFFFFFFFFFFFFFFFFFFFFFFFFFFFFFFFFFFF AND DUP2 MSTORE PUSH1 0x20 ADD SWAP1 DUP2 MSTORE PUSH1 0x20 ADD PUSH0 KECCAK256 PUSH0 DUP4 PUSH20 0xFFFFFFFFFFFFFFFFFFFFFFFFFFFFFFFFFFFFFFFF AND PUSH20 0xFFFFFFFFFFFFFFFFFFFFFFFFFFFFFFFFFFFFFFFF AND DUP2 MSTORE PUSH1 0x20 ADD SWAP1 DUP2 MSTORE PUSH1 0x20 ADD PUSH0 KECCAK256 SLOAD SWAP1 POP SWAP3 SWAP2 POP POP JUMP JUMPDEST PUSH0 PUSH0 PUSH0 PUSH0 TIMESTAMP SWAP1 POP PUSH0 PUSH20 0xFFFFFFFFFFFFFFFFFFFFFFFFFFFFFFFFFFFFFFFF AND DUP13 PUSH20 0xFFFFFFFFFFFFFFFFFFFFFFFFFFFFFFFFFFFFFFFF AND EQ ISZERO DUP1 ISZERO PUSH2 0x160F JUMPI POP PUSH0 PUSH20 0xFFFFFFFFFFFFFFFFFFFFFFFFFFFFFFFFFFFFFFFF AND DUP12 PUSH20 0xFFFFFFFFFFFFFFFFFFFFFFFFFFFFFFFFFFFFFFFF AND EQ ISZERO JUMPDEST PUSH2 0x164E JUMPI PUSH1 0x40 MLOAD PUSH32 0x8C379A000000000000000000000000000000000000000000000000000000000 DUP2 MSTORE PUSH1 0x4 ADD PUSH2 0x1645 SWAP1 PUSH2 0x31C6 JUMP JUMPDEST PUSH1 0x40 MLOAD DUP1 SWAP2 SUB SWAP1 REVERT JUMPDEST PUSH0 PUSH20 0xFFFFFFFFFFFFFFFFFFFFFFFFFFFFFFFFFFFFFFFF AND DUP7 PUSH20 0xFFFFFFFFFFFFFFFFFFFFFFFFFFFFFFFFFFFFFFFF AND SUB PUSH2 0x16BC JUMPI PUSH1 0x40 MLOAD PUSH32 0x8C379A000000000000000000000000000000000000000000000000000000000 DUP2 MSTORE PUSH1 0x4 ADD PUSH2 0x16B3 SWAP1 PUSH2 0x322E JUMP JUMPDEST PUSH1 0x40 MLOAD DUP1 SWAP2 SUB SWAP1 REVERT JUMPDEST PUSH0 DUP11 GT DUP1 ISZERO PUSH2 0x16CA JUMPI POP PUSH0 DUP10 GT JUMPDEST DUP1 ISZERO PUSH2 0x16D5 JUMPI POP PUSH0 DUP6 GT JUMPDEST DUP1 ISZERO PUSH2 0x16E0 JUMPI POP PUSH0 DUP9 GT JUMPDEST DUP1 ISZERO PUSH2 0x16EB JUMPI POP PUSH0 DUP8 GT JUMPDEST PUSH2 0x172A JUMPI PUSH1 0x40 MLOAD PUSH32 0x8C379A000000000000000000000000000000000000000000000000000000000 DUP2 MSTORE PUSH1 0x4 ADD PUSH2 0x1721 SWAP1 PUSH2 0x2FD6 JUMP JUMPDEST PUSH1 0x40 MLOAD DUP1 SWAP2 SUB SWAP1 REVERT JUMPDEST PUSH2 0x1734 DUP11 DUP11 PUSH2 0x2097 JUMP JUMPDEST DUP1 SWAP5 POP DUP2 SWAP6 POP POP POP DUP8 DUP5 LT ISZERO PUSH2 0x177F JUMPI PUSH1 0x40 MLOAD PUSH32 0x8C379A000000000000000000000000000000000000000000000000000000000 DUP2 MSTORE PUSH1 0x4 ADD PUSH2 0x1776 SWAP1 PUSH2 0x37D0 JUMP JUMPDEST PUSH1 0x40 MLOAD DUP1 SWAP2 SUB SWAP1 REVERT JUMPDEST DUP7 DUP4 LT ISZERO PUSH2 0x17C2 JUMPI PUSH1 0x40 MLOAD PUSH32 0x8C379A000000000000000000000000000000000000000000000000000000000 DUP2 MSTORE PUSH1 0x4 ADD PUSH2 0x17B9 SWAP1 PUSH2 0x3838 JUMP JUMPDEST PUSH1 0x40 MLOAD DUP1 SWAP2 SUB SWAP1 REVERT JUMPDEST DUP4 DUP13 PUSH20 0xFFFFFFFFFFFFFFFFFFFFFFFFFFFFFFFFFFFFFFFF AND PUSH4 0x70A08231 CALLER PUSH1 0x40 MLOAD DUP3 PUSH4 0xFFFFFFFF AND PUSH1 0xE0 SHL DUP2 MSTORE PUSH1 0x4 ADD PUSH2 0x17FC SWAP2 SWAP1 PUSH2 0x2D8B JUMP JUMPDEST PUSH1 0x20 PUSH1 0x40 MLOAD DUP1 DUP4 SUB DUP2 DUP7 GAS STATICCALL ISZERO DUP1 ISZERO PUSH2 0x1817 JUMPI RETURNDATASIZE PUSH0 PUSH0 RETURNDATACOPY RETURNDATASIZE PUSH0 REVERT JUMPDEST POP POP POP POP PUSH1 0x40 MLOAD RETURNDATASIZE PUSH1 0x1F NOT PUSH1 0x1F DUP3 ADD AND DUP3 ADD DUP1 PUSH1 0x40 MSTORE POP DUP2 ADD SWAP1 PUSH2 0x183B SWAP2 SWAP1 PUSH2 0x346F JUMP JUMPDEST LT ISZERO PUSH2 0x187C JUMPI PUSH1 0x40 MLOAD PUSH32 0x8C379A000000000000000000000000000000000000000000000000000000000 DUP2 MSTORE PUSH1 0x4 ADD PUSH2 0x1873 SWAP1 PUSH2 0x3970 JUMP JUMPDEST PUSH1 0x40 MLOAD DUP1 SWAP2 SUB SWAP1 REVERT JUMPDEST DUP3 DUP12 PUSH20 0xFFFFFFFFFFFFFFFFFFFFFFFFFFFFFFFFFFFFFFFF AND PUSH4 0x70A08231 CALLER PUSH1 0x40 MLOAD DUP3 PUSH4 0xFFFFFFFF AND PUSH1 0xE0 SHL DUP2 MSTORE PUSH1 0x4 ADD PUSH2 0x18B6 SWAP2 SWAP1 PUSH2 0x2D8B JUMP JUMPDEST PUSH1 0x20 PUSH1 0x40 MLOAD DUP1 DUP4 SUB DUP2 DUP7 GAS STATICCALL ISZERO DUP1 ISZERO PUSH2 0x18D1 JUMPI RETURNDATASIZE PUSH0 PUSH0 RETURNDATACOPY RETURNDATASIZE PUSH0 REVERT JUMPDEST POP POP POP POP PUSH1 0x40 MLOAD RETURNDATASIZE PUSH1 0x1F NOT PUSH1 0x1F DUP3 ADD AND DUP3 ADD DUP1 PUSH1 0x40 MSTORE POP DUP2 ADD SWAP1 PUSH2 0x18F5 SWAP2 SWAP1 PUSH2 0x346F JUMP JUMPDEST LT ISZERO PUSH2 0x1936 JUMPI PUSH1 0x40 MLOAD PUSH32 0x8C379A000000000000000000000000000000000000000000000000000000000 DUP2 MSTORE PUSH1 0x4 ADD PUSH2 0x192D SWAP1 PUSH2 0x39D8 JUMP JUMPDEST PUSH1 0x40 MLOAD DUP1 SWAP2 SUB SWAP1 REVERT JUMPDEST DUP12 PUSH20 0xFFFFFFFFFFFFFFFFFFFFFFFFFFFFFFFFFFFFFFFF AND PUSH4 0x23B872DD CALLER ADDRESS DUP8 PUSH1 0x40 MLOAD DUP5 PUSH4 0xFFFFFFFF AND PUSH1 0xE0 SHL DUP2 MSTORE PUSH1 0x4 ADD PUSH2 0x1973 SWAP4 SWAP3 SWAP2 SWAP1 PUSH2 0x359D JUMP JUMPDEST PUSH1 0x20 PUSH1 0x40 MLOAD DUP1 DUP4 SUB DUP2 PUSH0 DUP8 GAS CALL ISZERO DUP1 ISZERO PUSH2 0x198F JUMPI RETURNDATASIZE PUSH0 PUSH0 RETURNDATACOPY RETURNDATASIZE PUSH0 REVERT JUMPDEST POP POP POP POP PUSH1 0x40 MLOAD RETURNDATASIZE PUSH1 0x1F NOT PUSH1 0x1F DUP3 ADD AND DUP3 ADD DUP1 PUSH1 0x40 MSTORE POP DUP2 ADD SWAP1 PUSH2 0x19B3 SWAP2 SWAP1 PUSH2 0x35FC JUMP JUMPDEST POP DUP11 PUSH20 0xFFFFFFFFFFFFFFFFFFFFFFFFFFFFFFFFFFFFFFFF AND PUSH4 0x23B872DD CALLER ADDRESS DUP7 PUSH1 0x40 MLOAD DUP5 PUSH4 0xFFFFFFFF AND PUSH1 0xE0 SHL DUP2 MSTORE PUSH1 0x4 ADD PUSH2 0x19F1 SWAP4 SWAP3 SWAP2 SWAP1 PUSH2 0x359D JUMP JUMPDEST PUSH1 0x20 PUSH1 0x40 MLOAD DUP1 DUP4 SUB DUP2 PUSH0 DUP8 GAS CALL ISZERO DUP1 ISZERO PUSH2 0x1A0D JUMPI RETURNDATASIZE PUSH0 PUSH0 RETURNDATACOPY RETURNDATASIZE PUSH0 REVERT JUMPDEST POP POP POP POP PUSH1 0x40 MLOAD RETURNDATASIZE PUSH1 0x1F NOT PUSH1 0x1F DUP3 ADD AND DUP3 ADD DUP1 PUSH1 0x40 MSTORE POP DUP2 ADD SWAP1 PUSH2 0x1A31 SWAP2 SWAP1 PUSH2 0x35FC JUMP JUMPDEST POP PUSH2 0x1A3C DUP5 DUP5 PUSH2 0x211A JUMP JUMPDEST SWAP2 POP DUP4 PUSH1 0x6 PUSH0 DUP3 DUP3 SLOAD PUSH2 0x1A4F SWAP2 SWAP1 PUSH2 0x3021 JUMP JUMPDEST SWAP3 POP POP DUP2 SWAP1 SSTORE POP DUP3 PUSH1 0x7 PUSH0 DUP3 DUP3 SLOAD PUSH2 0x1A67 SWAP2 SWAP1 PUSH2 0x3021 JUMP JUMPDEST SWAP3 POP POP DUP2 SWAP1 SSTORE POP PUSH2 0x1A78 DUP7 DUP4 PUSH2 0x2204 JUMP JUMPDEST DUP1 TIMESTAMP PUSH2 0x1A84 SWAP2 SWAP1 PUSH2 0x356A JUMP JUMPDEST DUP6 GT PUSH2 0x1AC5 JUMPI PUSH1 0x40 MLOAD PUSH32 0x8C379A000000000000000000000000000000000000000000000000000000000 DUP2 MSTORE PUSH1 0x4 ADD PUSH2 0x1ABC SWAP1 PUSH2 0x3698 JUMP JUMPDEST PUSH1 0x40 MLOAD DUP1 SWAP2 SUB SWAP1 REVERT JUMPDEST POP SWAP9 POP SWAP9 POP SWAP9 SWAP6 POP POP POP POP POP POP JUMP JUMPDEST PUSH2 0x1ADC PUSH2 0x1CF4 JUMP JUMPDEST PUSH0 PUSH20 0xFFFFFFFFFFFFFFFFFFFFFFFFFFFFFFFFFFFFFFFF AND DUP2 PUSH20 0xFFFFFFFFFFFFFFFFFFFFFFFFFFFFFFFFFFFFFFFF AND SUB PUSH2 0x1B4C JUMPI PUSH0 PUSH1 0x40 MLOAD PUSH32 0x1E4FBDF700000000000000000000000000000000000000000000000000000000 DUP2 MSTORE PUSH1 0x4 ADD PUSH2 0x1B43 SWAP2 SWAP1 PUSH2 0x2D8B JUMP JUMPDEST PUSH1 0x40 MLOAD DUP1 SWAP2 SUB SWAP1 REVERT JUMPDEST PUSH2 0x1B55 DUP2 PUSH2 0x1DDC JUMP JUMPDEST POP JUMP JUMPDEST PUSH0 CALLER SWAP1 POP SWAP1 JUMP JUMPDEST PUSH2 0x1B6C DUP4 DUP4 DUP4 PUSH1 0x1 PUSH2 0x2283 JUMP JUMPDEST POP POP POP JUMP JUMPDEST PUSH0 PUSH2 0x1B7C DUP5 DUP5 PUSH2 0x151E JUMP JUMPDEST SWAP1 POP PUSH32 0xFFFFFFFFFFFFFFFFFFFFFFFFFFFFFFFFFFFFFFFFFFFFFFFFFFFFFFFFFFFFFFFF DUP2 LT ISZERO PUSH2 0x1BFE JUMPI DUP2 DUP2 LT ISZERO PUSH2 0x1BEF JUMPI DUP3 DUP2 DUP4 PUSH1 0x40 MLOAD PUSH32 0xFB8F41B200000000000000000000000000000000000000000000000000000000 DUP2 MSTORE PUSH1 0x4 ADD PUSH2 0x1BE6 SWAP4 SWAP3 SWAP2 SWAP1 PUSH2 0x39F6 JUMP JUMPDEST PUSH1 0x40 MLOAD DUP1 SWAP2 SUB SWAP1 REVERT JUMPDEST PUSH2 0x1BFD DUP5 DUP5 DUP5 DUP5 SUB PUSH0 PUSH2 0x2283 JUMP JUMPDEST JUMPDEST POP POP POP POP JUMP JUMPDEST PUSH0 PUSH20 0xFFFFFFFFFFFFFFFFFFFFFFFFFFFFFFFFFFFFFFFF AND DUP4 PUSH20 0xFFFFFFFFFFFFFFFFFFFFFFFFFFFFFFFFFFFFFFFF AND SUB PUSH2 0x1C74 JUMPI PUSH0 PUSH1 0x40 MLOAD PUSH32 0x96C6FD1E00000000000000000000000000000000000000000000000000000000 DUP2 MSTORE PUSH1 0x4 ADD PUSH2 0x1C6B SWAP2 SWAP1 PUSH2 0x2D8B JUMP JUMPDEST PUSH1 0x40 MLOAD DUP1 SWAP2 SUB SWAP1 REVERT JUMPDEST PUSH0 PUSH20 0xFFFFFFFFFFFFFFFFFFFFFFFFFFFFFFFFFFFFFFFF AND DUP3 PUSH20 0xFFFFFFFFFFFFFFFFFFFFFFFFFFFFFFFFFFFFFFFF AND SUB PUSH2 0x1CE4 JUMPI PUSH0 PUSH1 0x40 MLOAD PUSH32 0xEC442F0500000000000000000000000000000000000000000000000000000000 DUP2 MSTORE PUSH1 0x4 ADD PUSH2 0x1CDB SWAP2 SWAP1 PUSH2 0x2D8B JUMP JUMPDEST PUSH1 0x40 MLOAD DUP1 SWAP2 SUB SWAP1 REVERT JUMPDEST PUSH2 0x1CEF DUP4 DUP4 DUP4 PUSH2 0x2452 JUMP JUMPDEST POP POP POP JUMP JUMPDEST PUSH2 0x1CFC PUSH2 0x1B58 JUMP JUMPDEST PUSH20 0xFFFFFFFFFFFFFFFFFFFFFFFFFFFFFFFFFFFFFFFF AND PUSH2 0x1D1A PUSH2 0xE34 JUMP JUMPDEST PUSH20 0xFFFFFFFFFFFFFFFFFFFFFFFFFFFFFFFFFFFFFFFF AND EQ PUSH2 0x1D79 JUMPI PUSH2 0x1D3D PUSH2 0x1B58 JUMP JUMPDEST PUSH1 0x40 MLOAD PUSH32 0x118CDAA700000000000000000000000000000000000000000000000000000000 DUP2 MSTORE PUSH1 0x4 ADD PUSH2 0x1D70 SWAP2 SWAP1 PUSH2 0x2D8B JUMP JUMPDEST PUSH1 0x40 MLOAD DUP1 SWAP2 SUB SWAP1 REVERT JUMPDEST JUMP JUMPDEST PUSH2 0x1D83 PUSH2 0x2462 JUMP JUMPDEST PUSH0 PUSH1 0x5 PUSH0 PUSH2 0x100 EXP DUP2 SLOAD DUP2 PUSH1 0xFF MUL NOT AND SWAP1 DUP4 ISZERO ISZERO MUL OR SWAP1 SSTORE POP PUSH32 0x5DB9EE0A495BF2E6FF9C91A7834C1BA4FDD244A5E8AA4E537BD38AEAE4B073AA PUSH2 0x1DC5 PUSH2 0x1B58 JUMP JUMPDEST PUSH1 0x40 MLOAD PUSH2 0x1DD2 SWAP2 SWAP1 PUSH2 0x2D8B JUMP JUMPDEST PUSH1 0x40 MLOAD DUP1 SWAP2 SUB SWAP1 LOG1 JUMP JUMPDEST PUSH0 PUSH1 0x5 PUSH1 0x1 SWAP1 SLOAD SWAP1 PUSH2 0x100 EXP SWAP1 DIV PUSH20 0xFFFFFFFFFFFFFFFFFFFFFFFFFFFFFFFFFFFFFFFF AND SWAP1 POP DUP2 PUSH1 0x5 PUSH1 0x1 PUSH2 0x100 EXP DUP2 SLOAD DUP2 PUSH20 0xFFFFFFFFFFFFFFFFFFFFFFFFFFFFFFFFFFFFFFFF MUL NOT AND SWAP1 DUP4 PUSH20 0xFFFFFFFFFFFFFFFFFFFFFFFFFFFFFFFFFFFFFFFF AND MUL OR SWAP1 SSTORE POP DUP2 PUSH20 0xFFFFFFFFFFFFFFFFFFFFFFFFFFFFFFFFFFFFFFFF AND DUP2 PUSH20 0xFFFFFFFFFFFFFFFFFFFFFFFFFFFFFFFFFFFFFFFF AND PUSH32 0x8BE0079C531659141344CD1FD0A4F28419497F9722A3DAAFE3B4186F6B6457E0 PUSH1 0x40 MLOAD PUSH1 0x40 MLOAD DUP1 SWAP2 SUB SWAP1 LOG3 POP POP JUMP JUMPDEST PUSH2 0x1EA9 PUSH2 0x24A2 JUMP JUMPDEST PUSH1 0x1 PUSH1 0x5 PUSH0 PUSH2 0x100 EXP DUP2 SLOAD DUP2 PUSH1 0xFF MUL NOT AND SWAP1 DUP4 ISZERO ISZERO MUL OR SWAP1 SSTORE POP PUSH32 0x62E78CEA01BEE320CD4E420270B5EA74000D11B0C9F74754EBDBFC544B05A258 PUSH2 0x1EEC PUSH2 0x1B58 JUMP JUMPDEST PUSH1 0x40 MLOAD PUSH2 0x1EF9 SWAP2 SWAP1 PUSH2 0x2D8B JUMP JUMPDEST PUSH1 0x40 MLOAD DUP1 SWAP2 SUB SWAP1 LOG1 JUMP JUMPDEST PUSH0 PUSH0 ADDRESS PUSH20 0xFFFFFFFFFFFFFFFFFFFFFFFFFFFFFFFFFFFFFFFF AND PUSH4 0x18160DDD PUSH1 0x40 MLOAD DUP2 PUSH4 0xFFFFFFFF AND PUSH1 0xE0 SHL DUP2 MSTORE PUSH1 0x4 ADD PUSH1 0x20 PUSH1 0x40 MLOAD DUP1 DUP4 SUB DUP2 DUP7 GAS STATICCALL ISZERO DUP1 ISZERO PUSH2 0x1F4E JUMPI RETURNDATASIZE PUSH0 PUSH0 RETURNDATACOPY RETURNDATASIZE PUSH0 REVERT JUMPDEST POP POP POP POP PUSH1 0x40 MLOAD RETURNDATASIZE PUSH1 0x1F NOT PUSH1 0x1F DUP3 ADD AND DUP3 ADD DUP1 PUSH1 0x40 MSTORE POP DUP2 ADD SWAP1 PUSH2 0x1F72 SWAP2 SWAP1 PUSH2 0x346F JUMP JUMPDEST PUSH1 0x6 SLOAD DUP5 PUSH2 0x1F80 SWAP2 SWAP1 PUSH2 0x3054 JUMP JUMPDEST PUSH2 0x1F8A SWAP2 SWAP1 PUSH2 0x30C2 JUMP JUMPDEST ADDRESS PUSH20 0xFFFFFFFFFFFFFFFFFFFFFFFFFFFFFFFFFFFFFFFF AND PUSH4 0x18160DDD PUSH1 0x40 MLOAD DUP2 PUSH4 0xFFFFFFFF AND PUSH1 0xE0 SHL DUP2 MSTORE PUSH1 0x4 ADD PUSH1 0x20 PUSH1 0x40 MLOAD DUP1 DUP4 SUB DUP2 DUP7 GAS STATICCALL ISZERO DUP1 ISZERO PUSH2 0x1FD3 JUMPI RETURNDATASIZE PUSH0 PUSH0 RETURNDATACOPY RETURNDATASIZE PUSH0 REVERT JUMPDEST POP POP POP POP PUSH1 0x40 MLOAD RETURNDATASIZE PUSH1 0x1F NOT PUSH1 0x1F DUP3 ADD AND DUP3 ADD DUP1 PUSH1 0x40 MSTORE POP DUP2 ADD SWAP1 PUSH2 0x1FF7 SWAP2 SWAP1 PUSH2 0x346F JUMP JUMPDEST PUSH1 0x7 SLOAD DUP6 PUSH2 0x2005 SWAP2 SWAP1 PUSH2 0x3054 JUMP JUMPDEST PUSH2 0x200F SWAP2 SWAP1 PUSH2 0x30C2 JUMP JUMPDEST SWAP2 POP SWAP2 POP SWAP2 POP SWAP2 JUMP JUMPDEST PUSH0 PUSH20 0xFFFFFFFFFFFFFFFFFFFFFFFFFFFFFFFFFFFFFFFF AND DUP3 PUSH20 0xFFFFFFFFFFFFFFFFFFFFFFFFFFFFFFFFFFFFFFFF AND SUB PUSH2 0x2088 JUMPI PUSH0 PUSH1 0x40 MLOAD PUSH32 0x96C6FD1E00000000000000000000000000000000000000000000000000000000 DUP2 MSTORE PUSH1 0x4 ADD PUSH2 0x207F SWAP2 SWAP1 PUSH2 0x2D8B JUMP JUMPDEST PUSH1 0x40 MLOAD DUP1 SWAP2 SUB SWAP1 REVERT JUMPDEST PUSH2 0x2093 DUP3 PUSH0 DUP4 PUSH2 0x2452 JUMP JUMPDEST POP POP JUMP JUMPDEST PUSH0 PUSH0 PUSH0 PUSH1 0x6 SLOAD EQ DUP1 ISZERO PUSH2 0x20AB JUMPI POP PUSH0 PUSH1 0x7 SLOAD EQ JUMPDEST ISZERO PUSH2 0x20BB JUMPI DUP4 DUP4 SWAP2 POP SWAP2 POP PUSH2 0x2113 JUMP JUMPDEST PUSH0 PUSH1 0x6 SLOAD PUSH1 0x7 SLOAD DUP7 PUSH2 0x20CD SWAP2 SWAP1 PUSH2 0x3054 JUMP JUMPDEST PUSH2 0x20D7 SWAP2 SWAP1 PUSH2 0x30C2 JUMP JUMPDEST SWAP1 POP DUP4 DUP2 GT PUSH2 0x20EC JUMPI DUP5 DUP2 SWAP3 POP SWAP3 POP POP PUSH2 0x2113 JUMP JUMPDEST PUSH0 PUSH1 0x7 SLOAD PUSH1 0x6 SLOAD DUP7 PUSH2 0x20FE SWAP2 SWAP1 PUSH2 0x3054 JUMP JUMPDEST PUSH2 0x2108 SWAP2 SWAP1 PUSH2 0x30C2 JUMP JUMPDEST SWAP1 POP DUP1 DUP6 SWAP4 POP SWAP4 POP POP POP JUMPDEST SWAP3 POP SWAP3 SWAP1 POP JUMP JUMPDEST PUSH0 PUSH0 ADDRESS PUSH20 0xFFFFFFFFFFFFFFFFFFFFFFFFFFFFFFFFFFFFFFFF AND PUSH4 0x18160DDD PUSH1 0x40 MLOAD DUP2 PUSH4 0xFFFFFFFF AND PUSH1 0xE0 SHL DUP2 MSTORE PUSH1 0x4 ADD PUSH1 0x20 PUSH1 0x40 MLOAD DUP1 DUP4 SUB DUP2 DUP7 GAS STATICCALL ISZERO DUP1 ISZERO PUSH2 0x2165 JUMPI RETURNDATASIZE PUSH0 PUSH0 RETURNDATACOPY RETURNDATASIZE PUSH0 REVERT JUMPDEST POP POP POP POP PUSH1 0x40 MLOAD RETURNDATASIZE PUSH1 0x1F NOT PUSH1 0x1F DUP3 ADD AND DUP3 ADD DUP1 PUSH1 0x40 MSTORE POP DUP2 ADD SWAP1 PUSH2 0x2189 SWAP2 SWAP1 PUSH2 0x346F JUMP JUMPDEST SUB PUSH2 0x21A9 JUMPI PUSH2 0x21A2 DUP3 DUP5 PUSH2 0x219D SWAP2 SWAP1 PUSH2 0x3054 JUMP JUMPDEST PUSH2 0x24E3 JUMP JUMPDEST SWAP1 POP PUSH2 0x21FE JUMP JUMPDEST PUSH0 PUSH1 0x6 SLOAD PUSH2 0x21B5 PUSH2 0x571 JUMP JUMPDEST DUP6 PUSH2 0x21C0 SWAP2 SWAP1 PUSH2 0x3054 JUMP JUMPDEST PUSH2 0x21CA SWAP2 SWAP1 PUSH2 0x30C2 JUMP JUMPDEST SWAP1 POP PUSH0 PUSH1 0x7 SLOAD PUSH2 0x21D8 PUSH2 0x571 JUMP JUMPDEST DUP6 PUSH2 0x21E3 SWAP2 SWAP1 PUSH2 0x3054 JUMP JUMPDEST PUSH2 0x21ED SWAP2 SWAP1 PUSH2 0x30C2 JUMP JUMPDEST SWAP1 POP PUSH2 0x21F9 DUP3 DUP3 PUSH2 0x267D JUMP JUMPDEST SWAP3 POP POP POP JUMPDEST SWAP3 SWAP2 POP POP JUMP JUMPDEST PUSH0 PUSH20 0xFFFFFFFFFFFFFFFFFFFFFFFFFFFFFFFFFFFFFFFF AND DUP3 PUSH20 0xFFFFFFFFFFFFFFFFFFFFFFFFFFFFFFFFFFFFFFFF AND SUB PUSH2 0x2274 JUMPI PUSH0 PUSH1 0x40 MLOAD PUSH32 0xEC442F0500000000000000000000000000000000000000000000000000000000 DUP2 MSTORE PUSH1 0x4 ADD PUSH2 0x226B SWAP2 SWAP1 PUSH2 0x2D8B JUMP JUMPDEST PUSH1 0x40 MLOAD DUP1 SWAP2 SUB SWAP1 REVERT JUMPDEST PUSH2 0x227F PUSH0 DUP4 DUP4 PUSH2 0x2452 JUMP JUMPDEST POP POP JUMP JUMPDEST PUSH0 PUSH20 0xFFFFFFFFFFFFFFFFFFFFFFFFFFFFFFFFFFFFFFFF AND DUP5 PUSH20 0xFFFFFFFFFFFFFFFFFFFFFFFFFFFFFFFFFFFFFFFF AND SUB PUSH2 0x22F3 JUMPI PUSH0 PUSH1 0x40 MLOAD PUSH32 0xE602DF0500000000000000000000000000000000000000000000000000000000 DUP2 MSTORE PUSH1 0x4 ADD PUSH2 0x22EA SWAP2 SWAP1 PUSH2 0x2D8B JUMP JUMPDEST PUSH1 0x40 MLOAD DUP1 SWAP2 SUB SWAP1 REVERT JUMPDEST PUSH0 PUSH20 0xFFFFFFFFFFFFFFFFFFFFFFFFFFFFFFFFFFFFFFFF AND DUP4 PUSH20 0xFFFFFFFFFFFFFFFFFFFFFFFFFFFFFFFFFFFFFFFF AND SUB PUSH2 0x2363 JUMPI PUSH0 PUSH1 0x40 MLOAD PUSH32 0x94280D6200000000000000000000000000000000000000000000000000000000 DUP2 MSTORE PUSH1 0x4 ADD PUSH2 0x235A SWAP2 SWAP1 PUSH2 0x2D8B JUMP JUMPDEST PUSH1 0x40 MLOAD DUP1 SWAP2 SUB SWAP1 REVERT JUMPDEST DUP2 PUSH1 0x1 PUSH0 DUP7 PUSH20 0xFFFFFFFFFFFFFFFFFFFFFFFFFFFFFFFFFFFFFFFF AND PUSH20 0xFFFFFFFFFFFFFFFFFFFFFFFFFFFFFFFFFFFFFFFF AND DUP2 MSTORE PUSH1 0x20 ADD SWAP1 DUP2 MSTORE PUSH1 0x20 ADD PUSH0 KECCAK256 PUSH0 DUP6 PUSH20 0xFFFFFFFFFFFFFFFFFFFFFFFFFFFFFFFFFFFFFFFF AND PUSH20 0xFFFFFFFFFFFFFFFFFFFFFFFFFFFFFFFFFFFFFFFF AND DUP2 MSTORE PUSH1 0x20 ADD SWAP1 DUP2 MSTORE PUSH1 0x20 ADD PUSH0 KECCAK256 DUP2 SWAP1 SSTORE POP DUP1 ISZERO PUSH2 0x244C JUMPI DUP3 PUSH20 0xFFFFFFFFFFFFFFFFFFFFFFFFFFFFFFFFFFFFFFFF AND DUP5 PUSH20 0xFFFFFFFFFFFFFFFFFFFFFFFFFFFFFFFFFFFFFFFF AND PUSH32 0x8C5BE1E5EBEC7D5BD14F71427D1E84F3DD0314C0F7B2291E5B200AC8C7C3B925 DUP5 PUSH1 0x40 MLOAD PUSH2 0x2443 SWAP2 SWAP1 PUSH2 0x298B JUMP JUMPDEST PUSH1 0x40 MLOAD DUP1 SWAP2 SUB SWAP1 LOG3 JUMPDEST POP POP POP POP JUMP JUMPDEST PUSH2 0x245D DUP4 DUP4 DUP4 PUSH2 0x2693 JUMP JUMPDEST POP POP POP JUMP JUMPDEST PUSH2 0x246A PUSH2 0xDB5 JUMP JUMPDEST PUSH2 0x24A0 JUMPI PUSH1 0x40 MLOAD PUSH32 0x8DFC202B00000000000000000000000000000000000000000000000000000000 DUP2 MSTORE PUSH1 0x4 ADD PUSH1 0x40 MLOAD DUP1 SWAP2 SUB SWAP1 REVERT JUMPDEST JUMP JUMPDEST PUSH2 0x24AA PUSH2 0xDB5 JUMP JUMPDEST ISZERO PUSH2 0x24E1 JUMPI PUSH1 0x40 MLOAD PUSH32 0xD93C066500000000000000000000000000000000000000000000000000000000 DUP2 MSTORE PUSH1 0x4 ADD PUSH1 0x40 MLOAD DUP1 SWAP2 SUB SWAP1 REVERT JUMPDEST JUMP JUMPDEST PUSH0 PUSH1 0x1 DUP3 GT PUSH2 0x24F4 JUMPI DUP2 SWAP1 POP PUSH2 0x2678 JUMP JUMPDEST PUSH0 DUP3 SWAP1 POP PUSH0 PUSH1 0x1 SWAP1 POP PUSH17 0x100000000000000000000000000000000 DUP3 LT PUSH2 0x2524 JUMPI PUSH1 0x80 DUP3 SWAP1 SHR SWAP2 POP PUSH1 0x40 DUP2 SWAP1 SHL SWAP1 POP JUMPDEST PUSH9 0x10000000000000000 DUP3 LT PUSH2 0x2543 JUMPI PUSH1 0x40 DUP3 SWAP1 SHR SWAP2 POP PUSH1 0x20 DUP2 SWAP1 SHL SWAP1 POP JUMPDEST PUSH5 0x100000000 DUP3 LT PUSH2 0x255E JUMPI PUSH1 0x20 DUP3 SWAP1 SHR SWAP2 POP PUSH1 0x10 DUP2 SWAP1 SHL SWAP1 POP JUMPDEST PUSH3 0x10000 DUP3 LT PUSH2 0x2577 JUMPI PUSH1 0x10 DUP3 SWAP1 SHR SWAP2 POP PUSH1 0x8 DUP2 SWAP1 SHL SWAP1 POP JUMPDEST PUSH2 0x100 DUP3 LT PUSH2 0x258F JUMPI PUSH1 0x8 DUP3 SWAP1 SHR SWAP2 POP PUSH1 0x4 DUP2 SWAP1 SHL SWAP1 POP JUMPDEST PUSH1 0x10 DUP3 LT PUSH2 0x25A6 JUMPI PUSH1 0x4 DUP3 SWAP1 SHR SWAP2 POP PUSH1 0x2 DUP2 SWAP1 SHL SWAP1 POP JUMPDEST PUSH1 0x4 DUP3 LT PUSH2 0x25B6 JUMPI PUSH1 0x1 DUP2 SWAP1 SHL SWAP1 POP JUMPDEST PUSH1 0x1 DUP2 PUSH1 0x3 MUL SWAP1 SHR SWAP1 POP PUSH1 0x1 DUP2 DUP6 DUP2 PUSH2 0x25D2 JUMPI PUSH2 0x25D1 PUSH2 0x3095 JUMP JUMPDEST JUMPDEST DIV DUP3 ADD SWAP1 SHR SWAP1 POP PUSH1 0x1 DUP2 DUP6 DUP2 PUSH2 0x25EB JUMPI PUSH2 0x25EA PUSH2 0x3095 JUMP JUMPDEST JUMPDEST DIV DUP3 ADD SWAP1 SHR SWAP1 POP PUSH1 0x1 DUP2 DUP6 DUP2 PUSH2 0x2604 JUMPI PUSH2 0x2603 PUSH2 0x3095 JUMP JUMPDEST JUMPDEST DIV DUP3 ADD SWAP1 SHR SWAP1 POP PUSH1 0x1 DUP2 DUP6 DUP2 PUSH2 0x261D JUMPI PUSH2 0x261C PUSH2 0x3095 JUMP JUMPDEST JUMPDEST DIV DUP3 ADD SWAP1 SHR SWAP1 POP PUSH1 0x1 DUP2 DUP6 DUP2 PUSH2 0x2636 JUMPI PUSH2 0x2635 PUSH2 0x3095 JUMP JUMPDEST JUMPDEST DIV DUP3 ADD SWAP1 SHR SWAP1 POP PUSH1 0x1 DUP2 DUP6 DUP2 PUSH2 0x264F JUMPI PUSH2 0x264E PUSH2 0x3095 JUMP JUMPDEST JUMPDEST DIV DUP3 ADD SWAP1 SHR SWAP1 POP PUSH2 0x2671 DUP2 DUP6 DUP2 PUSH2 0x2669 JUMPI PUSH2 0x2668 PUSH2 0x3095 JUMP JUMPDEST JUMPDEST DIV DUP3 GT PUSH2 0x26AB JUMP JUMPDEST DUP2 SUB SWAP3 POP POP POP JUMPDEST SWAP2 SWAP1 POP JUMP JUMPDEST PUSH0 PUSH2 0x268B DUP3 DUP5 LT DUP5 DUP5 PUSH2 0x26B6 JUMP JUMPDEST SWAP1 POP SWAP3 SWAP2 POP POP JUMP JUMPDEST PUSH2 0x269B PUSH2 0x24A2 JUMP JUMPDEST PUSH2 0x26A6 DUP4 DUP4 DUP4 PUSH2 0x26CF JUMP JUMPDEST POP POP POP JUMP JUMPDEST PUSH0 DUP2 ISZERO ISZERO SWAP1 POP SWAP2 SWAP1 POP JUMP JUMPDEST PUSH0 PUSH2 0x26C0 DUP5 PUSH2 0x26AB JUMP JUMPDEST DUP3 DUP5 XOR MUL DUP3 XOR SWAP1 POP SWAP4 SWAP3 POP POP POP JUMP JUMPDEST PUSH0 PUSH20 0xFFFFFFFFFFFFFFFFFFFFFFFFFFFFFFFFFFFFFFFF AND DUP4 PUSH20 0xFFFFFFFFFFFFFFFFFFFFFFFFFFFFFFFFFFFFFFFF AND SUB PUSH2 0x271F JUMPI DUP1 PUSH1 0x2 PUSH0 DUP3 DUP3 SLOAD PUSH2 0x2713 SWAP2 SWAP1 PUSH2 0x3021 JUMP JUMPDEST SWAP3 POP POP DUP2 SWAP1 SSTORE POP PUSH2 0x27ED JUMP JUMPDEST PUSH0 PUSH0 PUSH0 DUP6 PUSH20 0xFFFFFFFFFFFFFFFFFFFFFFFFFFFFFFFFFFFFFFFF AND PUSH20 0xFFFFFFFFFFFFFFFFFFFFFFFFFFFFFFFFFFFFFFFF AND DUP2 MSTORE PUSH1 0x20 ADD SWAP1 DUP2 MSTORE PUSH1 0x20 ADD PUSH0 KECCAK256 SLOAD SWAP1 POP DUP2 DUP2 LT ISZERO PUSH2 0x27A8 JUMPI DUP4 DUP2 DUP4 PUSH1 0x40 MLOAD PUSH32 0xE450D38C00000000000000000000000000000000000000000000000000000000 DUP2 MSTORE PUSH1 0x4 ADD PUSH2 0x279F SWAP4 SWAP3 SWAP2 SWAP1 PUSH2 0x39F6 JUMP JUMPDEST PUSH1 0x40 MLOAD DUP1 SWAP2 SUB SWAP1 REVERT JUMPDEST DUP2 DUP2 SUB PUSH0 PUSH0 DUP7 PUSH20 0xFFFFFFFFFFFFFFFFFFFFFFFFFFFFFFFFFFFFFFFF AND PUSH20 0xFFFFFFFFFFFFFFFFFFFFFFFFFFFFFFFFFFFFFFFF AND DUP2 MSTORE PUSH1 0x20 ADD SWAP1 DUP2 MSTORE PUSH1 0x20 ADD PUSH0 KECCAK256 DUP2 SWAP1 SSTORE POP POP JUMPDEST PUSH0 PUSH20 0xFFFFFFFFFFFFFFFFFFFFFFFFFFFFFFFFFFFFFFFF AND DUP3 PUSH20 0xFFFFFFFFFFFFFFFFFFFFFFFFFFFFFFFFFFFFFFFF AND SUB PUSH2 0x2834 JUMPI DUP1 PUSH1 0x2 PUSH0 DUP3 DUP3 SLOAD SUB SWAP3 POP POP DUP2 SWAP1 SSTORE POP PUSH2 0x287E JUMP JUMPDEST DUP1 PUSH0 PUSH0 DUP5 PUSH20 0xFFFFFFFFFFFFFFFFFFFFFFFFFFFFFFFFFFFFFFFF AND PUSH20 0xFFFFFFFFFFFFFFFFFFFFFFFFFFFFFFFFFFFFFFFF AND DUP2 MSTORE PUSH1 0x20 ADD SWAP1 DUP2 MSTORE PUSH1 0x20 ADD PUSH0 KECCAK256 PUSH0 DUP3 DUP3 SLOAD ADD SWAP3 POP POP DUP2 SWAP1 SSTORE POP JUMPDEST DUP2 PUSH20 0xFFFFFFFFFFFFFFFFFFFFFFFFFFFFFFFFFFFFFFFF AND DUP4 PUSH20 0xFFFFFFFFFFFFFFFFFFFFFFFFFFFFFFFFFFFFFFFF AND PUSH32 0xDDF252AD1BE2C89B69C2B068FC378DAA952BA7F163C4A11628F55A4DF523B3EF DUP4 PUSH1 0x40 MLOAD PUSH2 0x28DB SWAP2 SWAP1 PUSH2 0x298B JUMP JUMPDEST PUSH1 0x40 MLOAD DUP1 SWAP2 SUB SWAP1 LOG3 POP POP POP JUMP JUMPDEST PUSH0 PUSH1 0x40 MLOAD SWAP1 POP SWAP1 JUMP JUMPDEST PUSH0 PUSH0 REVERT JUMPDEST PUSH0 PUSH0 REVERT JUMPDEST PUSH0 DUP2 SWAP1 POP SWAP2 SWAP1 POP JUMP JUMPDEST PUSH2 0x290B DUP2 PUSH2 0x28F9 JUMP JUMPDEST DUP2 EQ PUSH2 0x2915 JUMPI PUSH0 PUSH0 REVERT JUMPDEST POP JUMP JUMPDEST PUSH0 DUP2 CALLDATALOAD SWAP1 POP PUSH2 0x2926 DUP2 PUSH2 0x2902 JUMP JUMPDEST SWAP3 SWAP2 POP POP JUMP JUMPDEST PUSH0 PUSH0 PUSH0 PUSH1 0x60 DUP5 DUP7 SUB SLT ISZERO PUSH2 0x2943 JUMPI PUSH2 0x2942 PUSH2 0x28F1 JUMP JUMPDEST JUMPDEST PUSH0 PUSH2 0x2950 DUP7 DUP3 DUP8 ADD PUSH2 0x2918 JUMP JUMPDEST SWAP4 POP POP PUSH1 0x20 PUSH2 0x2961 DUP7 DUP3 DUP8 ADD PUSH2 0x2918 JUMP JUMPDEST SWAP3 POP POP PUSH1 0x40 PUSH2 0x2972 DUP7 DUP3 DUP8 ADD PUSH2 0x2918 JUMP JUMPDEST SWAP2 POP POP SWAP3 POP SWAP3 POP SWAP3 JUMP JUMPDEST PUSH2 0x2985 DUP2 PUSH2 0x28F9 JUMP JUMPDEST DUP3 MSTORE POP POP JUMP JUMPDEST PUSH0 PUSH1 0x20 DUP3 ADD SWAP1 POP PUSH2 0x299E PUSH0 DUP4 ADD DUP5 PUSH2 0x297C JUMP JUMPDEST SWAP3 SWAP2 POP POP JUMP JUMPDEST PUSH0 DUP2 MLOAD SWAP1 POP SWAP2 SWAP1 POP JUMP JUMPDEST PUSH0 DUP3 DUP3 MSTORE PUSH1 0x20 DUP3 ADD SWAP1 POP SWAP3 SWAP2 POP POP JUMP JUMPDEST DUP3 DUP2 DUP4 MCOPY PUSH0 DUP4 DUP4 ADD MSTORE POP POP POP JUMP JUMPDEST PUSH0 PUSH1 0x1F NOT PUSH1 0x1F DUP4 ADD AND SWAP1 POP SWAP2 SWAP1 POP JUMP JUMPDEST PUSH0 PUSH2 0x29E6 DUP3 PUSH2 0x29A4 JUMP JUMPDEST PUSH2 0x29F0 DUP2 DUP6 PUSH2 0x29AE JUMP JUMPDEST SWAP4 POP PUSH2 0x2A00 DUP2 DUP6 PUSH1 0x20 DUP7 ADD PUSH2 0x29BE JUMP JUMPDEST PUSH2 0x2A09 DUP2 PUSH2 0x29CC JUMP JUMPDEST DUP5 ADD SWAP2 POP POP SWAP3 SWAP2 POP POP JUMP JUMPDEST PUSH0 PUSH1 0x20 DUP3 ADD SWAP1 POP DUP2 DUP2 SUB PUSH0 DUP4 ADD MSTORE PUSH2 0x2A2C DUP2 DUP5 PUSH2 0x29DC JUMP JUMPDEST SWAP1 POP SWAP3 SWAP2 POP POP JUMP JUMPDEST PUSH0 PUSH20 0xFFFFFFFFFFFFFFFFFFFFFFFFFFFFFFFFFFFFFFFF DUP3 AND SWAP1 POP SWAP2 SWAP1 POP JUMP JUMPDEST PUSH0 PUSH2 0x2A5D DUP3 PUSH2 0x2A34 JUMP JUMPDEST SWAP1 POP SWAP2 SWAP1 POP JUMP JUMPDEST PUSH2 0x2A6D DUP2 PUSH2 0x2A53 JUMP JUMPDEST DUP2 EQ PUSH2 0x2A77 JUMPI PUSH0 PUSH0 REVERT JUMPDEST POP JUMP JUMPDEST PUSH0 DUP2 CALLDATALOAD SWAP1 POP PUSH2 0x2A88 DUP2 PUSH2 0x2A64 JUMP JUMPDEST SWAP3 SWAP2 POP POP JUMP JUMPDEST PUSH0 PUSH0 PUSH1 0x40 DUP4 DUP6 SUB SLT ISZERO PUSH2 0x2AA4 JUMPI PUSH2 0x2AA3 PUSH2 0x28F1 JUMP JUMPDEST JUMPDEST PUSH0 PUSH2 0x2AB1 DUP6 DUP3 DUP7 ADD PUSH2 0x2A7A JUMP JUMPDEST SWAP3 POP POP PUSH1 0x20 PUSH2 0x2AC2 DUP6 DUP3 DUP7 ADD PUSH2 0x2918 JUMP JUMPDEST SWAP2 POP POP SWAP3 POP SWAP3 SWAP1 POP JUMP JUMPDEST PUSH0 DUP2 ISZERO ISZERO SWAP1 POP SWAP2 SWAP1 POP JUMP JUMPDEST PUSH2 0x2AE0 DUP2 PUSH2 0x2ACC JUMP JUMPDEST DUP3 MSTORE POP POP JUMP JUMPDEST PUSH0 PUSH1 0x20 DUP3 ADD SWAP1 POP PUSH2 0x2AF9 PUSH0 DUP4 ADD DUP5 PUSH2 0x2AD7 JUMP JUMPDEST SWAP3 SWAP2 POP POP JUMP JUMPDEST PUSH0 PUSH0 PUSH0 PUSH1 0x60 DUP5 DUP7 SUB SLT ISZERO PUSH2 0x2B16 JUMPI PUSH2 0x2B15 PUSH2 0x28F1 JUMP JUMPDEST JUMPDEST PUSH0 PUSH2 0x2B23 DUP7 DUP3 DUP8 ADD PUSH2 0x2A7A JUMP JUMPDEST SWAP4 POP POP PUSH1 0x20 PUSH2 0x2B34 DUP7 DUP3 DUP8 ADD PUSH2 0x2A7A JUMP JUMPDEST SWAP3 POP POP PUSH1 0x40 PUSH2 0x2B45 DUP7 DUP3 DUP8 ADD PUSH2 0x2918 JUMP JUMPDEST SWAP2 POP POP SWAP3 POP SWAP3 POP SWAP3 JUMP JUMPDEST PUSH0 PUSH1 0xFF DUP3 AND SWAP1 POP SWAP2 SWAP1 POP JUMP JUMPDEST PUSH2 0x2B64 DUP2 PUSH2 0x2B4F JUMP JUMPDEST DUP3 MSTORE POP POP JUMP JUMPDEST PUSH0 PUSH1 0x20 DUP3 ADD SWAP1 POP PUSH2 0x2B7D PUSH0 DUP4 ADD DUP5 PUSH2 0x2B5B JUMP JUMPDEST SWAP3 SWAP2 POP POP JUMP JUMPDEST PUSH0 PUSH0 REVERT JUMPDEST PUSH0 PUSH0 REVERT JUMPDEST PUSH0 PUSH0 REVERT JUMPDEST PUSH0 PUSH0 DUP4 PUSH1 0x1F DUP5 ADD SLT PUSH2 0x2BA4 JUMPI PUSH2 0x2BA3 PUSH2 0x2B83 JUMP JUMPDEST JUMPDEST DUP3 CALLDATALOAD SWAP1 POP PUSH8 0xFFFFFFFFFFFFFFFF DUP2 GT ISZERO PUSH2 0x2BC1 JUMPI PUSH2 0x2BC0 PUSH2 0x2B87 JUMP JUMPDEST JUMPDEST PUSH1 0x20 DUP4 ADD SWAP2 POP DUP4 PUSH1 0x20 DUP3 MUL DUP4 ADD GT ISZERO PUSH2 0x2BDD JUMPI PUSH2 0x2BDC PUSH2 0x2B8B JUMP JUMPDEST JUMPDEST SWAP3 POP SWAP3 SWAP1 POP JUMP JUMPDEST PUSH0 PUSH0 PUSH0 PUSH0 PUSH0 PUSH0 PUSH1 0xA0 DUP8 DUP10 SUB SLT ISZERO PUSH2 0x2BFE JUMPI PUSH2 0x2BFD PUSH2 0x28F1 JUMP JUMPDEST JUMPDEST PUSH0 PUSH2 0x2C0B DUP10 DUP3 DUP11 ADD PUSH2 0x2918 JUMP JUMPDEST SWAP7 POP POP PUSH1 0x20 PUSH2 0x2C1C DUP10 DUP3 DUP11 ADD PUSH2 0x2918 JUMP JUMPDEST SWAP6 POP POP PUSH1 0x40 DUP8 ADD CALLDATALOAD PUSH8 0xFFFFFFFFFFFFFFFF DUP2 GT ISZERO PUSH2 0x2C3D JUMPI PUSH2 0x2C3C PUSH2 0x28F5 JUMP JUMPDEST JUMPDEST PUSH2 0x2C49 DUP10 DUP3 DUP11 ADD PUSH2 0x2B8F JUMP JUMPDEST SWAP5 POP SWAP5 POP POP PUSH1 0x60 PUSH2 0x2C5C DUP10 DUP3 DUP11 ADD PUSH2 0x2A7A JUMP JUMPDEST SWAP3 POP POP PUSH1 0x80 PUSH2 0x2C6D DUP10 DUP3 DUP11 ADD PUSH2 0x2918 JUMP JUMPDEST SWAP2 POP POP SWAP3 SWAP6 POP SWAP3 SWAP6 POP SWAP3 SWAP6 JUMP JUMPDEST PUSH0 DUP2 MLOAD SWAP1 POP SWAP2 SWAP1 POP JUMP JUMPDEST PUSH0 DUP3 DUP3 MSTORE PUSH1 0x20 DUP3 ADD SWAP1 POP SWAP3 SWAP2 POP POP JUMP JUMPDEST PUSH0 DUP2 SWAP1 POP PUSH1 0x20 DUP3 ADD SWAP1 POP SWAP2 SWAP1 POP JUMP JUMPDEST PUSH2 0x2CAC DUP2 PUSH2 0x28F9 JUMP JUMPDEST DUP3 MSTORE POP POP JUMP JUMPDEST PUSH0 PUSH2 0x2CBD DUP4 DUP4 PUSH2 0x2CA3 JUMP JUMPDEST PUSH1 0x20 DUP4 ADD SWAP1 POP SWAP3 SWAP2 POP POP JUMP JUMPDEST PUSH0 PUSH1 0x20 DUP3 ADD SWAP1 POP SWAP2 SWAP1 POP JUMP JUMPDEST PUSH0 PUSH2 0x2CDF DUP3 PUSH2 0x2C7A JUMP JUMPDEST PUSH2 0x2CE9 DUP2 DUP6 PUSH2 0x2C84 JUMP JUMPDEST SWAP4 POP PUSH2 0x2CF4 DUP4 PUSH2 0x2C94 JUMP JUMPDEST DUP1 PUSH0 JUMPDEST DUP4 DUP2 LT ISZERO PUSH2 0x2D24 JUMPI DUP2 MLOAD PUSH2 0x2D0B DUP9 DUP3 PUSH2 0x2CB2 JUMP JUMPDEST SWAP8 POP PUSH2 0x2D16 DUP4 PUSH2 0x2CC9 JUMP JUMPDEST SWAP3 POP POP PUSH1 0x1 DUP2 ADD SWAP1 POP PUSH2 0x2CF7 JUMP JUMPDEST POP DUP6 SWAP4 POP POP POP POP SWAP3 SWAP2 POP POP JUMP JUMPDEST PUSH0 PUSH1 0x20 DUP3 ADD SWAP1 POP DUP2 DUP2 SUB PUSH0 DUP4 ADD MSTORE PUSH2 0x2D49 DUP2 DUP5 PUSH2 0x2CD5 JUMP JUMPDEST SWAP1 POP SWAP3 SWAP2 POP POP JUMP JUMPDEST PUSH0 PUSH1 0x20 DUP3 DUP5 SUB SLT ISZERO PUSH2 0x2D66 JUMPI PUSH2 0x2D65 PUSH2 0x28F1 JUMP JUMPDEST JUMPDEST PUSH0 PUSH2 0x2D73 DUP5 DUP3 DUP6 ADD PUSH2 0x2A7A JUMP JUMPDEST SWAP2 POP POP SWAP3 SWAP2 POP POP JUMP JUMPDEST PUSH2 0x2D85 DUP2 PUSH2 0x2A53 JUMP JUMPDEST DUP3 MSTORE POP POP JUMP JUMPDEST PUSH0 PUSH1 0x20 DUP3 ADD SWAP1 POP PUSH2 0x2D9E PUSH0 DUP4 ADD DUP5 PUSH2 0x2D7C JUMP JUMPDEST SWAP3 SWAP2 POP POP JUMP JUMPDEST PUSH0 PUSH0 PUSH1 0x40 DUP4 DUP6 SUB SLT ISZERO PUSH2 0x2DBA JUMPI PUSH2 0x2DB9 PUSH2 0x28F1 JUMP JUMPDEST JUMPDEST PUSH0 PUSH2 0x2DC7 DUP6 DUP3 DUP7 ADD PUSH2 0x2A7A JUMP JUMPDEST SWAP3 POP POP PUSH1 0x20 PUSH2 0x2DD8 DUP6 DUP3 DUP7 ADD PUSH2 0x2A7A JUMP JUMPDEST SWAP2 POP POP SWAP3 POP SWAP3 SWAP1 POP JUMP JUMPDEST PUSH0 PUSH0 PUSH0 PUSH0 PUSH0 PUSH0 PUSH0 PUSH1 0xE0 DUP9 DUP11 SUB SLT ISZERO PUSH2 0x2DFD JUMPI PUSH2 0x2DFC PUSH2 0x28F1 JUMP JUMPDEST JUMPDEST PUSH0 PUSH2 0x2E0A DUP11 DUP3 DUP12 ADD PUSH2 0x2A7A JUMP JUMPDEST SWAP8 POP POP PUSH1 0x20 PUSH2 0x2E1B DUP11 DUP3 DUP12 ADD PUSH2 0x2A7A JUMP JUMPDEST SWAP7 POP POP PUSH1 0x40 PUSH2 0x2E2C DUP11 DUP3 DUP12 ADD PUSH2 0x2918 JUMP JUMPDEST SWAP6 POP POP PUSH1 0x60 PUSH2 0x2E3D DUP11 DUP3 DUP12 ADD PUSH2 0x2918 JUMP JUMPDEST SWAP5 POP POP PUSH1 0x80 PUSH2 0x2E4E DUP11 DUP3 DUP12 ADD PUSH2 0x2918 JUMP JUMPDEST SWAP4 POP POP PUSH1 0xA0 PUSH2 0x2E5F DUP11 DUP3 DUP12 ADD PUSH2 0x2A7A JUMP JUMPDEST SWAP3 POP POP PUSH1 0xC0 PUSH2 0x2E70 DUP11 DUP3 DUP12 ADD PUSH2 0x2918 JUMP JUMPDEST SWAP2 POP POP SWAP3 SWAP6 SWAP9 SWAP2 SWAP5 SWAP8 POP SWAP3 SWAP6 POP JUMP JUMPDEST PUSH0 PUSH1 0x40 DUP3 ADD SWAP1 POP PUSH2 0x2E92 PUSH0 DUP4 ADD DUP6 PUSH2 0x297C JUMP JUMPDEST PUSH2 0x2E9F PUSH1 0x20 DUP4 ADD DUP5 PUSH2 0x297C JUMP JUMPDEST SWAP4 SWAP3 POP POP POP JUMP JUMPDEST PUSH0 PUSH0 PUSH0 PUSH0 PUSH0 PUSH0 PUSH0 PUSH0 PUSH2 0x100 DUP10 DUP12 SUB SLT ISZERO PUSH2 0x2EC3 JUMPI PUSH2 0x2EC2 PUSH2 0x28F1 JUMP JUMPDEST JUMPDEST PUSH0 PUSH2 0x2ED0 DUP12 DUP3 DUP13 ADD PUSH2 0x2A7A JUMP JUMPDEST SWAP9 POP POP PUSH1 0x20 PUSH2 0x2EE1 DUP12 DUP3 DUP13 ADD PUSH2 0x2A7A JUMP JUMPDEST SWAP8 POP POP PUSH1 0x40 PUSH2 0x2EF2 DUP12 DUP3 DUP13 ADD PUSH2 0x2918 JUMP JUMPDEST SWAP7 POP POP PUSH1 0x60 PUSH2 0x2F03 DUP12 DUP3 DUP13 ADD PUSH2 0x2918 JUMP JUMPDEST SWAP6 POP POP PUSH1 0x80 PUSH2 0x2F14 DUP12 DUP3 DUP13 ADD PUSH2 0x2918 JUMP JUMPDEST SWAP5 POP POP PUSH1 0xA0 PUSH2 0x2F25 DUP12 DUP3 DUP13 ADD PUSH2 0x2918 JUMP JUMPDEST SWAP4 POP POP PUSH1 0xC0 PUSH2 0x2F36 DUP12 DUP3 DUP13 ADD PUSH2 0x2A7A JUMP JUMPDEST SWAP3 POP POP PUSH1 0xE0 PUSH2 0x2F47 DUP12 DUP3 DUP13 ADD PUSH2 0x2918 JUMP JUMPDEST SWAP2 POP POP SWAP3 SWAP6 SWAP9 POP SWAP3 SWAP6 SWAP9 SWAP1 SWAP4 SWAP7 POP JUMP JUMPDEST PUSH0 PUSH1 0x60 DUP3 ADD SWAP1 POP PUSH2 0x2F6A PUSH0 DUP4 ADD DUP7 PUSH2 0x297C JUMP JUMPDEST PUSH2 0x2F77 PUSH1 0x20 DUP4 ADD DUP6 PUSH2 0x297C JUMP JUMPDEST PUSH2 0x2F84 PUSH1 0x40 DUP4 ADD DUP5 PUSH2 0x297C JUMP JUMPDEST SWAP5 SWAP4 POP POP POP POP JUMP JUMPDEST PUSH32 0x496E76616C696420696E70757420706172616D65746572732100000000000000 PUSH0 DUP3 ADD MSTORE POP JUMP JUMPDEST PUSH0 PUSH2 0x2FC0 PUSH1 0x19 DUP4 PUSH2 0x29AE JUMP JUMPDEST SWAP2 POP PUSH2 0x2FCB DUP3 PUSH2 0x2F8C JUMP JUMPDEST PUSH1 0x20 DUP3 ADD SWAP1 POP SWAP2 SWAP1 POP JUMP JUMPDEST PUSH0 PUSH1 0x20 DUP3 ADD SWAP1 POP DUP2 DUP2 SUB PUSH0 DUP4 ADD MSTORE PUSH2 0x2FED DUP2 PUSH2 0x2FB4 JUMP JUMPDEST SWAP1 POP SWAP2 SWAP1 POP JUMP JUMPDEST PUSH32 0x4E487B7100000000000000000000000000000000000000000000000000000000 PUSH0 MSTORE PUSH1 0x11 PUSH1 0x4 MSTORE PUSH1 0x24 PUSH0 REVERT JUMPDEST PUSH0 PUSH2 0x302B DUP3 PUSH2 0x28F9 JUMP JUMPDEST SWAP2 POP PUSH2 0x3036 DUP4 PUSH2 0x28F9 JUMP JUMPDEST SWAP3 POP DUP3 DUP3 ADD SWAP1 POP DUP1 DUP3 GT ISZERO PUSH2 0x304E JUMPI PUSH2 0x304D PUSH2 0x2FF4 JUMP JUMPDEST JUMPDEST SWAP3 SWAP2 POP POP JUMP JUMPDEST PUSH0 PUSH2 0x305E DUP3 PUSH2 0x28F9 JUMP JUMPDEST SWAP2 POP PUSH2 0x3069 DUP4 PUSH2 0x28F9 JUMP JUMPDEST SWAP3 POP DUP3 DUP3 MUL PUSH2 0x3077 DUP2 PUSH2 0x28F9 JUMP JUMPDEST SWAP2 POP DUP3 DUP3 DIV DUP5 EQ DUP4 ISZERO OR PUSH2 0x308E JUMPI PUSH2 0x308D PUSH2 0x2FF4 JUMP JUMPDEST JUMPDEST POP SWAP3 SWAP2 POP POP JUMP JUMPDEST PUSH32 0x4E487B7100000000000000000000000000000000000000000000000000000000 PUSH0 MSTORE PUSH1 0x12 PUSH1 0x4 MSTORE PUSH1 0x24 PUSH0 REVERT JUMPDEST PUSH0 PUSH2 0x30CC DUP3 PUSH2 0x28F9 JUMP JUMPDEST SWAP2 POP PUSH2 0x30D7 DUP4 PUSH2 0x28F9 JUMP JUMPDEST SWAP3 POP DUP3 PUSH2 0x30E7 JUMPI PUSH2 0x30E6 PUSH2 0x3095 JUMP JUMPDEST JUMPDEST DUP3 DUP3 DIV SWAP1 POP SWAP3 SWAP2 POP POP JUMP JUMPDEST PUSH32 0x4E487B7100000000000000000000000000000000000000000000000000000000 PUSH0 MSTORE PUSH1 0x22 PUSH1 0x4 MSTORE PUSH1 0x24 PUSH0 REVERT JUMPDEST PUSH0 PUSH1 0x2 DUP3 DIV SWAP1 POP PUSH1 0x1 DUP3 AND DUP1 PUSH2 0x3136 JUMPI PUSH1 0x7F DUP3 AND SWAP2 POP JUMPDEST PUSH1 0x20 DUP3 LT DUP2 SUB PUSH2 0x3149 JUMPI PUSH2 0x3148 PUSH2 0x30F2 JUMP JUMPDEST JUMPDEST POP SWAP2 SWAP1 POP JUMP JUMPDEST PUSH32 0x4E487B7100000000000000000000000000000000000000000000000000000000 PUSH0 MSTORE PUSH1 0x32 PUSH1 0x4 MSTORE PUSH1 0x24 PUSH0 REVERT JUMPDEST PUSH32 0x496E76616C696420746F6B656E20616464726573736573210000000000000000 PUSH0 DUP3 ADD MSTORE POP JUMP JUMPDEST PUSH0 PUSH2 0x31B0 PUSH1 0x18 DUP4 PUSH2 0x29AE JUMP JUMPDEST SWAP2 POP PUSH2 0x31BB DUP3 PUSH2 0x317C JUMP JUMPDEST PUSH1 0x20 DUP3 ADD SWAP1 POP SWAP2 SWAP1 POP JUMP JUMPDEST PUSH0 PUSH1 0x20 DUP3 ADD SWAP1 POP DUP2 DUP2 SUB PUSH0 DUP4 ADD MSTORE PUSH2 0x31DD DUP2 PUSH2 0x31A4 JUMP JUMPDEST SWAP1 POP SWAP2 SWAP1 POP JUMP JUMPDEST PUSH32 0x496E76616C696420726563697069656E74206164647265737300000000000000 PUSH0 DUP3 ADD MSTORE POP JUMP JUMPDEST PUSH0 PUSH2 0x3218 PUSH1 0x19 DUP4 PUSH2 0x29AE JUMP JUMPDEST SWAP2 POP PUSH2 0x3223 DUP3 PUSH2 0x31E4 JUMP JUMPDEST PUSH1 0x20 DUP3 ADD SWAP1 POP SWAP2 SWAP1 POP JUMP JUMPDEST PUSH0 PUSH1 0x20 DUP3 ADD SWAP1 POP DUP2 DUP2 SUB PUSH0 DUP4 ADD MSTORE PUSH2 0x3245 DUP2 PUSH2 0x320C JUMP JUMPDEST SWAP1 POP SWAP2 SWAP1 POP JUMP JUMPDEST PUSH0 DUP2 SWAP1 POP SWAP3 SWAP2 POP POP JUMP JUMPDEST PUSH32 0x4D544B4100000000000000000000000000000000000000000000000000000000 PUSH0 DUP3 ADD MSTORE POP JUMP JUMPDEST PUSH0 PUSH2 0x328A PUSH1 0x4 DUP4 PUSH2 0x324C JUMP JUMPDEST SWAP2 POP PUSH2 0x3295 DUP3 PUSH2 0x3256 JUMP JUMPDEST PUSH1 0x4 DUP3 ADD SWAP1 POP SWAP2 SWAP1 POP JUMP JUMPDEST PUSH0 PUSH2 0x32AA DUP3 PUSH2 0x327E JUMP JUMPDEST SWAP2 POP DUP2 SWAP1 POP SWAP2 SWAP1 POP JUMP JUMPDEST PUSH0 PUSH0 REVERT JUMPDEST PUSH32 0x4E487B7100000000000000000000000000000000000000000000000000000000 PUSH0 MSTORE PUSH1 0x41 PUSH1 0x4 MSTORE PUSH1 0x24 PUSH0 REVERT JUMPDEST PUSH2 0x32EE DUP3 PUSH2 0x29CC JUMP JUMPDEST DUP2 ADD DUP2 DUP2 LT PUSH8 0xFFFFFFFFFFFFFFFF DUP3 GT OR ISZERO PUSH2 0x330D JUMPI PUSH2 0x330C PUSH2 0x32B8 JUMP JUMPDEST JUMPDEST DUP1 PUSH1 0x40 MSTORE POP POP POP JUMP JUMPDEST PUSH0 PUSH2 0x331F PUSH2 0x28E8 JUMP JUMPDEST SWAP1 POP PUSH2 0x332B DUP3 DUP3 PUSH2 0x32E5 JUMP JUMPDEST SWAP2 SWAP1 POP JUMP JUMPDEST PUSH0 PUSH8 0xFFFFFFFFFFFFFFFF DUP3 GT ISZERO PUSH2 0x334A JUMPI PUSH2 0x3349 PUSH2 0x32B8 JUMP JUMPDEST JUMPDEST PUSH2 0x3353 DUP3 PUSH2 0x29CC JUMP JUMPDEST SWAP1 POP PUSH1 0x20 DUP2 ADD SWAP1 POP SWAP2 SWAP1 POP JUMP JUMPDEST PUSH0 PUSH2 0x3372 PUSH2 0x336D DUP5 PUSH2 0x3330 JUMP JUMPDEST PUSH2 0x3316 JUMP JUMPDEST SWAP1 POP DUP3 DUP2 MSTORE PUSH1 0x20 DUP2 ADD DUP5 DUP5 DUP5 ADD GT ISZERO PUSH2 0x338E JUMPI PUSH2 0x338D PUSH2 0x32B4 JUMP JUMPDEST JUMPDEST PUSH2 0x3399 DUP5 DUP3 DUP6 PUSH2 0x29BE JUMP JUMPDEST POP SWAP4 SWAP3 POP POP POP JUMP JUMPDEST PUSH0 DUP3 PUSH1 0x1F DUP4 ADD SLT PUSH2 0x33B5 JUMPI PUSH2 0x33B4 PUSH2 0x2B83 JUMP JUMPDEST JUMPDEST DUP2 MLOAD PUSH2 0x33C5 DUP5 DUP3 PUSH1 0x20 DUP7 ADD PUSH2 0x3360 JUMP JUMPDEST SWAP2 POP POP SWAP3 SWAP2 POP POP JUMP JUMPDEST PUSH0 PUSH1 0x20 DUP3 DUP5 SUB SLT ISZERO PUSH2 0x33E3 JUMPI PUSH2 0x33E2 PUSH2 0x28F1 JUMP JUMPDEST JUMPDEST PUSH0 DUP3 ADD MLOAD PUSH8 0xFFFFFFFFFFFFFFFF DUP2 GT ISZERO PUSH2 0x3400 JUMPI PUSH2 0x33FF PUSH2 0x28F5 JUMP JUMPDEST JUMPDEST PUSH2 0x340C DUP5 DUP3 DUP6 ADD PUSH2 0x33A1 JUMP JUMPDEST SWAP2 POP POP SWAP3 SWAP2 POP POP JUMP JUMPDEST PUSH0 PUSH2 0x341F DUP3 PUSH2 0x29A4 JUMP JUMPDEST PUSH2 0x3429 DUP2 DUP6 PUSH2 0x324C JUMP JUMPDEST SWAP4 POP PUSH2 0x3439 DUP2 DUP6 PUSH1 0x20 DUP7 ADD PUSH2 0x29BE JUMP JUMPDEST DUP1 DUP5 ADD SWAP2 POP POP SWAP3 SWAP2 POP POP JUMP JUMPDEST PUSH0 PUSH2 0x3450 DUP3 DUP5 PUSH2 0x3415 JUMP JUMPDEST SWAP2 POP DUP2 SWAP1 POP SWAP3 SWAP2 POP POP JUMP JUMPDEST PUSH0 DUP2 MLOAD SWAP1 POP PUSH2 0x3469 DUP2 PUSH2 0x2902 JUMP JUMPDEST SWAP3 SWAP2 POP POP JUMP JUMPDEST PUSH0 PUSH1 0x20 DUP3 DUP5 SUB SLT ISZERO PUSH2 0x3484 JUMPI PUSH2 0x3483 PUSH2 0x28F1 JUMP JUMPDEST JUMPDEST PUSH0 PUSH2 0x3491 DUP5 DUP3 DUP6 ADD PUSH2 0x345B JUMP JUMPDEST SWAP2 POP POP SWAP3 SWAP2 POP POP JUMP JUMPDEST PUSH32 0x4E6F74206D65657420746865206D696E696D756D210000000000000000000000 PUSH0 DUP3 ADD MSTORE POP JUMP JUMPDEST PUSH0 PUSH2 0x34CE PUSH1 0x15 DUP4 PUSH2 0x29AE JUMP JUMPDEST SWAP2 POP PUSH2 0x34D9 DUP3 PUSH2 0x349A JUMP JUMPDEST PUSH1 0x20 DUP3 ADD SWAP1 POP SWAP2 SWAP1 POP JUMP JUMPDEST PUSH0 PUSH1 0x20 DUP3 ADD SWAP1 POP DUP2 DUP2 SUB PUSH0 DUP4 ADD MSTORE PUSH2 0x34FB DUP2 PUSH2 0x34C2 JUMP JUMPDEST SWAP1 POP SWAP2 SWAP1 POP JUMP JUMPDEST PUSH32 0x496E73756666696369656E7420546F6B656E2066756E64732100000000000000 PUSH0 DUP3 ADD MSTORE POP JUMP JUMPDEST PUSH0 PUSH2 0x3536 PUSH1 0x19 DUP4 PUSH2 0x29AE JUMP JUMPDEST SWAP2 POP PUSH2 0x3541 DUP3 PUSH2 0x3502 JUMP JUMPDEST PUSH1 0x20 DUP3 ADD SWAP1 POP SWAP2 SWAP1 POP JUMP JUMPDEST PUSH0 PUSH1 0x20 DUP3 ADD SWAP1 POP DUP2 DUP2 SUB PUSH0 DUP4 ADD MSTORE PUSH2 0x3563 DUP2 PUSH2 0x352A JUMP JUMPDEST SWAP1 POP SWAP2 SWAP1 POP JUMP JUMPDEST PUSH0 PUSH2 0x3574 DUP3 PUSH2 0x28F9 JUMP JUMPDEST SWAP2 POP PUSH2 0x357F DUP4 PUSH2 0x28F9 JUMP JUMPDEST SWAP3 POP DUP3 DUP3 SUB SWAP1 POP DUP2 DUP2 GT ISZERO PUSH2 0x3597 JUMPI PUSH2 0x3596 PUSH2 0x2FF4 JUMP JUMPDEST JUMPDEST SWAP3 SWAP2 POP POP JUMP JUMPDEST PUSH0 PUSH1 0x60 DUP3 ADD SWAP1 POP PUSH2 0x35B0 PUSH0 DUP4 ADD DUP7 PUSH2 0x2D7C JUMP JUMPDEST PUSH2 0x35BD PUSH1 0x20 DUP4 ADD DUP6 PUSH2 0x2D7C JUMP JUMPDEST PUSH2 0x35CA PUSH1 0x40 DUP4 ADD DUP5 PUSH2 0x297C JUMP JUMPDEST SWAP5 SWAP4 POP POP POP POP JUMP JUMPDEST PUSH2 0x35DB DUP2 PUSH2 0x2ACC JUMP JUMPDEST DUP2 EQ PUSH2 0x35E5 JUMPI PUSH0 PUSH0 REVERT JUMPDEST POP JUMP JUMPDEST PUSH0 DUP2 MLOAD SWAP1 POP PUSH2 0x35F6 DUP2 PUSH2 0x35D2 JUMP JUMPDEST SWAP3 SWAP2 POP POP JUMP JUMPDEST PUSH0 PUSH1 0x20 DUP3 DUP5 SUB SLT ISZERO PUSH2 0x3611 JUMPI PUSH2 0x3610 PUSH2 0x28F1 JUMP JUMPDEST JUMPDEST PUSH0 PUSH2 0x361E DUP5 DUP3 DUP6 ADD PUSH2 0x35E8 JUMP JUMPDEST SWAP2 POP POP SWAP3 SWAP2 POP POP JUMP JUMPDEST PUSH0 PUSH1 0x40 DUP3 ADD SWAP1 POP PUSH2 0x363A PUSH0 DUP4 ADD DUP6 PUSH2 0x2D7C JUMP JUMPDEST PUSH2 0x3647 PUSH1 0x20 DUP4 ADD DUP5 PUSH2 0x297C JUMP JUMPDEST SWAP4 SWAP3 POP POP POP JUMP JUMPDEST PUSH32 0x446561646C696E65207265616368656421000000000000000000000000000000 PUSH0 DUP3 ADD MSTORE POP JUMP JUMPDEST PUSH0 PUSH2 0x3682 PUSH1 0x11 DUP4 PUSH2 0x29AE JUMP JUMPDEST SWAP2 POP PUSH2 0x368D DUP3 PUSH2 0x364E JUMP JUMPDEST PUSH1 0x20 DUP3 ADD SWAP1 POP SWAP2 SWAP1 POP JUMP JUMPDEST PUSH0 PUSH1 0x20 DUP3 ADD SWAP1 POP DUP2 DUP2 SUB PUSH0 DUP4 ADD MSTORE PUSH2 0x36AF DUP2 PUSH2 0x3676 JUMP JUMPDEST SWAP1 POP SWAP2 SWAP1 POP JUMP JUMPDEST PUSH32 0x4E6F20617661696C61626C65206C697175696469747920746F6B656E73210000 PUSH0 DUP3 ADD MSTORE POP JUMP JUMPDEST PUSH0 PUSH2 0x36EA PUSH1 0x1E DUP4 PUSH2 0x29AE JUMP JUMPDEST SWAP2 POP PUSH2 0x36F5 DUP3 PUSH2 0x36B6 JUMP JUMPDEST PUSH1 0x20 DUP3 ADD SWAP1 POP SWAP2 SWAP1 POP JUMP JUMPDEST PUSH0 PUSH1 0x20 DUP3 ADD SWAP1 POP DUP2 DUP2 SUB PUSH0 DUP4 ADD MSTORE PUSH2 0x3717 DUP2 PUSH2 0x36DE JUMP JUMPDEST SWAP1 POP SWAP2 SWAP1 POP JUMP JUMPDEST PUSH32 0x496E73756666696369656E74204C697175696469747920546F6B656E73210000 PUSH0 DUP3 ADD MSTORE POP JUMP JUMPDEST PUSH0 PUSH2 0x3752 PUSH1 0x1E DUP4 PUSH2 0x29AE JUMP JUMPDEST SWAP2 POP PUSH2 0x375D DUP3 PUSH2 0x371E JUMP JUMPDEST PUSH1 0x20 DUP3 ADD SWAP1 POP SWAP2 SWAP1 POP JUMP JUMPDEST PUSH0 PUSH1 0x20 DUP3 ADD SWAP1 POP DUP2 DUP2 SUB PUSH0 DUP4 ADD MSTORE PUSH2 0x377F DUP2 PUSH2 0x3746 JUMP JUMPDEST SWAP1 POP SWAP2 SWAP1 POP JUMP JUMPDEST PUSH32 0x4E6F74206D65657420746865206D696E696D756D20666F7220546F6B656E4121 PUSH0 DUP3 ADD MSTORE POP JUMP JUMPDEST PUSH0 PUSH2 0x37BA PUSH1 0x20 DUP4 PUSH2 0x29AE JUMP JUMPDEST SWAP2 POP PUSH2 0x37C5 DUP3 PUSH2 0x3786 JUMP JUMPDEST PUSH1 0x20 DUP3 ADD SWAP1 POP SWAP2 SWAP1 POP JUMP JUMPDEST PUSH0 PUSH1 0x20 DUP3 ADD SWAP1 POP DUP2 DUP2 SUB PUSH0 DUP4 ADD MSTORE PUSH2 0x37E7 DUP2 PUSH2 0x37AE JUMP JUMPDEST SWAP1 POP SWAP2 SWAP1 POP JUMP JUMPDEST PUSH32 0x4E6F74206D65657420746865206D696E696D756D20666F7220546F6B656E4221 PUSH0 DUP3 ADD MSTORE POP JUMP JUMPDEST PUSH0 PUSH2 0x3822 PUSH1 0x20 DUP4 PUSH2 0x29AE JUMP JUMPDEST SWAP2 POP PUSH2 0x382D DUP3 PUSH2 0x37EE JUMP JUMPDEST PUSH1 0x20 DUP3 ADD SWAP1 POP SWAP2 SWAP1 POP JUMP JUMPDEST PUSH0 PUSH1 0x20 DUP3 ADD SWAP1 POP DUP2 DUP2 SUB PUSH0 DUP4 ADD MSTORE PUSH2 0x384F DUP2 PUSH2 0x3816 JUMP JUMPDEST SWAP1 POP SWAP2 SWAP1 POP JUMP JUMPDEST PUSH32 0x496E73756666696369656E7420546F6B656E4121000000000000000000000000 PUSH0 DUP3 ADD MSTORE POP JUMP JUMPDEST PUSH0 PUSH2 0x388A PUSH1 0x14 DUP4 PUSH2 0x29AE JUMP JUMPDEST SWAP2 POP PUSH2 0x3895 DUP3 PUSH2 0x3856 JUMP JUMPDEST PUSH1 0x20 DUP3 ADD SWAP1 POP SWAP2 SWAP1 POP JUMP JUMPDEST PUSH0 PUSH1 0x20 DUP3 ADD SWAP1 POP DUP2 DUP2 SUB PUSH0 DUP4 ADD MSTORE PUSH2 0x38B7 DUP2 PUSH2 0x387E JUMP JUMPDEST SWAP1 POP SWAP2 SWAP1 POP JUMP JUMPDEST PUSH32 0x496E73756666696369656E7420546F6B656E4221000000000000000000000000 PUSH0 DUP3 ADD MSTORE POP JUMP JUMPDEST PUSH0 PUSH2 0x38F2 PUSH1 0x14 DUP4 PUSH2 0x29AE JUMP JUMPDEST SWAP2 POP PUSH2 0x38FD DUP3 PUSH2 0x38BE JUMP JUMPDEST PUSH1 0x20 DUP3 ADD SWAP1 POP SWAP2 SWAP1 POP JUMP JUMPDEST PUSH0 PUSH1 0x20 DUP3 ADD SWAP1 POP DUP2 DUP2 SUB PUSH0 DUP4 ADD MSTORE PUSH2 0x391F DUP2 PUSH2 0x38E6 JUMP JUMPDEST SWAP1 POP SWAP2 SWAP1 POP JUMP JUMPDEST PUSH32 0x496E73756666696369656E7420546F6B656E412066756E647321000000000000 PUSH0 DUP3 ADD MSTORE POP JUMP JUMPDEST PUSH0 PUSH2 0x395A PUSH1 0x1A DUP4 PUSH2 0x29AE JUMP JUMPDEST SWAP2 POP PUSH2 0x3965 DUP3 PUSH2 0x3926 JUMP JUMPDEST PUSH1 0x20 DUP3 ADD SWAP1 POP SWAP2 SWAP1 POP JUMP JUMPDEST PUSH0 PUSH1 0x20 DUP3 ADD SWAP1 POP DUP2 DUP2 SUB PUSH0 DUP4 ADD MSTORE PUSH2 0x3987 DUP2 PUSH2 0x394E JUMP JUMPDEST SWAP1 POP SWAP2 SWAP1 POP JUMP JUMPDEST PUSH32 0x496E73756666696369656E7420546F6B656E422066756E647321000000000000 PUSH0 DUP3 ADD MSTORE POP JUMP JUMPDEST PUSH0 PUSH2 0x39C2 PUSH1 0x1A DUP4 PUSH2 0x29AE JUMP JUMPDEST SWAP2 POP PUSH2 0x39CD DUP3 PUSH2 0x398E JUMP JUMPDEST PUSH1 0x20 DUP3 ADD SWAP1 POP SWAP2 SWAP1 POP JUMP JUMPDEST PUSH0 PUSH1 0x20 DUP3 ADD SWAP1 POP DUP2 DUP2 SUB PUSH0 DUP4 ADD MSTORE PUSH2 0x39EF DUP2 PUSH2 0x39B6 JUMP JUMPDEST SWAP1 POP SWAP2 SWAP1 POP JUMP JUMPDEST PUSH0 PUSH1 0x60 DUP3 ADD SWAP1 POP PUSH2 0x3A09 PUSH0 DUP4 ADD DUP7 PUSH2 0x2D7C JUMP JUMPDEST PUSH2 0x3A16 PUSH1 0x20 DUP4 ADD DUP6 PUSH2 0x297C JUMP JUMPDEST PUSH2 0x3A23 PUSH1 0x40 DUP4 ADD DUP5 PUSH2 0x297C JUMP JUMPDEST SWAP5 SWAP4 POP POP POP POP JUMP INVALID LOG2 PUSH5 0x6970667358 0x22 SLT KECCAK256 0xE0 MCOPY SWAP14 PUSH14 0xA511018B598AE28192853E0824EB 0x1F PC ADDMOD PUSH22 0xF3F861FF52E7F279D3CD64736F6C634300081B003300 "
		},
		"gasEstimates": {
			"creation": {
				"codeDepositCost": "2989000",
				"executionCost": "infinite",
				"totalCost": "infinite"
			},
			"external": {
				"addLiquidity(address,address,uint256,uint256,uint256,uint256,address,uint256)": "infinite",
				"allowance(address,address)": "infinite",
				"approve(address,uint256)": "infinite",
				"balanceOf(address)": "2961",
				"decimals()": "383",
				"getAmountOut(uint256,uint256,uint256)": "infinite",
				"getPrice(address,address)": "infinite",
				"name()": "infinite",
				"owner()": "2633",
				"pause()": "infinite",
				"paused()": "2584",
				"removeLiquidity(address,address,uint256,uint256,uint256,address,uint256)": "infinite",
				"renounceOwnership()": "infinite",
				"reserveA()": "2491",
				"reserveB()": "2537",
				"swapExactTokensForTokens(uint256,uint256,address[],address,uint256)": "infinite",
				"symbol()": "infinite",
				"totalSupply()": "2522",
				"transfer(address,uint256)": "infinite",
				"transferFrom(address,address,uint256)": "infinite",
				"transferOwnership(address)": "infinite",
				"unpause()": "infinite"
			},
			"internal": {
				"_update(address,address,uint256)": "infinite",
				"calculateLiquidityAmounts(uint256,uint256)": "infinite",
				"calculateLiquidityToken(uint256,uint256)": "infinite",
				"calculateTokenAmounts(uint256)": "infinite"
			}
		},
		"methodIdentifiers": {
			"addLiquidity(address,address,uint256,uint256,uint256,uint256,address,uint256)": "e8e33700",
			"allowance(address,address)": "dd62ed3e",
			"approve(address,uint256)": "095ea7b3",
			"balanceOf(address)": "70a08231",
			"decimals()": "313ce567",
			"getAmountOut(uint256,uint256,uint256)": "054d50d4",
			"getPrice(address,address)": "ac41865a",
			"name()": "06fdde03",
			"owner()": "8da5cb5b",
			"pause()": "8456cb59",
			"paused()": "5c975abb",
			"removeLiquidity(address,address,uint256,uint256,uint256,address,uint256)": "baa2abde",
			"renounceOwnership()": "715018a6",
			"reserveA()": "dc5fa6c5",
			"reserveB()": "19e36f3b",
			"swapExactTokensForTokens(uint256,uint256,address[],address,uint256)": "38ed1739",
			"symbol()": "95d89b41",
			"totalSupply()": "18160ddd",
			"transfer(address,uint256)": "a9059cbb",
			"transferFrom(address,address,uint256)": "23b872dd",
			"transferOwnership(address)": "f2fde38b",
			"unpause()": "3f4ba83a"
		}
	},
	"abi": [
		{
			"inputs": [
				{
					"internalType": "address",
					"name": "initialOwner",
					"type": "address"
				}
			],
			"stateMutability": "nonpayable",
			"type": "constructor"
		},
		{
			"inputs": [
				{
					"internalType": "address",
					"name": "spender",
					"type": "address"
				},
				{
					"internalType": "uint256",
					"name": "allowance",
					"type": "uint256"
				},
				{
					"internalType": "uint256",
					"name": "needed",
					"type": "uint256"
				}
			],
			"name": "ERC20InsufficientAllowance",
			"type": "error"
		},
		{
			"inputs": [
				{
					"internalType": "address",
					"name": "sender",
					"type": "address"
				},
				{
					"internalType": "uint256",
					"name": "balance",
					"type": "uint256"
				},
				{
					"internalType": "uint256",
					"name": "needed",
					"type": "uint256"
				}
			],
			"name": "ERC20InsufficientBalance",
			"type": "error"
		},
		{
			"inputs": [
				{
					"internalType": "address",
					"name": "approver",
					"type": "address"
				}
			],
			"name": "ERC20InvalidApprover",
			"type": "error"
		},
		{
			"inputs": [
				{
					"internalType": "address",
					"name": "receiver",
					"type": "address"
				}
			],
			"name": "ERC20InvalidReceiver",
			"type": "error"
		},
		{
			"inputs": [
				{
					"internalType": "address",
					"name": "sender",
					"type": "address"
				}
			],
			"name": "ERC20InvalidSender",
			"type": "error"
		},
		{
			"inputs": [
				{
					"internalType": "address",
					"name": "spender",
					"type": "address"
				}
			],
			"name": "ERC20InvalidSpender",
			"type": "error"
		},
		{
			"inputs": [],
			"name": "EnforcedPause",
			"type": "error"
		},
		{
			"inputs": [],
			"name": "ExpectedPause",
			"type": "error"
		},
		{
			"inputs": [
				{
					"internalType": "address",
					"name": "owner",
					"type": "address"
				}
			],
			"name": "OwnableInvalidOwner",
			"type": "error"
		},
		{
			"inputs": [
				{
					"internalType": "address",
					"name": "account",
					"type": "address"
				}
			],
			"name": "OwnableUnauthorizedAccount",
			"type": "error"
		},
		{
			"anonymous": false,
			"inputs": [
				{
					"indexed": true,
					"internalType": "address",
					"name": "owner",
					"type": "address"
				},
				{
					"indexed": true,
					"internalType": "address",
					"name": "spender",
					"type": "address"
				},
				{
					"indexed": false,
					"internalType": "uint256",
					"name": "value",
					"type": "uint256"
				}
			],
			"name": "Approval",
			"type": "event"
		},
		{
			"anonymous": false,
			"inputs": [
				{
					"indexed": true,
					"internalType": "address",
					"name": "previousOwner",
					"type": "address"
				},
				{
					"indexed": true,
					"internalType": "address",
					"name": "newOwner",
					"type": "address"
				}
			],
			"name": "OwnershipTransferred",
			"type": "event"
		},
		{
			"anonymous": false,
			"inputs": [
				{
					"indexed": false,
					"internalType": "address",
					"name": "account",
					"type": "address"
				}
			],
			"name": "Paused",
			"type": "event"
		},
		{
			"anonymous": false,
			"inputs": [
				{
					"indexed": true,
					"internalType": "address",
					"name": "from",
					"type": "address"
				},
				{
					"indexed": true,
					"internalType": "address",
					"name": "to",
					"type": "address"
				},
				{
					"indexed": false,
					"internalType": "uint256",
					"name": "value",
					"type": "uint256"
				}
			],
			"name": "Transfer",
			"type": "event"
		},
		{
			"anonymous": false,
			"inputs": [
				{
					"indexed": false,
					"internalType": "address",
					"name": "account",
					"type": "address"
				}
			],
			"name": "Unpaused",
			"type": "event"
		},
		{
			"inputs": [
				{
					"internalType": "address",
					"name": "tokenA",
					"type": "address"
				},
				{
					"internalType": "address",
					"name": "tokenB",
					"type": "address"
				},
				{
					"internalType": "uint256",
					"name": "amountADesired",
					"type": "uint256"
				},
				{
					"internalType": "uint256",
					"name": "amountBDesired",
					"type": "uint256"
				},
				{
					"internalType": "uint256",
					"name": "amountAMin",
					"type": "uint256"
				},
				{
					"internalType": "uint256",
					"name": "amountBMin",
					"type": "uint256"
				},
				{
					"internalType": "address",
					"name": "to",
					"type": "address"
				},
				{
					"internalType": "uint256",
					"name": "deadline",
					"type": "uint256"
				}
			],
			"name": "addLiquidity",
			"outputs": [
				{
					"internalType": "uint256",
					"name": "amountA",
					"type": "uint256"
				},
				{
					"internalType": "uint256",
					"name": "amountB",
					"type": "uint256"
				},
				{
					"internalType": "uint256",
					"name": "liquidity",
					"type": "uint256"
				}
			],
			"stateMutability": "nonpayable",
			"type": "function"
		},
		{
			"inputs": [
				{
					"internalType": "address",
					"name": "owner",
					"type": "address"
				},
				{
					"internalType": "address",
					"name": "spender",
					"type": "address"
				}
			],
			"name": "allowance",
			"outputs": [
				{
					"internalType": "uint256",
					"name": "",
					"type": "uint256"
				}
			],
			"stateMutability": "view",
			"type": "function"
		},
		{
			"inputs": [
				{
					"internalType": "address",
					"name": "spender",
					"type": "address"
				},
				{
					"internalType": "uint256",
					"name": "value",
					"type": "uint256"
				}
			],
			"name": "approve",
			"outputs": [
				{
					"internalType": "bool",
					"name": "",
					"type": "bool"
				}
			],
			"stateMutability": "nonpayable",
			"type": "function"
		},
		{
			"inputs": [
				{
					"internalType": "address",
					"name": "account",
					"type": "address"
				}
			],
			"name": "balanceOf",
			"outputs": [
				{
					"internalType": "uint256",
					"name": "",
					"type": "uint256"
				}
			],
			"stateMutability": "view",
			"type": "function"
		},
		{
			"inputs": [],
			"name": "decimals",
			"outputs": [
				{
					"internalType": "uint8",
					"name": "",
					"type": "uint8"
				}
			],
			"stateMutability": "view",
			"type": "function"
		},
		{
			"inputs": [
				{
					"internalType": "uint256",
					"name": "amountIn",
					"type": "uint256"
				},
				{
					"internalType": "uint256",
					"name": "reserveIn",
					"type": "uint256"
				},
				{
					"internalType": "uint256",
					"name": "reserveOut",
					"type": "uint256"
				}
			],
			"name": "getAmountOut",
			"outputs": [
				{
					"internalType": "uint256",
					"name": "amountOut",
					"type": "uint256"
				}
			],
			"stateMutability": "pure",
			"type": "function"
		},
		{
			"inputs": [
				{
					"internalType": "address",
					"name": "tokenA",
					"type": "address"
				},
				{
					"internalType": "address",
					"name": "tokenB",
					"type": "address"
				}
			],
			"name": "getPrice",
			"outputs": [
				{
					"internalType": "uint256",
					"name": "price",
					"type": "uint256"
				}
			],
			"stateMutability": "view",
			"type": "function"
		},
		{
			"inputs": [],
			"name": "name",
			"outputs": [
				{
					"internalType": "string",
					"name": "",
					"type": "string"
				}
			],
			"stateMutability": "view",
			"type": "function"
		},
		{
			"inputs": [],
			"name": "owner",
			"outputs": [
				{
					"internalType": "address",
					"name": "",
					"type": "address"
				}
			],
			"stateMutability": "view",
			"type": "function"
		},
		{
			"inputs": [],
			"name": "pause",
			"outputs": [],
			"stateMutability": "nonpayable",
			"type": "function"
		},
		{
			"inputs": [],
			"name": "paused",
			"outputs": [
				{
					"internalType": "bool",
					"name": "",
					"type": "bool"
				}
			],
			"stateMutability": "view",
			"type": "function"
		},
		{
			"inputs": [
				{
					"internalType": "address",
					"name": "tokenA",
					"type": "address"
				},
				{
					"internalType": "address",
					"name": "tokenB",
					"type": "address"
				},
				{
					"internalType": "uint256",
					"name": "liquidity",
					"type": "uint256"
				},
				{
					"internalType": "uint256",
					"name": "amountAMin",
					"type": "uint256"
				},
				{
					"internalType": "uint256",
					"name": "amountBMin",
					"type": "uint256"
				},
				{
					"internalType": "address",
					"name": "to",
					"type": "address"
				},
				{
					"internalType": "uint256",
					"name": "deadline",
					"type": "uint256"
				}
			],
			"name": "removeLiquidity",
			"outputs": [
				{
					"internalType": "uint256",
					"name": "amountA",
					"type": "uint256"
				},
				{
					"internalType": "uint256",
					"name": "amountB",
					"type": "uint256"
				}
			],
			"stateMutability": "nonpayable",
			"type": "function"
		},
		{
			"inputs": [],
			"name": "renounceOwnership",
			"outputs": [],
			"stateMutability": "nonpayable",
			"type": "function"
		},
		{
			"inputs": [],
			"name": "reserveA",
			"outputs": [
				{
					"internalType": "uint256",
					"name": "",
					"type": "uint256"
				}
			],
			"stateMutability": "view",
			"type": "function"
		},
		{
			"inputs": [],
			"name": "reserveB",
			"outputs": [
				{
					"internalType": "uint256",
					"name": "",
					"type": "uint256"
				}
			],
			"stateMutability": "view",
			"type": "function"
		},
		{
			"inputs": [
				{
					"internalType": "uint256",
					"name": "amountIn",
					"type": "uint256"
				},
				{
					"internalType": "uint256",
					"name": "amountOutMin",
					"type": "uint256"
				},
				{
					"internalType": "address[]",
					"name": "path",
					"type": "address[]"
				},
				{
					"internalType": "address",
					"name": "to",
					"type": "address"
				},
				{
					"internalType": "uint256",
					"name": "deadline",
					"type": "uint256"
				}
			],
			"name": "swapExactTokensForTokens",
			"outputs": [
				{
					"internalType": "uint256[]",
					"name": "amounts",
					"type": "uint256[]"
				}
			],
			"stateMutability": "nonpayable",
			"type": "function"
		},
		{
			"inputs": [],
			"name": "symbol",
			"outputs": [
				{
					"internalType": "string",
					"name": "",
					"type": "string"
				}
			],
			"stateMutability": "view",
			"type": "function"
		},
		{
			"inputs": [],
			"name": "totalSupply",
			"outputs": [
				{
					"internalType": "uint256",
					"name": "",
					"type": "uint256"
				}
			],
			"stateMutability": "view",
			"type": "function"
		},
		{
			"inputs": [
				{
					"internalType": "address",
					"name": "to",
					"type": "address"
				},
				{
					"internalType": "uint256",
					"name": "value",
					"type": "uint256"
				}
			],
			"name": "transfer",
			"outputs": [
				{
					"internalType": "bool",
					"name": "",
					"type": "bool"
				}
			],
			"stateMutability": "nonpayable",
			"type": "function"
		},
		{
			"inputs": [
				{
					"internalType": "address",
					"name": "from",
					"type": "address"
				},
				{
					"internalType": "address",
					"name": "to",
					"type": "address"
				},
				{
					"internalType": "uint256",
					"name": "value",
					"type": "uint256"
				}
			],
			"name": "transferFrom",
			"outputs": [
				{
					"internalType": "bool",
					"name": "",
					"type": "bool"
				}
			],
			"stateMutability": "nonpayable",
			"type": "function"
		},
		{
			"inputs": [
				{
					"internalType": "address",
					"name": "newOwner",
					"type": "address"
				}
			],
			"name": "transferOwnership",
			"outputs": [],
			"stateMutability": "nonpayable",
			"type": "function"
		},
		{
			"inputs": [],
			"name": "unpause",
			"outputs": [],
			"stateMutability": "nonpayable",
			"type": "function"
		}
	]
}