{
	"tp2/auction.sol": {
		"Auction": {
			"abi": [
				{
					"inputs": [
						{
							"internalType": "uint256",
							"name": "_duration",
							"type": "uint256"
						},
						{
							"internalType": "uint256",
							"name": "base",
							"type": "uint256"
						},
						{
							"internalType": "string",
							"name": "item",
							"type": "string"
						}
					],
					"stateMutability": "nonpayable",
					"type": "constructor"
				},
				{
					"anonymous": false,
					"inputs": [
						{
							"indexed": true,
							"internalType": "string",
							"name": "auctioneItem",
							"type": "string"
						},
						{
							"indexed": true,
							"internalType": "address",
							"name": "winner",
							"type": "address"
						},
						{
							"indexed": false,
							"internalType": "uint256",
							"name": "amount",
							"type": "uint256"
						}
					],
					"name": "AuctionFinished",
					"type": "event"
				},
				{
					"anonymous": false,
					"inputs": [
						{
							"indexed": true,
							"internalType": "string",
							"name": "item",
							"type": "string"
						},
						{
							"indexed": false,
							"internalType": "uint256",
							"name": "base",
							"type": "uint256"
						}
					],
					"name": "AuctionOpened",
					"type": "event"
				},
				{
					"anonymous": false,
					"inputs": [
						{
							"indexed": false,
							"internalType": "address",
							"name": "bidder",
							"type": "address"
						},
						{
							"indexed": false,
							"internalType": "uint256",
							"name": "amount",
							"type": "uint256"
						}
					],
					"name": "NewBid",
					"type": "event"
				},
				{
					"inputs": [],
					"name": "bid",
					"outputs": [],
					"stateMutability": "payable",
					"type": "function"
				},
				{
					"inputs": [],
					"name": "close",
					"outputs": [],
					"stateMutability": "nonpayable",
					"type": "function"
				},
				{
					"inputs": [],
					"name": "inforWinner",
					"outputs": [
						{
							"internalType": "address",
							"name": "winner",
							"type": "address"
						},
						{
							"internalType": "uint256",
							"name": "amount",
							"type": "uint256"
						}
					],
					"stateMutability": "view",
					"type": "function"
				},
				{
					"inputs": [],
					"name": "withdrawal",
					"outputs": [],
					"stateMutability": "nonpayable",
					"type": "function"
				}
			],
			"devdoc": {
				"kind": "dev",
				"methods": {},
				"version": 1
			},
			"evm": {
				"assembly": "    /* \"tp2/auction.sol\":58:4159  contract Auction {... */\n  mstore(0x40, 0x80)\n    /* \"tp2/auction.sol\":652:907  constructor(uint _duration, uint base, string memory item){... */\n  callvalue\n  dup1\n  iszero\n  tag_1\n  jumpi\n  0x00\n  dup1\n  revert\ntag_1:\n  pop\n  mload(0x40)\n  sub(codesize, bytecodeSize)\n  dup1\n  bytecodeSize\n  dup4\n  codecopy\n  dup2\n  dup2\n  add\n  0x40\n  mstore\n  dup2\n  add\n  swap1\n  tag_2\n  swap2\n  swap1\n  tag_3\n  jump\t// in\ntag_2:\n    /* \"tp2/auction.sol\":728:738  msg.sender */\n  caller\n    /* \"tp2/auction.sol\":720:725  admin */\n  0x07\n  0x00\n    /* \"tp2/auction.sol\":720:738  admin = msg.sender */\n  0x0100\n  exp\n  dup2\n  sload\n  dup2\n  0xffffffffffffffffffffffffffffffffffffffff\n  mul\n  not\n  and\n  swap1\n  dup4\n  0xffffffffffffffffffffffffffffffffffffffff\n  and\n  mul\n  or\n  swap1\n  sstore\n  pop\n    /* \"tp2/auction.sol\":763:767  item */\n  dup1\n    /* \"tp2/auction.sol\":748:760  auctioneItem */\n  0x08\n    /* \"tp2/auction.sol\":748:767  auctioneItem = item */\n  swap1\n  dup2\n  tag_6\n  swap2\n  swap1\n  tag_7\n  jump\t// in\ntag_6:\n  pop\n    /* \"tp2/auction.sol\":812:821  _duration */\n  dup3\n    /* \"tp2/auction.sol\":794:809  block.timestamp */\n  timestamp\n    /* \"tp2/auction.sol\":794:821  block.timestamp + _duration */\n  tag_8\n  swap2\n  swap1\n  tag_9\n  jump\t// in\ntag_8:\n    /* \"tp2/auction.sol\":777:791  completionTime */\n  0x00\n    /* \"tp2/auction.sol\":777:821  completionTime = block.timestamp + _duration */\n  dup2\n  swap1\n  sstore\n  pop\n    /* \"tp2/auction.sol\":843:847  base */\n  dup2\n    /* \"tp2/auction.sol\":831:840  basePrice */\n  0x01\n    /* \"tp2/auction.sol\":831:847  basePrice = base */\n  dup2\n  swap1\n  sstore\n  pop\n    /* \"tp2/auction.sol\":876:888  auctioneItem */\n  0x08\n    /* \"tp2/auction.sol\":862:900  AuctionOpened(auctioneItem, basePrice) */\n  mload(0x40)\n  tag_10\n  swap2\n  swap1\n  tag_11\n  jump\t// in\ntag_10:\n  mload(0x40)\n  dup1\n  swap2\n  sub\n  swap1\n  keccak256\n  0x88b524d6621d7de004458e51f7f3a0dec805641fc7853fa1c25d15a1266b459e\n    /* \"tp2/auction.sol\":890:899  basePrice */\n  sload(0x01)\n    /* \"tp2/auction.sol\":862:900  AuctionOpened(auctioneItem, basePrice) */\n  mload(0x40)\n  tag_12\n  swap2\n  swap1\n  tag_13\n  jump\t// in\ntag_12:\n  mload(0x40)\n  dup1\n  swap2\n  sub\n  swap1\n  log2\n    /* \"tp2/auction.sol\":652:907  constructor(uint _duration, uint base, string memory item){... */\n  pop\n  pop\n  pop\n    /* \"tp2/auction.sol\":58:4159  contract Auction {... */\n  jump(tag_14)\n    /* \"#utility.yul\":7:82   */\ntag_15:\n    /* \"#utility.yul\":40:46   */\n  0x00\n    /* \"#utility.yul\":73:75   */\n  0x40\n    /* \"#utility.yul\":67:76   */\n  mload\n    /* \"#utility.yul\":57:76   */\n  swap1\n  pop\n    /* \"#utility.yul\":7:82   */\n  swap1\n  jump\t// out\n    /* \"#utility.yul\":88:205   */\ntag_16:\n    /* \"#utility.yul\":197:198   */\n  0x00\n    /* \"#utility.yul\":194:195   */\n  dup1\n    /* \"#utility.yul\":187:199   */\n  revert\n    /* \"#utility.yul\":211:328   */\ntag_17:\n    /* \"#utility.yul\":320:321   */\n  0x00\n    /* \"#utility.yul\":317:318   */\n  dup1\n    /* \"#utility.yul\":310:322   */\n  revert\n    /* \"#utility.yul\":334:411   */\ntag_18:\n    /* \"#utility.yul\":371:378   */\n  0x00\n    /* \"#utility.yul\":400:405   */\n  dup2\n    /* \"#utility.yul\":389:405   */\n  swap1\n  pop\n    /* \"#utility.yul\":334:411   */\n  swap2\n  swap1\n  pop\n  jump\t// out\n    /* \"#utility.yul\":417:539   */\ntag_19:\n    /* \"#utility.yul\":490:514   */\n  tag_59\n    /* \"#utility.yul\":508:513   */\n  dup2\n    /* \"#utility.yul\":490:514   */\n  tag_18\n  jump\t// in\ntag_59:\n    /* \"#utility.yul\":483:488   */\n  dup2\n    /* \"#utility.yul\":480:515   */\n  eq\n    /* \"#utility.yul\":470:533   */\n  tag_60\n  jumpi\n    /* \"#utility.yul\":529:530   */\n  0x00\n    /* \"#utility.yul\":526:527   */\n  dup1\n    /* \"#utility.yul\":519:531   */\n  revert\n    /* \"#utility.yul\":470:533   */\ntag_60:\n    /* \"#utility.yul\":417:539   */\n  pop\n  jump\t// out\n    /* \"#utility.yul\":545:688   */\ntag_20:\n    /* \"#utility.yul\":602:607   */\n  0x00\n    /* \"#utility.yul\":633:639   */\n  dup2\n    /* \"#utility.yul\":627:640   */\n  mload\n    /* \"#utility.yul\":618:640   */\n  swap1\n  pop\n    /* \"#utility.yul\":649:682   */\n  tag_62\n    /* \"#utility.yul\":676:681   */\n  dup2\n    /* \"#utility.yul\":649:682   */\n  tag_19\n  jump\t// in\ntag_62:\n    /* \"#utility.yul\":545:688   */\n  swap3\n  swap2\n  pop\n  pop\n  jump\t// out\n    /* \"#utility.yul\":694:811   */\ntag_21:\n    /* \"#utility.yul\":803:804   */\n  0x00\n    /* \"#utility.yul\":800:801   */\n  dup1\n    /* \"#utility.yul\":793:805   */\n  revert\n    /* \"#utility.yul\":817:934   */\ntag_22:\n    /* \"#utility.yul\":926:927   */\n  0x00\n    /* \"#utility.yul\":923:924   */\n  dup1\n    /* \"#utility.yul\":916:928   */\n  revert\n    /* \"#utility.yul\":940:1042   */\ntag_23:\n    /* \"#utility.yul\":981:987   */\n  0x00\n    /* \"#utility.yul\":1032:1034   */\n  0x1f\n    /* \"#utility.yul\":1028:1035   */\n  not\n    /* \"#utility.yul\":1023:1025   */\n  0x1f\n    /* \"#utility.yul\":1016:1021   */\n  dup4\n    /* \"#utility.yul\":1012:1026   */\n  add\n    /* \"#utility.yul\":1008:1036   */\n  and\n    /* \"#utility.yul\":998:1036   */\n  swap1\n  pop\n    /* \"#utility.yul\":940:1042   */\n  swap2\n  swap1\n  pop\n  jump\t// out\n    /* \"#utility.yul\":1048:1228   */\ntag_24:\n    /* \"#utility.yul\":1096:1173   */\n  0x4e487b7100000000000000000000000000000000000000000000000000000000\n    /* \"#utility.yul\":1093:1094   */\n  0x00\n    /* \"#utility.yul\":1086:1174   */\n  mstore\n    /* \"#utility.yul\":1193:1197   */\n  0x41\n    /* \"#utility.yul\":1190:1191   */\n  0x04\n    /* \"#utility.yul\":1183:1198   */\n  mstore\n    /* \"#utility.yul\":1217:1221   */\n  0x24\n    /* \"#utility.yul\":1214:1215   */\n  0x00\n    /* \"#utility.yul\":1207:1222   */\n  revert\n    /* \"#utility.yul\":1234:1515   */\ntag_25:\n    /* \"#utility.yul\":1317:1344   */\n  tag_68\n    /* \"#utility.yul\":1339:1343   */\n  dup3\n    /* \"#utility.yul\":1317:1344   */\n  tag_23\n  jump\t// in\ntag_68:\n    /* \"#utility.yul\":1309:1315   */\n  dup2\n    /* \"#utility.yul\":1305:1345   */\n  add\n    /* \"#utility.yul\":1447:1453   */\n  dup2\n    /* \"#utility.yul\":1435:1445   */\n  dup2\n    /* \"#utility.yul\":1432:1454   */\n  lt\n    /* \"#utility.yul\":1411:1429   */\n  0xffffffffffffffff\n    /* \"#utility.yul\":1399:1409   */\n  dup3\n    /* \"#utility.yul\":1396:1430   */\n  gt\n    /* \"#utility.yul\":1393:1455   */\n  or\n    /* \"#utility.yul\":1390:1478   */\n  iszero\n  tag_69\n  jumpi\n    /* \"#utility.yul\":1458:1476   */\n  tag_70\n  tag_24\n  jump\t// in\ntag_70:\n    /* \"#utility.yul\":1390:1478   */\ntag_69:\n    /* \"#utility.yul\":1498:1508   */\n  dup1\n    /* \"#utility.yul\":1494:1496   */\n  0x40\n    /* \"#utility.yul\":1487:1509   */\n  mstore\n    /* \"#utility.yul\":1277:1515   */\n  pop\n    /* \"#utility.yul\":1234:1515   */\n  pop\n  pop\n  jump\t// out\n    /* \"#utility.yul\":1521:1650   */\ntag_26:\n    /* \"#utility.yul\":1555:1561   */\n  0x00\n    /* \"#utility.yul\":1582:1602   */\n  tag_72\n  tag_15\n  jump\t// in\ntag_72:\n    /* \"#utility.yul\":1572:1602   */\n  swap1\n  pop\n    /* \"#utility.yul\":1611:1644   */\n  tag_73\n    /* \"#utility.yul\":1639:1643   */\n  dup3\n    /* \"#utility.yul\":1631:1637   */\n  dup3\n    /* \"#utility.yul\":1611:1644   */\n  tag_25\n  jump\t// in\ntag_73:\n    /* \"#utility.yul\":1521:1650   */\n  swap2\n  swap1\n  pop\n  jump\t// out\n    /* \"#utility.yul\":1656:1964   */\ntag_27:\n    /* \"#utility.yul\":1718:1722   */\n  0x00\n    /* \"#utility.yul\":1808:1826   */\n  0xffffffffffffffff\n    /* \"#utility.yul\":1800:1806   */\n  dup3\n    /* \"#utility.yul\":1797:1827   */\n  gt\n    /* \"#utility.yul\":1794:1850   */\n  iszero\n  tag_75\n  jumpi\n    /* \"#utility.yul\":1830:1848   */\n  tag_76\n  tag_24\n  jump\t// in\ntag_76:\n    /* \"#utility.yul\":1794:1850   */\ntag_75:\n    /* \"#utility.yul\":1868:1897   */\n  tag_77\n    /* \"#utility.yul\":1890:1896   */\n  dup3\n    /* \"#utility.yul\":1868:1897   */\n  tag_23\n  jump\t// in\ntag_77:\n    /* \"#utility.yul\":1860:1897   */\n  swap1\n  pop\n    /* \"#utility.yul\":1952:1956   */\n  0x20\n    /* \"#utility.yul\":1946:1950   */\n  dup2\n    /* \"#utility.yul\":1942:1957   */\n  add\n    /* \"#utility.yul\":1934:1957   */\n  swap1\n  pop\n    /* \"#utility.yul\":1656:1964   */\n  swap2\n  swap1\n  pop\n  jump\t// out\n    /* \"#utility.yul\":1970:2109   */\ntag_28:\n    /* \"#utility.yul\":2059:2065   */\n  dup3\n    /* \"#utility.yul\":2054:2057   */\n  dup2\n    /* \"#utility.yul\":2049:2052   */\n  dup4\n    /* \"#utility.yul\":2043:2066   */\n  mcopy\n    /* \"#utility.yul\":2100:2101   */\n  0x00\n    /* \"#utility.yul\":2091:2097   */\n  dup4\n    /* \"#utility.yul\":2086:2089   */\n  dup4\n    /* \"#utility.yul\":2082:2098   */\n  add\n    /* \"#utility.yul\":2075:2102   */\n  mstore\n    /* \"#utility.yul\":1970:2109   */\n  pop\n  pop\n  pop\n  jump\t// out\n    /* \"#utility.yul\":2115:2549   */\ntag_29:\n    /* \"#utility.yul\":2204:2209   */\n  0x00\n    /* \"#utility.yul\":2229:2295   */\n  tag_80\n    /* \"#utility.yul\":2245:2294   */\n  tag_81\n    /* \"#utility.yul\":2287:2293   */\n  dup5\n    /* \"#utility.yul\":2245:2294   */\n  tag_27\n  jump\t// in\ntag_81:\n    /* \"#utility.yul\":2229:2295   */\n  tag_26\n  jump\t// in\ntag_80:\n    /* \"#utility.yul\":2220:2295   */\n  swap1\n  pop\n    /* \"#utility.yul\":2318:2324   */\n  dup3\n    /* \"#utility.yul\":2311:2316   */\n  dup2\n    /* \"#utility.yul\":2304:2325   */\n  mstore\n    /* \"#utility.yul\":2356:2360   */\n  0x20\n    /* \"#utility.yul\":2349:2354   */\n  dup2\n    /* \"#utility.yul\":2345:2361   */\n  add\n    /* \"#utility.yul\":2394:2397   */\n  dup5\n    /* \"#utility.yul\":2385:2391   */\n  dup5\n    /* \"#utility.yul\":2380:2383   */\n  dup5\n    /* \"#utility.yul\":2376:2392   */\n  add\n    /* \"#utility.yul\":2373:2398   */\n  gt\n    /* \"#utility.yul\":2370:2482   */\n  iszero\n  tag_82\n  jumpi\n    /* \"#utility.yul\":2401:2480   */\n  tag_83\n  tag_22\n  jump\t// in\ntag_83:\n    /* \"#utility.yul\":2370:2482   */\ntag_82:\n    /* \"#utility.yul\":2491:2543   */\n  tag_84\n    /* \"#utility.yul\":2536:2542   */\n  dup5\n    /* \"#utility.yul\":2531:2534   */\n  dup3\n    /* \"#utility.yul\":2526:2529   */\n  dup6\n    /* \"#utility.yul\":2491:2543   */\n  tag_28\n  jump\t// in\ntag_84:\n    /* \"#utility.yul\":2210:2549   */\n  pop\n    /* \"#utility.yul\":2115:2549   */\n  swap4\n  swap3\n  pop\n  pop\n  pop\n  jump\t// out\n    /* \"#utility.yul\":2569:2924   */\ntag_30:\n    /* \"#utility.yul\":2636:2641   */\n  0x00\n    /* \"#utility.yul\":2685:2688   */\n  dup3\n    /* \"#utility.yul\":2678:2682   */\n  0x1f\n    /* \"#utility.yul\":2670:2676   */\n  dup4\n    /* \"#utility.yul\":2666:2683   */\n  add\n    /* \"#utility.yul\":2662:2689   */\n  slt\n    /* \"#utility.yul\":2652:2774   */\n  tag_86\n  jumpi\n    /* \"#utility.yul\":2693:2772   */\n  tag_87\n  tag_21\n  jump\t// in\ntag_87:\n    /* \"#utility.yul\":2652:2774   */\ntag_86:\n    /* \"#utility.yul\":2803:2809   */\n  dup2\n    /* \"#utility.yul\":2797:2810   */\n  mload\n    /* \"#utility.yul\":2828:2918   */\n  tag_88\n    /* \"#utility.yul\":2914:2917   */\n  dup5\n    /* \"#utility.yul\":2906:2912   */\n  dup3\n    /* \"#utility.yul\":2899:2903   */\n  0x20\n    /* \"#utility.yul\":2891:2897   */\n  dup7\n    /* \"#utility.yul\":2887:2904   */\n  add\n    /* \"#utility.yul\":2828:2918   */\n  tag_29\n  jump\t// in\ntag_88:\n    /* \"#utility.yul\":2819:2918   */\n  swap2\n  pop\n    /* \"#utility.yul\":2642:2924   */\n  pop\n    /* \"#utility.yul\":2569:2924   */\n  swap3\n  swap2\n  pop\n  pop\n  jump\t// out\n    /* \"#utility.yul\":2930:3766   */\ntag_3:\n    /* \"#utility.yul\":3028:3034   */\n  0x00\n    /* \"#utility.yul\":3036:3042   */\n  dup1\n    /* \"#utility.yul\":3044:3050   */\n  0x00\n    /* \"#utility.yul\":3093:3095   */\n  0x60\n    /* \"#utility.yul\":3081:3090   */\n  dup5\n    /* \"#utility.yul\":3072:3079   */\n  dup7\n    /* \"#utility.yul\":3068:3091   */\n  sub\n    /* \"#utility.yul\":3064:3096   */\n  slt\n    /* \"#utility.yul\":3061:3180   */\n  iszero\n  tag_90\n  jumpi\n    /* \"#utility.yul\":3099:3178   */\n  tag_91\n  tag_16\n  jump\t// in\ntag_91:\n    /* \"#utility.yul\":3061:3180   */\ntag_90:\n    /* \"#utility.yul\":3219:3220   */\n  0x00\n    /* \"#utility.yul\":3244:3308   */\n  tag_92\n    /* \"#utility.yul\":3300:3307   */\n  dup7\n    /* \"#utility.yul\":3291:3297   */\n  dup3\n    /* \"#utility.yul\":3280:3289   */\n  dup8\n    /* \"#utility.yul\":3276:3298   */\n  add\n    /* \"#utility.yul\":3244:3308   */\n  tag_20\n  jump\t// in\ntag_92:\n    /* \"#utility.yul\":3234:3308   */\n  swap4\n  pop\n    /* \"#utility.yul\":3190:3318   */\n  pop\n    /* \"#utility.yul\":3357:3359   */\n  0x20\n    /* \"#utility.yul\":3383:3447   */\n  tag_93\n    /* \"#utility.yul\":3439:3446   */\n  dup7\n    /* \"#utility.yul\":3430:3436   */\n  dup3\n    /* \"#utility.yul\":3419:3428   */\n  dup8\n    /* \"#utility.yul\":3415:3437   */\n  add\n    /* \"#utility.yul\":3383:3447   */\n  tag_20\n  jump\t// in\ntag_93:\n    /* \"#utility.yul\":3373:3447   */\n  swap3\n  pop\n    /* \"#utility.yul\":3328:3457   */\n  pop\n    /* \"#utility.yul\":3517:3519   */\n  0x40\n    /* \"#utility.yul\":3506:3515   */\n  dup5\n    /* \"#utility.yul\":3502:3520   */\n  add\n    /* \"#utility.yul\":3496:3521   */\n  mload\n    /* \"#utility.yul\":3548:3566   */\n  0xffffffffffffffff\n    /* \"#utility.yul\":3540:3546   */\n  dup2\n    /* \"#utility.yul\":3537:3567   */\n  gt\n    /* \"#utility.yul\":3534:3651   */\n  iszero\n  tag_94\n  jumpi\n    /* \"#utility.yul\":3570:3649   */\n  tag_95\n  tag_17\n  jump\t// in\ntag_95:\n    /* \"#utility.yul\":3534:3651   */\ntag_94:\n    /* \"#utility.yul\":3675:3749   */\n  tag_96\n    /* \"#utility.yul\":3741:3748   */\n  dup7\n    /* \"#utility.yul\":3732:3738   */\n  dup3\n    /* \"#utility.yul\":3721:3730   */\n  dup8\n    /* \"#utility.yul\":3717:3739   */\n  add\n    /* \"#utility.yul\":3675:3749   */\n  tag_30\n  jump\t// in\ntag_96:\n    /* \"#utility.yul\":3665:3749   */\n  swap2\n  pop\n    /* \"#utility.yul\":3467:3759   */\n  pop\n    /* \"#utility.yul\":2930:3766   */\n  swap3\n  pop\n  swap3\n  pop\n  swap3\n  jump\t// out\n    /* \"#utility.yul\":3772:3871   */\ntag_31:\n    /* \"#utility.yul\":3824:3830   */\n  0x00\n    /* \"#utility.yul\":3858:3863   */\n  dup2\n    /* \"#utility.yul\":3852:3864   */\n  mload\n    /* \"#utility.yul\":3842:3864   */\n  swap1\n  pop\n    /* \"#utility.yul\":3772:3871   */\n  swap2\n  swap1\n  pop\n  jump\t// out\n    /* \"#utility.yul\":3877:4057   */\ntag_32:\n    /* \"#utility.yul\":3925:4002   */\n  0x4e487b7100000000000000000000000000000000000000000000000000000000\n    /* \"#utility.yul\":3922:3923   */\n  0x00\n    /* \"#utility.yul\":3915:4003   */\n  mstore\n    /* \"#utility.yul\":4022:4026   */\n  0x22\n    /* \"#utility.yul\":4019:4020   */\n  0x04\n    /* \"#utility.yul\":4012:4027   */\n  mstore\n    /* \"#utility.yul\":4046:4050   */\n  0x24\n    /* \"#utility.yul\":4043:4044   */\n  0x00\n    /* \"#utility.yul\":4036:4051   */\n  revert\n    /* \"#utility.yul\":4063:4383   */\ntag_33:\n    /* \"#utility.yul\":4107:4113   */\n  0x00\n    /* \"#utility.yul\":4144:4145   */\n  0x02\n    /* \"#utility.yul\":4138:4142   */\n  dup3\n    /* \"#utility.yul\":4134:4146   */\n  div\n    /* \"#utility.yul\":4124:4146   */\n  swap1\n  pop\n    /* \"#utility.yul\":4191:4192   */\n  0x01\n    /* \"#utility.yul\":4185:4189   */\n  dup3\n    /* \"#utility.yul\":4181:4193   */\n  and\n    /* \"#utility.yul\":4212:4230   */\n  dup1\n    /* \"#utility.yul\":4202:4283   */\n  tag_100\n  jumpi\n    /* \"#utility.yul\":4268:4272   */\n  0x7f\n    /* \"#utility.yul\":4260:4266   */\n  dup3\n    /* \"#utility.yul\":4256:4273   */\n  and\n    /* \"#utility.yul\":4246:4273   */\n  swap2\n  pop\n    /* \"#utility.yul\":4202:4283   */\ntag_100:\n    /* \"#utility.yul\":4330:4332   */\n  0x20\n    /* \"#utility.yul\":4322:4328   */\n  dup3\n    /* \"#utility.yul\":4319:4333   */\n  lt\n    /* \"#utility.yul\":4299:4317   */\n  dup2\n    /* \"#utility.yul\":4296:4334   */\n  sub\n    /* \"#utility.yul\":4293:4377   */\n  tag_101\n  jumpi\n    /* \"#utility.yul\":4349:4367   */\n  tag_102\n  tag_32\n  jump\t// in\ntag_102:\n    /* \"#utility.yul\":4293:4377   */\ntag_101:\n    /* \"#utility.yul\":4114:4383   */\n  pop\n    /* \"#utility.yul\":4063:4383   */\n  swap2\n  swap1\n  pop\n  jump\t// out\n    /* \"#utility.yul\":4389:4530   */\ntag_34:\n    /* \"#utility.yul\":4438:4442   */\n  0x00\n    /* \"#utility.yul\":4461:4464   */\n  dup2\n    /* \"#utility.yul\":4453:4464   */\n  swap1\n  pop\n    /* \"#utility.yul\":4484:4487   */\n  dup2\n    /* \"#utility.yul\":4481:4482   */\n  0x00\n    /* \"#utility.yul\":4474:4488   */\n  mstore\n    /* \"#utility.yul\":4518:4522   */\n  0x20\n    /* \"#utility.yul\":4515:4516   */\n  0x00\n    /* \"#utility.yul\":4505:4523   */\n  keccak256\n    /* \"#utility.yul\":4497:4523   */\n  swap1\n  pop\n    /* \"#utility.yul\":4389:4530   */\n  swap2\n  swap1\n  pop\n  jump\t// out\n    /* \"#utility.yul\":4536:4629   */\ntag_35:\n    /* \"#utility.yul\":4573:4579   */\n  0x00\n    /* \"#utility.yul\":4620:4622   */\n  0x20\n    /* \"#utility.yul\":4615:4617   */\n  0x1f\n    /* \"#utility.yul\":4608:4613   */\n  dup4\n    /* \"#utility.yul\":4604:4618   */\n  add\n    /* \"#utility.yul\":4600:4623   */\n  div\n    /* \"#utility.yul\":4590:4623   */\n  swap1\n  pop\n    /* \"#utility.yul\":4536:4629   */\n  swap2\n  swap1\n  pop\n  jump\t// out\n    /* \"#utility.yul\":4635:4742   */\ntag_36:\n    /* \"#utility.yul\":4679:4687   */\n  0x00\n    /* \"#utility.yul\":4729:4734   */\n  dup3\n    /* \"#utility.yul\":4723:4727   */\n  dup3\n    /* \"#utility.yul\":4719:4735   */\n  shl\n    /* \"#utility.yul\":4698:4735   */\n  swap1\n  pop\n    /* \"#utility.yul\":4635:4742   */\n  swap3\n  swap2\n  pop\n  pop\n  jump\t// out\n    /* \"#utility.yul\":4748:5141   */\ntag_37:\n    /* \"#utility.yul\":4817:4823   */\n  0x00\n    /* \"#utility.yul\":4867:4868   */\n  0x08\n    /* \"#utility.yul\":4855:4865   */\n  dup4\n    /* \"#utility.yul\":4851:4869   */\n  mul\n    /* \"#utility.yul\":4890:4987   */\n  tag_107\n    /* \"#utility.yul\":4920:4986   */\n  0xffffffffffffffffffffffffffffffffffffffffffffffffffffffffffffffff\n    /* \"#utility.yul\":4909:4918   */\n  dup3\n    /* \"#utility.yul\":4890:4987   */\n  tag_36\n  jump\t// in\ntag_107:\n    /* \"#utility.yul\":5008:5047   */\n  tag_108\n    /* \"#utility.yul\":5038:5046   */\n  dup7\n    /* \"#utility.yul\":5027:5036   */\n  dup4\n    /* \"#utility.yul\":5008:5047   */\n  tag_36\n  jump\t// in\ntag_108:\n    /* \"#utility.yul\":4996:5047   */\n  swap6\n  pop\n    /* \"#utility.yul\":5080:5084   */\n  dup1\n    /* \"#utility.yul\":5076:5085   */\n  not\n    /* \"#utility.yul\":5069:5074   */\n  dup5\n    /* \"#utility.yul\":5065:5086   */\n  and\n    /* \"#utility.yul\":5056:5086   */\n  swap4\n  pop\n    /* \"#utility.yul\":5129:5133   */\n  dup1\n    /* \"#utility.yul\":5119:5127   */\n  dup7\n    /* \"#utility.yul\":5115:5134   */\n  and\n    /* \"#utility.yul\":5108:5113   */\n  dup5\n    /* \"#utility.yul\":5105:5135   */\n  or\n    /* \"#utility.yul\":5095:5135   */\n  swap3\n  pop\n    /* \"#utility.yul\":4824:5141   */\n  pop\n  pop\n    /* \"#utility.yul\":4748:5141   */\n  swap4\n  swap3\n  pop\n  pop\n  pop\n  jump\t// out\n    /* \"#utility.yul\":5147:5207   */\ntag_38:\n    /* \"#utility.yul\":5175:5178   */\n  0x00\n    /* \"#utility.yul\":5196:5201   */\n  dup2\n    /* \"#utility.yul\":5189:5201   */\n  swap1\n  pop\n    /* \"#utility.yul\":5147:5207   */\n  swap2\n  swap1\n  pop\n  jump\t// out\n    /* \"#utility.yul\":5213:5355   */\ntag_39:\n    /* \"#utility.yul\":5263:5272   */\n  0x00\n    /* \"#utility.yul\":5296:5349   */\n  tag_111\n    /* \"#utility.yul\":5314:5348   */\n  tag_112\n    /* \"#utility.yul\":5323:5347   */\n  tag_113\n    /* \"#utility.yul\":5341:5346   */\n  dup5\n    /* \"#utility.yul\":5323:5347   */\n  tag_18\n  jump\t// in\ntag_113:\n    /* \"#utility.yul\":5314:5348   */\n  tag_38\n  jump\t// in\ntag_112:\n    /* \"#utility.yul\":5296:5349   */\n  tag_18\n  jump\t// in\ntag_111:\n    /* \"#utility.yul\":5283:5349   */\n  swap1\n  pop\n    /* \"#utility.yul\":5213:5355   */\n  swap2\n  swap1\n  pop\n  jump\t// out\n    /* \"#utility.yul\":5361:5436   */\ntag_40:\n    /* \"#utility.yul\":5404:5407   */\n  0x00\n    /* \"#utility.yul\":5425:5430   */\n  dup2\n    /* \"#utility.yul\":5418:5430   */\n  swap1\n  pop\n    /* \"#utility.yul\":5361:5436   */\n  swap2\n  swap1\n  pop\n  jump\t// out\n    /* \"#utility.yul\":5442:5711   */\ntag_41:\n    /* \"#utility.yul\":5552:5591   */\n  tag_116\n    /* \"#utility.yul\":5583:5590   */\n  dup4\n    /* \"#utility.yul\":5552:5591   */\n  tag_39\n  jump\t// in\ntag_116:\n    /* \"#utility.yul\":5613:5704   */\n  tag_117\n    /* \"#utility.yul\":5662:5703   */\n  tag_118\n    /* \"#utility.yul\":5686:5702   */\n  dup3\n    /* \"#utility.yul\":5662:5703   */\n  tag_40\n  jump\t// in\ntag_118:\n    /* \"#utility.yul\":5654:5660   */\n  dup5\n    /* \"#utility.yul\":5647:5651   */\n  dup5\n    /* \"#utility.yul\":5641:5652   */\n  sload\n    /* \"#utility.yul\":5613:5704   */\n  tag_37\n  jump\t// in\ntag_117:\n    /* \"#utility.yul\":5607:5611   */\n  dup3\n    /* \"#utility.yul\":5600:5705   */\n  sstore\n    /* \"#utility.yul\":5518:5711   */\n  pop\n    /* \"#utility.yul\":5442:5711   */\n  pop\n  pop\n  pop\n  jump\t// out\n    /* \"#utility.yul\":5717:5790   */\ntag_42:\n    /* \"#utility.yul\":5762:5765   */\n  0x00\n    /* \"#utility.yul\":5717:5790   */\n  swap1\n  jump\t// out\n    /* \"#utility.yul\":5796:5985   */\ntag_43:\n    /* \"#utility.yul\":5873:5905   */\n  tag_121\n  tag_42\n  jump\t// in\ntag_121:\n    /* \"#utility.yul\":5914:5979   */\n  tag_122\n    /* \"#utility.yul\":5972:5978   */\n  dup2\n    /* \"#utility.yul\":5964:5970   */\n  dup5\n    /* \"#utility.yul\":5958:5962   */\n  dup5\n    /* \"#utility.yul\":5914:5979   */\n  tag_41\n  jump\t// in\ntag_122:\n    /* \"#utility.yul\":5849:5985   */\n  pop\n    /* \"#utility.yul\":5796:5985   */\n  pop\n  pop\n  jump\t// out\n    /* \"#utility.yul\":5991:6177   */\ntag_44:\n    /* \"#utility.yul\":6051:6171   */\ntag_124:\n    /* \"#utility.yul\":6068:6071   */\n  dup2\n    /* \"#utility.yul\":6061:6066   */\n  dup2\n    /* \"#utility.yul\":6058:6072   */\n  lt\n    /* \"#utility.yul\":6051:6171   */\n  iszero\n  tag_126\n  jumpi\n    /* \"#utility.yul\":6122:6161   */\n  tag_127\n    /* \"#utility.yul\":6159:6160   */\n  0x00\n    /* \"#utility.yul\":6152:6157   */\n  dup3\n    /* \"#utility.yul\":6122:6161   */\n  tag_43\n  jump\t// in\ntag_127:\n    /* \"#utility.yul\":6095:6096   */\n  0x01\n    /* \"#utility.yul\":6088:6093   */\n  dup2\n    /* \"#utility.yul\":6084:6097   */\n  add\n    /* \"#utility.yul\":6075:6097   */\n  swap1\n  pop\n    /* \"#utility.yul\":6051:6171   */\n  jump(tag_124)\ntag_126:\n    /* \"#utility.yul\":5991:6177   */\n  pop\n  pop\n  jump\t// out\n    /* \"#utility.yul\":6183:6726   */\ntag_45:\n    /* \"#utility.yul\":6284:6286   */\n  0x1f\n    /* \"#utility.yul\":6279:6282   */\n  dup3\n    /* \"#utility.yul\":6276:6287   */\n  gt\n    /* \"#utility.yul\":6273:6719   */\n  iszero\n  tag_129\n  jumpi\n    /* \"#utility.yul\":6318:6356   */\n  tag_130\n    /* \"#utility.yul\":6350:6355   */\n  dup2\n    /* \"#utility.yul\":6318:6356   */\n  tag_34\n  jump\t// in\ntag_130:\n    /* \"#utility.yul\":6402:6431   */\n  tag_131\n    /* \"#utility.yul\":6420:6430   */\n  dup5\n    /* \"#utility.yul\":6402:6431   */\n  tag_35\n  jump\t// in\ntag_131:\n    /* \"#utility.yul\":6392:6400   */\n  dup2\n    /* \"#utility.yul\":6388:6432   */\n  add\n    /* \"#utility.yul\":6585:6587   */\n  0x20\n    /* \"#utility.yul\":6573:6583   */\n  dup6\n    /* \"#utility.yul\":6570:6588   */\n  lt\n    /* \"#utility.yul\":6567:6616   */\n  iszero\n  tag_132\n  jumpi\n    /* \"#utility.yul\":6606:6614   */\n  dup2\n    /* \"#utility.yul\":6591:6614   */\n  swap1\n  pop\n    /* \"#utility.yul\":6567:6616   */\ntag_132:\n    /* \"#utility.yul\":6629:6709   */\n  tag_133\n    /* \"#utility.yul\":6685:6707   */\n  tag_134\n    /* \"#utility.yul\":6703:6706   */\n  dup6\n    /* \"#utility.yul\":6685:6707   */\n  tag_35\n  jump\t// in\ntag_134:\n    /* \"#utility.yul\":6675:6683   */\n  dup4\n    /* \"#utility.yul\":6671:6708   */\n  add\n    /* \"#utility.yul\":6658:6669   */\n  dup3\n    /* \"#utility.yul\":6629:6709   */\n  tag_44\n  jump\t// in\ntag_133:\n    /* \"#utility.yul\":6288:6719   */\n  pop\n  pop\n    /* \"#utility.yul\":6273:6719   */\ntag_129:\n    /* \"#utility.yul\":6183:6726   */\n  pop\n  pop\n  pop\n  jump\t// out\n    /* \"#utility.yul\":6732:6849   */\ntag_46:\n    /* \"#utility.yul\":6786:6794   */\n  0x00\n    /* \"#utility.yul\":6836:6841   */\n  dup3\n    /* \"#utility.yul\":6830:6834   */\n  dup3\n    /* \"#utility.yul\":6826:6842   */\n  shr\n    /* \"#utility.yul\":6805:6842   */\n  swap1\n  pop\n    /* \"#utility.yul\":6732:6849   */\n  swap3\n  swap2\n  pop\n  pop\n  jump\t// out\n    /* \"#utility.yul\":6855:7024   */\ntag_47:\n    /* \"#utility.yul\":6899:6905   */\n  0x00\n    /* \"#utility.yul\":6932:6983   */\n  tag_137\n    /* \"#utility.yul\":6980:6981   */\n  0x00\n    /* \"#utility.yul\":6976:6982   */\n  not\n    /* \"#utility.yul\":6968:6973   */\n  dup5\n    /* \"#utility.yul\":6965:6966   */\n  0x08\n    /* \"#utility.yul\":6961:6974   */\n  mul\n    /* \"#utility.yul\":6932:6983   */\n  tag_46\n  jump\t// in\ntag_137:\n    /* \"#utility.yul\":6928:6984   */\n  not\n    /* \"#utility.yul\":7013:7017   */\n  dup1\n    /* \"#utility.yul\":7007:7011   */\n  dup4\n    /* \"#utility.yul\":7003:7018   */\n  and\n    /* \"#utility.yul\":6993:7018   */\n  swap2\n  pop\n    /* \"#utility.yul\":6906:7024   */\n  pop\n    /* \"#utility.yul\":6855:7024   */\n  swap3\n  swap2\n  pop\n  pop\n  jump\t// out\n    /* \"#utility.yul\":7029:7324   */\ntag_48:\n    /* \"#utility.yul\":7105:7109   */\n  0x00\n    /* \"#utility.yul\":7251:7280   */\n  tag_139\n    /* \"#utility.yul\":7276:7279   */\n  dup4\n    /* \"#utility.yul\":7270:7274   */\n  dup4\n    /* \"#utility.yul\":7251:7280   */\n  tag_47\n  jump\t// in\ntag_139:\n    /* \"#utility.yul\":7243:7280   */\n  swap2\n  pop\n    /* \"#utility.yul\":7313:7316   */\n  dup3\n    /* \"#utility.yul\":7310:7311   */\n  0x02\n    /* \"#utility.yul\":7306:7317   */\n  mul\n    /* \"#utility.yul\":7300:7304   */\n  dup3\n    /* \"#utility.yul\":7297:7318   */\n  or\n    /* \"#utility.yul\":7289:7318   */\n  swap1\n  pop\n    /* \"#utility.yul\":7029:7324   */\n  swap3\n  swap2\n  pop\n  pop\n  jump\t// out\n    /* \"#utility.yul\":7329:8724   */\ntag_7:\n    /* \"#utility.yul\":7446:7483   */\n  tag_141\n    /* \"#utility.yul\":7479:7482   */\n  dup3\n    /* \"#utility.yul\":7446:7483   */\n  tag_31\n  jump\t// in\ntag_141:\n    /* \"#utility.yul\":7548:7566   */\n  0xffffffffffffffff\n    /* \"#utility.yul\":7540:7546   */\n  dup2\n    /* \"#utility.yul\":7537:7567   */\n  gt\n    /* \"#utility.yul\":7534:7590   */\n  iszero\n  tag_142\n  jumpi\n    /* \"#utility.yul\":7570:7588   */\n  tag_143\n  tag_24\n  jump\t// in\ntag_143:\n    /* \"#utility.yul\":7534:7590   */\ntag_142:\n    /* \"#utility.yul\":7614:7652   */\n  tag_144\n    /* \"#utility.yul\":7646:7650   */\n  dup3\n    /* \"#utility.yul\":7640:7651   */\n  sload\n    /* \"#utility.yul\":7614:7652   */\n  tag_33\n  jump\t// in\ntag_144:\n    /* \"#utility.yul\":7699:7766   */\n  tag_145\n    /* \"#utility.yul\":7759:7765   */\n  dup3\n    /* \"#utility.yul\":7751:7757   */\n  dup3\n    /* \"#utility.yul\":7745:7749   */\n  dup6\n    /* \"#utility.yul\":7699:7766   */\n  tag_45\n  jump\t// in\ntag_145:\n    /* \"#utility.yul\":7793:7794   */\n  0x00\n    /* \"#utility.yul\":7817:7821   */\n  0x20\n    /* \"#utility.yul\":7804:7821   */\n  swap1\n  pop\n    /* \"#utility.yul\":7849:7851   */\n  0x1f\n    /* \"#utility.yul\":7841:7847   */\n  dup4\n    /* \"#utility.yul\":7838:7852   */\n  gt\n    /* \"#utility.yul\":7866:7867   */\n  0x01\n    /* \"#utility.yul\":7861:8479   */\n  dup2\n  eq\n  tag_147\n  jumpi\n    /* \"#utility.yul\":8523:8524   */\n  0x00\n    /* \"#utility.yul\":8540:8546   */\n  dup5\n    /* \"#utility.yul\":8537:8614   */\n  iszero\n  tag_148\n  jumpi\n    /* \"#utility.yul\":8589:8598   */\n  dup3\n    /* \"#utility.yul\":8584:8587   */\n  dup8\n    /* \"#utility.yul\":8580:8599   */\n  add\n    /* \"#utility.yul\":8574:8600   */\n  mload\n    /* \"#utility.yul\":8565:8600   */\n  swap1\n  pop\n    /* \"#utility.yul\":8537:8614   */\ntag_148:\n    /* \"#utility.yul\":8640:8707   */\n  tag_149\n    /* \"#utility.yul\":8700:8706   */\n  dup6\n    /* \"#utility.yul\":8693:8698   */\n  dup3\n    /* \"#utility.yul\":8640:8707   */\n  tag_48\n  jump\t// in\ntag_149:\n    /* \"#utility.yul\":8634:8638   */\n  dup7\n    /* \"#utility.yul\":8627:8708   */\n  sstore\n    /* \"#utility.yul\":8496:8718   */\n  pop\n    /* \"#utility.yul\":7831:8718   */\n  jump(tag_146)\n    /* \"#utility.yul\":7861:8479   */\ntag_147:\n    /* \"#utility.yul\":7913:7917   */\n  0x1f\n    /* \"#utility.yul\":7909:7918   */\n  not\n    /* \"#utility.yul\":7901:7907   */\n  dup5\n    /* \"#utility.yul\":7897:7919   */\n  and\n    /* \"#utility.yul\":7947:7984   */\n  tag_150\n    /* \"#utility.yul\":7979:7983   */\n  dup7\n    /* \"#utility.yul\":7947:7984   */\n  tag_34\n  jump\t// in\ntag_150:\n    /* \"#utility.yul\":8006:8007   */\n  0x00\n    /* \"#utility.yul\":8020:8228   */\ntag_151:\n    /* \"#utility.yul\":8034:8041   */\n  dup3\n    /* \"#utility.yul\":8031:8032   */\n  dup2\n    /* \"#utility.yul\":8028:8042   */\n  lt\n    /* \"#utility.yul\":8020:8228   */\n  iszero\n  tag_153\n  jumpi\n    /* \"#utility.yul\":8113:8122   */\n  dup5\n    /* \"#utility.yul\":8108:8111   */\n  dup10\n    /* \"#utility.yul\":8104:8123   */\n  add\n    /* \"#utility.yul\":8098:8124   */\n  mload\n    /* \"#utility.yul\":8090:8096   */\n  dup3\n    /* \"#utility.yul\":8083:8125   */\n  sstore\n    /* \"#utility.yul\":8164:8165   */\n  0x01\n    /* \"#utility.yul\":8156:8162   */\n  dup3\n    /* \"#utility.yul\":8152:8166   */\n  add\n    /* \"#utility.yul\":8142:8166   */\n  swap2\n  pop\n    /* \"#utility.yul\":8211:8213   */\n  0x20\n    /* \"#utility.yul\":8200:8209   */\n  dup6\n    /* \"#utility.yul\":8196:8214   */\n  add\n    /* \"#utility.yul\":8183:8214   */\n  swap5\n  pop\n    /* \"#utility.yul\":8057:8061   */\n  0x20\n    /* \"#utility.yul\":8054:8055   */\n  dup2\n    /* \"#utility.yul\":8050:8062   */\n  add\n    /* \"#utility.yul\":8045:8062   */\n  swap1\n  pop\n    /* \"#utility.yul\":8020:8228   */\n  jump(tag_151)\ntag_153:\n    /* \"#utility.yul\":8256:8262   */\n  dup7\n    /* \"#utility.yul\":8247:8254   */\n  dup4\n    /* \"#utility.yul\":8244:8263   */\n  lt\n    /* \"#utility.yul\":8241:8420   */\n  iszero\n  tag_154\n  jumpi\n    /* \"#utility.yul\":8314:8323   */\n  dup5\n    /* \"#utility.yul\":8309:8312   */\n  dup10\n    /* \"#utility.yul\":8305:8324   */\n  add\n    /* \"#utility.yul\":8299:8325   */\n  mload\n    /* \"#utility.yul\":8357:8405   */\n  tag_155\n    /* \"#utility.yul\":8399:8403   */\n  0x1f\n    /* \"#utility.yul\":8391:8397   */\n  dup10\n    /* \"#utility.yul\":8387:8404   */\n  and\n    /* \"#utility.yul\":8376:8385   */\n  dup3\n    /* \"#utility.yul\":8357:8405   */\n  tag_47\n  jump\t// in\ntag_155:\n    /* \"#utility.yul\":8349:8355   */\n  dup4\n    /* \"#utility.yul\":8342:8406   */\n  sstore\n    /* \"#utility.yul\":8264:8420   */\n  pop\n    /* \"#utility.yul\":8241:8420   */\ntag_154:\n    /* \"#utility.yul\":8466:8467   */\n  0x01\n    /* \"#utility.yul\":8462:8463   */\n  0x02\n    /* \"#utility.yul\":8454:8460   */\n  dup9\n    /* \"#utility.yul\":8450:8464   */\n  mul\n    /* \"#utility.yul\":8446:8468   */\n  add\n    /* \"#utility.yul\":8440:8444   */\n  dup9\n    /* \"#utility.yul\":8433:8469   */\n  sstore\n    /* \"#utility.yul\":7868:8479   */\n  pop\n  pop\n  pop\n    /* \"#utility.yul\":7831:8718   */\ntag_146:\n  pop\n    /* \"#utility.yul\":7421:8724   */\n  pop\n  pop\n  pop\n    /* \"#utility.yul\":7329:8724   */\n  pop\n  pop\n  jump\t// out\n    /* \"#utility.yul\":8730:8910   */\ntag_49:\n    /* \"#utility.yul\":8778:8855   */\n  0x4e487b7100000000000000000000000000000000000000000000000000000000\n    /* \"#utility.yul\":8775:8776   */\n  0x00\n    /* \"#utility.yul\":8768:8856   */\n  mstore\n    /* \"#utility.yul\":8875:8879   */\n  0x11\n    /* \"#utility.yul\":8872:8873   */\n  0x04\n    /* \"#utility.yul\":8865:8880   */\n  mstore\n    /* \"#utility.yul\":8899:8903   */\n  0x24\n    /* \"#utility.yul\":8896:8897   */\n  0x00\n    /* \"#utility.yul\":8889:8904   */\n  revert\n    /* \"#utility.yul\":8916:9107   */\ntag_9:\n    /* \"#utility.yul\":8956:8959   */\n  0x00\n    /* \"#utility.yul\":8975:8995   */\n  tag_158\n    /* \"#utility.yul\":8993:8994   */\n  dup3\n    /* \"#utility.yul\":8975:8995   */\n  tag_18\n  jump\t// in\ntag_158:\n    /* \"#utility.yul\":8970:8995   */\n  swap2\n  pop\n    /* \"#utility.yul\":9009:9029   */\n  tag_159\n    /* \"#utility.yul\":9027:9028   */\n  dup4\n    /* \"#utility.yul\":9009:9029   */\n  tag_18\n  jump\t// in\ntag_159:\n    /* \"#utility.yul\":9004:9029   */\n  swap3\n  pop\n    /* \"#utility.yul\":9052:9053   */\n  dup3\n    /* \"#utility.yul\":9049:9050   */\n  dup3\n    /* \"#utility.yul\":9045:9054   */\n  add\n    /* \"#utility.yul\":9038:9054   */\n  swap1\n  pop\n    /* \"#utility.yul\":9073:9076   */\n  dup1\n    /* \"#utility.yul\":9070:9071   */\n  dup3\n    /* \"#utility.yul\":9067:9077   */\n  gt\n    /* \"#utility.yul\":9064:9100   */\n  iszero\n  tag_160\n  jumpi\n    /* \"#utility.yul\":9080:9098   */\n  tag_161\n  tag_49\n  jump\t// in\ntag_161:\n    /* \"#utility.yul\":9064:9100   */\ntag_160:\n    /* \"#utility.yul\":8916:9107   */\n  swap3\n  swap2\n  pop\n  pop\n  jump\t// out\n    /* \"#utility.yul\":9113:9261   */\ntag_50:\n    /* \"#utility.yul\":9215:9226   */\n  0x00\n    /* \"#utility.yul\":9252:9255   */\n  dup2\n    /* \"#utility.yul\":9237:9255   */\n  swap1\n  pop\n    /* \"#utility.yul\":9113:9261   */\n  swap3\n  swap2\n  pop\n  pop\n  jump\t// out\n    /* \"#utility.yul\":9291:10165   */\ntag_51:\n    /* \"#utility.yul\":9394:9397   */\n  0x00\n    /* \"#utility.yul\":9431:9436   */\n  dup2\n    /* \"#utility.yul\":9425:9437   */\n  sload\n    /* \"#utility.yul\":9460:9496   */\n  tag_164\n    /* \"#utility.yul\":9486:9495   */\n  dup2\n    /* \"#utility.yul\":9460:9496   */\n  tag_33\n  jump\t// in\ntag_164:\n    /* \"#utility.yul\":9512:9601   */\n  tag_165\n    /* \"#utility.yul\":9594:9600   */\n  dup2\n    /* \"#utility.yul\":9589:9592   */\n  dup7\n    /* \"#utility.yul\":9512:9601   */\n  tag_50\n  jump\t// in\ntag_165:\n    /* \"#utility.yul\":9505:9601   */\n  swap5\n  pop\n    /* \"#utility.yul\":9632:9633   */\n  0x01\n    /* \"#utility.yul\":9621:9630   */\n  dup3\n    /* \"#utility.yul\":9617:9634   */\n  and\n    /* \"#utility.yul\":9648:9649   */\n  0x00\n    /* \"#utility.yul\":9643:9809   */\n  dup2\n  eq\n  tag_167\n  jumpi\n    /* \"#utility.yul\":9823:9824   */\n  0x01\n    /* \"#utility.yul\":9818:10159   */\n  dup2\n  eq\n  tag_168\n  jumpi\n    /* \"#utility.yul\":9610:10159   */\n  jump(tag_166)\n    /* \"#utility.yul\":9643:9809   */\ntag_167:\n    /* \"#utility.yul\":9727:9731   */\n  0xff\n    /* \"#utility.yul\":9723:9732   */\n  not\n    /* \"#utility.yul\":9712:9721   */\n  dup4\n    /* \"#utility.yul\":9708:9733   */\n  and\n    /* \"#utility.yul\":9703:9706   */\n  dup7\n    /* \"#utility.yul\":9696:9734   */\n  mstore\n    /* \"#utility.yul\":9789:9795   */\n  dup2\n    /* \"#utility.yul\":9782:9796   */\n  iszero\n    /* \"#utility.yul\":9775:9797   */\n  iszero\n    /* \"#utility.yul\":9767:9773   */\n  dup3\n    /* \"#utility.yul\":9763:9798   */\n  mul\n    /* \"#utility.yul\":9758:9761   */\n  dup7\n    /* \"#utility.yul\":9754:9799   */\n  add\n    /* \"#utility.yul\":9747:9799   */\n  swap4\n  pop\n    /* \"#utility.yul\":9643:9809   */\n  jump(tag_166)\n    /* \"#utility.yul\":9818:10159   */\ntag_168:\n    /* \"#utility.yul\":9885:9923   */\n  tag_169\n    /* \"#utility.yul\":9917:9922   */\n  dup6\n    /* \"#utility.yul\":9885:9923   */\n  tag_34\n  jump\t// in\ntag_169:\n    /* \"#utility.yul\":9945:9946   */\n  0x00\n    /* \"#utility.yul\":9959:10113   */\ntag_170:\n    /* \"#utility.yul\":9973:9979   */\n  dup4\n    /* \"#utility.yul\":9970:9971   */\n  dup2\n    /* \"#utility.yul\":9967:9980   */\n  lt\n    /* \"#utility.yul\":9959:10113   */\n  iszero\n  tag_172\n  jumpi\n    /* \"#utility.yul\":10047:10054   */\n  dup2\n    /* \"#utility.yul\":10041:10055   */\n  sload\n    /* \"#utility.yul\":10037:10038   */\n  dup2\n    /* \"#utility.yul\":10032:10035   */\n  dup10\n    /* \"#utility.yul\":10028:10039   */\n  add\n    /* \"#utility.yul\":10021:10056   */\n  mstore\n    /* \"#utility.yul\":10097:10098   */\n  0x01\n    /* \"#utility.yul\":10088:10095   */\n  dup3\n    /* \"#utility.yul\":10084:10099   */\n  add\n    /* \"#utility.yul\":10073:10099   */\n  swap2\n  pop\n    /* \"#utility.yul\":9995:9999   */\n  0x20\n    /* \"#utility.yul\":9992:9993   */\n  dup2\n    /* \"#utility.yul\":9988:10000   */\n  add\n    /* \"#utility.yul\":9983:10000   */\n  swap1\n  pop\n    /* \"#utility.yul\":9959:10113   */\n  jump(tag_170)\ntag_172:\n    /* \"#utility.yul\":10142:10148   */\n  dup4\n    /* \"#utility.yul\":10137:10140   */\n  dup9\n    /* \"#utility.yul\":10133:10149   */\n  add\n    /* \"#utility.yul\":10126:10149   */\n  swap6\n  pop\n    /* \"#utility.yul\":9825:10159   */\n  pop\n  pop\n    /* \"#utility.yul\":9610:10159   */\ntag_166:\n  pop\n    /* \"#utility.yul\":9398:10165   */\n  pop\n  pop\n    /* \"#utility.yul\":9291:10165   */\n  swap3\n  swap2\n  pop\n  pop\n  jump\t// out\n    /* \"#utility.yul\":10171:10440   */\ntag_11:\n    /* \"#utility.yul\":10300:10303   */\n  0x00\n    /* \"#utility.yul\":10322:10414   */\n  tag_174\n    /* \"#utility.yul\":10410:10413   */\n  dup3\n    /* \"#utility.yul\":10401:10407   */\n  dup5\n    /* \"#utility.yul\":10322:10414   */\n  tag_51\n  jump\t// in\ntag_174:\n    /* \"#utility.yul\":10315:10414   */\n  swap2\n  pop\n    /* \"#utility.yul\":10431:10434   */\n  dup2\n    /* \"#utility.yul\":10424:10434   */\n  swap1\n  pop\n    /* \"#utility.yul\":10171:10440   */\n  swap3\n  swap2\n  pop\n  pop\n  jump\t// out\n    /* \"#utility.yul\":10446:10564   */\ntag_52:\n    /* \"#utility.yul\":10533:10557   */\n  tag_176\n    /* \"#utility.yul\":10551:10556   */\n  dup2\n    /* \"#utility.yul\":10533:10557   */\n  tag_18\n  jump\t// in\ntag_176:\n    /* \"#utility.yul\":10528:10531   */\n  dup3\n    /* \"#utility.yul\":10521:10558   */\n  mstore\n    /* \"#utility.yul\":10446:10564   */\n  pop\n  pop\n  jump\t// out\n    /* \"#utility.yul\":10570:10792   */\ntag_13:\n    /* \"#utility.yul\":10663:10667   */\n  0x00\n    /* \"#utility.yul\":10701:10703   */\n  0x20\n    /* \"#utility.yul\":10690:10699   */\n  dup3\n    /* \"#utility.yul\":10686:10704   */\n  add\n    /* \"#utility.yul\":10678:10704   */\n  swap1\n  pop\n    /* \"#utility.yul\":10714:10785   */\n  tag_178\n    /* \"#utility.yul\":10782:10783   */\n  0x00\n    /* \"#utility.yul\":10771:10780   */\n  dup4\n    /* \"#utility.yul\":10767:10784   */\n  add\n    /* \"#utility.yul\":10758:10764   */\n  dup5\n    /* \"#utility.yul\":10714:10785   */\n  tag_52\n  jump\t// in\ntag_178:\n    /* \"#utility.yul\":10570:10792   */\n  swap3\n  swap2\n  pop\n  pop\n  jump\t// out\n    /* \"tp2/auction.sol\":58:4159  contract Auction {... */\ntag_14:\n  dataSize(sub_0)\n  dup1\n  dataOffset(sub_0)\n  0x00\n  codecopy\n  0x00\n  return\nstop\n\nsub_0: assembly {\n        /* \"tp2/auction.sol\":58:4159  contract Auction {... */\n      mstore(0x40, 0x80)\n      jumpi(tag_1, lt(calldatasize, 0x04))\n      shr(0xe0, calldataload(0x00))\n      dup1\n      0x1998aeef\n      eq\n      tag_2\n      jumpi\n      dup1\n      0x43d726d6\n      eq\n      tag_3\n      jumpi\n      dup1\n      0xbb10d006\n      eq\n      tag_4\n      jumpi\n      dup1\n      0xd4e93292\n      eq\n      tag_5\n      jumpi\n    tag_1:\n      0x00\n      dup1\n      revert\n        /* \"tp2/auction.sol\":913:1549  function bid() external payable active greatter {... */\n    tag_2:\n      tag_6\n      tag_7\n      jump\t// in\n    tag_6:\n      stop\n        /* \"tp2/auction.sol\":1555:2164  function close() external onlyAdmin finished {... */\n    tag_3:\n      callvalue\n      dup1\n      iszero\n      tag_8\n      jumpi\n      0x00\n      dup1\n      revert\n    tag_8:\n      pop\n      tag_9\n      tag_10\n      jump\t// in\n    tag_9:\n      stop\n        /* \"tp2/auction.sol\":2499:2637  function inforWinner() external finished view returns (address winner, uint amount){... */\n    tag_4:\n      callvalue\n      dup1\n      iszero\n      tag_11\n      jumpi\n      0x00\n      dup1\n      revert\n    tag_11:\n      pop\n      tag_12\n      tag_13\n      jump\t// in\n    tag_12:\n      mload(0x40)\n      tag_14\n      swap3\n      swap2\n      swap1\n      tag_15\n      jump\t// in\n    tag_14:\n      mload(0x40)\n      dup1\n      swap2\n      sub\n      swap1\n      return\n        /* \"tp2/auction.sol\":2170:2493  function withdrawal() external onlyBidder active {... */\n    tag_5:\n      callvalue\n      dup1\n      iszero\n      tag_16\n      jumpi\n      0x00\n      dup1\n      revert\n    tag_16:\n      pop\n      tag_17\n      tag_18\n      jump\t// in\n    tag_17:\n      stop\n        /* \"tp2/auction.sol\":913:1549  function bid() external payable active greatter {... */\n    tag_7:\n        /* \"tp2/auction.sol\":3393:3406  bool isActive */\n      0x00\n        /* \"tp2/auction.sol\":3463:3473  10 minutes */\n      0x0258\n        /* \"tp2/auction.sol\":3446:3460  completionTime */\n      sload(0x00)\n        /* \"tp2/auction.sol\":3446:3473  completionTime - 10 minutes */\n      tag_20\n      swap2\n      swap1\n      tag_21\n      jump\t// in\n    tag_20:\n        /* \"tp2/auction.sol\":3427:3442  block.timestamp */\n      timestamp\n        /* \"tp2/auction.sol\":3427:3474  block.timestamp < (completionTime - 10 minutes) */\n      lt\n        /* \"tp2/auction.sol\":3424:3632  if(block.timestamp < (completionTime - 10 minutes)){... */\n      iszero\n      tag_22\n      jumpi\n        /* \"tp2/auction.sol\":3500:3504  true */\n      0x01\n        /* \"tp2/auction.sol\":3489:3504  isActive = true */\n      swap1\n      pop\n        /* \"tp2/auction.sol\":3424:3632  if(block.timestamp < (completionTime - 10 minutes)){... */\n      jump(tag_23)\n    tag_22:\n        /* \"tp2/auction.sol\":3523:3530  lastBid */\n      0x02\n        /* \"tp2/auction.sol\":3523:3537  lastBid.exists */\n      0x00\n      add\n      0x00\n      swap1\n      sload\n      swap1\n      0x0100\n      exp\n      swap1\n      div\n      0xff\n      and\n        /* \"tp2/auction.sol\":3523:3591  lastBid.exists && block.timestamp < (lastBid.timestamp + 10 minutes) */\n      dup1\n      iszero\n      tag_24\n      jumpi\n      pop\n        /* \"tp2/auction.sol\":3580:3590  10 minutes */\n      0x0258\n        /* \"tp2/auction.sol\":3560:3567  lastBid */\n      0x02\n        /* \"tp2/auction.sol\":3560:3577  lastBid.timestamp */\n      0x01\n      add\n      sload\n        /* \"tp2/auction.sol\":3560:3590  lastBid.timestamp + 10 minutes */\n      tag_25\n      swap2\n      swap1\n      tag_26\n      jump\t// in\n    tag_25:\n        /* \"tp2/auction.sol\":3541:3556  block.timestamp */\n      timestamp\n        /* \"tp2/auction.sol\":3541:3591  block.timestamp < (lastBid.timestamp + 10 minutes) */\n      lt\n        /* \"tp2/auction.sol\":3523:3591  lastBid.exists && block.timestamp < (lastBid.timestamp + 10 minutes) */\n    tag_24:\n        /* \"tp2/auction.sol\":3520:3632  if(lastBid.exists && block.timestamp < (lastBid.timestamp + 10 minutes)){... */\n      iszero\n      tag_27\n      jumpi\n        /* \"tp2/auction.sol\":3617:3621  true */\n      0x01\n        /* \"tp2/auction.sol\":3606:3621  isActive = true */\n      swap1\n      pop\n        /* \"tp2/auction.sol\":3520:3632  if(lastBid.exists && block.timestamp < (lastBid.timestamp + 10 minutes)){... */\n    tag_27:\n        /* \"tp2/auction.sol\":3424:3632  if(block.timestamp < (completionTime - 10 minutes)){... */\n    tag_23:\n        /* \"tp2/auction.sol\":3649:3657  isActive */\n      dup1\n        /* \"tp2/auction.sol\":3641:3697  require(isActive, \"The time for place a bid has finish\") */\n      tag_28\n      jumpi\n      mload(0x40)\n      0x08c379a000000000000000000000000000000000000000000000000000000000\n      dup2\n      mstore\n      0x04\n      add\n      tag_29\n      swap1\n      tag_30\n      jump\t// in\n    tag_29:\n      mload(0x40)\n      dup1\n      swap2\n      sub\n      swap1\n      revert\n    tag_28:\n        /* \"tp2/auction.sol\":3824:3834  bool valid */\n      0x00\n        /* \"tp2/auction.sol\":3855:3862  lastBid */\n      0x02\n        /* \"tp2/auction.sol\":3855:3869  lastBid.exists */\n      0x00\n      add\n      0x00\n      swap1\n      sload\n      swap1\n      0x0100\n      exp\n      swap1\n      div\n      0xff\n      and\n        /* \"tp2/auction.sol\":3855:3930  lastBid.exists && msg.value > (lastBid.amount + (lastBid.amount * 5) / 100) */\n      dup1\n      iszero\n      tag_32\n      jumpi\n      pop\n        /* \"tp2/auction.sol\":3926:3929  100 */\n      0x64\n        /* \"tp2/auction.sol\":3921:3922  5 */\n      0x05\n        /* \"tp2/auction.sol\":3904:3911  lastBid */\n      0x02\n        /* \"tp2/auction.sol\":3904:3918  lastBid.amount */\n      0x03\n      add\n      sload\n        /* \"tp2/auction.sol\":3904:3922  lastBid.amount * 5 */\n      tag_33\n      swap2\n      swap1\n      tag_34\n      jump\t// in\n    tag_33:\n        /* \"tp2/auction.sol\":3903:3929  (lastBid.amount * 5) / 100 */\n      tag_35\n      swap2\n      swap1\n      tag_36\n      jump\t// in\n    tag_35:\n        /* \"tp2/auction.sol\":3886:3893  lastBid */\n      0x02\n        /* \"tp2/auction.sol\":3886:3900  lastBid.amount */\n      0x03\n      add\n      sload\n        /* \"tp2/auction.sol\":3886:3929  lastBid.amount + (lastBid.amount * 5) / 100 */\n      tag_37\n      swap2\n      swap1\n      tag_26\n      jump\t// in\n    tag_37:\n        /* \"tp2/auction.sol\":3873:3882  msg.value */\n      callvalue\n        /* \"tp2/auction.sol\":3873:3930  msg.value > (lastBid.amount + (lastBid.amount * 5) / 100) */\n      gt\n        /* \"tp2/auction.sol\":3855:3930  lastBid.exists && msg.value > (lastBid.amount + (lastBid.amount * 5) / 100) */\n    tag_32:\n        /* \"tp2/auction.sol\":3852:4061  if(lastBid.exists && msg.value > (lastBid.amount + (lastBid.amount * 5) / 100)){... */\n      iszero\n      tag_38\n      jumpi\n        /* \"tp2/auction.sol\":3953:3957  true */\n      0x01\n        /* \"tp2/auction.sol\":3945:3957  valid = true */\n      swap1\n      pop\n        /* \"tp2/auction.sol\":3852:4061  if(lastBid.exists && msg.value > (lastBid.amount + (lastBid.amount * 5) / 100)){... */\n      jump(tag_39)\n    tag_38:\n        /* \"tp2/auction.sol\":4019:4022  100 */\n      0x64\n        /* \"tp2/auction.sol\":4014:4015  5 */\n      0x05\n        /* \"tp2/auction.sol\":4002:4011  basePrice */\n      sload(0x01)\n        /* \"tp2/auction.sol\":4002:4015  basePrice * 5 */\n      tag_40\n      swap2\n      swap1\n      tag_34\n      jump\t// in\n    tag_40:\n        /* \"tp2/auction.sol\":4001:4022  (basePrice * 5) / 100 */\n      tag_41\n      swap2\n      swap1\n      tag_36\n      jump\t// in\n    tag_41:\n        /* \"tp2/auction.sol\":3989:3998  basePrice */\n      sload(0x01)\n        /* \"tp2/auction.sol\":3989:4022  basePrice + (basePrice * 5) / 100 */\n      tag_42\n      swap2\n      swap1\n      tag_26\n      jump\t// in\n    tag_42:\n        /* \"tp2/auction.sol\":3976:3985  msg.value */\n      callvalue\n        /* \"tp2/auction.sol\":3976:4023  msg.value > (basePrice + (basePrice * 5) / 100) */\n      gt\n        /* \"tp2/auction.sol\":3973:4061  if(msg.value > (basePrice + (basePrice * 5) / 100)){... */\n      iszero\n      tag_43\n      jumpi\n        /* \"tp2/auction.sol\":4046:4050  true */\n      0x01\n        /* \"tp2/auction.sol\":4038:4050  valid = true */\n      swap1\n      pop\n        /* \"tp2/auction.sol\":3973:4061  if(msg.value > (basePrice + (basePrice * 5) / 100)){... */\n    tag_43:\n        /* \"tp2/auction.sol\":3852:4061  if(lastBid.exists && msg.value > (lastBid.amount + (lastBid.amount * 5) / 100)){... */\n    tag_39:\n        /* \"tp2/auction.sol\":4078:4083  valid */\n      dup1\n        /* \"tp2/auction.sol\":4070:4138  require(valid, \"A valid bid must be 5 % greater than the last bid.\") */\n      tag_44\n      jumpi\n      mload(0x40)\n      0x08c379a000000000000000000000000000000000000000000000000000000000\n      dup2\n      mstore\n      0x04\n      add\n      tag_45\n      swap1\n      tag_46\n      jump\t// in\n    tag_45:\n      mload(0x40)\n      dup1\n      swap2\n      sub\n      swap1\n      revert\n    tag_44:\n        /* \"tp2/auction.sol\":975:983  balances */\n      0x0a\n        /* \"tp2/auction.sol\":975:995  balances[msg.sender] */\n      0x00\n        /* \"tp2/auction.sol\":984:994  msg.sender */\n      caller\n        /* \"tp2/auction.sol\":975:995  balances[msg.sender] */\n      0xffffffffffffffffffffffffffffffffffffffff\n      and\n      0xffffffffffffffffffffffffffffffffffffffff\n      and\n      dup2\n      mstore\n      0x20\n      add\n      swap1\n      dup2\n      mstore\n      0x20\n      add\n      0x00\n      keccak256\n        /* \"tp2/auction.sol\":975:1002  balances[msg.sender].exists */\n      0x00\n      add\n      0x00\n      swap1\n      sload\n      swap1\n      0x0100\n      exp\n      swap1\n      div\n      0xff\n      and\n        /* \"tp2/auction.sol\":971:1052  if(!balances[msg.sender].exists){... */\n      tag_48\n      jumpi\n        /* \"tp2/auction.sol\":1017:1024  bidders */\n      0x09\n        /* \"tp2/auction.sol\":1030:1040  msg.sender */\n      caller\n        /* \"tp2/auction.sol\":1017:1041  bidders.push(msg.sender) */\n      swap1\n      dup1\n      0x01\n      dup2\n      sload\n      add\n      dup1\n      dup3\n      sstore\n      dup1\n      swap2\n      pop\n      pop\n      0x01\n      swap1\n      sub\n      swap1\n      0x00\n      mstore\n      keccak256(0x00, 0x20)\n      add\n      0x00\n      swap1\n      swap2\n      swap1\n      swap2\n      swap1\n      swap2\n      0x0100\n      exp\n      dup2\n      sload\n      dup2\n      0xffffffffffffffffffffffffffffffffffffffff\n      mul\n      not\n      and\n      swap1\n      dup4\n      0xffffffffffffffffffffffffffffffffffffffff\n      and\n      mul\n      or\n      swap1\n      sstore\n      pop\n        /* \"tp2/auction.sol\":971:1052  if(!balances[msg.sender].exists){... */\n    tag_48:\n        /* \"tp2/auction.sol\":1084:1093  msg.value */\n      callvalue\n        /* \"tp2/auction.sol\":1061:1068  lastBid */\n      0x02\n        /* \"tp2/auction.sol\":1061:1080  lastBid.accumulated */\n      dup1\n      add\n      0x00\n        /* \"tp2/auction.sol\":1061:1093  lastBid.accumulated += msg.value */\n      dup3\n      dup3\n      sload\n      tag_50\n      swap2\n      swap1\n      tag_26\n      jump\t// in\n    tag_50:\n      swap3\n      pop\n      pop\n      dup2\n      swap1\n      sstore\n      pop\n        /* \"tp2/auction.sol\":1120:1129  msg.value */\n      callvalue\n        /* \"tp2/auction.sol\":1103:1110  lastBid */\n      0x02\n        /* \"tp2/auction.sol\":1103:1117  lastBid.amount */\n      0x03\n      add\n        /* \"tp2/auction.sol\":1103:1129  lastBid.amount = msg.value */\n      dup2\n      swap1\n      sstore\n      pop\n        /* \"tp2/auction.sol\":1155:1165  msg.sender */\n      caller\n        /* \"tp2/auction.sol\":1139:1146  lastBid */\n      0x02\n        /* \"tp2/auction.sol\":1139:1152  lastBid.owner */\n      0x04\n      add\n      0x00\n        /* \"tp2/auction.sol\":1139:1165  lastBid.owner = msg.sender */\n      0x0100\n      exp\n      dup2\n      sload\n      dup2\n      0xffffffffffffffffffffffffffffffffffffffff\n      mul\n      not\n      and\n      swap1\n      dup4\n      0xffffffffffffffffffffffffffffffffffffffff\n      and\n      mul\n      or\n      swap1\n      sstore\n      pop\n        /* \"tp2/auction.sol\":1192:1196  true */\n      0x01\n        /* \"tp2/auction.sol\":1175:1182  lastBid */\n      0x02\n        /* \"tp2/auction.sol\":1175:1189  lastBid.exists */\n      0x00\n      add\n      0x00\n        /* \"tp2/auction.sol\":1175:1196  lastBid.exists = true */\n      0x0100\n      exp\n      dup2\n      sload\n      dup2\n      0xff\n      mul\n      not\n      and\n      swap1\n      dup4\n      iszero\n      iszero\n      mul\n      or\n      swap1\n      sstore\n      pop\n        /* \"tp2/auction.sol\":1226:1241  block.timestamp */\n      timestamp\n        /* \"tp2/auction.sol\":1206:1213  lastBid */\n      0x02\n        /* \"tp2/auction.sol\":1206:1223  lastBid.timestamp */\n      0x01\n      add\n        /* \"tp2/auction.sol\":1206:1241  lastBid.timestamp = block.timestamp */\n      dup2\n      swap1\n      sstore\n      pop\n        /* \"tp2/auction.sol\":1288:1297  msg.value */\n      callvalue\n        /* \"tp2/auction.sol\":1252:1260  balances */\n      0x0a\n        /* \"tp2/auction.sol\":1252:1272  balances[msg.sender] */\n      0x00\n        /* \"tp2/auction.sol\":1261:1271  msg.sender */\n      caller\n        /* \"tp2/auction.sol\":1252:1272  balances[msg.sender] */\n      0xffffffffffffffffffffffffffffffffffffffff\n      and\n      0xffffffffffffffffffffffffffffffffffffffff\n      and\n      dup2\n      mstore\n      0x20\n      add\n      swap1\n      dup2\n      mstore\n      0x20\n      add\n      0x00\n      keccak256\n        /* \"tp2/auction.sol\":1252:1284  balances[msg.sender].accumulated */\n      0x02\n      add\n      0x00\n        /* \"tp2/auction.sol\":1252:1297  balances[msg.sender].accumulated += msg.value */\n      dup3\n      dup3\n      sload\n      tag_51\n      swap2\n      swap1\n      tag_26\n      jump\t// in\n    tag_51:\n      swap3\n      pop\n      pop\n      dup2\n      swap1\n      sstore\n      pop\n        /* \"tp2/auction.sol\":1337:1346  msg.value */\n      callvalue\n        /* \"tp2/auction.sol\":1307:1315  balances */\n      0x0a\n        /* \"tp2/auction.sol\":1307:1327  balances[msg.sender] */\n      0x00\n        /* \"tp2/auction.sol\":1316:1326  msg.sender */\n      caller\n        /* \"tp2/auction.sol\":1307:1327  balances[msg.sender] */\n      0xffffffffffffffffffffffffffffffffffffffff\n      and\n      0xffffffffffffffffffffffffffffffffffffffff\n      and\n      dup2\n      mstore\n      0x20\n      add\n      swap1\n      dup2\n      mstore\n      0x20\n      add\n      0x00\n      keccak256\n        /* \"tp2/auction.sol\":1307:1334  balances[msg.sender].amount */\n      0x03\n      add\n        /* \"tp2/auction.sol\":1307:1346  balances[msg.sender].amount = msg.value */\n      dup2\n      swap1\n      sstore\n      pop\n        /* \"tp2/auction.sol\":1385:1395  msg.sender */\n      caller\n        /* \"tp2/auction.sol\":1356:1364  balances */\n      0x0a\n        /* \"tp2/auction.sol\":1356:1376  balances[msg.sender] */\n      0x00\n        /* \"tp2/auction.sol\":1365:1375  msg.sender */\n      caller\n        /* \"tp2/auction.sol\":1356:1376  balances[msg.sender] */\n      0xffffffffffffffffffffffffffffffffffffffff\n      and\n      0xffffffffffffffffffffffffffffffffffffffff\n      and\n      dup2\n      mstore\n      0x20\n      add\n      swap1\n      dup2\n      mstore\n      0x20\n      add\n      0x00\n      keccak256\n        /* \"tp2/auction.sol\":1356:1382  balances[msg.sender].owner */\n      0x04\n      add\n      0x00\n        /* \"tp2/auction.sol\":1356:1395  balances[msg.sender].owner = msg.sender */\n      0x0100\n      exp\n      dup2\n      sload\n      dup2\n      0xffffffffffffffffffffffffffffffffffffffff\n      mul\n      not\n      and\n      swap1\n      dup4\n      0xffffffffffffffffffffffffffffffffffffffff\n      and\n      mul\n      or\n      swap1\n      sstore\n      pop\n        /* \"tp2/auction.sol\":1435:1439  true */\n      0x01\n        /* \"tp2/auction.sol\":1405:1413  balances */\n      0x0a\n        /* \"tp2/auction.sol\":1405:1425  balances[msg.sender] */\n      0x00\n        /* \"tp2/auction.sol\":1414:1424  msg.sender */\n      caller\n        /* \"tp2/auction.sol\":1405:1425  balances[msg.sender] */\n      0xffffffffffffffffffffffffffffffffffffffff\n      and\n      0xffffffffffffffffffffffffffffffffffffffff\n      and\n      dup2\n      mstore\n      0x20\n      add\n      swap1\n      dup2\n      mstore\n      0x20\n      add\n      0x00\n      keccak256\n        /* \"tp2/auction.sol\":1405:1432  balances[msg.sender].exists */\n      0x00\n      add\n      0x00\n        /* \"tp2/auction.sol\":1405:1439  balances[msg.sender].exists = true */\n      0x0100\n      exp\n      dup2\n      sload\n      dup2\n      0xff\n      mul\n      not\n      and\n      swap1\n      dup4\n      iszero\n      iszero\n      mul\n      or\n      swap1\n      sstore\n      pop\n        /* \"tp2/auction.sol\":1482:1497  block.timestamp */\n      timestamp\n        /* \"tp2/auction.sol\":1449:1457  balances */\n      0x0a\n        /* \"tp2/auction.sol\":1449:1469  balances[msg.sender] */\n      0x00\n        /* \"tp2/auction.sol\":1458:1468  msg.sender */\n      caller\n        /* \"tp2/auction.sol\":1449:1469  balances[msg.sender] */\n      0xffffffffffffffffffffffffffffffffffffffff\n      and\n      0xffffffffffffffffffffffffffffffffffffffff\n      and\n      dup2\n      mstore\n      0x20\n      add\n      swap1\n      dup2\n      mstore\n      0x20\n      add\n      0x00\n      keccak256\n        /* \"tp2/auction.sol\":1449:1479  balances[msg.sender].timestamp */\n      0x01\n      add\n        /* \"tp2/auction.sol\":1449:1497  balances[msg.sender].timestamp = block.timestamp */\n      dup2\n      swap1\n      sstore\n      pop\n        /* \"tp2/auction.sol\":1513:1542  NewBid(msg.sender, msg.value) */\n      0xdd0b6c6a77960e2066c96171b4d7ac9e8b4c184011f38544afa36a5bb63ec59f\n        /* \"tp2/auction.sol\":1520:1530  msg.sender */\n      caller\n        /* \"tp2/auction.sol\":1532:1541  msg.value */\n      callvalue\n        /* \"tp2/auction.sol\":1513:1542  NewBid(msg.sender, msg.value) */\n      mload(0x40)\n      tag_52\n      swap3\n      swap2\n      swap1\n      tag_15\n      jump\t// in\n    tag_52:\n      mload(0x40)\n      dup1\n      swap2\n      sub\n      swap1\n      log1\n        /* \"tp2/auction.sol\":3814:4156  {... */\n      pop\n        /* \"tp2/auction.sol\":3383:3715  {... */\n      pop\n        /* \"tp2/auction.sol\":913:1549  function bid() external payable active greatter {... */\n      jump\t// out\n        /* \"tp2/auction.sol\":1555:2164  function close() external onlyAdmin finished {... */\n    tag_10:\n        /* \"tp2/auction.sol\":2695:2700  admin */\n      0x07\n      0x00\n      swap1\n      sload\n      swap1\n      0x0100\n      exp\n      swap1\n      div\n      0xffffffffffffffffffffffffffffffffffffffff\n      and\n        /* \"tp2/auction.sol\":2681:2700  msg.sender == admin */\n      0xffffffffffffffffffffffffffffffffffffffff\n      and\n        /* \"tp2/auction.sol\":2681:2691  msg.sender */\n      caller\n        /* \"tp2/auction.sol\":2681:2700  msg.sender == admin */\n      0xffffffffffffffffffffffffffffffffffffffff\n      and\n      eq\n        /* \"tp2/auction.sol\":2673:2732  require(msg.sender == admin, \"Only Admin User is allowed.\") */\n      tag_54\n      jumpi\n      mload(0x40)\n      0x08c379a000000000000000000000000000000000000000000000000000000000\n      dup2\n      mstore\n      0x04\n      add\n      tag_55\n      swap1\n      tag_56\n      jump\t// in\n    tag_55:\n      mload(0x40)\n      dup1\n      swap2\n      sub\n      swap1\n      revert\n    tag_54:\n        /* \"tp2/auction.sol\":2810:2824  completionTime */\n      sload(0x00)\n        /* \"tp2/auction.sol\":2792:2807  block.timestamp */\n      timestamp\n        /* \"tp2/auction.sol\":2792:2824  block.timestamp > completionTime */\n      gt\n        /* \"tp2/auction.sol\":2792:2878  block.timestamp > completionTime && block.timestamp > (lastBid.timestamp + 10 minutes) */\n      dup1\n      iszero\n      tag_58\n      jumpi\n      pop\n        /* \"tp2/auction.sol\":2867:2877  10 minutes */\n      0x0258\n        /* \"tp2/auction.sol\":2847:2854  lastBid */\n      0x02\n        /* \"tp2/auction.sol\":2847:2864  lastBid.timestamp */\n      0x01\n      add\n      sload\n        /* \"tp2/auction.sol\":2847:2877  lastBid.timestamp + 10 minutes */\n      tag_59\n      swap2\n      swap1\n      tag_26\n      jump\t// in\n    tag_59:\n        /* \"tp2/auction.sol\":2828:2843  block.timestamp */\n      timestamp\n        /* \"tp2/auction.sol\":2828:2878  block.timestamp > (lastBid.timestamp + 10 minutes) */\n      gt\n        /* \"tp2/auction.sol\":2792:2878  block.timestamp > completionTime && block.timestamp > (lastBid.timestamp + 10 minutes) */\n    tag_58:\n        /* \"tp2/auction.sol\":2784:2921  require(block.timestamp > completionTime && block.timestamp > (lastBid.timestamp + 10 minutes),... */\n      tag_60\n      jumpi\n      mload(0x40)\n      0x08c379a000000000000000000000000000000000000000000000000000000000\n      dup2\n      mstore\n      0x04\n      add\n      tag_61\n      swap1\n      tag_62\n      jump\t// in\n    tag_61:\n      mload(0x40)\n      dup1\n      swap2\n      sub\n      swap1\n      revert\n    tag_60:\n        /* \"tp2/auction.sol\":1645:1652  lastBid */\n      0x02\n        /* \"tp2/auction.sol\":1645:1658  lastBid.owner */\n      0x04\n      add\n      0x00\n      swap1\n      sload\n      swap1\n      0x0100\n      exp\n      swap1\n      div\n      0xffffffffffffffffffffffffffffffffffffffff\n      and\n        /* \"tp2/auction.sol\":1615:1675  AuctionFinished(auctioneItem, lastBid.owner, lastBid.amount) */\n      0xffffffffffffffffffffffffffffffffffffffff\n      and\n        /* \"tp2/auction.sol\":1631:1643  auctioneItem */\n      0x08\n        /* \"tp2/auction.sol\":1615:1675  AuctionFinished(auctioneItem, lastBid.owner, lastBid.amount) */\n      mload(0x40)\n      tag_64\n      swap2\n      swap1\n      tag_65\n      jump\t// in\n    tag_64:\n      mload(0x40)\n      dup1\n      swap2\n      sub\n      swap1\n      keccak256\n      0xef1c1ac56c3e721a0a9bdb9f70b99f3cd67d25c1aabe4830f296c2391dc1c2e8\n        /* \"tp2/auction.sol\":1660:1667  lastBid */\n      0x02\n        /* \"tp2/auction.sol\":1660:1674  lastBid.amount */\n      0x03\n      add\n      sload\n        /* \"tp2/auction.sol\":1615:1675  AuctionFinished(auctioneItem, lastBid.owner, lastBid.amount) */\n      mload(0x40)\n      tag_66\n      swap2\n      swap1\n      tag_67\n      jump\t// in\n    tag_66:\n      mload(0x40)\n      dup1\n      swap2\n      sub\n      swap1\n      log3\n        /* \"tp2/auction.sol\":1690:1696  uint i */\n      0x00\n        /* \"tp2/auction.sol\":1685:2158  for (uint i = 0; i < bidders.length; i++) {... */\n    tag_68:\n        /* \"tp2/auction.sol\":1706:1713  bidders */\n      0x09\n        /* \"tp2/auction.sol\":1706:1720  bidders.length */\n      dup1\n      sload\n      swap1\n      pop\n        /* \"tp2/auction.sol\":1702:1703  i */\n      dup2\n        /* \"tp2/auction.sol\":1702:1720  i < bidders.length */\n      lt\n        /* \"tp2/auction.sol\":1685:2158  for (uint i = 0; i < bidders.length; i++) {... */\n      iszero\n      tag_69\n      jumpi\n        /* \"tp2/auction.sol\":1758:1765  lastBid */\n      0x02\n        /* \"tp2/auction.sol\":1758:1771  lastBid.owner */\n      0x04\n      add\n      0x00\n      swap1\n      sload\n      swap1\n      0x0100\n      exp\n      swap1\n      div\n      0xffffffffffffffffffffffffffffffffffffffff\n      and\n        /* \"tp2/auction.sol\":1744:1771  bidders[i] != lastBid.owner */\n      0xffffffffffffffffffffffffffffffffffffffff\n      and\n        /* \"tp2/auction.sol\":1744:1751  bidders */\n      0x09\n        /* \"tp2/auction.sol\":1752:1753  i */\n      dup3\n        /* \"tp2/auction.sol\":1744:1754  bidders[i] */\n      dup2\n      sload\n      dup2\n      lt\n      tag_71\n      jumpi\n      tag_72\n      tag_73\n      jump\t// in\n    tag_72:\n    tag_71:\n      swap1\n      0x00\n      mstore\n      keccak256(0x00, 0x20)\n      add\n      0x00\n      swap1\n      sload\n      swap1\n      0x0100\n      exp\n      swap1\n      div\n      0xffffffffffffffffffffffffffffffffffffffff\n      and\n        /* \"tp2/auction.sol\":1744:1771  bidders[i] != lastBid.owner */\n      0xffffffffffffffffffffffffffffffffffffffff\n      and\n      eq\n        /* \"tp2/auction.sol\":1741:2148  if(bidders[i] != lastBid.owner){... */\n      tag_75\n      jumpi\n        /* \"tp2/auction.sol\":1790:1801  uint amount */\n      0x00\n        /* \"tp2/auction.sol\":1804:1812  balances */\n      0x0a\n        /* \"tp2/auction.sol\":1804:1824  balances[bidders[i]] */\n      0x00\n        /* \"tp2/auction.sol\":1813:1820  bidders */\n      0x09\n        /* \"tp2/auction.sol\":1821:1822  i */\n      dup5\n        /* \"tp2/auction.sol\":1813:1823  bidders[i] */\n      dup2\n      sload\n      dup2\n      lt\n      tag_76\n      jumpi\n      tag_77\n      tag_73\n      jump\t// in\n    tag_77:\n    tag_76:\n      swap1\n      0x00\n      mstore\n      keccak256(0x00, 0x20)\n      add\n      0x00\n      swap1\n      sload\n      swap1\n      0x0100\n      exp\n      swap1\n      div\n      0xffffffffffffffffffffffffffffffffffffffff\n      and\n        /* \"tp2/auction.sol\":1804:1824  balances[bidders[i]] */\n      0xffffffffffffffffffffffffffffffffffffffff\n      and\n      0xffffffffffffffffffffffffffffffffffffffff\n      and\n      dup2\n      mstore\n      0x20\n      add\n      swap1\n      dup2\n      mstore\n      0x20\n      add\n      0x00\n      keccak256\n        /* \"tp2/auction.sol\":1804:1836  balances[bidders[i]].accumulated */\n      0x02\n      add\n      sload\n        /* \"tp2/auction.sol\":1790:1836  uint amount = balances[bidders[i]].accumulated */\n      swap1\n      pop\n        /* \"tp2/auction.sol\":1887:1890  100 */\n      0x64\n        /* \"tp2/auction.sol\":1882:1883  2 */\n      0x02\n        /* \"tp2/auction.sol\":1873:1879  amount */\n      dup3\n        /* \"tp2/auction.sol\":1873:1883  amount * 2 */\n      tag_79\n      swap2\n      swap1\n      tag_34\n      jump\t// in\n    tag_79:\n        /* \"tp2/auction.sol\":1872:1890  (amount * 2) / 100 */\n      tag_80\n      swap2\n      swap1\n      tag_36\n      jump\t// in\n    tag_80:\n        /* \"tp2/auction.sol\":1863:1869  amount */\n      dup2\n        /* \"tp2/auction.sol\":1863:1890  amount - (amount * 2) / 100 */\n      tag_81\n      swap2\n      swap1\n      tag_21\n      jump\t// in\n    tag_81:\n        /* \"tp2/auction.sol\":1854:1890  amount = amount - (amount * 2) / 100 */\n      swap1\n      pop\n        /* \"tp2/auction.sol\":1915:1923  balances */\n      0x0a\n        /* \"tp2/auction.sol\":1915:1935  balances[bidders[i]] */\n      0x00\n        /* \"tp2/auction.sol\":1924:1931  bidders */\n      0x09\n        /* \"tp2/auction.sol\":1932:1933  i */\n      dup5\n        /* \"tp2/auction.sol\":1924:1934  bidders[i] */\n      dup2\n      sload\n      dup2\n      lt\n      tag_82\n      jumpi\n      tag_83\n      tag_73\n      jump\t// in\n    tag_83:\n    tag_82:\n      swap1\n      0x00\n      mstore\n      keccak256(0x00, 0x20)\n      add\n      0x00\n      swap1\n      sload\n      swap1\n      0x0100\n      exp\n      swap1\n      div\n      0xffffffffffffffffffffffffffffffffffffffff\n      and\n        /* \"tp2/auction.sol\":1915:1935  balances[bidders[i]] */\n      0xffffffffffffffffffffffffffffffffffffffff\n      and\n      0xffffffffffffffffffffffffffffffffffffffff\n      and\n      dup2\n      mstore\n      0x20\n      add\n      swap1\n      dup2\n      mstore\n      0x20\n      add\n      0x00\n      keccak256\n      0x00\n        /* \"tp2/auction.sol\":1908:1935  delete balances[bidders[i]] */\n      dup1\n      dup3\n      add\n      exp(0x0100, 0x00)\n      dup2\n      sload\n      swap1\n      0xff\n      mul\n      not\n      and\n      swap1\n      sstore\n      0x01\n      dup3\n      add\n      0x00\n      swap1\n      sstore\n      0x02\n      dup3\n      add\n      0x00\n      swap1\n      sstore\n      0x03\n      dup3\n      add\n      0x00\n      swap1\n      sstore\n      0x04\n      dup3\n      add\n      exp(0x0100, 0x00)\n      dup2\n      sload\n      swap1\n      0xffffffffffffffffffffffffffffffffffffffff\n      mul\n      not\n      and\n      swap1\n      sstore\n      pop\n      pop\n        /* \"tp2/auction.sol\":2105:2112  bidders */\n      0x09\n        /* \"tp2/auction.sol\":2113:2114  i */\n      dup3\n        /* \"tp2/auction.sol\":2105:2115  bidders[i] */\n      dup2\n      sload\n      dup2\n      lt\n      tag_85\n      jumpi\n      tag_86\n      tag_73\n      jump\t// in\n    tag_86:\n    tag_85:\n      swap1\n      0x00\n      mstore\n      keccak256(0x00, 0x20)\n      add\n      0x00\n      swap1\n      sload\n      swap1\n      0x0100\n      exp\n      swap1\n      div\n      0xffffffffffffffffffffffffffffffffffffffff\n      and\n        /* \"tp2/auction.sol\":2097:2125  payable(bidders[i]).transfer */\n      0xffffffffffffffffffffffffffffffffffffffff\n      and\n        /* \"tp2/auction.sol\":2097:2133  payable(bidders[i]).transfer(amount) */\n      0x08fc\n        /* \"tp2/auction.sol\":2126:2132  amount */\n      dup3\n        /* \"tp2/auction.sol\":2097:2133  payable(bidders[i]).transfer(amount) */\n      swap1\n      dup2\n      iszero\n      mul\n      swap1\n      mload(0x40)\n      0x00\n      mload(0x40)\n      dup1\n      dup4\n      sub\n      dup2\n      dup6\n      dup9\n      dup9\n      call\n      swap4\n      pop\n      pop\n      pop\n      pop\n      iszero\n      dup1\n      iszero\n      tag_89\n      jumpi\n      returndatasize\n      0x00\n      dup1\n      returndatacopy\n      revert(0x00, returndatasize)\n    tag_89:\n      pop\n        /* \"tp2/auction.sol\":1772:2148  {... */\n      pop\n        /* \"tp2/auction.sol\":1741:2148  if(bidders[i] != lastBid.owner){... */\n    tag_75:\n        /* \"tp2/auction.sol\":1722:1725  i++ */\n      dup1\n      dup1\n      0x01\n      add\n      swap2\n      pop\n      pop\n        /* \"tp2/auction.sol\":1685:2158  for (uint i = 0; i < bidders.length; i++) {... */\n      jump(tag_68)\n    tag_69:\n      pop\n        /* \"tp2/auction.sol\":1555:2164  function close() external onlyAdmin finished {... */\n      jump\t// out\n        /* \"tp2/auction.sol\":2499:2637  function inforWinner() external finished view returns (address winner, uint amount){... */\n    tag_13:\n        /* \"tp2/auction.sol\":2554:2568  address winner */\n      0x00\n        /* \"tp2/auction.sol\":2570:2581  uint amount */\n      dup1\n        /* \"tp2/auction.sol\":2810:2824  completionTime */\n      sload(0x00)\n        /* \"tp2/auction.sol\":2792:2807  block.timestamp */\n      timestamp\n        /* \"tp2/auction.sol\":2792:2824  block.timestamp > completionTime */\n      gt\n        /* \"tp2/auction.sol\":2792:2878  block.timestamp > completionTime && block.timestamp > (lastBid.timestamp + 10 minutes) */\n      dup1\n      iszero\n      tag_91\n      jumpi\n      pop\n        /* \"tp2/auction.sol\":2867:2877  10 minutes */\n      0x0258\n        /* \"tp2/auction.sol\":2847:2854  lastBid */\n      0x02\n        /* \"tp2/auction.sol\":2847:2864  lastBid.timestamp */\n      0x01\n      add\n      sload\n        /* \"tp2/auction.sol\":2847:2877  lastBid.timestamp + 10 minutes */\n      tag_92\n      swap2\n      swap1\n      tag_26\n      jump\t// in\n    tag_92:\n        /* \"tp2/auction.sol\":2828:2843  block.timestamp */\n      timestamp\n        /* \"tp2/auction.sol\":2828:2878  block.timestamp > (lastBid.timestamp + 10 minutes) */\n      gt\n        /* \"tp2/auction.sol\":2792:2878  block.timestamp > completionTime && block.timestamp > (lastBid.timestamp + 10 minutes) */\n    tag_91:\n        /* \"tp2/auction.sol\":2784:2921  require(block.timestamp > completionTime && block.timestamp > (lastBid.timestamp + 10 minutes),... */\n      tag_93\n      jumpi\n      mload(0x40)\n      0x08c379a000000000000000000000000000000000000000000000000000000000\n      dup2\n      mstore\n      0x04\n      add\n      tag_94\n      swap1\n      tag_62\n      jump\t// in\n    tag_94:\n      mload(0x40)\n      dup1\n      swap2\n      sub\n      swap1\n      revert\n    tag_93:\n        /* \"tp2/auction.sol\":2600:2607  lastBid */\n      0x02\n        /* \"tp2/auction.sol\":2600:2613  lastBid.owner */\n      0x04\n      add\n      0x00\n      swap1\n      sload\n      swap1\n      0x0100\n      exp\n      swap1\n      div\n      0xffffffffffffffffffffffffffffffffffffffff\n      and\n        /* \"tp2/auction.sol\":2615:2622  lastBid */\n      0x02\n        /* \"tp2/auction.sol\":2615:2629  lastBid.amount */\n      0x03\n      add\n      sload\n        /* \"tp2/auction.sol\":2592:2630  return (lastBid.owner, lastBid.amount) */\n      swap2\n      pop\n      swap2\n      pop\n        /* \"tp2/auction.sol\":2499:2637  function inforWinner() external finished view returns (address winner, uint amount){... */\n      swap1\n      swap2\n      jump\t// out\n        /* \"tp2/auction.sol\":2170:2493  function withdrawal() external onlyBidder active {... */\n    tag_18:\n        /* \"tp2/auction.sol\":3069:3077  balances */\n      0x0a\n        /* \"tp2/auction.sol\":3069:3089  balances[msg.sender] */\n      0x00\n        /* \"tp2/auction.sol\":3078:3088  msg.sender */\n      caller\n        /* \"tp2/auction.sol\":3069:3089  balances[msg.sender] */\n      0xffffffffffffffffffffffffffffffffffffffff\n      and\n      0xffffffffffffffffffffffffffffffffffffffff\n      and\n      dup2\n      mstore\n      0x20\n      add\n      swap1\n      dup2\n      mstore\n      0x20\n      add\n      0x00\n      keccak256\n        /* \"tp2/auction.sol\":3069:3096  balances[msg.sender].exists */\n      0x00\n      add\n      0x00\n      swap1\n      sload\n      swap1\n      0x0100\n      exp\n      swap1\n      div\n      0xff\n      and\n        /* \"tp2/auction.sol\":3061:3125  require(balances[msg.sender].exists, \"Only Bidder are allowed.\") */\n      tag_97\n      jumpi\n      mload(0x40)\n      0x08c379a000000000000000000000000000000000000000000000000000000000\n      dup2\n      mstore\n      0x04\n      add\n      tag_98\n      swap1\n      tag_99\n      jump\t// in\n    tag_98:\n      mload(0x40)\n      dup1\n      swap2\n      sub\n      swap1\n      revert\n    tag_97:\n        /* \"tp2/auction.sol\":3393:3406  bool isActive */\n      0x00\n        /* \"tp2/auction.sol\":3463:3473  10 minutes */\n      0x0258\n        /* \"tp2/auction.sol\":3446:3460  completionTime */\n      sload(0x00)\n        /* \"tp2/auction.sol\":3446:3473  completionTime - 10 minutes */\n      tag_101\n      swap2\n      swap1\n      tag_21\n      jump\t// in\n    tag_101:\n        /* \"tp2/auction.sol\":3427:3442  block.timestamp */\n      timestamp\n        /* \"tp2/auction.sol\":3427:3474  block.timestamp < (completionTime - 10 minutes) */\n      lt\n        /* \"tp2/auction.sol\":3424:3632  if(block.timestamp < (completionTime - 10 minutes)){... */\n      iszero\n      tag_102\n      jumpi\n        /* \"tp2/auction.sol\":3500:3504  true */\n      0x01\n        /* \"tp2/auction.sol\":3489:3504  isActive = true */\n      swap1\n      pop\n        /* \"tp2/auction.sol\":3424:3632  if(block.timestamp < (completionTime - 10 minutes)){... */\n      jump(tag_103)\n    tag_102:\n        /* \"tp2/auction.sol\":3523:3530  lastBid */\n      0x02\n        /* \"tp2/auction.sol\":3523:3537  lastBid.exists */\n      0x00\n      add\n      0x00\n      swap1\n      sload\n      swap1\n      0x0100\n      exp\n      swap1\n      div\n      0xff\n      and\n        /* \"tp2/auction.sol\":3523:3591  lastBid.exists && block.timestamp < (lastBid.timestamp + 10 minutes) */\n      dup1\n      iszero\n      tag_104\n      jumpi\n      pop\n        /* \"tp2/auction.sol\":3580:3590  10 minutes */\n      0x0258\n        /* \"tp2/auction.sol\":3560:3567  lastBid */\n      0x02\n        /* \"tp2/auction.sol\":3560:3577  lastBid.timestamp */\n      0x01\n      add\n      sload\n        /* \"tp2/auction.sol\":3560:3590  lastBid.timestamp + 10 minutes */\n      tag_105\n      swap2\n      swap1\n      tag_26\n      jump\t// in\n    tag_105:\n        /* \"tp2/auction.sol\":3541:3556  block.timestamp */\n      timestamp\n        /* \"tp2/auction.sol\":3541:3591  block.timestamp < (lastBid.timestamp + 10 minutes) */\n      lt\n        /* \"tp2/auction.sol\":3523:3591  lastBid.exists && block.timestamp < (lastBid.timestamp + 10 minutes) */\n    tag_104:\n        /* \"tp2/auction.sol\":3520:3632  if(lastBid.exists && block.timestamp < (lastBid.timestamp + 10 minutes)){... */\n      iszero\n      tag_106\n      jumpi\n        /* \"tp2/auction.sol\":3617:3621  true */\n      0x01\n        /* \"tp2/auction.sol\":3606:3621  isActive = true */\n      swap1\n      pop\n        /* \"tp2/auction.sol\":3520:3632  if(lastBid.exists && block.timestamp < (lastBid.timestamp + 10 minutes)){... */\n    tag_106:\n        /* \"tp2/auction.sol\":3424:3632  if(block.timestamp < (completionTime - 10 minutes)){... */\n    tag_103:\n        /* \"tp2/auction.sol\":3649:3657  isActive */\n      dup1\n        /* \"tp2/auction.sol\":3641:3697  require(isActive, \"The time for place a bid has finish\") */\n      tag_107\n      jumpi\n      mload(0x40)\n      0x08c379a000000000000000000000000000000000000000000000000000000000\n      dup2\n      mstore\n      0x04\n      add\n      tag_108\n      swap1\n      tag_30\n      jump\t// in\n    tag_108:\n      mload(0x40)\n      dup1\n      swap2\n      sub\n      swap1\n      revert\n    tag_107:\n        /* \"tp2/auction.sol\":2289:2303  uint256 amount */\n      0x00\n        /* \"tp2/auction.sol\":2341:2349  balances */\n      0x0a\n        /* \"tp2/auction.sol\":2341:2361  balances[msg.sender] */\n      0x00\n        /* \"tp2/auction.sol\":2350:2360  msg.sender */\n      caller\n        /* \"tp2/auction.sol\":2341:2361  balances[msg.sender] */\n      0xffffffffffffffffffffffffffffffffffffffff\n      and\n      0xffffffffffffffffffffffffffffffffffffffff\n      and\n      dup2\n      mstore\n      0x20\n      add\n      swap1\n      dup2\n      mstore\n      0x20\n      add\n      0x00\n      keccak256\n        /* \"tp2/auction.sol\":2341:2368  balances[msg.sender].amount */\n      0x03\n      add\n      sload\n        /* \"tp2/auction.sol\":2306:2314  balances */\n      0x0a\n        /* \"tp2/auction.sol\":2306:2326  balances[msg.sender] */\n      0x00\n        /* \"tp2/auction.sol\":2315:2325  msg.sender */\n      caller\n        /* \"tp2/auction.sol\":2306:2326  balances[msg.sender] */\n      0xffffffffffffffffffffffffffffffffffffffff\n      and\n      0xffffffffffffffffffffffffffffffffffffffff\n      and\n      dup2\n      mstore\n      0x20\n      add\n      swap1\n      dup2\n      mstore\n      0x20\n      add\n      0x00\n      keccak256\n        /* \"tp2/auction.sol\":2306:2338  balances[msg.sender].accumulated */\n      0x02\n      add\n      sload\n        /* \"tp2/auction.sol\":2306:2368  balances[msg.sender].accumulated - balances[msg.sender].amount */\n      tag_110\n      swap2\n      swap1\n      tag_21\n      jump\t// in\n    tag_110:\n        /* \"tp2/auction.sol\":2289:2368  uint256 amount = balances[msg.sender].accumulated - balances[msg.sender].amount */\n      swap1\n      pop\n        /* \"tp2/auction.sol\":2413:2421  balances */\n      0x0a\n        /* \"tp2/auction.sol\":2413:2433  balances[msg.sender] */\n      0x00\n        /* \"tp2/auction.sol\":2422:2432  msg.sender */\n      caller\n        /* \"tp2/auction.sol\":2413:2433  balances[msg.sender] */\n      0xffffffffffffffffffffffffffffffffffffffff\n      and\n      0xffffffffffffffffffffffffffffffffffffffff\n      and\n      dup2\n      mstore\n      0x20\n      add\n      swap1\n      dup2\n      mstore\n      0x20\n      add\n      0x00\n      keccak256\n        /* \"tp2/auction.sol\":2413:2440  balances[msg.sender].amount */\n      0x03\n      add\n      sload\n        /* \"tp2/auction.sol\":2378:2386  balances */\n      0x0a\n        /* \"tp2/auction.sol\":2378:2398  balances[msg.sender] */\n      0x00\n        /* \"tp2/auction.sol\":2387:2397  msg.sender */\n      caller\n        /* \"tp2/auction.sol\":2378:2398  balances[msg.sender] */\n      0xffffffffffffffffffffffffffffffffffffffff\n      and\n      0xffffffffffffffffffffffffffffffffffffffff\n      and\n      dup2\n      mstore\n      0x20\n      add\n      swap1\n      dup2\n      mstore\n      0x20\n      add\n      0x00\n      keccak256\n        /* \"tp2/auction.sol\":2378:2410  balances[msg.sender].accumulated */\n      0x02\n      add\n        /* \"tp2/auction.sol\":2378:2440  balances[msg.sender].accumulated = balances[msg.sender].amount */\n      dup2\n      swap1\n      sstore\n      pop\n        /* \"tp2/auction.sol\":2458:2468  msg.sender */\n      caller\n        /* \"tp2/auction.sol\":2450:2478  payable(msg.sender).transfer */\n      0xffffffffffffffffffffffffffffffffffffffff\n      and\n        /* \"tp2/auction.sol\":2450:2486  payable(msg.sender).transfer(amount) */\n      0x08fc\n        /* \"tp2/auction.sol\":2479:2485  amount */\n      dup3\n        /* \"tp2/auction.sol\":2450:2486  payable(msg.sender).transfer(amount) */\n      swap1\n      dup2\n      iszero\n      mul\n      swap1\n      mload(0x40)\n      0x00\n      mload(0x40)\n      dup1\n      dup4\n      sub\n      dup2\n      dup6\n      dup9\n      dup9\n      call\n      swap4\n      pop\n      pop\n      pop\n      pop\n      iszero\n      dup1\n      iszero\n      tag_112\n      jumpi\n      returndatasize\n      0x00\n      dup1\n      returndatacopy\n      revert(0x00, returndatasize)\n    tag_112:\n      pop\n        /* \"tp2/auction.sol\":2219:2493  {... */\n      pop\n        /* \"tp2/auction.sol\":3383:3715  {... */\n      pop\n        /* \"tp2/auction.sol\":2170:2493  function withdrawal() external onlyBidder active {... */\n      jump\t// out\n        /* \"#utility.yul\":7:133   */\n    tag_113:\n        /* \"#utility.yul\":44:51   */\n      0x00\n        /* \"#utility.yul\":84:126   */\n      0xffffffffffffffffffffffffffffffffffffffff\n        /* \"#utility.yul\":77:82   */\n      dup3\n        /* \"#utility.yul\":73:127   */\n      and\n        /* \"#utility.yul\":62:127   */\n      swap1\n      pop\n        /* \"#utility.yul\":7:133   */\n      swap2\n      swap1\n      pop\n      jump\t// out\n        /* \"#utility.yul\":139:235   */\n    tag_114:\n        /* \"#utility.yul\":176:183   */\n      0x00\n        /* \"#utility.yul\":205:229   */\n      tag_139\n        /* \"#utility.yul\":223:228   */\n      dup3\n        /* \"#utility.yul\":205:229   */\n      tag_113\n      jump\t// in\n    tag_139:\n        /* \"#utility.yul\":194:229   */\n      swap1\n      pop\n        /* \"#utility.yul\":139:235   */\n      swap2\n      swap1\n      pop\n      jump\t// out\n        /* \"#utility.yul\":241:359   */\n    tag_115:\n        /* \"#utility.yul\":328:352   */\n      tag_141\n        /* \"#utility.yul\":346:351   */\n      dup2\n        /* \"#utility.yul\":328:352   */\n      tag_114\n      jump\t// in\n    tag_141:\n        /* \"#utility.yul\":323:326   */\n      dup3\n        /* \"#utility.yul\":316:353   */\n      mstore\n        /* \"#utility.yul\":241:359   */\n      pop\n      pop\n      jump\t// out\n        /* \"#utility.yul\":365:442   */\n    tag_116:\n        /* \"#utility.yul\":402:409   */\n      0x00\n        /* \"#utility.yul\":431:436   */\n      dup2\n        /* \"#utility.yul\":420:436   */\n      swap1\n      pop\n        /* \"#utility.yul\":365:442   */\n      swap2\n      swap1\n      pop\n      jump\t// out\n        /* \"#utility.yul\":448:566   */\n    tag_117:\n        /* \"#utility.yul\":535:559   */\n      tag_144\n        /* \"#utility.yul\":553:558   */\n      dup2\n        /* \"#utility.yul\":535:559   */\n      tag_116\n      jump\t// in\n    tag_144:\n        /* \"#utility.yul\":530:533   */\n      dup3\n        /* \"#utility.yul\":523:560   */\n      mstore\n        /* \"#utility.yul\":448:566   */\n      pop\n      pop\n      jump\t// out\n        /* \"#utility.yul\":572:904   */\n    tag_15:\n        /* \"#utility.yul\":693:697   */\n      0x00\n        /* \"#utility.yul\":731:733   */\n      0x40\n        /* \"#utility.yul\":720:729   */\n      dup3\n        /* \"#utility.yul\":716:734   */\n      add\n        /* \"#utility.yul\":708:734   */\n      swap1\n      pop\n        /* \"#utility.yul\":744:815   */\n      tag_146\n        /* \"#utility.yul\":812:813   */\n      0x00\n        /* \"#utility.yul\":801:810   */\n      dup4\n        /* \"#utility.yul\":797:814   */\n      add\n        /* \"#utility.yul\":788:794   */\n      dup6\n        /* \"#utility.yul\":744:815   */\n      tag_115\n      jump\t// in\n    tag_146:\n        /* \"#utility.yul\":825:897   */\n      tag_147\n        /* \"#utility.yul\":893:895   */\n      0x20\n        /* \"#utility.yul\":882:891   */\n      dup4\n        /* \"#utility.yul\":878:896   */\n      add\n        /* \"#utility.yul\":869:875   */\n      dup5\n        /* \"#utility.yul\":825:897   */\n      tag_117\n      jump\t// in\n    tag_147:\n        /* \"#utility.yul\":572:904   */\n      swap4\n      swap3\n      pop\n      pop\n      pop\n      jump\t// out\n        /* \"#utility.yul\":910:1090   */\n    tag_118:\n        /* \"#utility.yul\":958:1035   */\n      0x4e487b7100000000000000000000000000000000000000000000000000000000\n        /* \"#utility.yul\":955:956   */\n      0x00\n        /* \"#utility.yul\":948:1036   */\n      mstore\n        /* \"#utility.yul\":1055:1059   */\n      0x11\n        /* \"#utility.yul\":1052:1053   */\n      0x04\n        /* \"#utility.yul\":1045:1060   */\n      mstore\n        /* \"#utility.yul\":1079:1083   */\n      0x24\n        /* \"#utility.yul\":1076:1077   */\n      0x00\n        /* \"#utility.yul\":1069:1084   */\n      revert\n        /* \"#utility.yul\":1096:1290   */\n    tag_21:\n        /* \"#utility.yul\":1136:1140   */\n      0x00\n        /* \"#utility.yul\":1156:1176   */\n      tag_150\n        /* \"#utility.yul\":1174:1175   */\n      dup3\n        /* \"#utility.yul\":1156:1176   */\n      tag_116\n      jump\t// in\n    tag_150:\n        /* \"#utility.yul\":1151:1176   */\n      swap2\n      pop\n        /* \"#utility.yul\":1190:1210   */\n      tag_151\n        /* \"#utility.yul\":1208:1209   */\n      dup4\n        /* \"#utility.yul\":1190:1210   */\n      tag_116\n      jump\t// in\n    tag_151:\n        /* \"#utility.yul\":1185:1210   */\n      swap3\n      pop\n        /* \"#utility.yul\":1234:1235   */\n      dup3\n        /* \"#utility.yul\":1231:1232   */\n      dup3\n        /* \"#utility.yul\":1227:1236   */\n      sub\n        /* \"#utility.yul\":1219:1236   */\n      swap1\n      pop\n        /* \"#utility.yul\":1258:1259   */\n      dup2\n        /* \"#utility.yul\":1252:1256   */\n      dup2\n        /* \"#utility.yul\":1249:1260   */\n      gt\n        /* \"#utility.yul\":1246:1283   */\n      iszero\n      tag_152\n      jumpi\n        /* \"#utility.yul\":1263:1281   */\n      tag_153\n      tag_118\n      jump\t// in\n    tag_153:\n        /* \"#utility.yul\":1246:1283   */\n    tag_152:\n        /* \"#utility.yul\":1096:1290   */\n      swap3\n      swap2\n      pop\n      pop\n      jump\t// out\n        /* \"#utility.yul\":1296:1487   */\n    tag_26:\n        /* \"#utility.yul\":1336:1339   */\n      0x00\n        /* \"#utility.yul\":1355:1375   */\n      tag_155\n        /* \"#utility.yul\":1373:1374   */\n      dup3\n        /* \"#utility.yul\":1355:1375   */\n      tag_116\n      jump\t// in\n    tag_155:\n        /* \"#utility.yul\":1350:1375   */\n      swap2\n      pop\n        /* \"#utility.yul\":1389:1409   */\n      tag_156\n        /* \"#utility.yul\":1407:1408   */\n      dup4\n        /* \"#utility.yul\":1389:1409   */\n      tag_116\n      jump\t// in\n    tag_156:\n        /* \"#utility.yul\":1384:1409   */\n      swap3\n      pop\n        /* \"#utility.yul\":1432:1433   */\n      dup3\n        /* \"#utility.yul\":1429:1430   */\n      dup3\n        /* \"#utility.yul\":1425:1434   */\n      add\n        /* \"#utility.yul\":1418:1434   */\n      swap1\n      pop\n        /* \"#utility.yul\":1453:1456   */\n      dup1\n        /* \"#utility.yul\":1450:1451   */\n      dup3\n        /* \"#utility.yul\":1447:1457   */\n      gt\n        /* \"#utility.yul\":1444:1480   */\n      iszero\n      tag_157\n      jumpi\n        /* \"#utility.yul\":1460:1478   */\n      tag_158\n      tag_118\n      jump\t// in\n    tag_158:\n        /* \"#utility.yul\":1444:1480   */\n    tag_157:\n        /* \"#utility.yul\":1296:1487   */\n      swap3\n      swap2\n      pop\n      pop\n      jump\t// out\n        /* \"#utility.yul\":1493:1662   */\n    tag_119:\n        /* \"#utility.yul\":1577:1588   */\n      0x00\n        /* \"#utility.yul\":1611:1617   */\n      dup3\n        /* \"#utility.yul\":1606:1609   */\n      dup3\n        /* \"#utility.yul\":1599:1618   */\n      mstore\n        /* \"#utility.yul\":1651:1655   */\n      0x20\n        /* \"#utility.yul\":1646:1649   */\n      dup3\n        /* \"#utility.yul\":1642:1656   */\n      add\n        /* \"#utility.yul\":1627:1656   */\n      swap1\n      pop\n        /* \"#utility.yul\":1493:1662   */\n      swap3\n      swap2\n      pop\n      pop\n      jump\t// out\n        /* \"#utility.yul\":1668:1890   */\n    tag_120:\n        /* \"#utility.yul\":1808:1842   */\n      0x5468652074696d6520666f7220706c616365206120626964206861732066696e\n        /* \"#utility.yul\":1804:1805   */\n      0x00\n        /* \"#utility.yul\":1796:1802   */\n      dup3\n        /* \"#utility.yul\":1792:1806   */\n      add\n        /* \"#utility.yul\":1785:1843   */\n      mstore\n        /* \"#utility.yul\":1877:1882   */\n      0x6973680000000000000000000000000000000000000000000000000000000000\n        /* \"#utility.yul\":1872:1874   */\n      0x20\n        /* \"#utility.yul\":1864:1870   */\n      dup3\n        /* \"#utility.yul\":1860:1875   */\n      add\n        /* \"#utility.yul\":1853:1883   */\n      mstore\n        /* \"#utility.yul\":1668:1890   */\n      pop\n      jump\t// out\n        /* \"#utility.yul\":1896:2262   */\n    tag_121:\n        /* \"#utility.yul\":2038:2041   */\n      0x00\n        /* \"#utility.yul\":2059:2126   */\n      tag_162\n        /* \"#utility.yul\":2123:2125   */\n      0x23\n        /* \"#utility.yul\":2118:2121   */\n      dup4\n        /* \"#utility.yul\":2059:2126   */\n      tag_119\n      jump\t// in\n    tag_162:\n        /* \"#utility.yul\":2052:2126   */\n      swap2\n      pop\n        /* \"#utility.yul\":2135:2228   */\n      tag_163\n        /* \"#utility.yul\":2224:2227   */\n      dup3\n        /* \"#utility.yul\":2135:2228   */\n      tag_120\n      jump\t// in\n    tag_163:\n        /* \"#utility.yul\":2253:2255   */\n      0x40\n        /* \"#utility.yul\":2248:2251   */\n      dup3\n        /* \"#utility.yul\":2244:2256   */\n      add\n        /* \"#utility.yul\":2237:2256   */\n      swap1\n      pop\n        /* \"#utility.yul\":1896:2262   */\n      swap2\n      swap1\n      pop\n      jump\t// out\n        /* \"#utility.yul\":2268:2687   */\n    tag_30:\n        /* \"#utility.yul\":2434:2438   */\n      0x00\n        /* \"#utility.yul\":2472:2474   */\n      0x20\n        /* \"#utility.yul\":2461:2470   */\n      dup3\n        /* \"#utility.yul\":2457:2475   */\n      add\n        /* \"#utility.yul\":2449:2475   */\n      swap1\n      pop\n        /* \"#utility.yul\":2521:2530   */\n      dup2\n        /* \"#utility.yul\":2515:2519   */\n      dup2\n        /* \"#utility.yul\":2511:2531   */\n      sub\n        /* \"#utility.yul\":2507:2508   */\n      0x00\n        /* \"#utility.yul\":2496:2505   */\n      dup4\n        /* \"#utility.yul\":2492:2509   */\n      add\n        /* \"#utility.yul\":2485:2532   */\n      mstore\n        /* \"#utility.yul\":2549:2680   */\n      tag_165\n        /* \"#utility.yul\":2675:2679   */\n      dup2\n        /* \"#utility.yul\":2549:2680   */\n      tag_121\n      jump\t// in\n    tag_165:\n        /* \"#utility.yul\":2541:2680   */\n      swap1\n      pop\n        /* \"#utility.yul\":2268:2687   */\n      swap2\n      swap1\n      pop\n      jump\t// out\n        /* \"#utility.yul\":2693:3103   */\n    tag_34:\n        /* \"#utility.yul\":2733:2740   */\n      0x00\n        /* \"#utility.yul\":2756:2776   */\n      tag_167\n        /* \"#utility.yul\":2774:2775   */\n      dup3\n        /* \"#utility.yul\":2756:2776   */\n      tag_116\n      jump\t// in\n    tag_167:\n        /* \"#utility.yul\":2751:2776   */\n      swap2\n      pop\n        /* \"#utility.yul\":2790:2810   */\n      tag_168\n        /* \"#utility.yul\":2808:2809   */\n      dup4\n        /* \"#utility.yul\":2790:2810   */\n      tag_116\n      jump\t// in\n    tag_168:\n        /* \"#utility.yul\":2785:2810   */\n      swap3\n      pop\n        /* \"#utility.yul\":2845:2846   */\n      dup3\n        /* \"#utility.yul\":2842:2843   */\n      dup3\n        /* \"#utility.yul\":2838:2847   */\n      mul\n        /* \"#utility.yul\":2867:2897   */\n      tag_169\n        /* \"#utility.yul\":2885:2896   */\n      dup2\n        /* \"#utility.yul\":2867:2897   */\n      tag_116\n      jump\t// in\n    tag_169:\n        /* \"#utility.yul\":2856:2897   */\n      swap2\n      pop\n        /* \"#utility.yul\":3046:3047   */\n      dup3\n        /* \"#utility.yul\":3037:3044   */\n      dup3\n        /* \"#utility.yul\":3033:3048   */\n      div\n        /* \"#utility.yul\":3030:3031   */\n      dup5\n        /* \"#utility.yul\":3027:3049   */\n      eq\n        /* \"#utility.yul\":3007:3008   */\n      dup4\n        /* \"#utility.yul\":3000:3009   */\n      iszero\n        /* \"#utility.yul\":2980:3063   */\n      or\n        /* \"#utility.yul\":2957:3096   */\n      tag_170\n      jumpi\n        /* \"#utility.yul\":3076:3094   */\n      tag_171\n      tag_118\n      jump\t// in\n    tag_171:\n        /* \"#utility.yul\":2957:3096   */\n    tag_170:\n        /* \"#utility.yul\":2741:3103   */\n      pop\n        /* \"#utility.yul\":2693:3103   */\n      swap3\n      swap2\n      pop\n      pop\n      jump\t// out\n        /* \"#utility.yul\":3109:3289   */\n    tag_122:\n        /* \"#utility.yul\":3157:3234   */\n      0x4e487b7100000000000000000000000000000000000000000000000000000000\n        /* \"#utility.yul\":3154:3155   */\n      0x00\n        /* \"#utility.yul\":3147:3235   */\n      mstore\n        /* \"#utility.yul\":3254:3258   */\n      0x12\n        /* \"#utility.yul\":3251:3252   */\n      0x04\n        /* \"#utility.yul\":3244:3259   */\n      mstore\n        /* \"#utility.yul\":3278:3282   */\n      0x24\n        /* \"#utility.yul\":3275:3276   */\n      0x00\n        /* \"#utility.yul\":3268:3283   */\n      revert\n        /* \"#utility.yul\":3295:3480   */\n    tag_36:\n        /* \"#utility.yul\":3335:3336   */\n      0x00\n        /* \"#utility.yul\":3352:3372   */\n      tag_174\n        /* \"#utility.yul\":3370:3371   */\n      dup3\n        /* \"#utility.yul\":3352:3372   */\n      tag_116\n      jump\t// in\n    tag_174:\n        /* \"#utility.yul\":3347:3372   */\n      swap2\n      pop\n        /* \"#utility.yul\":3386:3406   */\n      tag_175\n        /* \"#utility.yul\":3404:3405   */\n      dup4\n        /* \"#utility.yul\":3386:3406   */\n      tag_116\n      jump\t// in\n    tag_175:\n        /* \"#utility.yul\":3381:3406   */\n      swap3\n      pop\n        /* \"#utility.yul\":3425:3426   */\n      dup3\n        /* \"#utility.yul\":3415:3450   */\n      tag_176\n      jumpi\n        /* \"#utility.yul\":3430:3448   */\n      tag_177\n      tag_122\n      jump\t// in\n    tag_177:\n        /* \"#utility.yul\":3415:3450   */\n    tag_176:\n        /* \"#utility.yul\":3472:3473   */\n      dup3\n        /* \"#utility.yul\":3469:3470   */\n      dup3\n        /* \"#utility.yul\":3465:3474   */\n      div\n        /* \"#utility.yul\":3460:3474   */\n      swap1\n      pop\n        /* \"#utility.yul\":3295:3480   */\n      swap3\n      swap2\n      pop\n      pop\n      jump\t// out\n        /* \"#utility.yul\":3486:3723   */\n    tag_123:\n        /* \"#utility.yul\":3626:3660   */\n      0x412076616c696420626964206d75737420626520352025206772656174657220\n        /* \"#utility.yul\":3622:3623   */\n      0x00\n        /* \"#utility.yul\":3614:3620   */\n      dup3\n        /* \"#utility.yul\":3610:3624   */\n      add\n        /* \"#utility.yul\":3603:3661   */\n      mstore\n        /* \"#utility.yul\":3695:3715   */\n      0x7468616e20746865206c617374206269642e0000000000000000000000000000\n        /* \"#utility.yul\":3690:3692   */\n      0x20\n        /* \"#utility.yul\":3682:3688   */\n      dup3\n        /* \"#utility.yul\":3678:3693   */\n      add\n        /* \"#utility.yul\":3671:3716   */\n      mstore\n        /* \"#utility.yul\":3486:3723   */\n      pop\n      jump\t// out\n        /* \"#utility.yul\":3729:4095   */\n    tag_124:\n        /* \"#utility.yul\":3871:3874   */\n      0x00\n        /* \"#utility.yul\":3892:3959   */\n      tag_180\n        /* \"#utility.yul\":3956:3958   */\n      0x32\n        /* \"#utility.yul\":3951:3954   */\n      dup4\n        /* \"#utility.yul\":3892:3959   */\n      tag_119\n      jump\t// in\n    tag_180:\n        /* \"#utility.yul\":3885:3959   */\n      swap2\n      pop\n        /* \"#utility.yul\":3968:4061   */\n      tag_181\n        /* \"#utility.yul\":4057:4060   */\n      dup3\n        /* \"#utility.yul\":3968:4061   */\n      tag_123\n      jump\t// in\n    tag_181:\n        /* \"#utility.yul\":4086:4088   */\n      0x40\n        /* \"#utility.yul\":4081:4084   */\n      dup3\n        /* \"#utility.yul\":4077:4089   */\n      add\n        /* \"#utility.yul\":4070:4089   */\n      swap1\n      pop\n        /* \"#utility.yul\":3729:4095   */\n      swap2\n      swap1\n      pop\n      jump\t// out\n        /* \"#utility.yul\":4101:4520   */\n    tag_46:\n        /* \"#utility.yul\":4267:4271   */\n      0x00\n        /* \"#utility.yul\":4305:4307   */\n      0x20\n        /* \"#utility.yul\":4294:4303   */\n      dup3\n        /* \"#utility.yul\":4290:4308   */\n      add\n        /* \"#utility.yul\":4282:4308   */\n      swap1\n      pop\n        /* \"#utility.yul\":4354:4363   */\n      dup2\n        /* \"#utility.yul\":4348:4352   */\n      dup2\n        /* \"#utility.yul\":4344:4364   */\n      sub\n        /* \"#utility.yul\":4340:4341   */\n      0x00\n        /* \"#utility.yul\":4329:4338   */\n      dup4\n        /* \"#utility.yul\":4325:4342   */\n      add\n        /* \"#utility.yul\":4318:4365   */\n      mstore\n        /* \"#utility.yul\":4382:4513   */\n      tag_183\n        /* \"#utility.yul\":4508:4512   */\n      dup2\n        /* \"#utility.yul\":4382:4513   */\n      tag_124\n      jump\t// in\n    tag_183:\n        /* \"#utility.yul\":4374:4513   */\n      swap1\n      pop\n        /* \"#utility.yul\":4101:4520   */\n      swap2\n      swap1\n      pop\n      jump\t// out\n        /* \"#utility.yul\":4526:4703   */\n    tag_125:\n        /* \"#utility.yul\":4666:4695   */\n      0x4f6e6c792041646d696e205573657220697320616c6c6f7765642e0000000000\n        /* \"#utility.yul\":4662:4663   */\n      0x00\n        /* \"#utility.yul\":4654:4660   */\n      dup3\n        /* \"#utility.yul\":4650:4664   */\n      add\n        /* \"#utility.yul\":4643:4696   */\n      mstore\n        /* \"#utility.yul\":4526:4703   */\n      pop\n      jump\t// out\n        /* \"#utility.yul\":4709:5075   */\n    tag_126:\n        /* \"#utility.yul\":4851:4854   */\n      0x00\n        /* \"#utility.yul\":4872:4939   */\n      tag_186\n        /* \"#utility.yul\":4936:4938   */\n      0x1b\n        /* \"#utility.yul\":4931:4934   */\n      dup4\n        /* \"#utility.yul\":4872:4939   */\n      tag_119\n      jump\t// in\n    tag_186:\n        /* \"#utility.yul\":4865:4939   */\n      swap2\n      pop\n        /* \"#utility.yul\":4948:5041   */\n      tag_187\n        /* \"#utility.yul\":5037:5040   */\n      dup3\n        /* \"#utility.yul\":4948:5041   */\n      tag_125\n      jump\t// in\n    tag_187:\n        /* \"#utility.yul\":5066:5068   */\n      0x20\n        /* \"#utility.yul\":5061:5064   */\n      dup3\n        /* \"#utility.yul\":5057:5069   */\n      add\n        /* \"#utility.yul\":5050:5069   */\n      swap1\n      pop\n        /* \"#utility.yul\":4709:5075   */\n      swap2\n      swap1\n      pop\n      jump\t// out\n        /* \"#utility.yul\":5081:5500   */\n    tag_56:\n        /* \"#utility.yul\":5247:5251   */\n      0x00\n        /* \"#utility.yul\":5285:5287   */\n      0x20\n        /* \"#utility.yul\":5274:5283   */\n      dup3\n        /* \"#utility.yul\":5270:5288   */\n      add\n        /* \"#utility.yul\":5262:5288   */\n      swap1\n      pop\n        /* \"#utility.yul\":5334:5343   */\n      dup2\n        /* \"#utility.yul\":5328:5332   */\n      dup2\n        /* \"#utility.yul\":5324:5344   */\n      sub\n        /* \"#utility.yul\":5320:5321   */\n      0x00\n        /* \"#utility.yul\":5309:5318   */\n      dup4\n        /* \"#utility.yul\":5305:5322   */\n      add\n        /* \"#utility.yul\":5298:5345   */\n      mstore\n        /* \"#utility.yul\":5362:5493   */\n      tag_189\n        /* \"#utility.yul\":5488:5492   */\n      dup2\n        /* \"#utility.yul\":5362:5493   */\n      tag_126\n      jump\t// in\n    tag_189:\n        /* \"#utility.yul\":5354:5493   */\n      swap1\n      pop\n        /* \"#utility.yul\":5081:5500   */\n      swap2\n      swap1\n      pop\n      jump\t// out\n        /* \"#utility.yul\":5506:5686   */\n    tag_127:\n        /* \"#utility.yul\":5646:5678   */\n      0x5468652061756374696f6e20686173206e6f7420656e646564207965742e0000\n        /* \"#utility.yul\":5642:5643   */\n      0x00\n        /* \"#utility.yul\":5634:5640   */\n      dup3\n        /* \"#utility.yul\":5630:5644   */\n      add\n        /* \"#utility.yul\":5623:5679   */\n      mstore\n        /* \"#utility.yul\":5506:5686   */\n      pop\n      jump\t// out\n        /* \"#utility.yul\":5692:6058   */\n    tag_128:\n        /* \"#utility.yul\":5834:5837   */\n      0x00\n        /* \"#utility.yul\":5855:5922   */\n      tag_192\n        /* \"#utility.yul\":5919:5921   */\n      0x1e\n        /* \"#utility.yul\":5914:5917   */\n      dup4\n        /* \"#utility.yul\":5855:5922   */\n      tag_119\n      jump\t// in\n    tag_192:\n        /* \"#utility.yul\":5848:5922   */\n      swap2\n      pop\n        /* \"#utility.yul\":5931:6024   */\n      tag_193\n        /* \"#utility.yul\":6020:6023   */\n      dup3\n        /* \"#utility.yul\":5931:6024   */\n      tag_127\n      jump\t// in\n    tag_193:\n        /* \"#utility.yul\":6049:6051   */\n      0x20\n        /* \"#utility.yul\":6044:6047   */\n      dup3\n        /* \"#utility.yul\":6040:6052   */\n      add\n        /* \"#utility.yul\":6033:6052   */\n      swap1\n      pop\n        /* \"#utility.yul\":5692:6058   */\n      swap2\n      swap1\n      pop\n      jump\t// out\n        /* \"#utility.yul\":6064:6483   */\n    tag_62:\n        /* \"#utility.yul\":6230:6234   */\n      0x00\n        /* \"#utility.yul\":6268:6270   */\n      0x20\n        /* \"#utility.yul\":6257:6266   */\n      dup3\n        /* \"#utility.yul\":6253:6271   */\n      add\n        /* \"#utility.yul\":6245:6271   */\n      swap1\n      pop\n        /* \"#utility.yul\":6317:6326   */\n      dup2\n        /* \"#utility.yul\":6311:6315   */\n      dup2\n        /* \"#utility.yul\":6307:6327   */\n      sub\n        /* \"#utility.yul\":6303:6304   */\n      0x00\n        /* \"#utility.yul\":6292:6301   */\n      dup4\n        /* \"#utility.yul\":6288:6305   */\n      add\n        /* \"#utility.yul\":6281:6328   */\n      mstore\n        /* \"#utility.yul\":6345:6476   */\n      tag_195\n        /* \"#utility.yul\":6471:6475   */\n      dup2\n        /* \"#utility.yul\":6345:6476   */\n      tag_128\n      jump\t// in\n    tag_195:\n        /* \"#utility.yul\":6337:6476   */\n      swap1\n      pop\n        /* \"#utility.yul\":6064:6483   */\n      swap2\n      swap1\n      pop\n      jump\t// out\n        /* \"#utility.yul\":6489:6669   */\n    tag_129:\n        /* \"#utility.yul\":6537:6614   */\n      0x4e487b7100000000000000000000000000000000000000000000000000000000\n        /* \"#utility.yul\":6534:6535   */\n      0x00\n        /* \"#utility.yul\":6527:6615   */\n      mstore\n        /* \"#utility.yul\":6634:6638   */\n      0x22\n        /* \"#utility.yul\":6631:6632   */\n      0x04\n        /* \"#utility.yul\":6624:6639   */\n      mstore\n        /* \"#utility.yul\":6658:6662   */\n      0x24\n        /* \"#utility.yul\":6655:6656   */\n      0x00\n        /* \"#utility.yul\":6648:6663   */\n      revert\n        /* \"#utility.yul\":6675:6995   */\n    tag_130:\n        /* \"#utility.yul\":6719:6725   */\n      0x00\n        /* \"#utility.yul\":6756:6757   */\n      0x02\n        /* \"#utility.yul\":6750:6754   */\n      dup3\n        /* \"#utility.yul\":6746:6758   */\n      div\n        /* \"#utility.yul\":6736:6758   */\n      swap1\n      pop\n        /* \"#utility.yul\":6803:6804   */\n      0x01\n        /* \"#utility.yul\":6797:6801   */\n      dup3\n        /* \"#utility.yul\":6793:6805   */\n      and\n        /* \"#utility.yul\":6824:6842   */\n      dup1\n        /* \"#utility.yul\":6814:6895   */\n      tag_198\n      jumpi\n        /* \"#utility.yul\":6880:6884   */\n      0x7f\n        /* \"#utility.yul\":6872:6878   */\n      dup3\n        /* \"#utility.yul\":6868:6885   */\n      and\n        /* \"#utility.yul\":6858:6885   */\n      swap2\n      pop\n        /* \"#utility.yul\":6814:6895   */\n    tag_198:\n        /* \"#utility.yul\":6942:6944   */\n      0x20\n        /* \"#utility.yul\":6934:6940   */\n      dup3\n        /* \"#utility.yul\":6931:6945   */\n      lt\n        /* \"#utility.yul\":6911:6929   */\n      dup2\n        /* \"#utility.yul\":6908:6946   */\n      sub\n        /* \"#utility.yul\":6905:6989   */\n      tag_199\n      jumpi\n        /* \"#utility.yul\":6961:6979   */\n      tag_200\n      tag_129\n      jump\t// in\n    tag_200:\n        /* \"#utility.yul\":6905:6989   */\n    tag_199:\n        /* \"#utility.yul\":6726:6995   */\n      pop\n        /* \"#utility.yul\":6675:6995   */\n      swap2\n      swap1\n      pop\n      jump\t// out\n        /* \"#utility.yul\":7001:7149   */\n    tag_131:\n        /* \"#utility.yul\":7103:7114   */\n      0x00\n        /* \"#utility.yul\":7140:7143   */\n      dup2\n        /* \"#utility.yul\":7125:7143   */\n      swap1\n      pop\n        /* \"#utility.yul\":7001:7149   */\n      swap3\n      swap2\n      pop\n      pop\n      jump\t// out\n        /* \"#utility.yul\":7155:7296   */\n    tag_132:\n        /* \"#utility.yul\":7204:7208   */\n      0x00\n        /* \"#utility.yul\":7227:7230   */\n      dup2\n        /* \"#utility.yul\":7219:7230   */\n      swap1\n      pop\n        /* \"#utility.yul\":7250:7253   */\n      dup2\n        /* \"#utility.yul\":7247:7248   */\n      0x00\n        /* \"#utility.yul\":7240:7254   */\n      mstore\n        /* \"#utility.yul\":7284:7288   */\n      0x20\n        /* \"#utility.yul\":7281:7282   */\n      0x00\n        /* \"#utility.yul\":7271:7289   */\n      keccak256\n        /* \"#utility.yul\":7263:7289   */\n      swap1\n      pop\n        /* \"#utility.yul\":7155:7296   */\n      swap2\n      swap1\n      pop\n      jump\t// out\n        /* \"#utility.yul\":7326:8200   */\n    tag_133:\n        /* \"#utility.yul\":7429:7432   */\n      0x00\n        /* \"#utility.yul\":7466:7471   */\n      dup2\n        /* \"#utility.yul\":7460:7472   */\n      sload\n        /* \"#utility.yul\":7495:7531   */\n      tag_204\n        /* \"#utility.yul\":7521:7530   */\n      dup2\n        /* \"#utility.yul\":7495:7531   */\n      tag_130\n      jump\t// in\n    tag_204:\n        /* \"#utility.yul\":7547:7636   */\n      tag_205\n        /* \"#utility.yul\":7629:7635   */\n      dup2\n        /* \"#utility.yul\":7624:7627   */\n      dup7\n        /* \"#utility.yul\":7547:7636   */\n      tag_131\n      jump\t// in\n    tag_205:\n        /* \"#utility.yul\":7540:7636   */\n      swap5\n      pop\n        /* \"#utility.yul\":7667:7668   */\n      0x01\n        /* \"#utility.yul\":7656:7665   */\n      dup3\n        /* \"#utility.yul\":7652:7669   */\n      and\n        /* \"#utility.yul\":7683:7684   */\n      0x00\n        /* \"#utility.yul\":7678:7844   */\n      dup2\n      eq\n      tag_207\n      jumpi\n        /* \"#utility.yul\":7858:7859   */\n      0x01\n        /* \"#utility.yul\":7853:8194   */\n      dup2\n      eq\n      tag_208\n      jumpi\n        /* \"#utility.yul\":7645:8194   */\n      jump(tag_206)\n        /* \"#utility.yul\":7678:7844   */\n    tag_207:\n        /* \"#utility.yul\":7762:7766   */\n      0xff\n        /* \"#utility.yul\":7758:7767   */\n      not\n        /* \"#utility.yul\":7747:7756   */\n      dup4\n        /* \"#utility.yul\":7743:7768   */\n      and\n        /* \"#utility.yul\":7738:7741   */\n      dup7\n        /* \"#utility.yul\":7731:7769   */\n      mstore\n        /* \"#utility.yul\":7824:7830   */\n      dup2\n        /* \"#utility.yul\":7817:7831   */\n      iszero\n        /* \"#utility.yul\":7810:7832   */\n      iszero\n        /* \"#utility.yul\":7802:7808   */\n      dup3\n        /* \"#utility.yul\":7798:7833   */\n      mul\n        /* \"#utility.yul\":7793:7796   */\n      dup7\n        /* \"#utility.yul\":7789:7834   */\n      add\n        /* \"#utility.yul\":7782:7834   */\n      swap4\n      pop\n        /* \"#utility.yul\":7678:7844   */\n      jump(tag_206)\n        /* \"#utility.yul\":7853:8194   */\n    tag_208:\n        /* \"#utility.yul\":7920:7958   */\n      tag_209\n        /* \"#utility.yul\":7952:7957   */\n      dup6\n        /* \"#utility.yul\":7920:7958   */\n      tag_132\n      jump\t// in\n    tag_209:\n        /* \"#utility.yul\":7980:7981   */\n      0x00\n        /* \"#utility.yul\":7994:8148   */\n    tag_210:\n        /* \"#utility.yul\":8008:8014   */\n      dup4\n        /* \"#utility.yul\":8005:8006   */\n      dup2\n        /* \"#utility.yul\":8002:8015   */\n      lt\n        /* \"#utility.yul\":7994:8148   */\n      iszero\n      tag_212\n      jumpi\n        /* \"#utility.yul\":8082:8089   */\n      dup2\n        /* \"#utility.yul\":8076:8090   */\n      sload\n        /* \"#utility.yul\":8072:8073   */\n      dup2\n        /* \"#utility.yul\":8067:8070   */\n      dup10\n        /* \"#utility.yul\":8063:8074   */\n      add\n        /* \"#utility.yul\":8056:8091   */\n      mstore\n        /* \"#utility.yul\":8132:8133   */\n      0x01\n        /* \"#utility.yul\":8123:8130   */\n      dup3\n        /* \"#utility.yul\":8119:8134   */\n      add\n        /* \"#utility.yul\":8108:8134   */\n      swap2\n      pop\n        /* \"#utility.yul\":8030:8034   */\n      0x20\n        /* \"#utility.yul\":8027:8028   */\n      dup2\n        /* \"#utility.yul\":8023:8035   */\n      add\n        /* \"#utility.yul\":8018:8035   */\n      swap1\n      pop\n        /* \"#utility.yul\":7994:8148   */\n      jump(tag_210)\n    tag_212:\n        /* \"#utility.yul\":8177:8183   */\n      dup4\n        /* \"#utility.yul\":8172:8175   */\n      dup9\n        /* \"#utility.yul\":8168:8184   */\n      add\n        /* \"#utility.yul\":8161:8184   */\n      swap6\n      pop\n        /* \"#utility.yul\":7860:8194   */\n      pop\n      pop\n        /* \"#utility.yul\":7645:8194   */\n    tag_206:\n      pop\n        /* \"#utility.yul\":7433:8200   */\n      pop\n      pop\n        /* \"#utility.yul\":7326:8200   */\n      swap3\n      swap2\n      pop\n      pop\n      jump\t// out\n        /* \"#utility.yul\":8206:8475   */\n    tag_65:\n        /* \"#utility.yul\":8335:8338   */\n      0x00\n        /* \"#utility.yul\":8357:8449   */\n      tag_214\n        /* \"#utility.yul\":8445:8448   */\n      dup3\n        /* \"#utility.yul\":8436:8442   */\n      dup5\n        /* \"#utility.yul\":8357:8449   */\n      tag_133\n      jump\t// in\n    tag_214:\n        /* \"#utility.yul\":8350:8449   */\n      swap2\n      pop\n        /* \"#utility.yul\":8466:8469   */\n      dup2\n        /* \"#utility.yul\":8459:8469   */\n      swap1\n      pop\n        /* \"#utility.yul\":8206:8475   */\n      swap3\n      swap2\n      pop\n      pop\n      jump\t// out\n        /* \"#utility.yul\":8481:8703   */\n    tag_67:\n        /* \"#utility.yul\":8574:8578   */\n      0x00\n        /* \"#utility.yul\":8612:8614   */\n      0x20\n        /* \"#utility.yul\":8601:8610   */\n      dup3\n        /* \"#utility.yul\":8597:8615   */\n      add\n        /* \"#utility.yul\":8589:8615   */\n      swap1\n      pop\n        /* \"#utility.yul\":8625:8696   */\n      tag_216\n        /* \"#utility.yul\":8693:8694   */\n      0x00\n        /* \"#utility.yul\":8682:8691   */\n      dup4\n        /* \"#utility.yul\":8678:8695   */\n      add\n        /* \"#utility.yul\":8669:8675   */\n      dup5\n        /* \"#utility.yul\":8625:8696   */\n      tag_117\n      jump\t// in\n    tag_216:\n        /* \"#utility.yul\":8481:8703   */\n      swap3\n      swap2\n      pop\n      pop\n      jump\t// out\n        /* \"#utility.yul\":8709:8889   */\n    tag_73:\n        /* \"#utility.yul\":8757:8834   */\n      0x4e487b7100000000000000000000000000000000000000000000000000000000\n        /* \"#utility.yul\":8754:8755   */\n      0x00\n        /* \"#utility.yul\":8747:8835   */\n      mstore\n        /* \"#utility.yul\":8854:8858   */\n      0x32\n        /* \"#utility.yul\":8851:8852   */\n      0x04\n        /* \"#utility.yul\":8844:8859   */\n      mstore\n        /* \"#utility.yul\":8878:8882   */\n      0x24\n        /* \"#utility.yul\":8875:8876   */\n      0x00\n        /* \"#utility.yul\":8868:8883   */\n      revert\n        /* \"#utility.yul\":8895:9069   */\n    tag_134:\n        /* \"#utility.yul\":9035:9061   */\n      0x4f6e6c79204269646465722061726520616c6c6f7765642e0000000000000000\n        /* \"#utility.yul\":9031:9032   */\n      0x00\n        /* \"#utility.yul\":9023:9029   */\n      dup3\n        /* \"#utility.yul\":9019:9033   */\n      add\n        /* \"#utility.yul\":9012:9062   */\n      mstore\n        /* \"#utility.yul\":8895:9069   */\n      pop\n      jump\t// out\n        /* \"#utility.yul\":9075:9441   */\n    tag_135:\n        /* \"#utility.yul\":9217:9220   */\n      0x00\n        /* \"#utility.yul\":9238:9305   */\n      tag_220\n        /* \"#utility.yul\":9302:9304   */\n      0x18\n        /* \"#utility.yul\":9297:9300   */\n      dup4\n        /* \"#utility.yul\":9238:9305   */\n      tag_119\n      jump\t// in\n    tag_220:\n        /* \"#utility.yul\":9231:9305   */\n      swap2\n      pop\n        /* \"#utility.yul\":9314:9407   */\n      tag_221\n        /* \"#utility.yul\":9403:9406   */\n      dup3\n        /* \"#utility.yul\":9314:9407   */\n      tag_134\n      jump\t// in\n    tag_221:\n        /* \"#utility.yul\":9432:9434   */\n      0x20\n        /* \"#utility.yul\":9427:9430   */\n      dup3\n        /* \"#utility.yul\":9423:9435   */\n      add\n        /* \"#utility.yul\":9416:9435   */\n      swap1\n      pop\n        /* \"#utility.yul\":9075:9441   */\n      swap2\n      swap1\n      pop\n      jump\t// out\n        /* \"#utility.yul\":9447:9866   */\n    tag_99:\n        /* \"#utility.yul\":9613:9617   */\n      0x00\n        /* \"#utility.yul\":9651:9653   */\n      0x20\n        /* \"#utility.yul\":9640:9649   */\n      dup3\n        /* \"#utility.yul\":9636:9654   */\n      add\n        /* \"#utility.yul\":9628:9654   */\n      swap1\n      pop\n        /* \"#utility.yul\":9700:9709   */\n      dup2\n        /* \"#utility.yul\":9694:9698   */\n      dup2\n        /* \"#utility.yul\":9690:9710   */\n      sub\n        /* \"#utility.yul\":9686:9687   */\n      0x00\n        /* \"#utility.yul\":9675:9684   */\n      dup4\n        /* \"#utility.yul\":9671:9688   */\n      add\n        /* \"#utility.yul\":9664:9711   */\n      mstore\n        /* \"#utility.yul\":9728:9859   */\n      tag_223\n        /* \"#utility.yul\":9854:9858   */\n      dup2\n        /* \"#utility.yul\":9728:9859   */\n      tag_135\n      jump\t// in\n    tag_223:\n        /* \"#utility.yul\":9720:9859   */\n      swap1\n      pop\n        /* \"#utility.yul\":9447:9866   */\n      swap2\n      swap1\n      pop\n      jump\t// out\n\n    auxdata: 0xa2646970667358221220c3aa843fef7f78b3128a84a0954fd62fab67bb75e0331274a0e758f167d5f49564736f6c634300081a0033\n}\n",
				"bytecode": {
					"linkReferences": {},
					"object": "608060405234801561000f575f80fd5b506040516118ed3803806118ed83398181016040528101906100319190610271565b3360075f6101000a81548173ffffffffffffffffffffffffffffffffffffffff021916908373ffffffffffffffffffffffffffffffffffffffff160217905550806008908161008091906104e1565b50824261008d91906105dd565b5f819055508160018190555060086040516100a8919061069a565b60405180910390207f88b524d6621d7de004458e51f7f3a0dec805641fc7853fa1c25d15a1266b459e6001546040516100e191906106bf565b60405180910390a25050506106d8565b5f604051905090565b5f80fd5b5f80fd5b5f819050919050565b61011481610102565b811461011e575f80fd5b50565b5f8151905061012f8161010b565b92915050565b5f80fd5b5f80fd5b5f601f19601f8301169050919050565b7f4e487b71000000000000000000000000000000000000000000000000000000005f52604160045260245ffd5b6101838261013d565b810181811067ffffffffffffffff821117156101a2576101a161014d565b5b80604052505050565b5f6101b46100f1565b90506101c0828261017a565b919050565b5f67ffffffffffffffff8211156101df576101de61014d565b5b6101e88261013d565b9050602081019050919050565b8281835e5f83830152505050565b5f610215610210846101c5565b6101ab565b90508281526020810184848401111561023157610230610139565b5b61023c8482856101f5565b509392505050565b5f82601f83011261025857610257610135565b5b8151610268848260208601610203565b91505092915050565b5f805f60608486031215610288576102876100fa565b5b5f61029586828701610121565b93505060206102a686828701610121565b925050604084015167ffffffffffffffff8111156102c7576102c66100fe565b5b6102d386828701610244565b9150509250925092565b5f81519050919050565b7f4e487b71000000000000000000000000000000000000000000000000000000005f52602260045260245ffd5b5f600282049050600182168061032b57607f821691505b60208210810361033e5761033d6102e7565b5b50919050565b5f819050815f5260205f209050919050565b5f6020601f8301049050919050565b5f82821b905092915050565b5f600883026103a07fffffffffffffffffffffffffffffffffffffffffffffffffffffffffffffffff82610365565b6103aa8683610365565b95508019841693508086168417925050509392505050565b5f819050919050565b5f6103e56103e06103db84610102565b6103c2565b610102565b9050919050565b5f819050919050565b6103fe836103cb565b61041261040a826103ec565b848454610371565b825550505050565b5f90565b61042661041a565b6104318184846103f5565b505050565b5b81811015610454576104495f8261041e565b600181019050610437565b5050565b601f8211156104995761046a81610344565b61047384610356565b81016020851015610482578190505b61049661048e85610356565b830182610436565b50505b505050565b5f82821c905092915050565b5f6104b95f198460080261049e565b1980831691505092915050565b5f6104d183836104aa565b9150826002028217905092915050565b6104ea826102dd565b67ffffffffffffffff8111156105035761050261014d565b5b61050d8254610314565b610518828285610458565b5f60209050601f831160018114610549575f8415610537578287015190505b61054185826104c6565b8655506105a8565b601f19841661055786610344565b5f5b8281101561057e57848901518255600182019150602085019450602081019050610559565b8683101561059b5784890151610597601f8916826104aa565b8355505b6001600288020188555050505b505050505050565b7f4e487b71000000000000000000000000000000000000000000000000000000005f52601160045260245ffd5b5f6105e782610102565b91506105f283610102565b925082820190508082111561060a576106096105b0565b5b92915050565b5f81905092915050565b5f815461062681610314565b6106308186610610565b9450600182165f811461064a576001811461065f57610691565b60ff1983168652811515820286019350610691565b61066885610344565b5f5b838110156106895781548189015260018201915060208101905061066a565b838801955050505b50505092915050565b5f6106a5828461061a565b915081905092915050565b6106b981610102565b82525050565b5f6020820190506106d25f8301846106b0565b92915050565b611208806106e55f395ff3fe60806040526004361061003e575f3560e01c80631998aeef1461004257806343d726d61461004c578063bb10d00614610062578063d4e932921461008d575b5f80fd5b61004a6100a3565b005b348015610057575f80fd5b50610060610539565b005b34801561006d575f80fd5b50610076610955565b604051610084929190610cc1565b60405180910390f35b348015610098575f80fd5b506100a16109ea565b005b5f6102585f546100b39190610d15565b4210156100c357600190506100fc565b60025f015f9054906101000a900460ff1680156100f157506102586002600101546100ee9190610d48565b42105b156100fb57600190505b5b8061013c576040517f08c379a000000000000000000000000000000000000000000000000000000000815260040161013390610dfb565b60405180910390fd5b5f60025f015f9054906101000a900460ff1680156101865750606460056002600301546101699190610e19565b6101739190610e87565b6002600301546101839190610d48565b34115b1561019457600190506101c9565b606460056001546101a59190610e19565b6101af9190610e87565b6001546101bc9190610d48565b3411156101c857600190505b5b80610209576040517f08c379a000000000000000000000000000000000000000000000000000000000815260040161020090610f27565b60405180910390fd5b600a5f3373ffffffffffffffffffffffffffffffffffffffff1673ffffffffffffffffffffffffffffffffffffffff1681526020019081526020015f205f015f9054906101000a900460ff166102ba57600933908060018154018082558091505060019003905f5260205f20015f9091909190916101000a81548173ffffffffffffffffffffffffffffffffffffffff021916908373ffffffffffffffffffffffffffffffffffffffff1602179055505b34600280015f8282546102cd9190610d48565b92505081905550346002600301819055503360026004015f6101000a81548173ffffffffffffffffffffffffffffffffffffffff021916908373ffffffffffffffffffffffffffffffffffffffff160217905550600160025f015f6101000a81548160ff0219169083151502179055504260026001018190555034600a5f3373ffffffffffffffffffffffffffffffffffffffff1673ffffffffffffffffffffffffffffffffffffffff1681526020019081526020015f206002015f8282546103969190610d48565b9250508190555034600a5f3373ffffffffffffffffffffffffffffffffffffffff1673ffffffffffffffffffffffffffffffffffffffff1681526020019081526020015f206003018190555033600a5f3373ffffffffffffffffffffffffffffffffffffffff1673ffffffffffffffffffffffffffffffffffffffff1681526020019081526020015f206004015f6101000a81548173ffffffffffffffffffffffffffffffffffffffff021916908373ffffffffffffffffffffffffffffffffffffffff1602179055506001600a5f3373ffffffffffffffffffffffffffffffffffffffff1673ffffffffffffffffffffffffffffffffffffffff1681526020019081526020015f205f015f6101000a81548160ff02191690831515021790555042600a5f3373ffffffffffffffffffffffffffffffffffffffff1673ffffffffffffffffffffffffffffffffffffffff1681526020019081526020015f20600101819055507fdd0b6c6a77960e2066c96171b4d7ac9e8b4c184011f38544afa36a5bb63ec59f333460405161052d929190610cc1565b60405180910390a15050565b60075f9054906101000a900473ffffffffffffffffffffffffffffffffffffffff1673ffffffffffffffffffffffffffffffffffffffff163373ffffffffffffffffffffffffffffffffffffffff16146105c8576040517f08c379a00000000000000000000000000000000000000000000000000000000081526004016105bf90610f8f565b60405180910390fd5b5f54421180156105e957506102586002600101546105e69190610d48565b42115b610628576040517f08c379a000000000000000000000000000000000000000000000000000000000815260040161061f90610ff7565b60405180910390fd5b60026004015f9054906101000a900473ffffffffffffffffffffffffffffffffffffffff1673ffffffffffffffffffffffffffffffffffffffff166008604051610672919061110e565b60405180910390207fef1c1ac56c3e721a0a9bdb9f70b99f3cd67d25c1aabe4830f296c2391dc1c2e86002600301546040516106ae9190611124565b60405180910390a35f5b6009805490508110156109525760026004015f9054906101000a900473ffffffffffffffffffffffffffffffffffffffff1673ffffffffffffffffffffffffffffffffffffffff16600982815481106107145761071361113d565b5b905f5260205f20015f9054906101000a900473ffffffffffffffffffffffffffffffffffffffff1673ffffffffffffffffffffffffffffffffffffffff1614610945575f600a5f6009848154811061076f5761076e61113d565b5b905f5260205f20015f9054906101000a900473ffffffffffffffffffffffffffffffffffffffff1673ffffffffffffffffffffffffffffffffffffffff1673ffffffffffffffffffffffffffffffffffffffff1681526020019081526020015f2060020154905060646002826107e59190610e19565b6107ef9190610e87565b816107fa9190610d15565b9050600a5f600984815481106108135761081261113d565b5b905f5260205f20015f9054906101000a900473ffffffffffffffffffffffffffffffffffffffff1673ffffffffffffffffffffffffffffffffffffffff1673ffffffffffffffffffffffffffffffffffffffff1681526020019081526020015f205f8082015f6101000a81549060ff0219169055600182015f9055600282015f9055600382015f9055600482015f6101000a81549073ffffffffffffffffffffffffffffffffffffffff02191690555050600982815481106108d8576108d761113d565b5b905f5260205f20015f9054906101000a900473ffffffffffffffffffffffffffffffffffffffff1673ffffffffffffffffffffffffffffffffffffffff166108fc8290811502906040515f60405180830381858888f19350505050158015610942573d5f803e3d5ffd5b50505b80806001019150506106b8565b50565b5f805f544211801561097857506102586002600101546109759190610d48565b42115b6109b7576040517f08c379a00000000000000000000000000000000000000000000000000000000081526004016109ae90610ff7565b60405180910390fd5b60026004015f9054906101000a900473ffffffffffffffffffffffffffffffffffffffff16600260030154915091509091565b600a5f3373ffffffffffffffffffffffffffffffffffffffff1673ffffffffffffffffffffffffffffffffffffffff1681526020019081526020015f205f015f9054906101000a900460ff16610a75576040517f08c379a0000000000000000000000000000000000000000000000000000000008152600401610a6c906111b4565b60405180910390fd5b5f6102585f54610a859190610d15565b421015610a955760019050610ace565b60025f015f9054906101000a900460ff168015610ac35750610258600260010154610ac09190610d48565b42105b15610acd57600190505b5b80610b0e576040517f08c379a0000000000000000000000000000000000000000000000000000000008152600401610b0590610dfb565b60405180910390fd5b5f600a5f3373ffffffffffffffffffffffffffffffffffffffff1673ffffffffffffffffffffffffffffffffffffffff1681526020019081526020015f2060030154600a5f3373ffffffffffffffffffffffffffffffffffffffff1673ffffffffffffffffffffffffffffffffffffffff1681526020019081526020015f2060020154610b9b9190610d15565b9050600a5f3373ffffffffffffffffffffffffffffffffffffffff1673ffffffffffffffffffffffffffffffffffffffff1681526020019081526020015f2060030154600a5f3373ffffffffffffffffffffffffffffffffffffffff1673ffffffffffffffffffffffffffffffffffffffff1681526020019081526020015f20600201819055503373ffffffffffffffffffffffffffffffffffffffff166108fc8290811502906040515f60405180830381858888f19350505050158015610c65573d5f803e3d5ffd5b505050565b5f73ffffffffffffffffffffffffffffffffffffffff82169050919050565b5f610c9382610c6a565b9050919050565b610ca381610c89565b82525050565b5f819050919050565b610cbb81610ca9565b82525050565b5f604082019050610cd45f830185610c9a565b610ce16020830184610cb2565b9392505050565b7f4e487b71000000000000000000000000000000000000000000000000000000005f52601160045260245ffd5b5f610d1f82610ca9565b9150610d2a83610ca9565b9250828203905081811115610d4257610d41610ce8565b5b92915050565b5f610d5282610ca9565b9150610d5d83610ca9565b9250828201905080821115610d7557610d74610ce8565b5b92915050565b5f82825260208201905092915050565b7f5468652074696d6520666f7220706c616365206120626964206861732066696e5f8201527f6973680000000000000000000000000000000000000000000000000000000000602082015250565b5f610de5602383610d7b565b9150610df082610d8b565b604082019050919050565b5f6020820190508181035f830152610e1281610dd9565b9050919050565b5f610e2382610ca9565b9150610e2e83610ca9565b9250828202610e3c81610ca9565b91508282048414831517610e5357610e52610ce8565b5b5092915050565b7f4e487b71000000000000000000000000000000000000000000000000000000005f52601260045260245ffd5b5f610e9182610ca9565b9150610e9c83610ca9565b925082610eac57610eab610e5a565b5b828204905092915050565b7f412076616c696420626964206d757374206265203520252067726561746572205f8201527f7468616e20746865206c617374206269642e0000000000000000000000000000602082015250565b5f610f11603283610d7b565b9150610f1c82610eb7565b604082019050919050565b5f6020820190508181035f830152610f3e81610f05565b9050919050565b7f4f6e6c792041646d696e205573657220697320616c6c6f7765642e00000000005f82015250565b5f610f79601b83610d7b565b9150610f8482610f45565b602082019050919050565b5f6020820190508181035f830152610fa681610f6d565b9050919050565b7f5468652061756374696f6e20686173206e6f7420656e646564207965742e00005f82015250565b5f610fe1601e83610d7b565b9150610fec82610fad565b602082019050919050565b5f6020820190508181035f83015261100e81610fd5565b9050919050565b7f4e487b71000000000000000000000000000000000000000000000000000000005f52602260045260245ffd5b5f600282049050600182168061105957607f821691505b60208210810361106c5761106b611015565b5b50919050565b5f81905092915050565b5f819050815f5260205f209050919050565b5f815461109a81611042565b6110a48186611072565b9450600182165f81146110be57600181146110d357611105565b60ff1983168652811515820286019350611105565b6110dc8561107c565b5f5b838110156110fd578154818901526001820191506020810190506110de565b838801955050505b50505092915050565b5f611119828461108e565b915081905092915050565b5f6020820190506111375f830184610cb2565b92915050565b7f4e487b71000000000000000000000000000000000000000000000000000000005f52603260045260245ffd5b7f4f6e6c79204269646465722061726520616c6c6f7765642e00000000000000005f82015250565b5f61119e601883610d7b565b91506111a98261116a565b602082019050919050565b5f6020820190508181035f8301526111cb81611192565b905091905056fea2646970667358221220c3aa843fef7f78b3128a84a0954fd62fab67bb75e0331274a0e758f167d5f49564736f6c634300081a0033",
					"opcodes": "PUSH1 0x80 PUSH1 0x40 MSTORE CALLVALUE DUP1 ISZERO PUSH2 0xF JUMPI PUSH0 DUP1 REVERT JUMPDEST POP PUSH1 0x40 MLOAD PUSH2 0x18ED CODESIZE SUB DUP1 PUSH2 0x18ED DUP4 CODECOPY DUP2 DUP2 ADD PUSH1 0x40 MSTORE DUP2 ADD SWAP1 PUSH2 0x31 SWAP2 SWAP1 PUSH2 0x271 JUMP JUMPDEST CALLER PUSH1 0x7 PUSH0 PUSH2 0x100 EXP DUP2 SLOAD DUP2 PUSH20 0xFFFFFFFFFFFFFFFFFFFFFFFFFFFFFFFFFFFFFFFF MUL NOT AND SWAP1 DUP4 PUSH20 0xFFFFFFFFFFFFFFFFFFFFFFFFFFFFFFFFFFFFFFFF AND MUL OR SWAP1 SSTORE POP DUP1 PUSH1 0x8 SWAP1 DUP2 PUSH2 0x80 SWAP2 SWAP1 PUSH2 0x4E1 JUMP JUMPDEST POP DUP3 TIMESTAMP PUSH2 0x8D SWAP2 SWAP1 PUSH2 0x5DD JUMP JUMPDEST PUSH0 DUP2 SWAP1 SSTORE POP DUP2 PUSH1 0x1 DUP2 SWAP1 SSTORE POP PUSH1 0x8 PUSH1 0x40 MLOAD PUSH2 0xA8 SWAP2 SWAP1 PUSH2 0x69A JUMP JUMPDEST PUSH1 0x40 MLOAD DUP1 SWAP2 SUB SWAP1 KECCAK256 PUSH32 0x88B524D6621D7DE004458E51F7F3A0DEC805641FC7853FA1C25D15A1266B459E PUSH1 0x1 SLOAD PUSH1 0x40 MLOAD PUSH2 0xE1 SWAP2 SWAP1 PUSH2 0x6BF JUMP JUMPDEST PUSH1 0x40 MLOAD DUP1 SWAP2 SUB SWAP1 LOG2 POP POP POP PUSH2 0x6D8 JUMP JUMPDEST PUSH0 PUSH1 0x40 MLOAD SWAP1 POP SWAP1 JUMP JUMPDEST PUSH0 DUP1 REVERT JUMPDEST PUSH0 DUP1 REVERT JUMPDEST PUSH0 DUP2 SWAP1 POP SWAP2 SWAP1 POP JUMP JUMPDEST PUSH2 0x114 DUP2 PUSH2 0x102 JUMP JUMPDEST DUP2 EQ PUSH2 0x11E JUMPI PUSH0 DUP1 REVERT JUMPDEST POP JUMP JUMPDEST PUSH0 DUP2 MLOAD SWAP1 POP PUSH2 0x12F DUP2 PUSH2 0x10B JUMP JUMPDEST SWAP3 SWAP2 POP POP JUMP JUMPDEST PUSH0 DUP1 REVERT JUMPDEST PUSH0 DUP1 REVERT JUMPDEST PUSH0 PUSH1 0x1F NOT PUSH1 0x1F DUP4 ADD AND SWAP1 POP SWAP2 SWAP1 POP JUMP JUMPDEST PUSH32 0x4E487B7100000000000000000000000000000000000000000000000000000000 PUSH0 MSTORE PUSH1 0x41 PUSH1 0x4 MSTORE PUSH1 0x24 PUSH0 REVERT JUMPDEST PUSH2 0x183 DUP3 PUSH2 0x13D JUMP JUMPDEST DUP2 ADD DUP2 DUP2 LT PUSH8 0xFFFFFFFFFFFFFFFF DUP3 GT OR ISZERO PUSH2 0x1A2 JUMPI PUSH2 0x1A1 PUSH2 0x14D JUMP JUMPDEST JUMPDEST DUP1 PUSH1 0x40 MSTORE POP POP POP JUMP JUMPDEST PUSH0 PUSH2 0x1B4 PUSH2 0xF1 JUMP JUMPDEST SWAP1 POP PUSH2 0x1C0 DUP3 DUP3 PUSH2 0x17A JUMP JUMPDEST SWAP2 SWAP1 POP JUMP JUMPDEST PUSH0 PUSH8 0xFFFFFFFFFFFFFFFF DUP3 GT ISZERO PUSH2 0x1DF JUMPI PUSH2 0x1DE PUSH2 0x14D JUMP JUMPDEST JUMPDEST PUSH2 0x1E8 DUP3 PUSH2 0x13D JUMP JUMPDEST SWAP1 POP PUSH1 0x20 DUP2 ADD SWAP1 POP SWAP2 SWAP1 POP JUMP JUMPDEST DUP3 DUP2 DUP4 MCOPY PUSH0 DUP4 DUP4 ADD MSTORE POP POP POP JUMP JUMPDEST PUSH0 PUSH2 0x215 PUSH2 0x210 DUP5 PUSH2 0x1C5 JUMP JUMPDEST PUSH2 0x1AB JUMP JUMPDEST SWAP1 POP DUP3 DUP2 MSTORE PUSH1 0x20 DUP2 ADD DUP5 DUP5 DUP5 ADD GT ISZERO PUSH2 0x231 JUMPI PUSH2 0x230 PUSH2 0x139 JUMP JUMPDEST JUMPDEST PUSH2 0x23C DUP5 DUP3 DUP6 PUSH2 0x1F5 JUMP JUMPDEST POP SWAP4 SWAP3 POP POP POP JUMP JUMPDEST PUSH0 DUP3 PUSH1 0x1F DUP4 ADD SLT PUSH2 0x258 JUMPI PUSH2 0x257 PUSH2 0x135 JUMP JUMPDEST JUMPDEST DUP2 MLOAD PUSH2 0x268 DUP5 DUP3 PUSH1 0x20 DUP7 ADD PUSH2 0x203 JUMP JUMPDEST SWAP2 POP POP SWAP3 SWAP2 POP POP JUMP JUMPDEST PUSH0 DUP1 PUSH0 PUSH1 0x60 DUP5 DUP7 SUB SLT ISZERO PUSH2 0x288 JUMPI PUSH2 0x287 PUSH2 0xFA JUMP JUMPDEST JUMPDEST PUSH0 PUSH2 0x295 DUP7 DUP3 DUP8 ADD PUSH2 0x121 JUMP JUMPDEST SWAP4 POP POP PUSH1 0x20 PUSH2 0x2A6 DUP7 DUP3 DUP8 ADD PUSH2 0x121 JUMP JUMPDEST SWAP3 POP POP PUSH1 0x40 DUP5 ADD MLOAD PUSH8 0xFFFFFFFFFFFFFFFF DUP2 GT ISZERO PUSH2 0x2C7 JUMPI PUSH2 0x2C6 PUSH2 0xFE JUMP JUMPDEST JUMPDEST PUSH2 0x2D3 DUP7 DUP3 DUP8 ADD PUSH2 0x244 JUMP JUMPDEST SWAP2 POP POP SWAP3 POP SWAP3 POP SWAP3 JUMP JUMPDEST PUSH0 DUP2 MLOAD SWAP1 POP SWAP2 SWAP1 POP JUMP JUMPDEST PUSH32 0x4E487B7100000000000000000000000000000000000000000000000000000000 PUSH0 MSTORE PUSH1 0x22 PUSH1 0x4 MSTORE PUSH1 0x24 PUSH0 REVERT JUMPDEST PUSH0 PUSH1 0x2 DUP3 DIV SWAP1 POP PUSH1 0x1 DUP3 AND DUP1 PUSH2 0x32B JUMPI PUSH1 0x7F DUP3 AND SWAP2 POP JUMPDEST PUSH1 0x20 DUP3 LT DUP2 SUB PUSH2 0x33E JUMPI PUSH2 0x33D PUSH2 0x2E7 JUMP JUMPDEST JUMPDEST POP SWAP2 SWAP1 POP JUMP JUMPDEST PUSH0 DUP2 SWAP1 POP DUP2 PUSH0 MSTORE PUSH1 0x20 PUSH0 KECCAK256 SWAP1 POP SWAP2 SWAP1 POP JUMP JUMPDEST PUSH0 PUSH1 0x20 PUSH1 0x1F DUP4 ADD DIV SWAP1 POP SWAP2 SWAP1 POP JUMP JUMPDEST PUSH0 DUP3 DUP3 SHL SWAP1 POP SWAP3 SWAP2 POP POP JUMP JUMPDEST PUSH0 PUSH1 0x8 DUP4 MUL PUSH2 0x3A0 PUSH32 0xFFFFFFFFFFFFFFFFFFFFFFFFFFFFFFFFFFFFFFFFFFFFFFFFFFFFFFFFFFFFFFFF DUP3 PUSH2 0x365 JUMP JUMPDEST PUSH2 0x3AA DUP7 DUP4 PUSH2 0x365 JUMP JUMPDEST SWAP6 POP DUP1 NOT DUP5 AND SWAP4 POP DUP1 DUP7 AND DUP5 OR SWAP3 POP POP POP SWAP4 SWAP3 POP POP POP JUMP JUMPDEST PUSH0 DUP2 SWAP1 POP SWAP2 SWAP1 POP JUMP JUMPDEST PUSH0 PUSH2 0x3E5 PUSH2 0x3E0 PUSH2 0x3DB DUP5 PUSH2 0x102 JUMP JUMPDEST PUSH2 0x3C2 JUMP JUMPDEST PUSH2 0x102 JUMP JUMPDEST SWAP1 POP SWAP2 SWAP1 POP JUMP JUMPDEST PUSH0 DUP2 SWAP1 POP SWAP2 SWAP1 POP JUMP JUMPDEST PUSH2 0x3FE DUP4 PUSH2 0x3CB JUMP JUMPDEST PUSH2 0x412 PUSH2 0x40A DUP3 PUSH2 0x3EC JUMP JUMPDEST DUP5 DUP5 SLOAD PUSH2 0x371 JUMP JUMPDEST DUP3 SSTORE POP POP POP POP JUMP JUMPDEST PUSH0 SWAP1 JUMP JUMPDEST PUSH2 0x426 PUSH2 0x41A JUMP JUMPDEST PUSH2 0x431 DUP2 DUP5 DUP5 PUSH2 0x3F5 JUMP JUMPDEST POP POP POP JUMP JUMPDEST JUMPDEST DUP2 DUP2 LT ISZERO PUSH2 0x454 JUMPI PUSH2 0x449 PUSH0 DUP3 PUSH2 0x41E JUMP JUMPDEST PUSH1 0x1 DUP2 ADD SWAP1 POP PUSH2 0x437 JUMP JUMPDEST POP POP JUMP JUMPDEST PUSH1 0x1F DUP3 GT ISZERO PUSH2 0x499 JUMPI PUSH2 0x46A DUP2 PUSH2 0x344 JUMP JUMPDEST PUSH2 0x473 DUP5 PUSH2 0x356 JUMP JUMPDEST DUP2 ADD PUSH1 0x20 DUP6 LT ISZERO PUSH2 0x482 JUMPI DUP2 SWAP1 POP JUMPDEST PUSH2 0x496 PUSH2 0x48E DUP6 PUSH2 0x356 JUMP JUMPDEST DUP4 ADD DUP3 PUSH2 0x436 JUMP JUMPDEST POP POP JUMPDEST POP POP POP JUMP JUMPDEST PUSH0 DUP3 DUP3 SHR SWAP1 POP SWAP3 SWAP2 POP POP JUMP JUMPDEST PUSH0 PUSH2 0x4B9 PUSH0 NOT DUP5 PUSH1 0x8 MUL PUSH2 0x49E JUMP JUMPDEST NOT DUP1 DUP4 AND SWAP2 POP POP SWAP3 SWAP2 POP POP JUMP JUMPDEST PUSH0 PUSH2 0x4D1 DUP4 DUP4 PUSH2 0x4AA JUMP JUMPDEST SWAP2 POP DUP3 PUSH1 0x2 MUL DUP3 OR SWAP1 POP SWAP3 SWAP2 POP POP JUMP JUMPDEST PUSH2 0x4EA DUP3 PUSH2 0x2DD JUMP JUMPDEST PUSH8 0xFFFFFFFFFFFFFFFF DUP2 GT ISZERO PUSH2 0x503 JUMPI PUSH2 0x502 PUSH2 0x14D JUMP JUMPDEST JUMPDEST PUSH2 0x50D DUP3 SLOAD PUSH2 0x314 JUMP JUMPDEST PUSH2 0x518 DUP3 DUP3 DUP6 PUSH2 0x458 JUMP JUMPDEST PUSH0 PUSH1 0x20 SWAP1 POP PUSH1 0x1F DUP4 GT PUSH1 0x1 DUP2 EQ PUSH2 0x549 JUMPI PUSH0 DUP5 ISZERO PUSH2 0x537 JUMPI DUP3 DUP8 ADD MLOAD SWAP1 POP JUMPDEST PUSH2 0x541 DUP6 DUP3 PUSH2 0x4C6 JUMP JUMPDEST DUP7 SSTORE POP PUSH2 0x5A8 JUMP JUMPDEST PUSH1 0x1F NOT DUP5 AND PUSH2 0x557 DUP7 PUSH2 0x344 JUMP JUMPDEST PUSH0 JUMPDEST DUP3 DUP2 LT ISZERO PUSH2 0x57E JUMPI DUP5 DUP10 ADD MLOAD DUP3 SSTORE PUSH1 0x1 DUP3 ADD SWAP2 POP PUSH1 0x20 DUP6 ADD SWAP5 POP PUSH1 0x20 DUP2 ADD SWAP1 POP PUSH2 0x559 JUMP JUMPDEST DUP7 DUP4 LT ISZERO PUSH2 0x59B JUMPI DUP5 DUP10 ADD MLOAD PUSH2 0x597 PUSH1 0x1F DUP10 AND DUP3 PUSH2 0x4AA JUMP JUMPDEST DUP4 SSTORE POP JUMPDEST PUSH1 0x1 PUSH1 0x2 DUP9 MUL ADD DUP9 SSTORE POP POP POP JUMPDEST POP POP POP POP POP POP JUMP JUMPDEST PUSH32 0x4E487B7100000000000000000000000000000000000000000000000000000000 PUSH0 MSTORE PUSH1 0x11 PUSH1 0x4 MSTORE PUSH1 0x24 PUSH0 REVERT JUMPDEST PUSH0 PUSH2 0x5E7 DUP3 PUSH2 0x102 JUMP JUMPDEST SWAP2 POP PUSH2 0x5F2 DUP4 PUSH2 0x102 JUMP JUMPDEST SWAP3 POP DUP3 DUP3 ADD SWAP1 POP DUP1 DUP3 GT ISZERO PUSH2 0x60A JUMPI PUSH2 0x609 PUSH2 0x5B0 JUMP JUMPDEST JUMPDEST SWAP3 SWAP2 POP POP JUMP JUMPDEST PUSH0 DUP2 SWAP1 POP SWAP3 SWAP2 POP POP JUMP JUMPDEST PUSH0 DUP2 SLOAD PUSH2 0x626 DUP2 PUSH2 0x314 JUMP JUMPDEST PUSH2 0x630 DUP2 DUP7 PUSH2 0x610 JUMP JUMPDEST SWAP5 POP PUSH1 0x1 DUP3 AND PUSH0 DUP2 EQ PUSH2 0x64A JUMPI PUSH1 0x1 DUP2 EQ PUSH2 0x65F JUMPI PUSH2 0x691 JUMP JUMPDEST PUSH1 0xFF NOT DUP4 AND DUP7 MSTORE DUP2 ISZERO ISZERO DUP3 MUL DUP7 ADD SWAP4 POP PUSH2 0x691 JUMP JUMPDEST PUSH2 0x668 DUP6 PUSH2 0x344 JUMP JUMPDEST PUSH0 JUMPDEST DUP4 DUP2 LT ISZERO PUSH2 0x689 JUMPI DUP2 SLOAD DUP2 DUP10 ADD MSTORE PUSH1 0x1 DUP3 ADD SWAP2 POP PUSH1 0x20 DUP2 ADD SWAP1 POP PUSH2 0x66A JUMP JUMPDEST DUP4 DUP9 ADD SWAP6 POP POP POP JUMPDEST POP POP POP SWAP3 SWAP2 POP POP JUMP JUMPDEST PUSH0 PUSH2 0x6A5 DUP3 DUP5 PUSH2 0x61A JUMP JUMPDEST SWAP2 POP DUP2 SWAP1 POP SWAP3 SWAP2 POP POP JUMP JUMPDEST PUSH2 0x6B9 DUP2 PUSH2 0x102 JUMP JUMPDEST DUP3 MSTORE POP POP JUMP JUMPDEST PUSH0 PUSH1 0x20 DUP3 ADD SWAP1 POP PUSH2 0x6D2 PUSH0 DUP4 ADD DUP5 PUSH2 0x6B0 JUMP JUMPDEST SWAP3 SWAP2 POP POP JUMP JUMPDEST PUSH2 0x1208 DUP1 PUSH2 0x6E5 PUSH0 CODECOPY PUSH0 RETURN INVALID PUSH1 0x80 PUSH1 0x40 MSTORE PUSH1 0x4 CALLDATASIZE LT PUSH2 0x3E JUMPI PUSH0 CALLDATALOAD PUSH1 0xE0 SHR DUP1 PUSH4 0x1998AEEF EQ PUSH2 0x42 JUMPI DUP1 PUSH4 0x43D726D6 EQ PUSH2 0x4C JUMPI DUP1 PUSH4 0xBB10D006 EQ PUSH2 0x62 JUMPI DUP1 PUSH4 0xD4E93292 EQ PUSH2 0x8D JUMPI JUMPDEST PUSH0 DUP1 REVERT JUMPDEST PUSH2 0x4A PUSH2 0xA3 JUMP JUMPDEST STOP JUMPDEST CALLVALUE DUP1 ISZERO PUSH2 0x57 JUMPI PUSH0 DUP1 REVERT JUMPDEST POP PUSH2 0x60 PUSH2 0x539 JUMP JUMPDEST STOP JUMPDEST CALLVALUE DUP1 ISZERO PUSH2 0x6D JUMPI PUSH0 DUP1 REVERT JUMPDEST POP PUSH2 0x76 PUSH2 0x955 JUMP JUMPDEST PUSH1 0x40 MLOAD PUSH2 0x84 SWAP3 SWAP2 SWAP1 PUSH2 0xCC1 JUMP JUMPDEST PUSH1 0x40 MLOAD DUP1 SWAP2 SUB SWAP1 RETURN JUMPDEST CALLVALUE DUP1 ISZERO PUSH2 0x98 JUMPI PUSH0 DUP1 REVERT JUMPDEST POP PUSH2 0xA1 PUSH2 0x9EA JUMP JUMPDEST STOP JUMPDEST PUSH0 PUSH2 0x258 PUSH0 SLOAD PUSH2 0xB3 SWAP2 SWAP1 PUSH2 0xD15 JUMP JUMPDEST TIMESTAMP LT ISZERO PUSH2 0xC3 JUMPI PUSH1 0x1 SWAP1 POP PUSH2 0xFC JUMP JUMPDEST PUSH1 0x2 PUSH0 ADD PUSH0 SWAP1 SLOAD SWAP1 PUSH2 0x100 EXP SWAP1 DIV PUSH1 0xFF AND DUP1 ISZERO PUSH2 0xF1 JUMPI POP PUSH2 0x258 PUSH1 0x2 PUSH1 0x1 ADD SLOAD PUSH2 0xEE SWAP2 SWAP1 PUSH2 0xD48 JUMP JUMPDEST TIMESTAMP LT JUMPDEST ISZERO PUSH2 0xFB JUMPI PUSH1 0x1 SWAP1 POP JUMPDEST JUMPDEST DUP1 PUSH2 0x13C JUMPI PUSH1 0x40 MLOAD PUSH32 0x8C379A000000000000000000000000000000000000000000000000000000000 DUP2 MSTORE PUSH1 0x4 ADD PUSH2 0x133 SWAP1 PUSH2 0xDFB JUMP JUMPDEST PUSH1 0x40 MLOAD DUP1 SWAP2 SUB SWAP1 REVERT JUMPDEST PUSH0 PUSH1 0x2 PUSH0 ADD PUSH0 SWAP1 SLOAD SWAP1 PUSH2 0x100 EXP SWAP1 DIV PUSH1 0xFF AND DUP1 ISZERO PUSH2 0x186 JUMPI POP PUSH1 0x64 PUSH1 0x5 PUSH1 0x2 PUSH1 0x3 ADD SLOAD PUSH2 0x169 SWAP2 SWAP1 PUSH2 0xE19 JUMP JUMPDEST PUSH2 0x173 SWAP2 SWAP1 PUSH2 0xE87 JUMP JUMPDEST PUSH1 0x2 PUSH1 0x3 ADD SLOAD PUSH2 0x183 SWAP2 SWAP1 PUSH2 0xD48 JUMP JUMPDEST CALLVALUE GT JUMPDEST ISZERO PUSH2 0x194 JUMPI PUSH1 0x1 SWAP1 POP PUSH2 0x1C9 JUMP JUMPDEST PUSH1 0x64 PUSH1 0x5 PUSH1 0x1 SLOAD PUSH2 0x1A5 SWAP2 SWAP1 PUSH2 0xE19 JUMP JUMPDEST PUSH2 0x1AF SWAP2 SWAP1 PUSH2 0xE87 JUMP JUMPDEST PUSH1 0x1 SLOAD PUSH2 0x1BC SWAP2 SWAP1 PUSH2 0xD48 JUMP JUMPDEST CALLVALUE GT ISZERO PUSH2 0x1C8 JUMPI PUSH1 0x1 SWAP1 POP JUMPDEST JUMPDEST DUP1 PUSH2 0x209 JUMPI PUSH1 0x40 MLOAD PUSH32 0x8C379A000000000000000000000000000000000000000000000000000000000 DUP2 MSTORE PUSH1 0x4 ADD PUSH2 0x200 SWAP1 PUSH2 0xF27 JUMP JUMPDEST PUSH1 0x40 MLOAD DUP1 SWAP2 SUB SWAP1 REVERT JUMPDEST PUSH1 0xA PUSH0 CALLER PUSH20 0xFFFFFFFFFFFFFFFFFFFFFFFFFFFFFFFFFFFFFFFF AND PUSH20 0xFFFFFFFFFFFFFFFFFFFFFFFFFFFFFFFFFFFFFFFF AND DUP2 MSTORE PUSH1 0x20 ADD SWAP1 DUP2 MSTORE PUSH1 0x20 ADD PUSH0 KECCAK256 PUSH0 ADD PUSH0 SWAP1 SLOAD SWAP1 PUSH2 0x100 EXP SWAP1 DIV PUSH1 0xFF AND PUSH2 0x2BA JUMPI PUSH1 0x9 CALLER SWAP1 DUP1 PUSH1 0x1 DUP2 SLOAD ADD DUP1 DUP3 SSTORE DUP1 SWAP2 POP POP PUSH1 0x1 SWAP1 SUB SWAP1 PUSH0 MSTORE PUSH1 0x20 PUSH0 KECCAK256 ADD PUSH0 SWAP1 SWAP2 SWAP1 SWAP2 SWAP1 SWAP2 PUSH2 0x100 EXP DUP2 SLOAD DUP2 PUSH20 0xFFFFFFFFFFFFFFFFFFFFFFFFFFFFFFFFFFFFFFFF MUL NOT AND SWAP1 DUP4 PUSH20 0xFFFFFFFFFFFFFFFFFFFFFFFFFFFFFFFFFFFFFFFF AND MUL OR SWAP1 SSTORE POP JUMPDEST CALLVALUE PUSH1 0x2 DUP1 ADD PUSH0 DUP3 DUP3 SLOAD PUSH2 0x2CD SWAP2 SWAP1 PUSH2 0xD48 JUMP JUMPDEST SWAP3 POP POP DUP2 SWAP1 SSTORE POP CALLVALUE PUSH1 0x2 PUSH1 0x3 ADD DUP2 SWAP1 SSTORE POP CALLER PUSH1 0x2 PUSH1 0x4 ADD PUSH0 PUSH2 0x100 EXP DUP2 SLOAD DUP2 PUSH20 0xFFFFFFFFFFFFFFFFFFFFFFFFFFFFFFFFFFFFFFFF MUL NOT AND SWAP1 DUP4 PUSH20 0xFFFFFFFFFFFFFFFFFFFFFFFFFFFFFFFFFFFFFFFF AND MUL OR SWAP1 SSTORE POP PUSH1 0x1 PUSH1 0x2 PUSH0 ADD PUSH0 PUSH2 0x100 EXP DUP2 SLOAD DUP2 PUSH1 0xFF MUL NOT AND SWAP1 DUP4 ISZERO ISZERO MUL OR SWAP1 SSTORE POP TIMESTAMP PUSH1 0x2 PUSH1 0x1 ADD DUP2 SWAP1 SSTORE POP CALLVALUE PUSH1 0xA PUSH0 CALLER PUSH20 0xFFFFFFFFFFFFFFFFFFFFFFFFFFFFFFFFFFFFFFFF AND PUSH20 0xFFFFFFFFFFFFFFFFFFFFFFFFFFFFFFFFFFFFFFFF AND DUP2 MSTORE PUSH1 0x20 ADD SWAP1 DUP2 MSTORE PUSH1 0x20 ADD PUSH0 KECCAK256 PUSH1 0x2 ADD PUSH0 DUP3 DUP3 SLOAD PUSH2 0x396 SWAP2 SWAP1 PUSH2 0xD48 JUMP JUMPDEST SWAP3 POP POP DUP2 SWAP1 SSTORE POP CALLVALUE PUSH1 0xA PUSH0 CALLER PUSH20 0xFFFFFFFFFFFFFFFFFFFFFFFFFFFFFFFFFFFFFFFF AND PUSH20 0xFFFFFFFFFFFFFFFFFFFFFFFFFFFFFFFFFFFFFFFF AND DUP2 MSTORE PUSH1 0x20 ADD SWAP1 DUP2 MSTORE PUSH1 0x20 ADD PUSH0 KECCAK256 PUSH1 0x3 ADD DUP2 SWAP1 SSTORE POP CALLER PUSH1 0xA PUSH0 CALLER PUSH20 0xFFFFFFFFFFFFFFFFFFFFFFFFFFFFFFFFFFFFFFFF AND PUSH20 0xFFFFFFFFFFFFFFFFFFFFFFFFFFFFFFFFFFFFFFFF AND DUP2 MSTORE PUSH1 0x20 ADD SWAP1 DUP2 MSTORE PUSH1 0x20 ADD PUSH0 KECCAK256 PUSH1 0x4 ADD PUSH0 PUSH2 0x100 EXP DUP2 SLOAD DUP2 PUSH20 0xFFFFFFFFFFFFFFFFFFFFFFFFFFFFFFFFFFFFFFFF MUL NOT AND SWAP1 DUP4 PUSH20 0xFFFFFFFFFFFFFFFFFFFFFFFFFFFFFFFFFFFFFFFF AND MUL OR SWAP1 SSTORE POP PUSH1 0x1 PUSH1 0xA PUSH0 CALLER PUSH20 0xFFFFFFFFFFFFFFFFFFFFFFFFFFFFFFFFFFFFFFFF AND PUSH20 0xFFFFFFFFFFFFFFFFFFFFFFFFFFFFFFFFFFFFFFFF AND DUP2 MSTORE PUSH1 0x20 ADD SWAP1 DUP2 MSTORE PUSH1 0x20 ADD PUSH0 KECCAK256 PUSH0 ADD PUSH0 PUSH2 0x100 EXP DUP2 SLOAD DUP2 PUSH1 0xFF MUL NOT AND SWAP1 DUP4 ISZERO ISZERO MUL OR SWAP1 SSTORE POP TIMESTAMP PUSH1 0xA PUSH0 CALLER PUSH20 0xFFFFFFFFFFFFFFFFFFFFFFFFFFFFFFFFFFFFFFFF AND PUSH20 0xFFFFFFFFFFFFFFFFFFFFFFFFFFFFFFFFFFFFFFFF AND DUP2 MSTORE PUSH1 0x20 ADD SWAP1 DUP2 MSTORE PUSH1 0x20 ADD PUSH0 KECCAK256 PUSH1 0x1 ADD DUP2 SWAP1 SSTORE POP PUSH32 0xDD0B6C6A77960E2066C96171B4D7AC9E8B4C184011F38544AFA36A5BB63EC59F CALLER CALLVALUE PUSH1 0x40 MLOAD PUSH2 0x52D SWAP3 SWAP2 SWAP1 PUSH2 0xCC1 JUMP JUMPDEST PUSH1 0x40 MLOAD DUP1 SWAP2 SUB SWAP1 LOG1 POP POP JUMP JUMPDEST PUSH1 0x7 PUSH0 SWAP1 SLOAD SWAP1 PUSH2 0x100 EXP SWAP1 DIV PUSH20 0xFFFFFFFFFFFFFFFFFFFFFFFFFFFFFFFFFFFFFFFF AND PUSH20 0xFFFFFFFFFFFFFFFFFFFFFFFFFFFFFFFFFFFFFFFF AND CALLER PUSH20 0xFFFFFFFFFFFFFFFFFFFFFFFFFFFFFFFFFFFFFFFF AND EQ PUSH2 0x5C8 JUMPI PUSH1 0x40 MLOAD PUSH32 0x8C379A000000000000000000000000000000000000000000000000000000000 DUP2 MSTORE PUSH1 0x4 ADD PUSH2 0x5BF SWAP1 PUSH2 0xF8F JUMP JUMPDEST PUSH1 0x40 MLOAD DUP1 SWAP2 SUB SWAP1 REVERT JUMPDEST PUSH0 SLOAD TIMESTAMP GT DUP1 ISZERO PUSH2 0x5E9 JUMPI POP PUSH2 0x258 PUSH1 0x2 PUSH1 0x1 ADD SLOAD PUSH2 0x5E6 SWAP2 SWAP1 PUSH2 0xD48 JUMP JUMPDEST TIMESTAMP GT JUMPDEST PUSH2 0x628 JUMPI PUSH1 0x40 MLOAD PUSH32 0x8C379A000000000000000000000000000000000000000000000000000000000 DUP2 MSTORE PUSH1 0x4 ADD PUSH2 0x61F SWAP1 PUSH2 0xFF7 JUMP JUMPDEST PUSH1 0x40 MLOAD DUP1 SWAP2 SUB SWAP1 REVERT JUMPDEST PUSH1 0x2 PUSH1 0x4 ADD PUSH0 SWAP1 SLOAD SWAP1 PUSH2 0x100 EXP SWAP1 DIV PUSH20 0xFFFFFFFFFFFFFFFFFFFFFFFFFFFFFFFFFFFFFFFF AND PUSH20 0xFFFFFFFFFFFFFFFFFFFFFFFFFFFFFFFFFFFFFFFF AND PUSH1 0x8 PUSH1 0x40 MLOAD PUSH2 0x672 SWAP2 SWAP1 PUSH2 0x110E JUMP JUMPDEST PUSH1 0x40 MLOAD DUP1 SWAP2 SUB SWAP1 KECCAK256 PUSH32 0xEF1C1AC56C3E721A0A9BDB9F70B99F3CD67D25C1AABE4830F296C2391DC1C2E8 PUSH1 0x2 PUSH1 0x3 ADD SLOAD PUSH1 0x40 MLOAD PUSH2 0x6AE SWAP2 SWAP1 PUSH2 0x1124 JUMP JUMPDEST PUSH1 0x40 MLOAD DUP1 SWAP2 SUB SWAP1 LOG3 PUSH0 JUMPDEST PUSH1 0x9 DUP1 SLOAD SWAP1 POP DUP2 LT ISZERO PUSH2 0x952 JUMPI PUSH1 0x2 PUSH1 0x4 ADD PUSH0 SWAP1 SLOAD SWAP1 PUSH2 0x100 EXP SWAP1 DIV PUSH20 0xFFFFFFFFFFFFFFFFFFFFFFFFFFFFFFFFFFFFFFFF AND PUSH20 0xFFFFFFFFFFFFFFFFFFFFFFFFFFFFFFFFFFFFFFFF AND PUSH1 0x9 DUP3 DUP2 SLOAD DUP2 LT PUSH2 0x714 JUMPI PUSH2 0x713 PUSH2 0x113D JUMP JUMPDEST JUMPDEST SWAP1 PUSH0 MSTORE PUSH1 0x20 PUSH0 KECCAK256 ADD PUSH0 SWAP1 SLOAD SWAP1 PUSH2 0x100 EXP SWAP1 DIV PUSH20 0xFFFFFFFFFFFFFFFFFFFFFFFFFFFFFFFFFFFFFFFF AND PUSH20 0xFFFFFFFFFFFFFFFFFFFFFFFFFFFFFFFFFFFFFFFF AND EQ PUSH2 0x945 JUMPI PUSH0 PUSH1 0xA PUSH0 PUSH1 0x9 DUP5 DUP2 SLOAD DUP2 LT PUSH2 0x76F JUMPI PUSH2 0x76E PUSH2 0x113D JUMP JUMPDEST JUMPDEST SWAP1 PUSH0 MSTORE PUSH1 0x20 PUSH0 KECCAK256 ADD PUSH0 SWAP1 SLOAD SWAP1 PUSH2 0x100 EXP SWAP1 DIV PUSH20 0xFFFFFFFFFFFFFFFFFFFFFFFFFFFFFFFFFFFFFFFF AND PUSH20 0xFFFFFFFFFFFFFFFFFFFFFFFFFFFFFFFFFFFFFFFF AND PUSH20 0xFFFFFFFFFFFFFFFFFFFFFFFFFFFFFFFFFFFFFFFF AND DUP2 MSTORE PUSH1 0x20 ADD SWAP1 DUP2 MSTORE PUSH1 0x20 ADD PUSH0 KECCAK256 PUSH1 0x2 ADD SLOAD SWAP1 POP PUSH1 0x64 PUSH1 0x2 DUP3 PUSH2 0x7E5 SWAP2 SWAP1 PUSH2 0xE19 JUMP JUMPDEST PUSH2 0x7EF SWAP2 SWAP1 PUSH2 0xE87 JUMP JUMPDEST DUP2 PUSH2 0x7FA SWAP2 SWAP1 PUSH2 0xD15 JUMP JUMPDEST SWAP1 POP PUSH1 0xA PUSH0 PUSH1 0x9 DUP5 DUP2 SLOAD DUP2 LT PUSH2 0x813 JUMPI PUSH2 0x812 PUSH2 0x113D JUMP JUMPDEST JUMPDEST SWAP1 PUSH0 MSTORE PUSH1 0x20 PUSH0 KECCAK256 ADD PUSH0 SWAP1 SLOAD SWAP1 PUSH2 0x100 EXP SWAP1 DIV PUSH20 0xFFFFFFFFFFFFFFFFFFFFFFFFFFFFFFFFFFFFFFFF AND PUSH20 0xFFFFFFFFFFFFFFFFFFFFFFFFFFFFFFFFFFFFFFFF AND PUSH20 0xFFFFFFFFFFFFFFFFFFFFFFFFFFFFFFFFFFFFFFFF AND DUP2 MSTORE PUSH1 0x20 ADD SWAP1 DUP2 MSTORE PUSH1 0x20 ADD PUSH0 KECCAK256 PUSH0 DUP1 DUP3 ADD PUSH0 PUSH2 0x100 EXP DUP2 SLOAD SWAP1 PUSH1 0xFF MUL NOT AND SWAP1 SSTORE PUSH1 0x1 DUP3 ADD PUSH0 SWAP1 SSTORE PUSH1 0x2 DUP3 ADD PUSH0 SWAP1 SSTORE PUSH1 0x3 DUP3 ADD PUSH0 SWAP1 SSTORE PUSH1 0x4 DUP3 ADD PUSH0 PUSH2 0x100 EXP DUP2 SLOAD SWAP1 PUSH20 0xFFFFFFFFFFFFFFFFFFFFFFFFFFFFFFFFFFFFFFFF MUL NOT AND SWAP1 SSTORE POP POP PUSH1 0x9 DUP3 DUP2 SLOAD DUP2 LT PUSH2 0x8D8 JUMPI PUSH2 0x8D7 PUSH2 0x113D JUMP JUMPDEST JUMPDEST SWAP1 PUSH0 MSTORE PUSH1 0x20 PUSH0 KECCAK256 ADD PUSH0 SWAP1 SLOAD SWAP1 PUSH2 0x100 EXP SWAP1 DIV PUSH20 0xFFFFFFFFFFFFFFFFFFFFFFFFFFFFFFFFFFFFFFFF AND PUSH20 0xFFFFFFFFFFFFFFFFFFFFFFFFFFFFFFFFFFFFFFFF AND PUSH2 0x8FC DUP3 SWAP1 DUP2 ISZERO MUL SWAP1 PUSH1 0x40 MLOAD PUSH0 PUSH1 0x40 MLOAD DUP1 DUP4 SUB DUP2 DUP6 DUP9 DUP9 CALL SWAP4 POP POP POP POP ISZERO DUP1 ISZERO PUSH2 0x942 JUMPI RETURNDATASIZE PUSH0 DUP1 RETURNDATACOPY RETURNDATASIZE PUSH0 REVERT JUMPDEST POP POP JUMPDEST DUP1 DUP1 PUSH1 0x1 ADD SWAP2 POP POP PUSH2 0x6B8 JUMP JUMPDEST POP JUMP JUMPDEST PUSH0 DUP1 PUSH0 SLOAD TIMESTAMP GT DUP1 ISZERO PUSH2 0x978 JUMPI POP PUSH2 0x258 PUSH1 0x2 PUSH1 0x1 ADD SLOAD PUSH2 0x975 SWAP2 SWAP1 PUSH2 0xD48 JUMP JUMPDEST TIMESTAMP GT JUMPDEST PUSH2 0x9B7 JUMPI PUSH1 0x40 MLOAD PUSH32 0x8C379A000000000000000000000000000000000000000000000000000000000 DUP2 MSTORE PUSH1 0x4 ADD PUSH2 0x9AE SWAP1 PUSH2 0xFF7 JUMP JUMPDEST PUSH1 0x40 MLOAD DUP1 SWAP2 SUB SWAP1 REVERT JUMPDEST PUSH1 0x2 PUSH1 0x4 ADD PUSH0 SWAP1 SLOAD SWAP1 PUSH2 0x100 EXP SWAP1 DIV PUSH20 0xFFFFFFFFFFFFFFFFFFFFFFFFFFFFFFFFFFFFFFFF AND PUSH1 0x2 PUSH1 0x3 ADD SLOAD SWAP2 POP SWAP2 POP SWAP1 SWAP2 JUMP JUMPDEST PUSH1 0xA PUSH0 CALLER PUSH20 0xFFFFFFFFFFFFFFFFFFFFFFFFFFFFFFFFFFFFFFFF AND PUSH20 0xFFFFFFFFFFFFFFFFFFFFFFFFFFFFFFFFFFFFFFFF AND DUP2 MSTORE PUSH1 0x20 ADD SWAP1 DUP2 MSTORE PUSH1 0x20 ADD PUSH0 KECCAK256 PUSH0 ADD PUSH0 SWAP1 SLOAD SWAP1 PUSH2 0x100 EXP SWAP1 DIV PUSH1 0xFF AND PUSH2 0xA75 JUMPI PUSH1 0x40 MLOAD PUSH32 0x8C379A000000000000000000000000000000000000000000000000000000000 DUP2 MSTORE PUSH1 0x4 ADD PUSH2 0xA6C SWAP1 PUSH2 0x11B4 JUMP JUMPDEST PUSH1 0x40 MLOAD DUP1 SWAP2 SUB SWAP1 REVERT JUMPDEST PUSH0 PUSH2 0x258 PUSH0 SLOAD PUSH2 0xA85 SWAP2 SWAP1 PUSH2 0xD15 JUMP JUMPDEST TIMESTAMP LT ISZERO PUSH2 0xA95 JUMPI PUSH1 0x1 SWAP1 POP PUSH2 0xACE JUMP JUMPDEST PUSH1 0x2 PUSH0 ADD PUSH0 SWAP1 SLOAD SWAP1 PUSH2 0x100 EXP SWAP1 DIV PUSH1 0xFF AND DUP1 ISZERO PUSH2 0xAC3 JUMPI POP PUSH2 0x258 PUSH1 0x2 PUSH1 0x1 ADD SLOAD PUSH2 0xAC0 SWAP2 SWAP1 PUSH2 0xD48 JUMP JUMPDEST TIMESTAMP LT JUMPDEST ISZERO PUSH2 0xACD JUMPI PUSH1 0x1 SWAP1 POP JUMPDEST JUMPDEST DUP1 PUSH2 0xB0E JUMPI PUSH1 0x40 MLOAD PUSH32 0x8C379A000000000000000000000000000000000000000000000000000000000 DUP2 MSTORE PUSH1 0x4 ADD PUSH2 0xB05 SWAP1 PUSH2 0xDFB JUMP JUMPDEST PUSH1 0x40 MLOAD DUP1 SWAP2 SUB SWAP1 REVERT JUMPDEST PUSH0 PUSH1 0xA PUSH0 CALLER PUSH20 0xFFFFFFFFFFFFFFFFFFFFFFFFFFFFFFFFFFFFFFFF AND PUSH20 0xFFFFFFFFFFFFFFFFFFFFFFFFFFFFFFFFFFFFFFFF AND DUP2 MSTORE PUSH1 0x20 ADD SWAP1 DUP2 MSTORE PUSH1 0x20 ADD PUSH0 KECCAK256 PUSH1 0x3 ADD SLOAD PUSH1 0xA PUSH0 CALLER PUSH20 0xFFFFFFFFFFFFFFFFFFFFFFFFFFFFFFFFFFFFFFFF AND PUSH20 0xFFFFFFFFFFFFFFFFFFFFFFFFFFFFFFFFFFFFFFFF AND DUP2 MSTORE PUSH1 0x20 ADD SWAP1 DUP2 MSTORE PUSH1 0x20 ADD PUSH0 KECCAK256 PUSH1 0x2 ADD SLOAD PUSH2 0xB9B SWAP2 SWAP1 PUSH2 0xD15 JUMP JUMPDEST SWAP1 POP PUSH1 0xA PUSH0 CALLER PUSH20 0xFFFFFFFFFFFFFFFFFFFFFFFFFFFFFFFFFFFFFFFF AND PUSH20 0xFFFFFFFFFFFFFFFFFFFFFFFFFFFFFFFFFFFFFFFF AND DUP2 MSTORE PUSH1 0x20 ADD SWAP1 DUP2 MSTORE PUSH1 0x20 ADD PUSH0 KECCAK256 PUSH1 0x3 ADD SLOAD PUSH1 0xA PUSH0 CALLER PUSH20 0xFFFFFFFFFFFFFFFFFFFFFFFFFFFFFFFFFFFFFFFF AND PUSH20 0xFFFFFFFFFFFFFFFFFFFFFFFFFFFFFFFFFFFFFFFF AND DUP2 MSTORE PUSH1 0x20 ADD SWAP1 DUP2 MSTORE PUSH1 0x20 ADD PUSH0 KECCAK256 PUSH1 0x2 ADD DUP2 SWAP1 SSTORE POP CALLER PUSH20 0xFFFFFFFFFFFFFFFFFFFFFFFFFFFFFFFFFFFFFFFF AND PUSH2 0x8FC DUP3 SWAP1 DUP2 ISZERO MUL SWAP1 PUSH1 0x40 MLOAD PUSH0 PUSH1 0x40 MLOAD DUP1 DUP4 SUB DUP2 DUP6 DUP9 DUP9 CALL SWAP4 POP POP POP POP ISZERO DUP1 ISZERO PUSH2 0xC65 JUMPI RETURNDATASIZE PUSH0 DUP1 RETURNDATACOPY RETURNDATASIZE PUSH0 REVERT JUMPDEST POP POP POP JUMP JUMPDEST PUSH0 PUSH20 0xFFFFFFFFFFFFFFFFFFFFFFFFFFFFFFFFFFFFFFFF DUP3 AND SWAP1 POP SWAP2 SWAP1 POP JUMP JUMPDEST PUSH0 PUSH2 0xC93 DUP3 PUSH2 0xC6A JUMP JUMPDEST SWAP1 POP SWAP2 SWAP1 POP JUMP JUMPDEST PUSH2 0xCA3 DUP2 PUSH2 0xC89 JUMP JUMPDEST DUP3 MSTORE POP POP JUMP JUMPDEST PUSH0 DUP2 SWAP1 POP SWAP2 SWAP1 POP JUMP JUMPDEST PUSH2 0xCBB DUP2 PUSH2 0xCA9 JUMP JUMPDEST DUP3 MSTORE POP POP JUMP JUMPDEST PUSH0 PUSH1 0x40 DUP3 ADD SWAP1 POP PUSH2 0xCD4 PUSH0 DUP4 ADD DUP6 PUSH2 0xC9A JUMP JUMPDEST PUSH2 0xCE1 PUSH1 0x20 DUP4 ADD DUP5 PUSH2 0xCB2 JUMP JUMPDEST SWAP4 SWAP3 POP POP POP JUMP JUMPDEST PUSH32 0x4E487B7100000000000000000000000000000000000000000000000000000000 PUSH0 MSTORE PUSH1 0x11 PUSH1 0x4 MSTORE PUSH1 0x24 PUSH0 REVERT JUMPDEST PUSH0 PUSH2 0xD1F DUP3 PUSH2 0xCA9 JUMP JUMPDEST SWAP2 POP PUSH2 0xD2A DUP4 PUSH2 0xCA9 JUMP JUMPDEST SWAP3 POP DUP3 DUP3 SUB SWAP1 POP DUP2 DUP2 GT ISZERO PUSH2 0xD42 JUMPI PUSH2 0xD41 PUSH2 0xCE8 JUMP JUMPDEST JUMPDEST SWAP3 SWAP2 POP POP JUMP JUMPDEST PUSH0 PUSH2 0xD52 DUP3 PUSH2 0xCA9 JUMP JUMPDEST SWAP2 POP PUSH2 0xD5D DUP4 PUSH2 0xCA9 JUMP JUMPDEST SWAP3 POP DUP3 DUP3 ADD SWAP1 POP DUP1 DUP3 GT ISZERO PUSH2 0xD75 JUMPI PUSH2 0xD74 PUSH2 0xCE8 JUMP JUMPDEST JUMPDEST SWAP3 SWAP2 POP POP JUMP JUMPDEST PUSH0 DUP3 DUP3 MSTORE PUSH1 0x20 DUP3 ADD SWAP1 POP SWAP3 SWAP2 POP POP JUMP JUMPDEST PUSH32 0x5468652074696D6520666F7220706C616365206120626964206861732066696E PUSH0 DUP3 ADD MSTORE PUSH32 0x6973680000000000000000000000000000000000000000000000000000000000 PUSH1 0x20 DUP3 ADD MSTORE POP JUMP JUMPDEST PUSH0 PUSH2 0xDE5 PUSH1 0x23 DUP4 PUSH2 0xD7B JUMP JUMPDEST SWAP2 POP PUSH2 0xDF0 DUP3 PUSH2 0xD8B JUMP JUMPDEST PUSH1 0x40 DUP3 ADD SWAP1 POP SWAP2 SWAP1 POP JUMP JUMPDEST PUSH0 PUSH1 0x20 DUP3 ADD SWAP1 POP DUP2 DUP2 SUB PUSH0 DUP4 ADD MSTORE PUSH2 0xE12 DUP2 PUSH2 0xDD9 JUMP JUMPDEST SWAP1 POP SWAP2 SWAP1 POP JUMP JUMPDEST PUSH0 PUSH2 0xE23 DUP3 PUSH2 0xCA9 JUMP JUMPDEST SWAP2 POP PUSH2 0xE2E DUP4 PUSH2 0xCA9 JUMP JUMPDEST SWAP3 POP DUP3 DUP3 MUL PUSH2 0xE3C DUP2 PUSH2 0xCA9 JUMP JUMPDEST SWAP2 POP DUP3 DUP3 DIV DUP5 EQ DUP4 ISZERO OR PUSH2 0xE53 JUMPI PUSH2 0xE52 PUSH2 0xCE8 JUMP JUMPDEST JUMPDEST POP SWAP3 SWAP2 POP POP JUMP JUMPDEST PUSH32 0x4E487B7100000000000000000000000000000000000000000000000000000000 PUSH0 MSTORE PUSH1 0x12 PUSH1 0x4 MSTORE PUSH1 0x24 PUSH0 REVERT JUMPDEST PUSH0 PUSH2 0xE91 DUP3 PUSH2 0xCA9 JUMP JUMPDEST SWAP2 POP PUSH2 0xE9C DUP4 PUSH2 0xCA9 JUMP JUMPDEST SWAP3 POP DUP3 PUSH2 0xEAC JUMPI PUSH2 0xEAB PUSH2 0xE5A JUMP JUMPDEST JUMPDEST DUP3 DUP3 DIV SWAP1 POP SWAP3 SWAP2 POP POP JUMP JUMPDEST PUSH32 0x412076616C696420626964206D75737420626520352025206772656174657220 PUSH0 DUP3 ADD MSTORE PUSH32 0x7468616E20746865206C617374206269642E0000000000000000000000000000 PUSH1 0x20 DUP3 ADD MSTORE POP JUMP JUMPDEST PUSH0 PUSH2 0xF11 PUSH1 0x32 DUP4 PUSH2 0xD7B JUMP JUMPDEST SWAP2 POP PUSH2 0xF1C DUP3 PUSH2 0xEB7 JUMP JUMPDEST PUSH1 0x40 DUP3 ADD SWAP1 POP SWAP2 SWAP1 POP JUMP JUMPDEST PUSH0 PUSH1 0x20 DUP3 ADD SWAP1 POP DUP2 DUP2 SUB PUSH0 DUP4 ADD MSTORE PUSH2 0xF3E DUP2 PUSH2 0xF05 JUMP JUMPDEST SWAP1 POP SWAP2 SWAP1 POP JUMP JUMPDEST PUSH32 0x4F6E6C792041646D696E205573657220697320616C6C6F7765642E0000000000 PUSH0 DUP3 ADD MSTORE POP JUMP JUMPDEST PUSH0 PUSH2 0xF79 PUSH1 0x1B DUP4 PUSH2 0xD7B JUMP JUMPDEST SWAP2 POP PUSH2 0xF84 DUP3 PUSH2 0xF45 JUMP JUMPDEST PUSH1 0x20 DUP3 ADD SWAP1 POP SWAP2 SWAP1 POP JUMP JUMPDEST PUSH0 PUSH1 0x20 DUP3 ADD SWAP1 POP DUP2 DUP2 SUB PUSH0 DUP4 ADD MSTORE PUSH2 0xFA6 DUP2 PUSH2 0xF6D JUMP JUMPDEST SWAP1 POP SWAP2 SWAP1 POP JUMP JUMPDEST PUSH32 0x5468652061756374696F6E20686173206E6F7420656E646564207965742E0000 PUSH0 DUP3 ADD MSTORE POP JUMP JUMPDEST PUSH0 PUSH2 0xFE1 PUSH1 0x1E DUP4 PUSH2 0xD7B JUMP JUMPDEST SWAP2 POP PUSH2 0xFEC DUP3 PUSH2 0xFAD JUMP JUMPDEST PUSH1 0x20 DUP3 ADD SWAP1 POP SWAP2 SWAP1 POP JUMP JUMPDEST PUSH0 PUSH1 0x20 DUP3 ADD SWAP1 POP DUP2 DUP2 SUB PUSH0 DUP4 ADD MSTORE PUSH2 0x100E DUP2 PUSH2 0xFD5 JUMP JUMPDEST SWAP1 POP SWAP2 SWAP1 POP JUMP JUMPDEST PUSH32 0x4E487B7100000000000000000000000000000000000000000000000000000000 PUSH0 MSTORE PUSH1 0x22 PUSH1 0x4 MSTORE PUSH1 0x24 PUSH0 REVERT JUMPDEST PUSH0 PUSH1 0x2 DUP3 DIV SWAP1 POP PUSH1 0x1 DUP3 AND DUP1 PUSH2 0x1059 JUMPI PUSH1 0x7F DUP3 AND SWAP2 POP JUMPDEST PUSH1 0x20 DUP3 LT DUP2 SUB PUSH2 0x106C JUMPI PUSH2 0x106B PUSH2 0x1015 JUMP JUMPDEST JUMPDEST POP SWAP2 SWAP1 POP JUMP JUMPDEST PUSH0 DUP2 SWAP1 POP SWAP3 SWAP2 POP POP JUMP JUMPDEST PUSH0 DUP2 SWAP1 POP DUP2 PUSH0 MSTORE PUSH1 0x20 PUSH0 KECCAK256 SWAP1 POP SWAP2 SWAP1 POP JUMP JUMPDEST PUSH0 DUP2 SLOAD PUSH2 0x109A DUP2 PUSH2 0x1042 JUMP JUMPDEST PUSH2 0x10A4 DUP2 DUP7 PUSH2 0x1072 JUMP JUMPDEST SWAP5 POP PUSH1 0x1 DUP3 AND PUSH0 DUP2 EQ PUSH2 0x10BE JUMPI PUSH1 0x1 DUP2 EQ PUSH2 0x10D3 JUMPI PUSH2 0x1105 JUMP JUMPDEST PUSH1 0xFF NOT DUP4 AND DUP7 MSTORE DUP2 ISZERO ISZERO DUP3 MUL DUP7 ADD SWAP4 POP PUSH2 0x1105 JUMP JUMPDEST PUSH2 0x10DC DUP6 PUSH2 0x107C JUMP JUMPDEST PUSH0 JUMPDEST DUP4 DUP2 LT ISZERO PUSH2 0x10FD JUMPI DUP2 SLOAD DUP2 DUP10 ADD MSTORE PUSH1 0x1 DUP3 ADD SWAP2 POP PUSH1 0x20 DUP2 ADD SWAP1 POP PUSH2 0x10DE JUMP JUMPDEST DUP4 DUP9 ADD SWAP6 POP POP POP JUMPDEST POP POP POP SWAP3 SWAP2 POP POP JUMP JUMPDEST PUSH0 PUSH2 0x1119 DUP3 DUP5 PUSH2 0x108E JUMP JUMPDEST SWAP2 POP DUP2 SWAP1 POP SWAP3 SWAP2 POP POP JUMP JUMPDEST PUSH0 PUSH1 0x20 DUP3 ADD SWAP1 POP PUSH2 0x1137 PUSH0 DUP4 ADD DUP5 PUSH2 0xCB2 JUMP JUMPDEST SWAP3 SWAP2 POP POP JUMP JUMPDEST PUSH32 0x4E487B7100000000000000000000000000000000000000000000000000000000 PUSH0 MSTORE PUSH1 0x32 PUSH1 0x4 MSTORE PUSH1 0x24 PUSH0 REVERT JUMPDEST PUSH32 0x4F6E6C79204269646465722061726520616C6C6F7765642E0000000000000000 PUSH0 DUP3 ADD MSTORE POP JUMP JUMPDEST PUSH0 PUSH2 0x119E PUSH1 0x18 DUP4 PUSH2 0xD7B JUMP JUMPDEST SWAP2 POP PUSH2 0x11A9 DUP3 PUSH2 0x116A JUMP JUMPDEST PUSH1 0x20 DUP3 ADD SWAP1 POP SWAP2 SWAP1 POP JUMP JUMPDEST PUSH0 PUSH1 0x20 DUP3 ADD SWAP1 POP DUP2 DUP2 SUB PUSH0 DUP4 ADD MSTORE PUSH2 0x11CB DUP2 PUSH2 0x1192 JUMP JUMPDEST SWAP1 POP SWAP2 SWAP1 POP JUMP INVALID LOG2 PUSH5 0x6970667358 0x22 SLT KECCAK256 0xC3 0xAA DUP5 EXTCODEHASH 0xEF PUSH32 0x78B3128A84A0954FD62FAB67BB75E0331274A0E758F167D5F49564736F6C6343 STOP ADDMOD BYTE STOP CALLER "
				},
				"gasEstimates": {
					"creation": {
						"codeDepositCost": "923200",
						"executionCost": "infinite",
						"totalCost": "infinite"
					},
					"external": {
						"bid()": "infinite",
						"close()": "infinite",
						"inforWinner()": "infinite",
						"withdrawal()": "infinite"
					}
				},
				"methodIdentifiers": {
					"bid()": "1998aeef",
					"close()": "43d726d6",
					"inforWinner()": "bb10d006",
					"withdrawal()": "d4e93292"
				}
			},
			"storageLayout": {
				"storage": [
					{
						"astId": 3,
						"contract": "tp2/auction.sol:Auction",
						"label": "completionTime",
						"offset": 0,
						"slot": "0",
						"type": "t_uint256"
					},
					{
						"astId": 5,
						"contract": "tp2/auction.sol:Auction",
						"label": "basePrice",
						"offset": 0,
						"slot": "1",
						"type": "t_uint256"
					},
					{
						"astId": 8,
						"contract": "tp2/auction.sol:Auction",
						"label": "lastBid",
						"offset": 0,
						"slot": "2",
						"type": "t_struct(Bid)51_storage"
					},
					{
						"astId": 10,
						"contract": "tp2/auction.sol:Auction",
						"label": "admin",
						"offset": 0,
						"slot": "7",
						"type": "t_address"
					},
					{
						"astId": 12,
						"contract": "tp2/auction.sol:Auction",
						"label": "auctioneItem",
						"offset": 0,
						"slot": "8",
						"type": "t_string_storage"
					},
					{
						"astId": 15,
						"contract": "tp2/auction.sol:Auction",
						"label": "bidders",
						"offset": 0,
						"slot": "9",
						"type": "t_array(t_address)dyn_storage"
					},
					{
						"astId": 20,
						"contract": "tp2/auction.sol:Auction",
						"label": "balances",
						"offset": 0,
						"slot": "10",
						"type": "t_mapping(t_address,t_struct(Bid)51_storage)"
					}
				],
				"types": {
					"t_address": {
						"encoding": "inplace",
						"label": "address",
						"numberOfBytes": "20"
					},
					"t_array(t_address)dyn_storage": {
						"base": "t_address",
						"encoding": "dynamic_array",
						"label": "address[]",
						"numberOfBytes": "32"
					},
					"t_bool": {
						"encoding": "inplace",
						"label": "bool",
						"numberOfBytes": "1"
					},
					"t_mapping(t_address,t_struct(Bid)51_storage)": {
						"encoding": "mapping",
						"key": "t_address",
						"label": "mapping(address => struct Auction.Bid)",
						"numberOfBytes": "32",
						"value": "t_struct(Bid)51_storage"
					},
					"t_string_storage": {
						"encoding": "bytes",
						"label": "string",
						"numberOfBytes": "32"
					},
					"t_struct(Bid)51_storage": {
						"encoding": "inplace",
						"label": "struct Auction.Bid",
						"members": [
							{
								"astId": 42,
								"contract": "tp2/auction.sol:Auction",
								"label": "exists",
								"offset": 0,
								"slot": "0",
								"type": "t_bool"
							},
							{
								"astId": 44,
								"contract": "tp2/auction.sol:Auction",
								"label": "timestamp",
								"offset": 0,
								"slot": "1",
								"type": "t_uint256"
							},
							{
								"astId": 46,
								"contract": "tp2/auction.sol:Auction",
								"label": "accumulated",
								"offset": 0,
								"slot": "2",
								"type": "t_uint256"
							},
							{
								"astId": 48,
								"contract": "tp2/auction.sol:Auction",
								"label": "amount",
								"offset": 0,
								"slot": "3",
								"type": "t_uint256"
							},
							{
								"astId": 50,
								"contract": "tp2/auction.sol:Auction",
								"label": "owner",
								"offset": 0,
								"slot": "4",
								"type": "t_address"
							}
						],
						"numberOfBytes": "160"
					},
					"t_uint256": {
						"encoding": "inplace",
						"label": "uint256",
						"numberOfBytes": "32"
					}
				}
			},
			"userdoc": {
				"kind": "user",
				"methods": {},
				"version": 1
			}
		}
	}
}