{
	"tp2/auction.sol": {
		"Auction": {
			"abi": [
				{
					"inputs": [
						{
							"internalType": "uint256",
							"name": "_duration",
							"type": "uint256"
						},
						{
							"internalType": "uint256",
							"name": "base",
							"type": "uint256"
						},
						{
							"internalType": "string",
							"name": "item",
							"type": "string"
						}
					],
					"stateMutability": "nonpayable",
					"type": "constructor"
				},
				{
					"inputs": [
						{
							"internalType": "string",
							"name": "detail",
							"type": "string"
						}
					],
					"name": "AccessNotAllowed",
					"type": "error"
				},
				{
					"inputs": [
						{
							"internalType": "enum Auction.Stage",
							"name": "stage",
							"type": "uint8"
						}
					],
					"name": "NotAllowedAtStage",
					"type": "error"
				},
				{
					"inputs": [
						{
							"internalType": "string",
							"name": "detail",
							"type": "string"
						}
					],
					"name": "NotEnoughHigh",
					"type": "error"
				},
				{
					"inputs": [],
					"name": "NothingToWithdraw",
					"type": "error"
				},
				{
					"anonymous": false,
					"inputs": [
						{
							"indexed": true,
							"internalType": "string",
							"name": "auctioneItem",
							"type": "string"
						},
						{
							"indexed": true,
							"internalType": "address",
							"name": "winner",
							"type": "address"
						},
						{
							"indexed": false,
							"internalType": "uint256",
							"name": "amount",
							"type": "uint256"
						}
					],
					"name": "AuctionFinished",
					"type": "event"
				},
				{
					"anonymous": false,
					"inputs": [
						{
							"indexed": true,
							"internalType": "string",
							"name": "item",
							"type": "string"
						},
						{
							"indexed": false,
							"internalType": "uint256",
							"name": "base",
							"type": "uint256"
						}
					],
					"name": "AuctionOpened",
					"type": "event"
				},
				{
					"anonymous": false,
					"inputs": [
						{
							"indexed": false,
							"internalType": "address",
							"name": "bidder",
							"type": "address"
						},
						{
							"indexed": false,
							"internalType": "uint256",
							"name": "amount",
							"type": "uint256"
						}
					],
					"name": "NewBid",
					"type": "event"
				},
				{
					"inputs": [],
					"name": "bid",
					"outputs": [],
					"stateMutability": "payable",
					"type": "function"
				},
				{
					"inputs": [],
					"name": "close",
					"outputs": [],
					"stateMutability": "nonpayable",
					"type": "function"
				},
				{
					"inputs": [],
					"name": "showBids",
					"outputs": [
						{
							"components": [
								{
									"internalType": "bool",
									"name": "exists",
									"type": "bool"
								},
								{
									"internalType": "uint256",
									"name": "timestamp",
									"type": "uint256"
								},
								{
									"internalType": "uint256",
									"name": "accumulated",
									"type": "uint256"
								},
								{
									"internalType": "uint256",
									"name": "amount",
									"type": "uint256"
								},
								{
									"internalType": "address",
									"name": "owner",
									"type": "address"
								}
							],
							"internalType": "struct Auction.Bid[]",
							"name": "",
							"type": "tuple[]"
						}
					],
					"stateMutability": "view",
					"type": "function"
				},
				{
					"inputs": [],
					"name": "showWinner",
					"outputs": [
						{
							"internalType": "address",
							"name": "winner",
							"type": "address"
						},
						{
							"internalType": "uint256",
							"name": "amount",
							"type": "uint256"
						}
					],
					"stateMutability": "view",
					"type": "function"
				},
				{
					"inputs": [],
					"name": "withdrawal",
					"outputs": [],
					"stateMutability": "nonpayable",
					"type": "function"
				}
			],
			"devdoc": {
				"kind": "dev",
				"methods": {},
				"version": 1
			},
			"evm": {
				"assembly": "    /* \"tp2/auction.sol\":58:4320  contract Auction {... */\n  mstore(0x40, 0x80)\n    /* \"tp2/auction.sol\":866:1154  constructor(uint _duration, uint base, string memory item){... */\n  callvalue\n  dup1\n  iszero\n  tag_1\n  jumpi\n  0x00\n  dup1\n  revert\ntag_1:\n  pop\n  mload(0x40)\n  sub(codesize, bytecodeSize)\n  dup1\n  bytecodeSize\n  dup4\n  codecopy\n  dup2\n  dup2\n  add\n  0x40\n  mstore\n  dup2\n  add\n  swap1\n  tag_2\n  swap2\n  swap1\n  tag_3\n  jump\t// in\ntag_2:\n    /* \"tp2/auction.sol\":942:952  msg.sender */\n  caller\n    /* \"tp2/auction.sol\":934:939  admin */\n  0x07\n  0x00\n    /* \"tp2/auction.sol\":934:952  admin = msg.sender */\n  0x0100\n  exp\n  dup2\n  sload\n  dup2\n  0xffffffffffffffffffffffffffffffffffffffff\n  mul\n  not\n  and\n  swap1\n  dup4\n  0xffffffffffffffffffffffffffffffffffffffff\n  and\n  mul\n  or\n  swap1\n  sstore\n  pop\n    /* \"tp2/auction.sol\":977:981  item */\n  dup1\n    /* \"tp2/auction.sol\":962:974  auctioneItem */\n  0x08\n    /* \"tp2/auction.sol\":962:981  auctioneItem = item */\n  swap1\n  dup2\n  tag_6\n  swap2\n  swap1\n  tag_7\n  jump\t// in\ntag_6:\n  pop\n    /* \"tp2/auction.sol\":1026:1035  _duration */\n  dup3\n    /* \"tp2/auction.sol\":1008:1023  block.timestamp */\n  timestamp\n    /* \"tp2/auction.sol\":1008:1035  block.timestamp + _duration */\n  tag_8\n  swap2\n  swap1\n  tag_9\n  jump\t// in\ntag_8:\n    /* \"tp2/auction.sol\":991:1005  completionTime */\n  0x00\n    /* \"tp2/auction.sol\":991:1035  completionTime = block.timestamp + _duration */\n  dup2\n  swap1\n  sstore\n  pop\n    /* \"tp2/auction.sol\":1062:1066  base */\n  dup2\n    /* \"tp2/auction.sol\":1045:1052  lastBid */\n  0x02\n    /* \"tp2/auction.sol\":1045:1059  lastBid.amount */\n  0x03\n  add\n    /* \"tp2/auction.sol\":1045:1066  lastBid.amount = base */\n  dup2\n  swap1\n  sstore\n  pop\n    /* \"tp2/auction.sol\":1084:1099  Stage.TakingBid */\n  0x00\n    /* \"tp2/auction.sol\":1076:1081  stage */\n  0x01\n  0x00\n    /* \"tp2/auction.sol\":1076:1099  stage = Stage.TakingBid */\n  0x0100\n  exp\n  dup2\n  sload\n  dup2\n  0xff\n  mul\n  not\n  and\n  swap1\n  dup4\n  0x01\n  dup2\n  gt\n  iszero\n  tag_10\n  jumpi\n  tag_11\n  tag_12\n  jump\t// in\ntag_11:\ntag_10:\n  mul\n  or\n  swap1\n  sstore\n  pop\n    /* \"tp2/auction.sol\":1128:1140  auctioneItem */\n  0x08\n    /* \"tp2/auction.sol\":1114:1147  AuctionOpened(auctioneItem, base) */\n  mload(0x40)\n  tag_13\n  swap2\n  swap1\n  tag_14\n  jump\t// in\ntag_13:\n  mload(0x40)\n  dup1\n  swap2\n  sub\n  swap1\n  keccak256\n  0x88b524d6621d7de004458e51f7f3a0dec805641fc7853fa1c25d15a1266b459e\n    /* \"tp2/auction.sol\":1142:1146  base */\n  dup4\n    /* \"tp2/auction.sol\":1114:1147  AuctionOpened(auctioneItem, base) */\n  mload(0x40)\n  tag_15\n  swap2\n  swap1\n  tag_16\n  jump\t// in\ntag_15:\n  mload(0x40)\n  dup1\n  swap2\n  sub\n  swap1\n  log2\n    /* \"tp2/auction.sol\":866:1154  constructor(uint _duration, uint base, string memory item){... */\n  pop\n  pop\n  pop\n    /* \"tp2/auction.sol\":58:4320  contract Auction {... */\n  jump(tag_17)\n    /* \"#utility.yul\":7:82   */\ntag_18:\n    /* \"#utility.yul\":40:46   */\n  0x00\n    /* \"#utility.yul\":73:75   */\n  0x40\n    /* \"#utility.yul\":67:76   */\n  mload\n    /* \"#utility.yul\":57:76   */\n  swap1\n  pop\n    /* \"#utility.yul\":7:82   */\n  swap1\n  jump\t// out\n    /* \"#utility.yul\":88:205   */\ntag_19:\n    /* \"#utility.yul\":197:198   */\n  0x00\n    /* \"#utility.yul\":194:195   */\n  dup1\n    /* \"#utility.yul\":187:199   */\n  revert\n    /* \"#utility.yul\":211:328   */\ntag_20:\n    /* \"#utility.yul\":320:321   */\n  0x00\n    /* \"#utility.yul\":317:318   */\n  dup1\n    /* \"#utility.yul\":310:322   */\n  revert\n    /* \"#utility.yul\":334:411   */\ntag_21:\n    /* \"#utility.yul\":371:378   */\n  0x00\n    /* \"#utility.yul\":400:405   */\n  dup2\n    /* \"#utility.yul\":389:405   */\n  swap1\n  pop\n    /* \"#utility.yul\":334:411   */\n  swap2\n  swap1\n  pop\n  jump\t// out\n    /* \"#utility.yul\":417:539   */\ntag_22:\n    /* \"#utility.yul\":490:514   */\n  tag_62\n    /* \"#utility.yul\":508:513   */\n  dup2\n    /* \"#utility.yul\":490:514   */\n  tag_21\n  jump\t// in\ntag_62:\n    /* \"#utility.yul\":483:488   */\n  dup2\n    /* \"#utility.yul\":480:515   */\n  eq\n    /* \"#utility.yul\":470:533   */\n  tag_63\n  jumpi\n    /* \"#utility.yul\":529:530   */\n  0x00\n    /* \"#utility.yul\":526:527   */\n  dup1\n    /* \"#utility.yul\":519:531   */\n  revert\n    /* \"#utility.yul\":470:533   */\ntag_63:\n    /* \"#utility.yul\":417:539   */\n  pop\n  jump\t// out\n    /* \"#utility.yul\":545:688   */\ntag_23:\n    /* \"#utility.yul\":602:607   */\n  0x00\n    /* \"#utility.yul\":633:639   */\n  dup2\n    /* \"#utility.yul\":627:640   */\n  mload\n    /* \"#utility.yul\":618:640   */\n  swap1\n  pop\n    /* \"#utility.yul\":649:682   */\n  tag_65\n    /* \"#utility.yul\":676:681   */\n  dup2\n    /* \"#utility.yul\":649:682   */\n  tag_22\n  jump\t// in\ntag_65:\n    /* \"#utility.yul\":545:688   */\n  swap3\n  swap2\n  pop\n  pop\n  jump\t// out\n    /* \"#utility.yul\":694:811   */\ntag_24:\n    /* \"#utility.yul\":803:804   */\n  0x00\n    /* \"#utility.yul\":800:801   */\n  dup1\n    /* \"#utility.yul\":793:805   */\n  revert\n    /* \"#utility.yul\":817:934   */\ntag_25:\n    /* \"#utility.yul\":926:927   */\n  0x00\n    /* \"#utility.yul\":923:924   */\n  dup1\n    /* \"#utility.yul\":916:928   */\n  revert\n    /* \"#utility.yul\":940:1042   */\ntag_26:\n    /* \"#utility.yul\":981:987   */\n  0x00\n    /* \"#utility.yul\":1032:1034   */\n  0x1f\n    /* \"#utility.yul\":1028:1035   */\n  not\n    /* \"#utility.yul\":1023:1025   */\n  0x1f\n    /* \"#utility.yul\":1016:1021   */\n  dup4\n    /* \"#utility.yul\":1012:1026   */\n  add\n    /* \"#utility.yul\":1008:1036   */\n  and\n    /* \"#utility.yul\":998:1036   */\n  swap1\n  pop\n    /* \"#utility.yul\":940:1042   */\n  swap2\n  swap1\n  pop\n  jump\t// out\n    /* \"#utility.yul\":1048:1228   */\ntag_27:\n    /* \"#utility.yul\":1096:1173   */\n  0x4e487b7100000000000000000000000000000000000000000000000000000000\n    /* \"#utility.yul\":1093:1094   */\n  0x00\n    /* \"#utility.yul\":1086:1174   */\n  mstore\n    /* \"#utility.yul\":1193:1197   */\n  0x41\n    /* \"#utility.yul\":1190:1191   */\n  0x04\n    /* \"#utility.yul\":1183:1198   */\n  mstore\n    /* \"#utility.yul\":1217:1221   */\n  0x24\n    /* \"#utility.yul\":1214:1215   */\n  0x00\n    /* \"#utility.yul\":1207:1222   */\n  revert\n    /* \"#utility.yul\":1234:1515   */\ntag_28:\n    /* \"#utility.yul\":1317:1344   */\n  tag_71\n    /* \"#utility.yul\":1339:1343   */\n  dup3\n    /* \"#utility.yul\":1317:1344   */\n  tag_26\n  jump\t// in\ntag_71:\n    /* \"#utility.yul\":1309:1315   */\n  dup2\n    /* \"#utility.yul\":1305:1345   */\n  add\n    /* \"#utility.yul\":1447:1453   */\n  dup2\n    /* \"#utility.yul\":1435:1445   */\n  dup2\n    /* \"#utility.yul\":1432:1454   */\n  lt\n    /* \"#utility.yul\":1411:1429   */\n  0xffffffffffffffff\n    /* \"#utility.yul\":1399:1409   */\n  dup3\n    /* \"#utility.yul\":1396:1430   */\n  gt\n    /* \"#utility.yul\":1393:1455   */\n  or\n    /* \"#utility.yul\":1390:1478   */\n  iszero\n  tag_72\n  jumpi\n    /* \"#utility.yul\":1458:1476   */\n  tag_73\n  tag_27\n  jump\t// in\ntag_73:\n    /* \"#utility.yul\":1390:1478   */\ntag_72:\n    /* \"#utility.yul\":1498:1508   */\n  dup1\n    /* \"#utility.yul\":1494:1496   */\n  0x40\n    /* \"#utility.yul\":1487:1509   */\n  mstore\n    /* \"#utility.yul\":1277:1515   */\n  pop\n    /* \"#utility.yul\":1234:1515   */\n  pop\n  pop\n  jump\t// out\n    /* \"#utility.yul\":1521:1650   */\ntag_29:\n    /* \"#utility.yul\":1555:1561   */\n  0x00\n    /* \"#utility.yul\":1582:1602   */\n  tag_75\n  tag_18\n  jump\t// in\ntag_75:\n    /* \"#utility.yul\":1572:1602   */\n  swap1\n  pop\n    /* \"#utility.yul\":1611:1644   */\n  tag_76\n    /* \"#utility.yul\":1639:1643   */\n  dup3\n    /* \"#utility.yul\":1631:1637   */\n  dup3\n    /* \"#utility.yul\":1611:1644   */\n  tag_28\n  jump\t// in\ntag_76:\n    /* \"#utility.yul\":1521:1650   */\n  swap2\n  swap1\n  pop\n  jump\t// out\n    /* \"#utility.yul\":1656:1964   */\ntag_30:\n    /* \"#utility.yul\":1718:1722   */\n  0x00\n    /* \"#utility.yul\":1808:1826   */\n  0xffffffffffffffff\n    /* \"#utility.yul\":1800:1806   */\n  dup3\n    /* \"#utility.yul\":1797:1827   */\n  gt\n    /* \"#utility.yul\":1794:1850   */\n  iszero\n  tag_78\n  jumpi\n    /* \"#utility.yul\":1830:1848   */\n  tag_79\n  tag_27\n  jump\t// in\ntag_79:\n    /* \"#utility.yul\":1794:1850   */\ntag_78:\n    /* \"#utility.yul\":1868:1897   */\n  tag_80\n    /* \"#utility.yul\":1890:1896   */\n  dup3\n    /* \"#utility.yul\":1868:1897   */\n  tag_26\n  jump\t// in\ntag_80:\n    /* \"#utility.yul\":1860:1897   */\n  swap1\n  pop\n    /* \"#utility.yul\":1952:1956   */\n  0x20\n    /* \"#utility.yul\":1946:1950   */\n  dup2\n    /* \"#utility.yul\":1942:1957   */\n  add\n    /* \"#utility.yul\":1934:1957   */\n  swap1\n  pop\n    /* \"#utility.yul\":1656:1964   */\n  swap2\n  swap1\n  pop\n  jump\t// out\n    /* \"#utility.yul\":1970:2109   */\ntag_31:\n    /* \"#utility.yul\":2059:2065   */\n  dup3\n    /* \"#utility.yul\":2054:2057   */\n  dup2\n    /* \"#utility.yul\":2049:2052   */\n  dup4\n    /* \"#utility.yul\":2043:2066   */\n  mcopy\n    /* \"#utility.yul\":2100:2101   */\n  0x00\n    /* \"#utility.yul\":2091:2097   */\n  dup4\n    /* \"#utility.yul\":2086:2089   */\n  dup4\n    /* \"#utility.yul\":2082:2098   */\n  add\n    /* \"#utility.yul\":2075:2102   */\n  mstore\n    /* \"#utility.yul\":1970:2109   */\n  pop\n  pop\n  pop\n  jump\t// out\n    /* \"#utility.yul\":2115:2549   */\ntag_32:\n    /* \"#utility.yul\":2204:2209   */\n  0x00\n    /* \"#utility.yul\":2229:2295   */\n  tag_83\n    /* \"#utility.yul\":2245:2294   */\n  tag_84\n    /* \"#utility.yul\":2287:2293   */\n  dup5\n    /* \"#utility.yul\":2245:2294   */\n  tag_30\n  jump\t// in\ntag_84:\n    /* \"#utility.yul\":2229:2295   */\n  tag_29\n  jump\t// in\ntag_83:\n    /* \"#utility.yul\":2220:2295   */\n  swap1\n  pop\n    /* \"#utility.yul\":2318:2324   */\n  dup3\n    /* \"#utility.yul\":2311:2316   */\n  dup2\n    /* \"#utility.yul\":2304:2325   */\n  mstore\n    /* \"#utility.yul\":2356:2360   */\n  0x20\n    /* \"#utility.yul\":2349:2354   */\n  dup2\n    /* \"#utility.yul\":2345:2361   */\n  add\n    /* \"#utility.yul\":2394:2397   */\n  dup5\n    /* \"#utility.yul\":2385:2391   */\n  dup5\n    /* \"#utility.yul\":2380:2383   */\n  dup5\n    /* \"#utility.yul\":2376:2392   */\n  add\n    /* \"#utility.yul\":2373:2398   */\n  gt\n    /* \"#utility.yul\":2370:2482   */\n  iszero\n  tag_85\n  jumpi\n    /* \"#utility.yul\":2401:2480   */\n  tag_86\n  tag_25\n  jump\t// in\ntag_86:\n    /* \"#utility.yul\":2370:2482   */\ntag_85:\n    /* \"#utility.yul\":2491:2543   */\n  tag_87\n    /* \"#utility.yul\":2536:2542   */\n  dup5\n    /* \"#utility.yul\":2531:2534   */\n  dup3\n    /* \"#utility.yul\":2526:2529   */\n  dup6\n    /* \"#utility.yul\":2491:2543   */\n  tag_31\n  jump\t// in\ntag_87:\n    /* \"#utility.yul\":2210:2549   */\n  pop\n    /* \"#utility.yul\":2115:2549   */\n  swap4\n  swap3\n  pop\n  pop\n  pop\n  jump\t// out\n    /* \"#utility.yul\":2569:2924   */\ntag_33:\n    /* \"#utility.yul\":2636:2641   */\n  0x00\n    /* \"#utility.yul\":2685:2688   */\n  dup3\n    /* \"#utility.yul\":2678:2682   */\n  0x1f\n    /* \"#utility.yul\":2670:2676   */\n  dup4\n    /* \"#utility.yul\":2666:2683   */\n  add\n    /* \"#utility.yul\":2662:2689   */\n  slt\n    /* \"#utility.yul\":2652:2774   */\n  tag_89\n  jumpi\n    /* \"#utility.yul\":2693:2772   */\n  tag_90\n  tag_24\n  jump\t// in\ntag_90:\n    /* \"#utility.yul\":2652:2774   */\ntag_89:\n    /* \"#utility.yul\":2803:2809   */\n  dup2\n    /* \"#utility.yul\":2797:2810   */\n  mload\n    /* \"#utility.yul\":2828:2918   */\n  tag_91\n    /* \"#utility.yul\":2914:2917   */\n  dup5\n    /* \"#utility.yul\":2906:2912   */\n  dup3\n    /* \"#utility.yul\":2899:2903   */\n  0x20\n    /* \"#utility.yul\":2891:2897   */\n  dup7\n    /* \"#utility.yul\":2887:2904   */\n  add\n    /* \"#utility.yul\":2828:2918   */\n  tag_32\n  jump\t// in\ntag_91:\n    /* \"#utility.yul\":2819:2918   */\n  swap2\n  pop\n    /* \"#utility.yul\":2642:2924   */\n  pop\n    /* \"#utility.yul\":2569:2924   */\n  swap3\n  swap2\n  pop\n  pop\n  jump\t// out\n    /* \"#utility.yul\":2930:3766   */\ntag_3:\n    /* \"#utility.yul\":3028:3034   */\n  0x00\n    /* \"#utility.yul\":3036:3042   */\n  dup1\n    /* \"#utility.yul\":3044:3050   */\n  0x00\n    /* \"#utility.yul\":3093:3095   */\n  0x60\n    /* \"#utility.yul\":3081:3090   */\n  dup5\n    /* \"#utility.yul\":3072:3079   */\n  dup7\n    /* \"#utility.yul\":3068:3091   */\n  sub\n    /* \"#utility.yul\":3064:3096   */\n  slt\n    /* \"#utility.yul\":3061:3180   */\n  iszero\n  tag_93\n  jumpi\n    /* \"#utility.yul\":3099:3178   */\n  tag_94\n  tag_19\n  jump\t// in\ntag_94:\n    /* \"#utility.yul\":3061:3180   */\ntag_93:\n    /* \"#utility.yul\":3219:3220   */\n  0x00\n    /* \"#utility.yul\":3244:3308   */\n  tag_95\n    /* \"#utility.yul\":3300:3307   */\n  dup7\n    /* \"#utility.yul\":3291:3297   */\n  dup3\n    /* \"#utility.yul\":3280:3289   */\n  dup8\n    /* \"#utility.yul\":3276:3298   */\n  add\n    /* \"#utility.yul\":3244:3308   */\n  tag_23\n  jump\t// in\ntag_95:\n    /* \"#utility.yul\":3234:3308   */\n  swap4\n  pop\n    /* \"#utility.yul\":3190:3318   */\n  pop\n    /* \"#utility.yul\":3357:3359   */\n  0x20\n    /* \"#utility.yul\":3383:3447   */\n  tag_96\n    /* \"#utility.yul\":3439:3446   */\n  dup7\n    /* \"#utility.yul\":3430:3436   */\n  dup3\n    /* \"#utility.yul\":3419:3428   */\n  dup8\n    /* \"#utility.yul\":3415:3437   */\n  add\n    /* \"#utility.yul\":3383:3447   */\n  tag_23\n  jump\t// in\ntag_96:\n    /* \"#utility.yul\":3373:3447   */\n  swap3\n  pop\n    /* \"#utility.yul\":3328:3457   */\n  pop\n    /* \"#utility.yul\":3517:3519   */\n  0x40\n    /* \"#utility.yul\":3506:3515   */\n  dup5\n    /* \"#utility.yul\":3502:3520   */\n  add\n    /* \"#utility.yul\":3496:3521   */\n  mload\n    /* \"#utility.yul\":3548:3566   */\n  0xffffffffffffffff\n    /* \"#utility.yul\":3540:3546   */\n  dup2\n    /* \"#utility.yul\":3537:3567   */\n  gt\n    /* \"#utility.yul\":3534:3651   */\n  iszero\n  tag_97\n  jumpi\n    /* \"#utility.yul\":3570:3649   */\n  tag_98\n  tag_20\n  jump\t// in\ntag_98:\n    /* \"#utility.yul\":3534:3651   */\ntag_97:\n    /* \"#utility.yul\":3675:3749   */\n  tag_99\n    /* \"#utility.yul\":3741:3748   */\n  dup7\n    /* \"#utility.yul\":3732:3738   */\n  dup3\n    /* \"#utility.yul\":3721:3730   */\n  dup8\n    /* \"#utility.yul\":3717:3739   */\n  add\n    /* \"#utility.yul\":3675:3749   */\n  tag_33\n  jump\t// in\ntag_99:\n    /* \"#utility.yul\":3665:3749   */\n  swap2\n  pop\n    /* \"#utility.yul\":3467:3759   */\n  pop\n    /* \"#utility.yul\":2930:3766   */\n  swap3\n  pop\n  swap3\n  pop\n  swap3\n  jump\t// out\n    /* \"#utility.yul\":3772:3871   */\ntag_34:\n    /* \"#utility.yul\":3824:3830   */\n  0x00\n    /* \"#utility.yul\":3858:3863   */\n  dup2\n    /* \"#utility.yul\":3852:3864   */\n  mload\n    /* \"#utility.yul\":3842:3864   */\n  swap1\n  pop\n    /* \"#utility.yul\":3772:3871   */\n  swap2\n  swap1\n  pop\n  jump\t// out\n    /* \"#utility.yul\":3877:4057   */\ntag_35:\n    /* \"#utility.yul\":3925:4002   */\n  0x4e487b7100000000000000000000000000000000000000000000000000000000\n    /* \"#utility.yul\":3922:3923   */\n  0x00\n    /* \"#utility.yul\":3915:4003   */\n  mstore\n    /* \"#utility.yul\":4022:4026   */\n  0x22\n    /* \"#utility.yul\":4019:4020   */\n  0x04\n    /* \"#utility.yul\":4012:4027   */\n  mstore\n    /* \"#utility.yul\":4046:4050   */\n  0x24\n    /* \"#utility.yul\":4043:4044   */\n  0x00\n    /* \"#utility.yul\":4036:4051   */\n  revert\n    /* \"#utility.yul\":4063:4383   */\ntag_36:\n    /* \"#utility.yul\":4107:4113   */\n  0x00\n    /* \"#utility.yul\":4144:4145   */\n  0x02\n    /* \"#utility.yul\":4138:4142   */\n  dup3\n    /* \"#utility.yul\":4134:4146   */\n  div\n    /* \"#utility.yul\":4124:4146   */\n  swap1\n  pop\n    /* \"#utility.yul\":4191:4192   */\n  0x01\n    /* \"#utility.yul\":4185:4189   */\n  dup3\n    /* \"#utility.yul\":4181:4193   */\n  and\n    /* \"#utility.yul\":4212:4230   */\n  dup1\n    /* \"#utility.yul\":4202:4283   */\n  tag_103\n  jumpi\n    /* \"#utility.yul\":4268:4272   */\n  0x7f\n    /* \"#utility.yul\":4260:4266   */\n  dup3\n    /* \"#utility.yul\":4256:4273   */\n  and\n    /* \"#utility.yul\":4246:4273   */\n  swap2\n  pop\n    /* \"#utility.yul\":4202:4283   */\ntag_103:\n    /* \"#utility.yul\":4330:4332   */\n  0x20\n    /* \"#utility.yul\":4322:4328   */\n  dup3\n    /* \"#utility.yul\":4319:4333   */\n  lt\n    /* \"#utility.yul\":4299:4317   */\n  dup2\n    /* \"#utility.yul\":4296:4334   */\n  sub\n    /* \"#utility.yul\":4293:4377   */\n  tag_104\n  jumpi\n    /* \"#utility.yul\":4349:4367   */\n  tag_105\n  tag_35\n  jump\t// in\ntag_105:\n    /* \"#utility.yul\":4293:4377   */\ntag_104:\n    /* \"#utility.yul\":4114:4383   */\n  pop\n    /* \"#utility.yul\":4063:4383   */\n  swap2\n  swap1\n  pop\n  jump\t// out\n    /* \"#utility.yul\":4389:4530   */\ntag_37:\n    /* \"#utility.yul\":4438:4442   */\n  0x00\n    /* \"#utility.yul\":4461:4464   */\n  dup2\n    /* \"#utility.yul\":4453:4464   */\n  swap1\n  pop\n    /* \"#utility.yul\":4484:4487   */\n  dup2\n    /* \"#utility.yul\":4481:4482   */\n  0x00\n    /* \"#utility.yul\":4474:4488   */\n  mstore\n    /* \"#utility.yul\":4518:4522   */\n  0x20\n    /* \"#utility.yul\":4515:4516   */\n  0x00\n    /* \"#utility.yul\":4505:4523   */\n  keccak256\n    /* \"#utility.yul\":4497:4523   */\n  swap1\n  pop\n    /* \"#utility.yul\":4389:4530   */\n  swap2\n  swap1\n  pop\n  jump\t// out\n    /* \"#utility.yul\":4536:4629   */\ntag_38:\n    /* \"#utility.yul\":4573:4579   */\n  0x00\n    /* \"#utility.yul\":4620:4622   */\n  0x20\n    /* \"#utility.yul\":4615:4617   */\n  0x1f\n    /* \"#utility.yul\":4608:4613   */\n  dup4\n    /* \"#utility.yul\":4604:4618   */\n  add\n    /* \"#utility.yul\":4600:4623   */\n  div\n    /* \"#utility.yul\":4590:4623   */\n  swap1\n  pop\n    /* \"#utility.yul\":4536:4629   */\n  swap2\n  swap1\n  pop\n  jump\t// out\n    /* \"#utility.yul\":4635:4742   */\ntag_39:\n    /* \"#utility.yul\":4679:4687   */\n  0x00\n    /* \"#utility.yul\":4729:4734   */\n  dup3\n    /* \"#utility.yul\":4723:4727   */\n  dup3\n    /* \"#utility.yul\":4719:4735   */\n  shl\n    /* \"#utility.yul\":4698:4735   */\n  swap1\n  pop\n    /* \"#utility.yul\":4635:4742   */\n  swap3\n  swap2\n  pop\n  pop\n  jump\t// out\n    /* \"#utility.yul\":4748:5141   */\ntag_40:\n    /* \"#utility.yul\":4817:4823   */\n  0x00\n    /* \"#utility.yul\":4867:4868   */\n  0x08\n    /* \"#utility.yul\":4855:4865   */\n  dup4\n    /* \"#utility.yul\":4851:4869   */\n  mul\n    /* \"#utility.yul\":4890:4987   */\n  tag_110\n    /* \"#utility.yul\":4920:4986   */\n  0xffffffffffffffffffffffffffffffffffffffffffffffffffffffffffffffff\n    /* \"#utility.yul\":4909:4918   */\n  dup3\n    /* \"#utility.yul\":4890:4987   */\n  tag_39\n  jump\t// in\ntag_110:\n    /* \"#utility.yul\":5008:5047   */\n  tag_111\n    /* \"#utility.yul\":5038:5046   */\n  dup7\n    /* \"#utility.yul\":5027:5036   */\n  dup4\n    /* \"#utility.yul\":5008:5047   */\n  tag_39\n  jump\t// in\ntag_111:\n    /* \"#utility.yul\":4996:5047   */\n  swap6\n  pop\n    /* \"#utility.yul\":5080:5084   */\n  dup1\n    /* \"#utility.yul\":5076:5085   */\n  not\n    /* \"#utility.yul\":5069:5074   */\n  dup5\n    /* \"#utility.yul\":5065:5086   */\n  and\n    /* \"#utility.yul\":5056:5086   */\n  swap4\n  pop\n    /* \"#utility.yul\":5129:5133   */\n  dup1\n    /* \"#utility.yul\":5119:5127   */\n  dup7\n    /* \"#utility.yul\":5115:5134   */\n  and\n    /* \"#utility.yul\":5108:5113   */\n  dup5\n    /* \"#utility.yul\":5105:5135   */\n  or\n    /* \"#utility.yul\":5095:5135   */\n  swap3\n  pop\n    /* \"#utility.yul\":4824:5141   */\n  pop\n  pop\n    /* \"#utility.yul\":4748:5141   */\n  swap4\n  swap3\n  pop\n  pop\n  pop\n  jump\t// out\n    /* \"#utility.yul\":5147:5207   */\ntag_41:\n    /* \"#utility.yul\":5175:5178   */\n  0x00\n    /* \"#utility.yul\":5196:5201   */\n  dup2\n    /* \"#utility.yul\":5189:5201   */\n  swap1\n  pop\n    /* \"#utility.yul\":5147:5207   */\n  swap2\n  swap1\n  pop\n  jump\t// out\n    /* \"#utility.yul\":5213:5355   */\ntag_42:\n    /* \"#utility.yul\":5263:5272   */\n  0x00\n    /* \"#utility.yul\":5296:5349   */\n  tag_114\n    /* \"#utility.yul\":5314:5348   */\n  tag_115\n    /* \"#utility.yul\":5323:5347   */\n  tag_116\n    /* \"#utility.yul\":5341:5346   */\n  dup5\n    /* \"#utility.yul\":5323:5347   */\n  tag_21\n  jump\t// in\ntag_116:\n    /* \"#utility.yul\":5314:5348   */\n  tag_41\n  jump\t// in\ntag_115:\n    /* \"#utility.yul\":5296:5349   */\n  tag_21\n  jump\t// in\ntag_114:\n    /* \"#utility.yul\":5283:5349   */\n  swap1\n  pop\n    /* \"#utility.yul\":5213:5355   */\n  swap2\n  swap1\n  pop\n  jump\t// out\n    /* \"#utility.yul\":5361:5436   */\ntag_43:\n    /* \"#utility.yul\":5404:5407   */\n  0x00\n    /* \"#utility.yul\":5425:5430   */\n  dup2\n    /* \"#utility.yul\":5418:5430   */\n  swap1\n  pop\n    /* \"#utility.yul\":5361:5436   */\n  swap2\n  swap1\n  pop\n  jump\t// out\n    /* \"#utility.yul\":5442:5711   */\ntag_44:\n    /* \"#utility.yul\":5552:5591   */\n  tag_119\n    /* \"#utility.yul\":5583:5590   */\n  dup4\n    /* \"#utility.yul\":5552:5591   */\n  tag_42\n  jump\t// in\ntag_119:\n    /* \"#utility.yul\":5613:5704   */\n  tag_120\n    /* \"#utility.yul\":5662:5703   */\n  tag_121\n    /* \"#utility.yul\":5686:5702   */\n  dup3\n    /* \"#utility.yul\":5662:5703   */\n  tag_43\n  jump\t// in\ntag_121:\n    /* \"#utility.yul\":5654:5660   */\n  dup5\n    /* \"#utility.yul\":5647:5651   */\n  dup5\n    /* \"#utility.yul\":5641:5652   */\n  sload\n    /* \"#utility.yul\":5613:5704   */\n  tag_40\n  jump\t// in\ntag_120:\n    /* \"#utility.yul\":5607:5611   */\n  dup3\n    /* \"#utility.yul\":5600:5705   */\n  sstore\n    /* \"#utility.yul\":5518:5711   */\n  pop\n    /* \"#utility.yul\":5442:5711   */\n  pop\n  pop\n  pop\n  jump\t// out\n    /* \"#utility.yul\":5717:5790   */\ntag_45:\n    /* \"#utility.yul\":5762:5765   */\n  0x00\n    /* \"#utility.yul\":5717:5790   */\n  swap1\n  jump\t// out\n    /* \"#utility.yul\":5796:5985   */\ntag_46:\n    /* \"#utility.yul\":5873:5905   */\n  tag_124\n  tag_45\n  jump\t// in\ntag_124:\n    /* \"#utility.yul\":5914:5979   */\n  tag_125\n    /* \"#utility.yul\":5972:5978   */\n  dup2\n    /* \"#utility.yul\":5964:5970   */\n  dup5\n    /* \"#utility.yul\":5958:5962   */\n  dup5\n    /* \"#utility.yul\":5914:5979   */\n  tag_44\n  jump\t// in\ntag_125:\n    /* \"#utility.yul\":5849:5985   */\n  pop\n    /* \"#utility.yul\":5796:5985   */\n  pop\n  pop\n  jump\t// out\n    /* \"#utility.yul\":5991:6177   */\ntag_47:\n    /* \"#utility.yul\":6051:6171   */\ntag_127:\n    /* \"#utility.yul\":6068:6071   */\n  dup2\n    /* \"#utility.yul\":6061:6066   */\n  dup2\n    /* \"#utility.yul\":6058:6072   */\n  lt\n    /* \"#utility.yul\":6051:6171   */\n  iszero\n  tag_129\n  jumpi\n    /* \"#utility.yul\":6122:6161   */\n  tag_130\n    /* \"#utility.yul\":6159:6160   */\n  0x00\n    /* \"#utility.yul\":6152:6157   */\n  dup3\n    /* \"#utility.yul\":6122:6161   */\n  tag_46\n  jump\t// in\ntag_130:\n    /* \"#utility.yul\":6095:6096   */\n  0x01\n    /* \"#utility.yul\":6088:6093   */\n  dup2\n    /* \"#utility.yul\":6084:6097   */\n  add\n    /* \"#utility.yul\":6075:6097   */\n  swap1\n  pop\n    /* \"#utility.yul\":6051:6171   */\n  jump(tag_127)\ntag_129:\n    /* \"#utility.yul\":5991:6177   */\n  pop\n  pop\n  jump\t// out\n    /* \"#utility.yul\":6183:6726   */\ntag_48:\n    /* \"#utility.yul\":6284:6286   */\n  0x1f\n    /* \"#utility.yul\":6279:6282   */\n  dup3\n    /* \"#utility.yul\":6276:6287   */\n  gt\n    /* \"#utility.yul\":6273:6719   */\n  iszero\n  tag_132\n  jumpi\n    /* \"#utility.yul\":6318:6356   */\n  tag_133\n    /* \"#utility.yul\":6350:6355   */\n  dup2\n    /* \"#utility.yul\":6318:6356   */\n  tag_37\n  jump\t// in\ntag_133:\n    /* \"#utility.yul\":6402:6431   */\n  tag_134\n    /* \"#utility.yul\":6420:6430   */\n  dup5\n    /* \"#utility.yul\":6402:6431   */\n  tag_38\n  jump\t// in\ntag_134:\n    /* \"#utility.yul\":6392:6400   */\n  dup2\n    /* \"#utility.yul\":6388:6432   */\n  add\n    /* \"#utility.yul\":6585:6587   */\n  0x20\n    /* \"#utility.yul\":6573:6583   */\n  dup6\n    /* \"#utility.yul\":6570:6588   */\n  lt\n    /* \"#utility.yul\":6567:6616   */\n  iszero\n  tag_135\n  jumpi\n    /* \"#utility.yul\":6606:6614   */\n  dup2\n    /* \"#utility.yul\":6591:6614   */\n  swap1\n  pop\n    /* \"#utility.yul\":6567:6616   */\ntag_135:\n    /* \"#utility.yul\":6629:6709   */\n  tag_136\n    /* \"#utility.yul\":6685:6707   */\n  tag_137\n    /* \"#utility.yul\":6703:6706   */\n  dup6\n    /* \"#utility.yul\":6685:6707   */\n  tag_38\n  jump\t// in\ntag_137:\n    /* \"#utility.yul\":6675:6683   */\n  dup4\n    /* \"#utility.yul\":6671:6708   */\n  add\n    /* \"#utility.yul\":6658:6669   */\n  dup3\n    /* \"#utility.yul\":6629:6709   */\n  tag_47\n  jump\t// in\ntag_136:\n    /* \"#utility.yul\":6288:6719   */\n  pop\n  pop\n    /* \"#utility.yul\":6273:6719   */\ntag_132:\n    /* \"#utility.yul\":6183:6726   */\n  pop\n  pop\n  pop\n  jump\t// out\n    /* \"#utility.yul\":6732:6849   */\ntag_49:\n    /* \"#utility.yul\":6786:6794   */\n  0x00\n    /* \"#utility.yul\":6836:6841   */\n  dup3\n    /* \"#utility.yul\":6830:6834   */\n  dup3\n    /* \"#utility.yul\":6826:6842   */\n  shr\n    /* \"#utility.yul\":6805:6842   */\n  swap1\n  pop\n    /* \"#utility.yul\":6732:6849   */\n  swap3\n  swap2\n  pop\n  pop\n  jump\t// out\n    /* \"#utility.yul\":6855:7024   */\ntag_50:\n    /* \"#utility.yul\":6899:6905   */\n  0x00\n    /* \"#utility.yul\":6932:6983   */\n  tag_140\n    /* \"#utility.yul\":6980:6981   */\n  0x00\n    /* \"#utility.yul\":6976:6982   */\n  not\n    /* \"#utility.yul\":6968:6973   */\n  dup5\n    /* \"#utility.yul\":6965:6966   */\n  0x08\n    /* \"#utility.yul\":6961:6974   */\n  mul\n    /* \"#utility.yul\":6932:6983   */\n  tag_49\n  jump\t// in\ntag_140:\n    /* \"#utility.yul\":6928:6984   */\n  not\n    /* \"#utility.yul\":7013:7017   */\n  dup1\n    /* \"#utility.yul\":7007:7011   */\n  dup4\n    /* \"#utility.yul\":7003:7018   */\n  and\n    /* \"#utility.yul\":6993:7018   */\n  swap2\n  pop\n    /* \"#utility.yul\":6906:7024   */\n  pop\n    /* \"#utility.yul\":6855:7024   */\n  swap3\n  swap2\n  pop\n  pop\n  jump\t// out\n    /* \"#utility.yul\":7029:7324   */\ntag_51:\n    /* \"#utility.yul\":7105:7109   */\n  0x00\n    /* \"#utility.yul\":7251:7280   */\n  tag_142\n    /* \"#utility.yul\":7276:7279   */\n  dup4\n    /* \"#utility.yul\":7270:7274   */\n  dup4\n    /* \"#utility.yul\":7251:7280   */\n  tag_50\n  jump\t// in\ntag_142:\n    /* \"#utility.yul\":7243:7280   */\n  swap2\n  pop\n    /* \"#utility.yul\":7313:7316   */\n  dup3\n    /* \"#utility.yul\":7310:7311   */\n  0x02\n    /* \"#utility.yul\":7306:7317   */\n  mul\n    /* \"#utility.yul\":7300:7304   */\n  dup3\n    /* \"#utility.yul\":7297:7318   */\n  or\n    /* \"#utility.yul\":7289:7318   */\n  swap1\n  pop\n    /* \"#utility.yul\":7029:7324   */\n  swap3\n  swap2\n  pop\n  pop\n  jump\t// out\n    /* \"#utility.yul\":7329:8724   */\ntag_7:\n    /* \"#utility.yul\":7446:7483   */\n  tag_144\n    /* \"#utility.yul\":7479:7482   */\n  dup3\n    /* \"#utility.yul\":7446:7483   */\n  tag_34\n  jump\t// in\ntag_144:\n    /* \"#utility.yul\":7548:7566   */\n  0xffffffffffffffff\n    /* \"#utility.yul\":7540:7546   */\n  dup2\n    /* \"#utility.yul\":7537:7567   */\n  gt\n    /* \"#utility.yul\":7534:7590   */\n  iszero\n  tag_145\n  jumpi\n    /* \"#utility.yul\":7570:7588   */\n  tag_146\n  tag_27\n  jump\t// in\ntag_146:\n    /* \"#utility.yul\":7534:7590   */\ntag_145:\n    /* \"#utility.yul\":7614:7652   */\n  tag_147\n    /* \"#utility.yul\":7646:7650   */\n  dup3\n    /* \"#utility.yul\":7640:7651   */\n  sload\n    /* \"#utility.yul\":7614:7652   */\n  tag_36\n  jump\t// in\ntag_147:\n    /* \"#utility.yul\":7699:7766   */\n  tag_148\n    /* \"#utility.yul\":7759:7765   */\n  dup3\n    /* \"#utility.yul\":7751:7757   */\n  dup3\n    /* \"#utility.yul\":7745:7749   */\n  dup6\n    /* \"#utility.yul\":7699:7766   */\n  tag_48\n  jump\t// in\ntag_148:\n    /* \"#utility.yul\":7793:7794   */\n  0x00\n    /* \"#utility.yul\":7817:7821   */\n  0x20\n    /* \"#utility.yul\":7804:7821   */\n  swap1\n  pop\n    /* \"#utility.yul\":7849:7851   */\n  0x1f\n    /* \"#utility.yul\":7841:7847   */\n  dup4\n    /* \"#utility.yul\":7838:7852   */\n  gt\n    /* \"#utility.yul\":7866:7867   */\n  0x01\n    /* \"#utility.yul\":7861:8479   */\n  dup2\n  eq\n  tag_150\n  jumpi\n    /* \"#utility.yul\":8523:8524   */\n  0x00\n    /* \"#utility.yul\":8540:8546   */\n  dup5\n    /* \"#utility.yul\":8537:8614   */\n  iszero\n  tag_151\n  jumpi\n    /* \"#utility.yul\":8589:8598   */\n  dup3\n    /* \"#utility.yul\":8584:8587   */\n  dup8\n    /* \"#utility.yul\":8580:8599   */\n  add\n    /* \"#utility.yul\":8574:8600   */\n  mload\n    /* \"#utility.yul\":8565:8600   */\n  swap1\n  pop\n    /* \"#utility.yul\":8537:8614   */\ntag_151:\n    /* \"#utility.yul\":8640:8707   */\n  tag_152\n    /* \"#utility.yul\":8700:8706   */\n  dup6\n    /* \"#utility.yul\":8693:8698   */\n  dup3\n    /* \"#utility.yul\":8640:8707   */\n  tag_51\n  jump\t// in\ntag_152:\n    /* \"#utility.yul\":8634:8638   */\n  dup7\n    /* \"#utility.yul\":8627:8708   */\n  sstore\n    /* \"#utility.yul\":8496:8718   */\n  pop\n    /* \"#utility.yul\":7831:8718   */\n  jump(tag_149)\n    /* \"#utility.yul\":7861:8479   */\ntag_150:\n    /* \"#utility.yul\":7913:7917   */\n  0x1f\n    /* \"#utility.yul\":7909:7918   */\n  not\n    /* \"#utility.yul\":7901:7907   */\n  dup5\n    /* \"#utility.yul\":7897:7919   */\n  and\n    /* \"#utility.yul\":7947:7984   */\n  tag_153\n    /* \"#utility.yul\":7979:7983   */\n  dup7\n    /* \"#utility.yul\":7947:7984   */\n  tag_37\n  jump\t// in\ntag_153:\n    /* \"#utility.yul\":8006:8007   */\n  0x00\n    /* \"#utility.yul\":8020:8228   */\ntag_154:\n    /* \"#utility.yul\":8034:8041   */\n  dup3\n    /* \"#utility.yul\":8031:8032   */\n  dup2\n    /* \"#utility.yul\":8028:8042   */\n  lt\n    /* \"#utility.yul\":8020:8228   */\n  iszero\n  tag_156\n  jumpi\n    /* \"#utility.yul\":8113:8122   */\n  dup5\n    /* \"#utility.yul\":8108:8111   */\n  dup10\n    /* \"#utility.yul\":8104:8123   */\n  add\n    /* \"#utility.yul\":8098:8124   */\n  mload\n    /* \"#utility.yul\":8090:8096   */\n  dup3\n    /* \"#utility.yul\":8083:8125   */\n  sstore\n    /* \"#utility.yul\":8164:8165   */\n  0x01\n    /* \"#utility.yul\":8156:8162   */\n  dup3\n    /* \"#utility.yul\":8152:8166   */\n  add\n    /* \"#utility.yul\":8142:8166   */\n  swap2\n  pop\n    /* \"#utility.yul\":8211:8213   */\n  0x20\n    /* \"#utility.yul\":8200:8209   */\n  dup6\n    /* \"#utility.yul\":8196:8214   */\n  add\n    /* \"#utility.yul\":8183:8214   */\n  swap5\n  pop\n    /* \"#utility.yul\":8057:8061   */\n  0x20\n    /* \"#utility.yul\":8054:8055   */\n  dup2\n    /* \"#utility.yul\":8050:8062   */\n  add\n    /* \"#utility.yul\":8045:8062   */\n  swap1\n  pop\n    /* \"#utility.yul\":8020:8228   */\n  jump(tag_154)\ntag_156:\n    /* \"#utility.yul\":8256:8262   */\n  dup7\n    /* \"#utility.yul\":8247:8254   */\n  dup4\n    /* \"#utility.yul\":8244:8263   */\n  lt\n    /* \"#utility.yul\":8241:8420   */\n  iszero\n  tag_157\n  jumpi\n    /* \"#utility.yul\":8314:8323   */\n  dup5\n    /* \"#utility.yul\":8309:8312   */\n  dup10\n    /* \"#utility.yul\":8305:8324   */\n  add\n    /* \"#utility.yul\":8299:8325   */\n  mload\n    /* \"#utility.yul\":8357:8405   */\n  tag_158\n    /* \"#utility.yul\":8399:8403   */\n  0x1f\n    /* \"#utility.yul\":8391:8397   */\n  dup10\n    /* \"#utility.yul\":8387:8404   */\n  and\n    /* \"#utility.yul\":8376:8385   */\n  dup3\n    /* \"#utility.yul\":8357:8405   */\n  tag_50\n  jump\t// in\ntag_158:\n    /* \"#utility.yul\":8349:8355   */\n  dup4\n    /* \"#utility.yul\":8342:8406   */\n  sstore\n    /* \"#utility.yul\":8264:8420   */\n  pop\n    /* \"#utility.yul\":8241:8420   */\ntag_157:\n    /* \"#utility.yul\":8466:8467   */\n  0x01\n    /* \"#utility.yul\":8462:8463   */\n  0x02\n    /* \"#utility.yul\":8454:8460   */\n  dup9\n    /* \"#utility.yul\":8450:8464   */\n  mul\n    /* \"#utility.yul\":8446:8468   */\n  add\n    /* \"#utility.yul\":8440:8444   */\n  dup9\n    /* \"#utility.yul\":8433:8469   */\n  sstore\n    /* \"#utility.yul\":7868:8479   */\n  pop\n  pop\n  pop\n    /* \"#utility.yul\":7831:8718   */\ntag_149:\n  pop\n    /* \"#utility.yul\":7421:8724   */\n  pop\n  pop\n  pop\n    /* \"#utility.yul\":7329:8724   */\n  pop\n  pop\n  jump\t// out\n    /* \"#utility.yul\":8730:8910   */\ntag_52:\n    /* \"#utility.yul\":8778:8855   */\n  0x4e487b7100000000000000000000000000000000000000000000000000000000\n    /* \"#utility.yul\":8775:8776   */\n  0x00\n    /* \"#utility.yul\":8768:8856   */\n  mstore\n    /* \"#utility.yul\":8875:8879   */\n  0x11\n    /* \"#utility.yul\":8872:8873   */\n  0x04\n    /* \"#utility.yul\":8865:8880   */\n  mstore\n    /* \"#utility.yul\":8899:8903   */\n  0x24\n    /* \"#utility.yul\":8896:8897   */\n  0x00\n    /* \"#utility.yul\":8889:8904   */\n  revert\n    /* \"#utility.yul\":8916:9107   */\ntag_9:\n    /* \"#utility.yul\":8956:8959   */\n  0x00\n    /* \"#utility.yul\":8975:8995   */\n  tag_161\n    /* \"#utility.yul\":8993:8994   */\n  dup3\n    /* \"#utility.yul\":8975:8995   */\n  tag_21\n  jump\t// in\ntag_161:\n    /* \"#utility.yul\":8970:8995   */\n  swap2\n  pop\n    /* \"#utility.yul\":9009:9029   */\n  tag_162\n    /* \"#utility.yul\":9027:9028   */\n  dup4\n    /* \"#utility.yul\":9009:9029   */\n  tag_21\n  jump\t// in\ntag_162:\n    /* \"#utility.yul\":9004:9029   */\n  swap3\n  pop\n    /* \"#utility.yul\":9052:9053   */\n  dup3\n    /* \"#utility.yul\":9049:9050   */\n  dup3\n    /* \"#utility.yul\":9045:9054   */\n  add\n    /* \"#utility.yul\":9038:9054   */\n  swap1\n  pop\n    /* \"#utility.yul\":9073:9076   */\n  dup1\n    /* \"#utility.yul\":9070:9071   */\n  dup3\n    /* \"#utility.yul\":9067:9077   */\n  gt\n    /* \"#utility.yul\":9064:9100   */\n  iszero\n  tag_163\n  jumpi\n    /* \"#utility.yul\":9080:9098   */\n  tag_164\n  tag_52\n  jump\t// in\ntag_164:\n    /* \"#utility.yul\":9064:9100   */\ntag_163:\n    /* \"#utility.yul\":8916:9107   */\n  swap3\n  swap2\n  pop\n  pop\n  jump\t// out\n    /* \"#utility.yul\":9113:9293   */\ntag_12:\n    /* \"#utility.yul\":9161:9238   */\n  0x4e487b7100000000000000000000000000000000000000000000000000000000\n    /* \"#utility.yul\":9158:9159   */\n  0x00\n    /* \"#utility.yul\":9151:9239   */\n  mstore\n    /* \"#utility.yul\":9258:9262   */\n  0x21\n    /* \"#utility.yul\":9255:9256   */\n  0x04\n    /* \"#utility.yul\":9248:9263   */\n  mstore\n    /* \"#utility.yul\":9282:9286   */\n  0x24\n    /* \"#utility.yul\":9279:9280   */\n  0x00\n    /* \"#utility.yul\":9272:9287   */\n  revert\n    /* \"#utility.yul\":9299:9447   */\ntag_53:\n    /* \"#utility.yul\":9401:9412   */\n  0x00\n    /* \"#utility.yul\":9438:9441   */\n  dup2\n    /* \"#utility.yul\":9423:9441   */\n  swap1\n  pop\n    /* \"#utility.yul\":9299:9447   */\n  swap3\n  swap2\n  pop\n  pop\n  jump\t// out\n    /* \"#utility.yul\":9477:10351   */\ntag_54:\n    /* \"#utility.yul\":9580:9583   */\n  0x00\n    /* \"#utility.yul\":9617:9622   */\n  dup2\n    /* \"#utility.yul\":9611:9623   */\n  sload\n    /* \"#utility.yul\":9646:9682   */\n  tag_168\n    /* \"#utility.yul\":9672:9681   */\n  dup2\n    /* \"#utility.yul\":9646:9682   */\n  tag_36\n  jump\t// in\ntag_168:\n    /* \"#utility.yul\":9698:9787   */\n  tag_169\n    /* \"#utility.yul\":9780:9786   */\n  dup2\n    /* \"#utility.yul\":9775:9778   */\n  dup7\n    /* \"#utility.yul\":9698:9787   */\n  tag_53\n  jump\t// in\ntag_169:\n    /* \"#utility.yul\":9691:9787   */\n  swap5\n  pop\n    /* \"#utility.yul\":9818:9819   */\n  0x01\n    /* \"#utility.yul\":9807:9816   */\n  dup3\n    /* \"#utility.yul\":9803:9820   */\n  and\n    /* \"#utility.yul\":9834:9835   */\n  0x00\n    /* \"#utility.yul\":9829:9995   */\n  dup2\n  eq\n  tag_171\n  jumpi\n    /* \"#utility.yul\":10009:10010   */\n  0x01\n    /* \"#utility.yul\":10004:10345   */\n  dup2\n  eq\n  tag_172\n  jumpi\n    /* \"#utility.yul\":9796:10345   */\n  jump(tag_170)\n    /* \"#utility.yul\":9829:9995   */\ntag_171:\n    /* \"#utility.yul\":9913:9917   */\n  0xff\n    /* \"#utility.yul\":9909:9918   */\n  not\n    /* \"#utility.yul\":9898:9907   */\n  dup4\n    /* \"#utility.yul\":9894:9919   */\n  and\n    /* \"#utility.yul\":9889:9892   */\n  dup7\n    /* \"#utility.yul\":9882:9920   */\n  mstore\n    /* \"#utility.yul\":9975:9981   */\n  dup2\n    /* \"#utility.yul\":9968:9982   */\n  iszero\n    /* \"#utility.yul\":9961:9983   */\n  iszero\n    /* \"#utility.yul\":9953:9959   */\n  dup3\n    /* \"#utility.yul\":9949:9984   */\n  mul\n    /* \"#utility.yul\":9944:9947   */\n  dup7\n    /* \"#utility.yul\":9940:9985   */\n  add\n    /* \"#utility.yul\":9933:9985   */\n  swap4\n  pop\n    /* \"#utility.yul\":9829:9995   */\n  jump(tag_170)\n    /* \"#utility.yul\":10004:10345   */\ntag_172:\n    /* \"#utility.yul\":10071:10109   */\n  tag_173\n    /* \"#utility.yul\":10103:10108   */\n  dup6\n    /* \"#utility.yul\":10071:10109   */\n  tag_37\n  jump\t// in\ntag_173:\n    /* \"#utility.yul\":10131:10132   */\n  0x00\n    /* \"#utility.yul\":10145:10299   */\ntag_174:\n    /* \"#utility.yul\":10159:10165   */\n  dup4\n    /* \"#utility.yul\":10156:10157   */\n  dup2\n    /* \"#utility.yul\":10153:10166   */\n  lt\n    /* \"#utility.yul\":10145:10299   */\n  iszero\n  tag_176\n  jumpi\n    /* \"#utility.yul\":10233:10240   */\n  dup2\n    /* \"#utility.yul\":10227:10241   */\n  sload\n    /* \"#utility.yul\":10223:10224   */\n  dup2\n    /* \"#utility.yul\":10218:10221   */\n  dup10\n    /* \"#utility.yul\":10214:10225   */\n  add\n    /* \"#utility.yul\":10207:10242   */\n  mstore\n    /* \"#utility.yul\":10283:10284   */\n  0x01\n    /* \"#utility.yul\":10274:10281   */\n  dup3\n    /* \"#utility.yul\":10270:10285   */\n  add\n    /* \"#utility.yul\":10259:10285   */\n  swap2\n  pop\n    /* \"#utility.yul\":10181:10185   */\n  0x20\n    /* \"#utility.yul\":10178:10179   */\n  dup2\n    /* \"#utility.yul\":10174:10186   */\n  add\n    /* \"#utility.yul\":10169:10186   */\n  swap1\n  pop\n    /* \"#utility.yul\":10145:10299   */\n  jump(tag_174)\ntag_176:\n    /* \"#utility.yul\":10328:10334   */\n  dup4\n    /* \"#utility.yul\":10323:10326   */\n  dup9\n    /* \"#utility.yul\":10319:10335   */\n  add\n    /* \"#utility.yul\":10312:10335   */\n  swap6\n  pop\n    /* \"#utility.yul\":10011:10345   */\n  pop\n  pop\n    /* \"#utility.yul\":9796:10345   */\ntag_170:\n  pop\n    /* \"#utility.yul\":9584:10351   */\n  pop\n  pop\n    /* \"#utility.yul\":9477:10351   */\n  swap3\n  swap2\n  pop\n  pop\n  jump\t// out\n    /* \"#utility.yul\":10357:10626   */\ntag_14:\n    /* \"#utility.yul\":10486:10489   */\n  0x00\n    /* \"#utility.yul\":10508:10600   */\n  tag_178\n    /* \"#utility.yul\":10596:10599   */\n  dup3\n    /* \"#utility.yul\":10587:10593   */\n  dup5\n    /* \"#utility.yul\":10508:10600   */\n  tag_54\n  jump\t// in\ntag_178:\n    /* \"#utility.yul\":10501:10600   */\n  swap2\n  pop\n    /* \"#utility.yul\":10617:10620   */\n  dup2\n    /* \"#utility.yul\":10610:10620   */\n  swap1\n  pop\n    /* \"#utility.yul\":10357:10626   */\n  swap3\n  swap2\n  pop\n  pop\n  jump\t// out\n    /* \"#utility.yul\":10632:10750   */\ntag_55:\n    /* \"#utility.yul\":10719:10743   */\n  tag_180\n    /* \"#utility.yul\":10737:10742   */\n  dup2\n    /* \"#utility.yul\":10719:10743   */\n  tag_21\n  jump\t// in\ntag_180:\n    /* \"#utility.yul\":10714:10717   */\n  dup3\n    /* \"#utility.yul\":10707:10744   */\n  mstore\n    /* \"#utility.yul\":10632:10750   */\n  pop\n  pop\n  jump\t// out\n    /* \"#utility.yul\":10756:10978   */\ntag_16:\n    /* \"#utility.yul\":10849:10853   */\n  0x00\n    /* \"#utility.yul\":10887:10889   */\n  0x20\n    /* \"#utility.yul\":10876:10885   */\n  dup3\n    /* \"#utility.yul\":10872:10890   */\n  add\n    /* \"#utility.yul\":10864:10890   */\n  swap1\n  pop\n    /* \"#utility.yul\":10900:10971   */\n  tag_182\n    /* \"#utility.yul\":10968:10969   */\n  0x00\n    /* \"#utility.yul\":10957:10966   */\n  dup4\n    /* \"#utility.yul\":10953:10970   */\n  add\n    /* \"#utility.yul\":10944:10950   */\n  dup5\n    /* \"#utility.yul\":10900:10971   */\n  tag_55\n  jump\t// in\ntag_182:\n    /* \"#utility.yul\":10756:10978   */\n  swap3\n  swap2\n  pop\n  pop\n  jump\t// out\n    /* \"tp2/auction.sol\":58:4320  contract Auction {... */\ntag_17:\n  dataSize(sub_0)\n  dup1\n  dataOffset(sub_0)\n  0x00\n  codecopy\n  0x00\n  return\nstop\n\nsub_0: assembly {\n        /* \"tp2/auction.sol\":58:4320  contract Auction {... */\n      mstore(0x40, 0x80)\n      jumpi(tag_1, lt(calldatasize, 0x04))\n      shr(0xe0, calldataload(0x00))\n      dup1\n      0x14d2687c\n      eq\n      tag_2\n      jumpi\n      dup1\n      0x1998aeef\n      eq\n      tag_3\n      jumpi\n      dup1\n      0x43d726d6\n      eq\n      tag_4\n      jumpi\n      dup1\n      0xb7e03264\n      eq\n      tag_5\n      jumpi\n      dup1\n      0xd4e93292\n      eq\n      tag_6\n      jumpi\n    tag_1:\n      0x00\n      dup1\n      revert\n        /* \"tp2/auction.sol\":3538:3811  function showBids() external view atStage(Stage.TakingBid) returns (Bid [] memory){... */\n    tag_2:\n      callvalue\n      dup1\n      iszero\n      tag_7\n      jumpi\n      0x00\n      dup1\n      revert\n    tag_7:\n      pop\n      tag_8\n      tag_9\n      jump\t// in\n    tag_8:\n      mload(0x40)\n      tag_10\n      swap2\n      swap1\n      tag_11\n      jump\t// in\n    tag_10:\n      mload(0x40)\n      dup1\n      swap2\n      sub\n      swap1\n      return\n        /* \"tp2/auction.sol\":1160:1975  function bid() external payable timedTransitions atStage(Stage.TakingBid)  {... */\n    tag_3:\n      tag_12\n      tag_13\n      jump\t// in\n    tag_12:\n      stop\n        /* \"tp2/auction.sol\":2622:3374  function close() external only(Rol.Admin) atStage(Stage.Finished) {... */\n    tag_4:\n      callvalue\n      dup1\n      iszero\n      tag_14\n      jumpi\n      0x00\n      dup1\n      revert\n    tag_14:\n      pop\n      tag_15\n      tag_16\n      jump\t// in\n    tag_15:\n      stop\n        /* \"tp2/auction.sol\":3380:3532  function showWinner() external atStage(Stage.Finished) view returns (address winner, uint amount){... */\n    tag_5:\n      callvalue\n      dup1\n      iszero\n      tag_17\n      jumpi\n      0x00\n      dup1\n      revert\n    tag_17:\n      pop\n      tag_18\n      tag_19\n      jump\t// in\n    tag_18:\n      mload(0x40)\n      tag_20\n      swap3\n      swap2\n      swap1\n      tag_21\n      jump\t// in\n    tag_20:\n      mload(0x40)\n      dup1\n      swap2\n      sub\n      swap1\n      return\n        /* \"tp2/auction.sol\":1981:2367  function withdrawal() external timedTransitions only(Rol.Bidder) atStage(Stage.TakingBid)  {... */\n    tag_6:\n      callvalue\n      dup1\n      iszero\n      tag_22\n      jumpi\n      0x00\n      dup1\n      revert\n    tag_22:\n      pop\n      tag_23\n      tag_24\n      jump\t// in\n    tag_23:\n      stop\n        /* \"tp2/auction.sol\":3538:3811  function showBids() external view atStage(Stage.TakingBid) returns (Bid [] memory){... */\n    tag_9:\n        /* \"tp2/auction.sol\":3606:3619  Bid [] memory */\n      0x60\n        /* \"tp2/auction.sol\":3580:3595  Stage.TakingBid */\n      0x00\n        /* \"tp2/auction.sol\":4249:4255  _stage */\n      dup1\n        /* \"tp2/auction.sol\":4240:4255  stage != _stage */\n      0x01\n      dup2\n      gt\n      iszero\n      tag_26\n      jumpi\n      tag_27\n      tag_28\n      jump\t// in\n    tag_27:\n    tag_26:\n        /* \"tp2/auction.sol\":4240:4245  stage */\n      0x01\n      0x00\n      swap1\n      sload\n      swap1\n      0x0100\n      exp\n      swap1\n      div\n      0xff\n      and\n        /* \"tp2/auction.sol\":4240:4255  stage != _stage */\n      0x01\n      dup2\n      gt\n      iszero\n      tag_29\n      jumpi\n      tag_30\n      tag_28\n      jump\t// in\n    tag_30:\n    tag_29:\n      eq\n        /* \"tp2/auction.sol\":4236:4300  if (stage != _stage)... */\n      tag_31\n      jumpi\n        /* \"tp2/auction.sol\":4294:4299  stage */\n      0x01\n      0x00\n      swap1\n      sload\n      swap1\n      0x0100\n      exp\n      swap1\n      div\n      0xff\n      and\n        /* \"tp2/auction.sol\":4276:4300  NotAllowedAtStage(stage) */\n      mload(0x40)\n      0xf1c25c2000000000000000000000000000000000000000000000000000000000\n      dup2\n      mstore\n      0x04\n      add\n      tag_32\n      swap2\n      swap1\n      tag_33\n      jump\t// in\n    tag_32:\n      mload(0x40)\n      dup1\n      swap2\n      sub\n      swap1\n      revert\n        /* \"tp2/auction.sol\":4236:4300  if (stage != _stage)... */\n    tag_31:\n        /* \"tp2/auction.sol\":3630:3648  Bid [] memory bids */\n      0x00\n        /* \"tp2/auction.sol\":3664:3671  bidders */\n      0x09\n        /* \"tp2/auction.sol\":3664:3678  bidders.length */\n      dup1\n      sload\n      swap1\n      pop\n        /* \"tp2/auction.sol\":3653:3679  new Bid [](bidders.length) */\n      0xffffffffffffffff\n      dup2\n      gt\n      iszero\n      tag_35\n      jumpi\n      tag_36\n      tag_37\n      jump\t// in\n    tag_36:\n    tag_35:\n      mload(0x40)\n      swap1\n      dup1\n      dup3\n      mstore\n      dup1\n      0x20\n      mul\n      0x20\n      add\n      dup3\n      add\n      0x40\n      mstore\n      dup1\n      iszero\n      tag_38\n      jumpi\n      dup2\n      0x20\n      add\n    tag_39:\n      tag_40\n      tag_41\n      jump\t// in\n    tag_40:\n      dup2\n      mstore\n      0x20\n      add\n      swap1\n      0x01\n      swap1\n      sub\n      swap1\n      dup2\n      tag_39\n      jumpi\n      swap1\n      pop\n    tag_38:\n      pop\n        /* \"tp2/auction.sol\":3630:3679  Bid [] memory bids   = new Bid [](bidders.length) */\n      swap1\n      pop\n        /* \"tp2/auction.sol\":3693:3699  uint i */\n      0x00\n        /* \"tp2/auction.sol\":3689:3784  for(uint i = 0; i < bidders.length; i++){... */\n    tag_42:\n        /* \"tp2/auction.sol\":3709:3716  bidders */\n      0x09\n        /* \"tp2/auction.sol\":3709:3723  bidders.length */\n      dup1\n      sload\n      swap1\n      pop\n        /* \"tp2/auction.sol\":3705:3706  i */\n      dup2\n        /* \"tp2/auction.sol\":3705:3723  i < bidders.length */\n      lt\n        /* \"tp2/auction.sol\":3689:3784  for(uint i = 0; i < bidders.length; i++){... */\n      iszero\n      tag_43\n      jumpi\n        /* \"tp2/auction.sol\":3753:3761  balances */\n      0x0a\n        /* \"tp2/auction.sol\":3753:3773  balances[bidders[i]] */\n      0x00\n        /* \"tp2/auction.sol\":3762:3769  bidders */\n      0x09\n        /* \"tp2/auction.sol\":3770:3771  i */\n      dup4\n        /* \"tp2/auction.sol\":3762:3772  bidders[i] */\n      dup2\n      sload\n      dup2\n      lt\n      tag_45\n      jumpi\n      tag_46\n      tag_47\n      jump\t// in\n    tag_46:\n    tag_45:\n      swap1\n      0x00\n      mstore\n      keccak256(0x00, 0x20)\n      add\n      0x00\n      swap1\n      sload\n      swap1\n      0x0100\n      exp\n      swap1\n      div\n      0xffffffffffffffffffffffffffffffffffffffff\n      and\n        /* \"tp2/auction.sol\":3753:3773  balances[bidders[i]] */\n      0xffffffffffffffffffffffffffffffffffffffff\n      and\n      0xffffffffffffffffffffffffffffffffffffffff\n      and\n      dup2\n      mstore\n      0x20\n      add\n      swap1\n      dup2\n      mstore\n      0x20\n      add\n      0x00\n      keccak256\n        /* \"tp2/auction.sol\":3743:3773  bids[i] = balances[bidders[i]] */\n      mload(0x40)\n      dup1\n      0xa0\n      add\n      0x40\n      mstore\n      swap1\n      dup2\n      0x00\n      dup3\n      add\n      0x00\n      swap1\n      sload\n      swap1\n      0x0100\n      exp\n      swap1\n      div\n      0xff\n      and\n      iszero\n      iszero\n      iszero\n      iszero\n      dup2\n      mstore\n      0x20\n      add\n      0x01\n      dup3\n      add\n      sload\n      dup2\n      mstore\n      0x20\n      add\n      0x02\n      dup3\n      add\n      sload\n      dup2\n      mstore\n      0x20\n      add\n      0x03\n      dup3\n      add\n      sload\n      dup2\n      mstore\n      0x20\n      add\n      0x04\n      dup3\n      add\n      0x00\n      swap1\n      sload\n      swap1\n      0x0100\n      exp\n      swap1\n      div\n      0xffffffffffffffffffffffffffffffffffffffff\n      and\n      0xffffffffffffffffffffffffffffffffffffffff\n      and\n      0xffffffffffffffffffffffffffffffffffffffff\n      and\n      dup2\n      mstore\n      pop\n      pop\n        /* \"tp2/auction.sol\":3743:3747  bids */\n      dup3\n        /* \"tp2/auction.sol\":3748:3749  i */\n      dup3\n        /* \"tp2/auction.sol\":3743:3750  bids[i] */\n      dup2\n      mload\n      dup2\n      lt\n      tag_49\n      jumpi\n      tag_50\n      tag_47\n      jump\t// in\n    tag_50:\n    tag_49:\n      0x20\n      mul\n      0x20\n      add\n      add\n        /* \"tp2/auction.sol\":3743:3773  bids[i] = balances[bidders[i]] */\n      dup2\n      swap1\n      mstore\n      pop\n        /* \"tp2/auction.sol\":3725:3728  i++ */\n      dup1\n      dup1\n      0x01\n      add\n      swap2\n      pop\n      pop\n        /* \"tp2/auction.sol\":3689:3784  for(uint i = 0; i < bidders.length; i++){... */\n      jump(tag_42)\n    tag_43:\n      pop\n        /* \"tp2/auction.sol\":3800:3804  bids */\n      dup1\n        /* \"tp2/auction.sol\":3793:3804  return bids */\n      swap3\n      pop\n      pop\n        /* \"tp2/auction.sol\":3538:3811  function showBids() external view atStage(Stage.TakingBid) returns (Bid [] memory){... */\n      pop\n      swap1\n      jump\t// out\n        /* \"tp2/auction.sol\":1160:1975  function bid() external payable timedTransitions atStage(Stage.TakingBid)  {... */\n    tag_13:\n        /* \"tp2/auction.sol\":2412:2422  uint limit */\n      0x00\n        /* \"tp2/auction.sol\":2443:2457  completionTime */\n      dup1\n      sload\n        /* \"tp2/auction.sol\":2425:2440  block.timestamp */\n      timestamp\n        /* \"tp2/auction.sol\":2425:2457  block.timestamp < completionTime */\n      lt\n        /* \"tp2/auction.sol\":2425:2507  block.timestamp < completionTime ? completionTime : lastBid.timestamp + 10 minutes */\n      tag_52\n      jumpi\n        /* \"tp2/auction.sol\":2497:2507  10 minutes */\n      0x0258\n        /* \"tp2/auction.sol\":2477:2484  lastBid */\n      0x02\n        /* \"tp2/auction.sol\":2477:2494  lastBid.timestamp */\n      0x01\n      add\n      sload\n        /* \"tp2/auction.sol\":2477:2507  lastBid.timestamp + 10 minutes */\n      tag_53\n      swap2\n      swap1\n      tag_54\n      jump\t// in\n    tag_53:\n        /* \"tp2/auction.sol\":2425:2507  block.timestamp < completionTime ? completionTime : lastBid.timestamp + 10 minutes */\n      jump(tag_55)\n    tag_52:\n        /* \"tp2/auction.sol\":2460:2474  completionTime */\n      sload(0x00)\n        /* \"tp2/auction.sol\":2425:2507  block.timestamp < completionTime ? completionTime : lastBid.timestamp + 10 minutes */\n    tag_55:\n        /* \"tp2/auction.sol\":2412:2507  uint limit = block.timestamp < completionTime ? completionTime : lastBid.timestamp + 10 minutes */\n      swap1\n      pop\n        /* \"tp2/auction.sol\":2530:2545  Stage.TakingBid */\n      0x00\n        /* \"tp2/auction.sol\":2521:2545  stage == Stage.TakingBid */\n      0x01\n      dup2\n      gt\n      iszero\n      tag_56\n      jumpi\n      tag_57\n      tag_28\n      jump\t// in\n    tag_57:\n    tag_56:\n        /* \"tp2/auction.sol\":2521:2526  stage */\n      0x01\n      0x00\n      swap1\n      sload\n      swap1\n      0x0100\n      exp\n      swap1\n      div\n      0xff\n      and\n        /* \"tp2/auction.sol\":2521:2545  stage == Stage.TakingBid */\n      0x01\n      dup2\n      gt\n      iszero\n      tag_58\n      jumpi\n      tag_59\n      tag_28\n      jump\t// in\n    tag_59:\n    tag_58:\n      eq\n        /* \"tp2/auction.sol\":2521:2572  stage == Stage.TakingBid && block.timestamp > limit */\n      dup1\n      iszero\n      tag_60\n      jumpi\n      pop\n        /* \"tp2/auction.sol\":2567:2572  limit */\n      dup1\n        /* \"tp2/auction.sol\":2549:2564  block.timestamp */\n      timestamp\n        /* \"tp2/auction.sol\":2549:2572  block.timestamp > limit */\n      gt\n        /* \"tp2/auction.sol\":2521:2572  stage == Stage.TakingBid && block.timestamp > limit */\n    tag_60:\n        /* \"tp2/auction.sol\":2517:2597  if (stage == Stage.TakingBid && block.timestamp > limit)... */\n      iszero\n      tag_61\n      jumpi\n        /* \"tp2/auction.sol\":2586:2597  nextStage() */\n      tag_62\n        /* \"tp2/auction.sol\":2586:2595  nextStage */\n      tag_63\n        /* \"tp2/auction.sol\":2586:2597  nextStage() */\n      jump\t// in\n    tag_62:\n        /* \"tp2/auction.sol\":2517:2597  if (stage == Stage.TakingBid && block.timestamp > limit)... */\n    tag_61:\n        /* \"tp2/auction.sol\":1217:1232  Stage.TakingBid */\n      0x00\n        /* \"tp2/auction.sol\":4249:4255  _stage */\n      dup1\n        /* \"tp2/auction.sol\":4240:4255  stage != _stage */\n      0x01\n      dup2\n      gt\n      iszero\n      tag_65\n      jumpi\n      tag_66\n      tag_28\n      jump\t// in\n    tag_66:\n    tag_65:\n        /* \"tp2/auction.sol\":4240:4245  stage */\n      0x01\n      0x00\n      swap1\n      sload\n      swap1\n      0x0100\n      exp\n      swap1\n      div\n      0xff\n      and\n        /* \"tp2/auction.sol\":4240:4255  stage != _stage */\n      0x01\n      dup2\n      gt\n      iszero\n      tag_67\n      jumpi\n      tag_68\n      tag_28\n      jump\t// in\n    tag_68:\n    tag_67:\n      eq\n        /* \"tp2/auction.sol\":4236:4300  if (stage != _stage)... */\n      tag_69\n      jumpi\n        /* \"tp2/auction.sol\":4294:4299  stage */\n      0x01\n      0x00\n      swap1\n      sload\n      swap1\n      0x0100\n      exp\n      swap1\n      div\n      0xff\n      and\n        /* \"tp2/auction.sol\":4276:4300  NotAllowedAtStage(stage) */\n      mload(0x40)\n      0xf1c25c2000000000000000000000000000000000000000000000000000000000\n      dup2\n      mstore\n      0x04\n      add\n      tag_70\n      swap2\n      swap1\n      tag_33\n      jump\t// in\n    tag_70:\n      mload(0x40)\n      dup1\n      swap2\n      sub\n      swap1\n      revert\n        /* \"tp2/auction.sol\":4236:4300  if (stage != _stage)... */\n    tag_69:\n        /* \"tp2/auction.sol\":1303:1306  100 */\n      0x64\n        /* \"tp2/auction.sol\":1298:1299  5 */\n      0x05\n        /* \"tp2/auction.sol\":1281:1288  lastBid */\n      0x02\n        /* \"tp2/auction.sol\":1281:1295  lastBid.amount */\n      0x03\n      add\n      sload\n        /* \"tp2/auction.sol\":1281:1299  lastBid.amount * 5 */\n      tag_72\n      swap2\n      swap1\n      tag_73\n      jump\t// in\n    tag_72:\n        /* \"tp2/auction.sol\":1280:1306  (lastBid.amount * 5) / 100 */\n      tag_74\n      swap2\n      swap1\n      tag_75\n      jump\t// in\n    tag_74:\n        /* \"tp2/auction.sol\":1262:1269  lastBid */\n      0x02\n        /* \"tp2/auction.sol\":1262:1276  lastBid.amount */\n      0x03\n      add\n      sload\n        /* \"tp2/auction.sol\":1262:1307  lastBid.amount + ((lastBid.amount * 5) / 100) */\n      tag_76\n      swap2\n      swap1\n      tag_54\n      jump\t// in\n    tag_76:\n        /* \"tp2/auction.sol\":1248:1257  msg.value */\n      callvalue\n        /* \"tp2/auction.sol\":1248:1308  msg.value <= (lastBid.amount + ((lastBid.amount * 5) / 100)) */\n      gt\n        /* \"tp2/auction.sol\":1245:1396  if(msg.value <= (lastBid.amount + ((lastBid.amount * 5) / 100)))... */\n      tag_77\n      jumpi\n        /* \"tp2/auction.sol\":1329:1396  NotEnoughHigh(\"A valid bid must be 5 % greater than the last bid.\") */\n      mload(0x40)\n      0x1410d82200000000000000000000000000000000000000000000000000000000\n      dup2\n      mstore\n      0x04\n      add\n      tag_78\n      swap1\n      tag_79\n      jump\t// in\n    tag_78:\n      mload(0x40)\n      dup1\n      swap2\n      sub\n      swap1\n      revert\n        /* \"tp2/auction.sol\":1245:1396  if(msg.value <= (lastBid.amount + ((lastBid.amount * 5) / 100)))... */\n    tag_77:\n        /* \"tp2/auction.sol\":1411:1419  balances */\n      0x0a\n        /* \"tp2/auction.sol\":1411:1431  balances[msg.sender] */\n      0x00\n        /* \"tp2/auction.sol\":1420:1430  msg.sender */\n      caller\n        /* \"tp2/auction.sol\":1411:1431  balances[msg.sender] */\n      0xffffffffffffffffffffffffffffffffffffffff\n      and\n      0xffffffffffffffffffffffffffffffffffffffff\n      and\n      dup2\n      mstore\n      0x20\n      add\n      swap1\n      dup2\n      mstore\n      0x20\n      add\n      0x00\n      keccak256\n        /* \"tp2/auction.sol\":1411:1438  balances[msg.sender].exists */\n      0x00\n      add\n      0x00\n      swap1\n      sload\n      swap1\n      0x0100\n      exp\n      swap1\n      div\n      0xff\n      and\n        /* \"tp2/auction.sol\":1407:1476  if(!balances[msg.sender].exists)... */\n      tag_80\n      jumpi\n        /* \"tp2/auction.sol\":1452:1459  bidders */\n      0x09\n        /* \"tp2/auction.sol\":1465:1475  msg.sender */\n      caller\n        /* \"tp2/auction.sol\":1452:1476  bidders.push(msg.sender) */\n      swap1\n      dup1\n      0x01\n      dup2\n      sload\n      add\n      dup1\n      dup3\n      sstore\n      dup1\n      swap2\n      pop\n      pop\n      0x01\n      swap1\n      sub\n      swap1\n      0x00\n      mstore\n      keccak256(0x00, 0x20)\n      add\n      0x00\n      swap1\n      swap2\n      swap1\n      swap2\n      swap1\n      swap2\n      0x0100\n      exp\n      dup2\n      sload\n      dup2\n      0xffffffffffffffffffffffffffffffffffffffff\n      mul\n      not\n      and\n      swap1\n      dup4\n      0xffffffffffffffffffffffffffffffffffffffff\n      and\n      mul\n      or\n      swap1\n      sstore\n      pop\n        /* \"tp2/auction.sol\":1407:1476  if(!balances[msg.sender].exists)... */\n    tag_80:\n        /* \"tp2/auction.sol\":1510:1519  msg.value */\n      callvalue\n        /* \"tp2/auction.sol\":1487:1494  lastBid */\n      0x02\n        /* \"tp2/auction.sol\":1487:1506  lastBid.accumulated */\n      dup1\n      add\n      0x00\n        /* \"tp2/auction.sol\":1487:1519  lastBid.accumulated += msg.value */\n      dup3\n      dup3\n      sload\n      tag_82\n      swap2\n      swap1\n      tag_54\n      jump\t// in\n    tag_82:\n      swap3\n      pop\n      pop\n      dup2\n      swap1\n      sstore\n      pop\n        /* \"tp2/auction.sol\":1546:1555  msg.value */\n      callvalue\n        /* \"tp2/auction.sol\":1529:1536  lastBid */\n      0x02\n        /* \"tp2/auction.sol\":1529:1543  lastBid.amount */\n      0x03\n      add\n        /* \"tp2/auction.sol\":1529:1555  lastBid.amount = msg.value */\n      dup2\n      swap1\n      sstore\n      pop\n        /* \"tp2/auction.sol\":1581:1591  msg.sender */\n      caller\n        /* \"tp2/auction.sol\":1565:1572  lastBid */\n      0x02\n        /* \"tp2/auction.sol\":1565:1578  lastBid.owner */\n      0x04\n      add\n      0x00\n        /* \"tp2/auction.sol\":1565:1591  lastBid.owner = msg.sender */\n      0x0100\n      exp\n      dup2\n      sload\n      dup2\n      0xffffffffffffffffffffffffffffffffffffffff\n      mul\n      not\n      and\n      swap1\n      dup4\n      0xffffffffffffffffffffffffffffffffffffffff\n      and\n      mul\n      or\n      swap1\n      sstore\n      pop\n        /* \"tp2/auction.sol\":1618:1622  true */\n      0x01\n        /* \"tp2/auction.sol\":1601:1608  lastBid */\n      0x02\n        /* \"tp2/auction.sol\":1601:1615  lastBid.exists */\n      0x00\n      add\n      0x00\n        /* \"tp2/auction.sol\":1601:1622  lastBid.exists = true */\n      0x0100\n      exp\n      dup2\n      sload\n      dup2\n      0xff\n      mul\n      not\n      and\n      swap1\n      dup4\n      iszero\n      iszero\n      mul\n      or\n      swap1\n      sstore\n      pop\n        /* \"tp2/auction.sol\":1652:1667  block.timestamp */\n      timestamp\n        /* \"tp2/auction.sol\":1632:1639  lastBid */\n      0x02\n        /* \"tp2/auction.sol\":1632:1649  lastBid.timestamp */\n      0x01\n      add\n        /* \"tp2/auction.sol\":1632:1667  lastBid.timestamp = block.timestamp */\n      dup2\n      swap1\n      sstore\n      pop\n        /* \"tp2/auction.sol\":1714:1723  msg.value */\n      callvalue\n        /* \"tp2/auction.sol\":1678:1686  balances */\n      0x0a\n        /* \"tp2/auction.sol\":1678:1698  balances[msg.sender] */\n      0x00\n        /* \"tp2/auction.sol\":1687:1697  msg.sender */\n      caller\n        /* \"tp2/auction.sol\":1678:1698  balances[msg.sender] */\n      0xffffffffffffffffffffffffffffffffffffffff\n      and\n      0xffffffffffffffffffffffffffffffffffffffff\n      and\n      dup2\n      mstore\n      0x20\n      add\n      swap1\n      dup2\n      mstore\n      0x20\n      add\n      0x00\n      keccak256\n        /* \"tp2/auction.sol\":1678:1710  balances[msg.sender].accumulated */\n      0x02\n      add\n      0x00\n        /* \"tp2/auction.sol\":1678:1723  balances[msg.sender].accumulated += msg.value */\n      dup3\n      dup3\n      sload\n      tag_83\n      swap2\n      swap1\n      tag_54\n      jump\t// in\n    tag_83:\n      swap3\n      pop\n      pop\n      dup2\n      swap1\n      sstore\n      pop\n        /* \"tp2/auction.sol\":1763:1772  msg.value */\n      callvalue\n        /* \"tp2/auction.sol\":1733:1741  balances */\n      0x0a\n        /* \"tp2/auction.sol\":1733:1753  balances[msg.sender] */\n      0x00\n        /* \"tp2/auction.sol\":1742:1752  msg.sender */\n      caller\n        /* \"tp2/auction.sol\":1733:1753  balances[msg.sender] */\n      0xffffffffffffffffffffffffffffffffffffffff\n      and\n      0xffffffffffffffffffffffffffffffffffffffff\n      and\n      dup2\n      mstore\n      0x20\n      add\n      swap1\n      dup2\n      mstore\n      0x20\n      add\n      0x00\n      keccak256\n        /* \"tp2/auction.sol\":1733:1760  balances[msg.sender].amount */\n      0x03\n      add\n        /* \"tp2/auction.sol\":1733:1772  balances[msg.sender].amount = msg.value */\n      dup2\n      swap1\n      sstore\n      pop\n        /* \"tp2/auction.sol\":1811:1821  msg.sender */\n      caller\n        /* \"tp2/auction.sol\":1782:1790  balances */\n      0x0a\n        /* \"tp2/auction.sol\":1782:1802  balances[msg.sender] */\n      0x00\n        /* \"tp2/auction.sol\":1791:1801  msg.sender */\n      caller\n        /* \"tp2/auction.sol\":1782:1802  balances[msg.sender] */\n      0xffffffffffffffffffffffffffffffffffffffff\n      and\n      0xffffffffffffffffffffffffffffffffffffffff\n      and\n      dup2\n      mstore\n      0x20\n      add\n      swap1\n      dup2\n      mstore\n      0x20\n      add\n      0x00\n      keccak256\n        /* \"tp2/auction.sol\":1782:1808  balances[msg.sender].owner */\n      0x04\n      add\n      0x00\n        /* \"tp2/auction.sol\":1782:1821  balances[msg.sender].owner = msg.sender */\n      0x0100\n      exp\n      dup2\n      sload\n      dup2\n      0xffffffffffffffffffffffffffffffffffffffff\n      mul\n      not\n      and\n      swap1\n      dup4\n      0xffffffffffffffffffffffffffffffffffffffff\n      and\n      mul\n      or\n      swap1\n      sstore\n      pop\n        /* \"tp2/auction.sol\":1861:1865  true */\n      0x01\n        /* \"tp2/auction.sol\":1831:1839  balances */\n      0x0a\n        /* \"tp2/auction.sol\":1831:1851  balances[msg.sender] */\n      0x00\n        /* \"tp2/auction.sol\":1840:1850  msg.sender */\n      caller\n        /* \"tp2/auction.sol\":1831:1851  balances[msg.sender] */\n      0xffffffffffffffffffffffffffffffffffffffff\n      and\n      0xffffffffffffffffffffffffffffffffffffffff\n      and\n      dup2\n      mstore\n      0x20\n      add\n      swap1\n      dup2\n      mstore\n      0x20\n      add\n      0x00\n      keccak256\n        /* \"tp2/auction.sol\":1831:1858  balances[msg.sender].exists */\n      0x00\n      add\n      0x00\n        /* \"tp2/auction.sol\":1831:1865  balances[msg.sender].exists = true */\n      0x0100\n      exp\n      dup2\n      sload\n      dup2\n      0xff\n      mul\n      not\n      and\n      swap1\n      dup4\n      iszero\n      iszero\n      mul\n      or\n      swap1\n      sstore\n      pop\n        /* \"tp2/auction.sol\":1908:1923  block.timestamp */\n      timestamp\n        /* \"tp2/auction.sol\":1875:1883  balances */\n      0x0a\n        /* \"tp2/auction.sol\":1875:1895  balances[msg.sender] */\n      0x00\n        /* \"tp2/auction.sol\":1884:1894  msg.sender */\n      caller\n        /* \"tp2/auction.sol\":1875:1895  balances[msg.sender] */\n      0xffffffffffffffffffffffffffffffffffffffff\n      and\n      0xffffffffffffffffffffffffffffffffffffffff\n      and\n      dup2\n      mstore\n      0x20\n      add\n      swap1\n      dup2\n      mstore\n      0x20\n      add\n      0x00\n      keccak256\n        /* \"tp2/auction.sol\":1875:1905  balances[msg.sender].timestamp */\n      0x01\n      add\n        /* \"tp2/auction.sol\":1875:1923  balances[msg.sender].timestamp = block.timestamp */\n      dup2\n      swap1\n      sstore\n      pop\n        /* \"tp2/auction.sol\":1939:1968  NewBid(msg.sender, msg.value) */\n      0xdd0b6c6a77960e2066c96171b4d7ac9e8b4c184011f38544afa36a5bb63ec59f\n        /* \"tp2/auction.sol\":1946:1956  msg.sender */\n      caller\n        /* \"tp2/auction.sol\":1958:1967  msg.value */\n      callvalue\n        /* \"tp2/auction.sol\":1939:1968  NewBid(msg.sender, msg.value) */\n      mload(0x40)\n      tag_84\n      swap3\n      swap2\n      swap1\n      tag_21\n      jump\t// in\n    tag_84:\n      mload(0x40)\n      dup1\n      swap2\n      sub\n      swap1\n      log1\n        /* \"tp2/auction.sol\":2607:2608  _ */\n      pop\n        /* \"tp2/auction.sol\":2402:2615  {... */\n      pop\n        /* \"tp2/auction.sol\":1160:1975  function bid() external payable timedTransitions atStage(Stage.TakingBid)  {... */\n      jump\t// out\n        /* \"tp2/auction.sol\":2622:3374  function close() external only(Rol.Admin) atStage(Stage.Finished) {... */\n    tag_16:\n        /* \"tp2/auction.sol\":2653:2662  Rol.Admin */\n      0x00\n        /* \"tp2/auction.sol\":3944:3953  Rol.Admin */\n      dup1\n        /* \"tp2/auction.sol\":3937:3953  rol == Rol.Admin */\n      0x01\n      dup2\n      gt\n      iszero\n      tag_86\n      jumpi\n      tag_87\n      tag_28\n      jump\t// in\n    tag_87:\n    tag_86:\n        /* \"tp2/auction.sol\":3937:3940  rol */\n      dup2\n        /* \"tp2/auction.sol\":3937:3953  rol == Rol.Admin */\n      0x01\n      dup2\n      gt\n      iszero\n      tag_88\n      jumpi\n      tag_89\n      tag_28\n      jump\t// in\n    tag_89:\n    tag_88:\n      eq\n        /* \"tp2/auction.sol\":3937:3976  rol == Rol.Admin && msg.sender != admin */\n      dup1\n      iszero\n      tag_90\n      jumpi\n      pop\n        /* \"tp2/auction.sol\":3971:3976  admin */\n      0x07\n      0x00\n      swap1\n      sload\n      swap1\n      0x0100\n      exp\n      swap1\n      div\n      0xffffffffffffffffffffffffffffffffffffffff\n      and\n        /* \"tp2/auction.sol\":3957:3976  msg.sender != admin */\n      0xffffffffffffffffffffffffffffffffffffffff\n      and\n        /* \"tp2/auction.sol\":3957:3967  msg.sender */\n      caller\n        /* \"tp2/auction.sol\":3957:3976  msg.sender != admin */\n      0xffffffffffffffffffffffffffffffffffffffff\n      and\n      eq\n      iszero\n        /* \"tp2/auction.sol\":3937:3976  rol == Rol.Admin && msg.sender != admin */\n    tag_90:\n        /* \"tp2/auction.sol\":3934:4044  if(rol == Rol.Admin && msg.sender != admin)... */\n      iszero\n      tag_91\n      jumpi\n        /* \"tp2/auction.sol\":3997:4044  AccessNotAllowed(\"Only Admin User is allowed.\") */\n      mload(0x40)\n      0x58a3f3c000000000000000000000000000000000000000000000000000000000\n      dup2\n      mstore\n      0x04\n      add\n      tag_92\n      swap1\n      tag_93\n      jump\t// in\n    tag_92:\n      mload(0x40)\n      dup1\n      swap2\n      sub\n      swap1\n      revert\n        /* \"tp2/auction.sol\":3934:4044  if(rol == Rol.Admin && msg.sender != admin)... */\n    tag_91:\n        /* \"tp2/auction.sol\":4064:4074  Rol.Bidder */\n      0x01\n        /* \"tp2/auction.sol\":4057:4074  rol == Rol.Bidder */\n      dup1\n      dup2\n      gt\n      iszero\n      tag_94\n      jumpi\n      tag_95\n      tag_28\n      jump\t// in\n    tag_95:\n    tag_94:\n        /* \"tp2/auction.sol\":4057:4060  rol */\n      dup2\n        /* \"tp2/auction.sol\":4057:4074  rol == Rol.Bidder */\n      0x01\n      dup2\n      gt\n      iszero\n      tag_96\n      jumpi\n      tag_97\n      tag_28\n      jump\t// in\n    tag_97:\n    tag_96:\n      eq\n        /* \"tp2/auction.sol\":4057:4106  rol == Rol.Bidder && !balances[msg.sender].exists */\n      dup1\n      iszero\n      tag_98\n      jumpi\n      pop\n        /* \"tp2/auction.sol\":4079:4087  balances */\n      0x0a\n        /* \"tp2/auction.sol\":4079:4099  balances[msg.sender] */\n      0x00\n        /* \"tp2/auction.sol\":4088:4098  msg.sender */\n      caller\n        /* \"tp2/auction.sol\":4079:4099  balances[msg.sender] */\n      0xffffffffffffffffffffffffffffffffffffffff\n      and\n      0xffffffffffffffffffffffffffffffffffffffff\n      and\n      dup2\n      mstore\n      0x20\n      add\n      swap1\n      dup2\n      mstore\n      0x20\n      add\n      0x00\n      keccak256\n        /* \"tp2/auction.sol\":4079:4106  balances[msg.sender].exists */\n      0x00\n      add\n      0x00\n      swap1\n      sload\n      swap1\n      0x0100\n      exp\n      swap1\n      div\n      0xff\n      and\n        /* \"tp2/auction.sol\":4078:4106  !balances[msg.sender].exists */\n      iszero\n        /* \"tp2/auction.sol\":4057:4106  rol == Rol.Bidder && !balances[msg.sender].exists */\n    tag_98:\n        /* \"tp2/auction.sol\":4054:4171  if(rol == Rol.Bidder && !balances[msg.sender].exists)... */\n      iszero\n      tag_99\n      jumpi\n        /* \"tp2/auction.sol\":4127:4171  AccessNotAllowed(\"Only Bidder are allowed.\") */\n      mload(0x40)\n      0x58a3f3c000000000000000000000000000000000000000000000000000000000\n      dup2\n      mstore\n      0x04\n      add\n      tag_100\n      swap1\n      tag_101\n      jump\t// in\n    tag_100:\n      mload(0x40)\n      dup1\n      swap2\n      sub\n      swap1\n      revert\n        /* \"tp2/auction.sol\":4054:4171  if(rol == Rol.Bidder && !balances[msg.sender].exists)... */\n    tag_99:\n        /* \"tp2/auction.sol\":2672:2686  Stage.Finished */\n      0x01\n        /* \"tp2/auction.sol\":4249:4255  _stage */\n      dup1\n        /* \"tp2/auction.sol\":4240:4255  stage != _stage */\n      0x01\n      dup2\n      gt\n      iszero\n      tag_103\n      jumpi\n      tag_104\n      tag_28\n      jump\t// in\n    tag_104:\n    tag_103:\n        /* \"tp2/auction.sol\":4240:4245  stage */\n      0x01\n      0x00\n      swap1\n      sload\n      swap1\n      0x0100\n      exp\n      swap1\n      div\n      0xff\n      and\n        /* \"tp2/auction.sol\":4240:4255  stage != _stage */\n      0x01\n      dup2\n      gt\n      iszero\n      tag_105\n      jumpi\n      tag_106\n      tag_28\n      jump\t// in\n    tag_106:\n    tag_105:\n      eq\n        /* \"tp2/auction.sol\":4236:4300  if (stage != _stage)... */\n      tag_107\n      jumpi\n        /* \"tp2/auction.sol\":4294:4299  stage */\n      0x01\n      0x00\n      swap1\n      sload\n      swap1\n      0x0100\n      exp\n      swap1\n      div\n      0xff\n      and\n        /* \"tp2/auction.sol\":4276:4300  NotAllowedAtStage(stage) */\n      mload(0x40)\n      0xf1c25c2000000000000000000000000000000000000000000000000000000000\n      dup2\n      mstore\n      0x04\n      add\n      tag_108\n      swap2\n      swap1\n      tag_33\n      jump\t// in\n    tag_108:\n      mload(0x40)\n      dup1\n      swap2\n      sub\n      swap1\n      revert\n        /* \"tp2/auction.sol\":4236:4300  if (stage != _stage)... */\n    tag_107:\n        /* \"tp2/auction.sol\":2733:2740  lastBid */\n      0x02\n        /* \"tp2/auction.sol\":2733:2746  lastBid.owner */\n      0x04\n      add\n      0x00\n      swap1\n      sload\n      swap1\n      0x0100\n      exp\n      swap1\n      div\n      0xffffffffffffffffffffffffffffffffffffffff\n      and\n        /* \"tp2/auction.sol\":2703:2763  AuctionFinished(auctioneItem, lastBid.owner, lastBid.amount) */\n      0xffffffffffffffffffffffffffffffffffffffff\n      and\n        /* \"tp2/auction.sol\":2719:2731  auctioneItem */\n      0x08\n        /* \"tp2/auction.sol\":2703:2763  AuctionFinished(auctioneItem, lastBid.owner, lastBid.amount) */\n      mload(0x40)\n      tag_110\n      swap2\n      swap1\n      tag_111\n      jump\t// in\n    tag_110:\n      mload(0x40)\n      dup1\n      swap2\n      sub\n      swap1\n      keccak256\n      0xef1c1ac56c3e721a0a9bdb9f70b99f3cd67d25c1aabe4830f296c2391dc1c2e8\n        /* \"tp2/auction.sol\":2748:2755  lastBid */\n      0x02\n        /* \"tp2/auction.sol\":2748:2762  lastBid.amount */\n      0x03\n      add\n      sload\n        /* \"tp2/auction.sol\":2703:2763  AuctionFinished(auctioneItem, lastBid.owner, lastBid.amount) */\n      mload(0x40)\n      tag_112\n      swap2\n      swap1\n      tag_113\n      jump\t// in\n    tag_112:\n      mload(0x40)\n      dup1\n      swap2\n      sub\n      swap1\n      log3\n        /* \"tp2/auction.sol\":2778:2784  uint i */\n      0x00\n        /* \"tp2/auction.sol\":2773:3368  for (uint i = 0; i < bidders.length; i++) {... */\n    tag_114:\n        /* \"tp2/auction.sol\":2794:2801  bidders */\n      0x09\n        /* \"tp2/auction.sol\":2794:2808  bidders.length */\n      dup1\n      sload\n      swap1\n      pop\n        /* \"tp2/auction.sol\":2790:2791  i */\n      dup2\n        /* \"tp2/auction.sol\":2790:2808  i < bidders.length */\n      lt\n        /* \"tp2/auction.sol\":2773:3368  for (uint i = 0; i < bidders.length; i++) {... */\n      iszero\n      tag_115\n      jumpi\n        /* \"tp2/auction.sol\":2846:2853  lastBid */\n      0x02\n        /* \"tp2/auction.sol\":2846:2859  lastBid.owner */\n      0x04\n      add\n      0x00\n      swap1\n      sload\n      swap1\n      0x0100\n      exp\n      swap1\n      div\n      0xffffffffffffffffffffffffffffffffffffffff\n      and\n        /* \"tp2/auction.sol\":2832:2859  bidders[i] != lastBid.owner */\n      0xffffffffffffffffffffffffffffffffffffffff\n      and\n        /* \"tp2/auction.sol\":2832:2839  bidders */\n      0x09\n        /* \"tp2/auction.sol\":2840:2841  i */\n      dup3\n        /* \"tp2/auction.sol\":2832:2842  bidders[i] */\n      dup2\n      sload\n      dup2\n      lt\n      tag_117\n      jumpi\n      tag_118\n      tag_47\n      jump\t// in\n    tag_118:\n    tag_117:\n      swap1\n      0x00\n      mstore\n      keccak256(0x00, 0x20)\n      add\n      0x00\n      swap1\n      sload\n      swap1\n      0x0100\n      exp\n      swap1\n      div\n      0xffffffffffffffffffffffffffffffffffffffff\n      and\n        /* \"tp2/auction.sol\":2832:2859  bidders[i] != lastBid.owner */\n      0xffffffffffffffffffffffffffffffffffffffff\n      and\n      eq\n        /* \"tp2/auction.sol\":2829:3358  if(bidders[i] != lastBid.owner){... */\n      tag_120\n      jumpi\n        /* \"tp2/auction.sol\":2878:2892  Bid memory aux */\n      0x00\n        /* \"tp2/auction.sol\":2895:2903  balances */\n      0x0a\n        /* \"tp2/auction.sol\":2895:2915  balances[bidders[i]] */\n      0x00\n        /* \"tp2/auction.sol\":2904:2911  bidders */\n      0x09\n        /* \"tp2/auction.sol\":2912:2913  i */\n      dup5\n        /* \"tp2/auction.sol\":2904:2914  bidders[i] */\n      dup2\n      sload\n      dup2\n      lt\n      tag_121\n      jumpi\n      tag_122\n      tag_47\n      jump\t// in\n    tag_122:\n    tag_121:\n      swap1\n      0x00\n      mstore\n      keccak256(0x00, 0x20)\n      add\n      0x00\n      swap1\n      sload\n      swap1\n      0x0100\n      exp\n      swap1\n      div\n      0xffffffffffffffffffffffffffffffffffffffff\n      and\n        /* \"tp2/auction.sol\":2895:2915  balances[bidders[i]] */\n      0xffffffffffffffffffffffffffffffffffffffff\n      and\n      0xffffffffffffffffffffffffffffffffffffffff\n      and\n      dup2\n      mstore\n      0x20\n      add\n      swap1\n      dup2\n      mstore\n      0x20\n      add\n      0x00\n      keccak256\n        /* \"tp2/auction.sol\":2878:2915  Bid memory aux = balances[bidders[i]] */\n      mload(0x40)\n      dup1\n      0xa0\n      add\n      0x40\n      mstore\n      swap1\n      dup2\n      0x00\n      dup3\n      add\n      0x00\n      swap1\n      sload\n      swap1\n      0x0100\n      exp\n      swap1\n      div\n      0xff\n      and\n      iszero\n      iszero\n      iszero\n      iszero\n      dup2\n      mstore\n      0x20\n      add\n      0x01\n      dup3\n      add\n      sload\n      dup2\n      mstore\n      0x20\n      add\n      0x02\n      dup3\n      add\n      sload\n      dup2\n      mstore\n      0x20\n      add\n      0x03\n      dup3\n      add\n      sload\n      dup2\n      mstore\n      0x20\n      add\n      0x04\n      dup3\n      add\n      0x00\n      swap1\n      sload\n      swap1\n      0x0100\n      exp\n      swap1\n      div\n      0xffffffffffffffffffffffffffffffffffffffff\n      and\n      0xffffffffffffffffffffffffffffffffffffffff\n      and\n      0xffffffffffffffffffffffffffffffffffffffff\n      and\n      dup2\n      mstore\n      pop\n      pop\n      swap1\n      pop\n        /* \"tp2/auction.sol\":2933:2944  uint amount */\n      0x00\n        /* \"tp2/auction.sol\":2947:2955  balances */\n      0x0a\n        /* \"tp2/auction.sol\":2947:2967  balances[bidders[i]] */\n      0x00\n        /* \"tp2/auction.sol\":2956:2963  bidders */\n      0x09\n        /* \"tp2/auction.sol\":2964:2965  i */\n      dup6\n        /* \"tp2/auction.sol\":2956:2966  bidders[i] */\n      dup2\n      sload\n      dup2\n      lt\n      tag_124\n      jumpi\n      tag_125\n      tag_47\n      jump\t// in\n    tag_125:\n    tag_124:\n      swap1\n      0x00\n      mstore\n      keccak256(0x00, 0x20)\n      add\n      0x00\n      swap1\n      sload\n      swap1\n      0x0100\n      exp\n      swap1\n      div\n      0xffffffffffffffffffffffffffffffffffffffff\n      and\n        /* \"tp2/auction.sol\":2947:2967  balances[bidders[i]] */\n      0xffffffffffffffffffffffffffffffffffffffff\n      and\n      0xffffffffffffffffffffffffffffffffffffffff\n      and\n      dup2\n      mstore\n      0x20\n      add\n      swap1\n      dup2\n      mstore\n      0x20\n      add\n      0x00\n      keccak256\n        /* \"tp2/auction.sol\":2947:2979  balances[bidders[i]].accumulated */\n      0x02\n      add\n      sload\n        /* \"tp2/auction.sol\":2933:2979  uint amount = balances[bidders[i]].accumulated */\n      swap1\n      pop\n        /* \"tp2/auction.sol\":3030:3033  100 */\n      0x64\n        /* \"tp2/auction.sol\":3025:3026  2 */\n      0x02\n        /* \"tp2/auction.sol\":3016:3022  amount */\n      dup3\n        /* \"tp2/auction.sol\":3016:3026  amount * 2 */\n      tag_127\n      swap2\n      swap1\n      tag_73\n      jump\t// in\n    tag_127:\n        /* \"tp2/auction.sol\":3015:3033  (amount * 2) / 100 */\n      tag_128\n      swap2\n      swap1\n      tag_75\n      jump\t// in\n    tag_128:\n        /* \"tp2/auction.sol\":3006:3012  amount */\n      dup2\n        /* \"tp2/auction.sol\":3006:3033  amount - (amount * 2) / 100 */\n      tag_129\n      swap2\n      swap1\n      tag_130\n      jump\t// in\n    tag_129:\n        /* \"tp2/auction.sol\":2997:3033  amount = amount - (amount * 2) / 100 */\n      swap1\n      pop\n        /* \"tp2/auction.sol\":3058:3066  balances */\n      0x0a\n        /* \"tp2/auction.sol\":3058:3078  balances[bidders[i]] */\n      0x00\n        /* \"tp2/auction.sol\":3067:3074  bidders */\n      0x09\n        /* \"tp2/auction.sol\":3075:3076  i */\n      dup6\n        /* \"tp2/auction.sol\":3067:3077  bidders[i] */\n      dup2\n      sload\n      dup2\n      lt\n      tag_131\n      jumpi\n      tag_132\n      tag_47\n      jump\t// in\n    tag_132:\n    tag_131:\n      swap1\n      0x00\n      mstore\n      keccak256(0x00, 0x20)\n      add\n      0x00\n      swap1\n      sload\n      swap1\n      0x0100\n      exp\n      swap1\n      div\n      0xffffffffffffffffffffffffffffffffffffffff\n      and\n        /* \"tp2/auction.sol\":3058:3078  balances[bidders[i]] */\n      0xffffffffffffffffffffffffffffffffffffffff\n      and\n      0xffffffffffffffffffffffffffffffffffffffff\n      and\n      dup2\n      mstore\n      0x20\n      add\n      swap1\n      dup2\n      mstore\n      0x20\n      add\n      0x00\n      keccak256\n      0x00\n        /* \"tp2/auction.sol\":3051:3078  delete balances[bidders[i]] */\n      dup1\n      dup3\n      add\n      exp(0x0100, 0x00)\n      dup2\n      sload\n      swap1\n      0xff\n      mul\n      not\n      and\n      swap1\n      sstore\n      0x01\n      dup3\n      add\n      0x00\n      swap1\n      sstore\n      0x02\n      dup3\n      add\n      0x00\n      swap1\n      sstore\n      0x03\n      dup3\n      add\n      0x00\n      swap1\n      sstore\n      0x04\n      dup3\n      add\n      exp(0x0100, 0x00)\n      dup2\n      sload\n      swap1\n      0xffffffffffffffffffffffffffffffffffffffff\n      mul\n      not\n      and\n      swap1\n      sstore\n      pop\n      pop\n        /* \"tp2/auction.sol\":3252:3259  bidders */\n      0x09\n        /* \"tp2/auction.sol\":3260:3261  i */\n      dup4\n        /* \"tp2/auction.sol\":3252:3262  bidders[i] */\n      dup2\n      sload\n      dup2\n      lt\n      tag_134\n      jumpi\n      tag_135\n      tag_47\n      jump\t// in\n    tag_135:\n    tag_134:\n      swap1\n      0x00\n      mstore\n      keccak256(0x00, 0x20)\n      add\n      0x00\n      swap1\n      sload\n      swap1\n      0x0100\n      exp\n      swap1\n      div\n      0xffffffffffffffffffffffffffffffffffffffff\n      and\n        /* \"tp2/auction.sol\":3244:3268  payable(bidders[i]).send */\n      0xffffffffffffffffffffffffffffffffffffffff\n      and\n        /* \"tp2/auction.sol\":3244:3276  payable(bidders[i]).send(amount) */\n      0x08fc\n        /* \"tp2/auction.sol\":3269:3275  amount */\n      dup3\n        /* \"tp2/auction.sol\":3244:3276  payable(bidders[i]).send(amount) */\n      swap1\n      dup2\n      iszero\n      mul\n      swap1\n      mload(0x40)\n      0x00\n      mload(0x40)\n      dup1\n      dup4\n      sub\n      dup2\n      dup6\n      dup9\n      dup9\n      call\n      swap4\n      pop\n      pop\n      pop\n      pop\n        /* \"tp2/auction.sol\":3240:3344  if(!payable(bidders[i]).send(amount)){... */\n      tag_138\n      jumpi\n        /* \"tp2/auction.sol\":3322:3325  aux */\n      dup2\n        /* \"tp2/auction.sol\":3299:3307  balances */\n      0x0a\n        /* \"tp2/auction.sol\":3299:3319  balances[bidders[i]] */\n      0x00\n        /* \"tp2/auction.sol\":3308:3315  bidders */\n      0x09\n        /* \"tp2/auction.sol\":3316:3317  i */\n      dup7\n        /* \"tp2/auction.sol\":3308:3318  bidders[i] */\n      dup2\n      sload\n      dup2\n      lt\n      tag_139\n      jumpi\n      tag_140\n      tag_47\n      jump\t// in\n    tag_140:\n    tag_139:\n      swap1\n      0x00\n      mstore\n      keccak256(0x00, 0x20)\n      add\n      0x00\n      swap1\n      sload\n      swap1\n      0x0100\n      exp\n      swap1\n      div\n      0xffffffffffffffffffffffffffffffffffffffff\n      and\n        /* \"tp2/auction.sol\":3299:3319  balances[bidders[i]] */\n      0xffffffffffffffffffffffffffffffffffffffff\n      and\n      0xffffffffffffffffffffffffffffffffffffffff\n      and\n      dup2\n      mstore\n      0x20\n      add\n      swap1\n      dup2\n      mstore\n      0x20\n      add\n      0x00\n      keccak256\n        /* \"tp2/auction.sol\":3299:3325  balances[bidders[i]] = aux */\n      0x00\n      dup3\n      add\n      mload\n      dup2\n      0x00\n      add\n      exp(0x0100, 0x00)\n      dup2\n      sload\n      dup2\n      0xff\n      mul\n      not\n      and\n      swap1\n      dup4\n      iszero\n      iszero\n      mul\n      or\n      swap1\n      sstore\n      pop\n      0x20\n      dup3\n      add\n      mload\n      dup2\n      0x01\n      add\n      sstore\n      0x40\n      dup3\n      add\n      mload\n      dup2\n      0x02\n      add\n      sstore\n      0x60\n      dup3\n      add\n      mload\n      dup2\n      0x03\n      add\n      sstore\n      0x80\n      dup3\n      add\n      mload\n      dup2\n      0x04\n      add\n      exp(0x0100, 0x00)\n      dup2\n      sload\n      dup2\n      0xffffffffffffffffffffffffffffffffffffffff\n      mul\n      not\n      and\n      swap1\n      dup4\n      0xffffffffffffffffffffffffffffffffffffffff\n      and\n      mul\n      or\n      swap1\n      sstore\n      pop\n      swap1\n      pop\n      pop\n        /* \"tp2/auction.sol\":3240:3344  if(!payable(bidders[i]).send(amount)){... */\n    tag_138:\n        /* \"tp2/auction.sol\":2860:3358  {... */\n      pop\n      pop\n        /* \"tp2/auction.sol\":2829:3358  if(bidders[i] != lastBid.owner){... */\n    tag_120:\n        /* \"tp2/auction.sol\":2810:2813  i++ */\n      dup1\n      dup1\n      0x01\n      add\n      swap2\n      pop\n      pop\n        /* \"tp2/auction.sol\":2773:3368  for (uint i = 0; i < bidders.length; i++) {... */\n      jump(tag_114)\n    tag_115:\n      pop\n        /* \"tp2/auction.sol\":4181:4182  _ */\n      pop\n        /* \"tp2/auction.sol\":2622:3374  function close() external only(Rol.Admin) atStage(Stage.Finished) {... */\n      pop\n      jump\t// out\n        /* \"tp2/auction.sol\":3380:3532  function showWinner() external atStage(Stage.Finished) view returns (address winner, uint amount){... */\n    tag_19:\n        /* \"tp2/auction.sol\":3449:3463  address winner */\n      0x00\n        /* \"tp2/auction.sol\":3465:3476  uint amount */\n      dup1\n        /* \"tp2/auction.sol\":3419:3433  Stage.Finished */\n      0x01\n        /* \"tp2/auction.sol\":4249:4255  _stage */\n      dup1\n        /* \"tp2/auction.sol\":4240:4255  stage != _stage */\n      0x01\n      dup2\n      gt\n      iszero\n      tag_143\n      jumpi\n      tag_144\n      tag_28\n      jump\t// in\n    tag_144:\n    tag_143:\n        /* \"tp2/auction.sol\":4240:4245  stage */\n      0x01\n      0x00\n      swap1\n      sload\n      swap1\n      0x0100\n      exp\n      swap1\n      div\n      0xff\n      and\n        /* \"tp2/auction.sol\":4240:4255  stage != _stage */\n      0x01\n      dup2\n      gt\n      iszero\n      tag_145\n      jumpi\n      tag_146\n      tag_28\n      jump\t// in\n    tag_146:\n    tag_145:\n      eq\n        /* \"tp2/auction.sol\":4236:4300  if (stage != _stage)... */\n      tag_147\n      jumpi\n        /* \"tp2/auction.sol\":4294:4299  stage */\n      0x01\n      0x00\n      swap1\n      sload\n      swap1\n      0x0100\n      exp\n      swap1\n      div\n      0xff\n      and\n        /* \"tp2/auction.sol\":4276:4300  NotAllowedAtStage(stage) */\n      mload(0x40)\n      0xf1c25c2000000000000000000000000000000000000000000000000000000000\n      dup2\n      mstore\n      0x04\n      add\n      tag_148\n      swap2\n      swap1\n      tag_33\n      jump\t// in\n    tag_148:\n      mload(0x40)\n      dup1\n      swap2\n      sub\n      swap1\n      revert\n        /* \"tp2/auction.sol\":4236:4300  if (stage != _stage)... */\n    tag_147:\n        /* \"tp2/auction.sol\":3495:3502  lastBid */\n      0x02\n        /* \"tp2/auction.sol\":3495:3508  lastBid.owner */\n      0x04\n      add\n      0x00\n      swap1\n      sload\n      swap1\n      0x0100\n      exp\n      swap1\n      div\n      0xffffffffffffffffffffffffffffffffffffffff\n      and\n        /* \"tp2/auction.sol\":3510:3517  lastBid */\n      0x02\n        /* \"tp2/auction.sol\":3510:3524  lastBid.amount */\n      0x03\n      add\n      sload\n        /* \"tp2/auction.sol\":3487:3525  return (lastBid.owner, lastBid.amount) */\n      swap3\n      pop\n      swap3\n      pop\n        /* \"tp2/auction.sol\":3380:3532  function showWinner() external atStage(Stage.Finished) view returns (address winner, uint amount){... */\n      pop\n      swap1\n      swap2\n      jump\t// out\n        /* \"tp2/auction.sol\":1981:2367  function withdrawal() external timedTransitions only(Rol.Bidder) atStage(Stage.TakingBid)  {... */\n    tag_24:\n        /* \"tp2/auction.sol\":2412:2422  uint limit */\n      0x00\n        /* \"tp2/auction.sol\":2443:2457  completionTime */\n      dup1\n      sload\n        /* \"tp2/auction.sol\":2425:2440  block.timestamp */\n      timestamp\n        /* \"tp2/auction.sol\":2425:2457  block.timestamp < completionTime */\n      lt\n        /* \"tp2/auction.sol\":2425:2507  block.timestamp < completionTime ? completionTime : lastBid.timestamp + 10 minutes */\n      tag_151\n      jumpi\n        /* \"tp2/auction.sol\":2497:2507  10 minutes */\n      0x0258\n        /* \"tp2/auction.sol\":2477:2484  lastBid */\n      0x02\n        /* \"tp2/auction.sol\":2477:2494  lastBid.timestamp */\n      0x01\n      add\n      sload\n        /* \"tp2/auction.sol\":2477:2507  lastBid.timestamp + 10 minutes */\n      tag_152\n      swap2\n      swap1\n      tag_54\n      jump\t// in\n    tag_152:\n        /* \"tp2/auction.sol\":2425:2507  block.timestamp < completionTime ? completionTime : lastBid.timestamp + 10 minutes */\n      jump(tag_153)\n    tag_151:\n        /* \"tp2/auction.sol\":2460:2474  completionTime */\n      sload(0x00)\n        /* \"tp2/auction.sol\":2425:2507  block.timestamp < completionTime ? completionTime : lastBid.timestamp + 10 minutes */\n    tag_153:\n        /* \"tp2/auction.sol\":2412:2507  uint limit = block.timestamp < completionTime ? completionTime : lastBid.timestamp + 10 minutes */\n      swap1\n      pop\n        /* \"tp2/auction.sol\":2530:2545  Stage.TakingBid */\n      0x00\n        /* \"tp2/auction.sol\":2521:2545  stage == Stage.TakingBid */\n      0x01\n      dup2\n      gt\n      iszero\n      tag_154\n      jumpi\n      tag_155\n      tag_28\n      jump\t// in\n    tag_155:\n    tag_154:\n        /* \"tp2/auction.sol\":2521:2526  stage */\n      0x01\n      0x00\n      swap1\n      sload\n      swap1\n      0x0100\n      exp\n      swap1\n      div\n      0xff\n      and\n        /* \"tp2/auction.sol\":2521:2545  stage == Stage.TakingBid */\n      0x01\n      dup2\n      gt\n      iszero\n      tag_156\n      jumpi\n      tag_157\n      tag_28\n      jump\t// in\n    tag_157:\n    tag_156:\n      eq\n        /* \"tp2/auction.sol\":2521:2572  stage == Stage.TakingBid && block.timestamp > limit */\n      dup1\n      iszero\n      tag_158\n      jumpi\n      pop\n        /* \"tp2/auction.sol\":2567:2572  limit */\n      dup1\n        /* \"tp2/auction.sol\":2549:2564  block.timestamp */\n      timestamp\n        /* \"tp2/auction.sol\":2549:2572  block.timestamp > limit */\n      gt\n        /* \"tp2/auction.sol\":2521:2572  stage == Stage.TakingBid && block.timestamp > limit */\n    tag_158:\n        /* \"tp2/auction.sol\":2517:2597  if (stage == Stage.TakingBid && block.timestamp > limit)... */\n      iszero\n      tag_159\n      jumpi\n        /* \"tp2/auction.sol\":2586:2597  nextStage() */\n      tag_160\n        /* \"tp2/auction.sol\":2586:2595  nextStage */\n      tag_63\n        /* \"tp2/auction.sol\":2586:2597  nextStage() */\n      jump\t// in\n    tag_160:\n        /* \"tp2/auction.sol\":2517:2597  if (stage == Stage.TakingBid && block.timestamp > limit)... */\n    tag_159:\n        /* \"tp2/auction.sol\":2034:2044  Rol.Bidder */\n      0x01\n        /* \"tp2/auction.sol\":3944:3953  Rol.Admin */\n      0x00\n        /* \"tp2/auction.sol\":3937:3953  rol == Rol.Admin */\n      0x01\n      dup2\n      gt\n      iszero\n      tag_162\n      jumpi\n      tag_163\n      tag_28\n      jump\t// in\n    tag_163:\n    tag_162:\n        /* \"tp2/auction.sol\":3937:3940  rol */\n      dup2\n        /* \"tp2/auction.sol\":3937:3953  rol == Rol.Admin */\n      0x01\n      dup2\n      gt\n      iszero\n      tag_164\n      jumpi\n      tag_165\n      tag_28\n      jump\t// in\n    tag_165:\n    tag_164:\n      eq\n        /* \"tp2/auction.sol\":3937:3976  rol == Rol.Admin && msg.sender != admin */\n      dup1\n      iszero\n      tag_166\n      jumpi\n      pop\n        /* \"tp2/auction.sol\":3971:3976  admin */\n      0x07\n      0x00\n      swap1\n      sload\n      swap1\n      0x0100\n      exp\n      swap1\n      div\n      0xffffffffffffffffffffffffffffffffffffffff\n      and\n        /* \"tp2/auction.sol\":3957:3976  msg.sender != admin */\n      0xffffffffffffffffffffffffffffffffffffffff\n      and\n        /* \"tp2/auction.sol\":3957:3967  msg.sender */\n      caller\n        /* \"tp2/auction.sol\":3957:3976  msg.sender != admin */\n      0xffffffffffffffffffffffffffffffffffffffff\n      and\n      eq\n      iszero\n        /* \"tp2/auction.sol\":3937:3976  rol == Rol.Admin && msg.sender != admin */\n    tag_166:\n        /* \"tp2/auction.sol\":3934:4044  if(rol == Rol.Admin && msg.sender != admin)... */\n      iszero\n      tag_167\n      jumpi\n        /* \"tp2/auction.sol\":3997:4044  AccessNotAllowed(\"Only Admin User is allowed.\") */\n      mload(0x40)\n      0x58a3f3c000000000000000000000000000000000000000000000000000000000\n      dup2\n      mstore\n      0x04\n      add\n      tag_168\n      swap1\n      tag_93\n      jump\t// in\n    tag_168:\n      mload(0x40)\n      dup1\n      swap2\n      sub\n      swap1\n      revert\n        /* \"tp2/auction.sol\":3934:4044  if(rol == Rol.Admin && msg.sender != admin)... */\n    tag_167:\n        /* \"tp2/auction.sol\":4064:4074  Rol.Bidder */\n      0x01\n        /* \"tp2/auction.sol\":4057:4074  rol == Rol.Bidder */\n      dup1\n      dup2\n      gt\n      iszero\n      tag_169\n      jumpi\n      tag_170\n      tag_28\n      jump\t// in\n    tag_170:\n    tag_169:\n        /* \"tp2/auction.sol\":4057:4060  rol */\n      dup2\n        /* \"tp2/auction.sol\":4057:4074  rol == Rol.Bidder */\n      0x01\n      dup2\n      gt\n      iszero\n      tag_171\n      jumpi\n      tag_172\n      tag_28\n      jump\t// in\n    tag_172:\n    tag_171:\n      eq\n        /* \"tp2/auction.sol\":4057:4106  rol == Rol.Bidder && !balances[msg.sender].exists */\n      dup1\n      iszero\n      tag_173\n      jumpi\n      pop\n        /* \"tp2/auction.sol\":4079:4087  balances */\n      0x0a\n        /* \"tp2/auction.sol\":4079:4099  balances[msg.sender] */\n      0x00\n        /* \"tp2/auction.sol\":4088:4098  msg.sender */\n      caller\n        /* \"tp2/auction.sol\":4079:4099  balances[msg.sender] */\n      0xffffffffffffffffffffffffffffffffffffffff\n      and\n      0xffffffffffffffffffffffffffffffffffffffff\n      and\n      dup2\n      mstore\n      0x20\n      add\n      swap1\n      dup2\n      mstore\n      0x20\n      add\n      0x00\n      keccak256\n        /* \"tp2/auction.sol\":4079:4106  balances[msg.sender].exists */\n      0x00\n      add\n      0x00\n      swap1\n      sload\n      swap1\n      0x0100\n      exp\n      swap1\n      div\n      0xff\n      and\n        /* \"tp2/auction.sol\":4078:4106  !balances[msg.sender].exists */\n      iszero\n        /* \"tp2/auction.sol\":4057:4106  rol == Rol.Bidder && !balances[msg.sender].exists */\n    tag_173:\n        /* \"tp2/auction.sol\":4054:4171  if(rol == Rol.Bidder && !balances[msg.sender].exists)... */\n      iszero\n      tag_174\n      jumpi\n        /* \"tp2/auction.sol\":4127:4171  AccessNotAllowed(\"Only Bidder are allowed.\") */\n      mload(0x40)\n      0x58a3f3c000000000000000000000000000000000000000000000000000000000\n      dup2\n      mstore\n      0x04\n      add\n      tag_175\n      swap1\n      tag_101\n      jump\t// in\n    tag_175:\n      mload(0x40)\n      dup1\n      swap2\n      sub\n      swap1\n      revert\n        /* \"tp2/auction.sol\":4054:4171  if(rol == Rol.Bidder && !balances[msg.sender].exists)... */\n    tag_174:\n        /* \"tp2/auction.sol\":2054:2069  Stage.TakingBid */\n      0x00\n        /* \"tp2/auction.sol\":4249:4255  _stage */\n      dup1\n        /* \"tp2/auction.sol\":4240:4255  stage != _stage */\n      0x01\n      dup2\n      gt\n      iszero\n      tag_177\n      jumpi\n      tag_178\n      tag_28\n      jump\t// in\n    tag_178:\n    tag_177:\n        /* \"tp2/auction.sol\":4240:4245  stage */\n      0x01\n      0x00\n      swap1\n      sload\n      swap1\n      0x0100\n      exp\n      swap1\n      div\n      0xff\n      and\n        /* \"tp2/auction.sol\":4240:4255  stage != _stage */\n      0x01\n      dup2\n      gt\n      iszero\n      tag_179\n      jumpi\n      tag_180\n      tag_28\n      jump\t// in\n    tag_180:\n    tag_179:\n      eq\n        /* \"tp2/auction.sol\":4236:4300  if (stage != _stage)... */\n      tag_181\n      jumpi\n        /* \"tp2/auction.sol\":4294:4299  stage */\n      0x01\n      0x00\n      swap1\n      sload\n      swap1\n      0x0100\n      exp\n      swap1\n      div\n      0xff\n      and\n        /* \"tp2/auction.sol\":4276:4300  NotAllowedAtStage(stage) */\n      mload(0x40)\n      0xf1c25c2000000000000000000000000000000000000000000000000000000000\n      dup2\n      mstore\n      0x04\n      add\n      tag_182\n      swap2\n      swap1\n      tag_33\n      jump\t// in\n    tag_182:\n      mload(0x40)\n      dup1\n      swap2\n      sub\n      swap1\n      revert\n        /* \"tp2/auction.sol\":4236:4300  if (stage != _stage)... */\n    tag_181:\n        /* \"tp2/auction.sol\":2082:2096  uint remainder */\n      0x00\n        /* \"tp2/auction.sol\":2134:2142  balances */\n      0x0a\n        /* \"tp2/auction.sol\":2134:2154  balances[msg.sender] */\n      0x00\n        /* \"tp2/auction.sol\":2143:2153  msg.sender */\n      caller\n        /* \"tp2/auction.sol\":2134:2154  balances[msg.sender] */\n      0xffffffffffffffffffffffffffffffffffffffff\n      and\n      0xffffffffffffffffffffffffffffffffffffffff\n      and\n      dup2\n      mstore\n      0x20\n      add\n      swap1\n      dup2\n      mstore\n      0x20\n      add\n      0x00\n      keccak256\n        /* \"tp2/auction.sol\":2134:2161  balances[msg.sender].amount */\n      0x03\n      add\n      sload\n        /* \"tp2/auction.sol\":2099:2107  balances */\n      0x0a\n        /* \"tp2/auction.sol\":2099:2119  balances[msg.sender] */\n      0x00\n        /* \"tp2/auction.sol\":2108:2118  msg.sender */\n      caller\n        /* \"tp2/auction.sol\":2099:2119  balances[msg.sender] */\n      0xffffffffffffffffffffffffffffffffffffffff\n      and\n      0xffffffffffffffffffffffffffffffffffffffff\n      and\n      dup2\n      mstore\n      0x20\n      add\n      swap1\n      dup2\n      mstore\n      0x20\n      add\n      0x00\n      keccak256\n        /* \"tp2/auction.sol\":2099:2131  balances[msg.sender].accumulated */\n      0x02\n      add\n      sload\n        /* \"tp2/auction.sol\":2099:2161  balances[msg.sender].accumulated - balances[msg.sender].amount */\n      tag_184\n      swap2\n      swap1\n      tag_130\n      jump\t// in\n    tag_184:\n        /* \"tp2/auction.sol\":2082:2161  uint remainder = balances[msg.sender].accumulated - balances[msg.sender].amount */\n      swap1\n      pop\n        /* \"tp2/auction.sol\":2206:2214  balances */\n      0x0a\n        /* \"tp2/auction.sol\":2206:2226  balances[msg.sender] */\n      0x00\n        /* \"tp2/auction.sol\":2215:2225  msg.sender */\n      caller\n        /* \"tp2/auction.sol\":2206:2226  balances[msg.sender] */\n      0xffffffffffffffffffffffffffffffffffffffff\n      and\n      0xffffffffffffffffffffffffffffffffffffffff\n      and\n      dup2\n      mstore\n      0x20\n      add\n      swap1\n      dup2\n      mstore\n      0x20\n      add\n      0x00\n      keccak256\n        /* \"tp2/auction.sol\":2206:2233  balances[msg.sender].amount */\n      0x03\n      add\n      sload\n        /* \"tp2/auction.sol\":2171:2179  balances */\n      0x0a\n        /* \"tp2/auction.sol\":2171:2191  balances[msg.sender] */\n      0x00\n        /* \"tp2/auction.sol\":2180:2190  msg.sender */\n      caller\n        /* \"tp2/auction.sol\":2171:2191  balances[msg.sender] */\n      0xffffffffffffffffffffffffffffffffffffffff\n      and\n      0xffffffffffffffffffffffffffffffffffffffff\n      and\n      dup2\n      mstore\n      0x20\n      add\n      swap1\n      dup2\n      mstore\n      0x20\n      add\n      0x00\n      keccak256\n        /* \"tp2/auction.sol\":2171:2203  balances[msg.sender].accumulated */\n      0x02\n      add\n        /* \"tp2/auction.sol\":2171:2233  balances[msg.sender].accumulated = balances[msg.sender].amount */\n      dup2\n      swap1\n      sstore\n      pop\n        /* \"tp2/auction.sol\":2259:2260  0 */\n      0x00\n        /* \"tp2/auction.sol\":2246:2255  remainder */\n      dup2\n        /* \"tp2/auction.sol\":2246:2260  remainder <= 0 */\n      gt\n        /* \"tp2/auction.sol\":2243:2312  if(remainder <= 0){... */\n      tag_185\n      jumpi\n        /* \"tp2/auction.sol\":2282:2301  NothingToWithdraw() */\n      mload(0x40)\n      0xd0d04f6000000000000000000000000000000000000000000000000000000000\n      dup2\n      mstore\n      0x04\n      add\n      mload(0x40)\n      dup1\n      swap2\n      sub\n      swap1\n      revert\n        /* \"tp2/auction.sol\":2243:2312  if(remainder <= 0){... */\n    tag_185:\n        /* \"tp2/auction.sol\":2329:2339  msg.sender */\n      caller\n        /* \"tp2/auction.sol\":2321:2349  payable(msg.sender).transfer */\n      0xffffffffffffffffffffffffffffffffffffffff\n      and\n        /* \"tp2/auction.sol\":2321:2360  payable(msg.sender).transfer(remainder) */\n      0x08fc\n        /* \"tp2/auction.sol\":2350:2359  remainder */\n      dup3\n        /* \"tp2/auction.sol\":2321:2360  payable(msg.sender).transfer(remainder) */\n      swap1\n      dup2\n      iszero\n      mul\n      swap1\n      mload(0x40)\n      0x00\n      mload(0x40)\n      dup1\n      dup4\n      sub\n      dup2\n      dup6\n      dup9\n      dup9\n      call\n      swap4\n      pop\n      pop\n      pop\n      pop\n      iszero\n      dup1\n      iszero\n      tag_187\n      jumpi\n      returndatasize\n      0x00\n      dup1\n      returndatacopy\n      revert(0x00, returndatasize)\n    tag_187:\n      pop\n        /* \"tp2/auction.sol\":2072:2367  {... */\n      pop\n        /* \"tp2/auction.sol\":4181:4182  _ */\n      pop\n        /* \"tp2/auction.sol\":2607:2608  _ */\n      pop\n        /* \"tp2/auction.sol\":2402:2615  {... */\n      pop\n        /* \"tp2/auction.sol\":1981:2367  function withdrawal() external timedTransitions only(Rol.Bidder) atStage(Stage.TakingBid)  {... */\n      jump\t// out\n        /* \"tp2/auction.sol\":3817:3894  function nextStage() internal {... */\n    tag_63:\n        /* \"tp2/auction.sol\":3885:3886  1 */\n      0x01\n        /* \"tp2/auction.sol\":3876:3881  stage */\n      dup1\n      0x00\n      swap1\n      sload\n      swap1\n      0x0100\n      exp\n      swap1\n      div\n      0xff\n      and\n        /* \"tp2/auction.sol\":3871:3882  uint(stage) */\n      0x01\n      dup2\n      gt\n      iszero\n      tag_189\n      jumpi\n      tag_190\n      tag_28\n      jump\t// in\n    tag_190:\n    tag_189:\n        /* \"tp2/auction.sol\":3871:3886  uint(stage) + 1 */\n      tag_191\n      swap2\n      swap1\n      tag_54\n      jump\t// in\n    tag_191:\n        /* \"tp2/auction.sol\":3865:3887  Stage(uint(stage) + 1) */\n      0x01\n      dup2\n      gt\n      iszero\n      tag_192\n      jumpi\n      tag_193\n      tag_28\n      jump\t// in\n    tag_193:\n    tag_192:\n        /* \"tp2/auction.sol\":3857:3862  stage */\n      0x01\n      0x00\n        /* \"tp2/auction.sol\":3857:3887  stage = Stage(uint(stage) + 1) */\n      0x0100\n      exp\n      dup2\n      sload\n      dup2\n      0xff\n      mul\n      not\n      and\n      swap1\n      dup4\n      0x01\n      dup2\n      gt\n      iszero\n      tag_194\n      jumpi\n      tag_195\n      tag_28\n      jump\t// in\n    tag_195:\n    tag_194:\n      mul\n      or\n      swap1\n      sstore\n      pop\n        /* \"tp2/auction.sol\":3817:3894  function nextStage() internal {... */\n      jump\t// out\n    tag_41:\n      mload(0x40)\n      dup1\n      0xa0\n      add\n      0x40\n      mstore\n      dup1\n      iszero(iszero(0x00))\n      dup2\n      mstore\n      0x20\n      add\n      0x00\n      dup2\n      mstore\n      0x20\n      add\n      0x00\n      dup2\n      mstore\n      0x20\n      add\n      0x00\n      dup2\n      mstore\n      0x20\n      add\n      and(0xffffffffffffffffffffffffffffffffffffffff, 0x00)\n      dup2\n      mstore\n      pop\n      swap1\n      jump\t// out\n        /* \"#utility.yul\":7:140   */\n    tag_196:\n        /* \"#utility.yul\":93:99   */\n      0x00\n        /* \"#utility.yul\":127:132   */\n      dup2\n        /* \"#utility.yul\":121:133   */\n      mload\n        /* \"#utility.yul\":111:133   */\n      swap1\n      pop\n        /* \"#utility.yul\":7:140   */\n      swap2\n      swap1\n      pop\n      jump\t// out\n        /* \"#utility.yul\":146:349   */\n    tag_197:\n        /* \"#utility.yul\":264:275   */\n      0x00\n        /* \"#utility.yul\":298:304   */\n      dup3\n        /* \"#utility.yul\":293:296   */\n      dup3\n        /* \"#utility.yul\":286:305   */\n      mstore\n        /* \"#utility.yul\":338:342   */\n      0x20\n        /* \"#utility.yul\":333:336   */\n      dup3\n        /* \"#utility.yul\":329:343   */\n      add\n        /* \"#utility.yul\":314:343   */\n      swap1\n      pop\n        /* \"#utility.yul\":146:349   */\n      swap3\n      swap2\n      pop\n      pop\n      jump\t// out\n        /* \"#utility.yul\":355:506   */\n    tag_198:\n        /* \"#utility.yul\":441:445   */\n      0x00\n        /* \"#utility.yul\":464:467   */\n      dup2\n        /* \"#utility.yul\":456:467   */\n      swap1\n      pop\n        /* \"#utility.yul\":494:498   */\n      0x20\n        /* \"#utility.yul\":489:492   */\n      dup3\n        /* \"#utility.yul\":485:499   */\n      add\n        /* \"#utility.yul\":477:499   */\n      swap1\n      pop\n        /* \"#utility.yul\":355:506   */\n      swap2\n      swap1\n      pop\n      jump\t// out\n        /* \"#utility.yul\":512:602   */\n    tag_199:\n        /* \"#utility.yul\":546:553   */\n      0x00\n        /* \"#utility.yul\":589:594   */\n      dup2\n        /* \"#utility.yul\":582:595   */\n      iszero\n        /* \"#utility.yul\":575:596   */\n      iszero\n        /* \"#utility.yul\":564:596   */\n      swap1\n      pop\n        /* \"#utility.yul\":512:602   */\n      swap2\n      swap1\n      pop\n      jump\t// out\n        /* \"#utility.yul\":608:707   */\n    tag_200:\n        /* \"#utility.yul\":679:700   */\n      tag_236\n        /* \"#utility.yul\":694:699   */\n      dup2\n        /* \"#utility.yul\":679:700   */\n      tag_199\n      jump\t// in\n    tag_236:\n        /* \"#utility.yul\":674:677   */\n      dup3\n        /* \"#utility.yul\":667:701   */\n      mstore\n        /* \"#utility.yul\":608:707   */\n      pop\n      pop\n      jump\t// out\n        /* \"#utility.yul\":713:790   */\n    tag_201:\n        /* \"#utility.yul\":750:757   */\n      0x00\n        /* \"#utility.yul\":779:784   */\n      dup2\n        /* \"#utility.yul\":768:784   */\n      swap1\n      pop\n        /* \"#utility.yul\":713:790   */\n      swap2\n      swap1\n      pop\n      jump\t// out\n        /* \"#utility.yul\":796:904   */\n    tag_202:\n        /* \"#utility.yul\":873:897   */\n      tag_239\n        /* \"#utility.yul\":891:896   */\n      dup2\n        /* \"#utility.yul\":873:897   */\n      tag_201\n      jump\t// in\n    tag_239:\n        /* \"#utility.yul\":868:871   */\n      dup3\n        /* \"#utility.yul\":861:898   */\n      mstore\n        /* \"#utility.yul\":796:904   */\n      pop\n      pop\n      jump\t// out\n        /* \"#utility.yul\":910:1036   */\n    tag_203:\n        /* \"#utility.yul\":947:954   */\n      0x00\n        /* \"#utility.yul\":987:1029   */\n      0xffffffffffffffffffffffffffffffffffffffff\n        /* \"#utility.yul\":980:985   */\n      dup3\n        /* \"#utility.yul\":976:1030   */\n      and\n        /* \"#utility.yul\":965:1030   */\n      swap1\n      pop\n        /* \"#utility.yul\":910:1036   */\n      swap2\n      swap1\n      pop\n      jump\t// out\n        /* \"#utility.yul\":1042:1138   */\n    tag_204:\n        /* \"#utility.yul\":1079:1086   */\n      0x00\n        /* \"#utility.yul\":1108:1132   */\n      tag_242\n        /* \"#utility.yul\":1126:1131   */\n      dup3\n        /* \"#utility.yul\":1108:1132   */\n      tag_203\n      jump\t// in\n    tag_242:\n        /* \"#utility.yul\":1097:1132   */\n      swap1\n      pop\n        /* \"#utility.yul\":1042:1138   */\n      swap2\n      swap1\n      pop\n      jump\t// out\n        /* \"#utility.yul\":1144:1252   */\n    tag_205:\n        /* \"#utility.yul\":1221:1245   */\n      tag_244\n        /* \"#utility.yul\":1239:1244   */\n      dup2\n        /* \"#utility.yul\":1221:1245   */\n      tag_204\n      jump\t// in\n    tag_244:\n        /* \"#utility.yul\":1216:1219   */\n      dup3\n        /* \"#utility.yul\":1209:1246   */\n      mstore\n        /* \"#utility.yul\":1144:1252   */\n      pop\n      pop\n      jump\t// out\n        /* \"#utility.yul\":1306:2324   */\n    tag_206:\n        /* \"#utility.yul\":1431:1435   */\n      0xa0\n        /* \"#utility.yul\":1426:1429   */\n      dup3\n        /* \"#utility.yul\":1422:1436   */\n      add\n        /* \"#utility.yul\":1520:1524   */\n      0x00\n        /* \"#utility.yul\":1513:1518   */\n      dup3\n        /* \"#utility.yul\":1509:1525   */\n      add\n        /* \"#utility.yul\":1503:1526   */\n      mload\n        /* \"#utility.yul\":1539:1596   */\n      tag_246\n        /* \"#utility.yul\":1590:1594   */\n      0x00\n        /* \"#utility.yul\":1585:1588   */\n      dup6\n        /* \"#utility.yul\":1581:1595   */\n      add\n        /* \"#utility.yul\":1567:1579   */\n      dup3\n        /* \"#utility.yul\":1539:1596   */\n      tag_200\n      jump\t// in\n    tag_246:\n        /* \"#utility.yul\":1446:1606   */\n      pop\n        /* \"#utility.yul\":1693:1697   */\n      0x20\n        /* \"#utility.yul\":1686:1691   */\n      dup3\n        /* \"#utility.yul\":1682:1698   */\n      add\n        /* \"#utility.yul\":1676:1699   */\n      mload\n        /* \"#utility.yul\":1712:1775   */\n      tag_247\n        /* \"#utility.yul\":1769:1773   */\n      0x20\n        /* \"#utility.yul\":1764:1767   */\n      dup6\n        /* \"#utility.yul\":1760:1774   */\n      add\n        /* \"#utility.yul\":1746:1758   */\n      dup3\n        /* \"#utility.yul\":1712:1775   */\n      tag_202\n      jump\t// in\n    tag_247:\n        /* \"#utility.yul\":1616:1785   */\n      pop\n        /* \"#utility.yul\":1874:1878   */\n      0x40\n        /* \"#utility.yul\":1867:1872   */\n      dup3\n        /* \"#utility.yul\":1863:1879   */\n      add\n        /* \"#utility.yul\":1857:1880   */\n      mload\n        /* \"#utility.yul\":1893:1956   */\n      tag_248\n        /* \"#utility.yul\":1950:1954   */\n      0x40\n        /* \"#utility.yul\":1945:1948   */\n      dup6\n        /* \"#utility.yul\":1941:1955   */\n      add\n        /* \"#utility.yul\":1927:1939   */\n      dup3\n        /* \"#utility.yul\":1893:1956   */\n      tag_202\n      jump\t// in\n    tag_248:\n        /* \"#utility.yul\":1795:1966   */\n      pop\n        /* \"#utility.yul\":2050:2054   */\n      0x60\n        /* \"#utility.yul\":2043:2048   */\n      dup3\n        /* \"#utility.yul\":2039:2055   */\n      add\n        /* \"#utility.yul\":2033:2056   */\n      mload\n        /* \"#utility.yul\":2069:2132   */\n      tag_249\n        /* \"#utility.yul\":2126:2130   */\n      0x60\n        /* \"#utility.yul\":2121:2124   */\n      dup6\n        /* \"#utility.yul\":2117:2131   */\n      add\n        /* \"#utility.yul\":2103:2115   */\n      dup3\n        /* \"#utility.yul\":2069:2132   */\n      tag_202\n      jump\t// in\n    tag_249:\n        /* \"#utility.yul\":1976:2142   */\n      pop\n        /* \"#utility.yul\":2225:2229   */\n      0x80\n        /* \"#utility.yul\":2218:2223   */\n      dup3\n        /* \"#utility.yul\":2214:2230   */\n      add\n        /* \"#utility.yul\":2208:2231   */\n      mload\n        /* \"#utility.yul\":2244:2307   */\n      tag_250\n        /* \"#utility.yul\":2301:2305   */\n      0x80\n        /* \"#utility.yul\":2296:2299   */\n      dup6\n        /* \"#utility.yul\":2292:2306   */\n      add\n        /* \"#utility.yul\":2278:2290   */\n      dup3\n        /* \"#utility.yul\":2244:2307   */\n      tag_205\n      jump\t// in\n    tag_250:\n        /* \"#utility.yul\":2152:2317   */\n      pop\n        /* \"#utility.yul\":1400:2324   */\n      pop\n        /* \"#utility.yul\":1306:2324   */\n      pop\n      pop\n      jump\t// out\n        /* \"#utility.yul\":2330:2585   */\n    tag_207:\n        /* \"#utility.yul\":2437:2447   */\n      0x00\n        /* \"#utility.yul\":2458:2542   */\n      tag_252\n        /* \"#utility.yul\":2538:2541   */\n      dup4\n        /* \"#utility.yul\":2530:2536   */\n      dup4\n        /* \"#utility.yul\":2458:2542   */\n      tag_206\n      jump\t// in\n    tag_252:\n        /* \"#utility.yul\":2574:2578   */\n      0xa0\n        /* \"#utility.yul\":2569:2572   */\n      dup4\n        /* \"#utility.yul\":2565:2579   */\n      add\n        /* \"#utility.yul\":2551:2579   */\n      swap1\n      pop\n        /* \"#utility.yul\":2330:2585   */\n      swap3\n      swap2\n      pop\n      pop\n      jump\t// out\n        /* \"#utility.yul\":2591:2723   */\n    tag_208:\n        /* \"#utility.yul\":2680:2684   */\n      0x00\n        /* \"#utility.yul\":2712:2716   */\n      0x20\n        /* \"#utility.yul\":2707:2710   */\n      dup3\n        /* \"#utility.yul\":2703:2717   */\n      add\n        /* \"#utility.yul\":2695:2717   */\n      swap1\n      pop\n        /* \"#utility.yul\":2591:2723   */\n      swap2\n      swap1\n      pop\n      jump\t// out\n        /* \"#utility.yul\":2781:3665   */\n    tag_209:\n        /* \"#utility.yul\":2938:2941   */\n      0x00\n        /* \"#utility.yul\":2967:3040   */\n      tag_255\n        /* \"#utility.yul\":3034:3039   */\n      dup3\n        /* \"#utility.yul\":2967:3040   */\n      tag_196\n      jump\t// in\n    tag_255:\n        /* \"#utility.yul\":3056:3161   */\n      tag_256\n        /* \"#utility.yul\":3154:3160   */\n      dup2\n        /* \"#utility.yul\":3149:3152   */\n      dup6\n        /* \"#utility.yul\":3056:3161   */\n      tag_197\n      jump\t// in\n    tag_256:\n        /* \"#utility.yul\":3049:3161   */\n      swap4\n      pop\n        /* \"#utility.yul\":3185:3260   */\n      tag_257\n        /* \"#utility.yul\":3254:3259   */\n      dup4\n        /* \"#utility.yul\":3185:3260   */\n      tag_198\n      jump\t// in\n    tag_257:\n        /* \"#utility.yul\":3283:3290   */\n      dup1\n        /* \"#utility.yul\":3314:3315   */\n      0x00\n        /* \"#utility.yul\":3299:3640   */\n    tag_258:\n        /* \"#utility.yul\":3324:3330   */\n      dup4\n        /* \"#utility.yul\":3321:3322   */\n      dup2\n        /* \"#utility.yul\":3318:3331   */\n      lt\n        /* \"#utility.yul\":3299:3640   */\n      iszero\n      tag_260\n      jumpi\n        /* \"#utility.yul\":3400:3406   */\n      dup2\n        /* \"#utility.yul\":3394:3407   */\n      mload\n        /* \"#utility.yul\":3427:3528   */\n      tag_261\n        /* \"#utility.yul\":3524:3527   */\n      dup9\n        /* \"#utility.yul\":3509:3522   */\n      dup3\n        /* \"#utility.yul\":3427:3528   */\n      tag_207\n      jump\t// in\n    tag_261:\n        /* \"#utility.yul\":3420:3528   */\n      swap8\n      pop\n        /* \"#utility.yul\":3551:3630   */\n      tag_262\n        /* \"#utility.yul\":3623:3629   */\n      dup4\n        /* \"#utility.yul\":3551:3630   */\n      tag_208\n      jump\t// in\n    tag_262:\n        /* \"#utility.yul\":3541:3630   */\n      swap3\n      pop\n        /* \"#utility.yul\":3359:3640   */\n      pop\n        /* \"#utility.yul\":3346:3347   */\n      0x01\n        /* \"#utility.yul\":3343:3344   */\n      dup2\n        /* \"#utility.yul\":3339:3348   */\n      add\n        /* \"#utility.yul\":3334:3348   */\n      swap1\n      pop\n        /* \"#utility.yul\":3299:3640   */\n      jump(tag_258)\n    tag_260:\n        /* \"#utility.yul\":3303:3317   */\n      pop\n        /* \"#utility.yul\":3656:3659   */\n      dup6\n        /* \"#utility.yul\":3649:3659   */\n      swap4\n      pop\n        /* \"#utility.yul\":2943:3665   */\n      pop\n      pop\n      pop\n        /* \"#utility.yul\":2781:3665   */\n      swap3\n      swap2\n      pop\n      pop\n      jump\t// out\n        /* \"#utility.yul\":3671:4120   */\n    tag_11:\n        /* \"#utility.yul\":3852:3856   */\n      0x00\n        /* \"#utility.yul\":3890:3892   */\n      0x20\n        /* \"#utility.yul\":3879:3888   */\n      dup3\n        /* \"#utility.yul\":3875:3893   */\n      add\n        /* \"#utility.yul\":3867:3893   */\n      swap1\n      pop\n        /* \"#utility.yul\":3939:3948   */\n      dup2\n        /* \"#utility.yul\":3933:3937   */\n      dup2\n        /* \"#utility.yul\":3929:3949   */\n      sub\n        /* \"#utility.yul\":3925:3926   */\n      0x00\n        /* \"#utility.yul\":3914:3923   */\n      dup4\n        /* \"#utility.yul\":3910:3927   */\n      add\n        /* \"#utility.yul\":3903:3950   */\n      mstore\n        /* \"#utility.yul\":3967:4113   */\n      tag_264\n        /* \"#utility.yul\":4108:4112   */\n      dup2\n        /* \"#utility.yul\":4099:4105   */\n      dup5\n        /* \"#utility.yul\":3967:4113   */\n      tag_209\n      jump\t// in\n    tag_264:\n        /* \"#utility.yul\":3959:4113   */\n      swap1\n      pop\n        /* \"#utility.yul\":3671:4120   */\n      swap3\n      swap2\n      pop\n      pop\n      jump\t// out\n        /* \"#utility.yul\":4126:4244   */\n    tag_210:\n        /* \"#utility.yul\":4213:4237   */\n      tag_266\n        /* \"#utility.yul\":4231:4236   */\n      dup2\n        /* \"#utility.yul\":4213:4237   */\n      tag_204\n      jump\t// in\n    tag_266:\n        /* \"#utility.yul\":4208:4211   */\n      dup3\n        /* \"#utility.yul\":4201:4238   */\n      mstore\n        /* \"#utility.yul\":4126:4244   */\n      pop\n      pop\n      jump\t// out\n        /* \"#utility.yul\":4250:4368   */\n    tag_211:\n        /* \"#utility.yul\":4337:4361   */\n      tag_268\n        /* \"#utility.yul\":4355:4360   */\n      dup2\n        /* \"#utility.yul\":4337:4361   */\n      tag_201\n      jump\t// in\n    tag_268:\n        /* \"#utility.yul\":4332:4335   */\n      dup3\n        /* \"#utility.yul\":4325:4362   */\n      mstore\n        /* \"#utility.yul\":4250:4368   */\n      pop\n      pop\n      jump\t// out\n        /* \"#utility.yul\":4374:4706   */\n    tag_21:\n        /* \"#utility.yul\":4495:4499   */\n      0x00\n        /* \"#utility.yul\":4533:4535   */\n      0x40\n        /* \"#utility.yul\":4522:4531   */\n      dup3\n        /* \"#utility.yul\":4518:4536   */\n      add\n        /* \"#utility.yul\":4510:4536   */\n      swap1\n      pop\n        /* \"#utility.yul\":4546:4617   */\n      tag_270\n        /* \"#utility.yul\":4614:4615   */\n      0x00\n        /* \"#utility.yul\":4603:4612   */\n      dup4\n        /* \"#utility.yul\":4599:4616   */\n      add\n        /* \"#utility.yul\":4590:4596   */\n      dup6\n        /* \"#utility.yul\":4546:4617   */\n      tag_210\n      jump\t// in\n    tag_270:\n        /* \"#utility.yul\":4627:4699   */\n      tag_271\n        /* \"#utility.yul\":4695:4697   */\n      0x20\n        /* \"#utility.yul\":4684:4693   */\n      dup4\n        /* \"#utility.yul\":4680:4698   */\n      add\n        /* \"#utility.yul\":4671:4677   */\n      dup5\n        /* \"#utility.yul\":4627:4699   */\n      tag_211\n      jump\t// in\n    tag_271:\n        /* \"#utility.yul\":4374:4706   */\n      swap4\n      swap3\n      pop\n      pop\n      pop\n      jump\t// out\n        /* \"#utility.yul\":4712:4892   */\n    tag_28:\n        /* \"#utility.yul\":4760:4837   */\n      0x4e487b7100000000000000000000000000000000000000000000000000000000\n        /* \"#utility.yul\":4757:4758   */\n      0x00\n        /* \"#utility.yul\":4750:4838   */\n      mstore\n        /* \"#utility.yul\":4857:4861   */\n      0x21\n        /* \"#utility.yul\":4854:4855   */\n      0x04\n        /* \"#utility.yul\":4847:4862   */\n      mstore\n        /* \"#utility.yul\":4881:4885   */\n      0x24\n        /* \"#utility.yul\":4878:4879   */\n      0x00\n        /* \"#utility.yul\":4871:4886   */\n      revert\n        /* \"#utility.yul\":4898:5011   */\n    tag_212:\n        /* \"#utility.yul\":4979:4980   */\n      0x02\n        /* \"#utility.yul\":4972:4977   */\n      dup2\n        /* \"#utility.yul\":4969:4981   */\n      lt\n        /* \"#utility.yul\":4959:5005   */\n      tag_274\n      jumpi\n        /* \"#utility.yul\":4985:5003   */\n      tag_275\n      tag_28\n      jump\t// in\n    tag_275:\n        /* \"#utility.yul\":4959:5005   */\n    tag_274:\n        /* \"#utility.yul\":4898:5011   */\n      pop\n      jump\t// out\n        /* \"#utility.yul\":5017:5144   */\n    tag_213:\n        /* \"#utility.yul\":5062:5069   */\n      0x00\n        /* \"#utility.yul\":5091:5096   */\n      dup2\n        /* \"#utility.yul\":5080:5096   */\n      swap1\n      pop\n        /* \"#utility.yul\":5097:5138   */\n      tag_277\n        /* \"#utility.yul\":5132:5137   */\n      dup3\n        /* \"#utility.yul\":5097:5138   */\n      tag_212\n      jump\t// in\n    tag_277:\n        /* \"#utility.yul\":5017:5144   */\n      swap2\n      swap1\n      pop\n      jump\t// out\n        /* \"#utility.yul\":5150:5277   */\n    tag_214:\n        /* \"#utility.yul\":5206:5215   */\n      0x00\n        /* \"#utility.yul\":5239:5271   */\n      tag_279\n        /* \"#utility.yul\":5265:5270   */\n      dup3\n        /* \"#utility.yul\":5239:5271   */\n      tag_213\n      jump\t// in\n    tag_279:\n        /* \"#utility.yul\":5226:5271   */\n      swap1\n      pop\n        /* \"#utility.yul\":5150:5277   */\n      swap2\n      swap1\n      pop\n      jump\t// out\n        /* \"#utility.yul\":5283:5426   */\n    tag_215:\n        /* \"#utility.yul\":5376:5419   */\n      tag_281\n        /* \"#utility.yul\":5413:5418   */\n      dup2\n        /* \"#utility.yul\":5376:5419   */\n      tag_214\n      jump\t// in\n    tag_281:\n        /* \"#utility.yul\":5371:5374   */\n      dup3\n        /* \"#utility.yul\":5364:5420   */\n      mstore\n        /* \"#utility.yul\":5283:5426   */\n      pop\n      pop\n      jump\t// out\n        /* \"#utility.yul\":5432:5666   */\n    tag_33:\n        /* \"#utility.yul\":5531:5535   */\n      0x00\n        /* \"#utility.yul\":5569:5571   */\n      0x20\n        /* \"#utility.yul\":5558:5567   */\n      dup3\n        /* \"#utility.yul\":5554:5572   */\n      add\n        /* \"#utility.yul\":5546:5572   */\n      swap1\n      pop\n        /* \"#utility.yul\":5582:5659   */\n      tag_283\n        /* \"#utility.yul\":5656:5657   */\n      0x00\n        /* \"#utility.yul\":5645:5654   */\n      dup4\n        /* \"#utility.yul\":5641:5658   */\n      add\n        /* \"#utility.yul\":5632:5638   */\n      dup5\n        /* \"#utility.yul\":5582:5659   */\n      tag_215\n      jump\t// in\n    tag_283:\n        /* \"#utility.yul\":5432:5666   */\n      swap3\n      swap2\n      pop\n      pop\n      jump\t// out\n        /* \"#utility.yul\":5672:5852   */\n    tag_37:\n        /* \"#utility.yul\":5720:5797   */\n      0x4e487b7100000000000000000000000000000000000000000000000000000000\n        /* \"#utility.yul\":5717:5718   */\n      0x00\n        /* \"#utility.yul\":5710:5798   */\n      mstore\n        /* \"#utility.yul\":5817:5821   */\n      0x41\n        /* \"#utility.yul\":5814:5815   */\n      0x04\n        /* \"#utility.yul\":5807:5822   */\n      mstore\n        /* \"#utility.yul\":5841:5845   */\n      0x24\n        /* \"#utility.yul\":5838:5839   */\n      0x00\n        /* \"#utility.yul\":5831:5846   */\n      revert\n        /* \"#utility.yul\":5858:6038   */\n    tag_47:\n        /* \"#utility.yul\":5906:5983   */\n      0x4e487b7100000000000000000000000000000000000000000000000000000000\n        /* \"#utility.yul\":5903:5904   */\n      0x00\n        /* \"#utility.yul\":5896:5984   */\n      mstore\n        /* \"#utility.yul\":6003:6007   */\n      0x32\n        /* \"#utility.yul\":6000:6001   */\n      0x04\n        /* \"#utility.yul\":5993:6008   */\n      mstore\n        /* \"#utility.yul\":6027:6031   */\n      0x24\n        /* \"#utility.yul\":6024:6025   */\n      0x00\n        /* \"#utility.yul\":6017:6032   */\n      revert\n        /* \"#utility.yul\":6044:6224   */\n    tag_216:\n        /* \"#utility.yul\":6092:6169   */\n      0x4e487b7100000000000000000000000000000000000000000000000000000000\n        /* \"#utility.yul\":6089:6090   */\n      0x00\n        /* \"#utility.yul\":6082:6170   */\n      mstore\n        /* \"#utility.yul\":6189:6193   */\n      0x11\n        /* \"#utility.yul\":6186:6187   */\n      0x04\n        /* \"#utility.yul\":6179:6194   */\n      mstore\n        /* \"#utility.yul\":6213:6217   */\n      0x24\n        /* \"#utility.yul\":6210:6211   */\n      0x00\n        /* \"#utility.yul\":6203:6218   */\n      revert\n        /* \"#utility.yul\":6230:6421   */\n    tag_54:\n        /* \"#utility.yul\":6270:6273   */\n      0x00\n        /* \"#utility.yul\":6289:6309   */\n      tag_288\n        /* \"#utility.yul\":6307:6308   */\n      dup3\n        /* \"#utility.yul\":6289:6309   */\n      tag_201\n      jump\t// in\n    tag_288:\n        /* \"#utility.yul\":6284:6309   */\n      swap2\n      pop\n        /* \"#utility.yul\":6323:6343   */\n      tag_289\n        /* \"#utility.yul\":6341:6342   */\n      dup4\n        /* \"#utility.yul\":6323:6343   */\n      tag_201\n      jump\t// in\n    tag_289:\n        /* \"#utility.yul\":6318:6343   */\n      swap3\n      pop\n        /* \"#utility.yul\":6366:6367   */\n      dup3\n        /* \"#utility.yul\":6363:6364   */\n      dup3\n        /* \"#utility.yul\":6359:6368   */\n      add\n        /* \"#utility.yul\":6352:6368   */\n      swap1\n      pop\n        /* \"#utility.yul\":6387:6390   */\n      dup1\n        /* \"#utility.yul\":6384:6385   */\n      dup3\n        /* \"#utility.yul\":6381:6391   */\n      gt\n        /* \"#utility.yul\":6378:6414   */\n      iszero\n      tag_290\n      jumpi\n        /* \"#utility.yul\":6394:6412   */\n      tag_291\n      tag_216\n      jump\t// in\n    tag_291:\n        /* \"#utility.yul\":6378:6414   */\n    tag_290:\n        /* \"#utility.yul\":6230:6421   */\n      swap3\n      swap2\n      pop\n      pop\n      jump\t// out\n        /* \"#utility.yul\":6427:6837   */\n    tag_73:\n        /* \"#utility.yul\":6467:6474   */\n      0x00\n        /* \"#utility.yul\":6490:6510   */\n      tag_293\n        /* \"#utility.yul\":6508:6509   */\n      dup3\n        /* \"#utility.yul\":6490:6510   */\n      tag_201\n      jump\t// in\n    tag_293:\n        /* \"#utility.yul\":6485:6510   */\n      swap2\n      pop\n        /* \"#utility.yul\":6524:6544   */\n      tag_294\n        /* \"#utility.yul\":6542:6543   */\n      dup4\n        /* \"#utility.yul\":6524:6544   */\n      tag_201\n      jump\t// in\n    tag_294:\n        /* \"#utility.yul\":6519:6544   */\n      swap3\n      pop\n        /* \"#utility.yul\":6579:6580   */\n      dup3\n        /* \"#utility.yul\":6576:6577   */\n      dup3\n        /* \"#utility.yul\":6572:6581   */\n      mul\n        /* \"#utility.yul\":6601:6631   */\n      tag_295\n        /* \"#utility.yul\":6619:6630   */\n      dup2\n        /* \"#utility.yul\":6601:6631   */\n      tag_201\n      jump\t// in\n    tag_295:\n        /* \"#utility.yul\":6590:6631   */\n      swap2\n      pop\n        /* \"#utility.yul\":6780:6781   */\n      dup3\n        /* \"#utility.yul\":6771:6778   */\n      dup3\n        /* \"#utility.yul\":6767:6782   */\n      div\n        /* \"#utility.yul\":6764:6765   */\n      dup5\n        /* \"#utility.yul\":6761:6783   */\n      eq\n        /* \"#utility.yul\":6741:6742   */\n      dup4\n        /* \"#utility.yul\":6734:6743   */\n      iszero\n        /* \"#utility.yul\":6714:6797   */\n      or\n        /* \"#utility.yul\":6691:6830   */\n      tag_296\n      jumpi\n        /* \"#utility.yul\":6810:6828   */\n      tag_297\n      tag_216\n      jump\t// in\n    tag_297:\n        /* \"#utility.yul\":6691:6830   */\n    tag_296:\n        /* \"#utility.yul\":6475:6837   */\n      pop\n        /* \"#utility.yul\":6427:6837   */\n      swap3\n      swap2\n      pop\n      pop\n      jump\t// out\n        /* \"#utility.yul\":6843:7023   */\n    tag_217:\n        /* \"#utility.yul\":6891:6968   */\n      0x4e487b7100000000000000000000000000000000000000000000000000000000\n        /* \"#utility.yul\":6888:6889   */\n      0x00\n        /* \"#utility.yul\":6881:6969   */\n      mstore\n        /* \"#utility.yul\":6988:6992   */\n      0x12\n        /* \"#utility.yul\":6985:6986   */\n      0x04\n        /* \"#utility.yul\":6978:6993   */\n      mstore\n        /* \"#utility.yul\":7012:7016   */\n      0x24\n        /* \"#utility.yul\":7009:7010   */\n      0x00\n        /* \"#utility.yul\":7002:7017   */\n      revert\n        /* \"#utility.yul\":7029:7214   */\n    tag_75:\n        /* \"#utility.yul\":7069:7070   */\n      0x00\n        /* \"#utility.yul\":7086:7106   */\n      tag_300\n        /* \"#utility.yul\":7104:7105   */\n      dup3\n        /* \"#utility.yul\":7086:7106   */\n      tag_201\n      jump\t// in\n    tag_300:\n        /* \"#utility.yul\":7081:7106   */\n      swap2\n      pop\n        /* \"#utility.yul\":7120:7140   */\n      tag_301\n        /* \"#utility.yul\":7138:7139   */\n      dup4\n        /* \"#utility.yul\":7120:7140   */\n      tag_201\n      jump\t// in\n    tag_301:\n        /* \"#utility.yul\":7115:7140   */\n      swap3\n      pop\n        /* \"#utility.yul\":7159:7160   */\n      dup3\n        /* \"#utility.yul\":7149:7184   */\n      tag_302\n      jumpi\n        /* \"#utility.yul\":7164:7182   */\n      tag_303\n      tag_217\n      jump\t// in\n    tag_303:\n        /* \"#utility.yul\":7149:7184   */\n    tag_302:\n        /* \"#utility.yul\":7206:7207   */\n      dup3\n        /* \"#utility.yul\":7203:7204   */\n      dup3\n        /* \"#utility.yul\":7199:7208   */\n      div\n        /* \"#utility.yul\":7194:7208   */\n      swap1\n      pop\n        /* \"#utility.yul\":7029:7214   */\n      swap3\n      swap2\n      pop\n      pop\n      jump\t// out\n        /* \"#utility.yul\":7220:7389   */\n    tag_218:\n        /* \"#utility.yul\":7304:7315   */\n      0x00\n        /* \"#utility.yul\":7338:7344   */\n      dup3\n        /* \"#utility.yul\":7333:7336   */\n      dup3\n        /* \"#utility.yul\":7326:7345   */\n      mstore\n        /* \"#utility.yul\":7378:7382   */\n      0x20\n        /* \"#utility.yul\":7373:7376   */\n      dup3\n        /* \"#utility.yul\":7369:7383   */\n      add\n        /* \"#utility.yul\":7354:7383   */\n      swap1\n      pop\n        /* \"#utility.yul\":7220:7389   */\n      swap3\n      swap2\n      pop\n      pop\n      jump\t// out\n        /* \"#utility.yul\":7395:7632   */\n    tag_219:\n        /* \"#utility.yul\":7535:7569   */\n      0x412076616c696420626964206d75737420626520352025206772656174657220\n        /* \"#utility.yul\":7531:7532   */\n      0x00\n        /* \"#utility.yul\":7523:7529   */\n      dup3\n        /* \"#utility.yul\":7519:7533   */\n      add\n        /* \"#utility.yul\":7512:7570   */\n      mstore\n        /* \"#utility.yul\":7604:7624   */\n      0x7468616e20746865206c617374206269642e0000000000000000000000000000\n        /* \"#utility.yul\":7599:7601   */\n      0x20\n        /* \"#utility.yul\":7591:7597   */\n      dup3\n        /* \"#utility.yul\":7587:7602   */\n      add\n        /* \"#utility.yul\":7580:7625   */\n      mstore\n        /* \"#utility.yul\":7395:7632   */\n      pop\n      jump\t// out\n        /* \"#utility.yul\":7638:8004   */\n    tag_220:\n        /* \"#utility.yul\":7780:7783   */\n      0x00\n        /* \"#utility.yul\":7801:7868   */\n      tag_307\n        /* \"#utility.yul\":7865:7867   */\n      0x32\n        /* \"#utility.yul\":7860:7863   */\n      dup4\n        /* \"#utility.yul\":7801:7868   */\n      tag_218\n      jump\t// in\n    tag_307:\n        /* \"#utility.yul\":7794:7868   */\n      swap2\n      pop\n        /* \"#utility.yul\":7877:7970   */\n      tag_308\n        /* \"#utility.yul\":7966:7969   */\n      dup3\n        /* \"#utility.yul\":7877:7970   */\n      tag_219\n      jump\t// in\n    tag_308:\n        /* \"#utility.yul\":7995:7997   */\n      0x40\n        /* \"#utility.yul\":7990:7993   */\n      dup3\n        /* \"#utility.yul\":7986:7998   */\n      add\n        /* \"#utility.yul\":7979:7998   */\n      swap1\n      pop\n        /* \"#utility.yul\":7638:8004   */\n      swap2\n      swap1\n      pop\n      jump\t// out\n        /* \"#utility.yul\":8010:8429   */\n    tag_79:\n        /* \"#utility.yul\":8176:8180   */\n      0x00\n        /* \"#utility.yul\":8214:8216   */\n      0x20\n        /* \"#utility.yul\":8203:8212   */\n      dup3\n        /* \"#utility.yul\":8199:8217   */\n      add\n        /* \"#utility.yul\":8191:8217   */\n      swap1\n      pop\n        /* \"#utility.yul\":8263:8272   */\n      dup2\n        /* \"#utility.yul\":8257:8261   */\n      dup2\n        /* \"#utility.yul\":8253:8273   */\n      sub\n        /* \"#utility.yul\":8249:8250   */\n      0x00\n        /* \"#utility.yul\":8238:8247   */\n      dup4\n        /* \"#utility.yul\":8234:8251   */\n      add\n        /* \"#utility.yul\":8227:8274   */\n      mstore\n        /* \"#utility.yul\":8291:8422   */\n      tag_310\n        /* \"#utility.yul\":8417:8421   */\n      dup2\n        /* \"#utility.yul\":8291:8422   */\n      tag_220\n      jump\t// in\n    tag_310:\n        /* \"#utility.yul\":8283:8422   */\n      swap1\n      pop\n        /* \"#utility.yul\":8010:8429   */\n      swap2\n      swap1\n      pop\n      jump\t// out\n        /* \"#utility.yul\":8435:8612   */\n    tag_221:\n        /* \"#utility.yul\":8575:8604   */\n      0x4f6e6c792041646d696e205573657220697320616c6c6f7765642e0000000000\n        /* \"#utility.yul\":8571:8572   */\n      0x00\n        /* \"#utility.yul\":8563:8569   */\n      dup3\n        /* \"#utility.yul\":8559:8573   */\n      add\n        /* \"#utility.yul\":8552:8605   */\n      mstore\n        /* \"#utility.yul\":8435:8612   */\n      pop\n      jump\t// out\n        /* \"#utility.yul\":8618:8984   */\n    tag_222:\n        /* \"#utility.yul\":8760:8763   */\n      0x00\n        /* \"#utility.yul\":8781:8848   */\n      tag_313\n        /* \"#utility.yul\":8845:8847   */\n      0x1b\n        /* \"#utility.yul\":8840:8843   */\n      dup4\n        /* \"#utility.yul\":8781:8848   */\n      tag_218\n      jump\t// in\n    tag_313:\n        /* \"#utility.yul\":8774:8848   */\n      swap2\n      pop\n        /* \"#utility.yul\":8857:8950   */\n      tag_314\n        /* \"#utility.yul\":8946:8949   */\n      dup3\n        /* \"#utility.yul\":8857:8950   */\n      tag_221\n      jump\t// in\n    tag_314:\n        /* \"#utility.yul\":8975:8977   */\n      0x20\n        /* \"#utility.yul\":8970:8973   */\n      dup3\n        /* \"#utility.yul\":8966:8978   */\n      add\n        /* \"#utility.yul\":8959:8978   */\n      swap1\n      pop\n        /* \"#utility.yul\":8618:8984   */\n      swap2\n      swap1\n      pop\n      jump\t// out\n        /* \"#utility.yul\":8990:9409   */\n    tag_93:\n        /* \"#utility.yul\":9156:9160   */\n      0x00\n        /* \"#utility.yul\":9194:9196   */\n      0x20\n        /* \"#utility.yul\":9183:9192   */\n      dup3\n        /* \"#utility.yul\":9179:9197   */\n      add\n        /* \"#utility.yul\":9171:9197   */\n      swap1\n      pop\n        /* \"#utility.yul\":9243:9252   */\n      dup2\n        /* \"#utility.yul\":9237:9241   */\n      dup2\n        /* \"#utility.yul\":9233:9253   */\n      sub\n        /* \"#utility.yul\":9229:9230   */\n      0x00\n        /* \"#utility.yul\":9218:9227   */\n      dup4\n        /* \"#utility.yul\":9214:9231   */\n      add\n        /* \"#utility.yul\":9207:9254   */\n      mstore\n        /* \"#utility.yul\":9271:9402   */\n      tag_316\n        /* \"#utility.yul\":9397:9401   */\n      dup2\n        /* \"#utility.yul\":9271:9402   */\n      tag_222\n      jump\t// in\n    tag_316:\n        /* \"#utility.yul\":9263:9402   */\n      swap1\n      pop\n        /* \"#utility.yul\":8990:9409   */\n      swap2\n      swap1\n      pop\n      jump\t// out\n        /* \"#utility.yul\":9415:9589   */\n    tag_223:\n        /* \"#utility.yul\":9555:9581   */\n      0x4f6e6c79204269646465722061726520616c6c6f7765642e0000000000000000\n        /* \"#utility.yul\":9551:9552   */\n      0x00\n        /* \"#utility.yul\":9543:9549   */\n      dup3\n        /* \"#utility.yul\":9539:9553   */\n      add\n        /* \"#utility.yul\":9532:9582   */\n      mstore\n        /* \"#utility.yul\":9415:9589   */\n      pop\n      jump\t// out\n        /* \"#utility.yul\":9595:9961   */\n    tag_224:\n        /* \"#utility.yul\":9737:9740   */\n      0x00\n        /* \"#utility.yul\":9758:9825   */\n      tag_319\n        /* \"#utility.yul\":9822:9824   */\n      0x18\n        /* \"#utility.yul\":9817:9820   */\n      dup4\n        /* \"#utility.yul\":9758:9825   */\n      tag_218\n      jump\t// in\n    tag_319:\n        /* \"#utility.yul\":9751:9825   */\n      swap2\n      pop\n        /* \"#utility.yul\":9834:9927   */\n      tag_320\n        /* \"#utility.yul\":9923:9926   */\n      dup3\n        /* \"#utility.yul\":9834:9927   */\n      tag_223\n      jump\t// in\n    tag_320:\n        /* \"#utility.yul\":9952:9954   */\n      0x20\n        /* \"#utility.yul\":9947:9950   */\n      dup3\n        /* \"#utility.yul\":9943:9955   */\n      add\n        /* \"#utility.yul\":9936:9955   */\n      swap1\n      pop\n        /* \"#utility.yul\":9595:9961   */\n      swap2\n      swap1\n      pop\n      jump\t// out\n        /* \"#utility.yul\":9967:10386   */\n    tag_101:\n        /* \"#utility.yul\":10133:10137   */\n      0x00\n        /* \"#utility.yul\":10171:10173   */\n      0x20\n        /* \"#utility.yul\":10160:10169   */\n      dup3\n        /* \"#utility.yul\":10156:10174   */\n      add\n        /* \"#utility.yul\":10148:10174   */\n      swap1\n      pop\n        /* \"#utility.yul\":10220:10229   */\n      dup2\n        /* \"#utility.yul\":10214:10218   */\n      dup2\n        /* \"#utility.yul\":10210:10230   */\n      sub\n        /* \"#utility.yul\":10206:10207   */\n      0x00\n        /* \"#utility.yul\":10195:10204   */\n      dup4\n        /* \"#utility.yul\":10191:10208   */\n      add\n        /* \"#utility.yul\":10184:10231   */\n      mstore\n        /* \"#utility.yul\":10248:10379   */\n      tag_322\n        /* \"#utility.yul\":10374:10378   */\n      dup2\n        /* \"#utility.yul\":10248:10379   */\n      tag_224\n      jump\t// in\n    tag_322:\n        /* \"#utility.yul\":10240:10379   */\n      swap1\n      pop\n        /* \"#utility.yul\":9967:10386   */\n      swap2\n      swap1\n      pop\n      jump\t// out\n        /* \"#utility.yul\":10392:10572   */\n    tag_225:\n        /* \"#utility.yul\":10440:10517   */\n      0x4e487b7100000000000000000000000000000000000000000000000000000000\n        /* \"#utility.yul\":10437:10438   */\n      0x00\n        /* \"#utility.yul\":10430:10518   */\n      mstore\n        /* \"#utility.yul\":10537:10541   */\n      0x22\n        /* \"#utility.yul\":10534:10535   */\n      0x04\n        /* \"#utility.yul\":10527:10542   */\n      mstore\n        /* \"#utility.yul\":10561:10565   */\n      0x24\n        /* \"#utility.yul\":10558:10559   */\n      0x00\n        /* \"#utility.yul\":10551:10566   */\n      revert\n        /* \"#utility.yul\":10578:10898   */\n    tag_226:\n        /* \"#utility.yul\":10622:10628   */\n      0x00\n        /* \"#utility.yul\":10659:10660   */\n      0x02\n        /* \"#utility.yul\":10653:10657   */\n      dup3\n        /* \"#utility.yul\":10649:10661   */\n      div\n        /* \"#utility.yul\":10639:10661   */\n      swap1\n      pop\n        /* \"#utility.yul\":10706:10707   */\n      0x01\n        /* \"#utility.yul\":10700:10704   */\n      dup3\n        /* \"#utility.yul\":10696:10708   */\n      and\n        /* \"#utility.yul\":10727:10745   */\n      dup1\n        /* \"#utility.yul\":10717:10798   */\n      tag_325\n      jumpi\n        /* \"#utility.yul\":10783:10787   */\n      0x7f\n        /* \"#utility.yul\":10775:10781   */\n      dup3\n        /* \"#utility.yul\":10771:10788   */\n      and\n        /* \"#utility.yul\":10761:10788   */\n      swap2\n      pop\n        /* \"#utility.yul\":10717:10798   */\n    tag_325:\n        /* \"#utility.yul\":10845:10847   */\n      0x20\n        /* \"#utility.yul\":10837:10843   */\n      dup3\n        /* \"#utility.yul\":10834:10848   */\n      lt\n        /* \"#utility.yul\":10814:10832   */\n      dup2\n        /* \"#utility.yul\":10811:10849   */\n      sub\n        /* \"#utility.yul\":10808:10892   */\n      tag_326\n      jumpi\n        /* \"#utility.yul\":10864:10882   */\n      tag_327\n      tag_225\n      jump\t// in\n    tag_327:\n        /* \"#utility.yul\":10808:10892   */\n    tag_326:\n        /* \"#utility.yul\":10629:10898   */\n      pop\n        /* \"#utility.yul\":10578:10898   */\n      swap2\n      swap1\n      pop\n      jump\t// out\n        /* \"#utility.yul\":10904:11052   */\n    tag_227:\n        /* \"#utility.yul\":11006:11017   */\n      0x00\n        /* \"#utility.yul\":11043:11046   */\n      dup2\n        /* \"#utility.yul\":11028:11046   */\n      swap1\n      pop\n        /* \"#utility.yul\":10904:11052   */\n      swap3\n      swap2\n      pop\n      pop\n      jump\t// out\n        /* \"#utility.yul\":11058:11199   */\n    tag_228:\n        /* \"#utility.yul\":11107:11111   */\n      0x00\n        /* \"#utility.yul\":11130:11133   */\n      dup2\n        /* \"#utility.yul\":11122:11133   */\n      swap1\n      pop\n        /* \"#utility.yul\":11153:11156   */\n      dup2\n        /* \"#utility.yul\":11150:11151   */\n      0x00\n        /* \"#utility.yul\":11143:11157   */\n      mstore\n        /* \"#utility.yul\":11187:11191   */\n      0x20\n        /* \"#utility.yul\":11184:11185   */\n      0x00\n        /* \"#utility.yul\":11174:11192   */\n      keccak256\n        /* \"#utility.yul\":11166:11192   */\n      swap1\n      pop\n        /* \"#utility.yul\":11058:11199   */\n      swap2\n      swap1\n      pop\n      jump\t// out\n        /* \"#utility.yul\":11229:12103   */\n    tag_229:\n        /* \"#utility.yul\":11332:11335   */\n      0x00\n        /* \"#utility.yul\":11369:11374   */\n      dup2\n        /* \"#utility.yul\":11363:11375   */\n      sload\n        /* \"#utility.yul\":11398:11434   */\n      tag_331\n        /* \"#utility.yul\":11424:11433   */\n      dup2\n        /* \"#utility.yul\":11398:11434   */\n      tag_226\n      jump\t// in\n    tag_331:\n        /* \"#utility.yul\":11450:11539   */\n      tag_332\n        /* \"#utility.yul\":11532:11538   */\n      dup2\n        /* \"#utility.yul\":11527:11530   */\n      dup7\n        /* \"#utility.yul\":11450:11539   */\n      tag_227\n      jump\t// in\n    tag_332:\n        /* \"#utility.yul\":11443:11539   */\n      swap5\n      pop\n        /* \"#utility.yul\":11570:11571   */\n      0x01\n        /* \"#utility.yul\":11559:11568   */\n      dup3\n        /* \"#utility.yul\":11555:11572   */\n      and\n        /* \"#utility.yul\":11586:11587   */\n      0x00\n        /* \"#utility.yul\":11581:11747   */\n      dup2\n      eq\n      tag_334\n      jumpi\n        /* \"#utility.yul\":11761:11762   */\n      0x01\n        /* \"#utility.yul\":11756:12097   */\n      dup2\n      eq\n      tag_335\n      jumpi\n        /* \"#utility.yul\":11548:12097   */\n      jump(tag_333)\n        /* \"#utility.yul\":11581:11747   */\n    tag_334:\n        /* \"#utility.yul\":11665:11669   */\n      0xff\n        /* \"#utility.yul\":11661:11670   */\n      not\n        /* \"#utility.yul\":11650:11659   */\n      dup4\n        /* \"#utility.yul\":11646:11671   */\n      and\n        /* \"#utility.yul\":11641:11644   */\n      dup7\n        /* \"#utility.yul\":11634:11672   */\n      mstore\n        /* \"#utility.yul\":11727:11733   */\n      dup2\n        /* \"#utility.yul\":11720:11734   */\n      iszero\n        /* \"#utility.yul\":11713:11735   */\n      iszero\n        /* \"#utility.yul\":11705:11711   */\n      dup3\n        /* \"#utility.yul\":11701:11736   */\n      mul\n        /* \"#utility.yul\":11696:11699   */\n      dup7\n        /* \"#utility.yul\":11692:11737   */\n      add\n        /* \"#utility.yul\":11685:11737   */\n      swap4\n      pop\n        /* \"#utility.yul\":11581:11747   */\n      jump(tag_333)\n        /* \"#utility.yul\":11756:12097   */\n    tag_335:\n        /* \"#utility.yul\":11823:11861   */\n      tag_336\n        /* \"#utility.yul\":11855:11860   */\n      dup6\n        /* \"#utility.yul\":11823:11861   */\n      tag_228\n      jump\t// in\n    tag_336:\n        /* \"#utility.yul\":11883:11884   */\n      0x00\n        /* \"#utility.yul\":11897:12051   */\n    tag_337:\n        /* \"#utility.yul\":11911:11917   */\n      dup4\n        /* \"#utility.yul\":11908:11909   */\n      dup2\n        /* \"#utility.yul\":11905:11918   */\n      lt\n        /* \"#utility.yul\":11897:12051   */\n      iszero\n      tag_339\n      jumpi\n        /* \"#utility.yul\":11985:11992   */\n      dup2\n        /* \"#utility.yul\":11979:11993   */\n      sload\n        /* \"#utility.yul\":11975:11976   */\n      dup2\n        /* \"#utility.yul\":11970:11973   */\n      dup10\n        /* \"#utility.yul\":11966:11977   */\n      add\n        /* \"#utility.yul\":11959:11994   */\n      mstore\n        /* \"#utility.yul\":12035:12036   */\n      0x01\n        /* \"#utility.yul\":12026:12033   */\n      dup3\n        /* \"#utility.yul\":12022:12037   */\n      add\n        /* \"#utility.yul\":12011:12037   */\n      swap2\n      pop\n        /* \"#utility.yul\":11933:11937   */\n      0x20\n        /* \"#utility.yul\":11930:11931   */\n      dup2\n        /* \"#utility.yul\":11926:11938   */\n      add\n        /* \"#utility.yul\":11921:11938   */\n      swap1\n      pop\n        /* \"#utility.yul\":11897:12051   */\n      jump(tag_337)\n    tag_339:\n        /* \"#utility.yul\":12080:12086   */\n      dup4\n        /* \"#utility.yul\":12075:12078   */\n      dup9\n        /* \"#utility.yul\":12071:12087   */\n      add\n        /* \"#utility.yul\":12064:12087   */\n      swap6\n      pop\n        /* \"#utility.yul\":11763:12097   */\n      pop\n      pop\n        /* \"#utility.yul\":11548:12097   */\n    tag_333:\n      pop\n        /* \"#utility.yul\":11336:12103   */\n      pop\n      pop\n        /* \"#utility.yul\":11229:12103   */\n      swap3\n      swap2\n      pop\n      pop\n      jump\t// out\n        /* \"#utility.yul\":12109:12378   */\n    tag_111:\n        /* \"#utility.yul\":12238:12241   */\n      0x00\n        /* \"#utility.yul\":12260:12352   */\n      tag_341\n        /* \"#utility.yul\":12348:12351   */\n      dup3\n        /* \"#utility.yul\":12339:12345   */\n      dup5\n        /* \"#utility.yul\":12260:12352   */\n      tag_229\n      jump\t// in\n    tag_341:\n        /* \"#utility.yul\":12253:12352   */\n      swap2\n      pop\n        /* \"#utility.yul\":12369:12372   */\n      dup2\n        /* \"#utility.yul\":12362:12372   */\n      swap1\n      pop\n        /* \"#utility.yul\":12109:12378   */\n      swap3\n      swap2\n      pop\n      pop\n      jump\t// out\n        /* \"#utility.yul\":12384:12606   */\n    tag_113:\n        /* \"#utility.yul\":12477:12481   */\n      0x00\n        /* \"#utility.yul\":12515:12517   */\n      0x20\n        /* \"#utility.yul\":12504:12513   */\n      dup3\n        /* \"#utility.yul\":12500:12518   */\n      add\n        /* \"#utility.yul\":12492:12518   */\n      swap1\n      pop\n        /* \"#utility.yul\":12528:12599   */\n      tag_343\n        /* \"#utility.yul\":12596:12597   */\n      0x00\n        /* \"#utility.yul\":12585:12594   */\n      dup4\n        /* \"#utility.yul\":12581:12598   */\n      add\n        /* \"#utility.yul\":12572:12578   */\n      dup5\n        /* \"#utility.yul\":12528:12599   */\n      tag_211\n      jump\t// in\n    tag_343:\n        /* \"#utility.yul\":12384:12606   */\n      swap3\n      swap2\n      pop\n      pop\n      jump\t// out\n        /* \"#utility.yul\":12612:12806   */\n    tag_130:\n        /* \"#utility.yul\":12652:12656   */\n      0x00\n        /* \"#utility.yul\":12672:12692   */\n      tag_345\n        /* \"#utility.yul\":12690:12691   */\n      dup3\n        /* \"#utility.yul\":12672:12692   */\n      tag_201\n      jump\t// in\n    tag_345:\n        /* \"#utility.yul\":12667:12692   */\n      swap2\n      pop\n        /* \"#utility.yul\":12706:12726   */\n      tag_346\n        /* \"#utility.yul\":12724:12725   */\n      dup4\n        /* \"#utility.yul\":12706:12726   */\n      tag_201\n      jump\t// in\n    tag_346:\n        /* \"#utility.yul\":12701:12726   */\n      swap3\n      pop\n        /* \"#utility.yul\":12750:12751   */\n      dup3\n        /* \"#utility.yul\":12747:12748   */\n      dup3\n        /* \"#utility.yul\":12743:12752   */\n      sub\n        /* \"#utility.yul\":12735:12752   */\n      swap1\n      pop\n        /* \"#utility.yul\":12774:12775   */\n      dup2\n        /* \"#utility.yul\":12768:12772   */\n      dup2\n        /* \"#utility.yul\":12765:12776   */\n      gt\n        /* \"#utility.yul\":12762:12799   */\n      iszero\n      tag_347\n      jumpi\n        /* \"#utility.yul\":12779:12797   */\n      tag_348\n      tag_216\n      jump\t// in\n    tag_348:\n        /* \"#utility.yul\":12762:12799   */\n    tag_347:\n        /* \"#utility.yul\":12612:12806   */\n      swap3\n      swap2\n      pop\n      pop\n      jump\t// out\n\n    auxdata: 0xa264697066735822122014acf9052f232dbf73b730cdcad79e0e89cfd595579b8329f1de91e6c22b01b064736f6c634300081a0033\n}\n",
				"bytecode": {
					"linkReferences": {},
					"object": "608060405234801561000f575f80fd5b506040516122533803806122538339818101604052810190610031919061029b565b3360075f6101000a81548173ffffffffffffffffffffffffffffffffffffffff021916908373ffffffffffffffffffffffffffffffffffffffff1602179055508060089081610080919061050b565b50824261008d9190610607565b5f81905550816002600301819055505f60015f6101000a81548160ff021916908360018111156100c0576100bf61063a565b5b021790555060086040516100d491906106f1565b60405180910390207f88b524d6621d7de004458e51f7f3a0dec805641fc7853fa1c25d15a1266b459e8360405161010b9190610716565b60405180910390a250505061072f565b5f604051905090565b5f80fd5b5f80fd5b5f819050919050565b61013e8161012c565b8114610148575f80fd5b50565b5f8151905061015981610135565b92915050565b5f80fd5b5f80fd5b5f601f19601f8301169050919050565b7f4e487b71000000000000000000000000000000000000000000000000000000005f52604160045260245ffd5b6101ad82610167565b810181811067ffffffffffffffff821117156101cc576101cb610177565b5b80604052505050565b5f6101de61011b565b90506101ea82826101a4565b919050565b5f67ffffffffffffffff82111561020957610208610177565b5b61021282610167565b9050602081019050919050565b8281835e5f83830152505050565b5f61023f61023a846101ef565b6101d5565b90508281526020810184848401111561025b5761025a610163565b5b61026684828561021f565b509392505050565b5f82601f8301126102825761028161015f565b5b815161029284826020860161022d565b91505092915050565b5f805f606084860312156102b2576102b1610124565b5b5f6102bf8682870161014b565b93505060206102d08682870161014b565b925050604084015167ffffffffffffffff8111156102f1576102f0610128565b5b6102fd8682870161026e565b9150509250925092565b5f81519050919050565b7f4e487b71000000000000000000000000000000000000000000000000000000005f52602260045260245ffd5b5f600282049050600182168061035557607f821691505b60208210810361036857610367610311565b5b50919050565b5f819050815f5260205f209050919050565b5f6020601f8301049050919050565b5f82821b905092915050565b5f600883026103ca7fffffffffffffffffffffffffffffffffffffffffffffffffffffffffffffffff8261038f565b6103d4868361038f565b95508019841693508086168417925050509392505050565b5f819050919050565b5f61040f61040a6104058461012c565b6103ec565b61012c565b9050919050565b5f819050919050565b610428836103f5565b61043c61043482610416565b84845461039b565b825550505050565b5f90565b610450610444565b61045b81848461041f565b505050565b5b8181101561047e576104735f82610448565b600181019050610461565b5050565b601f8211156104c3576104948161036e565b61049d84610380565b810160208510156104ac578190505b6104c06104b885610380565b830182610460565b50505b505050565b5f82821c905092915050565b5f6104e35f19846008026104c8565b1980831691505092915050565b5f6104fb83836104d4565b9150826002028217905092915050565b61051482610307565b67ffffffffffffffff81111561052d5761052c610177565b5b610537825461033e565b610542828285610482565b5f60209050601f831160018114610573575f8415610561578287015190505b61056b85826104f0565b8655506105d2565b601f1984166105818661036e565b5f5b828110156105a857848901518255600182019150602085019450602081019050610583565b868310156105c557848901516105c1601f8916826104d4565b8355505b6001600288020188555050505b505050505050565b7f4e487b71000000000000000000000000000000000000000000000000000000005f52601160045260245ffd5b5f6106118261012c565b915061061c8361012c565b9250828201905080821115610634576106336105da565b5b92915050565b7f4e487b71000000000000000000000000000000000000000000000000000000005f52602160045260245ffd5b5f81905092915050565b5f815461067d8161033e565b6106878186610667565b9450600182165f81146106a157600181146106b6576106e8565b60ff19831686528115158202860193506106e8565b6106bf8561036e565b5f5b838110156106e0578154818901526001820191506020810190506106c1565b838801955050505b50505092915050565b5f6106fc8284610671565b915081905092915050565b6107108161012c565b82525050565b5f6020820190506107295f830184610707565b92915050565b611b178061073c5f395ff3fe608060405260043610610049575f3560e01c806314d2687c1461004d5780631998aeef1461007757806343d726d614610081578063b7e0326414610097578063d4e93292146100c2575b5f80fd5b348015610058575f80fd5b506100616100d8565b60405161006e91906115cf565b60405180910390f35b61007f61030d565b005b34801561008c575f80fd5b506100956107a5565b005b3480156100a2575f80fd5b506100ab610edc565b6040516100b992919061160d565b60405180910390f35b3480156100cd575f80fd5b506100d6610f98565b005b60605f8060018111156100ee576100ed611634565b5b60015f9054906101000a900460ff16600181111561010f5761010e611634565b5b1461015f5760015f9054906101000a900460ff166040517ff1c25c2000000000000000000000000000000000000000000000000000000000815260040161015691906116a7565b60405180910390fd5b5f60098054905067ffffffffffffffff81111561017f5761017e6116c0565b5b6040519080825280602002602001820160405280156101b857816020015b6101a561140e565b81526020019060019003908161019d5790505b5090505f5b60098054905081101561030457600a5f600983815481106101e1576101e06116ed565b5b905f5260205f20015f9054906101000a900473ffffffffffffffffffffffffffffffffffffffff1673ffffffffffffffffffffffffffffffffffffffff1673ffffffffffffffffffffffffffffffffffffffff1681526020019081526020015f206040518060a00160405290815f82015f9054906101000a900460ff16151515158152602001600182015481526020016002820154815260200160038201548152602001600482015f9054906101000a900473ffffffffffffffffffffffffffffffffffffffff1673ffffffffffffffffffffffffffffffffffffffff1673ffffffffffffffffffffffffffffffffffffffff16815250508282815181106102ec576102eb6116ed565b5b602002602001018190525080806001019150506101bd565b50809250505090565b5f8054421061032e576102586002600101546103299190611747565b610331565b5f545b90505f600181111561034657610345611634565b5b60015f9054906101000a900460ff16600181111561036757610366611634565b5b14801561037357508042115b15610381576103806113a6565b5b5f80600181111561039557610394611634565b5b60015f9054906101000a900460ff1660018111156103b6576103b5611634565b5b146104065760015f9054906101000a900460ff166040517ff1c25c200000000000000000000000000000000000000000000000000000000081526004016103fd91906116a7565b60405180910390fd5b6064600560026003015461041a919061177a565b61042491906117e8565b6002600301546104349190611747565b3411610475576040517f1410d82200000000000000000000000000000000000000000000000000000000815260040161046c90611898565b60405180910390fd5b600a5f3373ffffffffffffffffffffffffffffffffffffffff1673ffffffffffffffffffffffffffffffffffffffff1681526020019081526020015f205f015f9054906101000a900460ff1661052657600933908060018154018082558091505060019003905f5260205f20015f9091909190916101000a81548173ffffffffffffffffffffffffffffffffffffffff021916908373ffffffffffffffffffffffffffffffffffffffff1602179055505b34600280015f8282546105399190611747565b92505081905550346002600301819055503360026004015f6101000a81548173ffffffffffffffffffffffffffffffffffffffff021916908373ffffffffffffffffffffffffffffffffffffffff160217905550600160025f015f6101000a81548160ff0219169083151502179055504260026001018190555034600a5f3373ffffffffffffffffffffffffffffffffffffffff1673ffffffffffffffffffffffffffffffffffffffff1681526020019081526020015f206002015f8282546106029190611747565b9250508190555034600a5f3373ffffffffffffffffffffffffffffffffffffffff1673ffffffffffffffffffffffffffffffffffffffff1681526020019081526020015f206003018190555033600a5f3373ffffffffffffffffffffffffffffffffffffffff1673ffffffffffffffffffffffffffffffffffffffff1681526020019081526020015f206004015f6101000a81548173ffffffffffffffffffffffffffffffffffffffff021916908373ffffffffffffffffffffffffffffffffffffffff1602179055506001600a5f3373ffffffffffffffffffffffffffffffffffffffff1673ffffffffffffffffffffffffffffffffffffffff1681526020019081526020015f205f015f6101000a81548160ff02191690831515021790555042600a5f3373ffffffffffffffffffffffffffffffffffffffff1673ffffffffffffffffffffffffffffffffffffffff1681526020019081526020015f20600101819055507fdd0b6c6a77960e2066c96171b4d7ac9e8b4c184011f38544afa36a5bb63ec59f333460405161079992919061160d565b60405180910390a15050565b5f8060018111156107b9576107b8611634565b5b8160018111156107cc576107cb611634565b5b148015610826575060075f9054906101000a900473ffffffffffffffffffffffffffffffffffffffff1673ffffffffffffffffffffffffffffffffffffffff163373ffffffffffffffffffffffffffffffffffffffff1614155b15610866576040517f58a3f3c000000000000000000000000000000000000000000000000000000000815260040161085d90611900565b60405180910390fd5b60018081111561087957610878611634565b5b81600181111561088c5761088b611634565b5b1480156108e25750600a5f3373ffffffffffffffffffffffffffffffffffffffff1673ffffffffffffffffffffffffffffffffffffffff1681526020019081526020015f205f015f9054906101000a900460ff16155b15610922576040517f58a3f3c000000000000000000000000000000000000000000000000000000000815260040161091990611968565b60405180910390fd5b600180600181111561093757610936611634565b5b60015f9054906101000a900460ff16600181111561095857610957611634565b5b146109a85760015f9054906101000a900460ff166040517ff1c25c2000000000000000000000000000000000000000000000000000000000815260040161099f91906116a7565b60405180910390fd5b60026004015f9054906101000a900473ffffffffffffffffffffffffffffffffffffffff1673ffffffffffffffffffffffffffffffffffffffff1660086040516109f29190611a7f565b60405180910390207fef1c1ac56c3e721a0a9bdb9f70b99f3cd67d25c1aabe4830f296c2391dc1c2e8600260030154604051610a2e9190611a95565b60405180910390a35f5b600980549050811015610ed75760026004015f9054906101000a900473ffffffffffffffffffffffffffffffffffffffff1673ffffffffffffffffffffffffffffffffffffffff1660098281548110610a9457610a936116ed565b5b905f5260205f20015f9054906101000a900473ffffffffffffffffffffffffffffffffffffffff1673ffffffffffffffffffffffffffffffffffffffff1614610eca575f600a5f60098481548110610aef57610aee6116ed565b5b905f5260205f20015f9054906101000a900473ffffffffffffffffffffffffffffffffffffffff1673ffffffffffffffffffffffffffffffffffffffff1673ffffffffffffffffffffffffffffffffffffffff1681526020019081526020015f206040518060a00160405290815f82015f9054906101000a900460ff16151515158152602001600182015481526020016002820154815260200160038201548152602001600482015f9054906101000a900473ffffffffffffffffffffffffffffffffffffffff1673ffffffffffffffffffffffffffffffffffffffff1673ffffffffffffffffffffffffffffffffffffffff168152505090505f600a5f60098581548110610c0157610c006116ed565b5b905f5260205f20015f9054906101000a900473ffffffffffffffffffffffffffffffffffffffff1673ffffffffffffffffffffffffffffffffffffffff1673ffffffffffffffffffffffffffffffffffffffff1681526020019081526020015f206002015490506064600282610c77919061177a565b610c8191906117e8565b81610c8c9190611aae565b9050600a5f60098581548110610ca557610ca46116ed565b5b905f5260205f20015f9054906101000a900473ffffffffffffffffffffffffffffffffffffffff1673ffffffffffffffffffffffffffffffffffffffff1673ffffffffffffffffffffffffffffffffffffffff1681526020019081526020015f205f8082015f6101000a81549060ff0219169055600182015f9055600282015f9055600382015f9055600482015f6101000a81549073ffffffffffffffffffffffffffffffffffffffff0219169055505060098381548110610d6a57610d696116ed565b5b905f5260205f20015f9054906101000a900473ffffffffffffffffffffffffffffffffffffffff1673ffffffffffffffffffffffffffffffffffffffff166108fc8290811502906040515f60405180830381858888f19350505050610ec75781600a5f60098681548110610de157610de06116ed565b5b905f5260205f20015f9054906101000a900473ffffffffffffffffffffffffffffffffffffffff1673ffffffffffffffffffffffffffffffffffffffff1673ffffffffffffffffffffffffffffffffffffffff1681526020019081526020015f205f820151815f015f6101000a81548160ff0219169083151502179055506020820151816001015560408201518160020155606082015181600301556080820151816004015f6101000a81548173ffffffffffffffffffffffffffffffffffffffff021916908373ffffffffffffffffffffffffffffffffffffffff1602179055509050505b50505b8080600101915050610a38565b505050565b5f806001806001811115610ef357610ef2611634565b5b60015f9054906101000a900460ff166001811115610f1457610f13611634565b5b14610f645760015f9054906101000a900460ff166040517ff1c25c20000000000000000000000000000000000000000000000000000000008152600401610f5b91906116a7565b60405180910390fd5b60026004015f9054906101000a900473ffffffffffffffffffffffffffffffffffffffff1660026003015492509250509091565b5f80544210610fb957610258600260010154610fb49190611747565b610fbc565b5f545b90505f6001811115610fd157610fd0611634565b5b60015f9054906101000a900460ff166001811115610ff257610ff1611634565b5b148015610ffe57508042115b1561100c5761100b6113a6565b5b60015f600181111561102157611020611634565b5b81600181111561103457611033611634565b5b14801561108e575060075f9054906101000a900473ffffffffffffffffffffffffffffffffffffffff1673ffffffffffffffffffffffffffffffffffffffff163373ffffffffffffffffffffffffffffffffffffffff1614155b156110ce576040517f58a3f3c00000000000000000000000000000000000000000000000000000000081526004016110c590611900565b60405180910390fd5b6001808111156110e1576110e0611634565b5b8160018111156110f4576110f3611634565b5b14801561114a5750600a5f3373ffffffffffffffffffffffffffffffffffffffff1673ffffffffffffffffffffffffffffffffffffffff1681526020019081526020015f205f015f9054906101000a900460ff16155b1561118a576040517f58a3f3c000000000000000000000000000000000000000000000000000000000815260040161118190611968565b60405180910390fd5b5f80600181111561119e5761119d611634565b5b60015f9054906101000a900460ff1660018111156111bf576111be611634565b5b1461120f5760015f9054906101000a900460ff166040517ff1c25c2000000000000000000000000000000000000000000000000000000000815260040161120691906116a7565b60405180910390fd5b5f600a5f3373ffffffffffffffffffffffffffffffffffffffff1673ffffffffffffffffffffffffffffffffffffffff1681526020019081526020015f2060030154600a5f3373ffffffffffffffffffffffffffffffffffffffff1673ffffffffffffffffffffffffffffffffffffffff1681526020019081526020015f206002015461129c9190611aae565b9050600a5f3373ffffffffffffffffffffffffffffffffffffffff1673ffffffffffffffffffffffffffffffffffffffff1681526020019081526020015f2060030154600a5f3373ffffffffffffffffffffffffffffffffffffffff1673ffffffffffffffffffffffffffffffffffffffff1681526020019081526020015f20600201819055505f811161135c576040517fd0d04f6000000000000000000000000000000000000000000000000000000000815260040160405180910390fd5b3373ffffffffffffffffffffffffffffffffffffffff166108fc8290811502906040515f60405180830381858888f1935050505015801561139f573d5f803e3d5ffd5b5050505050565b6001805f9054906101000a900460ff1660018111156113c8576113c7611634565b5b6113d29190611747565b60018111156113e4576113e3611634565b5b60015f6101000a81548160ff0219169083600181111561140757611406611634565b5b0217905550565b6040518060a001604052805f151581526020015f81526020015f81526020015f81526020015f73ffffffffffffffffffffffffffffffffffffffff1681525090565b5f81519050919050565b5f82825260208201905092915050565b5f819050602082019050919050565b5f8115159050919050565b61148d81611479565b82525050565b5f819050919050565b6114a581611493565b82525050565b5f73ffffffffffffffffffffffffffffffffffffffff82169050919050565b5f6114d4826114ab565b9050919050565b6114e4816114ca565b82525050565b60a082015f8201516114fe5f850182611484565b506020820151611511602085018261149c565b506040820151611524604085018261149c565b506060820151611537606085018261149c565b50608082015161154a60808501826114db565b50505050565b5f61155b83836114ea565b60a08301905092915050565b5f602082019050919050565b5f61157d82611450565b611587818561145a565b93506115928361146a565b805f5b838110156115c25781516115a98882611550565b97506115b483611567565b925050600181019050611595565b5085935050505092915050565b5f6020820190508181035f8301526115e78184611573565b905092915050565b6115f8816114ca565b82525050565b61160781611493565b82525050565b5f6040820190506116205f8301856115ef565b61162d60208301846115fe565b9392505050565b7f4e487b71000000000000000000000000000000000000000000000000000000005f52602160045260245ffd5b6002811061167257611671611634565b5b50565b5f81905061168282611661565b919050565b5f61169182611675565b9050919050565b6116a181611687565b82525050565b5f6020820190506116ba5f830184611698565b92915050565b7f4e487b71000000000000000000000000000000000000000000000000000000005f52604160045260245ffd5b7f4e487b71000000000000000000000000000000000000000000000000000000005f52603260045260245ffd5b7f4e487b71000000000000000000000000000000000000000000000000000000005f52601160045260245ffd5b5f61175182611493565b915061175c83611493565b92508282019050808211156117745761177361171a565b5b92915050565b5f61178482611493565b915061178f83611493565b925082820261179d81611493565b915082820484148315176117b4576117b361171a565b5b5092915050565b7f4e487b71000000000000000000000000000000000000000000000000000000005f52601260045260245ffd5b5f6117f282611493565b91506117fd83611493565b92508261180d5761180c6117bb565b5b828204905092915050565b5f82825260208201905092915050565b7f412076616c696420626964206d757374206265203520252067726561746572205f8201527f7468616e20746865206c617374206269642e0000000000000000000000000000602082015250565b5f611882603283611818565b915061188d82611828565b604082019050919050565b5f6020820190508181035f8301526118af81611876565b9050919050565b7f4f6e6c792041646d696e205573657220697320616c6c6f7765642e00000000005f82015250565b5f6118ea601b83611818565b91506118f5826118b6565b602082019050919050565b5f6020820190508181035f830152611917816118de565b9050919050565b7f4f6e6c79204269646465722061726520616c6c6f7765642e00000000000000005f82015250565b5f611952601883611818565b915061195d8261191e565b602082019050919050565b5f6020820190508181035f83015261197f81611946565b9050919050565b7f4e487b71000000000000000000000000000000000000000000000000000000005f52602260045260245ffd5b5f60028204905060018216806119ca57607f821691505b6020821081036119dd576119dc611986565b5b50919050565b5f81905092915050565b5f819050815f5260205f209050919050565b5f8154611a0b816119b3565b611a1581866119e3565b9450600182165f8114611a2f5760018114611a4457611a76565b60ff1983168652811515820286019350611a76565b611a4d856119ed565b5f5b83811015611a6e57815481890152600182019150602081019050611a4f565b838801955050505b50505092915050565b5f611a8a82846119ff565b915081905092915050565b5f602082019050611aa85f8301846115fe565b92915050565b5f611ab882611493565b9150611ac383611493565b9250828203905081811115611adb57611ada61171a565b5b9291505056fea264697066735822122014acf9052f232dbf73b730cdcad79e0e89cfd595579b8329f1de91e6c22b01b064736f6c634300081a0033",
					"opcodes": "PUSH1 0x80 PUSH1 0x40 MSTORE CALLVALUE DUP1 ISZERO PUSH2 0xF JUMPI PUSH0 DUP1 REVERT JUMPDEST POP PUSH1 0x40 MLOAD PUSH2 0x2253 CODESIZE SUB DUP1 PUSH2 0x2253 DUP4 CODECOPY DUP2 DUP2 ADD PUSH1 0x40 MSTORE DUP2 ADD SWAP1 PUSH2 0x31 SWAP2 SWAP1 PUSH2 0x29B JUMP JUMPDEST CALLER PUSH1 0x7 PUSH0 PUSH2 0x100 EXP DUP2 SLOAD DUP2 PUSH20 0xFFFFFFFFFFFFFFFFFFFFFFFFFFFFFFFFFFFFFFFF MUL NOT AND SWAP1 DUP4 PUSH20 0xFFFFFFFFFFFFFFFFFFFFFFFFFFFFFFFFFFFFFFFF AND MUL OR SWAP1 SSTORE POP DUP1 PUSH1 0x8 SWAP1 DUP2 PUSH2 0x80 SWAP2 SWAP1 PUSH2 0x50B JUMP JUMPDEST POP DUP3 TIMESTAMP PUSH2 0x8D SWAP2 SWAP1 PUSH2 0x607 JUMP JUMPDEST PUSH0 DUP2 SWAP1 SSTORE POP DUP2 PUSH1 0x2 PUSH1 0x3 ADD DUP2 SWAP1 SSTORE POP PUSH0 PUSH1 0x1 PUSH0 PUSH2 0x100 EXP DUP2 SLOAD DUP2 PUSH1 0xFF MUL NOT AND SWAP1 DUP4 PUSH1 0x1 DUP2 GT ISZERO PUSH2 0xC0 JUMPI PUSH2 0xBF PUSH2 0x63A JUMP JUMPDEST JUMPDEST MUL OR SWAP1 SSTORE POP PUSH1 0x8 PUSH1 0x40 MLOAD PUSH2 0xD4 SWAP2 SWAP1 PUSH2 0x6F1 JUMP JUMPDEST PUSH1 0x40 MLOAD DUP1 SWAP2 SUB SWAP1 KECCAK256 PUSH32 0x88B524D6621D7DE004458E51F7F3A0DEC805641FC7853FA1C25D15A1266B459E DUP4 PUSH1 0x40 MLOAD PUSH2 0x10B SWAP2 SWAP1 PUSH2 0x716 JUMP JUMPDEST PUSH1 0x40 MLOAD DUP1 SWAP2 SUB SWAP1 LOG2 POP POP POP PUSH2 0x72F JUMP JUMPDEST PUSH0 PUSH1 0x40 MLOAD SWAP1 POP SWAP1 JUMP JUMPDEST PUSH0 DUP1 REVERT JUMPDEST PUSH0 DUP1 REVERT JUMPDEST PUSH0 DUP2 SWAP1 POP SWAP2 SWAP1 POP JUMP JUMPDEST PUSH2 0x13E DUP2 PUSH2 0x12C JUMP JUMPDEST DUP2 EQ PUSH2 0x148 JUMPI PUSH0 DUP1 REVERT JUMPDEST POP JUMP JUMPDEST PUSH0 DUP2 MLOAD SWAP1 POP PUSH2 0x159 DUP2 PUSH2 0x135 JUMP JUMPDEST SWAP3 SWAP2 POP POP JUMP JUMPDEST PUSH0 DUP1 REVERT JUMPDEST PUSH0 DUP1 REVERT JUMPDEST PUSH0 PUSH1 0x1F NOT PUSH1 0x1F DUP4 ADD AND SWAP1 POP SWAP2 SWAP1 POP JUMP JUMPDEST PUSH32 0x4E487B7100000000000000000000000000000000000000000000000000000000 PUSH0 MSTORE PUSH1 0x41 PUSH1 0x4 MSTORE PUSH1 0x24 PUSH0 REVERT JUMPDEST PUSH2 0x1AD DUP3 PUSH2 0x167 JUMP JUMPDEST DUP2 ADD DUP2 DUP2 LT PUSH8 0xFFFFFFFFFFFFFFFF DUP3 GT OR ISZERO PUSH2 0x1CC JUMPI PUSH2 0x1CB PUSH2 0x177 JUMP JUMPDEST JUMPDEST DUP1 PUSH1 0x40 MSTORE POP POP POP JUMP JUMPDEST PUSH0 PUSH2 0x1DE PUSH2 0x11B JUMP JUMPDEST SWAP1 POP PUSH2 0x1EA DUP3 DUP3 PUSH2 0x1A4 JUMP JUMPDEST SWAP2 SWAP1 POP JUMP JUMPDEST PUSH0 PUSH8 0xFFFFFFFFFFFFFFFF DUP3 GT ISZERO PUSH2 0x209 JUMPI PUSH2 0x208 PUSH2 0x177 JUMP JUMPDEST JUMPDEST PUSH2 0x212 DUP3 PUSH2 0x167 JUMP JUMPDEST SWAP1 POP PUSH1 0x20 DUP2 ADD SWAP1 POP SWAP2 SWAP1 POP JUMP JUMPDEST DUP3 DUP2 DUP4 MCOPY PUSH0 DUP4 DUP4 ADD MSTORE POP POP POP JUMP JUMPDEST PUSH0 PUSH2 0x23F PUSH2 0x23A DUP5 PUSH2 0x1EF JUMP JUMPDEST PUSH2 0x1D5 JUMP JUMPDEST SWAP1 POP DUP3 DUP2 MSTORE PUSH1 0x20 DUP2 ADD DUP5 DUP5 DUP5 ADD GT ISZERO PUSH2 0x25B JUMPI PUSH2 0x25A PUSH2 0x163 JUMP JUMPDEST JUMPDEST PUSH2 0x266 DUP5 DUP3 DUP6 PUSH2 0x21F JUMP JUMPDEST POP SWAP4 SWAP3 POP POP POP JUMP JUMPDEST PUSH0 DUP3 PUSH1 0x1F DUP4 ADD SLT PUSH2 0x282 JUMPI PUSH2 0x281 PUSH2 0x15F JUMP JUMPDEST JUMPDEST DUP2 MLOAD PUSH2 0x292 DUP5 DUP3 PUSH1 0x20 DUP7 ADD PUSH2 0x22D JUMP JUMPDEST SWAP2 POP POP SWAP3 SWAP2 POP POP JUMP JUMPDEST PUSH0 DUP1 PUSH0 PUSH1 0x60 DUP5 DUP7 SUB SLT ISZERO PUSH2 0x2B2 JUMPI PUSH2 0x2B1 PUSH2 0x124 JUMP JUMPDEST JUMPDEST PUSH0 PUSH2 0x2BF DUP7 DUP3 DUP8 ADD PUSH2 0x14B JUMP JUMPDEST SWAP4 POP POP PUSH1 0x20 PUSH2 0x2D0 DUP7 DUP3 DUP8 ADD PUSH2 0x14B JUMP JUMPDEST SWAP3 POP POP PUSH1 0x40 DUP5 ADD MLOAD PUSH8 0xFFFFFFFFFFFFFFFF DUP2 GT ISZERO PUSH2 0x2F1 JUMPI PUSH2 0x2F0 PUSH2 0x128 JUMP JUMPDEST JUMPDEST PUSH2 0x2FD DUP7 DUP3 DUP8 ADD PUSH2 0x26E JUMP JUMPDEST SWAP2 POP POP SWAP3 POP SWAP3 POP SWAP3 JUMP JUMPDEST PUSH0 DUP2 MLOAD SWAP1 POP SWAP2 SWAP1 POP JUMP JUMPDEST PUSH32 0x4E487B7100000000000000000000000000000000000000000000000000000000 PUSH0 MSTORE PUSH1 0x22 PUSH1 0x4 MSTORE PUSH1 0x24 PUSH0 REVERT JUMPDEST PUSH0 PUSH1 0x2 DUP3 DIV SWAP1 POP PUSH1 0x1 DUP3 AND DUP1 PUSH2 0x355 JUMPI PUSH1 0x7F DUP3 AND SWAP2 POP JUMPDEST PUSH1 0x20 DUP3 LT DUP2 SUB PUSH2 0x368 JUMPI PUSH2 0x367 PUSH2 0x311 JUMP JUMPDEST JUMPDEST POP SWAP2 SWAP1 POP JUMP JUMPDEST PUSH0 DUP2 SWAP1 POP DUP2 PUSH0 MSTORE PUSH1 0x20 PUSH0 KECCAK256 SWAP1 POP SWAP2 SWAP1 POP JUMP JUMPDEST PUSH0 PUSH1 0x20 PUSH1 0x1F DUP4 ADD DIV SWAP1 POP SWAP2 SWAP1 POP JUMP JUMPDEST PUSH0 DUP3 DUP3 SHL SWAP1 POP SWAP3 SWAP2 POP POP JUMP JUMPDEST PUSH0 PUSH1 0x8 DUP4 MUL PUSH2 0x3CA PUSH32 0xFFFFFFFFFFFFFFFFFFFFFFFFFFFFFFFFFFFFFFFFFFFFFFFFFFFFFFFFFFFFFFFF DUP3 PUSH2 0x38F JUMP JUMPDEST PUSH2 0x3D4 DUP7 DUP4 PUSH2 0x38F JUMP JUMPDEST SWAP6 POP DUP1 NOT DUP5 AND SWAP4 POP DUP1 DUP7 AND DUP5 OR SWAP3 POP POP POP SWAP4 SWAP3 POP POP POP JUMP JUMPDEST PUSH0 DUP2 SWAP1 POP SWAP2 SWAP1 POP JUMP JUMPDEST PUSH0 PUSH2 0x40F PUSH2 0x40A PUSH2 0x405 DUP5 PUSH2 0x12C JUMP JUMPDEST PUSH2 0x3EC JUMP JUMPDEST PUSH2 0x12C JUMP JUMPDEST SWAP1 POP SWAP2 SWAP1 POP JUMP JUMPDEST PUSH0 DUP2 SWAP1 POP SWAP2 SWAP1 POP JUMP JUMPDEST PUSH2 0x428 DUP4 PUSH2 0x3F5 JUMP JUMPDEST PUSH2 0x43C PUSH2 0x434 DUP3 PUSH2 0x416 JUMP JUMPDEST DUP5 DUP5 SLOAD PUSH2 0x39B JUMP JUMPDEST DUP3 SSTORE POP POP POP POP JUMP JUMPDEST PUSH0 SWAP1 JUMP JUMPDEST PUSH2 0x450 PUSH2 0x444 JUMP JUMPDEST PUSH2 0x45B DUP2 DUP5 DUP5 PUSH2 0x41F JUMP JUMPDEST POP POP POP JUMP JUMPDEST JUMPDEST DUP2 DUP2 LT ISZERO PUSH2 0x47E JUMPI PUSH2 0x473 PUSH0 DUP3 PUSH2 0x448 JUMP JUMPDEST PUSH1 0x1 DUP2 ADD SWAP1 POP PUSH2 0x461 JUMP JUMPDEST POP POP JUMP JUMPDEST PUSH1 0x1F DUP3 GT ISZERO PUSH2 0x4C3 JUMPI PUSH2 0x494 DUP2 PUSH2 0x36E JUMP JUMPDEST PUSH2 0x49D DUP5 PUSH2 0x380 JUMP JUMPDEST DUP2 ADD PUSH1 0x20 DUP6 LT ISZERO PUSH2 0x4AC JUMPI DUP2 SWAP1 POP JUMPDEST PUSH2 0x4C0 PUSH2 0x4B8 DUP6 PUSH2 0x380 JUMP JUMPDEST DUP4 ADD DUP3 PUSH2 0x460 JUMP JUMPDEST POP POP JUMPDEST POP POP POP JUMP JUMPDEST PUSH0 DUP3 DUP3 SHR SWAP1 POP SWAP3 SWAP2 POP POP JUMP JUMPDEST PUSH0 PUSH2 0x4E3 PUSH0 NOT DUP5 PUSH1 0x8 MUL PUSH2 0x4C8 JUMP JUMPDEST NOT DUP1 DUP4 AND SWAP2 POP POP SWAP3 SWAP2 POP POP JUMP JUMPDEST PUSH0 PUSH2 0x4FB DUP4 DUP4 PUSH2 0x4D4 JUMP JUMPDEST SWAP2 POP DUP3 PUSH1 0x2 MUL DUP3 OR SWAP1 POP SWAP3 SWAP2 POP POP JUMP JUMPDEST PUSH2 0x514 DUP3 PUSH2 0x307 JUMP JUMPDEST PUSH8 0xFFFFFFFFFFFFFFFF DUP2 GT ISZERO PUSH2 0x52D JUMPI PUSH2 0x52C PUSH2 0x177 JUMP JUMPDEST JUMPDEST PUSH2 0x537 DUP3 SLOAD PUSH2 0x33E JUMP JUMPDEST PUSH2 0x542 DUP3 DUP3 DUP6 PUSH2 0x482 JUMP JUMPDEST PUSH0 PUSH1 0x20 SWAP1 POP PUSH1 0x1F DUP4 GT PUSH1 0x1 DUP2 EQ PUSH2 0x573 JUMPI PUSH0 DUP5 ISZERO PUSH2 0x561 JUMPI DUP3 DUP8 ADD MLOAD SWAP1 POP JUMPDEST PUSH2 0x56B DUP6 DUP3 PUSH2 0x4F0 JUMP JUMPDEST DUP7 SSTORE POP PUSH2 0x5D2 JUMP JUMPDEST PUSH1 0x1F NOT DUP5 AND PUSH2 0x581 DUP7 PUSH2 0x36E JUMP JUMPDEST PUSH0 JUMPDEST DUP3 DUP2 LT ISZERO PUSH2 0x5A8 JUMPI DUP5 DUP10 ADD MLOAD DUP3 SSTORE PUSH1 0x1 DUP3 ADD SWAP2 POP PUSH1 0x20 DUP6 ADD SWAP5 POP PUSH1 0x20 DUP2 ADD SWAP1 POP PUSH2 0x583 JUMP JUMPDEST DUP7 DUP4 LT ISZERO PUSH2 0x5C5 JUMPI DUP5 DUP10 ADD MLOAD PUSH2 0x5C1 PUSH1 0x1F DUP10 AND DUP3 PUSH2 0x4D4 JUMP JUMPDEST DUP4 SSTORE POP JUMPDEST PUSH1 0x1 PUSH1 0x2 DUP9 MUL ADD DUP9 SSTORE POP POP POP JUMPDEST POP POP POP POP POP POP JUMP JUMPDEST PUSH32 0x4E487B7100000000000000000000000000000000000000000000000000000000 PUSH0 MSTORE PUSH1 0x11 PUSH1 0x4 MSTORE PUSH1 0x24 PUSH0 REVERT JUMPDEST PUSH0 PUSH2 0x611 DUP3 PUSH2 0x12C JUMP JUMPDEST SWAP2 POP PUSH2 0x61C DUP4 PUSH2 0x12C JUMP JUMPDEST SWAP3 POP DUP3 DUP3 ADD SWAP1 POP DUP1 DUP3 GT ISZERO PUSH2 0x634 JUMPI PUSH2 0x633 PUSH2 0x5DA JUMP JUMPDEST JUMPDEST SWAP3 SWAP2 POP POP JUMP JUMPDEST PUSH32 0x4E487B7100000000000000000000000000000000000000000000000000000000 PUSH0 MSTORE PUSH1 0x21 PUSH1 0x4 MSTORE PUSH1 0x24 PUSH0 REVERT JUMPDEST PUSH0 DUP2 SWAP1 POP SWAP3 SWAP2 POP POP JUMP JUMPDEST PUSH0 DUP2 SLOAD PUSH2 0x67D DUP2 PUSH2 0x33E JUMP JUMPDEST PUSH2 0x687 DUP2 DUP7 PUSH2 0x667 JUMP JUMPDEST SWAP5 POP PUSH1 0x1 DUP3 AND PUSH0 DUP2 EQ PUSH2 0x6A1 JUMPI PUSH1 0x1 DUP2 EQ PUSH2 0x6B6 JUMPI PUSH2 0x6E8 JUMP JUMPDEST PUSH1 0xFF NOT DUP4 AND DUP7 MSTORE DUP2 ISZERO ISZERO DUP3 MUL DUP7 ADD SWAP4 POP PUSH2 0x6E8 JUMP JUMPDEST PUSH2 0x6BF DUP6 PUSH2 0x36E JUMP JUMPDEST PUSH0 JUMPDEST DUP4 DUP2 LT ISZERO PUSH2 0x6E0 JUMPI DUP2 SLOAD DUP2 DUP10 ADD MSTORE PUSH1 0x1 DUP3 ADD SWAP2 POP PUSH1 0x20 DUP2 ADD SWAP1 POP PUSH2 0x6C1 JUMP JUMPDEST DUP4 DUP9 ADD SWAP6 POP POP POP JUMPDEST POP POP POP SWAP3 SWAP2 POP POP JUMP JUMPDEST PUSH0 PUSH2 0x6FC DUP3 DUP5 PUSH2 0x671 JUMP JUMPDEST SWAP2 POP DUP2 SWAP1 POP SWAP3 SWAP2 POP POP JUMP JUMPDEST PUSH2 0x710 DUP2 PUSH2 0x12C JUMP JUMPDEST DUP3 MSTORE POP POP JUMP JUMPDEST PUSH0 PUSH1 0x20 DUP3 ADD SWAP1 POP PUSH2 0x729 PUSH0 DUP4 ADD DUP5 PUSH2 0x707 JUMP JUMPDEST SWAP3 SWAP2 POP POP JUMP JUMPDEST PUSH2 0x1B17 DUP1 PUSH2 0x73C PUSH0 CODECOPY PUSH0 RETURN INVALID PUSH1 0x80 PUSH1 0x40 MSTORE PUSH1 0x4 CALLDATASIZE LT PUSH2 0x49 JUMPI PUSH0 CALLDATALOAD PUSH1 0xE0 SHR DUP1 PUSH4 0x14D2687C EQ PUSH2 0x4D JUMPI DUP1 PUSH4 0x1998AEEF EQ PUSH2 0x77 JUMPI DUP1 PUSH4 0x43D726D6 EQ PUSH2 0x81 JUMPI DUP1 PUSH4 0xB7E03264 EQ PUSH2 0x97 JUMPI DUP1 PUSH4 0xD4E93292 EQ PUSH2 0xC2 JUMPI JUMPDEST PUSH0 DUP1 REVERT JUMPDEST CALLVALUE DUP1 ISZERO PUSH2 0x58 JUMPI PUSH0 DUP1 REVERT JUMPDEST POP PUSH2 0x61 PUSH2 0xD8 JUMP JUMPDEST PUSH1 0x40 MLOAD PUSH2 0x6E SWAP2 SWAP1 PUSH2 0x15CF JUMP JUMPDEST PUSH1 0x40 MLOAD DUP1 SWAP2 SUB SWAP1 RETURN JUMPDEST PUSH2 0x7F PUSH2 0x30D JUMP JUMPDEST STOP JUMPDEST CALLVALUE DUP1 ISZERO PUSH2 0x8C JUMPI PUSH0 DUP1 REVERT JUMPDEST POP PUSH2 0x95 PUSH2 0x7A5 JUMP JUMPDEST STOP JUMPDEST CALLVALUE DUP1 ISZERO PUSH2 0xA2 JUMPI PUSH0 DUP1 REVERT JUMPDEST POP PUSH2 0xAB PUSH2 0xEDC JUMP JUMPDEST PUSH1 0x40 MLOAD PUSH2 0xB9 SWAP3 SWAP2 SWAP1 PUSH2 0x160D JUMP JUMPDEST PUSH1 0x40 MLOAD DUP1 SWAP2 SUB SWAP1 RETURN JUMPDEST CALLVALUE DUP1 ISZERO PUSH2 0xCD JUMPI PUSH0 DUP1 REVERT JUMPDEST POP PUSH2 0xD6 PUSH2 0xF98 JUMP JUMPDEST STOP JUMPDEST PUSH1 0x60 PUSH0 DUP1 PUSH1 0x1 DUP2 GT ISZERO PUSH2 0xEE JUMPI PUSH2 0xED PUSH2 0x1634 JUMP JUMPDEST JUMPDEST PUSH1 0x1 PUSH0 SWAP1 SLOAD SWAP1 PUSH2 0x100 EXP SWAP1 DIV PUSH1 0xFF AND PUSH1 0x1 DUP2 GT ISZERO PUSH2 0x10F JUMPI PUSH2 0x10E PUSH2 0x1634 JUMP JUMPDEST JUMPDEST EQ PUSH2 0x15F JUMPI PUSH1 0x1 PUSH0 SWAP1 SLOAD SWAP1 PUSH2 0x100 EXP SWAP1 DIV PUSH1 0xFF AND PUSH1 0x40 MLOAD PUSH32 0xF1C25C2000000000000000000000000000000000000000000000000000000000 DUP2 MSTORE PUSH1 0x4 ADD PUSH2 0x156 SWAP2 SWAP1 PUSH2 0x16A7 JUMP JUMPDEST PUSH1 0x40 MLOAD DUP1 SWAP2 SUB SWAP1 REVERT JUMPDEST PUSH0 PUSH1 0x9 DUP1 SLOAD SWAP1 POP PUSH8 0xFFFFFFFFFFFFFFFF DUP2 GT ISZERO PUSH2 0x17F JUMPI PUSH2 0x17E PUSH2 0x16C0 JUMP JUMPDEST JUMPDEST PUSH1 0x40 MLOAD SWAP1 DUP1 DUP3 MSTORE DUP1 PUSH1 0x20 MUL PUSH1 0x20 ADD DUP3 ADD PUSH1 0x40 MSTORE DUP1 ISZERO PUSH2 0x1B8 JUMPI DUP2 PUSH1 0x20 ADD JUMPDEST PUSH2 0x1A5 PUSH2 0x140E JUMP JUMPDEST DUP2 MSTORE PUSH1 0x20 ADD SWAP1 PUSH1 0x1 SWAP1 SUB SWAP1 DUP2 PUSH2 0x19D JUMPI SWAP1 POP JUMPDEST POP SWAP1 POP PUSH0 JUMPDEST PUSH1 0x9 DUP1 SLOAD SWAP1 POP DUP2 LT ISZERO PUSH2 0x304 JUMPI PUSH1 0xA PUSH0 PUSH1 0x9 DUP4 DUP2 SLOAD DUP2 LT PUSH2 0x1E1 JUMPI PUSH2 0x1E0 PUSH2 0x16ED JUMP JUMPDEST JUMPDEST SWAP1 PUSH0 MSTORE PUSH1 0x20 PUSH0 KECCAK256 ADD PUSH0 SWAP1 SLOAD SWAP1 PUSH2 0x100 EXP SWAP1 DIV PUSH20 0xFFFFFFFFFFFFFFFFFFFFFFFFFFFFFFFFFFFFFFFF AND PUSH20 0xFFFFFFFFFFFFFFFFFFFFFFFFFFFFFFFFFFFFFFFF AND PUSH20 0xFFFFFFFFFFFFFFFFFFFFFFFFFFFFFFFFFFFFFFFF AND DUP2 MSTORE PUSH1 0x20 ADD SWAP1 DUP2 MSTORE PUSH1 0x20 ADD PUSH0 KECCAK256 PUSH1 0x40 MLOAD DUP1 PUSH1 0xA0 ADD PUSH1 0x40 MSTORE SWAP1 DUP2 PUSH0 DUP3 ADD PUSH0 SWAP1 SLOAD SWAP1 PUSH2 0x100 EXP SWAP1 DIV PUSH1 0xFF AND ISZERO ISZERO ISZERO ISZERO DUP2 MSTORE PUSH1 0x20 ADD PUSH1 0x1 DUP3 ADD SLOAD DUP2 MSTORE PUSH1 0x20 ADD PUSH1 0x2 DUP3 ADD SLOAD DUP2 MSTORE PUSH1 0x20 ADD PUSH1 0x3 DUP3 ADD SLOAD DUP2 MSTORE PUSH1 0x20 ADD PUSH1 0x4 DUP3 ADD PUSH0 SWAP1 SLOAD SWAP1 PUSH2 0x100 EXP SWAP1 DIV PUSH20 0xFFFFFFFFFFFFFFFFFFFFFFFFFFFFFFFFFFFFFFFF AND PUSH20 0xFFFFFFFFFFFFFFFFFFFFFFFFFFFFFFFFFFFFFFFF AND PUSH20 0xFFFFFFFFFFFFFFFFFFFFFFFFFFFFFFFFFFFFFFFF AND DUP2 MSTORE POP POP DUP3 DUP3 DUP2 MLOAD DUP2 LT PUSH2 0x2EC JUMPI PUSH2 0x2EB PUSH2 0x16ED JUMP JUMPDEST JUMPDEST PUSH1 0x20 MUL PUSH1 0x20 ADD ADD DUP2 SWAP1 MSTORE POP DUP1 DUP1 PUSH1 0x1 ADD SWAP2 POP POP PUSH2 0x1BD JUMP JUMPDEST POP DUP1 SWAP3 POP POP POP SWAP1 JUMP JUMPDEST PUSH0 DUP1 SLOAD TIMESTAMP LT PUSH2 0x32E JUMPI PUSH2 0x258 PUSH1 0x2 PUSH1 0x1 ADD SLOAD PUSH2 0x329 SWAP2 SWAP1 PUSH2 0x1747 JUMP JUMPDEST PUSH2 0x331 JUMP JUMPDEST PUSH0 SLOAD JUMPDEST SWAP1 POP PUSH0 PUSH1 0x1 DUP2 GT ISZERO PUSH2 0x346 JUMPI PUSH2 0x345 PUSH2 0x1634 JUMP JUMPDEST JUMPDEST PUSH1 0x1 PUSH0 SWAP1 SLOAD SWAP1 PUSH2 0x100 EXP SWAP1 DIV PUSH1 0xFF AND PUSH1 0x1 DUP2 GT ISZERO PUSH2 0x367 JUMPI PUSH2 0x366 PUSH2 0x1634 JUMP JUMPDEST JUMPDEST EQ DUP1 ISZERO PUSH2 0x373 JUMPI POP DUP1 TIMESTAMP GT JUMPDEST ISZERO PUSH2 0x381 JUMPI PUSH2 0x380 PUSH2 0x13A6 JUMP JUMPDEST JUMPDEST PUSH0 DUP1 PUSH1 0x1 DUP2 GT ISZERO PUSH2 0x395 JUMPI PUSH2 0x394 PUSH2 0x1634 JUMP JUMPDEST JUMPDEST PUSH1 0x1 PUSH0 SWAP1 SLOAD SWAP1 PUSH2 0x100 EXP SWAP1 DIV PUSH1 0xFF AND PUSH1 0x1 DUP2 GT ISZERO PUSH2 0x3B6 JUMPI PUSH2 0x3B5 PUSH2 0x1634 JUMP JUMPDEST JUMPDEST EQ PUSH2 0x406 JUMPI PUSH1 0x1 PUSH0 SWAP1 SLOAD SWAP1 PUSH2 0x100 EXP SWAP1 DIV PUSH1 0xFF AND PUSH1 0x40 MLOAD PUSH32 0xF1C25C2000000000000000000000000000000000000000000000000000000000 DUP2 MSTORE PUSH1 0x4 ADD PUSH2 0x3FD SWAP2 SWAP1 PUSH2 0x16A7 JUMP JUMPDEST PUSH1 0x40 MLOAD DUP1 SWAP2 SUB SWAP1 REVERT JUMPDEST PUSH1 0x64 PUSH1 0x5 PUSH1 0x2 PUSH1 0x3 ADD SLOAD PUSH2 0x41A SWAP2 SWAP1 PUSH2 0x177A JUMP JUMPDEST PUSH2 0x424 SWAP2 SWAP1 PUSH2 0x17E8 JUMP JUMPDEST PUSH1 0x2 PUSH1 0x3 ADD SLOAD PUSH2 0x434 SWAP2 SWAP1 PUSH2 0x1747 JUMP JUMPDEST CALLVALUE GT PUSH2 0x475 JUMPI PUSH1 0x40 MLOAD PUSH32 0x1410D82200000000000000000000000000000000000000000000000000000000 DUP2 MSTORE PUSH1 0x4 ADD PUSH2 0x46C SWAP1 PUSH2 0x1898 JUMP JUMPDEST PUSH1 0x40 MLOAD DUP1 SWAP2 SUB SWAP1 REVERT JUMPDEST PUSH1 0xA PUSH0 CALLER PUSH20 0xFFFFFFFFFFFFFFFFFFFFFFFFFFFFFFFFFFFFFFFF AND PUSH20 0xFFFFFFFFFFFFFFFFFFFFFFFFFFFFFFFFFFFFFFFF AND DUP2 MSTORE PUSH1 0x20 ADD SWAP1 DUP2 MSTORE PUSH1 0x20 ADD PUSH0 KECCAK256 PUSH0 ADD PUSH0 SWAP1 SLOAD SWAP1 PUSH2 0x100 EXP SWAP1 DIV PUSH1 0xFF AND PUSH2 0x526 JUMPI PUSH1 0x9 CALLER SWAP1 DUP1 PUSH1 0x1 DUP2 SLOAD ADD DUP1 DUP3 SSTORE DUP1 SWAP2 POP POP PUSH1 0x1 SWAP1 SUB SWAP1 PUSH0 MSTORE PUSH1 0x20 PUSH0 KECCAK256 ADD PUSH0 SWAP1 SWAP2 SWAP1 SWAP2 SWAP1 SWAP2 PUSH2 0x100 EXP DUP2 SLOAD DUP2 PUSH20 0xFFFFFFFFFFFFFFFFFFFFFFFFFFFFFFFFFFFFFFFF MUL NOT AND SWAP1 DUP4 PUSH20 0xFFFFFFFFFFFFFFFFFFFFFFFFFFFFFFFFFFFFFFFF AND MUL OR SWAP1 SSTORE POP JUMPDEST CALLVALUE PUSH1 0x2 DUP1 ADD PUSH0 DUP3 DUP3 SLOAD PUSH2 0x539 SWAP2 SWAP1 PUSH2 0x1747 JUMP JUMPDEST SWAP3 POP POP DUP2 SWAP1 SSTORE POP CALLVALUE PUSH1 0x2 PUSH1 0x3 ADD DUP2 SWAP1 SSTORE POP CALLER PUSH1 0x2 PUSH1 0x4 ADD PUSH0 PUSH2 0x100 EXP DUP2 SLOAD DUP2 PUSH20 0xFFFFFFFFFFFFFFFFFFFFFFFFFFFFFFFFFFFFFFFF MUL NOT AND SWAP1 DUP4 PUSH20 0xFFFFFFFFFFFFFFFFFFFFFFFFFFFFFFFFFFFFFFFF AND MUL OR SWAP1 SSTORE POP PUSH1 0x1 PUSH1 0x2 PUSH0 ADD PUSH0 PUSH2 0x100 EXP DUP2 SLOAD DUP2 PUSH1 0xFF MUL NOT AND SWAP1 DUP4 ISZERO ISZERO MUL OR SWAP1 SSTORE POP TIMESTAMP PUSH1 0x2 PUSH1 0x1 ADD DUP2 SWAP1 SSTORE POP CALLVALUE PUSH1 0xA PUSH0 CALLER PUSH20 0xFFFFFFFFFFFFFFFFFFFFFFFFFFFFFFFFFFFFFFFF AND PUSH20 0xFFFFFFFFFFFFFFFFFFFFFFFFFFFFFFFFFFFFFFFF AND DUP2 MSTORE PUSH1 0x20 ADD SWAP1 DUP2 MSTORE PUSH1 0x20 ADD PUSH0 KECCAK256 PUSH1 0x2 ADD PUSH0 DUP3 DUP3 SLOAD PUSH2 0x602 SWAP2 SWAP1 PUSH2 0x1747 JUMP JUMPDEST SWAP3 POP POP DUP2 SWAP1 SSTORE POP CALLVALUE PUSH1 0xA PUSH0 CALLER PUSH20 0xFFFFFFFFFFFFFFFFFFFFFFFFFFFFFFFFFFFFFFFF AND PUSH20 0xFFFFFFFFFFFFFFFFFFFFFFFFFFFFFFFFFFFFFFFF AND DUP2 MSTORE PUSH1 0x20 ADD SWAP1 DUP2 MSTORE PUSH1 0x20 ADD PUSH0 KECCAK256 PUSH1 0x3 ADD DUP2 SWAP1 SSTORE POP CALLER PUSH1 0xA PUSH0 CALLER PUSH20 0xFFFFFFFFFFFFFFFFFFFFFFFFFFFFFFFFFFFFFFFF AND PUSH20 0xFFFFFFFFFFFFFFFFFFFFFFFFFFFFFFFFFFFFFFFF AND DUP2 MSTORE PUSH1 0x20 ADD SWAP1 DUP2 MSTORE PUSH1 0x20 ADD PUSH0 KECCAK256 PUSH1 0x4 ADD PUSH0 PUSH2 0x100 EXP DUP2 SLOAD DUP2 PUSH20 0xFFFFFFFFFFFFFFFFFFFFFFFFFFFFFFFFFFFFFFFF MUL NOT AND SWAP1 DUP4 PUSH20 0xFFFFFFFFFFFFFFFFFFFFFFFFFFFFFFFFFFFFFFFF AND MUL OR SWAP1 SSTORE POP PUSH1 0x1 PUSH1 0xA PUSH0 CALLER PUSH20 0xFFFFFFFFFFFFFFFFFFFFFFFFFFFFFFFFFFFFFFFF AND PUSH20 0xFFFFFFFFFFFFFFFFFFFFFFFFFFFFFFFFFFFFFFFF AND DUP2 MSTORE PUSH1 0x20 ADD SWAP1 DUP2 MSTORE PUSH1 0x20 ADD PUSH0 KECCAK256 PUSH0 ADD PUSH0 PUSH2 0x100 EXP DUP2 SLOAD DUP2 PUSH1 0xFF MUL NOT AND SWAP1 DUP4 ISZERO ISZERO MUL OR SWAP1 SSTORE POP TIMESTAMP PUSH1 0xA PUSH0 CALLER PUSH20 0xFFFFFFFFFFFFFFFFFFFFFFFFFFFFFFFFFFFFFFFF AND PUSH20 0xFFFFFFFFFFFFFFFFFFFFFFFFFFFFFFFFFFFFFFFF AND DUP2 MSTORE PUSH1 0x20 ADD SWAP1 DUP2 MSTORE PUSH1 0x20 ADD PUSH0 KECCAK256 PUSH1 0x1 ADD DUP2 SWAP1 SSTORE POP PUSH32 0xDD0B6C6A77960E2066C96171B4D7AC9E8B4C184011F38544AFA36A5BB63EC59F CALLER CALLVALUE PUSH1 0x40 MLOAD PUSH2 0x799 SWAP3 SWAP2 SWAP1 PUSH2 0x160D JUMP JUMPDEST PUSH1 0x40 MLOAD DUP1 SWAP2 SUB SWAP1 LOG1 POP POP JUMP JUMPDEST PUSH0 DUP1 PUSH1 0x1 DUP2 GT ISZERO PUSH2 0x7B9 JUMPI PUSH2 0x7B8 PUSH2 0x1634 JUMP JUMPDEST JUMPDEST DUP2 PUSH1 0x1 DUP2 GT ISZERO PUSH2 0x7CC JUMPI PUSH2 0x7CB PUSH2 0x1634 JUMP JUMPDEST JUMPDEST EQ DUP1 ISZERO PUSH2 0x826 JUMPI POP PUSH1 0x7 PUSH0 SWAP1 SLOAD SWAP1 PUSH2 0x100 EXP SWAP1 DIV PUSH20 0xFFFFFFFFFFFFFFFFFFFFFFFFFFFFFFFFFFFFFFFF AND PUSH20 0xFFFFFFFFFFFFFFFFFFFFFFFFFFFFFFFFFFFFFFFF AND CALLER PUSH20 0xFFFFFFFFFFFFFFFFFFFFFFFFFFFFFFFFFFFFFFFF AND EQ ISZERO JUMPDEST ISZERO PUSH2 0x866 JUMPI PUSH1 0x40 MLOAD PUSH32 0x58A3F3C000000000000000000000000000000000000000000000000000000000 DUP2 MSTORE PUSH1 0x4 ADD PUSH2 0x85D SWAP1 PUSH2 0x1900 JUMP JUMPDEST PUSH1 0x40 MLOAD DUP1 SWAP2 SUB SWAP1 REVERT JUMPDEST PUSH1 0x1 DUP1 DUP2 GT ISZERO PUSH2 0x879 JUMPI PUSH2 0x878 PUSH2 0x1634 JUMP JUMPDEST JUMPDEST DUP2 PUSH1 0x1 DUP2 GT ISZERO PUSH2 0x88C JUMPI PUSH2 0x88B PUSH2 0x1634 JUMP JUMPDEST JUMPDEST EQ DUP1 ISZERO PUSH2 0x8E2 JUMPI POP PUSH1 0xA PUSH0 CALLER PUSH20 0xFFFFFFFFFFFFFFFFFFFFFFFFFFFFFFFFFFFFFFFF AND PUSH20 0xFFFFFFFFFFFFFFFFFFFFFFFFFFFFFFFFFFFFFFFF AND DUP2 MSTORE PUSH1 0x20 ADD SWAP1 DUP2 MSTORE PUSH1 0x20 ADD PUSH0 KECCAK256 PUSH0 ADD PUSH0 SWAP1 SLOAD SWAP1 PUSH2 0x100 EXP SWAP1 DIV PUSH1 0xFF AND ISZERO JUMPDEST ISZERO PUSH2 0x922 JUMPI PUSH1 0x40 MLOAD PUSH32 0x58A3F3C000000000000000000000000000000000000000000000000000000000 DUP2 MSTORE PUSH1 0x4 ADD PUSH2 0x919 SWAP1 PUSH2 0x1968 JUMP JUMPDEST PUSH1 0x40 MLOAD DUP1 SWAP2 SUB SWAP1 REVERT JUMPDEST PUSH1 0x1 DUP1 PUSH1 0x1 DUP2 GT ISZERO PUSH2 0x937 JUMPI PUSH2 0x936 PUSH2 0x1634 JUMP JUMPDEST JUMPDEST PUSH1 0x1 PUSH0 SWAP1 SLOAD SWAP1 PUSH2 0x100 EXP SWAP1 DIV PUSH1 0xFF AND PUSH1 0x1 DUP2 GT ISZERO PUSH2 0x958 JUMPI PUSH2 0x957 PUSH2 0x1634 JUMP JUMPDEST JUMPDEST EQ PUSH2 0x9A8 JUMPI PUSH1 0x1 PUSH0 SWAP1 SLOAD SWAP1 PUSH2 0x100 EXP SWAP1 DIV PUSH1 0xFF AND PUSH1 0x40 MLOAD PUSH32 0xF1C25C2000000000000000000000000000000000000000000000000000000000 DUP2 MSTORE PUSH1 0x4 ADD PUSH2 0x99F SWAP2 SWAP1 PUSH2 0x16A7 JUMP JUMPDEST PUSH1 0x40 MLOAD DUP1 SWAP2 SUB SWAP1 REVERT JUMPDEST PUSH1 0x2 PUSH1 0x4 ADD PUSH0 SWAP1 SLOAD SWAP1 PUSH2 0x100 EXP SWAP1 DIV PUSH20 0xFFFFFFFFFFFFFFFFFFFFFFFFFFFFFFFFFFFFFFFF AND PUSH20 0xFFFFFFFFFFFFFFFFFFFFFFFFFFFFFFFFFFFFFFFF AND PUSH1 0x8 PUSH1 0x40 MLOAD PUSH2 0x9F2 SWAP2 SWAP1 PUSH2 0x1A7F JUMP JUMPDEST PUSH1 0x40 MLOAD DUP1 SWAP2 SUB SWAP1 KECCAK256 PUSH32 0xEF1C1AC56C3E721A0A9BDB9F70B99F3CD67D25C1AABE4830F296C2391DC1C2E8 PUSH1 0x2 PUSH1 0x3 ADD SLOAD PUSH1 0x40 MLOAD PUSH2 0xA2E SWAP2 SWAP1 PUSH2 0x1A95 JUMP JUMPDEST PUSH1 0x40 MLOAD DUP1 SWAP2 SUB SWAP1 LOG3 PUSH0 JUMPDEST PUSH1 0x9 DUP1 SLOAD SWAP1 POP DUP2 LT ISZERO PUSH2 0xED7 JUMPI PUSH1 0x2 PUSH1 0x4 ADD PUSH0 SWAP1 SLOAD SWAP1 PUSH2 0x100 EXP SWAP1 DIV PUSH20 0xFFFFFFFFFFFFFFFFFFFFFFFFFFFFFFFFFFFFFFFF AND PUSH20 0xFFFFFFFFFFFFFFFFFFFFFFFFFFFFFFFFFFFFFFFF AND PUSH1 0x9 DUP3 DUP2 SLOAD DUP2 LT PUSH2 0xA94 JUMPI PUSH2 0xA93 PUSH2 0x16ED JUMP JUMPDEST JUMPDEST SWAP1 PUSH0 MSTORE PUSH1 0x20 PUSH0 KECCAK256 ADD PUSH0 SWAP1 SLOAD SWAP1 PUSH2 0x100 EXP SWAP1 DIV PUSH20 0xFFFFFFFFFFFFFFFFFFFFFFFFFFFFFFFFFFFFFFFF AND PUSH20 0xFFFFFFFFFFFFFFFFFFFFFFFFFFFFFFFFFFFFFFFF AND EQ PUSH2 0xECA JUMPI PUSH0 PUSH1 0xA PUSH0 PUSH1 0x9 DUP5 DUP2 SLOAD DUP2 LT PUSH2 0xAEF JUMPI PUSH2 0xAEE PUSH2 0x16ED JUMP JUMPDEST JUMPDEST SWAP1 PUSH0 MSTORE PUSH1 0x20 PUSH0 KECCAK256 ADD PUSH0 SWAP1 SLOAD SWAP1 PUSH2 0x100 EXP SWAP1 DIV PUSH20 0xFFFFFFFFFFFFFFFFFFFFFFFFFFFFFFFFFFFFFFFF AND PUSH20 0xFFFFFFFFFFFFFFFFFFFFFFFFFFFFFFFFFFFFFFFF AND PUSH20 0xFFFFFFFFFFFFFFFFFFFFFFFFFFFFFFFFFFFFFFFF AND DUP2 MSTORE PUSH1 0x20 ADD SWAP1 DUP2 MSTORE PUSH1 0x20 ADD PUSH0 KECCAK256 PUSH1 0x40 MLOAD DUP1 PUSH1 0xA0 ADD PUSH1 0x40 MSTORE SWAP1 DUP2 PUSH0 DUP3 ADD PUSH0 SWAP1 SLOAD SWAP1 PUSH2 0x100 EXP SWAP1 DIV PUSH1 0xFF AND ISZERO ISZERO ISZERO ISZERO DUP2 MSTORE PUSH1 0x20 ADD PUSH1 0x1 DUP3 ADD SLOAD DUP2 MSTORE PUSH1 0x20 ADD PUSH1 0x2 DUP3 ADD SLOAD DUP2 MSTORE PUSH1 0x20 ADD PUSH1 0x3 DUP3 ADD SLOAD DUP2 MSTORE PUSH1 0x20 ADD PUSH1 0x4 DUP3 ADD PUSH0 SWAP1 SLOAD SWAP1 PUSH2 0x100 EXP SWAP1 DIV PUSH20 0xFFFFFFFFFFFFFFFFFFFFFFFFFFFFFFFFFFFFFFFF AND PUSH20 0xFFFFFFFFFFFFFFFFFFFFFFFFFFFFFFFFFFFFFFFF AND PUSH20 0xFFFFFFFFFFFFFFFFFFFFFFFFFFFFFFFFFFFFFFFF AND DUP2 MSTORE POP POP SWAP1 POP PUSH0 PUSH1 0xA PUSH0 PUSH1 0x9 DUP6 DUP2 SLOAD DUP2 LT PUSH2 0xC01 JUMPI PUSH2 0xC00 PUSH2 0x16ED JUMP JUMPDEST JUMPDEST SWAP1 PUSH0 MSTORE PUSH1 0x20 PUSH0 KECCAK256 ADD PUSH0 SWAP1 SLOAD SWAP1 PUSH2 0x100 EXP SWAP1 DIV PUSH20 0xFFFFFFFFFFFFFFFFFFFFFFFFFFFFFFFFFFFFFFFF AND PUSH20 0xFFFFFFFFFFFFFFFFFFFFFFFFFFFFFFFFFFFFFFFF AND PUSH20 0xFFFFFFFFFFFFFFFFFFFFFFFFFFFFFFFFFFFFFFFF AND DUP2 MSTORE PUSH1 0x20 ADD SWAP1 DUP2 MSTORE PUSH1 0x20 ADD PUSH0 KECCAK256 PUSH1 0x2 ADD SLOAD SWAP1 POP PUSH1 0x64 PUSH1 0x2 DUP3 PUSH2 0xC77 SWAP2 SWAP1 PUSH2 0x177A JUMP JUMPDEST PUSH2 0xC81 SWAP2 SWAP1 PUSH2 0x17E8 JUMP JUMPDEST DUP2 PUSH2 0xC8C SWAP2 SWAP1 PUSH2 0x1AAE JUMP JUMPDEST SWAP1 POP PUSH1 0xA PUSH0 PUSH1 0x9 DUP6 DUP2 SLOAD DUP2 LT PUSH2 0xCA5 JUMPI PUSH2 0xCA4 PUSH2 0x16ED JUMP JUMPDEST JUMPDEST SWAP1 PUSH0 MSTORE PUSH1 0x20 PUSH0 KECCAK256 ADD PUSH0 SWAP1 SLOAD SWAP1 PUSH2 0x100 EXP SWAP1 DIV PUSH20 0xFFFFFFFFFFFFFFFFFFFFFFFFFFFFFFFFFFFFFFFF AND PUSH20 0xFFFFFFFFFFFFFFFFFFFFFFFFFFFFFFFFFFFFFFFF AND PUSH20 0xFFFFFFFFFFFFFFFFFFFFFFFFFFFFFFFFFFFFFFFF AND DUP2 MSTORE PUSH1 0x20 ADD SWAP1 DUP2 MSTORE PUSH1 0x20 ADD PUSH0 KECCAK256 PUSH0 DUP1 DUP3 ADD PUSH0 PUSH2 0x100 EXP DUP2 SLOAD SWAP1 PUSH1 0xFF MUL NOT AND SWAP1 SSTORE PUSH1 0x1 DUP3 ADD PUSH0 SWAP1 SSTORE PUSH1 0x2 DUP3 ADD PUSH0 SWAP1 SSTORE PUSH1 0x3 DUP3 ADD PUSH0 SWAP1 SSTORE PUSH1 0x4 DUP3 ADD PUSH0 PUSH2 0x100 EXP DUP2 SLOAD SWAP1 PUSH20 0xFFFFFFFFFFFFFFFFFFFFFFFFFFFFFFFFFFFFFFFF MUL NOT AND SWAP1 SSTORE POP POP PUSH1 0x9 DUP4 DUP2 SLOAD DUP2 LT PUSH2 0xD6A JUMPI PUSH2 0xD69 PUSH2 0x16ED JUMP JUMPDEST JUMPDEST SWAP1 PUSH0 MSTORE PUSH1 0x20 PUSH0 KECCAK256 ADD PUSH0 SWAP1 SLOAD SWAP1 PUSH2 0x100 EXP SWAP1 DIV PUSH20 0xFFFFFFFFFFFFFFFFFFFFFFFFFFFFFFFFFFFFFFFF AND PUSH20 0xFFFFFFFFFFFFFFFFFFFFFFFFFFFFFFFFFFFFFFFF AND PUSH2 0x8FC DUP3 SWAP1 DUP2 ISZERO MUL SWAP1 PUSH1 0x40 MLOAD PUSH0 PUSH1 0x40 MLOAD DUP1 DUP4 SUB DUP2 DUP6 DUP9 DUP9 CALL SWAP4 POP POP POP POP PUSH2 0xEC7 JUMPI DUP2 PUSH1 0xA PUSH0 PUSH1 0x9 DUP7 DUP2 SLOAD DUP2 LT PUSH2 0xDE1 JUMPI PUSH2 0xDE0 PUSH2 0x16ED JUMP JUMPDEST JUMPDEST SWAP1 PUSH0 MSTORE PUSH1 0x20 PUSH0 KECCAK256 ADD PUSH0 SWAP1 SLOAD SWAP1 PUSH2 0x100 EXP SWAP1 DIV PUSH20 0xFFFFFFFFFFFFFFFFFFFFFFFFFFFFFFFFFFFFFFFF AND PUSH20 0xFFFFFFFFFFFFFFFFFFFFFFFFFFFFFFFFFFFFFFFF AND PUSH20 0xFFFFFFFFFFFFFFFFFFFFFFFFFFFFFFFFFFFFFFFF AND DUP2 MSTORE PUSH1 0x20 ADD SWAP1 DUP2 MSTORE PUSH1 0x20 ADD PUSH0 KECCAK256 PUSH0 DUP3 ADD MLOAD DUP2 PUSH0 ADD PUSH0 PUSH2 0x100 EXP DUP2 SLOAD DUP2 PUSH1 0xFF MUL NOT AND SWAP1 DUP4 ISZERO ISZERO MUL OR SWAP1 SSTORE POP PUSH1 0x20 DUP3 ADD MLOAD DUP2 PUSH1 0x1 ADD SSTORE PUSH1 0x40 DUP3 ADD MLOAD DUP2 PUSH1 0x2 ADD SSTORE PUSH1 0x60 DUP3 ADD MLOAD DUP2 PUSH1 0x3 ADD SSTORE PUSH1 0x80 DUP3 ADD MLOAD DUP2 PUSH1 0x4 ADD PUSH0 PUSH2 0x100 EXP DUP2 SLOAD DUP2 PUSH20 0xFFFFFFFFFFFFFFFFFFFFFFFFFFFFFFFFFFFFFFFF MUL NOT AND SWAP1 DUP4 PUSH20 0xFFFFFFFFFFFFFFFFFFFFFFFFFFFFFFFFFFFFFFFF AND MUL OR SWAP1 SSTORE POP SWAP1 POP POP JUMPDEST POP POP JUMPDEST DUP1 DUP1 PUSH1 0x1 ADD SWAP2 POP POP PUSH2 0xA38 JUMP JUMPDEST POP POP POP JUMP JUMPDEST PUSH0 DUP1 PUSH1 0x1 DUP1 PUSH1 0x1 DUP2 GT ISZERO PUSH2 0xEF3 JUMPI PUSH2 0xEF2 PUSH2 0x1634 JUMP JUMPDEST JUMPDEST PUSH1 0x1 PUSH0 SWAP1 SLOAD SWAP1 PUSH2 0x100 EXP SWAP1 DIV PUSH1 0xFF AND PUSH1 0x1 DUP2 GT ISZERO PUSH2 0xF14 JUMPI PUSH2 0xF13 PUSH2 0x1634 JUMP JUMPDEST JUMPDEST EQ PUSH2 0xF64 JUMPI PUSH1 0x1 PUSH0 SWAP1 SLOAD SWAP1 PUSH2 0x100 EXP SWAP1 DIV PUSH1 0xFF AND PUSH1 0x40 MLOAD PUSH32 0xF1C25C2000000000000000000000000000000000000000000000000000000000 DUP2 MSTORE PUSH1 0x4 ADD PUSH2 0xF5B SWAP2 SWAP1 PUSH2 0x16A7 JUMP JUMPDEST PUSH1 0x40 MLOAD DUP1 SWAP2 SUB SWAP1 REVERT JUMPDEST PUSH1 0x2 PUSH1 0x4 ADD PUSH0 SWAP1 SLOAD SWAP1 PUSH2 0x100 EXP SWAP1 DIV PUSH20 0xFFFFFFFFFFFFFFFFFFFFFFFFFFFFFFFFFFFFFFFF AND PUSH1 0x2 PUSH1 0x3 ADD SLOAD SWAP3 POP SWAP3 POP POP SWAP1 SWAP2 JUMP JUMPDEST PUSH0 DUP1 SLOAD TIMESTAMP LT PUSH2 0xFB9 JUMPI PUSH2 0x258 PUSH1 0x2 PUSH1 0x1 ADD SLOAD PUSH2 0xFB4 SWAP2 SWAP1 PUSH2 0x1747 JUMP JUMPDEST PUSH2 0xFBC JUMP JUMPDEST PUSH0 SLOAD JUMPDEST SWAP1 POP PUSH0 PUSH1 0x1 DUP2 GT ISZERO PUSH2 0xFD1 JUMPI PUSH2 0xFD0 PUSH2 0x1634 JUMP JUMPDEST JUMPDEST PUSH1 0x1 PUSH0 SWAP1 SLOAD SWAP1 PUSH2 0x100 EXP SWAP1 DIV PUSH1 0xFF AND PUSH1 0x1 DUP2 GT ISZERO PUSH2 0xFF2 JUMPI PUSH2 0xFF1 PUSH2 0x1634 JUMP JUMPDEST JUMPDEST EQ DUP1 ISZERO PUSH2 0xFFE JUMPI POP DUP1 TIMESTAMP GT JUMPDEST ISZERO PUSH2 0x100C JUMPI PUSH2 0x100B PUSH2 0x13A6 JUMP JUMPDEST JUMPDEST PUSH1 0x1 PUSH0 PUSH1 0x1 DUP2 GT ISZERO PUSH2 0x1021 JUMPI PUSH2 0x1020 PUSH2 0x1634 JUMP JUMPDEST JUMPDEST DUP2 PUSH1 0x1 DUP2 GT ISZERO PUSH2 0x1034 JUMPI PUSH2 0x1033 PUSH2 0x1634 JUMP JUMPDEST JUMPDEST EQ DUP1 ISZERO PUSH2 0x108E JUMPI POP PUSH1 0x7 PUSH0 SWAP1 SLOAD SWAP1 PUSH2 0x100 EXP SWAP1 DIV PUSH20 0xFFFFFFFFFFFFFFFFFFFFFFFFFFFFFFFFFFFFFFFF AND PUSH20 0xFFFFFFFFFFFFFFFFFFFFFFFFFFFFFFFFFFFFFFFF AND CALLER PUSH20 0xFFFFFFFFFFFFFFFFFFFFFFFFFFFFFFFFFFFFFFFF AND EQ ISZERO JUMPDEST ISZERO PUSH2 0x10CE JUMPI PUSH1 0x40 MLOAD PUSH32 0x58A3F3C000000000000000000000000000000000000000000000000000000000 DUP2 MSTORE PUSH1 0x4 ADD PUSH2 0x10C5 SWAP1 PUSH2 0x1900 JUMP JUMPDEST PUSH1 0x40 MLOAD DUP1 SWAP2 SUB SWAP1 REVERT JUMPDEST PUSH1 0x1 DUP1 DUP2 GT ISZERO PUSH2 0x10E1 JUMPI PUSH2 0x10E0 PUSH2 0x1634 JUMP JUMPDEST JUMPDEST DUP2 PUSH1 0x1 DUP2 GT ISZERO PUSH2 0x10F4 JUMPI PUSH2 0x10F3 PUSH2 0x1634 JUMP JUMPDEST JUMPDEST EQ DUP1 ISZERO PUSH2 0x114A JUMPI POP PUSH1 0xA PUSH0 CALLER PUSH20 0xFFFFFFFFFFFFFFFFFFFFFFFFFFFFFFFFFFFFFFFF AND PUSH20 0xFFFFFFFFFFFFFFFFFFFFFFFFFFFFFFFFFFFFFFFF AND DUP2 MSTORE PUSH1 0x20 ADD SWAP1 DUP2 MSTORE PUSH1 0x20 ADD PUSH0 KECCAK256 PUSH0 ADD PUSH0 SWAP1 SLOAD SWAP1 PUSH2 0x100 EXP SWAP1 DIV PUSH1 0xFF AND ISZERO JUMPDEST ISZERO PUSH2 0x118A JUMPI PUSH1 0x40 MLOAD PUSH32 0x58A3F3C000000000000000000000000000000000000000000000000000000000 DUP2 MSTORE PUSH1 0x4 ADD PUSH2 0x1181 SWAP1 PUSH2 0x1968 JUMP JUMPDEST PUSH1 0x40 MLOAD DUP1 SWAP2 SUB SWAP1 REVERT JUMPDEST PUSH0 DUP1 PUSH1 0x1 DUP2 GT ISZERO PUSH2 0x119E JUMPI PUSH2 0x119D PUSH2 0x1634 JUMP JUMPDEST JUMPDEST PUSH1 0x1 PUSH0 SWAP1 SLOAD SWAP1 PUSH2 0x100 EXP SWAP1 DIV PUSH1 0xFF AND PUSH1 0x1 DUP2 GT ISZERO PUSH2 0x11BF JUMPI PUSH2 0x11BE PUSH2 0x1634 JUMP JUMPDEST JUMPDEST EQ PUSH2 0x120F JUMPI PUSH1 0x1 PUSH0 SWAP1 SLOAD SWAP1 PUSH2 0x100 EXP SWAP1 DIV PUSH1 0xFF AND PUSH1 0x40 MLOAD PUSH32 0xF1C25C2000000000000000000000000000000000000000000000000000000000 DUP2 MSTORE PUSH1 0x4 ADD PUSH2 0x1206 SWAP2 SWAP1 PUSH2 0x16A7 JUMP JUMPDEST PUSH1 0x40 MLOAD DUP1 SWAP2 SUB SWAP1 REVERT JUMPDEST PUSH0 PUSH1 0xA PUSH0 CALLER PUSH20 0xFFFFFFFFFFFFFFFFFFFFFFFFFFFFFFFFFFFFFFFF AND PUSH20 0xFFFFFFFFFFFFFFFFFFFFFFFFFFFFFFFFFFFFFFFF AND DUP2 MSTORE PUSH1 0x20 ADD SWAP1 DUP2 MSTORE PUSH1 0x20 ADD PUSH0 KECCAK256 PUSH1 0x3 ADD SLOAD PUSH1 0xA PUSH0 CALLER PUSH20 0xFFFFFFFFFFFFFFFFFFFFFFFFFFFFFFFFFFFFFFFF AND PUSH20 0xFFFFFFFFFFFFFFFFFFFFFFFFFFFFFFFFFFFFFFFF AND DUP2 MSTORE PUSH1 0x20 ADD SWAP1 DUP2 MSTORE PUSH1 0x20 ADD PUSH0 KECCAK256 PUSH1 0x2 ADD SLOAD PUSH2 0x129C SWAP2 SWAP1 PUSH2 0x1AAE JUMP JUMPDEST SWAP1 POP PUSH1 0xA PUSH0 CALLER PUSH20 0xFFFFFFFFFFFFFFFFFFFFFFFFFFFFFFFFFFFFFFFF AND PUSH20 0xFFFFFFFFFFFFFFFFFFFFFFFFFFFFFFFFFFFFFFFF AND DUP2 MSTORE PUSH1 0x20 ADD SWAP1 DUP2 MSTORE PUSH1 0x20 ADD PUSH0 KECCAK256 PUSH1 0x3 ADD SLOAD PUSH1 0xA PUSH0 CALLER PUSH20 0xFFFFFFFFFFFFFFFFFFFFFFFFFFFFFFFFFFFFFFFF AND PUSH20 0xFFFFFFFFFFFFFFFFFFFFFFFFFFFFFFFFFFFFFFFF AND DUP2 MSTORE PUSH1 0x20 ADD SWAP1 DUP2 MSTORE PUSH1 0x20 ADD PUSH0 KECCAK256 PUSH1 0x2 ADD DUP2 SWAP1 SSTORE POP PUSH0 DUP2 GT PUSH2 0x135C JUMPI PUSH1 0x40 MLOAD PUSH32 0xD0D04F6000000000000000000000000000000000000000000000000000000000 DUP2 MSTORE PUSH1 0x4 ADD PUSH1 0x40 MLOAD DUP1 SWAP2 SUB SWAP1 REVERT JUMPDEST CALLER PUSH20 0xFFFFFFFFFFFFFFFFFFFFFFFFFFFFFFFFFFFFFFFF AND PUSH2 0x8FC DUP3 SWAP1 DUP2 ISZERO MUL SWAP1 PUSH1 0x40 MLOAD PUSH0 PUSH1 0x40 MLOAD DUP1 DUP4 SUB DUP2 DUP6 DUP9 DUP9 CALL SWAP4 POP POP POP POP ISZERO DUP1 ISZERO PUSH2 0x139F JUMPI RETURNDATASIZE PUSH0 DUP1 RETURNDATACOPY RETURNDATASIZE PUSH0 REVERT JUMPDEST POP POP POP POP POP JUMP JUMPDEST PUSH1 0x1 DUP1 PUSH0 SWAP1 SLOAD SWAP1 PUSH2 0x100 EXP SWAP1 DIV PUSH1 0xFF AND PUSH1 0x1 DUP2 GT ISZERO PUSH2 0x13C8 JUMPI PUSH2 0x13C7 PUSH2 0x1634 JUMP JUMPDEST JUMPDEST PUSH2 0x13D2 SWAP2 SWAP1 PUSH2 0x1747 JUMP JUMPDEST PUSH1 0x1 DUP2 GT ISZERO PUSH2 0x13E4 JUMPI PUSH2 0x13E3 PUSH2 0x1634 JUMP JUMPDEST JUMPDEST PUSH1 0x1 PUSH0 PUSH2 0x100 EXP DUP2 SLOAD DUP2 PUSH1 0xFF MUL NOT AND SWAP1 DUP4 PUSH1 0x1 DUP2 GT ISZERO PUSH2 0x1407 JUMPI PUSH2 0x1406 PUSH2 0x1634 JUMP JUMPDEST JUMPDEST MUL OR SWAP1 SSTORE POP JUMP JUMPDEST PUSH1 0x40 MLOAD DUP1 PUSH1 0xA0 ADD PUSH1 0x40 MSTORE DUP1 PUSH0 ISZERO ISZERO DUP2 MSTORE PUSH1 0x20 ADD PUSH0 DUP2 MSTORE PUSH1 0x20 ADD PUSH0 DUP2 MSTORE PUSH1 0x20 ADD PUSH0 DUP2 MSTORE PUSH1 0x20 ADD PUSH0 PUSH20 0xFFFFFFFFFFFFFFFFFFFFFFFFFFFFFFFFFFFFFFFF AND DUP2 MSTORE POP SWAP1 JUMP JUMPDEST PUSH0 DUP2 MLOAD SWAP1 POP SWAP2 SWAP1 POP JUMP JUMPDEST PUSH0 DUP3 DUP3 MSTORE PUSH1 0x20 DUP3 ADD SWAP1 POP SWAP3 SWAP2 POP POP JUMP JUMPDEST PUSH0 DUP2 SWAP1 POP PUSH1 0x20 DUP3 ADD SWAP1 POP SWAP2 SWAP1 POP JUMP JUMPDEST PUSH0 DUP2 ISZERO ISZERO SWAP1 POP SWAP2 SWAP1 POP JUMP JUMPDEST PUSH2 0x148D DUP2 PUSH2 0x1479 JUMP JUMPDEST DUP3 MSTORE POP POP JUMP JUMPDEST PUSH0 DUP2 SWAP1 POP SWAP2 SWAP1 POP JUMP JUMPDEST PUSH2 0x14A5 DUP2 PUSH2 0x1493 JUMP JUMPDEST DUP3 MSTORE POP POP JUMP JUMPDEST PUSH0 PUSH20 0xFFFFFFFFFFFFFFFFFFFFFFFFFFFFFFFFFFFFFFFF DUP3 AND SWAP1 POP SWAP2 SWAP1 POP JUMP JUMPDEST PUSH0 PUSH2 0x14D4 DUP3 PUSH2 0x14AB JUMP JUMPDEST SWAP1 POP SWAP2 SWAP1 POP JUMP JUMPDEST PUSH2 0x14E4 DUP2 PUSH2 0x14CA JUMP JUMPDEST DUP3 MSTORE POP POP JUMP JUMPDEST PUSH1 0xA0 DUP3 ADD PUSH0 DUP3 ADD MLOAD PUSH2 0x14FE PUSH0 DUP6 ADD DUP3 PUSH2 0x1484 JUMP JUMPDEST POP PUSH1 0x20 DUP3 ADD MLOAD PUSH2 0x1511 PUSH1 0x20 DUP6 ADD DUP3 PUSH2 0x149C JUMP JUMPDEST POP PUSH1 0x40 DUP3 ADD MLOAD PUSH2 0x1524 PUSH1 0x40 DUP6 ADD DUP3 PUSH2 0x149C JUMP JUMPDEST POP PUSH1 0x60 DUP3 ADD MLOAD PUSH2 0x1537 PUSH1 0x60 DUP6 ADD DUP3 PUSH2 0x149C JUMP JUMPDEST POP PUSH1 0x80 DUP3 ADD MLOAD PUSH2 0x154A PUSH1 0x80 DUP6 ADD DUP3 PUSH2 0x14DB JUMP JUMPDEST POP POP POP POP JUMP JUMPDEST PUSH0 PUSH2 0x155B DUP4 DUP4 PUSH2 0x14EA JUMP JUMPDEST PUSH1 0xA0 DUP4 ADD SWAP1 POP SWAP3 SWAP2 POP POP JUMP JUMPDEST PUSH0 PUSH1 0x20 DUP3 ADD SWAP1 POP SWAP2 SWAP1 POP JUMP JUMPDEST PUSH0 PUSH2 0x157D DUP3 PUSH2 0x1450 JUMP JUMPDEST PUSH2 0x1587 DUP2 DUP6 PUSH2 0x145A JUMP JUMPDEST SWAP4 POP PUSH2 0x1592 DUP4 PUSH2 0x146A JUMP JUMPDEST DUP1 PUSH0 JUMPDEST DUP4 DUP2 LT ISZERO PUSH2 0x15C2 JUMPI DUP2 MLOAD PUSH2 0x15A9 DUP9 DUP3 PUSH2 0x1550 JUMP JUMPDEST SWAP8 POP PUSH2 0x15B4 DUP4 PUSH2 0x1567 JUMP JUMPDEST SWAP3 POP POP PUSH1 0x1 DUP2 ADD SWAP1 POP PUSH2 0x1595 JUMP JUMPDEST POP DUP6 SWAP4 POP POP POP POP SWAP3 SWAP2 POP POP JUMP JUMPDEST PUSH0 PUSH1 0x20 DUP3 ADD SWAP1 POP DUP2 DUP2 SUB PUSH0 DUP4 ADD MSTORE PUSH2 0x15E7 DUP2 DUP5 PUSH2 0x1573 JUMP JUMPDEST SWAP1 POP SWAP3 SWAP2 POP POP JUMP JUMPDEST PUSH2 0x15F8 DUP2 PUSH2 0x14CA JUMP JUMPDEST DUP3 MSTORE POP POP JUMP JUMPDEST PUSH2 0x1607 DUP2 PUSH2 0x1493 JUMP JUMPDEST DUP3 MSTORE POP POP JUMP JUMPDEST PUSH0 PUSH1 0x40 DUP3 ADD SWAP1 POP PUSH2 0x1620 PUSH0 DUP4 ADD DUP6 PUSH2 0x15EF JUMP JUMPDEST PUSH2 0x162D PUSH1 0x20 DUP4 ADD DUP5 PUSH2 0x15FE JUMP JUMPDEST SWAP4 SWAP3 POP POP POP JUMP JUMPDEST PUSH32 0x4E487B7100000000000000000000000000000000000000000000000000000000 PUSH0 MSTORE PUSH1 0x21 PUSH1 0x4 MSTORE PUSH1 0x24 PUSH0 REVERT JUMPDEST PUSH1 0x2 DUP2 LT PUSH2 0x1672 JUMPI PUSH2 0x1671 PUSH2 0x1634 JUMP JUMPDEST JUMPDEST POP JUMP JUMPDEST PUSH0 DUP2 SWAP1 POP PUSH2 0x1682 DUP3 PUSH2 0x1661 JUMP JUMPDEST SWAP2 SWAP1 POP JUMP JUMPDEST PUSH0 PUSH2 0x1691 DUP3 PUSH2 0x1675 JUMP JUMPDEST SWAP1 POP SWAP2 SWAP1 POP JUMP JUMPDEST PUSH2 0x16A1 DUP2 PUSH2 0x1687 JUMP JUMPDEST DUP3 MSTORE POP POP JUMP JUMPDEST PUSH0 PUSH1 0x20 DUP3 ADD SWAP1 POP PUSH2 0x16BA PUSH0 DUP4 ADD DUP5 PUSH2 0x1698 JUMP JUMPDEST SWAP3 SWAP2 POP POP JUMP JUMPDEST PUSH32 0x4E487B7100000000000000000000000000000000000000000000000000000000 PUSH0 MSTORE PUSH1 0x41 PUSH1 0x4 MSTORE PUSH1 0x24 PUSH0 REVERT JUMPDEST PUSH32 0x4E487B7100000000000000000000000000000000000000000000000000000000 PUSH0 MSTORE PUSH1 0x32 PUSH1 0x4 MSTORE PUSH1 0x24 PUSH0 REVERT JUMPDEST PUSH32 0x4E487B7100000000000000000000000000000000000000000000000000000000 PUSH0 MSTORE PUSH1 0x11 PUSH1 0x4 MSTORE PUSH1 0x24 PUSH0 REVERT JUMPDEST PUSH0 PUSH2 0x1751 DUP3 PUSH2 0x1493 JUMP JUMPDEST SWAP2 POP PUSH2 0x175C DUP4 PUSH2 0x1493 JUMP JUMPDEST SWAP3 POP DUP3 DUP3 ADD SWAP1 POP DUP1 DUP3 GT ISZERO PUSH2 0x1774 JUMPI PUSH2 0x1773 PUSH2 0x171A JUMP JUMPDEST JUMPDEST SWAP3 SWAP2 POP POP JUMP JUMPDEST PUSH0 PUSH2 0x1784 DUP3 PUSH2 0x1493 JUMP JUMPDEST SWAP2 POP PUSH2 0x178F DUP4 PUSH2 0x1493 JUMP JUMPDEST SWAP3 POP DUP3 DUP3 MUL PUSH2 0x179D DUP2 PUSH2 0x1493 JUMP JUMPDEST SWAP2 POP DUP3 DUP3 DIV DUP5 EQ DUP4 ISZERO OR PUSH2 0x17B4 JUMPI PUSH2 0x17B3 PUSH2 0x171A JUMP JUMPDEST JUMPDEST POP SWAP3 SWAP2 POP POP JUMP JUMPDEST PUSH32 0x4E487B7100000000000000000000000000000000000000000000000000000000 PUSH0 MSTORE PUSH1 0x12 PUSH1 0x4 MSTORE PUSH1 0x24 PUSH0 REVERT JUMPDEST PUSH0 PUSH2 0x17F2 DUP3 PUSH2 0x1493 JUMP JUMPDEST SWAP2 POP PUSH2 0x17FD DUP4 PUSH2 0x1493 JUMP JUMPDEST SWAP3 POP DUP3 PUSH2 0x180D JUMPI PUSH2 0x180C PUSH2 0x17BB JUMP JUMPDEST JUMPDEST DUP3 DUP3 DIV SWAP1 POP SWAP3 SWAP2 POP POP JUMP JUMPDEST PUSH0 DUP3 DUP3 MSTORE PUSH1 0x20 DUP3 ADD SWAP1 POP SWAP3 SWAP2 POP POP JUMP JUMPDEST PUSH32 0x412076616C696420626964206D75737420626520352025206772656174657220 PUSH0 DUP3 ADD MSTORE PUSH32 0x7468616E20746865206C617374206269642E0000000000000000000000000000 PUSH1 0x20 DUP3 ADD MSTORE POP JUMP JUMPDEST PUSH0 PUSH2 0x1882 PUSH1 0x32 DUP4 PUSH2 0x1818 JUMP JUMPDEST SWAP2 POP PUSH2 0x188D DUP3 PUSH2 0x1828 JUMP JUMPDEST PUSH1 0x40 DUP3 ADD SWAP1 POP SWAP2 SWAP1 POP JUMP JUMPDEST PUSH0 PUSH1 0x20 DUP3 ADD SWAP1 POP DUP2 DUP2 SUB PUSH0 DUP4 ADD MSTORE PUSH2 0x18AF DUP2 PUSH2 0x1876 JUMP JUMPDEST SWAP1 POP SWAP2 SWAP1 POP JUMP JUMPDEST PUSH32 0x4F6E6C792041646D696E205573657220697320616C6C6F7765642E0000000000 PUSH0 DUP3 ADD MSTORE POP JUMP JUMPDEST PUSH0 PUSH2 0x18EA PUSH1 0x1B DUP4 PUSH2 0x1818 JUMP JUMPDEST SWAP2 POP PUSH2 0x18F5 DUP3 PUSH2 0x18B6 JUMP JUMPDEST PUSH1 0x20 DUP3 ADD SWAP1 POP SWAP2 SWAP1 POP JUMP JUMPDEST PUSH0 PUSH1 0x20 DUP3 ADD SWAP1 POP DUP2 DUP2 SUB PUSH0 DUP4 ADD MSTORE PUSH2 0x1917 DUP2 PUSH2 0x18DE JUMP JUMPDEST SWAP1 POP SWAP2 SWAP1 POP JUMP JUMPDEST PUSH32 0x4F6E6C79204269646465722061726520616C6C6F7765642E0000000000000000 PUSH0 DUP3 ADD MSTORE POP JUMP JUMPDEST PUSH0 PUSH2 0x1952 PUSH1 0x18 DUP4 PUSH2 0x1818 JUMP JUMPDEST SWAP2 POP PUSH2 0x195D DUP3 PUSH2 0x191E JUMP JUMPDEST PUSH1 0x20 DUP3 ADD SWAP1 POP SWAP2 SWAP1 POP JUMP JUMPDEST PUSH0 PUSH1 0x20 DUP3 ADD SWAP1 POP DUP2 DUP2 SUB PUSH0 DUP4 ADD MSTORE PUSH2 0x197F DUP2 PUSH2 0x1946 JUMP JUMPDEST SWAP1 POP SWAP2 SWAP1 POP JUMP JUMPDEST PUSH32 0x4E487B7100000000000000000000000000000000000000000000000000000000 PUSH0 MSTORE PUSH1 0x22 PUSH1 0x4 MSTORE PUSH1 0x24 PUSH0 REVERT JUMPDEST PUSH0 PUSH1 0x2 DUP3 DIV SWAP1 POP PUSH1 0x1 DUP3 AND DUP1 PUSH2 0x19CA JUMPI PUSH1 0x7F DUP3 AND SWAP2 POP JUMPDEST PUSH1 0x20 DUP3 LT DUP2 SUB PUSH2 0x19DD JUMPI PUSH2 0x19DC PUSH2 0x1986 JUMP JUMPDEST JUMPDEST POP SWAP2 SWAP1 POP JUMP JUMPDEST PUSH0 DUP2 SWAP1 POP SWAP3 SWAP2 POP POP JUMP JUMPDEST PUSH0 DUP2 SWAP1 POP DUP2 PUSH0 MSTORE PUSH1 0x20 PUSH0 KECCAK256 SWAP1 POP SWAP2 SWAP1 POP JUMP JUMPDEST PUSH0 DUP2 SLOAD PUSH2 0x1A0B DUP2 PUSH2 0x19B3 JUMP JUMPDEST PUSH2 0x1A15 DUP2 DUP7 PUSH2 0x19E3 JUMP JUMPDEST SWAP5 POP PUSH1 0x1 DUP3 AND PUSH0 DUP2 EQ PUSH2 0x1A2F JUMPI PUSH1 0x1 DUP2 EQ PUSH2 0x1A44 JUMPI PUSH2 0x1A76 JUMP JUMPDEST PUSH1 0xFF NOT DUP4 AND DUP7 MSTORE DUP2 ISZERO ISZERO DUP3 MUL DUP7 ADD SWAP4 POP PUSH2 0x1A76 JUMP JUMPDEST PUSH2 0x1A4D DUP6 PUSH2 0x19ED JUMP JUMPDEST PUSH0 JUMPDEST DUP4 DUP2 LT ISZERO PUSH2 0x1A6E JUMPI DUP2 SLOAD DUP2 DUP10 ADD MSTORE PUSH1 0x1 DUP3 ADD SWAP2 POP PUSH1 0x20 DUP2 ADD SWAP1 POP PUSH2 0x1A4F JUMP JUMPDEST DUP4 DUP9 ADD SWAP6 POP POP POP JUMPDEST POP POP POP SWAP3 SWAP2 POP POP JUMP JUMPDEST PUSH0 PUSH2 0x1A8A DUP3 DUP5 PUSH2 0x19FF JUMP JUMPDEST SWAP2 POP DUP2 SWAP1 POP SWAP3 SWAP2 POP POP JUMP JUMPDEST PUSH0 PUSH1 0x20 DUP3 ADD SWAP1 POP PUSH2 0x1AA8 PUSH0 DUP4 ADD DUP5 PUSH2 0x15FE JUMP JUMPDEST SWAP3 SWAP2 POP POP JUMP JUMPDEST PUSH0 PUSH2 0x1AB8 DUP3 PUSH2 0x1493 JUMP JUMPDEST SWAP2 POP PUSH2 0x1AC3 DUP4 PUSH2 0x1493 JUMP JUMPDEST SWAP3 POP DUP3 DUP3 SUB SWAP1 POP DUP2 DUP2 GT ISZERO PUSH2 0x1ADB JUMPI PUSH2 0x1ADA PUSH2 0x171A JUMP JUMPDEST JUMPDEST SWAP3 SWAP2 POP POP JUMP INVALID LOG2 PUSH5 0x6970667358 0x22 SLT KECCAK256 EQ 0xAC 0xF9 SDIV 0x2F 0x23 0x2D 0xBF PUSH20 0xB730CDCAD79E0E89CFD595579B8329F1DE91E6C2 0x2B ADD 0xB0 PUSH5 0x736F6C6343 STOP ADDMOD BYTE STOP CALLER "
				},
				"gasEstimates": {
					"creation": {
						"codeDepositCost": "1387000",
						"executionCost": "infinite",
						"totalCost": "infinite"
					},
					"external": {
						"bid()": "infinite",
						"close()": "infinite",
						"showBids()": "infinite",
						"showWinner()": "6999",
						"withdrawal()": "infinite"
					},
					"internal": {
						"nextStage()": "infinite"
					}
				},
				"methodIdentifiers": {
					"bid()": "1998aeef",
					"close()": "43d726d6",
					"showBids()": "14d2687c",
					"showWinner()": "b7e03264",
					"withdrawal()": "d4e93292"
				}
			},
			"storageLayout": {
				"storage": [
					{
						"astId": 3,
						"contract": "tp2/auction.sol:Auction",
						"label": "completionTime",
						"offset": 0,
						"slot": "0",
						"type": "t_uint256"
					},
					{
						"astId": 6,
						"contract": "tp2/auction.sol:Auction",
						"label": "stage",
						"offset": 0,
						"slot": "1",
						"type": "t_enum(Stage)70"
					},
					{
						"astId": 9,
						"contract": "tp2/auction.sol:Auction",
						"label": "lastBid",
						"offset": 0,
						"slot": "2",
						"type": "t_struct(Bid)67_storage"
					},
					{
						"astId": 11,
						"contract": "tp2/auction.sol:Auction",
						"label": "admin",
						"offset": 0,
						"slot": "7",
						"type": "t_address"
					},
					{
						"astId": 13,
						"contract": "tp2/auction.sol:Auction",
						"label": "auctioneItem",
						"offset": 0,
						"slot": "8",
						"type": "t_string_storage"
					},
					{
						"astId": 16,
						"contract": "tp2/auction.sol:Auction",
						"label": "bidders",
						"offset": 0,
						"slot": "9",
						"type": "t_array(t_address)dyn_storage"
					},
					{
						"astId": 21,
						"contract": "tp2/auction.sol:Auction",
						"label": "balances",
						"offset": 0,
						"slot": "10",
						"type": "t_mapping(t_address,t_struct(Bid)67_storage)"
					}
				],
				"types": {
					"t_address": {
						"encoding": "inplace",
						"label": "address",
						"numberOfBytes": "20"
					},
					"t_array(t_address)dyn_storage": {
						"base": "t_address",
						"encoding": "dynamic_array",
						"label": "address[]",
						"numberOfBytes": "32"
					},
					"t_bool": {
						"encoding": "inplace",
						"label": "bool",
						"numberOfBytes": "1"
					},
					"t_enum(Stage)70": {
						"encoding": "inplace",
						"label": "enum Auction.Stage",
						"numberOfBytes": "1"
					},
					"t_mapping(t_address,t_struct(Bid)67_storage)": {
						"encoding": "mapping",
						"key": "t_address",
						"label": "mapping(address => struct Auction.Bid)",
						"numberOfBytes": "32",
						"value": "t_struct(Bid)67_storage"
					},
					"t_string_storage": {
						"encoding": "bytes",
						"label": "string",
						"numberOfBytes": "32"
					},
					"t_struct(Bid)67_storage": {
						"encoding": "inplace",
						"label": "struct Auction.Bid",
						"members": [
							{
								"astId": 58,
								"contract": "tp2/auction.sol:Auction",
								"label": "exists",
								"offset": 0,
								"slot": "0",
								"type": "t_bool"
							},
							{
								"astId": 60,
								"contract": "tp2/auction.sol:Auction",
								"label": "timestamp",
								"offset": 0,
								"slot": "1",
								"type": "t_uint256"
							},
							{
								"astId": 62,
								"contract": "tp2/auction.sol:Auction",
								"label": "accumulated",
								"offset": 0,
								"slot": "2",
								"type": "t_uint256"
							},
							{
								"astId": 64,
								"contract": "tp2/auction.sol:Auction",
								"label": "amount",
								"offset": 0,
								"slot": "3",
								"type": "t_uint256"
							},
							{
								"astId": 66,
								"contract": "tp2/auction.sol:Auction",
								"label": "owner",
								"offset": 0,
								"slot": "4",
								"type": "t_address"
							}
						],
						"numberOfBytes": "160"
					},
					"t_uint256": {
						"encoding": "inplace",
						"label": "uint256",
						"numberOfBytes": "32"
					}
				}
			},
			"userdoc": {
				"kind": "user",
				"methods": {},
				"version": 1
			}
		}
	}
}