{
	"tp2/auction.sol": {
		"Auction": {
			"abi": [
				{
					"inputs": [
						{
							"internalType": "string",
							"name": "item",
							"type": "string"
						},
						{
							"internalType": "uint32",
							"name": "duration",
							"type": "uint32"
						},
						{
							"internalType": "uint32",
							"name": "basePrice",
							"type": "uint32"
						}
					],
					"stateMutability": "nonpayable",
					"type": "constructor"
				},
				{
					"inputs": [],
					"name": "bit",
					"outputs": [],
					"stateMutability": "payable",
					"type": "function"
				}
			],
			"devdoc": {
				"kind": "dev",
				"methods": {},
				"version": 1
			},
			"evm": {
				"assembly": "    /* \"tp2/auction.sol\":58:478  contract Auction {... */\n  mstore(0x40, 0x80)\n    /* \"tp2/auction.sol\":219:429  constructor(string memory item, uint32 duration, uint32 basePrice){... */\n  callvalue\n  dup1\n  iszero\n  tag_1\n  jumpi\n  revert(0x00, 0x00)\ntag_1:\n  pop\n  mload(0x40)\n  sub(codesize, bytecodeSize)\n  dup1\n  bytecodeSize\n  dup4\n  codecopy\n  dup2\n  dup2\n  add\n  0x40\n  mstore\n  dup2\n  add\n  swap1\n  tag_2\n  swap2\n  swap1\n  tag_3\n  jump\t// in\ntag_2:\n    /* \"tp2/auction.sol\":303:313  msg.sender */\n  caller\n    /* \"tp2/auction.sol\":295:300  admin */\n  0x00\n  0x00\n    /* \"tp2/auction.sol\":295:313  admin = msg.sender */\n  0x0100\n  exp\n  dup2\n  sload\n  dup2\n  0xffffffffffffffffffffffffffffffffffffffff\n  mul\n  not\n  and\n  swap1\n  dup4\n  0xffffffffffffffffffffffffffffffffffffffff\n  and\n  mul\n  or\n  swap1\n  sstore\n  pop\n    /* \"tp2/auction.sol\":338:342  item */\n  dup3\n    /* \"tp2/auction.sol\":323:335  auctioneItem */\n  0x01\n    /* \"tp2/auction.sol\":323:342  auctioneItem = item */\n  swap1\n  dup2\n  tag_6\n  swap2\n  swap1\n  tag_7\n  jump\t// in\ntag_6:\n  pop\n    /* \"tp2/auction.sol\":387:395  duration */\n  dup2\n    /* \"tp2/auction.sol\":369:395  block.timestamp + duration */\n  0xffffffff\n  and\n    /* \"tp2/auction.sol\":369:384  block.timestamp */\n  timestamp\n    /* \"tp2/auction.sol\":369:395  block.timestamp + duration */\n  tag_8\n  swap2\n  swap1\n  tag_9\n  jump\t// in\ntag_8:\n    /* \"tp2/auction.sol\":352:366  completionTime */\n  0x02\n    /* \"tp2/auction.sol\":352:395  completionTime = block.timestamp + duration */\n  dup2\n  swap1\n  sstore\n  pop\n    /* \"tp2/auction.sol\":413:422  basePrice */\n  dup1\n    /* \"tp2/auction.sol\":405:410  price */\n  0x04\n  0x00\n    /* \"tp2/auction.sol\":405:422  price = basePrice */\n  0x0100\n  exp\n  dup2\n  sload\n  dup2\n  0xffffffff\n  mul\n  not\n  and\n  swap1\n  dup4\n  0xffffffff\n  and\n  mul\n  or\n  swap1\n  sstore\n  pop\n    /* \"tp2/auction.sol\":219:429  constructor(string memory item, uint32 duration, uint32 basePrice){... */\n  pop\n  pop\n  pop\n    /* \"tp2/auction.sol\":58:478  contract Auction {... */\n  jump(tag_10)\n    /* \"#utility.yul\":7:82   */\ntag_11:\n    /* \"#utility.yul\":40:46   */\n  0x00\n    /* \"#utility.yul\":73:75   */\n  0x40\n    /* \"#utility.yul\":67:76   */\n  mload\n    /* \"#utility.yul\":57:76   */\n  swap1\n  pop\n    /* \"#utility.yul\":7:82   */\n  swap1\n  jump\t// out\n    /* \"#utility.yul\":88:205   */\ntag_12:\n    /* \"#utility.yul\":197:198   */\n  0x00\n    /* \"#utility.yul\":194:195   */\n  0x00\n    /* \"#utility.yul\":187:199   */\n  revert\n    /* \"#utility.yul\":211:328   */\ntag_13:\n    /* \"#utility.yul\":320:321   */\n  0x00\n    /* \"#utility.yul\":317:318   */\n  0x00\n    /* \"#utility.yul\":310:322   */\n  revert\n    /* \"#utility.yul\":334:451   */\ntag_14:\n    /* \"#utility.yul\":443:444   */\n  0x00\n    /* \"#utility.yul\":440:441   */\n  0x00\n    /* \"#utility.yul\":433:445   */\n  revert\n    /* \"#utility.yul\":457:574   */\ntag_15:\n    /* \"#utility.yul\":566:567   */\n  0x00\n    /* \"#utility.yul\":563:564   */\n  0x00\n    /* \"#utility.yul\":556:568   */\n  revert\n    /* \"#utility.yul\":580:682   */\ntag_16:\n    /* \"#utility.yul\":621:627   */\n  0x00\n    /* \"#utility.yul\":672:674   */\n  0x1f\n    /* \"#utility.yul\":668:675   */\n  not\n    /* \"#utility.yul\":663:665   */\n  0x1f\n    /* \"#utility.yul\":656:661   */\n  dup4\n    /* \"#utility.yul\":652:666   */\n  add\n    /* \"#utility.yul\":648:676   */\n  and\n    /* \"#utility.yul\":638:676   */\n  swap1\n  pop\n    /* \"#utility.yul\":580:682   */\n  swap2\n  swap1\n  pop\n  jump\t// out\n    /* \"#utility.yul\":688:868   */\ntag_17:\n    /* \"#utility.yul\":736:813   */\n  0x4e487b7100000000000000000000000000000000000000000000000000000000\n    /* \"#utility.yul\":733:734   */\n  0x00\n    /* \"#utility.yul\":726:814   */\n  mstore\n    /* \"#utility.yul\":833:837   */\n  0x41\n    /* \"#utility.yul\":830:831   */\n  0x04\n    /* \"#utility.yul\":823:838   */\n  mstore\n    /* \"#utility.yul\":857:861   */\n  0x24\n    /* \"#utility.yul\":854:855   */\n  0x00\n    /* \"#utility.yul\":847:862   */\n  revert\n    /* \"#utility.yul\":874:1155   */\ntag_18:\n    /* \"#utility.yul\":957:984   */\n  tag_56\n    /* \"#utility.yul\":979:983   */\n  dup3\n    /* \"#utility.yul\":957:984   */\n  tag_16\n  jump\t// in\ntag_56:\n    /* \"#utility.yul\":949:955   */\n  dup2\n    /* \"#utility.yul\":945:985   */\n  add\n    /* \"#utility.yul\":1087:1093   */\n  dup2\n    /* \"#utility.yul\":1075:1085   */\n  dup2\n    /* \"#utility.yul\":1072:1094   */\n  lt\n    /* \"#utility.yul\":1051:1069   */\n  0xffffffffffffffff\n    /* \"#utility.yul\":1039:1049   */\n  dup3\n    /* \"#utility.yul\":1036:1070   */\n  gt\n    /* \"#utility.yul\":1033:1095   */\n  or\n    /* \"#utility.yul\":1030:1118   */\n  iszero\n  tag_57\n  jumpi\n    /* \"#utility.yul\":1098:1116   */\n  tag_58\n  tag_17\n  jump\t// in\ntag_58:\n    /* \"#utility.yul\":1030:1118   */\ntag_57:\n    /* \"#utility.yul\":1138:1148   */\n  dup1\n    /* \"#utility.yul\":1134:1136   */\n  0x40\n    /* \"#utility.yul\":1127:1149   */\n  mstore\n    /* \"#utility.yul\":917:1155   */\n  pop\n    /* \"#utility.yul\":874:1155   */\n  pop\n  pop\n  jump\t// out\n    /* \"#utility.yul\":1161:1290   */\ntag_19:\n    /* \"#utility.yul\":1195:1201   */\n  0x00\n    /* \"#utility.yul\":1222:1242   */\n  tag_60\n  tag_11\n  jump\t// in\ntag_60:\n    /* \"#utility.yul\":1212:1242   */\n  swap1\n  pop\n    /* \"#utility.yul\":1251:1284   */\n  tag_61\n    /* \"#utility.yul\":1279:1283   */\n  dup3\n    /* \"#utility.yul\":1271:1277   */\n  dup3\n    /* \"#utility.yul\":1251:1284   */\n  tag_18\n  jump\t// in\ntag_61:\n    /* \"#utility.yul\":1161:1290   */\n  swap2\n  swap1\n  pop\n  jump\t// out\n    /* \"#utility.yul\":1296:1604   */\ntag_20:\n    /* \"#utility.yul\":1358:1362   */\n  0x00\n    /* \"#utility.yul\":1448:1466   */\n  0xffffffffffffffff\n    /* \"#utility.yul\":1440:1446   */\n  dup3\n    /* \"#utility.yul\":1437:1467   */\n  gt\n    /* \"#utility.yul\":1434:1490   */\n  iszero\n  tag_63\n  jumpi\n    /* \"#utility.yul\":1470:1488   */\n  tag_64\n  tag_17\n  jump\t// in\ntag_64:\n    /* \"#utility.yul\":1434:1490   */\ntag_63:\n    /* \"#utility.yul\":1508:1537   */\n  tag_65\n    /* \"#utility.yul\":1530:1536   */\n  dup3\n    /* \"#utility.yul\":1508:1537   */\n  tag_16\n  jump\t// in\ntag_65:\n    /* \"#utility.yul\":1500:1537   */\n  swap1\n  pop\n    /* \"#utility.yul\":1592:1596   */\n  0x20\n    /* \"#utility.yul\":1586:1590   */\n  dup2\n    /* \"#utility.yul\":1582:1597   */\n  add\n    /* \"#utility.yul\":1574:1597   */\n  swap1\n  pop\n    /* \"#utility.yul\":1296:1604   */\n  swap2\n  swap1\n  pop\n  jump\t// out\n    /* \"#utility.yul\":1610:1749   */\ntag_21:\n    /* \"#utility.yul\":1699:1705   */\n  dup3\n    /* \"#utility.yul\":1694:1697   */\n  dup2\n    /* \"#utility.yul\":1689:1692   */\n  dup4\n    /* \"#utility.yul\":1683:1706   */\n  mcopy\n    /* \"#utility.yul\":1740:1741   */\n  0x00\n    /* \"#utility.yul\":1731:1737   */\n  dup4\n    /* \"#utility.yul\":1726:1729   */\n  dup4\n    /* \"#utility.yul\":1722:1738   */\n  add\n    /* \"#utility.yul\":1715:1742   */\n  mstore\n    /* \"#utility.yul\":1610:1749   */\n  pop\n  pop\n  pop\n  jump\t// out\n    /* \"#utility.yul\":1755:2189   */\ntag_22:\n    /* \"#utility.yul\":1844:1849   */\n  0x00\n    /* \"#utility.yul\":1869:1935   */\n  tag_68\n    /* \"#utility.yul\":1885:1934   */\n  tag_69\n    /* \"#utility.yul\":1927:1933   */\n  dup5\n    /* \"#utility.yul\":1885:1934   */\n  tag_20\n  jump\t// in\ntag_69:\n    /* \"#utility.yul\":1869:1935   */\n  tag_19\n  jump\t// in\ntag_68:\n    /* \"#utility.yul\":1860:1935   */\n  swap1\n  pop\n    /* \"#utility.yul\":1958:1964   */\n  dup3\n    /* \"#utility.yul\":1951:1956   */\n  dup2\n    /* \"#utility.yul\":1944:1965   */\n  mstore\n    /* \"#utility.yul\":1996:2000   */\n  0x20\n    /* \"#utility.yul\":1989:1994   */\n  dup2\n    /* \"#utility.yul\":1985:2001   */\n  add\n    /* \"#utility.yul\":2034:2037   */\n  dup5\n    /* \"#utility.yul\":2025:2031   */\n  dup5\n    /* \"#utility.yul\":2020:2023   */\n  dup5\n    /* \"#utility.yul\":2016:2032   */\n  add\n    /* \"#utility.yul\":2013:2038   */\n  gt\n    /* \"#utility.yul\":2010:2122   */\n  iszero\n  tag_70\n  jumpi\n    /* \"#utility.yul\":2041:2120   */\n  tag_71\n  tag_15\n  jump\t// in\ntag_71:\n    /* \"#utility.yul\":2010:2122   */\ntag_70:\n    /* \"#utility.yul\":2131:2183   */\n  tag_72\n    /* \"#utility.yul\":2176:2182   */\n  dup5\n    /* \"#utility.yul\":2171:2174   */\n  dup3\n    /* \"#utility.yul\":2166:2169   */\n  dup6\n    /* \"#utility.yul\":2131:2183   */\n  tag_21\n  jump\t// in\ntag_72:\n    /* \"#utility.yul\":1850:2189   */\n  pop\n    /* \"#utility.yul\":1755:2189   */\n  swap4\n  swap3\n  pop\n  pop\n  pop\n  jump\t// out\n    /* \"#utility.yul\":2209:2564   */\ntag_23:\n    /* \"#utility.yul\":2276:2281   */\n  0x00\n    /* \"#utility.yul\":2325:2328   */\n  dup3\n    /* \"#utility.yul\":2318:2322   */\n  0x1f\n    /* \"#utility.yul\":2310:2316   */\n  dup4\n    /* \"#utility.yul\":2306:2323   */\n  add\n    /* \"#utility.yul\":2302:2329   */\n  slt\n    /* \"#utility.yul\":2292:2414   */\n  tag_74\n  jumpi\n    /* \"#utility.yul\":2333:2412   */\n  tag_75\n  tag_14\n  jump\t// in\ntag_75:\n    /* \"#utility.yul\":2292:2414   */\ntag_74:\n    /* \"#utility.yul\":2443:2449   */\n  dup2\n    /* \"#utility.yul\":2437:2450   */\n  mload\n    /* \"#utility.yul\":2468:2558   */\n  tag_76\n    /* \"#utility.yul\":2554:2557   */\n  dup5\n    /* \"#utility.yul\":2546:2552   */\n  dup3\n    /* \"#utility.yul\":2539:2543   */\n  0x20\n    /* \"#utility.yul\":2531:2537   */\n  dup7\n    /* \"#utility.yul\":2527:2544   */\n  add\n    /* \"#utility.yul\":2468:2558   */\n  tag_22\n  jump\t// in\ntag_76:\n    /* \"#utility.yul\":2459:2558   */\n  swap2\n  pop\n    /* \"#utility.yul\":2282:2564   */\n  pop\n    /* \"#utility.yul\":2209:2564   */\n  swap3\n  swap2\n  pop\n  pop\n  jump\t// out\n    /* \"#utility.yul\":2570:2663   */\ntag_24:\n    /* \"#utility.yul\":2606:2613   */\n  0x00\n    /* \"#utility.yul\":2646:2656   */\n  0xffffffff\n    /* \"#utility.yul\":2639:2644   */\n  dup3\n    /* \"#utility.yul\":2635:2657   */\n  and\n    /* \"#utility.yul\":2624:2657   */\n  swap1\n  pop\n    /* \"#utility.yul\":2570:2663   */\n  swap2\n  swap1\n  pop\n  jump\t// out\n    /* \"#utility.yul\":2669:2789   */\ntag_25:\n    /* \"#utility.yul\":2741:2764   */\n  tag_79\n    /* \"#utility.yul\":2758:2763   */\n  dup2\n    /* \"#utility.yul\":2741:2764   */\n  tag_24\n  jump\t// in\ntag_79:\n    /* \"#utility.yul\":2734:2739   */\n  dup2\n    /* \"#utility.yul\":2731:2765   */\n  eq\n    /* \"#utility.yul\":2721:2783   */\n  tag_80\n  jumpi\n    /* \"#utility.yul\":2779:2780   */\n  0x00\n    /* \"#utility.yul\":2776:2777   */\n  0x00\n    /* \"#utility.yul\":2769:2781   */\n  revert\n    /* \"#utility.yul\":2721:2783   */\ntag_80:\n    /* \"#utility.yul\":2669:2789   */\n  pop\n  jump\t// out\n    /* \"#utility.yul\":2795:2936   */\ntag_26:\n    /* \"#utility.yul\":2851:2856   */\n  0x00\n    /* \"#utility.yul\":2882:2888   */\n  dup2\n    /* \"#utility.yul\":2876:2889   */\n  mload\n    /* \"#utility.yul\":2867:2889   */\n  swap1\n  pop\n    /* \"#utility.yul\":2898:2930   */\n  tag_82\n    /* \"#utility.yul\":2924:2929   */\n  dup2\n    /* \"#utility.yul\":2898:2930   */\n  tag_25\n  jump\t// in\ntag_82:\n    /* \"#utility.yul\":2795:2936   */\n  swap3\n  swap2\n  pop\n  pop\n  jump\t// out\n    /* \"#utility.yul\":2942:3774   */\ntag_3:\n    /* \"#utility.yul\":3038:3044   */\n  0x00\n    /* \"#utility.yul\":3046:3052   */\n  0x00\n    /* \"#utility.yul\":3054:3060   */\n  0x00\n    /* \"#utility.yul\":3103:3105   */\n  0x60\n    /* \"#utility.yul\":3091:3100   */\n  dup5\n    /* \"#utility.yul\":3082:3089   */\n  dup7\n    /* \"#utility.yul\":3078:3101   */\n  sub\n    /* \"#utility.yul\":3074:3106   */\n  slt\n    /* \"#utility.yul\":3071:3190   */\n  iszero\n  tag_84\n  jumpi\n    /* \"#utility.yul\":3109:3188   */\n  tag_85\n  tag_12\n  jump\t// in\ntag_85:\n    /* \"#utility.yul\":3071:3190   */\ntag_84:\n    /* \"#utility.yul\":3250:3251   */\n  0x00\n    /* \"#utility.yul\":3239:3248   */\n  dup5\n    /* \"#utility.yul\":3235:3252   */\n  add\n    /* \"#utility.yul\":3229:3253   */\n  mload\n    /* \"#utility.yul\":3280:3298   */\n  0xffffffffffffffff\n    /* \"#utility.yul\":3272:3278   */\n  dup2\n    /* \"#utility.yul\":3269:3299   */\n  gt\n    /* \"#utility.yul\":3266:3383   */\n  iszero\n  tag_86\n  jumpi\n    /* \"#utility.yul\":3302:3381   */\n  tag_87\n  tag_13\n  jump\t// in\ntag_87:\n    /* \"#utility.yul\":3266:3383   */\ntag_86:\n    /* \"#utility.yul\":3407:3481   */\n  tag_88\n    /* \"#utility.yul\":3473:3480   */\n  dup7\n    /* \"#utility.yul\":3464:3470   */\n  dup3\n    /* \"#utility.yul\":3453:3462   */\n  dup8\n    /* \"#utility.yul\":3449:3471   */\n  add\n    /* \"#utility.yul\":3407:3481   */\n  tag_23\n  jump\t// in\ntag_88:\n    /* \"#utility.yul\":3397:3481   */\n  swap4\n  pop\n    /* \"#utility.yul\":3200:3491   */\n  pop\n    /* \"#utility.yul\":3530:3532   */\n  0x20\n    /* \"#utility.yul\":3556:3619   */\n  tag_89\n    /* \"#utility.yul\":3611:3618   */\n  dup7\n    /* \"#utility.yul\":3602:3608   */\n  dup3\n    /* \"#utility.yul\":3591:3600   */\n  dup8\n    /* \"#utility.yul\":3587:3609   */\n  add\n    /* \"#utility.yul\":3556:3619   */\n  tag_26\n  jump\t// in\ntag_89:\n    /* \"#utility.yul\":3546:3619   */\n  swap3\n  pop\n    /* \"#utility.yul\":3501:3629   */\n  pop\n    /* \"#utility.yul\":3668:3670   */\n  0x40\n    /* \"#utility.yul\":3694:3757   */\n  tag_90\n    /* \"#utility.yul\":3749:3756   */\n  dup7\n    /* \"#utility.yul\":3740:3746   */\n  dup3\n    /* \"#utility.yul\":3729:3738   */\n  dup8\n    /* \"#utility.yul\":3725:3747   */\n  add\n    /* \"#utility.yul\":3694:3757   */\n  tag_26\n  jump\t// in\ntag_90:\n    /* \"#utility.yul\":3684:3757   */\n  swap2\n  pop\n    /* \"#utility.yul\":3639:3767   */\n  pop\n    /* \"#utility.yul\":2942:3774   */\n  swap3\n  pop\n  swap3\n  pop\n  swap3\n  jump\t// out\n    /* \"#utility.yul\":3780:3879   */\ntag_27:\n    /* \"#utility.yul\":3832:3838   */\n  0x00\n    /* \"#utility.yul\":3866:3871   */\n  dup2\n    /* \"#utility.yul\":3860:3872   */\n  mload\n    /* \"#utility.yul\":3850:3872   */\n  swap1\n  pop\n    /* \"#utility.yul\":3780:3879   */\n  swap2\n  swap1\n  pop\n  jump\t// out\n    /* \"#utility.yul\":3885:4065   */\ntag_28:\n    /* \"#utility.yul\":3933:4010   */\n  0x4e487b7100000000000000000000000000000000000000000000000000000000\n    /* \"#utility.yul\":3930:3931   */\n  0x00\n    /* \"#utility.yul\":3923:4011   */\n  mstore\n    /* \"#utility.yul\":4030:4034   */\n  0x22\n    /* \"#utility.yul\":4027:4028   */\n  0x04\n    /* \"#utility.yul\":4020:4035   */\n  mstore\n    /* \"#utility.yul\":4054:4058   */\n  0x24\n    /* \"#utility.yul\":4051:4052   */\n  0x00\n    /* \"#utility.yul\":4044:4059   */\n  revert\n    /* \"#utility.yul\":4071:4391   */\ntag_29:\n    /* \"#utility.yul\":4115:4121   */\n  0x00\n    /* \"#utility.yul\":4152:4153   */\n  0x02\n    /* \"#utility.yul\":4146:4150   */\n  dup3\n    /* \"#utility.yul\":4142:4154   */\n  div\n    /* \"#utility.yul\":4132:4154   */\n  swap1\n  pop\n    /* \"#utility.yul\":4199:4200   */\n  0x01\n    /* \"#utility.yul\":4193:4197   */\n  dup3\n    /* \"#utility.yul\":4189:4201   */\n  and\n    /* \"#utility.yul\":4220:4238   */\n  dup1\n    /* \"#utility.yul\":4210:4291   */\n  tag_94\n  jumpi\n    /* \"#utility.yul\":4276:4280   */\n  0x7f\n    /* \"#utility.yul\":4268:4274   */\n  dup3\n    /* \"#utility.yul\":4264:4281   */\n  and\n    /* \"#utility.yul\":4254:4281   */\n  swap2\n  pop\n    /* \"#utility.yul\":4210:4291   */\ntag_94:\n    /* \"#utility.yul\":4338:4340   */\n  0x20\n    /* \"#utility.yul\":4330:4336   */\n  dup3\n    /* \"#utility.yul\":4327:4341   */\n  lt\n    /* \"#utility.yul\":4307:4325   */\n  dup2\n    /* \"#utility.yul\":4304:4342   */\n  sub\n    /* \"#utility.yul\":4301:4385   */\n  tag_95\n  jumpi\n    /* \"#utility.yul\":4357:4375   */\n  tag_96\n  tag_28\n  jump\t// in\ntag_96:\n    /* \"#utility.yul\":4301:4385   */\ntag_95:\n    /* \"#utility.yul\":4122:4391   */\n  pop\n    /* \"#utility.yul\":4071:4391   */\n  swap2\n  swap1\n  pop\n  jump\t// out\n    /* \"#utility.yul\":4397:4538   */\ntag_30:\n    /* \"#utility.yul\":4446:4450   */\n  0x00\n    /* \"#utility.yul\":4469:4472   */\n  dup2\n    /* \"#utility.yul\":4461:4472   */\n  swap1\n  pop\n    /* \"#utility.yul\":4492:4495   */\n  dup2\n    /* \"#utility.yul\":4489:4490   */\n  0x00\n    /* \"#utility.yul\":4482:4496   */\n  mstore\n    /* \"#utility.yul\":4526:4530   */\n  0x20\n    /* \"#utility.yul\":4523:4524   */\n  0x00\n    /* \"#utility.yul\":4513:4531   */\n  keccak256\n    /* \"#utility.yul\":4505:4531   */\n  swap1\n  pop\n    /* \"#utility.yul\":4397:4538   */\n  swap2\n  swap1\n  pop\n  jump\t// out\n    /* \"#utility.yul\":4544:4637   */\ntag_31:\n    /* \"#utility.yul\":4581:4587   */\n  0x00\n    /* \"#utility.yul\":4628:4630   */\n  0x20\n    /* \"#utility.yul\":4623:4625   */\n  0x1f\n    /* \"#utility.yul\":4616:4621   */\n  dup4\n    /* \"#utility.yul\":4612:4626   */\n  add\n    /* \"#utility.yul\":4608:4631   */\n  div\n    /* \"#utility.yul\":4598:4631   */\n  swap1\n  pop\n    /* \"#utility.yul\":4544:4637   */\n  swap2\n  swap1\n  pop\n  jump\t// out\n    /* \"#utility.yul\":4643:4750   */\ntag_32:\n    /* \"#utility.yul\":4687:4695   */\n  0x00\n    /* \"#utility.yul\":4737:4742   */\n  dup3\n    /* \"#utility.yul\":4731:4735   */\n  dup3\n    /* \"#utility.yul\":4727:4743   */\n  shl\n    /* \"#utility.yul\":4706:4743   */\n  swap1\n  pop\n    /* \"#utility.yul\":4643:4750   */\n  swap3\n  swap2\n  pop\n  pop\n  jump\t// out\n    /* \"#utility.yul\":4756:5149   */\ntag_33:\n    /* \"#utility.yul\":4825:4831   */\n  0x00\n    /* \"#utility.yul\":4875:4876   */\n  0x08\n    /* \"#utility.yul\":4863:4873   */\n  dup4\n    /* \"#utility.yul\":4859:4877   */\n  mul\n    /* \"#utility.yul\":4898:4995   */\n  tag_101\n    /* \"#utility.yul\":4928:4994   */\n  0xffffffffffffffffffffffffffffffffffffffffffffffffffffffffffffffff\n    /* \"#utility.yul\":4917:4926   */\n  dup3\n    /* \"#utility.yul\":4898:4995   */\n  tag_32\n  jump\t// in\ntag_101:\n    /* \"#utility.yul\":5016:5055   */\n  tag_102\n    /* \"#utility.yul\":5046:5054   */\n  dup7\n    /* \"#utility.yul\":5035:5044   */\n  dup4\n    /* \"#utility.yul\":5016:5055   */\n  tag_32\n  jump\t// in\ntag_102:\n    /* \"#utility.yul\":5004:5055   */\n  swap6\n  pop\n    /* \"#utility.yul\":5088:5092   */\n  dup1\n    /* \"#utility.yul\":5084:5093   */\n  not\n    /* \"#utility.yul\":5077:5082   */\n  dup5\n    /* \"#utility.yul\":5073:5094   */\n  and\n    /* \"#utility.yul\":5064:5094   */\n  swap4\n  pop\n    /* \"#utility.yul\":5137:5141   */\n  dup1\n    /* \"#utility.yul\":5127:5135   */\n  dup7\n    /* \"#utility.yul\":5123:5142   */\n  and\n    /* \"#utility.yul\":5116:5121   */\n  dup5\n    /* \"#utility.yul\":5113:5143   */\n  or\n    /* \"#utility.yul\":5103:5143   */\n  swap3\n  pop\n    /* \"#utility.yul\":4832:5149   */\n  pop\n  pop\n    /* \"#utility.yul\":4756:5149   */\n  swap4\n  swap3\n  pop\n  pop\n  pop\n  jump\t// out\n    /* \"#utility.yul\":5155:5232   */\ntag_34:\n    /* \"#utility.yul\":5192:5199   */\n  0x00\n    /* \"#utility.yul\":5221:5226   */\n  dup2\n    /* \"#utility.yul\":5210:5226   */\n  swap1\n  pop\n    /* \"#utility.yul\":5155:5232   */\n  swap2\n  swap1\n  pop\n  jump\t// out\n    /* \"#utility.yul\":5238:5298   */\ntag_35:\n    /* \"#utility.yul\":5266:5269   */\n  0x00\n    /* \"#utility.yul\":5287:5292   */\n  dup2\n    /* \"#utility.yul\":5280:5292   */\n  swap1\n  pop\n    /* \"#utility.yul\":5238:5298   */\n  swap2\n  swap1\n  pop\n  jump\t// out\n    /* \"#utility.yul\":5304:5446   */\ntag_36:\n    /* \"#utility.yul\":5354:5363   */\n  0x00\n    /* \"#utility.yul\":5387:5440   */\n  tag_106\n    /* \"#utility.yul\":5405:5439   */\n  tag_107\n    /* \"#utility.yul\":5414:5438   */\n  tag_108\n    /* \"#utility.yul\":5432:5437   */\n  dup5\n    /* \"#utility.yul\":5414:5438   */\n  tag_34\n  jump\t// in\ntag_108:\n    /* \"#utility.yul\":5405:5439   */\n  tag_35\n  jump\t// in\ntag_107:\n    /* \"#utility.yul\":5387:5440   */\n  tag_34\n  jump\t// in\ntag_106:\n    /* \"#utility.yul\":5374:5440   */\n  swap1\n  pop\n    /* \"#utility.yul\":5304:5446   */\n  swap2\n  swap1\n  pop\n  jump\t// out\n    /* \"#utility.yul\":5452:5527   */\ntag_37:\n    /* \"#utility.yul\":5495:5498   */\n  0x00\n    /* \"#utility.yul\":5516:5521   */\n  dup2\n    /* \"#utility.yul\":5509:5521   */\n  swap1\n  pop\n    /* \"#utility.yul\":5452:5527   */\n  swap2\n  swap1\n  pop\n  jump\t// out\n    /* \"#utility.yul\":5533:5802   */\ntag_38:\n    /* \"#utility.yul\":5643:5682   */\n  tag_111\n    /* \"#utility.yul\":5674:5681   */\n  dup4\n    /* \"#utility.yul\":5643:5682   */\n  tag_36\n  jump\t// in\ntag_111:\n    /* \"#utility.yul\":5704:5795   */\n  tag_112\n    /* \"#utility.yul\":5753:5794   */\n  tag_113\n    /* \"#utility.yul\":5777:5793   */\n  dup3\n    /* \"#utility.yul\":5753:5794   */\n  tag_37\n  jump\t// in\ntag_113:\n    /* \"#utility.yul\":5745:5751   */\n  dup5\n    /* \"#utility.yul\":5738:5742   */\n  dup5\n    /* \"#utility.yul\":5732:5743   */\n  sload\n    /* \"#utility.yul\":5704:5795   */\n  tag_33\n  jump\t// in\ntag_112:\n    /* \"#utility.yul\":5698:5702   */\n  dup3\n    /* \"#utility.yul\":5691:5796   */\n  sstore\n    /* \"#utility.yul\":5609:5802   */\n  pop\n    /* \"#utility.yul\":5533:5802   */\n  pop\n  pop\n  pop\n  jump\t// out\n    /* \"#utility.yul\":5808:5881   */\ntag_39:\n    /* \"#utility.yul\":5853:5856   */\n  0x00\n    /* \"#utility.yul\":5874:5875   */\n  0x00\n    /* \"#utility.yul\":5867:5875   */\n  swap1\n  pop\n    /* \"#utility.yul\":5808:5881   */\n  swap1\n  jump\t// out\n    /* \"#utility.yul\":5887:6076   */\ntag_40:\n    /* \"#utility.yul\":5964:5996   */\n  tag_116\n  tag_39\n  jump\t// in\ntag_116:\n    /* \"#utility.yul\":6005:6070   */\n  tag_117\n    /* \"#utility.yul\":6063:6069   */\n  dup2\n    /* \"#utility.yul\":6055:6061   */\n  dup5\n    /* \"#utility.yul\":6049:6053   */\n  dup5\n    /* \"#utility.yul\":6005:6070   */\n  tag_38\n  jump\t// in\ntag_117:\n    /* \"#utility.yul\":5940:6076   */\n  pop\n    /* \"#utility.yul\":5887:6076   */\n  pop\n  pop\n  jump\t// out\n    /* \"#utility.yul\":6082:6268   */\ntag_41:\n    /* \"#utility.yul\":6142:6262   */\ntag_119:\n    /* \"#utility.yul\":6159:6162   */\n  dup2\n    /* \"#utility.yul\":6152:6157   */\n  dup2\n    /* \"#utility.yul\":6149:6163   */\n  lt\n    /* \"#utility.yul\":6142:6262   */\n  iszero\n  tag_121\n  jumpi\n    /* \"#utility.yul\":6213:6252   */\n  tag_122\n    /* \"#utility.yul\":6250:6251   */\n  0x00\n    /* \"#utility.yul\":6243:6248   */\n  dup3\n    /* \"#utility.yul\":6213:6252   */\n  tag_40\n  jump\t// in\ntag_122:\n    /* \"#utility.yul\":6186:6187   */\n  0x01\n    /* \"#utility.yul\":6179:6184   */\n  dup2\n    /* \"#utility.yul\":6175:6188   */\n  add\n    /* \"#utility.yul\":6166:6188   */\n  swap1\n  pop\n    /* \"#utility.yul\":6142:6262   */\n  jump(tag_119)\ntag_121:\n    /* \"#utility.yul\":6082:6268   */\n  pop\n  pop\n  jump\t// out\n    /* \"#utility.yul\":6274:6817   */\ntag_42:\n    /* \"#utility.yul\":6375:6377   */\n  0x1f\n    /* \"#utility.yul\":6370:6373   */\n  dup3\n    /* \"#utility.yul\":6367:6378   */\n  gt\n    /* \"#utility.yul\":6364:6810   */\n  iszero\n  tag_124\n  jumpi\n    /* \"#utility.yul\":6409:6447   */\n  tag_125\n    /* \"#utility.yul\":6441:6446   */\n  dup2\n    /* \"#utility.yul\":6409:6447   */\n  tag_30\n  jump\t// in\ntag_125:\n    /* \"#utility.yul\":6493:6522   */\n  tag_126\n    /* \"#utility.yul\":6511:6521   */\n  dup5\n    /* \"#utility.yul\":6493:6522   */\n  tag_31\n  jump\t// in\ntag_126:\n    /* \"#utility.yul\":6483:6491   */\n  dup2\n    /* \"#utility.yul\":6479:6523   */\n  add\n    /* \"#utility.yul\":6676:6678   */\n  0x20\n    /* \"#utility.yul\":6664:6674   */\n  dup6\n    /* \"#utility.yul\":6661:6679   */\n  lt\n    /* \"#utility.yul\":6658:6707   */\n  iszero\n  tag_127\n  jumpi\n    /* \"#utility.yul\":6697:6705   */\n  dup2\n    /* \"#utility.yul\":6682:6705   */\n  swap1\n  pop\n    /* \"#utility.yul\":6658:6707   */\ntag_127:\n    /* \"#utility.yul\":6720:6800   */\n  tag_128\n    /* \"#utility.yul\":6776:6798   */\n  tag_129\n    /* \"#utility.yul\":6794:6797   */\n  dup6\n    /* \"#utility.yul\":6776:6798   */\n  tag_31\n  jump\t// in\ntag_129:\n    /* \"#utility.yul\":6766:6774   */\n  dup4\n    /* \"#utility.yul\":6762:6799   */\n  add\n    /* \"#utility.yul\":6749:6760   */\n  dup3\n    /* \"#utility.yul\":6720:6800   */\n  tag_41\n  jump\t// in\ntag_128:\n    /* \"#utility.yul\":6379:6810   */\n  pop\n  pop\n    /* \"#utility.yul\":6364:6810   */\ntag_124:\n    /* \"#utility.yul\":6274:6817   */\n  pop\n  pop\n  pop\n  jump\t// out\n    /* \"#utility.yul\":6823:6940   */\ntag_43:\n    /* \"#utility.yul\":6877:6885   */\n  0x00\n    /* \"#utility.yul\":6927:6932   */\n  dup3\n    /* \"#utility.yul\":6921:6925   */\n  dup3\n    /* \"#utility.yul\":6917:6933   */\n  shr\n    /* \"#utility.yul\":6896:6933   */\n  swap1\n  pop\n    /* \"#utility.yul\":6823:6940   */\n  swap3\n  swap2\n  pop\n  pop\n  jump\t// out\n    /* \"#utility.yul\":6946:7115   */\ntag_44:\n    /* \"#utility.yul\":6990:6996   */\n  0x00\n    /* \"#utility.yul\":7023:7074   */\n  tag_132\n    /* \"#utility.yul\":7071:7072   */\n  0x00\n    /* \"#utility.yul\":7067:7073   */\n  not\n    /* \"#utility.yul\":7059:7064   */\n  dup5\n    /* \"#utility.yul\":7056:7057   */\n  0x08\n    /* \"#utility.yul\":7052:7065   */\n  mul\n    /* \"#utility.yul\":7023:7074   */\n  tag_43\n  jump\t// in\ntag_132:\n    /* \"#utility.yul\":7019:7075   */\n  not\n    /* \"#utility.yul\":7104:7108   */\n  dup1\n    /* \"#utility.yul\":7098:7102   */\n  dup4\n    /* \"#utility.yul\":7094:7109   */\n  and\n    /* \"#utility.yul\":7084:7109   */\n  swap2\n  pop\n    /* \"#utility.yul\":6997:7115   */\n  pop\n    /* \"#utility.yul\":6946:7115   */\n  swap3\n  swap2\n  pop\n  pop\n  jump\t// out\n    /* \"#utility.yul\":7120:7415   */\ntag_45:\n    /* \"#utility.yul\":7196:7200   */\n  0x00\n    /* \"#utility.yul\":7342:7371   */\n  tag_134\n    /* \"#utility.yul\":7367:7370   */\n  dup4\n    /* \"#utility.yul\":7361:7365   */\n  dup4\n    /* \"#utility.yul\":7342:7371   */\n  tag_44\n  jump\t// in\ntag_134:\n    /* \"#utility.yul\":7334:7371   */\n  swap2\n  pop\n    /* \"#utility.yul\":7404:7407   */\n  dup3\n    /* \"#utility.yul\":7401:7402   */\n  0x02\n    /* \"#utility.yul\":7397:7408   */\n  mul\n    /* \"#utility.yul\":7391:7395   */\n  dup3\n    /* \"#utility.yul\":7388:7409   */\n  or\n    /* \"#utility.yul\":7380:7409   */\n  swap1\n  pop\n    /* \"#utility.yul\":7120:7415   */\n  swap3\n  swap2\n  pop\n  pop\n  jump\t// out\n    /* \"#utility.yul\":7420:8815   */\ntag_7:\n    /* \"#utility.yul\":7537:7574   */\n  tag_136\n    /* \"#utility.yul\":7570:7573   */\n  dup3\n    /* \"#utility.yul\":7537:7574   */\n  tag_27\n  jump\t// in\ntag_136:\n    /* \"#utility.yul\":7639:7657   */\n  0xffffffffffffffff\n    /* \"#utility.yul\":7631:7637   */\n  dup2\n    /* \"#utility.yul\":7628:7658   */\n  gt\n    /* \"#utility.yul\":7625:7681   */\n  iszero\n  tag_137\n  jumpi\n    /* \"#utility.yul\":7661:7679   */\n  tag_138\n  tag_17\n  jump\t// in\ntag_138:\n    /* \"#utility.yul\":7625:7681   */\ntag_137:\n    /* \"#utility.yul\":7705:7743   */\n  tag_139\n    /* \"#utility.yul\":7737:7741   */\n  dup3\n    /* \"#utility.yul\":7731:7742   */\n  sload\n    /* \"#utility.yul\":7705:7743   */\n  tag_29\n  jump\t// in\ntag_139:\n    /* \"#utility.yul\":7790:7857   */\n  tag_140\n    /* \"#utility.yul\":7850:7856   */\n  dup3\n    /* \"#utility.yul\":7842:7848   */\n  dup3\n    /* \"#utility.yul\":7836:7840   */\n  dup6\n    /* \"#utility.yul\":7790:7857   */\n  tag_42\n  jump\t// in\ntag_140:\n    /* \"#utility.yul\":7884:7885   */\n  0x00\n    /* \"#utility.yul\":7908:7912   */\n  0x20\n    /* \"#utility.yul\":7895:7912   */\n  swap1\n  pop\n    /* \"#utility.yul\":7940:7942   */\n  0x1f\n    /* \"#utility.yul\":7932:7938   */\n  dup4\n    /* \"#utility.yul\":7929:7943   */\n  gt\n    /* \"#utility.yul\":7957:7958   */\n  0x01\n    /* \"#utility.yul\":7952:8570   */\n  dup2\n  eq\n  tag_142\n  jumpi\n    /* \"#utility.yul\":8614:8615   */\n  0x00\n    /* \"#utility.yul\":8631:8637   */\n  dup5\n    /* \"#utility.yul\":8628:8705   */\n  iszero\n  tag_143\n  jumpi\n    /* \"#utility.yul\":8680:8689   */\n  dup3\n    /* \"#utility.yul\":8675:8678   */\n  dup8\n    /* \"#utility.yul\":8671:8690   */\n  add\n    /* \"#utility.yul\":8665:8691   */\n  mload\n    /* \"#utility.yul\":8656:8691   */\n  swap1\n  pop\n    /* \"#utility.yul\":8628:8705   */\ntag_143:\n    /* \"#utility.yul\":8731:8798   */\n  tag_144\n    /* \"#utility.yul\":8791:8797   */\n  dup6\n    /* \"#utility.yul\":8784:8789   */\n  dup3\n    /* \"#utility.yul\":8731:8798   */\n  tag_45\n  jump\t// in\ntag_144:\n    /* \"#utility.yul\":8725:8729   */\n  dup7\n    /* \"#utility.yul\":8718:8799   */\n  sstore\n    /* \"#utility.yul\":8587:8809   */\n  pop\n    /* \"#utility.yul\":7922:8809   */\n  jump(tag_141)\n    /* \"#utility.yul\":7952:8570   */\ntag_142:\n    /* \"#utility.yul\":8004:8008   */\n  0x1f\n    /* \"#utility.yul\":8000:8009   */\n  not\n    /* \"#utility.yul\":7992:7998   */\n  dup5\n    /* \"#utility.yul\":7988:8010   */\n  and\n    /* \"#utility.yul\":8038:8075   */\n  tag_145\n    /* \"#utility.yul\":8070:8074   */\n  dup7\n    /* \"#utility.yul\":8038:8075   */\n  tag_30\n  jump\t// in\ntag_145:\n    /* \"#utility.yul\":8097:8098   */\n  0x00\n    /* \"#utility.yul\":8111:8319   */\ntag_146:\n    /* \"#utility.yul\":8125:8132   */\n  dup3\n    /* \"#utility.yul\":8122:8123   */\n  dup2\n    /* \"#utility.yul\":8119:8133   */\n  lt\n    /* \"#utility.yul\":8111:8319   */\n  iszero\n  tag_148\n  jumpi\n    /* \"#utility.yul\":8204:8213   */\n  dup5\n    /* \"#utility.yul\":8199:8202   */\n  dup10\n    /* \"#utility.yul\":8195:8214   */\n  add\n    /* \"#utility.yul\":8189:8215   */\n  mload\n    /* \"#utility.yul\":8181:8187   */\n  dup3\n    /* \"#utility.yul\":8174:8216   */\n  sstore\n    /* \"#utility.yul\":8255:8256   */\n  0x01\n    /* \"#utility.yul\":8247:8253   */\n  dup3\n    /* \"#utility.yul\":8243:8257   */\n  add\n    /* \"#utility.yul\":8233:8257   */\n  swap2\n  pop\n    /* \"#utility.yul\":8302:8304   */\n  0x20\n    /* \"#utility.yul\":8291:8300   */\n  dup6\n    /* \"#utility.yul\":8287:8305   */\n  add\n    /* \"#utility.yul\":8274:8305   */\n  swap5\n  pop\n    /* \"#utility.yul\":8148:8152   */\n  0x20\n    /* \"#utility.yul\":8145:8146   */\n  dup2\n    /* \"#utility.yul\":8141:8153   */\n  add\n    /* \"#utility.yul\":8136:8153   */\n  swap1\n  pop\n    /* \"#utility.yul\":8111:8319   */\n  jump(tag_146)\ntag_148:\n    /* \"#utility.yul\":8347:8353   */\n  dup7\n    /* \"#utility.yul\":8338:8345   */\n  dup4\n    /* \"#utility.yul\":8335:8354   */\n  lt\n    /* \"#utility.yul\":8332:8511   */\n  iszero\n  tag_149\n  jumpi\n    /* \"#utility.yul\":8405:8414   */\n  dup5\n    /* \"#utility.yul\":8400:8403   */\n  dup10\n    /* \"#utility.yul\":8396:8415   */\n  add\n    /* \"#utility.yul\":8390:8416   */\n  mload\n    /* \"#utility.yul\":8448:8496   */\n  tag_150\n    /* \"#utility.yul\":8490:8494   */\n  0x1f\n    /* \"#utility.yul\":8482:8488   */\n  dup10\n    /* \"#utility.yul\":8478:8495   */\n  and\n    /* \"#utility.yul\":8467:8476   */\n  dup3\n    /* \"#utility.yul\":8448:8496   */\n  tag_44\n  jump\t// in\ntag_150:\n    /* \"#utility.yul\":8440:8446   */\n  dup4\n    /* \"#utility.yul\":8433:8497   */\n  sstore\n    /* \"#utility.yul\":8355:8511   */\n  pop\n    /* \"#utility.yul\":8332:8511   */\ntag_149:\n    /* \"#utility.yul\":8557:8558   */\n  0x01\n    /* \"#utility.yul\":8553:8554   */\n  0x02\n    /* \"#utility.yul\":8545:8551   */\n  dup9\n    /* \"#utility.yul\":8541:8555   */\n  mul\n    /* \"#utility.yul\":8537:8559   */\n  add\n    /* \"#utility.yul\":8531:8535   */\n  dup9\n    /* \"#utility.yul\":8524:8560   */\n  sstore\n    /* \"#utility.yul\":7959:8570   */\n  pop\n  pop\n  pop\n    /* \"#utility.yul\":7922:8809   */\ntag_141:\n  pop\n    /* \"#utility.yul\":7512:8815   */\n  pop\n  pop\n  pop\n    /* \"#utility.yul\":7420:8815   */\n  pop\n  pop\n  jump\t// out\n    /* \"#utility.yul\":8821:9001   */\ntag_46:\n    /* \"#utility.yul\":8869:8946   */\n  0x4e487b7100000000000000000000000000000000000000000000000000000000\n    /* \"#utility.yul\":8866:8867   */\n  0x00\n    /* \"#utility.yul\":8859:8947   */\n  mstore\n    /* \"#utility.yul\":8966:8970   */\n  0x11\n    /* \"#utility.yul\":8963:8964   */\n  0x04\n    /* \"#utility.yul\":8956:8971   */\n  mstore\n    /* \"#utility.yul\":8990:8994   */\n  0x24\n    /* \"#utility.yul\":8987:8988   */\n  0x00\n    /* \"#utility.yul\":8980:8995   */\n  revert\n    /* \"#utility.yul\":9007:9198   */\ntag_9:\n    /* \"#utility.yul\":9047:9050   */\n  0x00\n    /* \"#utility.yul\":9066:9086   */\n  tag_153\n    /* \"#utility.yul\":9084:9085   */\n  dup3\n    /* \"#utility.yul\":9066:9086   */\n  tag_34\n  jump\t// in\ntag_153:\n    /* \"#utility.yul\":9061:9086   */\n  swap2\n  pop\n    /* \"#utility.yul\":9100:9120   */\n  tag_154\n    /* \"#utility.yul\":9118:9119   */\n  dup4\n    /* \"#utility.yul\":9100:9120   */\n  tag_34\n  jump\t// in\ntag_154:\n    /* \"#utility.yul\":9095:9120   */\n  swap3\n  pop\n    /* \"#utility.yul\":9143:9144   */\n  dup3\n    /* \"#utility.yul\":9140:9141   */\n  dup3\n    /* \"#utility.yul\":9136:9145   */\n  add\n    /* \"#utility.yul\":9129:9145   */\n  swap1\n  pop\n    /* \"#utility.yul\":9164:9167   */\n  dup1\n    /* \"#utility.yul\":9161:9162   */\n  dup3\n    /* \"#utility.yul\":9158:9168   */\n  gt\n    /* \"#utility.yul\":9155:9191   */\n  iszero\n  tag_155\n  jumpi\n    /* \"#utility.yul\":9171:9189   */\n  tag_156\n  tag_46\n  jump\t// in\ntag_156:\n    /* \"#utility.yul\":9155:9191   */\ntag_155:\n    /* \"#utility.yul\":9007:9198   */\n  swap3\n  swap2\n  pop\n  pop\n  jump\t// out\n    /* \"tp2/auction.sol\":58:478  contract Auction {... */\ntag_10:\n  dataSize(sub_0)\n  dup1\n  dataOffset(sub_0)\n  0x00\n  codecopy\n  0x00\n  return\nstop\n\nsub_0: assembly {\n        /* \"tp2/auction.sol\":58:478  contract Auction {... */\n      mstore(0x40, 0x80)\n      jumpi(tag_1, lt(calldatasize, 0x04))\n      shr(0xe0, calldataload(0x00))\n      dup1\n      0x9e407998\n      eq\n      tag_2\n      jumpi\n    tag_1:\n      revert(0x00, 0x00)\n        /* \"tp2/auction.sol\":435:475  function bit() external payable {... */\n    tag_2:\n      tag_3\n      tag_4\n      jump\t// in\n    tag_3:\n      stop\n    tag_4:\n      jump\t// out\n\n    auxdata: 0xa26469706673582212203fc843532e3171167d2b58673ae7bddd78ea6311b2c9a0f1ffe3850fa08efdc464736f6c634300081e0033\n}\n",
				"bytecode": {
					"linkReferences": {},
					"object": "608060405234801561000f575f5ffd5b5060405161065c38038061065c83398181016040528101906100319190610246565b335f5f6101000a81548173ffffffffffffffffffffffffffffffffffffffff021916908373ffffffffffffffffffffffffffffffffffffffff160217905550826001908161007f91906104c2565b508163ffffffff164261009291906105be565b6002819055508060045f6101000a81548163ffffffff021916908363ffffffff1602179055505050506105f1565b5f604051905090565b5f5ffd5b5f5ffd5b5f5ffd5b5f5ffd5b5f601f19601f8301169050919050565b7f4e487b71000000000000000000000000000000000000000000000000000000005f52604160045260245ffd5b61011f826100d9565b810181811067ffffffffffffffff8211171561013e5761013d6100e9565b5b80604052505050565b5f6101506100c0565b905061015c8282610116565b919050565b5f67ffffffffffffffff82111561017b5761017a6100e9565b5b610184826100d9565b9050602081019050919050565b8281835e5f83830152505050565b5f6101b16101ac84610161565b610147565b9050828152602081018484840111156101cd576101cc6100d5565b5b6101d8848285610191565b509392505050565b5f82601f8301126101f4576101f36100d1565b5b815161020484826020860161019f565b91505092915050565b5f63ffffffff82169050919050565b6102258161020d565b811461022f575f5ffd5b50565b5f815190506102408161021c565b92915050565b5f5f5f6060848603121561025d5761025c6100c9565b5b5f84015167ffffffffffffffff81111561027a576102796100cd565b5b610286868287016101e0565b935050602061029786828701610232565b92505060406102a886828701610232565b9150509250925092565b5f81519050919050565b7f4e487b71000000000000000000000000000000000000000000000000000000005f52602260045260245ffd5b5f600282049050600182168061030057607f821691505b602082108103610313576103126102bc565b5b50919050565b5f819050815f5260205f209050919050565b5f6020601f8301049050919050565b5f82821b905092915050565b5f600883026103757fffffffffffffffffffffffffffffffffffffffffffffffffffffffffffffffff8261033a565b61037f868361033a565b95508019841693508086168417925050509392505050565b5f819050919050565b5f819050919050565b5f6103c36103be6103b984610397565b6103a0565b610397565b9050919050565b5f819050919050565b6103dc836103a9565b6103f06103e8826103ca565b848454610346565b825550505050565b5f5f905090565b6104076103f8565b6104128184846103d3565b505050565b5b818110156104355761042a5f826103ff565b600181019050610418565b5050565b601f82111561047a5761044b81610319565b6104548461032b565b81016020851015610463578190505b61047761046f8561032b565b830182610417565b50505b505050565b5f82821c905092915050565b5f61049a5f198460080261047f565b1980831691505092915050565b5f6104b2838361048b565b9150826002028217905092915050565b6104cb826102b2565b67ffffffffffffffff8111156104e4576104e36100e9565b5b6104ee82546102e9565b6104f9828285610439565b5f60209050601f83116001811461052a575f8415610518578287015190505b61052285826104a7565b865550610589565b601f19841661053886610319565b5f5b8281101561055f5784890151825560018201915060208501945060208101905061053a565b8683101561057c5784890151610578601f89168261048b565b8355505b6001600288020188555050505b505050505050565b7f4e487b71000000000000000000000000000000000000000000000000000000005f52601160045260245ffd5b5f6105c882610397565b91506105d383610397565b92508282019050808211156105eb576105ea610591565b5b92915050565b605f806105fd5f395ff3fe608060405260043610601b575f3560e01c80639e40799814601f575b5f5ffd5b60256027565b005b56fea26469706673582212203fc843532e3171167d2b58673ae7bddd78ea6311b2c9a0f1ffe3850fa08efdc464736f6c634300081e0033",
					"opcodes": "PUSH1 0x80 PUSH1 0x40 MSTORE CALLVALUE DUP1 ISZERO PUSH2 0xF JUMPI PUSH0 PUSH0 REVERT JUMPDEST POP PUSH1 0x40 MLOAD PUSH2 0x65C CODESIZE SUB DUP1 PUSH2 0x65C DUP4 CODECOPY DUP2 DUP2 ADD PUSH1 0x40 MSTORE DUP2 ADD SWAP1 PUSH2 0x31 SWAP2 SWAP1 PUSH2 0x246 JUMP JUMPDEST CALLER PUSH0 PUSH0 PUSH2 0x100 EXP DUP2 SLOAD DUP2 PUSH20 0xFFFFFFFFFFFFFFFFFFFFFFFFFFFFFFFFFFFFFFFF MUL NOT AND SWAP1 DUP4 PUSH20 0xFFFFFFFFFFFFFFFFFFFFFFFFFFFFFFFFFFFFFFFF AND MUL OR SWAP1 SSTORE POP DUP3 PUSH1 0x1 SWAP1 DUP2 PUSH2 0x7F SWAP2 SWAP1 PUSH2 0x4C2 JUMP JUMPDEST POP DUP2 PUSH4 0xFFFFFFFF AND TIMESTAMP PUSH2 0x92 SWAP2 SWAP1 PUSH2 0x5BE JUMP JUMPDEST PUSH1 0x2 DUP2 SWAP1 SSTORE POP DUP1 PUSH1 0x4 PUSH0 PUSH2 0x100 EXP DUP2 SLOAD DUP2 PUSH4 0xFFFFFFFF MUL NOT AND SWAP1 DUP4 PUSH4 0xFFFFFFFF AND MUL OR SWAP1 SSTORE POP POP POP POP PUSH2 0x5F1 JUMP JUMPDEST PUSH0 PUSH1 0x40 MLOAD SWAP1 POP SWAP1 JUMP JUMPDEST PUSH0 PUSH0 REVERT JUMPDEST PUSH0 PUSH0 REVERT JUMPDEST PUSH0 PUSH0 REVERT JUMPDEST PUSH0 PUSH0 REVERT JUMPDEST PUSH0 PUSH1 0x1F NOT PUSH1 0x1F DUP4 ADD AND SWAP1 POP SWAP2 SWAP1 POP JUMP JUMPDEST PUSH32 0x4E487B7100000000000000000000000000000000000000000000000000000000 PUSH0 MSTORE PUSH1 0x41 PUSH1 0x4 MSTORE PUSH1 0x24 PUSH0 REVERT JUMPDEST PUSH2 0x11F DUP3 PUSH2 0xD9 JUMP JUMPDEST DUP2 ADD DUP2 DUP2 LT PUSH8 0xFFFFFFFFFFFFFFFF DUP3 GT OR ISZERO PUSH2 0x13E JUMPI PUSH2 0x13D PUSH2 0xE9 JUMP JUMPDEST JUMPDEST DUP1 PUSH1 0x40 MSTORE POP POP POP JUMP JUMPDEST PUSH0 PUSH2 0x150 PUSH2 0xC0 JUMP JUMPDEST SWAP1 POP PUSH2 0x15C DUP3 DUP3 PUSH2 0x116 JUMP JUMPDEST SWAP2 SWAP1 POP JUMP JUMPDEST PUSH0 PUSH8 0xFFFFFFFFFFFFFFFF DUP3 GT ISZERO PUSH2 0x17B JUMPI PUSH2 0x17A PUSH2 0xE9 JUMP JUMPDEST JUMPDEST PUSH2 0x184 DUP3 PUSH2 0xD9 JUMP JUMPDEST SWAP1 POP PUSH1 0x20 DUP2 ADD SWAP1 POP SWAP2 SWAP1 POP JUMP JUMPDEST DUP3 DUP2 DUP4 MCOPY PUSH0 DUP4 DUP4 ADD MSTORE POP POP POP JUMP JUMPDEST PUSH0 PUSH2 0x1B1 PUSH2 0x1AC DUP5 PUSH2 0x161 JUMP JUMPDEST PUSH2 0x147 JUMP JUMPDEST SWAP1 POP DUP3 DUP2 MSTORE PUSH1 0x20 DUP2 ADD DUP5 DUP5 DUP5 ADD GT ISZERO PUSH2 0x1CD JUMPI PUSH2 0x1CC PUSH2 0xD5 JUMP JUMPDEST JUMPDEST PUSH2 0x1D8 DUP5 DUP3 DUP6 PUSH2 0x191 JUMP JUMPDEST POP SWAP4 SWAP3 POP POP POP JUMP JUMPDEST PUSH0 DUP3 PUSH1 0x1F DUP4 ADD SLT PUSH2 0x1F4 JUMPI PUSH2 0x1F3 PUSH2 0xD1 JUMP JUMPDEST JUMPDEST DUP2 MLOAD PUSH2 0x204 DUP5 DUP3 PUSH1 0x20 DUP7 ADD PUSH2 0x19F JUMP JUMPDEST SWAP2 POP POP SWAP3 SWAP2 POP POP JUMP JUMPDEST PUSH0 PUSH4 0xFFFFFFFF DUP3 AND SWAP1 POP SWAP2 SWAP1 POP JUMP JUMPDEST PUSH2 0x225 DUP2 PUSH2 0x20D JUMP JUMPDEST DUP2 EQ PUSH2 0x22F JUMPI PUSH0 PUSH0 REVERT JUMPDEST POP JUMP JUMPDEST PUSH0 DUP2 MLOAD SWAP1 POP PUSH2 0x240 DUP2 PUSH2 0x21C JUMP JUMPDEST SWAP3 SWAP2 POP POP JUMP JUMPDEST PUSH0 PUSH0 PUSH0 PUSH1 0x60 DUP5 DUP7 SUB SLT ISZERO PUSH2 0x25D JUMPI PUSH2 0x25C PUSH2 0xC9 JUMP JUMPDEST JUMPDEST PUSH0 DUP5 ADD MLOAD PUSH8 0xFFFFFFFFFFFFFFFF DUP2 GT ISZERO PUSH2 0x27A JUMPI PUSH2 0x279 PUSH2 0xCD JUMP JUMPDEST JUMPDEST PUSH2 0x286 DUP7 DUP3 DUP8 ADD PUSH2 0x1E0 JUMP JUMPDEST SWAP4 POP POP PUSH1 0x20 PUSH2 0x297 DUP7 DUP3 DUP8 ADD PUSH2 0x232 JUMP JUMPDEST SWAP3 POP POP PUSH1 0x40 PUSH2 0x2A8 DUP7 DUP3 DUP8 ADD PUSH2 0x232 JUMP JUMPDEST SWAP2 POP POP SWAP3 POP SWAP3 POP SWAP3 JUMP JUMPDEST PUSH0 DUP2 MLOAD SWAP1 POP SWAP2 SWAP1 POP JUMP JUMPDEST PUSH32 0x4E487B7100000000000000000000000000000000000000000000000000000000 PUSH0 MSTORE PUSH1 0x22 PUSH1 0x4 MSTORE PUSH1 0x24 PUSH0 REVERT JUMPDEST PUSH0 PUSH1 0x2 DUP3 DIV SWAP1 POP PUSH1 0x1 DUP3 AND DUP1 PUSH2 0x300 JUMPI PUSH1 0x7F DUP3 AND SWAP2 POP JUMPDEST PUSH1 0x20 DUP3 LT DUP2 SUB PUSH2 0x313 JUMPI PUSH2 0x312 PUSH2 0x2BC JUMP JUMPDEST JUMPDEST POP SWAP2 SWAP1 POP JUMP JUMPDEST PUSH0 DUP2 SWAP1 POP DUP2 PUSH0 MSTORE PUSH1 0x20 PUSH0 KECCAK256 SWAP1 POP SWAP2 SWAP1 POP JUMP JUMPDEST PUSH0 PUSH1 0x20 PUSH1 0x1F DUP4 ADD DIV SWAP1 POP SWAP2 SWAP1 POP JUMP JUMPDEST PUSH0 DUP3 DUP3 SHL SWAP1 POP SWAP3 SWAP2 POP POP JUMP JUMPDEST PUSH0 PUSH1 0x8 DUP4 MUL PUSH2 0x375 PUSH32 0xFFFFFFFFFFFFFFFFFFFFFFFFFFFFFFFFFFFFFFFFFFFFFFFFFFFFFFFFFFFFFFFF DUP3 PUSH2 0x33A JUMP JUMPDEST PUSH2 0x37F DUP7 DUP4 PUSH2 0x33A JUMP JUMPDEST SWAP6 POP DUP1 NOT DUP5 AND SWAP4 POP DUP1 DUP7 AND DUP5 OR SWAP3 POP POP POP SWAP4 SWAP3 POP POP POP JUMP JUMPDEST PUSH0 DUP2 SWAP1 POP SWAP2 SWAP1 POP JUMP JUMPDEST PUSH0 DUP2 SWAP1 POP SWAP2 SWAP1 POP JUMP JUMPDEST PUSH0 PUSH2 0x3C3 PUSH2 0x3BE PUSH2 0x3B9 DUP5 PUSH2 0x397 JUMP JUMPDEST PUSH2 0x3A0 JUMP JUMPDEST PUSH2 0x397 JUMP JUMPDEST SWAP1 POP SWAP2 SWAP1 POP JUMP JUMPDEST PUSH0 DUP2 SWAP1 POP SWAP2 SWAP1 POP JUMP JUMPDEST PUSH2 0x3DC DUP4 PUSH2 0x3A9 JUMP JUMPDEST PUSH2 0x3F0 PUSH2 0x3E8 DUP3 PUSH2 0x3CA JUMP JUMPDEST DUP5 DUP5 SLOAD PUSH2 0x346 JUMP JUMPDEST DUP3 SSTORE POP POP POP POP JUMP JUMPDEST PUSH0 PUSH0 SWAP1 POP SWAP1 JUMP JUMPDEST PUSH2 0x407 PUSH2 0x3F8 JUMP JUMPDEST PUSH2 0x412 DUP2 DUP5 DUP5 PUSH2 0x3D3 JUMP JUMPDEST POP POP POP JUMP JUMPDEST JUMPDEST DUP2 DUP2 LT ISZERO PUSH2 0x435 JUMPI PUSH2 0x42A PUSH0 DUP3 PUSH2 0x3FF JUMP JUMPDEST PUSH1 0x1 DUP2 ADD SWAP1 POP PUSH2 0x418 JUMP JUMPDEST POP POP JUMP JUMPDEST PUSH1 0x1F DUP3 GT ISZERO PUSH2 0x47A JUMPI PUSH2 0x44B DUP2 PUSH2 0x319 JUMP JUMPDEST PUSH2 0x454 DUP5 PUSH2 0x32B JUMP JUMPDEST DUP2 ADD PUSH1 0x20 DUP6 LT ISZERO PUSH2 0x463 JUMPI DUP2 SWAP1 POP JUMPDEST PUSH2 0x477 PUSH2 0x46F DUP6 PUSH2 0x32B JUMP JUMPDEST DUP4 ADD DUP3 PUSH2 0x417 JUMP JUMPDEST POP POP JUMPDEST POP POP POP JUMP JUMPDEST PUSH0 DUP3 DUP3 SHR SWAP1 POP SWAP3 SWAP2 POP POP JUMP JUMPDEST PUSH0 PUSH2 0x49A PUSH0 NOT DUP5 PUSH1 0x8 MUL PUSH2 0x47F JUMP JUMPDEST NOT DUP1 DUP4 AND SWAP2 POP POP SWAP3 SWAP2 POP POP JUMP JUMPDEST PUSH0 PUSH2 0x4B2 DUP4 DUP4 PUSH2 0x48B JUMP JUMPDEST SWAP2 POP DUP3 PUSH1 0x2 MUL DUP3 OR SWAP1 POP SWAP3 SWAP2 POP POP JUMP JUMPDEST PUSH2 0x4CB DUP3 PUSH2 0x2B2 JUMP JUMPDEST PUSH8 0xFFFFFFFFFFFFFFFF DUP2 GT ISZERO PUSH2 0x4E4 JUMPI PUSH2 0x4E3 PUSH2 0xE9 JUMP JUMPDEST JUMPDEST PUSH2 0x4EE DUP3 SLOAD PUSH2 0x2E9 JUMP JUMPDEST PUSH2 0x4F9 DUP3 DUP3 DUP6 PUSH2 0x439 JUMP JUMPDEST PUSH0 PUSH1 0x20 SWAP1 POP PUSH1 0x1F DUP4 GT PUSH1 0x1 DUP2 EQ PUSH2 0x52A JUMPI PUSH0 DUP5 ISZERO PUSH2 0x518 JUMPI DUP3 DUP8 ADD MLOAD SWAP1 POP JUMPDEST PUSH2 0x522 DUP6 DUP3 PUSH2 0x4A7 JUMP JUMPDEST DUP7 SSTORE POP PUSH2 0x589 JUMP JUMPDEST PUSH1 0x1F NOT DUP5 AND PUSH2 0x538 DUP7 PUSH2 0x319 JUMP JUMPDEST PUSH0 JUMPDEST DUP3 DUP2 LT ISZERO PUSH2 0x55F JUMPI DUP5 DUP10 ADD MLOAD DUP3 SSTORE PUSH1 0x1 DUP3 ADD SWAP2 POP PUSH1 0x20 DUP6 ADD SWAP5 POP PUSH1 0x20 DUP2 ADD SWAP1 POP PUSH2 0x53A JUMP JUMPDEST DUP7 DUP4 LT ISZERO PUSH2 0x57C JUMPI DUP5 DUP10 ADD MLOAD PUSH2 0x578 PUSH1 0x1F DUP10 AND DUP3 PUSH2 0x48B JUMP JUMPDEST DUP4 SSTORE POP JUMPDEST PUSH1 0x1 PUSH1 0x2 DUP9 MUL ADD DUP9 SSTORE POP POP POP JUMPDEST POP POP POP POP POP POP JUMP JUMPDEST PUSH32 0x4E487B7100000000000000000000000000000000000000000000000000000000 PUSH0 MSTORE PUSH1 0x11 PUSH1 0x4 MSTORE PUSH1 0x24 PUSH0 REVERT JUMPDEST PUSH0 PUSH2 0x5C8 DUP3 PUSH2 0x397 JUMP JUMPDEST SWAP2 POP PUSH2 0x5D3 DUP4 PUSH2 0x397 JUMP JUMPDEST SWAP3 POP DUP3 DUP3 ADD SWAP1 POP DUP1 DUP3 GT ISZERO PUSH2 0x5EB JUMPI PUSH2 0x5EA PUSH2 0x591 JUMP JUMPDEST JUMPDEST SWAP3 SWAP2 POP POP JUMP JUMPDEST PUSH1 0x5F DUP1 PUSH2 0x5FD PUSH0 CODECOPY PUSH0 RETURN INVALID PUSH1 0x80 PUSH1 0x40 MSTORE PUSH1 0x4 CALLDATASIZE LT PUSH1 0x1B JUMPI PUSH0 CALLDATALOAD PUSH1 0xE0 SHR DUP1 PUSH4 0x9E407998 EQ PUSH1 0x1F JUMPI JUMPDEST PUSH0 PUSH0 REVERT JUMPDEST PUSH1 0x25 PUSH1 0x27 JUMP JUMPDEST STOP JUMPDEST JUMP INVALID LOG2 PUSH5 0x6970667358 0x22 SLT KECCAK256 EXTCODEHASH 0xC8 NUMBER MSTORE8 0x2E BALANCE PUSH18 0x167D2B58673AE7BDDD78EA6311B2C9A0F1FF CALLF 0x850F LOG0 DUP15 REVERT 0xC4 PUSH5 0x736F6C6343 STOP ADDMOD 0x1E STOP CALLER "
				},
				"deployedBytecode": {
					"immutableReferences": {},
					"linkReferences": {},
					"object": "608060405260043610601b575f3560e01c80639e40799814601f575b5f5ffd5b60256027565b005b56fea26469706673582212203fc843532e3171167d2b58673ae7bddd78ea6311b2c9a0f1ffe3850fa08efdc464736f6c634300081e0033",
					"opcodes": "PUSH1 0x80 PUSH1 0x40 MSTORE PUSH1 0x4 CALLDATASIZE LT PUSH1 0x1B JUMPI PUSH0 CALLDATALOAD PUSH1 0xE0 SHR DUP1 PUSH4 0x9E407998 EQ PUSH1 0x1F JUMPI JUMPDEST PUSH0 PUSH0 REVERT JUMPDEST PUSH1 0x25 PUSH1 0x27 JUMP JUMPDEST STOP JUMPDEST JUMP INVALID LOG2 PUSH5 0x6970667358 0x22 SLT KECCAK256 EXTCODEHASH 0xC8 NUMBER MSTORE8 0x2E BALANCE PUSH18 0x167D2B58673AE7BDDD78EA6311B2C9A0F1FF CALLF 0x850F LOG0 DUP15 REVERT 0xC4 PUSH5 0x736F6C6343 STOP ADDMOD 0x1E STOP CALLER "
				},
				"gasEstimates": {
					"creation": {
						"codeDepositCost": "19000",
						"executionCost": "infinite",
						"totalCost": "infinite"
					},
					"external": {
						"bit()": "97"
					}
				},
				"methodIdentifiers": {
					"bit()": "9e407998"
				}
			},
			"storageLayout": {
				"storage": [
					{
						"astId": 3,
						"contract": "tp2/auction.sol:Auction",
						"label": "admin",
						"offset": 0,
						"slot": "0",
						"type": "t_address"
					},
					{
						"astId": 5,
						"contract": "tp2/auction.sol:Auction",
						"label": "auctioneItem",
						"offset": 0,
						"slot": "1",
						"type": "t_string_storage"
					},
					{
						"astId": 7,
						"contract": "tp2/auction.sol:Auction",
						"label": "completionTime",
						"offset": 0,
						"slot": "2",
						"type": "t_uint256"
					},
					{
						"astId": 9,
						"contract": "tp2/auction.sol:Auction",
						"label": "minimumBid",
						"offset": 0,
						"slot": "3",
						"type": "t_uint256"
					},
					{
						"astId": 11,
						"contract": "tp2/auction.sol:Auction",
						"label": "price",
						"offset": 0,
						"slot": "4",
						"type": "t_uint32"
					},
					{
						"astId": 13,
						"contract": "tp2/auction.sol:Auction",
						"label": "extraTime",
						"offset": 4,
						"slot": "4",
						"type": "t_uint32"
					}
				],
				"types": {
					"t_address": {
						"encoding": "inplace",
						"label": "address",
						"numberOfBytes": "20"
					},
					"t_string_storage": {
						"encoding": "bytes",
						"label": "string",
						"numberOfBytes": "32"
					},
					"t_uint256": {
						"encoding": "inplace",
						"label": "uint256",
						"numberOfBytes": "32"
					},
					"t_uint32": {
						"encoding": "inplace",
						"label": "uint32",
						"numberOfBytes": "4"
					}
				}
			},
			"userdoc": {
				"kind": "user",
				"methods": {},
				"version": 1
			}
		}
	}
}