{
	"tp2/auction.sol": {
		"Auction": {
			"abi": [
				{
					"inputs": [
						{
							"internalType": "uint256",
							"name": "duration",
							"type": "uint256"
						},
						{
							"internalType": "uint256",
							"name": "base",
							"type": "uint256"
						},
						{
							"internalType": "string",
							"name": "item",
							"type": "string"
						}
					],
					"stateMutability": "nonpayable",
					"type": "constructor"
				},
				{
					"inputs": [
						{
							"internalType": "string",
							"name": "detail",
							"type": "string"
						}
					],
					"name": "AccessNotAllowed",
					"type": "error"
				},
				{
					"inputs": [
						{
							"internalType": "enum Auction.Stage",
							"name": "stage",
							"type": "uint8"
						}
					],
					"name": "NotAllowedAtStage",
					"type": "error"
				},
				{
					"inputs": [
						{
							"internalType": "string",
							"name": "detail",
							"type": "string"
						}
					],
					"name": "NotEnoughHigh",
					"type": "error"
				},
				{
					"inputs": [],
					"name": "NotWinningBid",
					"type": "error"
				},
				{
					"inputs": [],
					"name": "NothingToWithdraw",
					"type": "error"
				},
				{
					"anonymous": false,
					"inputs": [
						{
							"indexed": true,
							"internalType": "string",
							"name": "auctioneItem",
							"type": "string"
						},
						{
							"indexed": true,
							"internalType": "address",
							"name": "winner",
							"type": "address"
						},
						{
							"indexed": false,
							"internalType": "uint256",
							"name": "amount",
							"type": "uint256"
						}
					],
					"name": "AuctionFinished",
					"type": "event"
				},
				{
					"anonymous": false,
					"inputs": [
						{
							"indexed": true,
							"internalType": "string",
							"name": "item",
							"type": "string"
						},
						{
							"indexed": false,
							"internalType": "uint256",
							"name": "base",
							"type": "uint256"
						}
					],
					"name": "AuctionOpened",
					"type": "event"
				},
				{
					"anonymous": false,
					"inputs": [
						{
							"indexed": true,
							"internalType": "address",
							"name": "bidder",
							"type": "address"
						},
						{
							"indexed": false,
							"internalType": "uint256",
							"name": "amount",
							"type": "uint256"
						}
					],
					"name": "NewBid",
					"type": "event"
				},
				{
					"inputs": [],
					"name": "bid",
					"outputs": [],
					"stateMutability": "payable",
					"type": "function"
				},
				{
					"inputs": [],
					"name": "close",
					"outputs": [],
					"stateMutability": "nonpayable",
					"type": "function"
				},
				{
					"inputs": [],
					"name": "showBids",
					"outputs": [
						{
							"components": [
								{
									"internalType": "bool",
									"name": "exists",
									"type": "bool"
								},
								{
									"internalType": "uint256",
									"name": "timestamp",
									"type": "uint256"
								},
								{
									"internalType": "uint256",
									"name": "accumulated",
									"type": "uint256"
								},
								{
									"internalType": "uint256",
									"name": "amount",
									"type": "uint256"
								},
								{
									"internalType": "address",
									"name": "owner",
									"type": "address"
								}
							],
							"internalType": "struct Auction.Bid[]",
							"name": "",
							"type": "tuple[]"
						}
					],
					"stateMutability": "view",
					"type": "function"
				},
				{
					"inputs": [],
					"name": "showWinner",
					"outputs": [
						{
							"internalType": "address",
							"name": "winner",
							"type": "address"
						},
						{
							"internalType": "uint256",
							"name": "amount",
							"type": "uint256"
						}
					],
					"stateMutability": "nonpayable",
					"type": "function"
				},
				{
					"inputs": [],
					"name": "withdrawal",
					"outputs": [],
					"stateMutability": "nonpayable",
					"type": "function"
				}
			],
			"devdoc": {
				"author": "Cristian Alinez",
				"errors": {
					"AccessNotAllowed(string)": [
						{
							"params": {
								"detail": "Error detail"
							}
						}
					],
					"NotAllowedAtStage(uint8)": [
						{
							"params": {
								"stage": "Current stage"
							}
						}
					],
					"NotEnoughHigh(string)": [
						{
							"params": {
								"detail": "Error detail"
							}
						}
					]
				},
				"events": {
					"AuctionFinished(string,address,uint256)": {
						"params": {
							"amount": "Amount of the highest bid.",
							"auctioneItem": "Name of the Item on which was the Auction.",
							"winner": "Bidder Address of the highest bid."
						}
					},
					"AuctionOpened(string,uint256)": {
						"params": {
							"base": "Initial value of the Auction",
							"item": "Name of the Item on which was the Auction."
						}
					},
					"NewBid(address,uint256)": {
						"params": {
							"amount": "Amount of the Bid placed.",
							"bidder": "bidder Address of the user placing a new Bid."
						}
					}
				},
				"kind": "dev",
				"methods": {
					"constructor": {
						"author": "Cristian Alinez",
						"params": {
							"base": "Initial value of the bid",
							"duration": "Time limit in seconds until valid bids are accepted",
							"item": "Name of the auction Item"
						}
					},
					"showWinner()": {
						"returns": {
							"amount": "Winner bid amount",
							"winner": "Winner bid address"
						}
					}
				},
				"title": "Auction Contract. Module 2 Final Project",
				"version": 1
			},
			"evm": {
				"assembly": "    /* \"tp2/auction.sol\":255:7548  contract Auction {... */\n  mstore(0x40, 0x80)\n    /* \"tp2/auction.sol\":3312:3608  constructor(uint duration, uint base, string memory item){... */\n  callvalue\n  dup1\n  iszero\n  tag_1\n  jumpi\n  0x00\n  dup1\n  revert\ntag_1:\n  pop\n  mload(0x40)\n  sub(codesize, bytecodeSize)\n  dup1\n  bytecodeSize\n  dup4\n  codecopy\n  dup2\n  dup2\n  add\n  0x40\n  mstore\n  dup2\n  add\n  swap1\n  tag_2\n  swap2\n  swap1\n  tag_3\n  jump\t// in\ntag_2:\n    /* \"tp2/auction.sol\":3387:3397  msg.sender */\n  caller\n    /* \"tp2/auction.sol\":3379:3384  admin */\n  0x07\n  0x00\n    /* \"tp2/auction.sol\":3379:3397  admin = msg.sender */\n  0x0100\n  exp\n  dup2\n  sload\n  dup2\n  0xffffffffffffffffffffffffffffffffffffffff\n  mul\n  not\n  and\n  swap1\n  dup4\n  0xffffffffffffffffffffffffffffffffffffffff\n  and\n  mul\n  or\n  swap1\n  sstore\n  pop\n    /* \"tp2/auction.sol\":3422:3426  item */\n  dup1\n    /* \"tp2/auction.sol\":3407:3419  auctioneItem */\n  0x08\n    /* \"tp2/auction.sol\":3407:3426  auctioneItem = item */\n  swap1\n  dup2\n  tag_6\n  swap2\n  swap1\n  tag_7\n  jump\t// in\ntag_6:\n  pop\n    /* \"tp2/auction.sol\":3471:3479  duration */\n  dup3\n    /* \"tp2/auction.sol\":3453:3468  block.timestamp */\n  timestamp\n    /* \"tp2/auction.sol\":3453:3479  block.timestamp + duration */\n  tag_8\n  swap2\n  swap1\n  tag_9\n  jump\t// in\ntag_8:\n    /* \"tp2/auction.sol\":3436:3450  completionTime */\n  0x00\n    /* \"tp2/auction.sol\":3436:3479  completionTime = block.timestamp + duration */\n  dup2\n  swap1\n  sstore\n  pop\n    /* \"tp2/auction.sol\":3513:3520  1 ether */\n  0x0de0b6b3a7640000\n    /* \"tp2/auction.sol\":3506:3510  base */\n  dup3\n    /* \"tp2/auction.sol\":3506:3520  base * 1 ether */\n  tag_10\n  swap2\n  swap1\n  tag_11\n  jump\t// in\ntag_10:\n    /* \"tp2/auction.sol\":3489:3496  lastBid */\n  0x02\n    /* \"tp2/auction.sol\":3489:3503  lastBid.amount */\n  0x03\n  add\n    /* \"tp2/auction.sol\":3489:3520  lastBid.amount = base * 1 ether */\n  dup2\n  swap1\n  sstore\n  pop\n    /* \"tp2/auction.sol\":3538:3553  Stage.TakingBid */\n  0x00\n    /* \"tp2/auction.sol\":3530:3535  stage */\n  0x01\n  0x00\n    /* \"tp2/auction.sol\":3530:3553  stage = Stage.TakingBid */\n  0x0100\n  exp\n  dup2\n  sload\n  dup2\n  0xff\n  mul\n  not\n  and\n  swap1\n  dup4\n  0x01\n  dup2\n  gt\n  iszero\n  tag_12\n  jumpi\n  tag_13\n  tag_14\n  jump\t// in\ntag_13:\ntag_12:\n  mul\n  or\n  swap1\n  sstore\n  pop\n    /* \"tp2/auction.sol\":3582:3594  auctioneItem */\n  0x08\n    /* \"tp2/auction.sol\":3568:3601  AuctionOpened(auctioneItem, base) */\n  mload(0x40)\n  tag_15\n  swap2\n  swap1\n  tag_16\n  jump\t// in\ntag_15:\n  mload(0x40)\n  dup1\n  swap2\n  sub\n  swap1\n  keccak256\n  0x88b524d6621d7de004458e51f7f3a0dec805641fc7853fa1c25d15a1266b459e\n    /* \"tp2/auction.sol\":3596:3600  base */\n  dup4\n    /* \"tp2/auction.sol\":3568:3601  AuctionOpened(auctioneItem, base) */\n  mload(0x40)\n  tag_17\n  swap2\n  swap1\n  tag_18\n  jump\t// in\ntag_17:\n  mload(0x40)\n  dup1\n  swap2\n  sub\n  swap1\n  log2\n    /* \"tp2/auction.sol\":3312:3608  constructor(uint duration, uint base, string memory item){... */\n  pop\n  pop\n  pop\n    /* \"tp2/auction.sol\":255:7548  contract Auction {... */\n  jump(tag_19)\n    /* \"#utility.yul\":7:82   */\ntag_20:\n    /* \"#utility.yul\":40:46   */\n  0x00\n    /* \"#utility.yul\":73:75   */\n  0x40\n    /* \"#utility.yul\":67:76   */\n  mload\n    /* \"#utility.yul\":57:76   */\n  swap1\n  pop\n    /* \"#utility.yul\":7:82   */\n  swap1\n  jump\t// out\n    /* \"#utility.yul\":88:205   */\ntag_21:\n    /* \"#utility.yul\":197:198   */\n  0x00\n    /* \"#utility.yul\":194:195   */\n  dup1\n    /* \"#utility.yul\":187:199   */\n  revert\n    /* \"#utility.yul\":211:328   */\ntag_22:\n    /* \"#utility.yul\":320:321   */\n  0x00\n    /* \"#utility.yul\":317:318   */\n  dup1\n    /* \"#utility.yul\":310:322   */\n  revert\n    /* \"#utility.yul\":334:411   */\ntag_23:\n    /* \"#utility.yul\":371:378   */\n  0x00\n    /* \"#utility.yul\":400:405   */\n  dup2\n    /* \"#utility.yul\":389:405   */\n  swap1\n  pop\n    /* \"#utility.yul\":334:411   */\n  swap2\n  swap1\n  pop\n  jump\t// out\n    /* \"#utility.yul\":417:539   */\ntag_24:\n    /* \"#utility.yul\":490:514   */\n  tag_64\n    /* \"#utility.yul\":508:513   */\n  dup2\n    /* \"#utility.yul\":490:514   */\n  tag_23\n  jump\t// in\ntag_64:\n    /* \"#utility.yul\":483:488   */\n  dup2\n    /* \"#utility.yul\":480:515   */\n  eq\n    /* \"#utility.yul\":470:533   */\n  tag_65\n  jumpi\n    /* \"#utility.yul\":529:530   */\n  0x00\n    /* \"#utility.yul\":526:527   */\n  dup1\n    /* \"#utility.yul\":519:531   */\n  revert\n    /* \"#utility.yul\":470:533   */\ntag_65:\n    /* \"#utility.yul\":417:539   */\n  pop\n  jump\t// out\n    /* \"#utility.yul\":545:688   */\ntag_25:\n    /* \"#utility.yul\":602:607   */\n  0x00\n    /* \"#utility.yul\":633:639   */\n  dup2\n    /* \"#utility.yul\":627:640   */\n  mload\n    /* \"#utility.yul\":618:640   */\n  swap1\n  pop\n    /* \"#utility.yul\":649:682   */\n  tag_67\n    /* \"#utility.yul\":676:681   */\n  dup2\n    /* \"#utility.yul\":649:682   */\n  tag_24\n  jump\t// in\ntag_67:\n    /* \"#utility.yul\":545:688   */\n  swap3\n  swap2\n  pop\n  pop\n  jump\t// out\n    /* \"#utility.yul\":694:811   */\ntag_26:\n    /* \"#utility.yul\":803:804   */\n  0x00\n    /* \"#utility.yul\":800:801   */\n  dup1\n    /* \"#utility.yul\":793:805   */\n  revert\n    /* \"#utility.yul\":817:934   */\ntag_27:\n    /* \"#utility.yul\":926:927   */\n  0x00\n    /* \"#utility.yul\":923:924   */\n  dup1\n    /* \"#utility.yul\":916:928   */\n  revert\n    /* \"#utility.yul\":940:1042   */\ntag_28:\n    /* \"#utility.yul\":981:987   */\n  0x00\n    /* \"#utility.yul\":1032:1034   */\n  0x1f\n    /* \"#utility.yul\":1028:1035   */\n  not\n    /* \"#utility.yul\":1023:1025   */\n  0x1f\n    /* \"#utility.yul\":1016:1021   */\n  dup4\n    /* \"#utility.yul\":1012:1026   */\n  add\n    /* \"#utility.yul\":1008:1036   */\n  and\n    /* \"#utility.yul\":998:1036   */\n  swap1\n  pop\n    /* \"#utility.yul\":940:1042   */\n  swap2\n  swap1\n  pop\n  jump\t// out\n    /* \"#utility.yul\":1048:1228   */\ntag_29:\n    /* \"#utility.yul\":1096:1173   */\n  0x4e487b7100000000000000000000000000000000000000000000000000000000\n    /* \"#utility.yul\":1093:1094   */\n  0x00\n    /* \"#utility.yul\":1086:1174   */\n  mstore\n    /* \"#utility.yul\":1193:1197   */\n  0x41\n    /* \"#utility.yul\":1190:1191   */\n  0x04\n    /* \"#utility.yul\":1183:1198   */\n  mstore\n    /* \"#utility.yul\":1217:1221   */\n  0x24\n    /* \"#utility.yul\":1214:1215   */\n  0x00\n    /* \"#utility.yul\":1207:1222   */\n  revert\n    /* \"#utility.yul\":1234:1515   */\ntag_30:\n    /* \"#utility.yul\":1317:1344   */\n  tag_73\n    /* \"#utility.yul\":1339:1343   */\n  dup3\n    /* \"#utility.yul\":1317:1344   */\n  tag_28\n  jump\t// in\ntag_73:\n    /* \"#utility.yul\":1309:1315   */\n  dup2\n    /* \"#utility.yul\":1305:1345   */\n  add\n    /* \"#utility.yul\":1447:1453   */\n  dup2\n    /* \"#utility.yul\":1435:1445   */\n  dup2\n    /* \"#utility.yul\":1432:1454   */\n  lt\n    /* \"#utility.yul\":1411:1429   */\n  0xffffffffffffffff\n    /* \"#utility.yul\":1399:1409   */\n  dup3\n    /* \"#utility.yul\":1396:1430   */\n  gt\n    /* \"#utility.yul\":1393:1455   */\n  or\n    /* \"#utility.yul\":1390:1478   */\n  iszero\n  tag_74\n  jumpi\n    /* \"#utility.yul\":1458:1476   */\n  tag_75\n  tag_29\n  jump\t// in\ntag_75:\n    /* \"#utility.yul\":1390:1478   */\ntag_74:\n    /* \"#utility.yul\":1498:1508   */\n  dup1\n    /* \"#utility.yul\":1494:1496   */\n  0x40\n    /* \"#utility.yul\":1487:1509   */\n  mstore\n    /* \"#utility.yul\":1277:1515   */\n  pop\n    /* \"#utility.yul\":1234:1515   */\n  pop\n  pop\n  jump\t// out\n    /* \"#utility.yul\":1521:1650   */\ntag_31:\n    /* \"#utility.yul\":1555:1561   */\n  0x00\n    /* \"#utility.yul\":1582:1602   */\n  tag_77\n  tag_20\n  jump\t// in\ntag_77:\n    /* \"#utility.yul\":1572:1602   */\n  swap1\n  pop\n    /* \"#utility.yul\":1611:1644   */\n  tag_78\n    /* \"#utility.yul\":1639:1643   */\n  dup3\n    /* \"#utility.yul\":1631:1637   */\n  dup3\n    /* \"#utility.yul\":1611:1644   */\n  tag_30\n  jump\t// in\ntag_78:\n    /* \"#utility.yul\":1521:1650   */\n  swap2\n  swap1\n  pop\n  jump\t// out\n    /* \"#utility.yul\":1656:1964   */\ntag_32:\n    /* \"#utility.yul\":1718:1722   */\n  0x00\n    /* \"#utility.yul\":1808:1826   */\n  0xffffffffffffffff\n    /* \"#utility.yul\":1800:1806   */\n  dup3\n    /* \"#utility.yul\":1797:1827   */\n  gt\n    /* \"#utility.yul\":1794:1850   */\n  iszero\n  tag_80\n  jumpi\n    /* \"#utility.yul\":1830:1848   */\n  tag_81\n  tag_29\n  jump\t// in\ntag_81:\n    /* \"#utility.yul\":1794:1850   */\ntag_80:\n    /* \"#utility.yul\":1868:1897   */\n  tag_82\n    /* \"#utility.yul\":1890:1896   */\n  dup3\n    /* \"#utility.yul\":1868:1897   */\n  tag_28\n  jump\t// in\ntag_82:\n    /* \"#utility.yul\":1860:1897   */\n  swap1\n  pop\n    /* \"#utility.yul\":1952:1956   */\n  0x20\n    /* \"#utility.yul\":1946:1950   */\n  dup2\n    /* \"#utility.yul\":1942:1957   */\n  add\n    /* \"#utility.yul\":1934:1957   */\n  swap1\n  pop\n    /* \"#utility.yul\":1656:1964   */\n  swap2\n  swap1\n  pop\n  jump\t// out\n    /* \"#utility.yul\":1970:2109   */\ntag_33:\n    /* \"#utility.yul\":2059:2065   */\n  dup3\n    /* \"#utility.yul\":2054:2057   */\n  dup2\n    /* \"#utility.yul\":2049:2052   */\n  dup4\n    /* \"#utility.yul\":2043:2066   */\n  mcopy\n    /* \"#utility.yul\":2100:2101   */\n  0x00\n    /* \"#utility.yul\":2091:2097   */\n  dup4\n    /* \"#utility.yul\":2086:2089   */\n  dup4\n    /* \"#utility.yul\":2082:2098   */\n  add\n    /* \"#utility.yul\":2075:2102   */\n  mstore\n    /* \"#utility.yul\":1970:2109   */\n  pop\n  pop\n  pop\n  jump\t// out\n    /* \"#utility.yul\":2115:2549   */\ntag_34:\n    /* \"#utility.yul\":2204:2209   */\n  0x00\n    /* \"#utility.yul\":2229:2295   */\n  tag_85\n    /* \"#utility.yul\":2245:2294   */\n  tag_86\n    /* \"#utility.yul\":2287:2293   */\n  dup5\n    /* \"#utility.yul\":2245:2294   */\n  tag_32\n  jump\t// in\ntag_86:\n    /* \"#utility.yul\":2229:2295   */\n  tag_31\n  jump\t// in\ntag_85:\n    /* \"#utility.yul\":2220:2295   */\n  swap1\n  pop\n    /* \"#utility.yul\":2318:2324   */\n  dup3\n    /* \"#utility.yul\":2311:2316   */\n  dup2\n    /* \"#utility.yul\":2304:2325   */\n  mstore\n    /* \"#utility.yul\":2356:2360   */\n  0x20\n    /* \"#utility.yul\":2349:2354   */\n  dup2\n    /* \"#utility.yul\":2345:2361   */\n  add\n    /* \"#utility.yul\":2394:2397   */\n  dup5\n    /* \"#utility.yul\":2385:2391   */\n  dup5\n    /* \"#utility.yul\":2380:2383   */\n  dup5\n    /* \"#utility.yul\":2376:2392   */\n  add\n    /* \"#utility.yul\":2373:2398   */\n  gt\n    /* \"#utility.yul\":2370:2482   */\n  iszero\n  tag_87\n  jumpi\n    /* \"#utility.yul\":2401:2480   */\n  tag_88\n  tag_27\n  jump\t// in\ntag_88:\n    /* \"#utility.yul\":2370:2482   */\ntag_87:\n    /* \"#utility.yul\":2491:2543   */\n  tag_89\n    /* \"#utility.yul\":2536:2542   */\n  dup5\n    /* \"#utility.yul\":2531:2534   */\n  dup3\n    /* \"#utility.yul\":2526:2529   */\n  dup6\n    /* \"#utility.yul\":2491:2543   */\n  tag_33\n  jump\t// in\ntag_89:\n    /* \"#utility.yul\":2210:2549   */\n  pop\n    /* \"#utility.yul\":2115:2549   */\n  swap4\n  swap3\n  pop\n  pop\n  pop\n  jump\t// out\n    /* \"#utility.yul\":2569:2924   */\ntag_35:\n    /* \"#utility.yul\":2636:2641   */\n  0x00\n    /* \"#utility.yul\":2685:2688   */\n  dup3\n    /* \"#utility.yul\":2678:2682   */\n  0x1f\n    /* \"#utility.yul\":2670:2676   */\n  dup4\n    /* \"#utility.yul\":2666:2683   */\n  add\n    /* \"#utility.yul\":2662:2689   */\n  slt\n    /* \"#utility.yul\":2652:2774   */\n  tag_91\n  jumpi\n    /* \"#utility.yul\":2693:2772   */\n  tag_92\n  tag_26\n  jump\t// in\ntag_92:\n    /* \"#utility.yul\":2652:2774   */\ntag_91:\n    /* \"#utility.yul\":2803:2809   */\n  dup2\n    /* \"#utility.yul\":2797:2810   */\n  mload\n    /* \"#utility.yul\":2828:2918   */\n  tag_93\n    /* \"#utility.yul\":2914:2917   */\n  dup5\n    /* \"#utility.yul\":2906:2912   */\n  dup3\n    /* \"#utility.yul\":2899:2903   */\n  0x20\n    /* \"#utility.yul\":2891:2897   */\n  dup7\n    /* \"#utility.yul\":2887:2904   */\n  add\n    /* \"#utility.yul\":2828:2918   */\n  tag_34\n  jump\t// in\ntag_93:\n    /* \"#utility.yul\":2819:2918   */\n  swap2\n  pop\n    /* \"#utility.yul\":2642:2924   */\n  pop\n    /* \"#utility.yul\":2569:2924   */\n  swap3\n  swap2\n  pop\n  pop\n  jump\t// out\n    /* \"#utility.yul\":2930:3766   */\ntag_3:\n    /* \"#utility.yul\":3028:3034   */\n  0x00\n    /* \"#utility.yul\":3036:3042   */\n  dup1\n    /* \"#utility.yul\":3044:3050   */\n  0x00\n    /* \"#utility.yul\":3093:3095   */\n  0x60\n    /* \"#utility.yul\":3081:3090   */\n  dup5\n    /* \"#utility.yul\":3072:3079   */\n  dup7\n    /* \"#utility.yul\":3068:3091   */\n  sub\n    /* \"#utility.yul\":3064:3096   */\n  slt\n    /* \"#utility.yul\":3061:3180   */\n  iszero\n  tag_95\n  jumpi\n    /* \"#utility.yul\":3099:3178   */\n  tag_96\n  tag_21\n  jump\t// in\ntag_96:\n    /* \"#utility.yul\":3061:3180   */\ntag_95:\n    /* \"#utility.yul\":3219:3220   */\n  0x00\n    /* \"#utility.yul\":3244:3308   */\n  tag_97\n    /* \"#utility.yul\":3300:3307   */\n  dup7\n    /* \"#utility.yul\":3291:3297   */\n  dup3\n    /* \"#utility.yul\":3280:3289   */\n  dup8\n    /* \"#utility.yul\":3276:3298   */\n  add\n    /* \"#utility.yul\":3244:3308   */\n  tag_25\n  jump\t// in\ntag_97:\n    /* \"#utility.yul\":3234:3308   */\n  swap4\n  pop\n    /* \"#utility.yul\":3190:3318   */\n  pop\n    /* \"#utility.yul\":3357:3359   */\n  0x20\n    /* \"#utility.yul\":3383:3447   */\n  tag_98\n    /* \"#utility.yul\":3439:3446   */\n  dup7\n    /* \"#utility.yul\":3430:3436   */\n  dup3\n    /* \"#utility.yul\":3419:3428   */\n  dup8\n    /* \"#utility.yul\":3415:3437   */\n  add\n    /* \"#utility.yul\":3383:3447   */\n  tag_25\n  jump\t// in\ntag_98:\n    /* \"#utility.yul\":3373:3447   */\n  swap3\n  pop\n    /* \"#utility.yul\":3328:3457   */\n  pop\n    /* \"#utility.yul\":3517:3519   */\n  0x40\n    /* \"#utility.yul\":3506:3515   */\n  dup5\n    /* \"#utility.yul\":3502:3520   */\n  add\n    /* \"#utility.yul\":3496:3521   */\n  mload\n    /* \"#utility.yul\":3548:3566   */\n  0xffffffffffffffff\n    /* \"#utility.yul\":3540:3546   */\n  dup2\n    /* \"#utility.yul\":3537:3567   */\n  gt\n    /* \"#utility.yul\":3534:3651   */\n  iszero\n  tag_99\n  jumpi\n    /* \"#utility.yul\":3570:3649   */\n  tag_100\n  tag_22\n  jump\t// in\ntag_100:\n    /* \"#utility.yul\":3534:3651   */\ntag_99:\n    /* \"#utility.yul\":3675:3749   */\n  tag_101\n    /* \"#utility.yul\":3741:3748   */\n  dup7\n    /* \"#utility.yul\":3732:3738   */\n  dup3\n    /* \"#utility.yul\":3721:3730   */\n  dup8\n    /* \"#utility.yul\":3717:3739   */\n  add\n    /* \"#utility.yul\":3675:3749   */\n  tag_35\n  jump\t// in\ntag_101:\n    /* \"#utility.yul\":3665:3749   */\n  swap2\n  pop\n    /* \"#utility.yul\":3467:3759   */\n  pop\n    /* \"#utility.yul\":2930:3766   */\n  swap3\n  pop\n  swap3\n  pop\n  swap3\n  jump\t// out\n    /* \"#utility.yul\":3772:3871   */\ntag_36:\n    /* \"#utility.yul\":3824:3830   */\n  0x00\n    /* \"#utility.yul\":3858:3863   */\n  dup2\n    /* \"#utility.yul\":3852:3864   */\n  mload\n    /* \"#utility.yul\":3842:3864   */\n  swap1\n  pop\n    /* \"#utility.yul\":3772:3871   */\n  swap2\n  swap1\n  pop\n  jump\t// out\n    /* \"#utility.yul\":3877:4057   */\ntag_37:\n    /* \"#utility.yul\":3925:4002   */\n  0x4e487b7100000000000000000000000000000000000000000000000000000000\n    /* \"#utility.yul\":3922:3923   */\n  0x00\n    /* \"#utility.yul\":3915:4003   */\n  mstore\n    /* \"#utility.yul\":4022:4026   */\n  0x22\n    /* \"#utility.yul\":4019:4020   */\n  0x04\n    /* \"#utility.yul\":4012:4027   */\n  mstore\n    /* \"#utility.yul\":4046:4050   */\n  0x24\n    /* \"#utility.yul\":4043:4044   */\n  0x00\n    /* \"#utility.yul\":4036:4051   */\n  revert\n    /* \"#utility.yul\":4063:4383   */\ntag_38:\n    /* \"#utility.yul\":4107:4113   */\n  0x00\n    /* \"#utility.yul\":4144:4145   */\n  0x02\n    /* \"#utility.yul\":4138:4142   */\n  dup3\n    /* \"#utility.yul\":4134:4146   */\n  div\n    /* \"#utility.yul\":4124:4146   */\n  swap1\n  pop\n    /* \"#utility.yul\":4191:4192   */\n  0x01\n    /* \"#utility.yul\":4185:4189   */\n  dup3\n    /* \"#utility.yul\":4181:4193   */\n  and\n    /* \"#utility.yul\":4212:4230   */\n  dup1\n    /* \"#utility.yul\":4202:4283   */\n  tag_105\n  jumpi\n    /* \"#utility.yul\":4268:4272   */\n  0x7f\n    /* \"#utility.yul\":4260:4266   */\n  dup3\n    /* \"#utility.yul\":4256:4273   */\n  and\n    /* \"#utility.yul\":4246:4273   */\n  swap2\n  pop\n    /* \"#utility.yul\":4202:4283   */\ntag_105:\n    /* \"#utility.yul\":4330:4332   */\n  0x20\n    /* \"#utility.yul\":4322:4328   */\n  dup3\n    /* \"#utility.yul\":4319:4333   */\n  lt\n    /* \"#utility.yul\":4299:4317   */\n  dup2\n    /* \"#utility.yul\":4296:4334   */\n  sub\n    /* \"#utility.yul\":4293:4377   */\n  tag_106\n  jumpi\n    /* \"#utility.yul\":4349:4367   */\n  tag_107\n  tag_37\n  jump\t// in\ntag_107:\n    /* \"#utility.yul\":4293:4377   */\ntag_106:\n    /* \"#utility.yul\":4114:4383   */\n  pop\n    /* \"#utility.yul\":4063:4383   */\n  swap2\n  swap1\n  pop\n  jump\t// out\n    /* \"#utility.yul\":4389:4530   */\ntag_39:\n    /* \"#utility.yul\":4438:4442   */\n  0x00\n    /* \"#utility.yul\":4461:4464   */\n  dup2\n    /* \"#utility.yul\":4453:4464   */\n  swap1\n  pop\n    /* \"#utility.yul\":4484:4487   */\n  dup2\n    /* \"#utility.yul\":4481:4482   */\n  0x00\n    /* \"#utility.yul\":4474:4488   */\n  mstore\n    /* \"#utility.yul\":4518:4522   */\n  0x20\n    /* \"#utility.yul\":4515:4516   */\n  0x00\n    /* \"#utility.yul\":4505:4523   */\n  keccak256\n    /* \"#utility.yul\":4497:4523   */\n  swap1\n  pop\n    /* \"#utility.yul\":4389:4530   */\n  swap2\n  swap1\n  pop\n  jump\t// out\n    /* \"#utility.yul\":4536:4629   */\ntag_40:\n    /* \"#utility.yul\":4573:4579   */\n  0x00\n    /* \"#utility.yul\":4620:4622   */\n  0x20\n    /* \"#utility.yul\":4615:4617   */\n  0x1f\n    /* \"#utility.yul\":4608:4613   */\n  dup4\n    /* \"#utility.yul\":4604:4618   */\n  add\n    /* \"#utility.yul\":4600:4623   */\n  div\n    /* \"#utility.yul\":4590:4623   */\n  swap1\n  pop\n    /* \"#utility.yul\":4536:4629   */\n  swap2\n  swap1\n  pop\n  jump\t// out\n    /* \"#utility.yul\":4635:4742   */\ntag_41:\n    /* \"#utility.yul\":4679:4687   */\n  0x00\n    /* \"#utility.yul\":4729:4734   */\n  dup3\n    /* \"#utility.yul\":4723:4727   */\n  dup3\n    /* \"#utility.yul\":4719:4735   */\n  shl\n    /* \"#utility.yul\":4698:4735   */\n  swap1\n  pop\n    /* \"#utility.yul\":4635:4742   */\n  swap3\n  swap2\n  pop\n  pop\n  jump\t// out\n    /* \"#utility.yul\":4748:5141   */\ntag_42:\n    /* \"#utility.yul\":4817:4823   */\n  0x00\n    /* \"#utility.yul\":4867:4868   */\n  0x08\n    /* \"#utility.yul\":4855:4865   */\n  dup4\n    /* \"#utility.yul\":4851:4869   */\n  mul\n    /* \"#utility.yul\":4890:4987   */\n  tag_112\n    /* \"#utility.yul\":4920:4986   */\n  0xffffffffffffffffffffffffffffffffffffffffffffffffffffffffffffffff\n    /* \"#utility.yul\":4909:4918   */\n  dup3\n    /* \"#utility.yul\":4890:4987   */\n  tag_41\n  jump\t// in\ntag_112:\n    /* \"#utility.yul\":5008:5047   */\n  tag_113\n    /* \"#utility.yul\":5038:5046   */\n  dup7\n    /* \"#utility.yul\":5027:5036   */\n  dup4\n    /* \"#utility.yul\":5008:5047   */\n  tag_41\n  jump\t// in\ntag_113:\n    /* \"#utility.yul\":4996:5047   */\n  swap6\n  pop\n    /* \"#utility.yul\":5080:5084   */\n  dup1\n    /* \"#utility.yul\":5076:5085   */\n  not\n    /* \"#utility.yul\":5069:5074   */\n  dup5\n    /* \"#utility.yul\":5065:5086   */\n  and\n    /* \"#utility.yul\":5056:5086   */\n  swap4\n  pop\n    /* \"#utility.yul\":5129:5133   */\n  dup1\n    /* \"#utility.yul\":5119:5127   */\n  dup7\n    /* \"#utility.yul\":5115:5134   */\n  and\n    /* \"#utility.yul\":5108:5113   */\n  dup5\n    /* \"#utility.yul\":5105:5135   */\n  or\n    /* \"#utility.yul\":5095:5135   */\n  swap3\n  pop\n    /* \"#utility.yul\":4824:5141   */\n  pop\n  pop\n    /* \"#utility.yul\":4748:5141   */\n  swap4\n  swap3\n  pop\n  pop\n  pop\n  jump\t// out\n    /* \"#utility.yul\":5147:5207   */\ntag_43:\n    /* \"#utility.yul\":5175:5178   */\n  0x00\n    /* \"#utility.yul\":5196:5201   */\n  dup2\n    /* \"#utility.yul\":5189:5201   */\n  swap1\n  pop\n    /* \"#utility.yul\":5147:5207   */\n  swap2\n  swap1\n  pop\n  jump\t// out\n    /* \"#utility.yul\":5213:5355   */\ntag_44:\n    /* \"#utility.yul\":5263:5272   */\n  0x00\n    /* \"#utility.yul\":5296:5349   */\n  tag_116\n    /* \"#utility.yul\":5314:5348   */\n  tag_117\n    /* \"#utility.yul\":5323:5347   */\n  tag_118\n    /* \"#utility.yul\":5341:5346   */\n  dup5\n    /* \"#utility.yul\":5323:5347   */\n  tag_23\n  jump\t// in\ntag_118:\n    /* \"#utility.yul\":5314:5348   */\n  tag_43\n  jump\t// in\ntag_117:\n    /* \"#utility.yul\":5296:5349   */\n  tag_23\n  jump\t// in\ntag_116:\n    /* \"#utility.yul\":5283:5349   */\n  swap1\n  pop\n    /* \"#utility.yul\":5213:5355   */\n  swap2\n  swap1\n  pop\n  jump\t// out\n    /* \"#utility.yul\":5361:5436   */\ntag_45:\n    /* \"#utility.yul\":5404:5407   */\n  0x00\n    /* \"#utility.yul\":5425:5430   */\n  dup2\n    /* \"#utility.yul\":5418:5430   */\n  swap1\n  pop\n    /* \"#utility.yul\":5361:5436   */\n  swap2\n  swap1\n  pop\n  jump\t// out\n    /* \"#utility.yul\":5442:5711   */\ntag_46:\n    /* \"#utility.yul\":5552:5591   */\n  tag_121\n    /* \"#utility.yul\":5583:5590   */\n  dup4\n    /* \"#utility.yul\":5552:5591   */\n  tag_44\n  jump\t// in\ntag_121:\n    /* \"#utility.yul\":5613:5704   */\n  tag_122\n    /* \"#utility.yul\":5662:5703   */\n  tag_123\n    /* \"#utility.yul\":5686:5702   */\n  dup3\n    /* \"#utility.yul\":5662:5703   */\n  tag_45\n  jump\t// in\ntag_123:\n    /* \"#utility.yul\":5654:5660   */\n  dup5\n    /* \"#utility.yul\":5647:5651   */\n  dup5\n    /* \"#utility.yul\":5641:5652   */\n  sload\n    /* \"#utility.yul\":5613:5704   */\n  tag_42\n  jump\t// in\ntag_122:\n    /* \"#utility.yul\":5607:5611   */\n  dup3\n    /* \"#utility.yul\":5600:5705   */\n  sstore\n    /* \"#utility.yul\":5518:5711   */\n  pop\n    /* \"#utility.yul\":5442:5711   */\n  pop\n  pop\n  pop\n  jump\t// out\n    /* \"#utility.yul\":5717:5790   */\ntag_47:\n    /* \"#utility.yul\":5762:5765   */\n  0x00\n    /* \"#utility.yul\":5717:5790   */\n  swap1\n  jump\t// out\n    /* \"#utility.yul\":5796:5985   */\ntag_48:\n    /* \"#utility.yul\":5873:5905   */\n  tag_126\n  tag_47\n  jump\t// in\ntag_126:\n    /* \"#utility.yul\":5914:5979   */\n  tag_127\n    /* \"#utility.yul\":5972:5978   */\n  dup2\n    /* \"#utility.yul\":5964:5970   */\n  dup5\n    /* \"#utility.yul\":5958:5962   */\n  dup5\n    /* \"#utility.yul\":5914:5979   */\n  tag_46\n  jump\t// in\ntag_127:\n    /* \"#utility.yul\":5849:5985   */\n  pop\n    /* \"#utility.yul\":5796:5985   */\n  pop\n  pop\n  jump\t// out\n    /* \"#utility.yul\":5991:6177   */\ntag_49:\n    /* \"#utility.yul\":6051:6171   */\ntag_129:\n    /* \"#utility.yul\":6068:6071   */\n  dup2\n    /* \"#utility.yul\":6061:6066   */\n  dup2\n    /* \"#utility.yul\":6058:6072   */\n  lt\n    /* \"#utility.yul\":6051:6171   */\n  iszero\n  tag_131\n  jumpi\n    /* \"#utility.yul\":6122:6161   */\n  tag_132\n    /* \"#utility.yul\":6159:6160   */\n  0x00\n    /* \"#utility.yul\":6152:6157   */\n  dup3\n    /* \"#utility.yul\":6122:6161   */\n  tag_48\n  jump\t// in\ntag_132:\n    /* \"#utility.yul\":6095:6096   */\n  0x01\n    /* \"#utility.yul\":6088:6093   */\n  dup2\n    /* \"#utility.yul\":6084:6097   */\n  add\n    /* \"#utility.yul\":6075:6097   */\n  swap1\n  pop\n    /* \"#utility.yul\":6051:6171   */\n  jump(tag_129)\ntag_131:\n    /* \"#utility.yul\":5991:6177   */\n  pop\n  pop\n  jump\t// out\n    /* \"#utility.yul\":6183:6726   */\ntag_50:\n    /* \"#utility.yul\":6284:6286   */\n  0x1f\n    /* \"#utility.yul\":6279:6282   */\n  dup3\n    /* \"#utility.yul\":6276:6287   */\n  gt\n    /* \"#utility.yul\":6273:6719   */\n  iszero\n  tag_134\n  jumpi\n    /* \"#utility.yul\":6318:6356   */\n  tag_135\n    /* \"#utility.yul\":6350:6355   */\n  dup2\n    /* \"#utility.yul\":6318:6356   */\n  tag_39\n  jump\t// in\ntag_135:\n    /* \"#utility.yul\":6402:6431   */\n  tag_136\n    /* \"#utility.yul\":6420:6430   */\n  dup5\n    /* \"#utility.yul\":6402:6431   */\n  tag_40\n  jump\t// in\ntag_136:\n    /* \"#utility.yul\":6392:6400   */\n  dup2\n    /* \"#utility.yul\":6388:6432   */\n  add\n    /* \"#utility.yul\":6585:6587   */\n  0x20\n    /* \"#utility.yul\":6573:6583   */\n  dup6\n    /* \"#utility.yul\":6570:6588   */\n  lt\n    /* \"#utility.yul\":6567:6616   */\n  iszero\n  tag_137\n  jumpi\n    /* \"#utility.yul\":6606:6614   */\n  dup2\n    /* \"#utility.yul\":6591:6614   */\n  swap1\n  pop\n    /* \"#utility.yul\":6567:6616   */\ntag_137:\n    /* \"#utility.yul\":6629:6709   */\n  tag_138\n    /* \"#utility.yul\":6685:6707   */\n  tag_139\n    /* \"#utility.yul\":6703:6706   */\n  dup6\n    /* \"#utility.yul\":6685:6707   */\n  tag_40\n  jump\t// in\ntag_139:\n    /* \"#utility.yul\":6675:6683   */\n  dup4\n    /* \"#utility.yul\":6671:6708   */\n  add\n    /* \"#utility.yul\":6658:6669   */\n  dup3\n    /* \"#utility.yul\":6629:6709   */\n  tag_49\n  jump\t// in\ntag_138:\n    /* \"#utility.yul\":6288:6719   */\n  pop\n  pop\n    /* \"#utility.yul\":6273:6719   */\ntag_134:\n    /* \"#utility.yul\":6183:6726   */\n  pop\n  pop\n  pop\n  jump\t// out\n    /* \"#utility.yul\":6732:6849   */\ntag_51:\n    /* \"#utility.yul\":6786:6794   */\n  0x00\n    /* \"#utility.yul\":6836:6841   */\n  dup3\n    /* \"#utility.yul\":6830:6834   */\n  dup3\n    /* \"#utility.yul\":6826:6842   */\n  shr\n    /* \"#utility.yul\":6805:6842   */\n  swap1\n  pop\n    /* \"#utility.yul\":6732:6849   */\n  swap3\n  swap2\n  pop\n  pop\n  jump\t// out\n    /* \"#utility.yul\":6855:7024   */\ntag_52:\n    /* \"#utility.yul\":6899:6905   */\n  0x00\n    /* \"#utility.yul\":6932:6983   */\n  tag_142\n    /* \"#utility.yul\":6980:6981   */\n  0x00\n    /* \"#utility.yul\":6976:6982   */\n  not\n    /* \"#utility.yul\":6968:6973   */\n  dup5\n    /* \"#utility.yul\":6965:6966   */\n  0x08\n    /* \"#utility.yul\":6961:6974   */\n  mul\n    /* \"#utility.yul\":6932:6983   */\n  tag_51\n  jump\t// in\ntag_142:\n    /* \"#utility.yul\":6928:6984   */\n  not\n    /* \"#utility.yul\":7013:7017   */\n  dup1\n    /* \"#utility.yul\":7007:7011   */\n  dup4\n    /* \"#utility.yul\":7003:7018   */\n  and\n    /* \"#utility.yul\":6993:7018   */\n  swap2\n  pop\n    /* \"#utility.yul\":6906:7024   */\n  pop\n    /* \"#utility.yul\":6855:7024   */\n  swap3\n  swap2\n  pop\n  pop\n  jump\t// out\n    /* \"#utility.yul\":7029:7324   */\ntag_53:\n    /* \"#utility.yul\":7105:7109   */\n  0x00\n    /* \"#utility.yul\":7251:7280   */\n  tag_144\n    /* \"#utility.yul\":7276:7279   */\n  dup4\n    /* \"#utility.yul\":7270:7274   */\n  dup4\n    /* \"#utility.yul\":7251:7280   */\n  tag_52\n  jump\t// in\ntag_144:\n    /* \"#utility.yul\":7243:7280   */\n  swap2\n  pop\n    /* \"#utility.yul\":7313:7316   */\n  dup3\n    /* \"#utility.yul\":7310:7311   */\n  0x02\n    /* \"#utility.yul\":7306:7317   */\n  mul\n    /* \"#utility.yul\":7300:7304   */\n  dup3\n    /* \"#utility.yul\":7297:7318   */\n  or\n    /* \"#utility.yul\":7289:7318   */\n  swap1\n  pop\n    /* \"#utility.yul\":7029:7324   */\n  swap3\n  swap2\n  pop\n  pop\n  jump\t// out\n    /* \"#utility.yul\":7329:8724   */\ntag_7:\n    /* \"#utility.yul\":7446:7483   */\n  tag_146\n    /* \"#utility.yul\":7479:7482   */\n  dup3\n    /* \"#utility.yul\":7446:7483   */\n  tag_36\n  jump\t// in\ntag_146:\n    /* \"#utility.yul\":7548:7566   */\n  0xffffffffffffffff\n    /* \"#utility.yul\":7540:7546   */\n  dup2\n    /* \"#utility.yul\":7537:7567   */\n  gt\n    /* \"#utility.yul\":7534:7590   */\n  iszero\n  tag_147\n  jumpi\n    /* \"#utility.yul\":7570:7588   */\n  tag_148\n  tag_29\n  jump\t// in\ntag_148:\n    /* \"#utility.yul\":7534:7590   */\ntag_147:\n    /* \"#utility.yul\":7614:7652   */\n  tag_149\n    /* \"#utility.yul\":7646:7650   */\n  dup3\n    /* \"#utility.yul\":7640:7651   */\n  sload\n    /* \"#utility.yul\":7614:7652   */\n  tag_38\n  jump\t// in\ntag_149:\n    /* \"#utility.yul\":7699:7766   */\n  tag_150\n    /* \"#utility.yul\":7759:7765   */\n  dup3\n    /* \"#utility.yul\":7751:7757   */\n  dup3\n    /* \"#utility.yul\":7745:7749   */\n  dup6\n    /* \"#utility.yul\":7699:7766   */\n  tag_50\n  jump\t// in\ntag_150:\n    /* \"#utility.yul\":7793:7794   */\n  0x00\n    /* \"#utility.yul\":7817:7821   */\n  0x20\n    /* \"#utility.yul\":7804:7821   */\n  swap1\n  pop\n    /* \"#utility.yul\":7849:7851   */\n  0x1f\n    /* \"#utility.yul\":7841:7847   */\n  dup4\n    /* \"#utility.yul\":7838:7852   */\n  gt\n    /* \"#utility.yul\":7866:7867   */\n  0x01\n    /* \"#utility.yul\":7861:8479   */\n  dup2\n  eq\n  tag_152\n  jumpi\n    /* \"#utility.yul\":8523:8524   */\n  0x00\n    /* \"#utility.yul\":8540:8546   */\n  dup5\n    /* \"#utility.yul\":8537:8614   */\n  iszero\n  tag_153\n  jumpi\n    /* \"#utility.yul\":8589:8598   */\n  dup3\n    /* \"#utility.yul\":8584:8587   */\n  dup8\n    /* \"#utility.yul\":8580:8599   */\n  add\n    /* \"#utility.yul\":8574:8600   */\n  mload\n    /* \"#utility.yul\":8565:8600   */\n  swap1\n  pop\n    /* \"#utility.yul\":8537:8614   */\ntag_153:\n    /* \"#utility.yul\":8640:8707   */\n  tag_154\n    /* \"#utility.yul\":8700:8706   */\n  dup6\n    /* \"#utility.yul\":8693:8698   */\n  dup3\n    /* \"#utility.yul\":8640:8707   */\n  tag_53\n  jump\t// in\ntag_154:\n    /* \"#utility.yul\":8634:8638   */\n  dup7\n    /* \"#utility.yul\":8627:8708   */\n  sstore\n    /* \"#utility.yul\":8496:8718   */\n  pop\n    /* \"#utility.yul\":7831:8718   */\n  jump(tag_151)\n    /* \"#utility.yul\":7861:8479   */\ntag_152:\n    /* \"#utility.yul\":7913:7917   */\n  0x1f\n    /* \"#utility.yul\":7909:7918   */\n  not\n    /* \"#utility.yul\":7901:7907   */\n  dup5\n    /* \"#utility.yul\":7897:7919   */\n  and\n    /* \"#utility.yul\":7947:7984   */\n  tag_155\n    /* \"#utility.yul\":7979:7983   */\n  dup7\n    /* \"#utility.yul\":7947:7984   */\n  tag_39\n  jump\t// in\ntag_155:\n    /* \"#utility.yul\":8006:8007   */\n  0x00\n    /* \"#utility.yul\":8020:8228   */\ntag_156:\n    /* \"#utility.yul\":8034:8041   */\n  dup3\n    /* \"#utility.yul\":8031:8032   */\n  dup2\n    /* \"#utility.yul\":8028:8042   */\n  lt\n    /* \"#utility.yul\":8020:8228   */\n  iszero\n  tag_158\n  jumpi\n    /* \"#utility.yul\":8113:8122   */\n  dup5\n    /* \"#utility.yul\":8108:8111   */\n  dup10\n    /* \"#utility.yul\":8104:8123   */\n  add\n    /* \"#utility.yul\":8098:8124   */\n  mload\n    /* \"#utility.yul\":8090:8096   */\n  dup3\n    /* \"#utility.yul\":8083:8125   */\n  sstore\n    /* \"#utility.yul\":8164:8165   */\n  0x01\n    /* \"#utility.yul\":8156:8162   */\n  dup3\n    /* \"#utility.yul\":8152:8166   */\n  add\n    /* \"#utility.yul\":8142:8166   */\n  swap2\n  pop\n    /* \"#utility.yul\":8211:8213   */\n  0x20\n    /* \"#utility.yul\":8200:8209   */\n  dup6\n    /* \"#utility.yul\":8196:8214   */\n  add\n    /* \"#utility.yul\":8183:8214   */\n  swap5\n  pop\n    /* \"#utility.yul\":8057:8061   */\n  0x20\n    /* \"#utility.yul\":8054:8055   */\n  dup2\n    /* \"#utility.yul\":8050:8062   */\n  add\n    /* \"#utility.yul\":8045:8062   */\n  swap1\n  pop\n    /* \"#utility.yul\":8020:8228   */\n  jump(tag_156)\ntag_158:\n    /* \"#utility.yul\":8256:8262   */\n  dup7\n    /* \"#utility.yul\":8247:8254   */\n  dup4\n    /* \"#utility.yul\":8244:8263   */\n  lt\n    /* \"#utility.yul\":8241:8420   */\n  iszero\n  tag_159\n  jumpi\n    /* \"#utility.yul\":8314:8323   */\n  dup5\n    /* \"#utility.yul\":8309:8312   */\n  dup10\n    /* \"#utility.yul\":8305:8324   */\n  add\n    /* \"#utility.yul\":8299:8325   */\n  mload\n    /* \"#utility.yul\":8357:8405   */\n  tag_160\n    /* \"#utility.yul\":8399:8403   */\n  0x1f\n    /* \"#utility.yul\":8391:8397   */\n  dup10\n    /* \"#utility.yul\":8387:8404   */\n  and\n    /* \"#utility.yul\":8376:8385   */\n  dup3\n    /* \"#utility.yul\":8357:8405   */\n  tag_52\n  jump\t// in\ntag_160:\n    /* \"#utility.yul\":8349:8355   */\n  dup4\n    /* \"#utility.yul\":8342:8406   */\n  sstore\n    /* \"#utility.yul\":8264:8420   */\n  pop\n    /* \"#utility.yul\":8241:8420   */\ntag_159:\n    /* \"#utility.yul\":8466:8467   */\n  0x01\n    /* \"#utility.yul\":8462:8463   */\n  0x02\n    /* \"#utility.yul\":8454:8460   */\n  dup9\n    /* \"#utility.yul\":8450:8464   */\n  mul\n    /* \"#utility.yul\":8446:8468   */\n  add\n    /* \"#utility.yul\":8440:8444   */\n  dup9\n    /* \"#utility.yul\":8433:8469   */\n  sstore\n    /* \"#utility.yul\":7868:8479   */\n  pop\n  pop\n  pop\n    /* \"#utility.yul\":7831:8718   */\ntag_151:\n  pop\n    /* \"#utility.yul\":7421:8724   */\n  pop\n  pop\n  pop\n    /* \"#utility.yul\":7329:8724   */\n  pop\n  pop\n  jump\t// out\n    /* \"#utility.yul\":8730:8910   */\ntag_54:\n    /* \"#utility.yul\":8778:8855   */\n  0x4e487b7100000000000000000000000000000000000000000000000000000000\n    /* \"#utility.yul\":8775:8776   */\n  0x00\n    /* \"#utility.yul\":8768:8856   */\n  mstore\n    /* \"#utility.yul\":8875:8879   */\n  0x11\n    /* \"#utility.yul\":8872:8873   */\n  0x04\n    /* \"#utility.yul\":8865:8880   */\n  mstore\n    /* \"#utility.yul\":8899:8903   */\n  0x24\n    /* \"#utility.yul\":8896:8897   */\n  0x00\n    /* \"#utility.yul\":8889:8904   */\n  revert\n    /* \"#utility.yul\":8916:9107   */\ntag_9:\n    /* \"#utility.yul\":8956:8959   */\n  0x00\n    /* \"#utility.yul\":8975:8995   */\n  tag_163\n    /* \"#utility.yul\":8993:8994   */\n  dup3\n    /* \"#utility.yul\":8975:8995   */\n  tag_23\n  jump\t// in\ntag_163:\n    /* \"#utility.yul\":8970:8995   */\n  swap2\n  pop\n    /* \"#utility.yul\":9009:9029   */\n  tag_164\n    /* \"#utility.yul\":9027:9028   */\n  dup4\n    /* \"#utility.yul\":9009:9029   */\n  tag_23\n  jump\t// in\ntag_164:\n    /* \"#utility.yul\":9004:9029   */\n  swap3\n  pop\n    /* \"#utility.yul\":9052:9053   */\n  dup3\n    /* \"#utility.yul\":9049:9050   */\n  dup3\n    /* \"#utility.yul\":9045:9054   */\n  add\n    /* \"#utility.yul\":9038:9054   */\n  swap1\n  pop\n    /* \"#utility.yul\":9073:9076   */\n  dup1\n    /* \"#utility.yul\":9070:9071   */\n  dup3\n    /* \"#utility.yul\":9067:9077   */\n  gt\n    /* \"#utility.yul\":9064:9100   */\n  iszero\n  tag_165\n  jumpi\n    /* \"#utility.yul\":9080:9098   */\n  tag_166\n  tag_54\n  jump\t// in\ntag_166:\n    /* \"#utility.yul\":9064:9100   */\ntag_165:\n    /* \"#utility.yul\":8916:9107   */\n  swap3\n  swap2\n  pop\n  pop\n  jump\t// out\n    /* \"#utility.yul\":9113:9523   */\ntag_11:\n    /* \"#utility.yul\":9153:9160   */\n  0x00\n    /* \"#utility.yul\":9176:9196   */\n  tag_168\n    /* \"#utility.yul\":9194:9195   */\n  dup3\n    /* \"#utility.yul\":9176:9196   */\n  tag_23\n  jump\t// in\ntag_168:\n    /* \"#utility.yul\":9171:9196   */\n  swap2\n  pop\n    /* \"#utility.yul\":9210:9230   */\n  tag_169\n    /* \"#utility.yul\":9228:9229   */\n  dup4\n    /* \"#utility.yul\":9210:9230   */\n  tag_23\n  jump\t// in\ntag_169:\n    /* \"#utility.yul\":9205:9230   */\n  swap3\n  pop\n    /* \"#utility.yul\":9265:9266   */\n  dup3\n    /* \"#utility.yul\":9262:9263   */\n  dup3\n    /* \"#utility.yul\":9258:9267   */\n  mul\n    /* \"#utility.yul\":9287:9317   */\n  tag_170\n    /* \"#utility.yul\":9305:9316   */\n  dup2\n    /* \"#utility.yul\":9287:9317   */\n  tag_23\n  jump\t// in\ntag_170:\n    /* \"#utility.yul\":9276:9317   */\n  swap2\n  pop\n    /* \"#utility.yul\":9466:9467   */\n  dup3\n    /* \"#utility.yul\":9457:9464   */\n  dup3\n    /* \"#utility.yul\":9453:9468   */\n  div\n    /* \"#utility.yul\":9450:9451   */\n  dup5\n    /* \"#utility.yul\":9447:9469   */\n  eq\n    /* \"#utility.yul\":9427:9428   */\n  dup4\n    /* \"#utility.yul\":9420:9429   */\n  iszero\n    /* \"#utility.yul\":9400:9483   */\n  or\n    /* \"#utility.yul\":9377:9516   */\n  tag_171\n  jumpi\n    /* \"#utility.yul\":9496:9514   */\n  tag_172\n  tag_54\n  jump\t// in\ntag_172:\n    /* \"#utility.yul\":9377:9516   */\ntag_171:\n    /* \"#utility.yul\":9161:9523   */\n  pop\n    /* \"#utility.yul\":9113:9523   */\n  swap3\n  swap2\n  pop\n  pop\n  jump\t// out\n    /* \"#utility.yul\":9529:9709   */\ntag_14:\n    /* \"#utility.yul\":9577:9654   */\n  0x4e487b7100000000000000000000000000000000000000000000000000000000\n    /* \"#utility.yul\":9574:9575   */\n  0x00\n    /* \"#utility.yul\":9567:9655   */\n  mstore\n    /* \"#utility.yul\":9674:9678   */\n  0x21\n    /* \"#utility.yul\":9671:9672   */\n  0x04\n    /* \"#utility.yul\":9664:9679   */\n  mstore\n    /* \"#utility.yul\":9698:9702   */\n  0x24\n    /* \"#utility.yul\":9695:9696   */\n  0x00\n    /* \"#utility.yul\":9688:9703   */\n  revert\n    /* \"#utility.yul\":9715:9863   */\ntag_55:\n    /* \"#utility.yul\":9817:9828   */\n  0x00\n    /* \"#utility.yul\":9854:9857   */\n  dup2\n    /* \"#utility.yul\":9839:9857   */\n  swap1\n  pop\n    /* \"#utility.yul\":9715:9863   */\n  swap3\n  swap2\n  pop\n  pop\n  jump\t// out\n    /* \"#utility.yul\":9893:10767   */\ntag_56:\n    /* \"#utility.yul\":9996:9999   */\n  0x00\n    /* \"#utility.yul\":10033:10038   */\n  dup2\n    /* \"#utility.yul\":10027:10039   */\n  sload\n    /* \"#utility.yul\":10062:10098   */\n  tag_176\n    /* \"#utility.yul\":10088:10097   */\n  dup2\n    /* \"#utility.yul\":10062:10098   */\n  tag_38\n  jump\t// in\ntag_176:\n    /* \"#utility.yul\":10114:10203   */\n  tag_177\n    /* \"#utility.yul\":10196:10202   */\n  dup2\n    /* \"#utility.yul\":10191:10194   */\n  dup7\n    /* \"#utility.yul\":10114:10203   */\n  tag_55\n  jump\t// in\ntag_177:\n    /* \"#utility.yul\":10107:10203   */\n  swap5\n  pop\n    /* \"#utility.yul\":10234:10235   */\n  0x01\n    /* \"#utility.yul\":10223:10232   */\n  dup3\n    /* \"#utility.yul\":10219:10236   */\n  and\n    /* \"#utility.yul\":10250:10251   */\n  0x00\n    /* \"#utility.yul\":10245:10411   */\n  dup2\n  eq\n  tag_179\n  jumpi\n    /* \"#utility.yul\":10425:10426   */\n  0x01\n    /* \"#utility.yul\":10420:10761   */\n  dup2\n  eq\n  tag_180\n  jumpi\n    /* \"#utility.yul\":10212:10761   */\n  jump(tag_178)\n    /* \"#utility.yul\":10245:10411   */\ntag_179:\n    /* \"#utility.yul\":10329:10333   */\n  0xff\n    /* \"#utility.yul\":10325:10334   */\n  not\n    /* \"#utility.yul\":10314:10323   */\n  dup4\n    /* \"#utility.yul\":10310:10335   */\n  and\n    /* \"#utility.yul\":10305:10308   */\n  dup7\n    /* \"#utility.yul\":10298:10336   */\n  mstore\n    /* \"#utility.yul\":10391:10397   */\n  dup2\n    /* \"#utility.yul\":10384:10398   */\n  iszero\n    /* \"#utility.yul\":10377:10399   */\n  iszero\n    /* \"#utility.yul\":10369:10375   */\n  dup3\n    /* \"#utility.yul\":10365:10400   */\n  mul\n    /* \"#utility.yul\":10360:10363   */\n  dup7\n    /* \"#utility.yul\":10356:10401   */\n  add\n    /* \"#utility.yul\":10349:10401   */\n  swap4\n  pop\n    /* \"#utility.yul\":10245:10411   */\n  jump(tag_178)\n    /* \"#utility.yul\":10420:10761   */\ntag_180:\n    /* \"#utility.yul\":10487:10525   */\n  tag_181\n    /* \"#utility.yul\":10519:10524   */\n  dup6\n    /* \"#utility.yul\":10487:10525   */\n  tag_39\n  jump\t// in\ntag_181:\n    /* \"#utility.yul\":10547:10548   */\n  0x00\n    /* \"#utility.yul\":10561:10715   */\ntag_182:\n    /* \"#utility.yul\":10575:10581   */\n  dup4\n    /* \"#utility.yul\":10572:10573   */\n  dup2\n    /* \"#utility.yul\":10569:10582   */\n  lt\n    /* \"#utility.yul\":10561:10715   */\n  iszero\n  tag_184\n  jumpi\n    /* \"#utility.yul\":10649:10656   */\n  dup2\n    /* \"#utility.yul\":10643:10657   */\n  sload\n    /* \"#utility.yul\":10639:10640   */\n  dup2\n    /* \"#utility.yul\":10634:10637   */\n  dup10\n    /* \"#utility.yul\":10630:10641   */\n  add\n    /* \"#utility.yul\":10623:10658   */\n  mstore\n    /* \"#utility.yul\":10699:10700   */\n  0x01\n    /* \"#utility.yul\":10690:10697   */\n  dup3\n    /* \"#utility.yul\":10686:10701   */\n  add\n    /* \"#utility.yul\":10675:10701   */\n  swap2\n  pop\n    /* \"#utility.yul\":10597:10601   */\n  0x20\n    /* \"#utility.yul\":10594:10595   */\n  dup2\n    /* \"#utility.yul\":10590:10602   */\n  add\n    /* \"#utility.yul\":10585:10602   */\n  swap1\n  pop\n    /* \"#utility.yul\":10561:10715   */\n  jump(tag_182)\ntag_184:\n    /* \"#utility.yul\":10744:10750   */\n  dup4\n    /* \"#utility.yul\":10739:10742   */\n  dup9\n    /* \"#utility.yul\":10735:10751   */\n  add\n    /* \"#utility.yul\":10728:10751   */\n  swap6\n  pop\n    /* \"#utility.yul\":10427:10761   */\n  pop\n  pop\n    /* \"#utility.yul\":10212:10761   */\ntag_178:\n  pop\n    /* \"#utility.yul\":10000:10767   */\n  pop\n  pop\n    /* \"#utility.yul\":9893:10767   */\n  swap3\n  swap2\n  pop\n  pop\n  jump\t// out\n    /* \"#utility.yul\":10773:11042   */\ntag_16:\n    /* \"#utility.yul\":10902:10905   */\n  0x00\n    /* \"#utility.yul\":10924:11016   */\n  tag_186\n    /* \"#utility.yul\":11012:11015   */\n  dup3\n    /* \"#utility.yul\":11003:11009   */\n  dup5\n    /* \"#utility.yul\":10924:11016   */\n  tag_56\n  jump\t// in\ntag_186:\n    /* \"#utility.yul\":10917:11016   */\n  swap2\n  pop\n    /* \"#utility.yul\":11033:11036   */\n  dup2\n    /* \"#utility.yul\":11026:11036   */\n  swap1\n  pop\n    /* \"#utility.yul\":10773:11042   */\n  swap3\n  swap2\n  pop\n  pop\n  jump\t// out\n    /* \"#utility.yul\":11048:11166   */\ntag_57:\n    /* \"#utility.yul\":11135:11159   */\n  tag_188\n    /* \"#utility.yul\":11153:11158   */\n  dup2\n    /* \"#utility.yul\":11135:11159   */\n  tag_23\n  jump\t// in\ntag_188:\n    /* \"#utility.yul\":11130:11133   */\n  dup3\n    /* \"#utility.yul\":11123:11160   */\n  mstore\n    /* \"#utility.yul\":11048:11166   */\n  pop\n  pop\n  jump\t// out\n    /* \"#utility.yul\":11172:11394   */\ntag_18:\n    /* \"#utility.yul\":11265:11269   */\n  0x00\n    /* \"#utility.yul\":11303:11305   */\n  0x20\n    /* \"#utility.yul\":11292:11301   */\n  dup3\n    /* \"#utility.yul\":11288:11306   */\n  add\n    /* \"#utility.yul\":11280:11306   */\n  swap1\n  pop\n    /* \"#utility.yul\":11316:11387   */\n  tag_190\n    /* \"#utility.yul\":11384:11385   */\n  0x00\n    /* \"#utility.yul\":11373:11382   */\n  dup4\n    /* \"#utility.yul\":11369:11386   */\n  add\n    /* \"#utility.yul\":11360:11366   */\n  dup5\n    /* \"#utility.yul\":11316:11387   */\n  tag_57\n  jump\t// in\ntag_190:\n    /* \"#utility.yul\":11172:11394   */\n  swap3\n  swap2\n  pop\n  pop\n  jump\t// out\n    /* \"tp2/auction.sol\":255:7548  contract Auction {... */\ntag_19:\n  dataSize(sub_0)\n  dup1\n  dataOffset(sub_0)\n  0x00\n  codecopy\n  0x00\n  return\nstop\n\nsub_0: assembly {\n        /* \"tp2/auction.sol\":255:7548  contract Auction {... */\n      mstore(0x40, 0x80)\n      jumpi(tag_1, lt(calldatasize, 0x04))\n      shr(0xe0, calldataload(0x00))\n      dup1\n      0x14d2687c\n      eq\n      tag_2\n      jumpi\n      dup1\n      0x1998aeef\n      eq\n      tag_3\n      jumpi\n      dup1\n      0x43d726d6\n      eq\n      tag_4\n      jumpi\n      dup1\n      0xb7e03264\n      eq\n      tag_5\n      jumpi\n      dup1\n      0xd4e93292\n      eq\n      tag_6\n      jumpi\n    tag_1:\n      0x00\n      dup1\n      revert\n        /* \"tp2/auction.sol\":6518:6791  function showBids() external view atStage(Stage.TakingBid) returns (Bid [] memory){... */\n    tag_2:\n      callvalue\n      dup1\n      iszero\n      tag_7\n      jumpi\n      0x00\n      dup1\n      revert\n    tag_7:\n      pop\n      tag_8\n      tag_9\n      jump\t// in\n    tag_8:\n      mload(0x40)\n      tag_10\n      swap2\n      swap1\n      tag_11\n      jump\t// in\n    tag_10:\n      mload(0x40)\n      dup1\n      swap2\n      sub\n      swap1\n      return\n        /* \"tp2/auction.sol\":3772:4587  function bid() external payable timedTransitions atStage(Stage.TakingBid)  {... */\n    tag_3:\n      tag_12\n      tag_13\n      jump\t// in\n    tag_12:\n      stop\n        /* \"tp2/auction.sol\":5345:6030  function close() external timedTransitions only(Rol.Admin) atStage(Stage.Finished) {... */\n    tag_4:\n      callvalue\n      dup1\n      iszero\n      tag_14\n      jumpi\n      0x00\n      dup1\n      revert\n    tag_14:\n      pop\n      tag_15\n      tag_16\n      jump\t// in\n    tag_15:\n      stop\n        /* \"tp2/auction.sol\":6267:6508  function showWinner() external timedTransitions atStage(Stage.Finished)  returns (address winner, uint amount){... */\n    tag_5:\n      callvalue\n      dup1\n      iszero\n      tag_17\n      jumpi\n      0x00\n      dup1\n      revert\n    tag_17:\n      pop\n      tag_18\n      tag_19\n      jump\t// in\n    tag_18:\n      mload(0x40)\n      tag_20\n      swap3\n      swap2\n      swap1\n      tag_21\n      jump\t// in\n    tag_20:\n      mload(0x40)\n      dup1\n      swap2\n      sub\n      swap1\n      return\n        /* \"tp2/auction.sol\":4787:5173  function withdrawal() external timedTransitions only(Rol.Bidder) atStage(Stage.TakingBid)  {... */\n    tag_6:\n      callvalue\n      dup1\n      iszero\n      tag_22\n      jumpi\n      0x00\n      dup1\n      revert\n    tag_22:\n      pop\n      tag_23\n      tag_24\n      jump\t// in\n    tag_23:\n      stop\n        /* \"tp2/auction.sol\":6518:6791  function showBids() external view atStage(Stage.TakingBid) returns (Bid [] memory){... */\n    tag_9:\n        /* \"tp2/auction.sol\":6586:6599  Bid [] memory */\n      0x60\n        /* \"tp2/auction.sol\":6560:6575  Stage.TakingBid */\n      0x00\n        /* \"tp2/auction.sol\":7229:7235  _stage */\n      dup1\n        /* \"tp2/auction.sol\":7220:7235  stage != _stage */\n      0x01\n      dup2\n      gt\n      iszero\n      tag_26\n      jumpi\n      tag_27\n      tag_28\n      jump\t// in\n    tag_27:\n    tag_26:\n        /* \"tp2/auction.sol\":7220:7225  stage */\n      0x01\n      0x00\n      swap1\n      sload\n      swap1\n      0x0100\n      exp\n      swap1\n      div\n      0xff\n      and\n        /* \"tp2/auction.sol\":7220:7235  stage != _stage */\n      0x01\n      dup2\n      gt\n      iszero\n      tag_29\n      jumpi\n      tag_30\n      tag_28\n      jump\t// in\n    tag_30:\n    tag_29:\n      eq\n        /* \"tp2/auction.sol\":7216:7280  if (stage != _stage)... */\n      tag_31\n      jumpi\n        /* \"tp2/auction.sol\":7274:7279  stage */\n      0x01\n      0x00\n      swap1\n      sload\n      swap1\n      0x0100\n      exp\n      swap1\n      div\n      0xff\n      and\n        /* \"tp2/auction.sol\":7256:7280  NotAllowedAtStage(stage) */\n      mload(0x40)\n      0xf1c25c2000000000000000000000000000000000000000000000000000000000\n      dup2\n      mstore\n      0x04\n      add\n      tag_32\n      swap2\n      swap1\n      tag_33\n      jump\t// in\n    tag_32:\n      mload(0x40)\n      dup1\n      swap2\n      sub\n      swap1\n      revert\n        /* \"tp2/auction.sol\":7216:7280  if (stage != _stage)... */\n    tag_31:\n        /* \"tp2/auction.sol\":6610:6628  Bid [] memory bids */\n      0x00\n        /* \"tp2/auction.sol\":6644:6651  bidders */\n      0x09\n        /* \"tp2/auction.sol\":6644:6658  bidders.length */\n      dup1\n      sload\n      swap1\n      pop\n        /* \"tp2/auction.sol\":6633:6659  new Bid [](bidders.length) */\n      0xffffffffffffffff\n      dup2\n      gt\n      iszero\n      tag_35\n      jumpi\n      tag_36\n      tag_37\n      jump\t// in\n    tag_36:\n    tag_35:\n      mload(0x40)\n      swap1\n      dup1\n      dup3\n      mstore\n      dup1\n      0x20\n      mul\n      0x20\n      add\n      dup3\n      add\n      0x40\n      mstore\n      dup1\n      iszero\n      tag_38\n      jumpi\n      dup2\n      0x20\n      add\n    tag_39:\n      tag_40\n      tag_41\n      jump\t// in\n    tag_40:\n      dup2\n      mstore\n      0x20\n      add\n      swap1\n      0x01\n      swap1\n      sub\n      swap1\n      dup2\n      tag_39\n      jumpi\n      swap1\n      pop\n    tag_38:\n      pop\n        /* \"tp2/auction.sol\":6610:6659  Bid [] memory bids   = new Bid [](bidders.length) */\n      swap1\n      pop\n        /* \"tp2/auction.sol\":6673:6679  uint i */\n      0x00\n        /* \"tp2/auction.sol\":6669:6764  for(uint i = 0; i < bidders.length; i++){... */\n    tag_42:\n        /* \"tp2/auction.sol\":6689:6696  bidders */\n      0x09\n        /* \"tp2/auction.sol\":6689:6703  bidders.length */\n      dup1\n      sload\n      swap1\n      pop\n        /* \"tp2/auction.sol\":6685:6686  i */\n      dup2\n        /* \"tp2/auction.sol\":6685:6703  i < bidders.length */\n      lt\n        /* \"tp2/auction.sol\":6669:6764  for(uint i = 0; i < bidders.length; i++){... */\n      iszero\n      tag_43\n      jumpi\n        /* \"tp2/auction.sol\":6733:6741  balances */\n      0x0a\n        /* \"tp2/auction.sol\":6733:6753  balances[bidders[i]] */\n      0x00\n        /* \"tp2/auction.sol\":6742:6749  bidders */\n      0x09\n        /* \"tp2/auction.sol\":6750:6751  i */\n      dup4\n        /* \"tp2/auction.sol\":6742:6752  bidders[i] */\n      dup2\n      sload\n      dup2\n      lt\n      tag_45\n      jumpi\n      tag_46\n      tag_47\n      jump\t// in\n    tag_46:\n    tag_45:\n      swap1\n      0x00\n      mstore\n      keccak256(0x00, 0x20)\n      add\n      0x00\n      swap1\n      sload\n      swap1\n      0x0100\n      exp\n      swap1\n      div\n      0xffffffffffffffffffffffffffffffffffffffff\n      and\n        /* \"tp2/auction.sol\":6733:6753  balances[bidders[i]] */\n      0xffffffffffffffffffffffffffffffffffffffff\n      and\n      0xffffffffffffffffffffffffffffffffffffffff\n      and\n      dup2\n      mstore\n      0x20\n      add\n      swap1\n      dup2\n      mstore\n      0x20\n      add\n      0x00\n      keccak256\n        /* \"tp2/auction.sol\":6723:6753  bids[i] = balances[bidders[i]] */\n      mload(0x40)\n      dup1\n      0xa0\n      add\n      0x40\n      mstore\n      swap1\n      dup2\n      0x00\n      dup3\n      add\n      0x00\n      swap1\n      sload\n      swap1\n      0x0100\n      exp\n      swap1\n      div\n      0xff\n      and\n      iszero\n      iszero\n      iszero\n      iszero\n      dup2\n      mstore\n      0x20\n      add\n      0x01\n      dup3\n      add\n      sload\n      dup2\n      mstore\n      0x20\n      add\n      0x02\n      dup3\n      add\n      sload\n      dup2\n      mstore\n      0x20\n      add\n      0x03\n      dup3\n      add\n      sload\n      dup2\n      mstore\n      0x20\n      add\n      0x04\n      dup3\n      add\n      0x00\n      swap1\n      sload\n      swap1\n      0x0100\n      exp\n      swap1\n      div\n      0xffffffffffffffffffffffffffffffffffffffff\n      and\n      0xffffffffffffffffffffffffffffffffffffffff\n      and\n      0xffffffffffffffffffffffffffffffffffffffff\n      and\n      dup2\n      mstore\n      pop\n      pop\n        /* \"tp2/auction.sol\":6723:6727  bids */\n      dup3\n        /* \"tp2/auction.sol\":6728:6729  i */\n      dup3\n        /* \"tp2/auction.sol\":6723:6730  bids[i] */\n      dup2\n      mload\n      dup2\n      lt\n      tag_49\n      jumpi\n      tag_50\n      tag_47\n      jump\t// in\n    tag_50:\n    tag_49:\n      0x20\n      mul\n      0x20\n      add\n      add\n        /* \"tp2/auction.sol\":6723:6753  bids[i] = balances[bidders[i]] */\n      dup2\n      swap1\n      mstore\n      pop\n        /* \"tp2/auction.sol\":6705:6708  i++ */\n      dup1\n      dup1\n      0x01\n      add\n      swap2\n      pop\n      pop\n        /* \"tp2/auction.sol\":6669:6764  for(uint i = 0; i < bidders.length; i++){... */\n      jump(tag_42)\n    tag_43:\n      pop\n        /* \"tp2/auction.sol\":6780:6784  bids */\n      dup1\n        /* \"tp2/auction.sol\":6773:6784  return bids */\n      swap3\n      pop\n      pop\n        /* \"tp2/auction.sol\":6518:6791  function showBids() external view atStage(Stage.TakingBid) returns (Bid [] memory){... */\n      pop\n      swap1\n      jump\t// out\n        /* \"tp2/auction.sol\":3772:4587  function bid() external payable timedTransitions atStage(Stage.TakingBid)  {... */\n    tag_13:\n        /* \"tp2/auction.sol\":7342:7352  uint limit */\n      0x00\n        /* \"tp2/auction.sol\":7373:7387  completionTime */\n      dup1\n      sload\n        /* \"tp2/auction.sol\":7355:7370  block.timestamp */\n      timestamp\n        /* \"tp2/auction.sol\":7355:7387  block.timestamp < completionTime */\n      lt\n        /* \"tp2/auction.sol\":7355:7437  block.timestamp < completionTime ? completionTime : lastBid.timestamp + 10 minutes */\n      tag_52\n      jumpi\n        /* \"tp2/auction.sol\":7427:7437  10 minutes */\n      0x0258\n        /* \"tp2/auction.sol\":7407:7414  lastBid */\n      0x02\n        /* \"tp2/auction.sol\":7407:7424  lastBid.timestamp */\n      0x01\n      add\n      sload\n        /* \"tp2/auction.sol\":7407:7437  lastBid.timestamp + 10 minutes */\n      tag_53\n      swap2\n      swap1\n      tag_54\n      jump\t// in\n    tag_53:\n        /* \"tp2/auction.sol\":7355:7437  block.timestamp < completionTime ? completionTime : lastBid.timestamp + 10 minutes */\n      jump(tag_55)\n    tag_52:\n        /* \"tp2/auction.sol\":7390:7404  completionTime */\n      sload(0x00)\n        /* \"tp2/auction.sol\":7355:7437  block.timestamp < completionTime ? completionTime : lastBid.timestamp + 10 minutes */\n    tag_55:\n        /* \"tp2/auction.sol\":7342:7437  uint limit = block.timestamp < completionTime ? completionTime : lastBid.timestamp + 10 minutes */\n      swap1\n      pop\n        /* \"tp2/auction.sol\":7460:7475  Stage.TakingBid */\n      0x00\n        /* \"tp2/auction.sol\":7451:7475  stage == Stage.TakingBid */\n      0x01\n      dup2\n      gt\n      iszero\n      tag_56\n      jumpi\n      tag_57\n      tag_28\n      jump\t// in\n    tag_57:\n    tag_56:\n        /* \"tp2/auction.sol\":7451:7456  stage */\n      0x01\n      0x00\n      swap1\n      sload\n      swap1\n      0x0100\n      exp\n      swap1\n      div\n      0xff\n      and\n        /* \"tp2/auction.sol\":7451:7475  stage == Stage.TakingBid */\n      0x01\n      dup2\n      gt\n      iszero\n      tag_58\n      jumpi\n      tag_59\n      tag_28\n      jump\t// in\n    tag_59:\n    tag_58:\n      eq\n        /* \"tp2/auction.sol\":7451:7502  stage == Stage.TakingBid && block.timestamp > limit */\n      dup1\n      iszero\n      tag_60\n      jumpi\n      pop\n        /* \"tp2/auction.sol\":7497:7502  limit */\n      dup1\n        /* \"tp2/auction.sol\":7479:7494  block.timestamp */\n      timestamp\n        /* \"tp2/auction.sol\":7479:7502  block.timestamp > limit */\n      gt\n        /* \"tp2/auction.sol\":7451:7502  stage == Stage.TakingBid && block.timestamp > limit */\n    tag_60:\n        /* \"tp2/auction.sol\":7447:7527  if (stage == Stage.TakingBid && block.timestamp > limit)... */\n      iszero\n      tag_61\n      jumpi\n        /* \"tp2/auction.sol\":7516:7527  nextStage() */\n      tag_62\n        /* \"tp2/auction.sol\":7516:7525  nextStage */\n      tag_63\n        /* \"tp2/auction.sol\":7516:7527  nextStage() */\n      jump\t// in\n    tag_62:\n        /* \"tp2/auction.sol\":7447:7527  if (stage == Stage.TakingBid && block.timestamp > limit)... */\n    tag_61:\n        /* \"tp2/auction.sol\":3829:3844  Stage.TakingBid */\n      0x00\n        /* \"tp2/auction.sol\":7229:7235  _stage */\n      dup1\n        /* \"tp2/auction.sol\":7220:7235  stage != _stage */\n      0x01\n      dup2\n      gt\n      iszero\n      tag_65\n      jumpi\n      tag_66\n      tag_28\n      jump\t// in\n    tag_66:\n    tag_65:\n        /* \"tp2/auction.sol\":7220:7225  stage */\n      0x01\n      0x00\n      swap1\n      sload\n      swap1\n      0x0100\n      exp\n      swap1\n      div\n      0xff\n      and\n        /* \"tp2/auction.sol\":7220:7235  stage != _stage */\n      0x01\n      dup2\n      gt\n      iszero\n      tag_67\n      jumpi\n      tag_68\n      tag_28\n      jump\t// in\n    tag_68:\n    tag_67:\n      eq\n        /* \"tp2/auction.sol\":7216:7280  if (stage != _stage)... */\n      tag_69\n      jumpi\n        /* \"tp2/auction.sol\":7274:7279  stage */\n      0x01\n      0x00\n      swap1\n      sload\n      swap1\n      0x0100\n      exp\n      swap1\n      div\n      0xff\n      and\n        /* \"tp2/auction.sol\":7256:7280  NotAllowedAtStage(stage) */\n      mload(0x40)\n      0xf1c25c2000000000000000000000000000000000000000000000000000000000\n      dup2\n      mstore\n      0x04\n      add\n      tag_70\n      swap2\n      swap1\n      tag_33\n      jump\t// in\n    tag_70:\n      mload(0x40)\n      dup1\n      swap2\n      sub\n      swap1\n      revert\n        /* \"tp2/auction.sol\":7216:7280  if (stage != _stage)... */\n    tag_69:\n        /* \"tp2/auction.sol\":3915:3918  100 */\n      0x64\n        /* \"tp2/auction.sol\":3910:3911  5 */\n      0x05\n        /* \"tp2/auction.sol\":3893:3900  lastBid */\n      0x02\n        /* \"tp2/auction.sol\":3893:3907  lastBid.amount */\n      0x03\n      add\n      sload\n        /* \"tp2/auction.sol\":3893:3911  lastBid.amount * 5 */\n      tag_72\n      swap2\n      swap1\n      tag_73\n      jump\t// in\n    tag_72:\n        /* \"tp2/auction.sol\":3892:3918  (lastBid.amount * 5) / 100 */\n      tag_74\n      swap2\n      swap1\n      tag_75\n      jump\t// in\n    tag_74:\n        /* \"tp2/auction.sol\":3874:3881  lastBid */\n      0x02\n        /* \"tp2/auction.sol\":3874:3888  lastBid.amount */\n      0x03\n      add\n      sload\n        /* \"tp2/auction.sol\":3874:3919  lastBid.amount + ((lastBid.amount * 5) / 100) */\n      tag_76\n      swap2\n      swap1\n      tag_54\n      jump\t// in\n    tag_76:\n        /* \"tp2/auction.sol\":3860:3869  msg.value */\n      callvalue\n        /* \"tp2/auction.sol\":3860:3920  msg.value <= (lastBid.amount + ((lastBid.amount * 5) / 100)) */\n      gt\n        /* \"tp2/auction.sol\":3857:4008  if(msg.value <= (lastBid.amount + ((lastBid.amount * 5) / 100)))... */\n      tag_77\n      jumpi\n        /* \"tp2/auction.sol\":3941:4008  NotEnoughHigh(\"A valid bid must be 5 % greater than the last bid.\") */\n      mload(0x40)\n      0x1410d82200000000000000000000000000000000000000000000000000000000\n      dup2\n      mstore\n      0x04\n      add\n      tag_78\n      swap1\n      tag_79\n      jump\t// in\n    tag_78:\n      mload(0x40)\n      dup1\n      swap2\n      sub\n      swap1\n      revert\n        /* \"tp2/auction.sol\":3857:4008  if(msg.value <= (lastBid.amount + ((lastBid.amount * 5) / 100)))... */\n    tag_77:\n        /* \"tp2/auction.sol\":4023:4031  balances */\n      0x0a\n        /* \"tp2/auction.sol\":4023:4043  balances[msg.sender] */\n      0x00\n        /* \"tp2/auction.sol\":4032:4042  msg.sender */\n      caller\n        /* \"tp2/auction.sol\":4023:4043  balances[msg.sender] */\n      0xffffffffffffffffffffffffffffffffffffffff\n      and\n      0xffffffffffffffffffffffffffffffffffffffff\n      and\n      dup2\n      mstore\n      0x20\n      add\n      swap1\n      dup2\n      mstore\n      0x20\n      add\n      0x00\n      keccak256\n        /* \"tp2/auction.sol\":4023:4050  balances[msg.sender].exists */\n      0x00\n      add\n      0x00\n      swap1\n      sload\n      swap1\n      0x0100\n      exp\n      swap1\n      div\n      0xff\n      and\n        /* \"tp2/auction.sol\":4019:4088  if(!balances[msg.sender].exists)... */\n      tag_80\n      jumpi\n        /* \"tp2/auction.sol\":4064:4071  bidders */\n      0x09\n        /* \"tp2/auction.sol\":4077:4087  msg.sender */\n      caller\n        /* \"tp2/auction.sol\":4064:4088  bidders.push(msg.sender) */\n      swap1\n      dup1\n      0x01\n      dup2\n      sload\n      add\n      dup1\n      dup3\n      sstore\n      dup1\n      swap2\n      pop\n      pop\n      0x01\n      swap1\n      sub\n      swap1\n      0x00\n      mstore\n      keccak256(0x00, 0x20)\n      add\n      0x00\n      swap1\n      swap2\n      swap1\n      swap2\n      swap1\n      swap2\n      0x0100\n      exp\n      dup2\n      sload\n      dup2\n      0xffffffffffffffffffffffffffffffffffffffff\n      mul\n      not\n      and\n      swap1\n      dup4\n      0xffffffffffffffffffffffffffffffffffffffff\n      and\n      mul\n      or\n      swap1\n      sstore\n      pop\n        /* \"tp2/auction.sol\":4019:4088  if(!balances[msg.sender].exists)... */\n    tag_80:\n        /* \"tp2/auction.sol\":4122:4131  msg.value */\n      callvalue\n        /* \"tp2/auction.sol\":4099:4106  lastBid */\n      0x02\n        /* \"tp2/auction.sol\":4099:4118  lastBid.accumulated */\n      dup1\n      add\n      0x00\n        /* \"tp2/auction.sol\":4099:4131  lastBid.accumulated += msg.value */\n      dup3\n      dup3\n      sload\n      tag_82\n      swap2\n      swap1\n      tag_54\n      jump\t// in\n    tag_82:\n      swap3\n      pop\n      pop\n      dup2\n      swap1\n      sstore\n      pop\n        /* \"tp2/auction.sol\":4158:4167  msg.value */\n      callvalue\n        /* \"tp2/auction.sol\":4141:4148  lastBid */\n      0x02\n        /* \"tp2/auction.sol\":4141:4155  lastBid.amount */\n      0x03\n      add\n        /* \"tp2/auction.sol\":4141:4167  lastBid.amount = msg.value */\n      dup2\n      swap1\n      sstore\n      pop\n        /* \"tp2/auction.sol\":4193:4203  msg.sender */\n      caller\n        /* \"tp2/auction.sol\":4177:4184  lastBid */\n      0x02\n        /* \"tp2/auction.sol\":4177:4190  lastBid.owner */\n      0x04\n      add\n      0x00\n        /* \"tp2/auction.sol\":4177:4203  lastBid.owner = msg.sender */\n      0x0100\n      exp\n      dup2\n      sload\n      dup2\n      0xffffffffffffffffffffffffffffffffffffffff\n      mul\n      not\n      and\n      swap1\n      dup4\n      0xffffffffffffffffffffffffffffffffffffffff\n      and\n      mul\n      or\n      swap1\n      sstore\n      pop\n        /* \"tp2/auction.sol\":4230:4234  true */\n      0x01\n        /* \"tp2/auction.sol\":4213:4220  lastBid */\n      0x02\n        /* \"tp2/auction.sol\":4213:4227  lastBid.exists */\n      0x00\n      add\n      0x00\n        /* \"tp2/auction.sol\":4213:4234  lastBid.exists = true */\n      0x0100\n      exp\n      dup2\n      sload\n      dup2\n      0xff\n      mul\n      not\n      and\n      swap1\n      dup4\n      iszero\n      iszero\n      mul\n      or\n      swap1\n      sstore\n      pop\n        /* \"tp2/auction.sol\":4264:4279  block.timestamp */\n      timestamp\n        /* \"tp2/auction.sol\":4244:4251  lastBid */\n      0x02\n        /* \"tp2/auction.sol\":4244:4261  lastBid.timestamp */\n      0x01\n      add\n        /* \"tp2/auction.sol\":4244:4279  lastBid.timestamp = block.timestamp */\n      dup2\n      swap1\n      sstore\n      pop\n        /* \"tp2/auction.sol\":4326:4335  msg.value */\n      callvalue\n        /* \"tp2/auction.sol\":4290:4298  balances */\n      0x0a\n        /* \"tp2/auction.sol\":4290:4310  balances[msg.sender] */\n      0x00\n        /* \"tp2/auction.sol\":4299:4309  msg.sender */\n      caller\n        /* \"tp2/auction.sol\":4290:4310  balances[msg.sender] */\n      0xffffffffffffffffffffffffffffffffffffffff\n      and\n      0xffffffffffffffffffffffffffffffffffffffff\n      and\n      dup2\n      mstore\n      0x20\n      add\n      swap1\n      dup2\n      mstore\n      0x20\n      add\n      0x00\n      keccak256\n        /* \"tp2/auction.sol\":4290:4322  balances[msg.sender].accumulated */\n      0x02\n      add\n      0x00\n        /* \"tp2/auction.sol\":4290:4335  balances[msg.sender].accumulated += msg.value */\n      dup3\n      dup3\n      sload\n      tag_83\n      swap2\n      swap1\n      tag_54\n      jump\t// in\n    tag_83:\n      swap3\n      pop\n      pop\n      dup2\n      swap1\n      sstore\n      pop\n        /* \"tp2/auction.sol\":4375:4384  msg.value */\n      callvalue\n        /* \"tp2/auction.sol\":4345:4353  balances */\n      0x0a\n        /* \"tp2/auction.sol\":4345:4365  balances[msg.sender] */\n      0x00\n        /* \"tp2/auction.sol\":4354:4364  msg.sender */\n      caller\n        /* \"tp2/auction.sol\":4345:4365  balances[msg.sender] */\n      0xffffffffffffffffffffffffffffffffffffffff\n      and\n      0xffffffffffffffffffffffffffffffffffffffff\n      and\n      dup2\n      mstore\n      0x20\n      add\n      swap1\n      dup2\n      mstore\n      0x20\n      add\n      0x00\n      keccak256\n        /* \"tp2/auction.sol\":4345:4372  balances[msg.sender].amount */\n      0x03\n      add\n        /* \"tp2/auction.sol\":4345:4384  balances[msg.sender].amount = msg.value */\n      dup2\n      swap1\n      sstore\n      pop\n        /* \"tp2/auction.sol\":4423:4433  msg.sender */\n      caller\n        /* \"tp2/auction.sol\":4394:4402  balances */\n      0x0a\n        /* \"tp2/auction.sol\":4394:4414  balances[msg.sender] */\n      0x00\n        /* \"tp2/auction.sol\":4403:4413  msg.sender */\n      caller\n        /* \"tp2/auction.sol\":4394:4414  balances[msg.sender] */\n      0xffffffffffffffffffffffffffffffffffffffff\n      and\n      0xffffffffffffffffffffffffffffffffffffffff\n      and\n      dup2\n      mstore\n      0x20\n      add\n      swap1\n      dup2\n      mstore\n      0x20\n      add\n      0x00\n      keccak256\n        /* \"tp2/auction.sol\":4394:4420  balances[msg.sender].owner */\n      0x04\n      add\n      0x00\n        /* \"tp2/auction.sol\":4394:4433  balances[msg.sender].owner = msg.sender */\n      0x0100\n      exp\n      dup2\n      sload\n      dup2\n      0xffffffffffffffffffffffffffffffffffffffff\n      mul\n      not\n      and\n      swap1\n      dup4\n      0xffffffffffffffffffffffffffffffffffffffff\n      and\n      mul\n      or\n      swap1\n      sstore\n      pop\n        /* \"tp2/auction.sol\":4473:4477  true */\n      0x01\n        /* \"tp2/auction.sol\":4443:4451  balances */\n      0x0a\n        /* \"tp2/auction.sol\":4443:4463  balances[msg.sender] */\n      0x00\n        /* \"tp2/auction.sol\":4452:4462  msg.sender */\n      caller\n        /* \"tp2/auction.sol\":4443:4463  balances[msg.sender] */\n      0xffffffffffffffffffffffffffffffffffffffff\n      and\n      0xffffffffffffffffffffffffffffffffffffffff\n      and\n      dup2\n      mstore\n      0x20\n      add\n      swap1\n      dup2\n      mstore\n      0x20\n      add\n      0x00\n      keccak256\n        /* \"tp2/auction.sol\":4443:4470  balances[msg.sender].exists */\n      0x00\n      add\n      0x00\n        /* \"tp2/auction.sol\":4443:4477  balances[msg.sender].exists = true */\n      0x0100\n      exp\n      dup2\n      sload\n      dup2\n      0xff\n      mul\n      not\n      and\n      swap1\n      dup4\n      iszero\n      iszero\n      mul\n      or\n      swap1\n      sstore\n      pop\n        /* \"tp2/auction.sol\":4520:4535  block.timestamp */\n      timestamp\n        /* \"tp2/auction.sol\":4487:4495  balances */\n      0x0a\n        /* \"tp2/auction.sol\":4487:4507  balances[msg.sender] */\n      0x00\n        /* \"tp2/auction.sol\":4496:4506  msg.sender */\n      caller\n        /* \"tp2/auction.sol\":4487:4507  balances[msg.sender] */\n      0xffffffffffffffffffffffffffffffffffffffff\n      and\n      0xffffffffffffffffffffffffffffffffffffffff\n      and\n      dup2\n      mstore\n      0x20\n      add\n      swap1\n      dup2\n      mstore\n      0x20\n      add\n      0x00\n      keccak256\n        /* \"tp2/auction.sol\":4487:4517  balances[msg.sender].timestamp */\n      0x01\n      add\n        /* \"tp2/auction.sol\":4487:4535  balances[msg.sender].timestamp = block.timestamp */\n      dup2\n      swap1\n      sstore\n      pop\n        /* \"tp2/auction.sol\":4558:4568  msg.sender */\n      caller\n        /* \"tp2/auction.sol\":4551:4580  NewBid(msg.sender, msg.value) */\n      0xffffffffffffffffffffffffffffffffffffffff\n      and\n      0xdd0b6c6a77960e2066c96171b4d7ac9e8b4c184011f38544afa36a5bb63ec59f\n        /* \"tp2/auction.sol\":4570:4579  msg.value */\n      callvalue\n        /* \"tp2/auction.sol\":4551:4580  NewBid(msg.sender, msg.value) */\n      mload(0x40)\n      tag_84\n      swap2\n      swap1\n      tag_85\n      jump\t// in\n    tag_84:\n      mload(0x40)\n      dup1\n      swap2\n      sub\n      swap1\n      log2\n        /* \"tp2/auction.sol\":7537:7538  _ */\n      pop\n        /* \"tp2/auction.sol\":7332:7545  {... */\n      pop\n        /* \"tp2/auction.sol\":3772:4587  function bid() external payable timedTransitions atStage(Stage.TakingBid)  {... */\n      jump\t// out\n        /* \"tp2/auction.sol\":5345:6030  function close() external timedTransitions only(Rol.Admin) atStage(Stage.Finished) {... */\n    tag_16:\n        /* \"tp2/auction.sol\":7342:7352  uint limit */\n      0x00\n        /* \"tp2/auction.sol\":7373:7387  completionTime */\n      dup1\n      sload\n        /* \"tp2/auction.sol\":7355:7370  block.timestamp */\n      timestamp\n        /* \"tp2/auction.sol\":7355:7387  block.timestamp < completionTime */\n      lt\n        /* \"tp2/auction.sol\":7355:7437  block.timestamp < completionTime ? completionTime : lastBid.timestamp + 10 minutes */\n      tag_87\n      jumpi\n        /* \"tp2/auction.sol\":7427:7437  10 minutes */\n      0x0258\n        /* \"tp2/auction.sol\":7407:7414  lastBid */\n      0x02\n        /* \"tp2/auction.sol\":7407:7424  lastBid.timestamp */\n      0x01\n      add\n      sload\n        /* \"tp2/auction.sol\":7407:7437  lastBid.timestamp + 10 minutes */\n      tag_88\n      swap2\n      swap1\n      tag_54\n      jump\t// in\n    tag_88:\n        /* \"tp2/auction.sol\":7355:7437  block.timestamp < completionTime ? completionTime : lastBid.timestamp + 10 minutes */\n      jump(tag_89)\n    tag_87:\n        /* \"tp2/auction.sol\":7390:7404  completionTime */\n      sload(0x00)\n        /* \"tp2/auction.sol\":7355:7437  block.timestamp < completionTime ? completionTime : lastBid.timestamp + 10 minutes */\n    tag_89:\n        /* \"tp2/auction.sol\":7342:7437  uint limit = block.timestamp < completionTime ? completionTime : lastBid.timestamp + 10 minutes */\n      swap1\n      pop\n        /* \"tp2/auction.sol\":7460:7475  Stage.TakingBid */\n      0x00\n        /* \"tp2/auction.sol\":7451:7475  stage == Stage.TakingBid */\n      0x01\n      dup2\n      gt\n      iszero\n      tag_90\n      jumpi\n      tag_91\n      tag_28\n      jump\t// in\n    tag_91:\n    tag_90:\n        /* \"tp2/auction.sol\":7451:7456  stage */\n      0x01\n      0x00\n      swap1\n      sload\n      swap1\n      0x0100\n      exp\n      swap1\n      div\n      0xff\n      and\n        /* \"tp2/auction.sol\":7451:7475  stage == Stage.TakingBid */\n      0x01\n      dup2\n      gt\n      iszero\n      tag_92\n      jumpi\n      tag_93\n      tag_28\n      jump\t// in\n    tag_93:\n    tag_92:\n      eq\n        /* \"tp2/auction.sol\":7451:7502  stage == Stage.TakingBid && block.timestamp > limit */\n      dup1\n      iszero\n      tag_94\n      jumpi\n      pop\n        /* \"tp2/auction.sol\":7497:7502  limit */\n      dup1\n        /* \"tp2/auction.sol\":7479:7494  block.timestamp */\n      timestamp\n        /* \"tp2/auction.sol\":7479:7502  block.timestamp > limit */\n      gt\n        /* \"tp2/auction.sol\":7451:7502  stage == Stage.TakingBid && block.timestamp > limit */\n    tag_94:\n        /* \"tp2/auction.sol\":7447:7527  if (stage == Stage.TakingBid && block.timestamp > limit)... */\n      iszero\n      tag_95\n      jumpi\n        /* \"tp2/auction.sol\":7516:7527  nextStage() */\n      tag_96\n        /* \"tp2/auction.sol\":7516:7525  nextStage */\n      tag_63\n        /* \"tp2/auction.sol\":7516:7527  nextStage() */\n      jump\t// in\n    tag_96:\n        /* \"tp2/auction.sol\":7447:7527  if (stage == Stage.TakingBid && block.timestamp > limit)... */\n    tag_95:\n        /* \"tp2/auction.sol\":5393:5402  Rol.Admin */\n      0x00\n        /* \"tp2/auction.sol\":6924:6933  Rol.Admin */\n      dup1\n        /* \"tp2/auction.sol\":6917:6933  rol == Rol.Admin */\n      0x01\n      dup2\n      gt\n      iszero\n      tag_98\n      jumpi\n      tag_99\n      tag_28\n      jump\t// in\n    tag_99:\n    tag_98:\n        /* \"tp2/auction.sol\":6917:6920  rol */\n      dup2\n        /* \"tp2/auction.sol\":6917:6933  rol == Rol.Admin */\n      0x01\n      dup2\n      gt\n      iszero\n      tag_100\n      jumpi\n      tag_101\n      tag_28\n      jump\t// in\n    tag_101:\n    tag_100:\n      eq\n        /* \"tp2/auction.sol\":6917:6956  rol == Rol.Admin && msg.sender != admin */\n      dup1\n      iszero\n      tag_102\n      jumpi\n      pop\n        /* \"tp2/auction.sol\":6951:6956  admin */\n      0x07\n      0x00\n      swap1\n      sload\n      swap1\n      0x0100\n      exp\n      swap1\n      div\n      0xffffffffffffffffffffffffffffffffffffffff\n      and\n        /* \"tp2/auction.sol\":6937:6956  msg.sender != admin */\n      0xffffffffffffffffffffffffffffffffffffffff\n      and\n        /* \"tp2/auction.sol\":6937:6947  msg.sender */\n      caller\n        /* \"tp2/auction.sol\":6937:6956  msg.sender != admin */\n      0xffffffffffffffffffffffffffffffffffffffff\n      and\n      eq\n      iszero\n        /* \"tp2/auction.sol\":6917:6956  rol == Rol.Admin && msg.sender != admin */\n    tag_102:\n        /* \"tp2/auction.sol\":6914:7024  if(rol == Rol.Admin && msg.sender != admin)... */\n      iszero\n      tag_103\n      jumpi\n        /* \"tp2/auction.sol\":6977:7024  AccessNotAllowed(\"Only Admin User is allowed.\") */\n      mload(0x40)\n      0x58a3f3c000000000000000000000000000000000000000000000000000000000\n      dup2\n      mstore\n      0x04\n      add\n      tag_104\n      swap1\n      tag_105\n      jump\t// in\n    tag_104:\n      mload(0x40)\n      dup1\n      swap2\n      sub\n      swap1\n      revert\n        /* \"tp2/auction.sol\":6914:7024  if(rol == Rol.Admin && msg.sender != admin)... */\n    tag_103:\n        /* \"tp2/auction.sol\":7044:7054  Rol.Bidder */\n      0x01\n        /* \"tp2/auction.sol\":7037:7054  rol == Rol.Bidder */\n      dup1\n      dup2\n      gt\n      iszero\n      tag_106\n      jumpi\n      tag_107\n      tag_28\n      jump\t// in\n    tag_107:\n    tag_106:\n        /* \"tp2/auction.sol\":7037:7040  rol */\n      dup2\n        /* \"tp2/auction.sol\":7037:7054  rol == Rol.Bidder */\n      0x01\n      dup2\n      gt\n      iszero\n      tag_108\n      jumpi\n      tag_109\n      tag_28\n      jump\t// in\n    tag_109:\n    tag_108:\n      eq\n        /* \"tp2/auction.sol\":7037:7086  rol == Rol.Bidder && !balances[msg.sender].exists */\n      dup1\n      iszero\n      tag_110\n      jumpi\n      pop\n        /* \"tp2/auction.sol\":7059:7067  balances */\n      0x0a\n        /* \"tp2/auction.sol\":7059:7079  balances[msg.sender] */\n      0x00\n        /* \"tp2/auction.sol\":7068:7078  msg.sender */\n      caller\n        /* \"tp2/auction.sol\":7059:7079  balances[msg.sender] */\n      0xffffffffffffffffffffffffffffffffffffffff\n      and\n      0xffffffffffffffffffffffffffffffffffffffff\n      and\n      dup2\n      mstore\n      0x20\n      add\n      swap1\n      dup2\n      mstore\n      0x20\n      add\n      0x00\n      keccak256\n        /* \"tp2/auction.sol\":7059:7086  balances[msg.sender].exists */\n      0x00\n      add\n      0x00\n      swap1\n      sload\n      swap1\n      0x0100\n      exp\n      swap1\n      div\n      0xff\n      and\n        /* \"tp2/auction.sol\":7058:7086  !balances[msg.sender].exists */\n      iszero\n        /* \"tp2/auction.sol\":7037:7086  rol == Rol.Bidder && !balances[msg.sender].exists */\n    tag_110:\n        /* \"tp2/auction.sol\":7034:7151  if(rol == Rol.Bidder && !balances[msg.sender].exists)... */\n      iszero\n      tag_111\n      jumpi\n        /* \"tp2/auction.sol\":7107:7151  AccessNotAllowed(\"Only Bidder are allowed.\") */\n      mload(0x40)\n      0x58a3f3c000000000000000000000000000000000000000000000000000000000\n      dup2\n      mstore\n      0x04\n      add\n      tag_112\n      swap1\n      tag_113\n      jump\t// in\n    tag_112:\n      mload(0x40)\n      dup1\n      swap2\n      sub\n      swap1\n      revert\n        /* \"tp2/auction.sol\":7034:7151  if(rol == Rol.Bidder && !balances[msg.sender].exists)... */\n    tag_111:\n        /* \"tp2/auction.sol\":5412:5426  Stage.Finished */\n      0x01\n        /* \"tp2/auction.sol\":7229:7235  _stage */\n      dup1\n        /* \"tp2/auction.sol\":7220:7235  stage != _stage */\n      0x01\n      dup2\n      gt\n      iszero\n      tag_115\n      jumpi\n      tag_116\n      tag_28\n      jump\t// in\n    tag_116:\n    tag_115:\n        /* \"tp2/auction.sol\":7220:7225  stage */\n      0x01\n      0x00\n      swap1\n      sload\n      swap1\n      0x0100\n      exp\n      swap1\n      div\n      0xff\n      and\n        /* \"tp2/auction.sol\":7220:7235  stage != _stage */\n      0x01\n      dup2\n      gt\n      iszero\n      tag_117\n      jumpi\n      tag_118\n      tag_28\n      jump\t// in\n    tag_118:\n    tag_117:\n      eq\n        /* \"tp2/auction.sol\":7216:7280  if (stage != _stage)... */\n      tag_119\n      jumpi\n        /* \"tp2/auction.sol\":7274:7279  stage */\n      0x01\n      0x00\n      swap1\n      sload\n      swap1\n      0x0100\n      exp\n      swap1\n      div\n      0xff\n      and\n        /* \"tp2/auction.sol\":7256:7280  NotAllowedAtStage(stage) */\n      mload(0x40)\n      0xf1c25c2000000000000000000000000000000000000000000000000000000000\n      dup2\n      mstore\n      0x04\n      add\n      tag_120\n      swap2\n      swap1\n      tag_33\n      jump\t// in\n    tag_120:\n      mload(0x40)\n      dup1\n      swap2\n      sub\n      swap1\n      revert\n        /* \"tp2/auction.sol\":7216:7280  if (stage != _stage)... */\n    tag_119:\n        /* \"tp2/auction.sol\":5442:5449  lastBid */\n      0x02\n        /* \"tp2/auction.sol\":5442:5456  lastBid.exists */\n      0x00\n      add\n      0x00\n      swap1\n      sload\n      swap1\n      0x0100\n      exp\n      swap1\n      div\n      0xff\n      and\n        /* \"tp2/auction.sol\":5438:5551  if(!lastBid.exists){... */\n      tag_122\n      jumpi\n        /* \"tp2/auction.sol\":5514:5515  0 */\n      0x00\n        /* \"tp2/auction.sol\":5476:5520  AuctionFinished(auctioneItem, address(0), 0) */\n      0xffffffffffffffffffffffffffffffffffffffff\n      and\n        /* \"tp2/auction.sol\":5492:5504  auctioneItem */\n      0x08\n        /* \"tp2/auction.sol\":5476:5520  AuctionFinished(auctioneItem, address(0), 0) */\n      mload(0x40)\n      tag_123\n      swap2\n      swap1\n      tag_124\n      jump\t// in\n    tag_123:\n      mload(0x40)\n      dup1\n      swap2\n      sub\n      swap1\n      keccak256\n      0xef1c1ac56c3e721a0a9bdb9f70b99f3cd67d25c1aabe4830f296c2391dc1c2e8\n        /* \"tp2/auction.sol\":5518:5519  0 */\n      0x00\n        /* \"tp2/auction.sol\":5476:5520  AuctionFinished(auctioneItem, address(0), 0) */\n      mload(0x40)\n      tag_125\n      swap2\n      swap1\n      tag_126\n      jump\t// in\n    tag_125:\n      mload(0x40)\n      dup1\n      swap2\n      sub\n      swap1\n      log3\n        /* \"tp2/auction.sol\":5534:5541  return; */\n      jump(tag_121)\n        /* \"tp2/auction.sol\":5438:5551  if(!lastBid.exists){... */\n    tag_122:\n        /* \"tp2/auction.sol\":5597:5604  lastBid */\n      0x02\n        /* \"tp2/auction.sol\":5597:5610  lastBid.owner */\n      0x04\n      add\n      0x00\n      swap1\n      sload\n      swap1\n      0x0100\n      exp\n      swap1\n      div\n      0xffffffffffffffffffffffffffffffffffffffff\n      and\n        /* \"tp2/auction.sol\":5567:5627  AuctionFinished(auctioneItem, lastBid.owner, lastBid.amount) */\n      0xffffffffffffffffffffffffffffffffffffffff\n      and\n        /* \"tp2/auction.sol\":5583:5595  auctioneItem */\n      0x08\n        /* \"tp2/auction.sol\":5567:5627  AuctionFinished(auctioneItem, lastBid.owner, lastBid.amount) */\n      mload(0x40)\n      tag_127\n      swap2\n      swap1\n      tag_124\n      jump\t// in\n    tag_127:\n      mload(0x40)\n      dup1\n      swap2\n      sub\n      swap1\n      keccak256\n      0xef1c1ac56c3e721a0a9bdb9f70b99f3cd67d25c1aabe4830f296c2391dc1c2e8\n        /* \"tp2/auction.sol\":5612:5619  lastBid */\n      0x02\n        /* \"tp2/auction.sol\":5612:5626  lastBid.amount */\n      0x03\n      add\n      sload\n        /* \"tp2/auction.sol\":5567:5627  AuctionFinished(auctioneItem, lastBid.owner, lastBid.amount) */\n      mload(0x40)\n      tag_128\n      swap2\n      swap1\n      tag_85\n      jump\t// in\n    tag_128:\n      mload(0x40)\n      dup1\n      swap2\n      sub\n      swap1\n      log3\n        /* \"tp2/auction.sol\":5642:5648  uint i */\n      0x00\n        /* \"tp2/auction.sol\":5637:6024  for (uint i = 0; i < bidders.length; i++) {... */\n    tag_129:\n        /* \"tp2/auction.sol\":5658:5665  bidders */\n      0x09\n        /* \"tp2/auction.sol\":5658:5672  bidders.length */\n      dup1\n      sload\n      swap1\n      pop\n        /* \"tp2/auction.sol\":5654:5655  i */\n      dup2\n        /* \"tp2/auction.sol\":5654:5672  i < bidders.length */\n      lt\n        /* \"tp2/auction.sol\":5637:6024  for (uint i = 0; i < bidders.length; i++) {... */\n      iszero\n      tag_130\n      jumpi\n        /* \"tp2/auction.sol\":5710:5717  lastBid */\n      0x02\n        /* \"tp2/auction.sol\":5710:5723  lastBid.owner */\n      0x04\n      add\n      0x00\n      swap1\n      sload\n      swap1\n      0x0100\n      exp\n      swap1\n      div\n      0xffffffffffffffffffffffffffffffffffffffff\n      and\n        /* \"tp2/auction.sol\":5696:5723  bidders[i] != lastBid.owner */\n      0xffffffffffffffffffffffffffffffffffffffff\n      and\n        /* \"tp2/auction.sol\":5696:5703  bidders */\n      0x09\n        /* \"tp2/auction.sol\":5704:5705  i */\n      dup3\n        /* \"tp2/auction.sol\":5696:5706  bidders[i] */\n      dup2\n      sload\n      dup2\n      lt\n      tag_132\n      jumpi\n      tag_133\n      tag_47\n      jump\t// in\n    tag_133:\n    tag_132:\n      swap1\n      0x00\n      mstore\n      keccak256(0x00, 0x20)\n      add\n      0x00\n      swap1\n      sload\n      swap1\n      0x0100\n      exp\n      swap1\n      div\n      0xffffffffffffffffffffffffffffffffffffffff\n      and\n        /* \"tp2/auction.sol\":5696:5723  bidders[i] != lastBid.owner */\n      0xffffffffffffffffffffffffffffffffffffffff\n      and\n      eq\n        /* \"tp2/auction.sol\":5693:6014  if(bidders[i] != lastBid.owner){... */\n      tag_135\n      jumpi\n        /* \"tp2/auction.sol\":5742:5753  uint amount */\n      0x00\n        /* \"tp2/auction.sol\":5756:5764  balances */\n      0x0a\n        /* \"tp2/auction.sol\":5756:5776  balances[bidders[i]] */\n      0x00\n        /* \"tp2/auction.sol\":5765:5772  bidders */\n      0x09\n        /* \"tp2/auction.sol\":5773:5774  i */\n      dup5\n        /* \"tp2/auction.sol\":5765:5775  bidders[i] */\n      dup2\n      sload\n      dup2\n      lt\n      tag_136\n      jumpi\n      tag_137\n      tag_47\n      jump\t// in\n    tag_137:\n    tag_136:\n      swap1\n      0x00\n      mstore\n      keccak256(0x00, 0x20)\n      add\n      0x00\n      swap1\n      sload\n      swap1\n      0x0100\n      exp\n      swap1\n      div\n      0xffffffffffffffffffffffffffffffffffffffff\n      and\n        /* \"tp2/auction.sol\":5756:5776  balances[bidders[i]] */\n      0xffffffffffffffffffffffffffffffffffffffff\n      and\n      0xffffffffffffffffffffffffffffffffffffffff\n      and\n      dup2\n      mstore\n      0x20\n      add\n      swap1\n      dup2\n      mstore\n      0x20\n      add\n      0x00\n      keccak256\n        /* \"tp2/auction.sol\":5756:5788  balances[bidders[i]].accumulated */\n      0x02\n      add\n      sload\n        /* \"tp2/auction.sol\":5742:5788  uint amount = balances[bidders[i]].accumulated */\n      swap1\n      pop\n        /* \"tp2/auction.sol\":5841:5842  0 */\n      0x00\n        /* \"tp2/auction.sol\":5806:5814  balances */\n      0x0a\n        /* \"tp2/auction.sol\":5806:5826  balances[bidders[i]] */\n      0x00\n        /* \"tp2/auction.sol\":5815:5822  bidders */\n      0x09\n        /* \"tp2/auction.sol\":5823:5824  i */\n      dup6\n        /* \"tp2/auction.sol\":5815:5825  bidders[i] */\n      dup2\n      sload\n      dup2\n      lt\n      tag_139\n      jumpi\n      tag_140\n      tag_47\n      jump\t// in\n    tag_140:\n    tag_139:\n      swap1\n      0x00\n      mstore\n      keccak256(0x00, 0x20)\n      add\n      0x00\n      swap1\n      sload\n      swap1\n      0x0100\n      exp\n      swap1\n      div\n      0xffffffffffffffffffffffffffffffffffffffff\n      and\n        /* \"tp2/auction.sol\":5806:5826  balances[bidders[i]] */\n      0xffffffffffffffffffffffffffffffffffffffff\n      and\n      0xffffffffffffffffffffffffffffffffffffffff\n      and\n      dup2\n      mstore\n      0x20\n      add\n      swap1\n      dup2\n      mstore\n      0x20\n      add\n      0x00\n      keccak256\n        /* \"tp2/auction.sol\":5806:5838  balances[bidders[i]].accumulated */\n      0x02\n      add\n        /* \"tp2/auction.sol\":5806:5842  balances[bidders[i]].accumulated = 0 */\n      dup2\n      swap1\n      sstore\n      pop\n        /* \"tp2/auction.sol\":5872:5879  bidders */\n      0x09\n        /* \"tp2/auction.sol\":5880:5881  i */\n      dup3\n        /* \"tp2/auction.sol\":5872:5882  bidders[i] */\n      dup2\n      sload\n      dup2\n      lt\n      tag_142\n      jumpi\n      tag_143\n      tag_47\n      jump\t// in\n    tag_143:\n    tag_142:\n      swap1\n      0x00\n      mstore\n      keccak256(0x00, 0x20)\n      add\n      0x00\n      swap1\n      sload\n      swap1\n      0x0100\n      exp\n      swap1\n      div\n      0xffffffffffffffffffffffffffffffffffffffff\n      and\n        /* \"tp2/auction.sol\":5864:5888  payable(bidders[i]).send */\n      0xffffffffffffffffffffffffffffffffffffffff\n      and\n        /* \"tp2/auction.sol\":5864:5917  payable(bidders[i]).send(amount - (amount * 2) / 100) */\n      0x08fc\n        /* \"tp2/auction.sol\":5913:5916  100 */\n      0x64\n        /* \"tp2/auction.sol\":5908:5909  2 */\n      0x02\n        /* \"tp2/auction.sol\":5899:5905  amount */\n      dup5\n        /* \"tp2/auction.sol\":5899:5909  amount * 2 */\n      tag_145\n      swap2\n      swap1\n      tag_73\n      jump\t// in\n    tag_145:\n        /* \"tp2/auction.sol\":5898:5916  (amount * 2) / 100 */\n      tag_146\n      swap2\n      swap1\n      tag_75\n      jump\t// in\n    tag_146:\n        /* \"tp2/auction.sol\":5889:5895  amount */\n      dup4\n        /* \"tp2/auction.sol\":5889:5916  amount - (amount * 2) / 100 */\n      tag_147\n      swap2\n      swap1\n      tag_148\n      jump\t// in\n    tag_147:\n        /* \"tp2/auction.sol\":5864:5917  payable(bidders[i]).send(amount - (amount * 2) / 100) */\n      swap1\n      dup2\n      iszero\n      mul\n      swap1\n      mload(0x40)\n      0x00\n      mload(0x40)\n      dup1\n      dup4\n      sub\n      dup2\n      dup6\n      dup9\n      dup9\n      call\n      swap4\n      pop\n      pop\n      pop\n      pop\n        /* \"tp2/auction.sol\":5860:6000  if(!payable(bidders[i]).send(amount - (amount * 2) / 100)){... */\n      tag_150\n      jumpi\n        /* \"tp2/auction.sol\":5975:5981  amount */\n      dup1\n        /* \"tp2/auction.sol\":5940:5948  balances */\n      0x0a\n        /* \"tp2/auction.sol\":5940:5960  balances[bidders[i]] */\n      0x00\n        /* \"tp2/auction.sol\":5949:5956  bidders */\n      0x09\n        /* \"tp2/auction.sol\":5957:5958  i */\n      dup6\n        /* \"tp2/auction.sol\":5949:5959  bidders[i] */\n      dup2\n      sload\n      dup2\n      lt\n      tag_151\n      jumpi\n      tag_152\n      tag_47\n      jump\t// in\n    tag_152:\n    tag_151:\n      swap1\n      0x00\n      mstore\n      keccak256(0x00, 0x20)\n      add\n      0x00\n      swap1\n      sload\n      swap1\n      0x0100\n      exp\n      swap1\n      div\n      0xffffffffffffffffffffffffffffffffffffffff\n      and\n        /* \"tp2/auction.sol\":5940:5960  balances[bidders[i]] */\n      0xffffffffffffffffffffffffffffffffffffffff\n      and\n      0xffffffffffffffffffffffffffffffffffffffff\n      and\n      dup2\n      mstore\n      0x20\n      add\n      swap1\n      dup2\n      mstore\n      0x20\n      add\n      0x00\n      keccak256\n        /* \"tp2/auction.sol\":5940:5972  balances[bidders[i]].accumulated */\n      0x02\n      add\n        /* \"tp2/auction.sol\":5940:5981  balances[bidders[i]].accumulated = amount */\n      dup2\n      swap1\n      sstore\n      pop\n        /* \"tp2/auction.sol\":5860:6000  if(!payable(bidders[i]).send(amount - (amount * 2) / 100)){... */\n    tag_150:\n        /* \"tp2/auction.sol\":5724:6014  {... */\n      pop\n        /* \"tp2/auction.sol\":5693:6014  if(bidders[i] != lastBid.owner){... */\n    tag_135:\n        /* \"tp2/auction.sol\":5674:5677  i++ */\n      dup1\n      dup1\n      0x01\n      add\n      swap2\n      pop\n      pop\n        /* \"tp2/auction.sol\":5637:6024  for (uint i = 0; i < bidders.length; i++) {... */\n      jump(tag_129)\n    tag_130:\n      pop\n        /* \"tp2/auction.sol\":7290:7291  _ */\n    tag_121:\n        /* \"tp2/auction.sol\":7161:7162  _ */\n      pop\n        /* \"tp2/auction.sol\":7537:7538  _ */\n      pop\n        /* \"tp2/auction.sol\":7332:7545  {... */\n      pop\n        /* \"tp2/auction.sol\":5345:6030  function close() external timedTransitions only(Rol.Admin) atStage(Stage.Finished) {... */\n      jump\t// out\n        /* \"tp2/auction.sol\":6267:6508  function showWinner() external timedTransitions atStage(Stage.Finished)  returns (address winner, uint amount){... */\n    tag_19:\n        /* \"tp2/auction.sol\":6349:6363  address winner */\n      0x00\n        /* \"tp2/auction.sol\":6365:6376  uint amount */\n      dup1\n        /* \"tp2/auction.sol\":7342:7352  uint limit */\n      0x00\n        /* \"tp2/auction.sol\":7373:7387  completionTime */\n      dup1\n      sload\n        /* \"tp2/auction.sol\":7355:7370  block.timestamp */\n      timestamp\n        /* \"tp2/auction.sol\":7355:7387  block.timestamp < completionTime */\n      lt\n        /* \"tp2/auction.sol\":7355:7437  block.timestamp < completionTime ? completionTime : lastBid.timestamp + 10 minutes */\n      tag_155\n      jumpi\n        /* \"tp2/auction.sol\":7427:7437  10 minutes */\n      0x0258\n        /* \"tp2/auction.sol\":7407:7414  lastBid */\n      0x02\n        /* \"tp2/auction.sol\":7407:7424  lastBid.timestamp */\n      0x01\n      add\n      sload\n        /* \"tp2/auction.sol\":7407:7437  lastBid.timestamp + 10 minutes */\n      tag_156\n      swap2\n      swap1\n      tag_54\n      jump\t// in\n    tag_156:\n        /* \"tp2/auction.sol\":7355:7437  block.timestamp < completionTime ? completionTime : lastBid.timestamp + 10 minutes */\n      jump(tag_157)\n    tag_155:\n        /* \"tp2/auction.sol\":7390:7404  completionTime */\n      sload(0x00)\n        /* \"tp2/auction.sol\":7355:7437  block.timestamp < completionTime ? completionTime : lastBid.timestamp + 10 minutes */\n    tag_157:\n        /* \"tp2/auction.sol\":7342:7437  uint limit = block.timestamp < completionTime ? completionTime : lastBid.timestamp + 10 minutes */\n      swap1\n      pop\n        /* \"tp2/auction.sol\":7460:7475  Stage.TakingBid */\n      0x00\n        /* \"tp2/auction.sol\":7451:7475  stage == Stage.TakingBid */\n      0x01\n      dup2\n      gt\n      iszero\n      tag_158\n      jumpi\n      tag_159\n      tag_28\n      jump\t// in\n    tag_159:\n    tag_158:\n        /* \"tp2/auction.sol\":7451:7456  stage */\n      0x01\n      0x00\n      swap1\n      sload\n      swap1\n      0x0100\n      exp\n      swap1\n      div\n      0xff\n      and\n        /* \"tp2/auction.sol\":7451:7475  stage == Stage.TakingBid */\n      0x01\n      dup2\n      gt\n      iszero\n      tag_160\n      jumpi\n      tag_161\n      tag_28\n      jump\t// in\n    tag_161:\n    tag_160:\n      eq\n        /* \"tp2/auction.sol\":7451:7502  stage == Stage.TakingBid && block.timestamp > limit */\n      dup1\n      iszero\n      tag_162\n      jumpi\n      pop\n        /* \"tp2/auction.sol\":7497:7502  limit */\n      dup1\n        /* \"tp2/auction.sol\":7479:7494  block.timestamp */\n      timestamp\n        /* \"tp2/auction.sol\":7479:7502  block.timestamp > limit */\n      gt\n        /* \"tp2/auction.sol\":7451:7502  stage == Stage.TakingBid && block.timestamp > limit */\n    tag_162:\n        /* \"tp2/auction.sol\":7447:7527  if (stage == Stage.TakingBid && block.timestamp > limit)... */\n      iszero\n      tag_163\n      jumpi\n        /* \"tp2/auction.sol\":7516:7527  nextStage() */\n      tag_164\n        /* \"tp2/auction.sol\":7516:7525  nextStage */\n      tag_63\n        /* \"tp2/auction.sol\":7516:7527  nextStage() */\n      jump\t// in\n    tag_164:\n        /* \"tp2/auction.sol\":7447:7527  if (stage == Stage.TakingBid && block.timestamp > limit)... */\n    tag_163:\n        /* \"tp2/auction.sol\":6323:6337  Stage.Finished */\n      0x01\n        /* \"tp2/auction.sol\":7229:7235  _stage */\n      dup1\n        /* \"tp2/auction.sol\":7220:7235  stage != _stage */\n      0x01\n      dup2\n      gt\n      iszero\n      tag_166\n      jumpi\n      tag_167\n      tag_28\n      jump\t// in\n    tag_167:\n    tag_166:\n        /* \"tp2/auction.sol\":7220:7225  stage */\n      0x01\n      0x00\n      swap1\n      sload\n      swap1\n      0x0100\n      exp\n      swap1\n      div\n      0xff\n      and\n        /* \"tp2/auction.sol\":7220:7235  stage != _stage */\n      0x01\n      dup2\n      gt\n      iszero\n      tag_168\n      jumpi\n      tag_169\n      tag_28\n      jump\t// in\n    tag_169:\n    tag_168:\n      eq\n        /* \"tp2/auction.sol\":7216:7280  if (stage != _stage)... */\n      tag_170\n      jumpi\n        /* \"tp2/auction.sol\":7274:7279  stage */\n      0x01\n      0x00\n      swap1\n      sload\n      swap1\n      0x0100\n      exp\n      swap1\n      div\n      0xff\n      and\n        /* \"tp2/auction.sol\":7256:7280  NotAllowedAtStage(stage) */\n      mload(0x40)\n      0xf1c25c2000000000000000000000000000000000000000000000000000000000\n      dup2\n      mstore\n      0x04\n      add\n      tag_171\n      swap2\n      swap1\n      tag_33\n      jump\t// in\n    tag_171:\n      mload(0x40)\n      dup1\n      swap2\n      sub\n      swap1\n      revert\n        /* \"tp2/auction.sol\":7216:7280  if (stage != _stage)... */\n    tag_170:\n        /* \"tp2/auction.sol\":6392:6399  lastBid */\n      0x02\n        /* \"tp2/auction.sol\":6392:6406  lastBid.exists */\n      0x00\n      add\n      0x00\n      swap1\n      sload\n      swap1\n      0x0100\n      exp\n      swap1\n      div\n      0xff\n      and\n        /* \"tp2/auction.sol\":6388:6454  if(!lastBid.exists){... */\n      tag_173\n      jumpi\n        /* \"tp2/auction.sol\":6428:6443  NotWinningBid() */\n      mload(0x40)\n      0x9b03499700000000000000000000000000000000000000000000000000000000\n      dup2\n      mstore\n      0x04\n      add\n      mload(0x40)\n      dup1\n      swap2\n      sub\n      swap1\n      revert\n        /* \"tp2/auction.sol\":6388:6454  if(!lastBid.exists){... */\n    tag_173:\n        /* \"tp2/auction.sol\":6471:6478  lastBid */\n      0x02\n        /* \"tp2/auction.sol\":6471:6484  lastBid.owner */\n      0x04\n      add\n      0x00\n      swap1\n      sload\n      swap1\n      0x0100\n      exp\n      swap1\n      div\n      0xffffffffffffffffffffffffffffffffffffffff\n      and\n        /* \"tp2/auction.sol\":6486:6493  lastBid */\n      0x02\n        /* \"tp2/auction.sol\":6486:6500  lastBid.amount */\n      0x03\n      add\n      sload\n        /* \"tp2/auction.sol\":6463:6501  return (lastBid.owner, lastBid.amount) */\n      swap4\n      pop\n      swap4\n      pop\n        /* \"tp2/auction.sol\":7537:7538  _ */\n      pop\n        /* \"tp2/auction.sol\":7332:7545  {... */\n      pop\n        /* \"tp2/auction.sol\":6267:6508  function showWinner() external timedTransitions atStage(Stage.Finished)  returns (address winner, uint amount){... */\n      swap1\n      swap2\n      jump\t// out\n        /* \"tp2/auction.sol\":4787:5173  function withdrawal() external timedTransitions only(Rol.Bidder) atStage(Stage.TakingBid)  {... */\n    tag_24:\n        /* \"tp2/auction.sol\":7342:7352  uint limit */\n      0x00\n        /* \"tp2/auction.sol\":7373:7387  completionTime */\n      dup1\n      sload\n        /* \"tp2/auction.sol\":7355:7370  block.timestamp */\n      timestamp\n        /* \"tp2/auction.sol\":7355:7387  block.timestamp < completionTime */\n      lt\n        /* \"tp2/auction.sol\":7355:7437  block.timestamp < completionTime ? completionTime : lastBid.timestamp + 10 minutes */\n      tag_175\n      jumpi\n        /* \"tp2/auction.sol\":7427:7437  10 minutes */\n      0x0258\n        /* \"tp2/auction.sol\":7407:7414  lastBid */\n      0x02\n        /* \"tp2/auction.sol\":7407:7424  lastBid.timestamp */\n      0x01\n      add\n      sload\n        /* \"tp2/auction.sol\":7407:7437  lastBid.timestamp + 10 minutes */\n      tag_176\n      swap2\n      swap1\n      tag_54\n      jump\t// in\n    tag_176:\n        /* \"tp2/auction.sol\":7355:7437  block.timestamp < completionTime ? completionTime : lastBid.timestamp + 10 minutes */\n      jump(tag_177)\n    tag_175:\n        /* \"tp2/auction.sol\":7390:7404  completionTime */\n      sload(0x00)\n        /* \"tp2/auction.sol\":7355:7437  block.timestamp < completionTime ? completionTime : lastBid.timestamp + 10 minutes */\n    tag_177:\n        /* \"tp2/auction.sol\":7342:7437  uint limit = block.timestamp < completionTime ? completionTime : lastBid.timestamp + 10 minutes */\n      swap1\n      pop\n        /* \"tp2/auction.sol\":7460:7475  Stage.TakingBid */\n      0x00\n        /* \"tp2/auction.sol\":7451:7475  stage == Stage.TakingBid */\n      0x01\n      dup2\n      gt\n      iszero\n      tag_178\n      jumpi\n      tag_179\n      tag_28\n      jump\t// in\n    tag_179:\n    tag_178:\n        /* \"tp2/auction.sol\":7451:7456  stage */\n      0x01\n      0x00\n      swap1\n      sload\n      swap1\n      0x0100\n      exp\n      swap1\n      div\n      0xff\n      and\n        /* \"tp2/auction.sol\":7451:7475  stage == Stage.TakingBid */\n      0x01\n      dup2\n      gt\n      iszero\n      tag_180\n      jumpi\n      tag_181\n      tag_28\n      jump\t// in\n    tag_181:\n    tag_180:\n      eq\n        /* \"tp2/auction.sol\":7451:7502  stage == Stage.TakingBid && block.timestamp > limit */\n      dup1\n      iszero\n      tag_182\n      jumpi\n      pop\n        /* \"tp2/auction.sol\":7497:7502  limit */\n      dup1\n        /* \"tp2/auction.sol\":7479:7494  block.timestamp */\n      timestamp\n        /* \"tp2/auction.sol\":7479:7502  block.timestamp > limit */\n      gt\n        /* \"tp2/auction.sol\":7451:7502  stage == Stage.TakingBid && block.timestamp > limit */\n    tag_182:\n        /* \"tp2/auction.sol\":7447:7527  if (stage == Stage.TakingBid && block.timestamp > limit)... */\n      iszero\n      tag_183\n      jumpi\n        /* \"tp2/auction.sol\":7516:7527  nextStage() */\n      tag_184\n        /* \"tp2/auction.sol\":7516:7525  nextStage */\n      tag_63\n        /* \"tp2/auction.sol\":7516:7527  nextStage() */\n      jump\t// in\n    tag_184:\n        /* \"tp2/auction.sol\":7447:7527  if (stage == Stage.TakingBid && block.timestamp > limit)... */\n    tag_183:\n        /* \"tp2/auction.sol\":4840:4850  Rol.Bidder */\n      0x01\n        /* \"tp2/auction.sol\":6924:6933  Rol.Admin */\n      0x00\n        /* \"tp2/auction.sol\":6917:6933  rol == Rol.Admin */\n      0x01\n      dup2\n      gt\n      iszero\n      tag_186\n      jumpi\n      tag_187\n      tag_28\n      jump\t// in\n    tag_187:\n    tag_186:\n        /* \"tp2/auction.sol\":6917:6920  rol */\n      dup2\n        /* \"tp2/auction.sol\":6917:6933  rol == Rol.Admin */\n      0x01\n      dup2\n      gt\n      iszero\n      tag_188\n      jumpi\n      tag_189\n      tag_28\n      jump\t// in\n    tag_189:\n    tag_188:\n      eq\n        /* \"tp2/auction.sol\":6917:6956  rol == Rol.Admin && msg.sender != admin */\n      dup1\n      iszero\n      tag_190\n      jumpi\n      pop\n        /* \"tp2/auction.sol\":6951:6956  admin */\n      0x07\n      0x00\n      swap1\n      sload\n      swap1\n      0x0100\n      exp\n      swap1\n      div\n      0xffffffffffffffffffffffffffffffffffffffff\n      and\n        /* \"tp2/auction.sol\":6937:6956  msg.sender != admin */\n      0xffffffffffffffffffffffffffffffffffffffff\n      and\n        /* \"tp2/auction.sol\":6937:6947  msg.sender */\n      caller\n        /* \"tp2/auction.sol\":6937:6956  msg.sender != admin */\n      0xffffffffffffffffffffffffffffffffffffffff\n      and\n      eq\n      iszero\n        /* \"tp2/auction.sol\":6917:6956  rol == Rol.Admin && msg.sender != admin */\n    tag_190:\n        /* \"tp2/auction.sol\":6914:7024  if(rol == Rol.Admin && msg.sender != admin)... */\n      iszero\n      tag_191\n      jumpi\n        /* \"tp2/auction.sol\":6977:7024  AccessNotAllowed(\"Only Admin User is allowed.\") */\n      mload(0x40)\n      0x58a3f3c000000000000000000000000000000000000000000000000000000000\n      dup2\n      mstore\n      0x04\n      add\n      tag_192\n      swap1\n      tag_105\n      jump\t// in\n    tag_192:\n      mload(0x40)\n      dup1\n      swap2\n      sub\n      swap1\n      revert\n        /* \"tp2/auction.sol\":6914:7024  if(rol == Rol.Admin && msg.sender != admin)... */\n    tag_191:\n        /* \"tp2/auction.sol\":7044:7054  Rol.Bidder */\n      0x01\n        /* \"tp2/auction.sol\":7037:7054  rol == Rol.Bidder */\n      dup1\n      dup2\n      gt\n      iszero\n      tag_193\n      jumpi\n      tag_194\n      tag_28\n      jump\t// in\n    tag_194:\n    tag_193:\n        /* \"tp2/auction.sol\":7037:7040  rol */\n      dup2\n        /* \"tp2/auction.sol\":7037:7054  rol == Rol.Bidder */\n      0x01\n      dup2\n      gt\n      iszero\n      tag_195\n      jumpi\n      tag_196\n      tag_28\n      jump\t// in\n    tag_196:\n    tag_195:\n      eq\n        /* \"tp2/auction.sol\":7037:7086  rol == Rol.Bidder && !balances[msg.sender].exists */\n      dup1\n      iszero\n      tag_197\n      jumpi\n      pop\n        /* \"tp2/auction.sol\":7059:7067  balances */\n      0x0a\n        /* \"tp2/auction.sol\":7059:7079  balances[msg.sender] */\n      0x00\n        /* \"tp2/auction.sol\":7068:7078  msg.sender */\n      caller\n        /* \"tp2/auction.sol\":7059:7079  balances[msg.sender] */\n      0xffffffffffffffffffffffffffffffffffffffff\n      and\n      0xffffffffffffffffffffffffffffffffffffffff\n      and\n      dup2\n      mstore\n      0x20\n      add\n      swap1\n      dup2\n      mstore\n      0x20\n      add\n      0x00\n      keccak256\n        /* \"tp2/auction.sol\":7059:7086  balances[msg.sender].exists */\n      0x00\n      add\n      0x00\n      swap1\n      sload\n      swap1\n      0x0100\n      exp\n      swap1\n      div\n      0xff\n      and\n        /* \"tp2/auction.sol\":7058:7086  !balances[msg.sender].exists */\n      iszero\n        /* \"tp2/auction.sol\":7037:7086  rol == Rol.Bidder && !balances[msg.sender].exists */\n    tag_197:\n        /* \"tp2/auction.sol\":7034:7151  if(rol == Rol.Bidder && !balances[msg.sender].exists)... */\n      iszero\n      tag_198\n      jumpi\n        /* \"tp2/auction.sol\":7107:7151  AccessNotAllowed(\"Only Bidder are allowed.\") */\n      mload(0x40)\n      0x58a3f3c000000000000000000000000000000000000000000000000000000000\n      dup2\n      mstore\n      0x04\n      add\n      tag_199\n      swap1\n      tag_113\n      jump\t// in\n    tag_199:\n      mload(0x40)\n      dup1\n      swap2\n      sub\n      swap1\n      revert\n        /* \"tp2/auction.sol\":7034:7151  if(rol == Rol.Bidder && !balances[msg.sender].exists)... */\n    tag_198:\n        /* \"tp2/auction.sol\":4860:4875  Stage.TakingBid */\n      0x00\n        /* \"tp2/auction.sol\":7229:7235  _stage */\n      dup1\n        /* \"tp2/auction.sol\":7220:7235  stage != _stage */\n      0x01\n      dup2\n      gt\n      iszero\n      tag_201\n      jumpi\n      tag_202\n      tag_28\n      jump\t// in\n    tag_202:\n    tag_201:\n        /* \"tp2/auction.sol\":7220:7225  stage */\n      0x01\n      0x00\n      swap1\n      sload\n      swap1\n      0x0100\n      exp\n      swap1\n      div\n      0xff\n      and\n        /* \"tp2/auction.sol\":7220:7235  stage != _stage */\n      0x01\n      dup2\n      gt\n      iszero\n      tag_203\n      jumpi\n      tag_204\n      tag_28\n      jump\t// in\n    tag_204:\n    tag_203:\n      eq\n        /* \"tp2/auction.sol\":7216:7280  if (stage != _stage)... */\n      tag_205\n      jumpi\n        /* \"tp2/auction.sol\":7274:7279  stage */\n      0x01\n      0x00\n      swap1\n      sload\n      swap1\n      0x0100\n      exp\n      swap1\n      div\n      0xff\n      and\n        /* \"tp2/auction.sol\":7256:7280  NotAllowedAtStage(stage) */\n      mload(0x40)\n      0xf1c25c2000000000000000000000000000000000000000000000000000000000\n      dup2\n      mstore\n      0x04\n      add\n      tag_206\n      swap2\n      swap1\n      tag_33\n      jump\t// in\n    tag_206:\n      mload(0x40)\n      dup1\n      swap2\n      sub\n      swap1\n      revert\n        /* \"tp2/auction.sol\":7216:7280  if (stage != _stage)... */\n    tag_205:\n        /* \"tp2/auction.sol\":4888:4902  uint remainder */\n      0x00\n        /* \"tp2/auction.sol\":4940:4948  balances */\n      0x0a\n        /* \"tp2/auction.sol\":4940:4960  balances[msg.sender] */\n      0x00\n        /* \"tp2/auction.sol\":4949:4959  msg.sender */\n      caller\n        /* \"tp2/auction.sol\":4940:4960  balances[msg.sender] */\n      0xffffffffffffffffffffffffffffffffffffffff\n      and\n      0xffffffffffffffffffffffffffffffffffffffff\n      and\n      dup2\n      mstore\n      0x20\n      add\n      swap1\n      dup2\n      mstore\n      0x20\n      add\n      0x00\n      keccak256\n        /* \"tp2/auction.sol\":4940:4967  balances[msg.sender].amount */\n      0x03\n      add\n      sload\n        /* \"tp2/auction.sol\":4905:4913  balances */\n      0x0a\n        /* \"tp2/auction.sol\":4905:4925  balances[msg.sender] */\n      0x00\n        /* \"tp2/auction.sol\":4914:4924  msg.sender */\n      caller\n        /* \"tp2/auction.sol\":4905:4925  balances[msg.sender] */\n      0xffffffffffffffffffffffffffffffffffffffff\n      and\n      0xffffffffffffffffffffffffffffffffffffffff\n      and\n      dup2\n      mstore\n      0x20\n      add\n      swap1\n      dup2\n      mstore\n      0x20\n      add\n      0x00\n      keccak256\n        /* \"tp2/auction.sol\":4905:4937  balances[msg.sender].accumulated */\n      0x02\n      add\n      sload\n        /* \"tp2/auction.sol\":4905:4967  balances[msg.sender].accumulated - balances[msg.sender].amount */\n      tag_208\n      swap2\n      swap1\n      tag_148\n      jump\t// in\n    tag_208:\n        /* \"tp2/auction.sol\":4888:4967  uint remainder = balances[msg.sender].accumulated - balances[msg.sender].amount */\n      swap1\n      pop\n        /* \"tp2/auction.sol\":5012:5020  balances */\n      0x0a\n        /* \"tp2/auction.sol\":5012:5032  balances[msg.sender] */\n      0x00\n        /* \"tp2/auction.sol\":5021:5031  msg.sender */\n      caller\n        /* \"tp2/auction.sol\":5012:5032  balances[msg.sender] */\n      0xffffffffffffffffffffffffffffffffffffffff\n      and\n      0xffffffffffffffffffffffffffffffffffffffff\n      and\n      dup2\n      mstore\n      0x20\n      add\n      swap1\n      dup2\n      mstore\n      0x20\n      add\n      0x00\n      keccak256\n        /* \"tp2/auction.sol\":5012:5039  balances[msg.sender].amount */\n      0x03\n      add\n      sload\n        /* \"tp2/auction.sol\":4977:4985  balances */\n      0x0a\n        /* \"tp2/auction.sol\":4977:4997  balances[msg.sender] */\n      0x00\n        /* \"tp2/auction.sol\":4986:4996  msg.sender */\n      caller\n        /* \"tp2/auction.sol\":4977:4997  balances[msg.sender] */\n      0xffffffffffffffffffffffffffffffffffffffff\n      and\n      0xffffffffffffffffffffffffffffffffffffffff\n      and\n      dup2\n      mstore\n      0x20\n      add\n      swap1\n      dup2\n      mstore\n      0x20\n      add\n      0x00\n      keccak256\n        /* \"tp2/auction.sol\":4977:5009  balances[msg.sender].accumulated */\n      0x02\n      add\n        /* \"tp2/auction.sol\":4977:5039  balances[msg.sender].accumulated = balances[msg.sender].amount */\n      dup2\n      swap1\n      sstore\n      pop\n        /* \"tp2/auction.sol\":5065:5066  0 */\n      0x00\n        /* \"tp2/auction.sol\":5052:5061  remainder */\n      dup2\n        /* \"tp2/auction.sol\":5052:5066  remainder <= 0 */\n      gt\n        /* \"tp2/auction.sol\":5049:5118  if(remainder <= 0){... */\n      tag_209\n      jumpi\n        /* \"tp2/auction.sol\":5088:5107  NothingToWithdraw() */\n      mload(0x40)\n      0xd0d04f6000000000000000000000000000000000000000000000000000000000\n      dup2\n      mstore\n      0x04\n      add\n      mload(0x40)\n      dup1\n      swap2\n      sub\n      swap1\n      revert\n        /* \"tp2/auction.sol\":5049:5118  if(remainder <= 0){... */\n    tag_209:\n        /* \"tp2/auction.sol\":5135:5145  msg.sender */\n      caller\n        /* \"tp2/auction.sol\":5127:5155  payable(msg.sender).transfer */\n      0xffffffffffffffffffffffffffffffffffffffff\n      and\n        /* \"tp2/auction.sol\":5127:5166  payable(msg.sender).transfer(remainder) */\n      0x08fc\n        /* \"tp2/auction.sol\":5156:5165  remainder */\n      dup3\n        /* \"tp2/auction.sol\":5127:5166  payable(msg.sender).transfer(remainder) */\n      swap1\n      dup2\n      iszero\n      mul\n      swap1\n      mload(0x40)\n      0x00\n      mload(0x40)\n      dup1\n      dup4\n      sub\n      dup2\n      dup6\n      dup9\n      dup9\n      call\n      swap4\n      pop\n      pop\n      pop\n      pop\n      iszero\n      dup1\n      iszero\n      tag_211\n      jumpi\n      returndatasize\n      0x00\n      dup1\n      returndatacopy\n      revert(0x00, returndatasize)\n    tag_211:\n      pop\n        /* \"tp2/auction.sol\":4878:5173  {... */\n      pop\n        /* \"tp2/auction.sol\":7161:7162  _ */\n      pop\n        /* \"tp2/auction.sol\":7537:7538  _ */\n      pop\n        /* \"tp2/auction.sol\":7332:7545  {... */\n      pop\n        /* \"tp2/auction.sol\":4787:5173  function withdrawal() external timedTransitions only(Rol.Bidder) atStage(Stage.TakingBid)  {... */\n      jump\t// out\n        /* \"tp2/auction.sol\":6797:6874  function nextStage() internal {... */\n    tag_63:\n        /* \"tp2/auction.sol\":6865:6866  1 */\n      0x01\n        /* \"tp2/auction.sol\":6856:6861  stage */\n      dup1\n      0x00\n      swap1\n      sload\n      swap1\n      0x0100\n      exp\n      swap1\n      div\n      0xff\n      and\n        /* \"tp2/auction.sol\":6851:6862  uint(stage) */\n      0x01\n      dup2\n      gt\n      iszero\n      tag_213\n      jumpi\n      tag_214\n      tag_28\n      jump\t// in\n    tag_214:\n    tag_213:\n        /* \"tp2/auction.sol\":6851:6866  uint(stage) + 1 */\n      tag_215\n      swap2\n      swap1\n      tag_54\n      jump\t// in\n    tag_215:\n        /* \"tp2/auction.sol\":6845:6867  Stage(uint(stage) + 1) */\n      0x01\n      dup2\n      gt\n      iszero\n      tag_216\n      jumpi\n      tag_217\n      tag_28\n      jump\t// in\n    tag_217:\n    tag_216:\n        /* \"tp2/auction.sol\":6837:6842  stage */\n      0x01\n      0x00\n        /* \"tp2/auction.sol\":6837:6867  stage = Stage(uint(stage) + 1) */\n      0x0100\n      exp\n      dup2\n      sload\n      dup2\n      0xff\n      mul\n      not\n      and\n      swap1\n      dup4\n      0x01\n      dup2\n      gt\n      iszero\n      tag_218\n      jumpi\n      tag_219\n      tag_28\n      jump\t// in\n    tag_219:\n    tag_218:\n      mul\n      or\n      swap1\n      sstore\n      pop\n        /* \"tp2/auction.sol\":6797:6874  function nextStage() internal {... */\n      jump\t// out\n    tag_41:\n      mload(0x40)\n      dup1\n      0xa0\n      add\n      0x40\n      mstore\n      dup1\n      iszero(iszero(0x00))\n      dup2\n      mstore\n      0x20\n      add\n      0x00\n      dup2\n      mstore\n      0x20\n      add\n      0x00\n      dup2\n      mstore\n      0x20\n      add\n      0x00\n      dup2\n      mstore\n      0x20\n      add\n      and(0xffffffffffffffffffffffffffffffffffffffff, 0x00)\n      dup2\n      mstore\n      pop\n      swap1\n      jump\t// out\n        /* \"#utility.yul\":7:140   */\n    tag_220:\n        /* \"#utility.yul\":93:99   */\n      0x00\n        /* \"#utility.yul\":127:132   */\n      dup2\n        /* \"#utility.yul\":121:133   */\n      mload\n        /* \"#utility.yul\":111:133   */\n      swap1\n      pop\n        /* \"#utility.yul\":7:140   */\n      swap2\n      swap1\n      pop\n      jump\t// out\n        /* \"#utility.yul\":146:349   */\n    tag_221:\n        /* \"#utility.yul\":264:275   */\n      0x00\n        /* \"#utility.yul\":298:304   */\n      dup3\n        /* \"#utility.yul\":293:296   */\n      dup3\n        /* \"#utility.yul\":286:305   */\n      mstore\n        /* \"#utility.yul\":338:342   */\n      0x20\n        /* \"#utility.yul\":333:336   */\n      dup3\n        /* \"#utility.yul\":329:343   */\n      add\n        /* \"#utility.yul\":314:343   */\n      swap1\n      pop\n        /* \"#utility.yul\":146:349   */\n      swap3\n      swap2\n      pop\n      pop\n      jump\t// out\n        /* \"#utility.yul\":355:506   */\n    tag_222:\n        /* \"#utility.yul\":441:445   */\n      0x00\n        /* \"#utility.yul\":464:467   */\n      dup2\n        /* \"#utility.yul\":456:467   */\n      swap1\n      pop\n        /* \"#utility.yul\":494:498   */\n      0x20\n        /* \"#utility.yul\":489:492   */\n      dup3\n        /* \"#utility.yul\":485:499   */\n      add\n        /* \"#utility.yul\":477:499   */\n      swap1\n      pop\n        /* \"#utility.yul\":355:506   */\n      swap2\n      swap1\n      pop\n      jump\t// out\n        /* \"#utility.yul\":512:602   */\n    tag_223:\n        /* \"#utility.yul\":546:553   */\n      0x00\n        /* \"#utility.yul\":589:594   */\n      dup2\n        /* \"#utility.yul\":582:595   */\n      iszero\n        /* \"#utility.yul\":575:596   */\n      iszero\n        /* \"#utility.yul\":564:596   */\n      swap1\n      pop\n        /* \"#utility.yul\":512:602   */\n      swap2\n      swap1\n      pop\n      jump\t// out\n        /* \"#utility.yul\":608:707   */\n    tag_224:\n        /* \"#utility.yul\":679:700   */\n      tag_264\n        /* \"#utility.yul\":694:699   */\n      dup2\n        /* \"#utility.yul\":679:700   */\n      tag_223\n      jump\t// in\n    tag_264:\n        /* \"#utility.yul\":674:677   */\n      dup3\n        /* \"#utility.yul\":667:701   */\n      mstore\n        /* \"#utility.yul\":608:707   */\n      pop\n      pop\n      jump\t// out\n        /* \"#utility.yul\":713:790   */\n    tag_225:\n        /* \"#utility.yul\":750:757   */\n      0x00\n        /* \"#utility.yul\":779:784   */\n      dup2\n        /* \"#utility.yul\":768:784   */\n      swap1\n      pop\n        /* \"#utility.yul\":713:790   */\n      swap2\n      swap1\n      pop\n      jump\t// out\n        /* \"#utility.yul\":796:904   */\n    tag_226:\n        /* \"#utility.yul\":873:897   */\n      tag_267\n        /* \"#utility.yul\":891:896   */\n      dup2\n        /* \"#utility.yul\":873:897   */\n      tag_225\n      jump\t// in\n    tag_267:\n        /* \"#utility.yul\":868:871   */\n      dup3\n        /* \"#utility.yul\":861:898   */\n      mstore\n        /* \"#utility.yul\":796:904   */\n      pop\n      pop\n      jump\t// out\n        /* \"#utility.yul\":910:1036   */\n    tag_227:\n        /* \"#utility.yul\":947:954   */\n      0x00\n        /* \"#utility.yul\":987:1029   */\n      0xffffffffffffffffffffffffffffffffffffffff\n        /* \"#utility.yul\":980:985   */\n      dup3\n        /* \"#utility.yul\":976:1030   */\n      and\n        /* \"#utility.yul\":965:1030   */\n      swap1\n      pop\n        /* \"#utility.yul\":910:1036   */\n      swap2\n      swap1\n      pop\n      jump\t// out\n        /* \"#utility.yul\":1042:1138   */\n    tag_228:\n        /* \"#utility.yul\":1079:1086   */\n      0x00\n        /* \"#utility.yul\":1108:1132   */\n      tag_270\n        /* \"#utility.yul\":1126:1131   */\n      dup3\n        /* \"#utility.yul\":1108:1132   */\n      tag_227\n      jump\t// in\n    tag_270:\n        /* \"#utility.yul\":1097:1132   */\n      swap1\n      pop\n        /* \"#utility.yul\":1042:1138   */\n      swap2\n      swap1\n      pop\n      jump\t// out\n        /* \"#utility.yul\":1144:1252   */\n    tag_229:\n        /* \"#utility.yul\":1221:1245   */\n      tag_272\n        /* \"#utility.yul\":1239:1244   */\n      dup2\n        /* \"#utility.yul\":1221:1245   */\n      tag_228\n      jump\t// in\n    tag_272:\n        /* \"#utility.yul\":1216:1219   */\n      dup3\n        /* \"#utility.yul\":1209:1246   */\n      mstore\n        /* \"#utility.yul\":1144:1252   */\n      pop\n      pop\n      jump\t// out\n        /* \"#utility.yul\":1306:2324   */\n    tag_230:\n        /* \"#utility.yul\":1431:1435   */\n      0xa0\n        /* \"#utility.yul\":1426:1429   */\n      dup3\n        /* \"#utility.yul\":1422:1436   */\n      add\n        /* \"#utility.yul\":1520:1524   */\n      0x00\n        /* \"#utility.yul\":1513:1518   */\n      dup3\n        /* \"#utility.yul\":1509:1525   */\n      add\n        /* \"#utility.yul\":1503:1526   */\n      mload\n        /* \"#utility.yul\":1539:1596   */\n      tag_274\n        /* \"#utility.yul\":1590:1594   */\n      0x00\n        /* \"#utility.yul\":1585:1588   */\n      dup6\n        /* \"#utility.yul\":1581:1595   */\n      add\n        /* \"#utility.yul\":1567:1579   */\n      dup3\n        /* \"#utility.yul\":1539:1596   */\n      tag_224\n      jump\t// in\n    tag_274:\n        /* \"#utility.yul\":1446:1606   */\n      pop\n        /* \"#utility.yul\":1693:1697   */\n      0x20\n        /* \"#utility.yul\":1686:1691   */\n      dup3\n        /* \"#utility.yul\":1682:1698   */\n      add\n        /* \"#utility.yul\":1676:1699   */\n      mload\n        /* \"#utility.yul\":1712:1775   */\n      tag_275\n        /* \"#utility.yul\":1769:1773   */\n      0x20\n        /* \"#utility.yul\":1764:1767   */\n      dup6\n        /* \"#utility.yul\":1760:1774   */\n      add\n        /* \"#utility.yul\":1746:1758   */\n      dup3\n        /* \"#utility.yul\":1712:1775   */\n      tag_226\n      jump\t// in\n    tag_275:\n        /* \"#utility.yul\":1616:1785   */\n      pop\n        /* \"#utility.yul\":1874:1878   */\n      0x40\n        /* \"#utility.yul\":1867:1872   */\n      dup3\n        /* \"#utility.yul\":1863:1879   */\n      add\n        /* \"#utility.yul\":1857:1880   */\n      mload\n        /* \"#utility.yul\":1893:1956   */\n      tag_276\n        /* \"#utility.yul\":1950:1954   */\n      0x40\n        /* \"#utility.yul\":1945:1948   */\n      dup6\n        /* \"#utility.yul\":1941:1955   */\n      add\n        /* \"#utility.yul\":1927:1939   */\n      dup3\n        /* \"#utility.yul\":1893:1956   */\n      tag_226\n      jump\t// in\n    tag_276:\n        /* \"#utility.yul\":1795:1966   */\n      pop\n        /* \"#utility.yul\":2050:2054   */\n      0x60\n        /* \"#utility.yul\":2043:2048   */\n      dup3\n        /* \"#utility.yul\":2039:2055   */\n      add\n        /* \"#utility.yul\":2033:2056   */\n      mload\n        /* \"#utility.yul\":2069:2132   */\n      tag_277\n        /* \"#utility.yul\":2126:2130   */\n      0x60\n        /* \"#utility.yul\":2121:2124   */\n      dup6\n        /* \"#utility.yul\":2117:2131   */\n      add\n        /* \"#utility.yul\":2103:2115   */\n      dup3\n        /* \"#utility.yul\":2069:2132   */\n      tag_226\n      jump\t// in\n    tag_277:\n        /* \"#utility.yul\":1976:2142   */\n      pop\n        /* \"#utility.yul\":2225:2229   */\n      0x80\n        /* \"#utility.yul\":2218:2223   */\n      dup3\n        /* \"#utility.yul\":2214:2230   */\n      add\n        /* \"#utility.yul\":2208:2231   */\n      mload\n        /* \"#utility.yul\":2244:2307   */\n      tag_278\n        /* \"#utility.yul\":2301:2305   */\n      0x80\n        /* \"#utility.yul\":2296:2299   */\n      dup6\n        /* \"#utility.yul\":2292:2306   */\n      add\n        /* \"#utility.yul\":2278:2290   */\n      dup3\n        /* \"#utility.yul\":2244:2307   */\n      tag_229\n      jump\t// in\n    tag_278:\n        /* \"#utility.yul\":2152:2317   */\n      pop\n        /* \"#utility.yul\":1400:2324   */\n      pop\n        /* \"#utility.yul\":1306:2324   */\n      pop\n      pop\n      jump\t// out\n        /* \"#utility.yul\":2330:2585   */\n    tag_231:\n        /* \"#utility.yul\":2437:2447   */\n      0x00\n        /* \"#utility.yul\":2458:2542   */\n      tag_280\n        /* \"#utility.yul\":2538:2541   */\n      dup4\n        /* \"#utility.yul\":2530:2536   */\n      dup4\n        /* \"#utility.yul\":2458:2542   */\n      tag_230\n      jump\t// in\n    tag_280:\n        /* \"#utility.yul\":2574:2578   */\n      0xa0\n        /* \"#utility.yul\":2569:2572   */\n      dup4\n        /* \"#utility.yul\":2565:2579   */\n      add\n        /* \"#utility.yul\":2551:2579   */\n      swap1\n      pop\n        /* \"#utility.yul\":2330:2585   */\n      swap3\n      swap2\n      pop\n      pop\n      jump\t// out\n        /* \"#utility.yul\":2591:2723   */\n    tag_232:\n        /* \"#utility.yul\":2680:2684   */\n      0x00\n        /* \"#utility.yul\":2712:2716   */\n      0x20\n        /* \"#utility.yul\":2707:2710   */\n      dup3\n        /* \"#utility.yul\":2703:2717   */\n      add\n        /* \"#utility.yul\":2695:2717   */\n      swap1\n      pop\n        /* \"#utility.yul\":2591:2723   */\n      swap2\n      swap1\n      pop\n      jump\t// out\n        /* \"#utility.yul\":2781:3665   */\n    tag_233:\n        /* \"#utility.yul\":2938:2941   */\n      0x00\n        /* \"#utility.yul\":2967:3040   */\n      tag_283\n        /* \"#utility.yul\":3034:3039   */\n      dup3\n        /* \"#utility.yul\":2967:3040   */\n      tag_220\n      jump\t// in\n    tag_283:\n        /* \"#utility.yul\":3056:3161   */\n      tag_284\n        /* \"#utility.yul\":3154:3160   */\n      dup2\n        /* \"#utility.yul\":3149:3152   */\n      dup6\n        /* \"#utility.yul\":3056:3161   */\n      tag_221\n      jump\t// in\n    tag_284:\n        /* \"#utility.yul\":3049:3161   */\n      swap4\n      pop\n        /* \"#utility.yul\":3185:3260   */\n      tag_285\n        /* \"#utility.yul\":3254:3259   */\n      dup4\n        /* \"#utility.yul\":3185:3260   */\n      tag_222\n      jump\t// in\n    tag_285:\n        /* \"#utility.yul\":3283:3290   */\n      dup1\n        /* \"#utility.yul\":3314:3315   */\n      0x00\n        /* \"#utility.yul\":3299:3640   */\n    tag_286:\n        /* \"#utility.yul\":3324:3330   */\n      dup4\n        /* \"#utility.yul\":3321:3322   */\n      dup2\n        /* \"#utility.yul\":3318:3331   */\n      lt\n        /* \"#utility.yul\":3299:3640   */\n      iszero\n      tag_288\n      jumpi\n        /* \"#utility.yul\":3400:3406   */\n      dup2\n        /* \"#utility.yul\":3394:3407   */\n      mload\n        /* \"#utility.yul\":3427:3528   */\n      tag_289\n        /* \"#utility.yul\":3524:3527   */\n      dup9\n        /* \"#utility.yul\":3509:3522   */\n      dup3\n        /* \"#utility.yul\":3427:3528   */\n      tag_231\n      jump\t// in\n    tag_289:\n        /* \"#utility.yul\":3420:3528   */\n      swap8\n      pop\n        /* \"#utility.yul\":3551:3630   */\n      tag_290\n        /* \"#utility.yul\":3623:3629   */\n      dup4\n        /* \"#utility.yul\":3551:3630   */\n      tag_232\n      jump\t// in\n    tag_290:\n        /* \"#utility.yul\":3541:3630   */\n      swap3\n      pop\n        /* \"#utility.yul\":3359:3640   */\n      pop\n        /* \"#utility.yul\":3346:3347   */\n      0x01\n        /* \"#utility.yul\":3343:3344   */\n      dup2\n        /* \"#utility.yul\":3339:3348   */\n      add\n        /* \"#utility.yul\":3334:3348   */\n      swap1\n      pop\n        /* \"#utility.yul\":3299:3640   */\n      jump(tag_286)\n    tag_288:\n        /* \"#utility.yul\":3303:3317   */\n      pop\n        /* \"#utility.yul\":3656:3659   */\n      dup6\n        /* \"#utility.yul\":3649:3659   */\n      swap4\n      pop\n        /* \"#utility.yul\":2943:3665   */\n      pop\n      pop\n      pop\n        /* \"#utility.yul\":2781:3665   */\n      swap3\n      swap2\n      pop\n      pop\n      jump\t// out\n        /* \"#utility.yul\":3671:4120   */\n    tag_11:\n        /* \"#utility.yul\":3852:3856   */\n      0x00\n        /* \"#utility.yul\":3890:3892   */\n      0x20\n        /* \"#utility.yul\":3879:3888   */\n      dup3\n        /* \"#utility.yul\":3875:3893   */\n      add\n        /* \"#utility.yul\":3867:3893   */\n      swap1\n      pop\n        /* \"#utility.yul\":3939:3948   */\n      dup2\n        /* \"#utility.yul\":3933:3937   */\n      dup2\n        /* \"#utility.yul\":3929:3949   */\n      sub\n        /* \"#utility.yul\":3925:3926   */\n      0x00\n        /* \"#utility.yul\":3914:3923   */\n      dup4\n        /* \"#utility.yul\":3910:3927   */\n      add\n        /* \"#utility.yul\":3903:3950   */\n      mstore\n        /* \"#utility.yul\":3967:4113   */\n      tag_292\n        /* \"#utility.yul\":4108:4112   */\n      dup2\n        /* \"#utility.yul\":4099:4105   */\n      dup5\n        /* \"#utility.yul\":3967:4113   */\n      tag_233\n      jump\t// in\n    tag_292:\n        /* \"#utility.yul\":3959:4113   */\n      swap1\n      pop\n        /* \"#utility.yul\":3671:4120   */\n      swap3\n      swap2\n      pop\n      pop\n      jump\t// out\n        /* \"#utility.yul\":4126:4244   */\n    tag_234:\n        /* \"#utility.yul\":4213:4237   */\n      tag_294\n        /* \"#utility.yul\":4231:4236   */\n      dup2\n        /* \"#utility.yul\":4213:4237   */\n      tag_228\n      jump\t// in\n    tag_294:\n        /* \"#utility.yul\":4208:4211   */\n      dup3\n        /* \"#utility.yul\":4201:4238   */\n      mstore\n        /* \"#utility.yul\":4126:4244   */\n      pop\n      pop\n      jump\t// out\n        /* \"#utility.yul\":4250:4368   */\n    tag_235:\n        /* \"#utility.yul\":4337:4361   */\n      tag_296\n        /* \"#utility.yul\":4355:4360   */\n      dup2\n        /* \"#utility.yul\":4337:4361   */\n      tag_225\n      jump\t// in\n    tag_296:\n        /* \"#utility.yul\":4332:4335   */\n      dup3\n        /* \"#utility.yul\":4325:4362   */\n      mstore\n        /* \"#utility.yul\":4250:4368   */\n      pop\n      pop\n      jump\t// out\n        /* \"#utility.yul\":4374:4706   */\n    tag_21:\n        /* \"#utility.yul\":4495:4499   */\n      0x00\n        /* \"#utility.yul\":4533:4535   */\n      0x40\n        /* \"#utility.yul\":4522:4531   */\n      dup3\n        /* \"#utility.yul\":4518:4536   */\n      add\n        /* \"#utility.yul\":4510:4536   */\n      swap1\n      pop\n        /* \"#utility.yul\":4546:4617   */\n      tag_298\n        /* \"#utility.yul\":4614:4615   */\n      0x00\n        /* \"#utility.yul\":4603:4612   */\n      dup4\n        /* \"#utility.yul\":4599:4616   */\n      add\n        /* \"#utility.yul\":4590:4596   */\n      dup6\n        /* \"#utility.yul\":4546:4617   */\n      tag_234\n      jump\t// in\n    tag_298:\n        /* \"#utility.yul\":4627:4699   */\n      tag_299\n        /* \"#utility.yul\":4695:4697   */\n      0x20\n        /* \"#utility.yul\":4684:4693   */\n      dup4\n        /* \"#utility.yul\":4680:4698   */\n      add\n        /* \"#utility.yul\":4671:4677   */\n      dup5\n        /* \"#utility.yul\":4627:4699   */\n      tag_235\n      jump\t// in\n    tag_299:\n        /* \"#utility.yul\":4374:4706   */\n      swap4\n      swap3\n      pop\n      pop\n      pop\n      jump\t// out\n        /* \"#utility.yul\":4712:4892   */\n    tag_28:\n        /* \"#utility.yul\":4760:4837   */\n      0x4e487b7100000000000000000000000000000000000000000000000000000000\n        /* \"#utility.yul\":4757:4758   */\n      0x00\n        /* \"#utility.yul\":4750:4838   */\n      mstore\n        /* \"#utility.yul\":4857:4861   */\n      0x21\n        /* \"#utility.yul\":4854:4855   */\n      0x04\n        /* \"#utility.yul\":4847:4862   */\n      mstore\n        /* \"#utility.yul\":4881:4885   */\n      0x24\n        /* \"#utility.yul\":4878:4879   */\n      0x00\n        /* \"#utility.yul\":4871:4886   */\n      revert\n        /* \"#utility.yul\":4898:5011   */\n    tag_236:\n        /* \"#utility.yul\":4979:4980   */\n      0x02\n        /* \"#utility.yul\":4972:4977   */\n      dup2\n        /* \"#utility.yul\":4969:4981   */\n      lt\n        /* \"#utility.yul\":4959:5005   */\n      tag_302\n      jumpi\n        /* \"#utility.yul\":4985:5003   */\n      tag_303\n      tag_28\n      jump\t// in\n    tag_303:\n        /* \"#utility.yul\":4959:5005   */\n    tag_302:\n        /* \"#utility.yul\":4898:5011   */\n      pop\n      jump\t// out\n        /* \"#utility.yul\":5017:5144   */\n    tag_237:\n        /* \"#utility.yul\":5062:5069   */\n      0x00\n        /* \"#utility.yul\":5091:5096   */\n      dup2\n        /* \"#utility.yul\":5080:5096   */\n      swap1\n      pop\n        /* \"#utility.yul\":5097:5138   */\n      tag_305\n        /* \"#utility.yul\":5132:5137   */\n      dup3\n        /* \"#utility.yul\":5097:5138   */\n      tag_236\n      jump\t// in\n    tag_305:\n        /* \"#utility.yul\":5017:5144   */\n      swap2\n      swap1\n      pop\n      jump\t// out\n        /* \"#utility.yul\":5150:5277   */\n    tag_238:\n        /* \"#utility.yul\":5206:5215   */\n      0x00\n        /* \"#utility.yul\":5239:5271   */\n      tag_307\n        /* \"#utility.yul\":5265:5270   */\n      dup3\n        /* \"#utility.yul\":5239:5271   */\n      tag_237\n      jump\t// in\n    tag_307:\n        /* \"#utility.yul\":5226:5271   */\n      swap1\n      pop\n        /* \"#utility.yul\":5150:5277   */\n      swap2\n      swap1\n      pop\n      jump\t// out\n        /* \"#utility.yul\":5283:5426   */\n    tag_239:\n        /* \"#utility.yul\":5376:5419   */\n      tag_309\n        /* \"#utility.yul\":5413:5418   */\n      dup2\n        /* \"#utility.yul\":5376:5419   */\n      tag_238\n      jump\t// in\n    tag_309:\n        /* \"#utility.yul\":5371:5374   */\n      dup3\n        /* \"#utility.yul\":5364:5420   */\n      mstore\n        /* \"#utility.yul\":5283:5426   */\n      pop\n      pop\n      jump\t// out\n        /* \"#utility.yul\":5432:5666   */\n    tag_33:\n        /* \"#utility.yul\":5531:5535   */\n      0x00\n        /* \"#utility.yul\":5569:5571   */\n      0x20\n        /* \"#utility.yul\":5558:5567   */\n      dup3\n        /* \"#utility.yul\":5554:5572   */\n      add\n        /* \"#utility.yul\":5546:5572   */\n      swap1\n      pop\n        /* \"#utility.yul\":5582:5659   */\n      tag_311\n        /* \"#utility.yul\":5656:5657   */\n      0x00\n        /* \"#utility.yul\":5645:5654   */\n      dup4\n        /* \"#utility.yul\":5641:5658   */\n      add\n        /* \"#utility.yul\":5632:5638   */\n      dup5\n        /* \"#utility.yul\":5582:5659   */\n      tag_239\n      jump\t// in\n    tag_311:\n        /* \"#utility.yul\":5432:5666   */\n      swap3\n      swap2\n      pop\n      pop\n      jump\t// out\n        /* \"#utility.yul\":5672:5852   */\n    tag_37:\n        /* \"#utility.yul\":5720:5797   */\n      0x4e487b7100000000000000000000000000000000000000000000000000000000\n        /* \"#utility.yul\":5717:5718   */\n      0x00\n        /* \"#utility.yul\":5710:5798   */\n      mstore\n        /* \"#utility.yul\":5817:5821   */\n      0x41\n        /* \"#utility.yul\":5814:5815   */\n      0x04\n        /* \"#utility.yul\":5807:5822   */\n      mstore\n        /* \"#utility.yul\":5841:5845   */\n      0x24\n        /* \"#utility.yul\":5838:5839   */\n      0x00\n        /* \"#utility.yul\":5831:5846   */\n      revert\n        /* \"#utility.yul\":5858:6038   */\n    tag_47:\n        /* \"#utility.yul\":5906:5983   */\n      0x4e487b7100000000000000000000000000000000000000000000000000000000\n        /* \"#utility.yul\":5903:5904   */\n      0x00\n        /* \"#utility.yul\":5896:5984   */\n      mstore\n        /* \"#utility.yul\":6003:6007   */\n      0x32\n        /* \"#utility.yul\":6000:6001   */\n      0x04\n        /* \"#utility.yul\":5993:6008   */\n      mstore\n        /* \"#utility.yul\":6027:6031   */\n      0x24\n        /* \"#utility.yul\":6024:6025   */\n      0x00\n        /* \"#utility.yul\":6017:6032   */\n      revert\n        /* \"#utility.yul\":6044:6224   */\n    tag_240:\n        /* \"#utility.yul\":6092:6169   */\n      0x4e487b7100000000000000000000000000000000000000000000000000000000\n        /* \"#utility.yul\":6089:6090   */\n      0x00\n        /* \"#utility.yul\":6082:6170   */\n      mstore\n        /* \"#utility.yul\":6189:6193   */\n      0x11\n        /* \"#utility.yul\":6186:6187   */\n      0x04\n        /* \"#utility.yul\":6179:6194   */\n      mstore\n        /* \"#utility.yul\":6213:6217   */\n      0x24\n        /* \"#utility.yul\":6210:6211   */\n      0x00\n        /* \"#utility.yul\":6203:6218   */\n      revert\n        /* \"#utility.yul\":6230:6421   */\n    tag_54:\n        /* \"#utility.yul\":6270:6273   */\n      0x00\n        /* \"#utility.yul\":6289:6309   */\n      tag_316\n        /* \"#utility.yul\":6307:6308   */\n      dup3\n        /* \"#utility.yul\":6289:6309   */\n      tag_225\n      jump\t// in\n    tag_316:\n        /* \"#utility.yul\":6284:6309   */\n      swap2\n      pop\n        /* \"#utility.yul\":6323:6343   */\n      tag_317\n        /* \"#utility.yul\":6341:6342   */\n      dup4\n        /* \"#utility.yul\":6323:6343   */\n      tag_225\n      jump\t// in\n    tag_317:\n        /* \"#utility.yul\":6318:6343   */\n      swap3\n      pop\n        /* \"#utility.yul\":6366:6367   */\n      dup3\n        /* \"#utility.yul\":6363:6364   */\n      dup3\n        /* \"#utility.yul\":6359:6368   */\n      add\n        /* \"#utility.yul\":6352:6368   */\n      swap1\n      pop\n        /* \"#utility.yul\":6387:6390   */\n      dup1\n        /* \"#utility.yul\":6384:6385   */\n      dup3\n        /* \"#utility.yul\":6381:6391   */\n      gt\n        /* \"#utility.yul\":6378:6414   */\n      iszero\n      tag_318\n      jumpi\n        /* \"#utility.yul\":6394:6412   */\n      tag_319\n      tag_240\n      jump\t// in\n    tag_319:\n        /* \"#utility.yul\":6378:6414   */\n    tag_318:\n        /* \"#utility.yul\":6230:6421   */\n      swap3\n      swap2\n      pop\n      pop\n      jump\t// out\n        /* \"#utility.yul\":6427:6837   */\n    tag_73:\n        /* \"#utility.yul\":6467:6474   */\n      0x00\n        /* \"#utility.yul\":6490:6510   */\n      tag_321\n        /* \"#utility.yul\":6508:6509   */\n      dup3\n        /* \"#utility.yul\":6490:6510   */\n      tag_225\n      jump\t// in\n    tag_321:\n        /* \"#utility.yul\":6485:6510   */\n      swap2\n      pop\n        /* \"#utility.yul\":6524:6544   */\n      tag_322\n        /* \"#utility.yul\":6542:6543   */\n      dup4\n        /* \"#utility.yul\":6524:6544   */\n      tag_225\n      jump\t// in\n    tag_322:\n        /* \"#utility.yul\":6519:6544   */\n      swap3\n      pop\n        /* \"#utility.yul\":6579:6580   */\n      dup3\n        /* \"#utility.yul\":6576:6577   */\n      dup3\n        /* \"#utility.yul\":6572:6581   */\n      mul\n        /* \"#utility.yul\":6601:6631   */\n      tag_323\n        /* \"#utility.yul\":6619:6630   */\n      dup2\n        /* \"#utility.yul\":6601:6631   */\n      tag_225\n      jump\t// in\n    tag_323:\n        /* \"#utility.yul\":6590:6631   */\n      swap2\n      pop\n        /* \"#utility.yul\":6780:6781   */\n      dup3\n        /* \"#utility.yul\":6771:6778   */\n      dup3\n        /* \"#utility.yul\":6767:6782   */\n      div\n        /* \"#utility.yul\":6764:6765   */\n      dup5\n        /* \"#utility.yul\":6761:6783   */\n      eq\n        /* \"#utility.yul\":6741:6742   */\n      dup4\n        /* \"#utility.yul\":6734:6743   */\n      iszero\n        /* \"#utility.yul\":6714:6797   */\n      or\n        /* \"#utility.yul\":6691:6830   */\n      tag_324\n      jumpi\n        /* \"#utility.yul\":6810:6828   */\n      tag_325\n      tag_240\n      jump\t// in\n    tag_325:\n        /* \"#utility.yul\":6691:6830   */\n    tag_324:\n        /* \"#utility.yul\":6475:6837   */\n      pop\n        /* \"#utility.yul\":6427:6837   */\n      swap3\n      swap2\n      pop\n      pop\n      jump\t// out\n        /* \"#utility.yul\":6843:7023   */\n    tag_241:\n        /* \"#utility.yul\":6891:6968   */\n      0x4e487b7100000000000000000000000000000000000000000000000000000000\n        /* \"#utility.yul\":6888:6889   */\n      0x00\n        /* \"#utility.yul\":6881:6969   */\n      mstore\n        /* \"#utility.yul\":6988:6992   */\n      0x12\n        /* \"#utility.yul\":6985:6986   */\n      0x04\n        /* \"#utility.yul\":6978:6993   */\n      mstore\n        /* \"#utility.yul\":7012:7016   */\n      0x24\n        /* \"#utility.yul\":7009:7010   */\n      0x00\n        /* \"#utility.yul\":7002:7017   */\n      revert\n        /* \"#utility.yul\":7029:7214   */\n    tag_75:\n        /* \"#utility.yul\":7069:7070   */\n      0x00\n        /* \"#utility.yul\":7086:7106   */\n      tag_328\n        /* \"#utility.yul\":7104:7105   */\n      dup3\n        /* \"#utility.yul\":7086:7106   */\n      tag_225\n      jump\t// in\n    tag_328:\n        /* \"#utility.yul\":7081:7106   */\n      swap2\n      pop\n        /* \"#utility.yul\":7120:7140   */\n      tag_329\n        /* \"#utility.yul\":7138:7139   */\n      dup4\n        /* \"#utility.yul\":7120:7140   */\n      tag_225\n      jump\t// in\n    tag_329:\n        /* \"#utility.yul\":7115:7140   */\n      swap3\n      pop\n        /* \"#utility.yul\":7159:7160   */\n      dup3\n        /* \"#utility.yul\":7149:7184   */\n      tag_330\n      jumpi\n        /* \"#utility.yul\":7164:7182   */\n      tag_331\n      tag_241\n      jump\t// in\n    tag_331:\n        /* \"#utility.yul\":7149:7184   */\n    tag_330:\n        /* \"#utility.yul\":7206:7207   */\n      dup3\n        /* \"#utility.yul\":7203:7204   */\n      dup3\n        /* \"#utility.yul\":7199:7208   */\n      div\n        /* \"#utility.yul\":7194:7208   */\n      swap1\n      pop\n        /* \"#utility.yul\":7029:7214   */\n      swap3\n      swap2\n      pop\n      pop\n      jump\t// out\n        /* \"#utility.yul\":7220:7389   */\n    tag_242:\n        /* \"#utility.yul\":7304:7315   */\n      0x00\n        /* \"#utility.yul\":7338:7344   */\n      dup3\n        /* \"#utility.yul\":7333:7336   */\n      dup3\n        /* \"#utility.yul\":7326:7345   */\n      mstore\n        /* \"#utility.yul\":7378:7382   */\n      0x20\n        /* \"#utility.yul\":7373:7376   */\n      dup3\n        /* \"#utility.yul\":7369:7383   */\n      add\n        /* \"#utility.yul\":7354:7383   */\n      swap1\n      pop\n        /* \"#utility.yul\":7220:7389   */\n      swap3\n      swap2\n      pop\n      pop\n      jump\t// out\n        /* \"#utility.yul\":7395:7632   */\n    tag_243:\n        /* \"#utility.yul\":7535:7569   */\n      0x412076616c696420626964206d75737420626520352025206772656174657220\n        /* \"#utility.yul\":7531:7532   */\n      0x00\n        /* \"#utility.yul\":7523:7529   */\n      dup3\n        /* \"#utility.yul\":7519:7533   */\n      add\n        /* \"#utility.yul\":7512:7570   */\n      mstore\n        /* \"#utility.yul\":7604:7624   */\n      0x7468616e20746865206c617374206269642e0000000000000000000000000000\n        /* \"#utility.yul\":7599:7601   */\n      0x20\n        /* \"#utility.yul\":7591:7597   */\n      dup3\n        /* \"#utility.yul\":7587:7602   */\n      add\n        /* \"#utility.yul\":7580:7625   */\n      mstore\n        /* \"#utility.yul\":7395:7632   */\n      pop\n      jump\t// out\n        /* \"#utility.yul\":7638:8004   */\n    tag_244:\n        /* \"#utility.yul\":7780:7783   */\n      0x00\n        /* \"#utility.yul\":7801:7868   */\n      tag_335\n        /* \"#utility.yul\":7865:7867   */\n      0x32\n        /* \"#utility.yul\":7860:7863   */\n      dup4\n        /* \"#utility.yul\":7801:7868   */\n      tag_242\n      jump\t// in\n    tag_335:\n        /* \"#utility.yul\":7794:7868   */\n      swap2\n      pop\n        /* \"#utility.yul\":7877:7970   */\n      tag_336\n        /* \"#utility.yul\":7966:7969   */\n      dup3\n        /* \"#utility.yul\":7877:7970   */\n      tag_243\n      jump\t// in\n    tag_336:\n        /* \"#utility.yul\":7995:7997   */\n      0x40\n        /* \"#utility.yul\":7990:7993   */\n      dup3\n        /* \"#utility.yul\":7986:7998   */\n      add\n        /* \"#utility.yul\":7979:7998   */\n      swap1\n      pop\n        /* \"#utility.yul\":7638:8004   */\n      swap2\n      swap1\n      pop\n      jump\t// out\n        /* \"#utility.yul\":8010:8429   */\n    tag_79:\n        /* \"#utility.yul\":8176:8180   */\n      0x00\n        /* \"#utility.yul\":8214:8216   */\n      0x20\n        /* \"#utility.yul\":8203:8212   */\n      dup3\n        /* \"#utility.yul\":8199:8217   */\n      add\n        /* \"#utility.yul\":8191:8217   */\n      swap1\n      pop\n        /* \"#utility.yul\":8263:8272   */\n      dup2\n        /* \"#utility.yul\":8257:8261   */\n      dup2\n        /* \"#utility.yul\":8253:8273   */\n      sub\n        /* \"#utility.yul\":8249:8250   */\n      0x00\n        /* \"#utility.yul\":8238:8247   */\n      dup4\n        /* \"#utility.yul\":8234:8251   */\n      add\n        /* \"#utility.yul\":8227:8274   */\n      mstore\n        /* \"#utility.yul\":8291:8422   */\n      tag_338\n        /* \"#utility.yul\":8417:8421   */\n      dup2\n        /* \"#utility.yul\":8291:8422   */\n      tag_244\n      jump\t// in\n    tag_338:\n        /* \"#utility.yul\":8283:8422   */\n      swap1\n      pop\n        /* \"#utility.yul\":8010:8429   */\n      swap2\n      swap1\n      pop\n      jump\t// out\n        /* \"#utility.yul\":8435:8657   */\n    tag_85:\n        /* \"#utility.yul\":8528:8532   */\n      0x00\n        /* \"#utility.yul\":8566:8568   */\n      0x20\n        /* \"#utility.yul\":8555:8564   */\n      dup3\n        /* \"#utility.yul\":8551:8569   */\n      add\n        /* \"#utility.yul\":8543:8569   */\n      swap1\n      pop\n        /* \"#utility.yul\":8579:8650   */\n      tag_340\n        /* \"#utility.yul\":8647:8648   */\n      0x00\n        /* \"#utility.yul\":8636:8645   */\n      dup4\n        /* \"#utility.yul\":8632:8649   */\n      add\n        /* \"#utility.yul\":8623:8629   */\n      dup5\n        /* \"#utility.yul\":8579:8650   */\n      tag_235\n      jump\t// in\n    tag_340:\n        /* \"#utility.yul\":8435:8657   */\n      swap3\n      swap2\n      pop\n      pop\n      jump\t// out\n        /* \"#utility.yul\":8663:8840   */\n    tag_245:\n        /* \"#utility.yul\":8803:8832   */\n      0x4f6e6c792041646d696e205573657220697320616c6c6f7765642e0000000000\n        /* \"#utility.yul\":8799:8800   */\n      0x00\n        /* \"#utility.yul\":8791:8797   */\n      dup3\n        /* \"#utility.yul\":8787:8801   */\n      add\n        /* \"#utility.yul\":8780:8833   */\n      mstore\n        /* \"#utility.yul\":8663:8840   */\n      pop\n      jump\t// out\n        /* \"#utility.yul\":8846:9212   */\n    tag_246:\n        /* \"#utility.yul\":8988:8991   */\n      0x00\n        /* \"#utility.yul\":9009:9076   */\n      tag_343\n        /* \"#utility.yul\":9073:9075   */\n      0x1b\n        /* \"#utility.yul\":9068:9071   */\n      dup4\n        /* \"#utility.yul\":9009:9076   */\n      tag_242\n      jump\t// in\n    tag_343:\n        /* \"#utility.yul\":9002:9076   */\n      swap2\n      pop\n        /* \"#utility.yul\":9085:9178   */\n      tag_344\n        /* \"#utility.yul\":9174:9177   */\n      dup3\n        /* \"#utility.yul\":9085:9178   */\n      tag_245\n      jump\t// in\n    tag_344:\n        /* \"#utility.yul\":9203:9205   */\n      0x20\n        /* \"#utility.yul\":9198:9201   */\n      dup3\n        /* \"#utility.yul\":9194:9206   */\n      add\n        /* \"#utility.yul\":9187:9206   */\n      swap1\n      pop\n        /* \"#utility.yul\":8846:9212   */\n      swap2\n      swap1\n      pop\n      jump\t// out\n        /* \"#utility.yul\":9218:9637   */\n    tag_105:\n        /* \"#utility.yul\":9384:9388   */\n      0x00\n        /* \"#utility.yul\":9422:9424   */\n      0x20\n        /* \"#utility.yul\":9411:9420   */\n      dup3\n        /* \"#utility.yul\":9407:9425   */\n      add\n        /* \"#utility.yul\":9399:9425   */\n      swap1\n      pop\n        /* \"#utility.yul\":9471:9480   */\n      dup2\n        /* \"#utility.yul\":9465:9469   */\n      dup2\n        /* \"#utility.yul\":9461:9481   */\n      sub\n        /* \"#utility.yul\":9457:9458   */\n      0x00\n        /* \"#utility.yul\":9446:9455   */\n      dup4\n        /* \"#utility.yul\":9442:9459   */\n      add\n        /* \"#utility.yul\":9435:9482   */\n      mstore\n        /* \"#utility.yul\":9499:9630   */\n      tag_346\n        /* \"#utility.yul\":9625:9629   */\n      dup2\n        /* \"#utility.yul\":9499:9630   */\n      tag_246\n      jump\t// in\n    tag_346:\n        /* \"#utility.yul\":9491:9630   */\n      swap1\n      pop\n        /* \"#utility.yul\":9218:9637   */\n      swap2\n      swap1\n      pop\n      jump\t// out\n        /* \"#utility.yul\":9643:9817   */\n    tag_247:\n        /* \"#utility.yul\":9783:9809   */\n      0x4f6e6c79204269646465722061726520616c6c6f7765642e0000000000000000\n        /* \"#utility.yul\":9779:9780   */\n      0x00\n        /* \"#utility.yul\":9771:9777   */\n      dup3\n        /* \"#utility.yul\":9767:9781   */\n      add\n        /* \"#utility.yul\":9760:9810   */\n      mstore\n        /* \"#utility.yul\":9643:9817   */\n      pop\n      jump\t// out\n        /* \"#utility.yul\":9823:10189   */\n    tag_248:\n        /* \"#utility.yul\":9965:9968   */\n      0x00\n        /* \"#utility.yul\":9986:10053   */\n      tag_349\n        /* \"#utility.yul\":10050:10052   */\n      0x18\n        /* \"#utility.yul\":10045:10048   */\n      dup4\n        /* \"#utility.yul\":9986:10053   */\n      tag_242\n      jump\t// in\n    tag_349:\n        /* \"#utility.yul\":9979:10053   */\n      swap2\n      pop\n        /* \"#utility.yul\":10062:10155   */\n      tag_350\n        /* \"#utility.yul\":10151:10154   */\n      dup3\n        /* \"#utility.yul\":10062:10155   */\n      tag_247\n      jump\t// in\n    tag_350:\n        /* \"#utility.yul\":10180:10182   */\n      0x20\n        /* \"#utility.yul\":10175:10178   */\n      dup3\n        /* \"#utility.yul\":10171:10183   */\n      add\n        /* \"#utility.yul\":10164:10183   */\n      swap1\n      pop\n        /* \"#utility.yul\":9823:10189   */\n      swap2\n      swap1\n      pop\n      jump\t// out\n        /* \"#utility.yul\":10195:10614   */\n    tag_113:\n        /* \"#utility.yul\":10361:10365   */\n      0x00\n        /* \"#utility.yul\":10399:10401   */\n      0x20\n        /* \"#utility.yul\":10388:10397   */\n      dup3\n        /* \"#utility.yul\":10384:10402   */\n      add\n        /* \"#utility.yul\":10376:10402   */\n      swap1\n      pop\n        /* \"#utility.yul\":10448:10457   */\n      dup2\n        /* \"#utility.yul\":10442:10446   */\n      dup2\n        /* \"#utility.yul\":10438:10458   */\n      sub\n        /* \"#utility.yul\":10434:10435   */\n      0x00\n        /* \"#utility.yul\":10423:10432   */\n      dup4\n        /* \"#utility.yul\":10419:10436   */\n      add\n        /* \"#utility.yul\":10412:10459   */\n      mstore\n        /* \"#utility.yul\":10476:10607   */\n      tag_352\n        /* \"#utility.yul\":10602:10606   */\n      dup2\n        /* \"#utility.yul\":10476:10607   */\n      tag_248\n      jump\t// in\n    tag_352:\n        /* \"#utility.yul\":10468:10607   */\n      swap1\n      pop\n        /* \"#utility.yul\":10195:10614   */\n      swap2\n      swap1\n      pop\n      jump\t// out\n        /* \"#utility.yul\":10620:10800   */\n    tag_249:\n        /* \"#utility.yul\":10668:10745   */\n      0x4e487b7100000000000000000000000000000000000000000000000000000000\n        /* \"#utility.yul\":10665:10666   */\n      0x00\n        /* \"#utility.yul\":10658:10746   */\n      mstore\n        /* \"#utility.yul\":10765:10769   */\n      0x22\n        /* \"#utility.yul\":10762:10763   */\n      0x04\n        /* \"#utility.yul\":10755:10770   */\n      mstore\n        /* \"#utility.yul\":10789:10793   */\n      0x24\n        /* \"#utility.yul\":10786:10787   */\n      0x00\n        /* \"#utility.yul\":10779:10794   */\n      revert\n        /* \"#utility.yul\":10806:11126   */\n    tag_250:\n        /* \"#utility.yul\":10850:10856   */\n      0x00\n        /* \"#utility.yul\":10887:10888   */\n      0x02\n        /* \"#utility.yul\":10881:10885   */\n      dup3\n        /* \"#utility.yul\":10877:10889   */\n      div\n        /* \"#utility.yul\":10867:10889   */\n      swap1\n      pop\n        /* \"#utility.yul\":10934:10935   */\n      0x01\n        /* \"#utility.yul\":10928:10932   */\n      dup3\n        /* \"#utility.yul\":10924:10936   */\n      and\n        /* \"#utility.yul\":10955:10973   */\n      dup1\n        /* \"#utility.yul\":10945:11026   */\n      tag_355\n      jumpi\n        /* \"#utility.yul\":11011:11015   */\n      0x7f\n        /* \"#utility.yul\":11003:11009   */\n      dup3\n        /* \"#utility.yul\":10999:11016   */\n      and\n        /* \"#utility.yul\":10989:11016   */\n      swap2\n      pop\n        /* \"#utility.yul\":10945:11026   */\n    tag_355:\n        /* \"#utility.yul\":11073:11075   */\n      0x20\n        /* \"#utility.yul\":11065:11071   */\n      dup3\n        /* \"#utility.yul\":11062:11076   */\n      lt\n        /* \"#utility.yul\":11042:11060   */\n      dup2\n        /* \"#utility.yul\":11039:11077   */\n      sub\n        /* \"#utility.yul\":11036:11120   */\n      tag_356\n      jumpi\n        /* \"#utility.yul\":11092:11110   */\n      tag_357\n      tag_249\n      jump\t// in\n    tag_357:\n        /* \"#utility.yul\":11036:11120   */\n    tag_356:\n        /* \"#utility.yul\":10857:11126   */\n      pop\n        /* \"#utility.yul\":10806:11126   */\n      swap2\n      swap1\n      pop\n      jump\t// out\n        /* \"#utility.yul\":11132:11280   */\n    tag_251:\n        /* \"#utility.yul\":11234:11245   */\n      0x00\n        /* \"#utility.yul\":11271:11274   */\n      dup2\n        /* \"#utility.yul\":11256:11274   */\n      swap1\n      pop\n        /* \"#utility.yul\":11132:11280   */\n      swap3\n      swap2\n      pop\n      pop\n      jump\t// out\n        /* \"#utility.yul\":11286:11427   */\n    tag_252:\n        /* \"#utility.yul\":11335:11339   */\n      0x00\n        /* \"#utility.yul\":11358:11361   */\n      dup2\n        /* \"#utility.yul\":11350:11361   */\n      swap1\n      pop\n        /* \"#utility.yul\":11381:11384   */\n      dup2\n        /* \"#utility.yul\":11378:11379   */\n      0x00\n        /* \"#utility.yul\":11371:11385   */\n      mstore\n        /* \"#utility.yul\":11415:11419   */\n      0x20\n        /* \"#utility.yul\":11412:11413   */\n      0x00\n        /* \"#utility.yul\":11402:11420   */\n      keccak256\n        /* \"#utility.yul\":11394:11420   */\n      swap1\n      pop\n        /* \"#utility.yul\":11286:11427   */\n      swap2\n      swap1\n      pop\n      jump\t// out\n        /* \"#utility.yul\":11457:12331   */\n    tag_253:\n        /* \"#utility.yul\":11560:11563   */\n      0x00\n        /* \"#utility.yul\":11597:11602   */\n      dup2\n        /* \"#utility.yul\":11591:11603   */\n      sload\n        /* \"#utility.yul\":11626:11662   */\n      tag_361\n        /* \"#utility.yul\":11652:11661   */\n      dup2\n        /* \"#utility.yul\":11626:11662   */\n      tag_250\n      jump\t// in\n    tag_361:\n        /* \"#utility.yul\":11678:11767   */\n      tag_362\n        /* \"#utility.yul\":11760:11766   */\n      dup2\n        /* \"#utility.yul\":11755:11758   */\n      dup7\n        /* \"#utility.yul\":11678:11767   */\n      tag_251\n      jump\t// in\n    tag_362:\n        /* \"#utility.yul\":11671:11767   */\n      swap5\n      pop\n        /* \"#utility.yul\":11798:11799   */\n      0x01\n        /* \"#utility.yul\":11787:11796   */\n      dup3\n        /* \"#utility.yul\":11783:11800   */\n      and\n        /* \"#utility.yul\":11814:11815   */\n      0x00\n        /* \"#utility.yul\":11809:11975   */\n      dup2\n      eq\n      tag_364\n      jumpi\n        /* \"#utility.yul\":11989:11990   */\n      0x01\n        /* \"#utility.yul\":11984:12325   */\n      dup2\n      eq\n      tag_365\n      jumpi\n        /* \"#utility.yul\":11776:12325   */\n      jump(tag_363)\n        /* \"#utility.yul\":11809:11975   */\n    tag_364:\n        /* \"#utility.yul\":11893:11897   */\n      0xff\n        /* \"#utility.yul\":11889:11898   */\n      not\n        /* \"#utility.yul\":11878:11887   */\n      dup4\n        /* \"#utility.yul\":11874:11899   */\n      and\n        /* \"#utility.yul\":11869:11872   */\n      dup7\n        /* \"#utility.yul\":11862:11900   */\n      mstore\n        /* \"#utility.yul\":11955:11961   */\n      dup2\n        /* \"#utility.yul\":11948:11962   */\n      iszero\n        /* \"#utility.yul\":11941:11963   */\n      iszero\n        /* \"#utility.yul\":11933:11939   */\n      dup3\n        /* \"#utility.yul\":11929:11964   */\n      mul\n        /* \"#utility.yul\":11924:11927   */\n      dup7\n        /* \"#utility.yul\":11920:11965   */\n      add\n        /* \"#utility.yul\":11913:11965   */\n      swap4\n      pop\n        /* \"#utility.yul\":11809:11975   */\n      jump(tag_363)\n        /* \"#utility.yul\":11984:12325   */\n    tag_365:\n        /* \"#utility.yul\":12051:12089   */\n      tag_366\n        /* \"#utility.yul\":12083:12088   */\n      dup6\n        /* \"#utility.yul\":12051:12089   */\n      tag_252\n      jump\t// in\n    tag_366:\n        /* \"#utility.yul\":12111:12112   */\n      0x00\n        /* \"#utility.yul\":12125:12279   */\n    tag_367:\n        /* \"#utility.yul\":12139:12145   */\n      dup4\n        /* \"#utility.yul\":12136:12137   */\n      dup2\n        /* \"#utility.yul\":12133:12146   */\n      lt\n        /* \"#utility.yul\":12125:12279   */\n      iszero\n      tag_369\n      jumpi\n        /* \"#utility.yul\":12213:12220   */\n      dup2\n        /* \"#utility.yul\":12207:12221   */\n      sload\n        /* \"#utility.yul\":12203:12204   */\n      dup2\n        /* \"#utility.yul\":12198:12201   */\n      dup10\n        /* \"#utility.yul\":12194:12205   */\n      add\n        /* \"#utility.yul\":12187:12222   */\n      mstore\n        /* \"#utility.yul\":12263:12264   */\n      0x01\n        /* \"#utility.yul\":12254:12261   */\n      dup3\n        /* \"#utility.yul\":12250:12265   */\n      add\n        /* \"#utility.yul\":12239:12265   */\n      swap2\n      pop\n        /* \"#utility.yul\":12161:12165   */\n      0x20\n        /* \"#utility.yul\":12158:12159   */\n      dup2\n        /* \"#utility.yul\":12154:12166   */\n      add\n        /* \"#utility.yul\":12149:12166   */\n      swap1\n      pop\n        /* \"#utility.yul\":12125:12279   */\n      jump(tag_367)\n    tag_369:\n        /* \"#utility.yul\":12308:12314   */\n      dup4\n        /* \"#utility.yul\":12303:12306   */\n      dup9\n        /* \"#utility.yul\":12299:12315   */\n      add\n        /* \"#utility.yul\":12292:12315   */\n      swap6\n      pop\n        /* \"#utility.yul\":11991:12325   */\n      pop\n      pop\n        /* \"#utility.yul\":11776:12325   */\n    tag_363:\n      pop\n        /* \"#utility.yul\":11564:12331   */\n      pop\n      pop\n        /* \"#utility.yul\":11457:12331   */\n      swap3\n      swap2\n      pop\n      pop\n      jump\t// out\n        /* \"#utility.yul\":12337:12606   */\n    tag_124:\n        /* \"#utility.yul\":12466:12469   */\n      0x00\n        /* \"#utility.yul\":12488:12580   */\n      tag_371\n        /* \"#utility.yul\":12576:12579   */\n      dup3\n        /* \"#utility.yul\":12567:12573   */\n      dup5\n        /* \"#utility.yul\":12488:12580   */\n      tag_253\n      jump\t// in\n    tag_371:\n        /* \"#utility.yul\":12481:12580   */\n      swap2\n      pop\n        /* \"#utility.yul\":12597:12600   */\n      dup2\n        /* \"#utility.yul\":12590:12600   */\n      swap1\n      pop\n        /* \"#utility.yul\":12337:12606   */\n      swap3\n      swap2\n      pop\n      pop\n      jump\t// out\n        /* \"#utility.yul\":12612:12697   */\n    tag_254:\n        /* \"#utility.yul\":12657:12664   */\n      0x00\n        /* \"#utility.yul\":12686:12691   */\n      dup2\n        /* \"#utility.yul\":12675:12691   */\n      swap1\n      pop\n        /* \"#utility.yul\":12612:12697   */\n      swap2\n      swap1\n      pop\n      jump\t// out\n        /* \"#utility.yul\":12703:12763   */\n    tag_255:\n        /* \"#utility.yul\":12731:12734   */\n      0x00\n        /* \"#utility.yul\":12752:12757   */\n      dup2\n        /* \"#utility.yul\":12745:12757   */\n      swap1\n      pop\n        /* \"#utility.yul\":12703:12763   */\n      swap2\n      swap1\n      pop\n      jump\t// out\n        /* \"#utility.yul\":12769:12927   */\n    tag_256:\n        /* \"#utility.yul\":12827:12836   */\n      0x00\n        /* \"#utility.yul\":12860:12921   */\n      tag_375\n        /* \"#utility.yul\":12878:12920   */\n      tag_376\n        /* \"#utility.yul\":12887:12919   */\n      tag_377\n        /* \"#utility.yul\":12913:12918   */\n      dup5\n        /* \"#utility.yul\":12887:12919   */\n      tag_254\n      jump\t// in\n    tag_377:\n        /* \"#utility.yul\":12878:12920   */\n      tag_255\n      jump\t// in\n    tag_376:\n        /* \"#utility.yul\":12860:12921   */\n      tag_225\n      jump\t// in\n    tag_375:\n        /* \"#utility.yul\":12847:12921   */\n      swap1\n      pop\n        /* \"#utility.yul\":12769:12927   */\n      swap2\n      swap1\n      pop\n      jump\t// out\n        /* \"#utility.yul\":12933:13080   */\n    tag_257:\n        /* \"#utility.yul\":13028:13073   */\n      tag_379\n        /* \"#utility.yul\":13067:13072   */\n      dup2\n        /* \"#utility.yul\":13028:13073   */\n      tag_256\n      jump\t// in\n    tag_379:\n        /* \"#utility.yul\":13023:13026   */\n      dup3\n        /* \"#utility.yul\":13016:13074   */\n      mstore\n        /* \"#utility.yul\":12933:13080   */\n      pop\n      pop\n      jump\t// out\n        /* \"#utility.yul\":13086:13324   */\n    tag_126:\n        /* \"#utility.yul\":13187:13191   */\n      0x00\n        /* \"#utility.yul\":13225:13227   */\n      0x20\n        /* \"#utility.yul\":13214:13223   */\n      dup3\n        /* \"#utility.yul\":13210:13228   */\n      add\n        /* \"#utility.yul\":13202:13228   */\n      swap1\n      pop\n        /* \"#utility.yul\":13238:13317   */\n      tag_381\n        /* \"#utility.yul\":13314:13315   */\n      0x00\n        /* \"#utility.yul\":13303:13312   */\n      dup4\n        /* \"#utility.yul\":13299:13316   */\n      add\n        /* \"#utility.yul\":13290:13296   */\n      dup5\n        /* \"#utility.yul\":13238:13317   */\n      tag_257\n      jump\t// in\n    tag_381:\n        /* \"#utility.yul\":13086:13324   */\n      swap3\n      swap2\n      pop\n      pop\n      jump\t// out\n        /* \"#utility.yul\":13330:13524   */\n    tag_148:\n        /* \"#utility.yul\":13370:13374   */\n      0x00\n        /* \"#utility.yul\":13390:13410   */\n      tag_383\n        /* \"#utility.yul\":13408:13409   */\n      dup3\n        /* \"#utility.yul\":13390:13410   */\n      tag_225\n      jump\t// in\n    tag_383:\n        /* \"#utility.yul\":13385:13410   */\n      swap2\n      pop\n        /* \"#utility.yul\":13424:13444   */\n      tag_384\n        /* \"#utility.yul\":13442:13443   */\n      dup4\n        /* \"#utility.yul\":13424:13444   */\n      tag_225\n      jump\t// in\n    tag_384:\n        /* \"#utility.yul\":13419:13444   */\n      swap3\n      pop\n        /* \"#utility.yul\":13468:13469   */\n      dup3\n        /* \"#utility.yul\":13465:13466   */\n      dup3\n        /* \"#utility.yul\":13461:13470   */\n      sub\n        /* \"#utility.yul\":13453:13470   */\n      swap1\n      pop\n        /* \"#utility.yul\":13492:13493   */\n      dup2\n        /* \"#utility.yul\":13486:13490   */\n      dup2\n        /* \"#utility.yul\":13483:13494   */\n      gt\n        /* \"#utility.yul\":13480:13517   */\n      iszero\n      tag_385\n      jumpi\n        /* \"#utility.yul\":13497:13515   */\n      tag_386\n      tag_240\n      jump\t// in\n    tag_386:\n        /* \"#utility.yul\":13480:13517   */\n    tag_385:\n        /* \"#utility.yul\":13330:13524   */\n      swap3\n      swap2\n      pop\n      pop\n      jump\t// out\n\n    auxdata: 0xa26469706673582212205d36d3ddd596947e81a93eeab67aa8627e4effa6fa496e9d0bfd49eeb58540bb64736f6c634300081a0033\n}\n",
				"bytecode": {
					"linkReferences": {},
					"object": "608060405234801561000f575f80fd5b506040516122ed3803806122ed833981810160405281019061003191906102ae565b3360075f6101000a81548173ffffffffffffffffffffffffffffffffffffffff021916908373ffffffffffffffffffffffffffffffffffffffff1602179055508060089081610080919061051e565b50824261008d919061061a565b5f81905550670de0b6b3a7640000826100a6919061064d565b6002600301819055505f60015f6101000a81548160ff021916908360018111156100d3576100d261068e565b5b021790555060086040516100e79190610745565b60405180910390207f88b524d6621d7de004458e51f7f3a0dec805641fc7853fa1c25d15a1266b459e8360405161011e919061076a565b60405180910390a2505050610783565b5f604051905090565b5f80fd5b5f80fd5b5f819050919050565b6101518161013f565b811461015b575f80fd5b50565b5f8151905061016c81610148565b92915050565b5f80fd5b5f80fd5b5f601f19601f8301169050919050565b7f4e487b71000000000000000000000000000000000000000000000000000000005f52604160045260245ffd5b6101c08261017a565b810181811067ffffffffffffffff821117156101df576101de61018a565b5b80604052505050565b5f6101f161012e565b90506101fd82826101b7565b919050565b5f67ffffffffffffffff82111561021c5761021b61018a565b5b6102258261017a565b9050602081019050919050565b8281835e5f83830152505050565b5f61025261024d84610202565b6101e8565b90508281526020810184848401111561026e5761026d610176565b5b610279848285610232565b509392505050565b5f82601f83011261029557610294610172565b5b81516102a5848260208601610240565b91505092915050565b5f805f606084860312156102c5576102c4610137565b5b5f6102d28682870161015e565b93505060206102e38682870161015e565b925050604084015167ffffffffffffffff8111156103045761030361013b565b5b61031086828701610281565b9150509250925092565b5f81519050919050565b7f4e487b71000000000000000000000000000000000000000000000000000000005f52602260045260245ffd5b5f600282049050600182168061036857607f821691505b60208210810361037b5761037a610324565b5b50919050565b5f819050815f5260205f209050919050565b5f6020601f8301049050919050565b5f82821b905092915050565b5f600883026103dd7fffffffffffffffffffffffffffffffffffffffffffffffffffffffffffffffff826103a2565b6103e786836103a2565b95508019841693508086168417925050509392505050565b5f819050919050565b5f61042261041d6104188461013f565b6103ff565b61013f565b9050919050565b5f819050919050565b61043b83610408565b61044f61044782610429565b8484546103ae565b825550505050565b5f90565b610463610457565b61046e818484610432565b505050565b5b81811015610491576104865f8261045b565b600181019050610474565b5050565b601f8211156104d6576104a781610381565b6104b084610393565b810160208510156104bf578190505b6104d36104cb85610393565b830182610473565b50505b505050565b5f82821c905092915050565b5f6104f65f19846008026104db565b1980831691505092915050565b5f61050e83836104e7565b9150826002028217905092915050565b6105278261031a565b67ffffffffffffffff8111156105405761053f61018a565b5b61054a8254610351565b610555828285610495565b5f60209050601f831160018114610586575f8415610574578287015190505b61057e8582610503565b8655506105e5565b601f19841661059486610381565b5f5b828110156105bb57848901518255600182019150602085019450602081019050610596565b868310156105d857848901516105d4601f8916826104e7565b8355505b6001600288020188555050505b505050505050565b7f4e487b71000000000000000000000000000000000000000000000000000000005f52601160045260245ffd5b5f6106248261013f565b915061062f8361013f565b9250828201905080821115610647576106466105ed565b5b92915050565b5f6106578261013f565b91506106628361013f565b92508282026106708161013f565b91508282048414831517610687576106866105ed565b5b5092915050565b7f4e487b71000000000000000000000000000000000000000000000000000000005f52602160045260245ffd5b5f81905092915050565b5f81546106d181610351565b6106db81866106bb565b9450600182165f81146106f5576001811461070a5761073c565b60ff198316865281151582028601935061073c565b61071385610381565b5f5b8381101561073457815481890152600182019150602081019050610715565b838801955050505b50505092915050565b5f61075082846106c5565b915081905092915050565b6107648161013f565b82525050565b5f60208201905061077d5f83018461075b565b92915050565b611b5d806107905f395ff3fe608060405260043610610049575f3560e01c806314d2687c1461004d5780631998aeef1461007757806343d726d614610081578063b7e0326414610097578063d4e93292146100c2575b5f80fd5b348015610058575f80fd5b506100616100d8565b60405161006e91906115ba565b60405180910390f35b61007f61030d565b005b34801561008c575f80fd5b506100956107ba565b005b3480156100a2575f80fd5b506100ab610e0b565b6040516100b99291906115f8565b60405180910390f35b3480156100cd575f80fd5b506100d6610f83565b005b60605f8060018111156100ee576100ed61161f565b5b60015f9054906101000a900460ff16600181111561010f5761010e61161f565b5b1461015f5760015f9054906101000a900460ff166040517ff1c25c200000000000000000000000000000000000000000000000000000000081526004016101569190611692565b60405180910390fd5b5f60098054905067ffffffffffffffff81111561017f5761017e6116ab565b5b6040519080825280602002602001820160405280156101b857816020015b6101a56113f9565b81526020019060019003908161019d5790505b5090505f5b60098054905081101561030457600a5f600983815481106101e1576101e06116d8565b5b905f5260205f20015f9054906101000a900473ffffffffffffffffffffffffffffffffffffffff1673ffffffffffffffffffffffffffffffffffffffff1673ffffffffffffffffffffffffffffffffffffffff1681526020019081526020015f206040518060a00160405290815f82015f9054906101000a900460ff16151515158152602001600182015481526020016002820154815260200160038201548152602001600482015f9054906101000a900473ffffffffffffffffffffffffffffffffffffffff1673ffffffffffffffffffffffffffffffffffffffff1673ffffffffffffffffffffffffffffffffffffffff16815250508282815181106102ec576102eb6116d8565b5b602002602001018190525080806001019150506101bd565b50809250505090565b5f8054421061032e576102586002600101546103299190611732565b610331565b5f545b90505f60018111156103465761034561161f565b5b60015f9054906101000a900460ff1660018111156103675761036661161f565b5b14801561037357508042115b1561038157610380611391565b5b5f8060018111156103955761039461161f565b5b60015f9054906101000a900460ff1660018111156103b6576103b561161f565b5b146104065760015f9054906101000a900460ff166040517ff1c25c200000000000000000000000000000000000000000000000000000000081526004016103fd9190611692565b60405180910390fd5b6064600560026003015461041a9190611765565b61042491906117d3565b6002600301546104349190611732565b3411610475576040517f1410d82200000000000000000000000000000000000000000000000000000000815260040161046c90611883565b60405180910390fd5b600a5f3373ffffffffffffffffffffffffffffffffffffffff1673ffffffffffffffffffffffffffffffffffffffff1681526020019081526020015f205f015f9054906101000a900460ff1661052657600933908060018154018082558091505060019003905f5260205f20015f9091909190916101000a81548173ffffffffffffffffffffffffffffffffffffffff021916908373ffffffffffffffffffffffffffffffffffffffff1602179055505b34600280015f8282546105399190611732565b92505081905550346002600301819055503360026004015f6101000a81548173ffffffffffffffffffffffffffffffffffffffff021916908373ffffffffffffffffffffffffffffffffffffffff160217905550600160025f015f6101000a81548160ff0219169083151502179055504260026001018190555034600a5f3373ffffffffffffffffffffffffffffffffffffffff1673ffffffffffffffffffffffffffffffffffffffff1681526020019081526020015f206002015f8282546106029190611732565b9250508190555034600a5f3373ffffffffffffffffffffffffffffffffffffffff1673ffffffffffffffffffffffffffffffffffffffff1681526020019081526020015f206003018190555033600a5f3373ffffffffffffffffffffffffffffffffffffffff1673ffffffffffffffffffffffffffffffffffffffff1681526020019081526020015f206004015f6101000a81548173ffffffffffffffffffffffffffffffffffffffff021916908373ffffffffffffffffffffffffffffffffffffffff1602179055506001600a5f3373ffffffffffffffffffffffffffffffffffffffff1673ffffffffffffffffffffffffffffffffffffffff1681526020019081526020015f205f015f6101000a81548160ff02191690831515021790555042600a5f3373ffffffffffffffffffffffffffffffffffffffff1673ffffffffffffffffffffffffffffffffffffffff1681526020019081526020015f20600101819055503373ffffffffffffffffffffffffffffffffffffffff167fdd0b6c6a77960e2066c96171b4d7ac9e8b4c184011f38544afa36a5bb63ec59f346040516107ae91906118a1565b60405180910390a25050565b5f805442106107db576102586002600101546107d69190611732565b6107de565b5f545b90505f60018111156107f3576107f261161f565b5b60015f9054906101000a900460ff1660018111156108145761081361161f565b5b14801561082057508042115b1561082e5761082d611391565b5b5f8060018111156108425761084161161f565b5b8160018111156108555761085461161f565b5b1480156108af575060075f9054906101000a900473ffffffffffffffffffffffffffffffffffffffff1673ffffffffffffffffffffffffffffffffffffffff163373ffffffffffffffffffffffffffffffffffffffff1614155b156108ef576040517f58a3f3c00000000000000000000000000000000000000000000000000000000081526004016108e690611904565b60405180910390fd5b6001808111156109025761090161161f565b5b8160018111156109155761091461161f565b5b14801561096b5750600a5f3373ffffffffffffffffffffffffffffffffffffffff1673ffffffffffffffffffffffffffffffffffffffff1681526020019081526020015f205f015f9054906101000a900460ff16155b156109ab576040517f58a3f3c00000000000000000000000000000000000000000000000000000000081526004016109a29061196c565b60405180910390fd5b60018060018111156109c0576109bf61161f565b5b60015f9054906101000a900460ff1660018111156109e1576109e061161f565b5b14610a315760015f9054906101000a900460ff166040517ff1c25c20000000000000000000000000000000000000000000000000000000008152600401610a289190611692565b60405180910390fd5b60025f015f9054906101000a900460ff16610ab0575f73ffffffffffffffffffffffffffffffffffffffff166008604051610a6c9190611a83565b60405180910390207fef1c1ac56c3e721a0a9bdb9f70b99f3cd67d25c1aabe4830f296c2391dc1c2e85f604051610aa39190611adb565b60405180910390a3610e06565b60026004015f9054906101000a900473ffffffffffffffffffffffffffffffffffffffff1673ffffffffffffffffffffffffffffffffffffffff166008604051610afa9190611a83565b60405180910390207fef1c1ac56c3e721a0a9bdb9f70b99f3cd67d25c1aabe4830f296c2391dc1c2e8600260030154604051610b3691906118a1565b60405180910390a35f5b600980549050811015610e045760026004015f9054906101000a900473ffffffffffffffffffffffffffffffffffffffff1673ffffffffffffffffffffffffffffffffffffffff1660098281548110610b9c57610b9b6116d8565b5b905f5260205f20015f9054906101000a900473ffffffffffffffffffffffffffffffffffffffff1673ffffffffffffffffffffffffffffffffffffffff1614610df7575f600a5f60098481548110610bf757610bf66116d8565b5b905f5260205f20015f9054906101000a900473ffffffffffffffffffffffffffffffffffffffff1673ffffffffffffffffffffffffffffffffffffffff1673ffffffffffffffffffffffffffffffffffffffff1681526020019081526020015f206002015490505f600a5f60098581548110610c7657610c756116d8565b5b905f5260205f20015f9054906101000a900473ffffffffffffffffffffffffffffffffffffffff1673ffffffffffffffffffffffffffffffffffffffff1673ffffffffffffffffffffffffffffffffffffffff1681526020019081526020015f206002018190555060098281548110610cf257610cf16116d8565b5b905f5260205f20015f9054906101000a900473ffffffffffffffffffffffffffffffffffffffff1673ffffffffffffffffffffffffffffffffffffffff166108fc6064600284610d429190611765565b610d4c91906117d3565b83610d579190611af4565b90811502906040515f60405180830381858888f19350505050610df55780600a5f60098581548110610d8c57610d8b6116d8565b5b905f5260205f20015f9054906101000a900473ffffffffffffffffffffffffffffffffffffffff1673ffffffffffffffffffffffffffffffffffffffff1673ffffffffffffffffffffffffffffffffffffffff1681526020019081526020015f20600201819055505b505b8080600101915050610b40565b505b505050565b5f805f80544210610e2e57610258600260010154610e299190611732565b610e31565b5f545b90505f6001811115610e4657610e4561161f565b5b60015f9054906101000a900460ff166001811115610e6757610e6661161f565b5b148015610e7357508042115b15610e8157610e80611391565b5b6001806001811115610e9657610e9561161f565b5b60015f9054906101000a900460ff166001811115610eb757610eb661161f565b5b14610f075760015f9054906101000a900460ff166040517ff1c25c20000000000000000000000000000000000000000000000000000000008152600401610efe9190611692565b60405180910390fd5b60025f015f9054906101000a900460ff16610f4e576040517f9b03499700000000000000000000000000000000000000000000000000000000815260040160405180910390fd5b60026004015f9054906101000a900473ffffffffffffffffffffffffffffffffffffffff166002600301549350935050509091565b5f80544210610fa457610258600260010154610f9f9190611732565b610fa7565b5f545b90505f6001811115610fbc57610fbb61161f565b5b60015f9054906101000a900460ff166001811115610fdd57610fdc61161f565b5b148015610fe957508042115b15610ff757610ff6611391565b5b60015f600181111561100c5761100b61161f565b5b81600181111561101f5761101e61161f565b5b148015611079575060075f9054906101000a900473ffffffffffffffffffffffffffffffffffffffff1673ffffffffffffffffffffffffffffffffffffffff163373ffffffffffffffffffffffffffffffffffffffff1614155b156110b9576040517f58a3f3c00000000000000000000000000000000000000000000000000000000081526004016110b090611904565b60405180910390fd5b6001808111156110cc576110cb61161f565b5b8160018111156110df576110de61161f565b5b1480156111355750600a5f3373ffffffffffffffffffffffffffffffffffffffff1673ffffffffffffffffffffffffffffffffffffffff1681526020019081526020015f205f015f9054906101000a900460ff16155b15611175576040517f58a3f3c000000000000000000000000000000000000000000000000000000000815260040161116c9061196c565b60405180910390fd5b5f8060018111156111895761118861161f565b5b60015f9054906101000a900460ff1660018111156111aa576111a961161f565b5b146111fa5760015f9054906101000a900460ff166040517ff1c25c200000000000000000000000000000000000000000000000000000000081526004016111f19190611692565b60405180910390fd5b5f600a5f3373ffffffffffffffffffffffffffffffffffffffff1673ffffffffffffffffffffffffffffffffffffffff1681526020019081526020015f2060030154600a5f3373ffffffffffffffffffffffffffffffffffffffff1673ffffffffffffffffffffffffffffffffffffffff1681526020019081526020015f20600201546112879190611af4565b9050600a5f3373ffffffffffffffffffffffffffffffffffffffff1673ffffffffffffffffffffffffffffffffffffffff1681526020019081526020015f2060030154600a5f3373ffffffffffffffffffffffffffffffffffffffff1673ffffffffffffffffffffffffffffffffffffffff1681526020019081526020015f20600201819055505f8111611347576040517fd0d04f6000000000000000000000000000000000000000000000000000000000815260040160405180910390fd5b3373ffffffffffffffffffffffffffffffffffffffff166108fc8290811502906040515f60405180830381858888f1935050505015801561138a573d5f803e3d5ffd5b5050505050565b6001805f9054906101000a900460ff1660018111156113b3576113b261161f565b5b6113bd9190611732565b60018111156113cf576113ce61161f565b5b60015f6101000a81548160ff021916908360018111156113f2576113f161161f565b5b0217905550565b6040518060a001604052805f151581526020015f81526020015f81526020015f81526020015f73ffffffffffffffffffffffffffffffffffffffff1681525090565b5f81519050919050565b5f82825260208201905092915050565b5f819050602082019050919050565b5f8115159050919050565b61147881611464565b82525050565b5f819050919050565b6114908161147e565b82525050565b5f73ffffffffffffffffffffffffffffffffffffffff82169050919050565b5f6114bf82611496565b9050919050565b6114cf816114b5565b82525050565b60a082015f8201516114e95f85018261146f565b5060208201516114fc6020850182611487565b50604082015161150f6040850182611487565b5060608201516115226060850182611487565b50608082015161153560808501826114c6565b50505050565b5f61154683836114d5565b60a08301905092915050565b5f602082019050919050565b5f6115688261143b565b6115728185611445565b935061157d83611455565b805f5b838110156115ad578151611594888261153b565b975061159f83611552565b925050600181019050611580565b5085935050505092915050565b5f6020820190508181035f8301526115d2818461155e565b905092915050565b6115e3816114b5565b82525050565b6115f28161147e565b82525050565b5f60408201905061160b5f8301856115da565b61161860208301846115e9565b9392505050565b7f4e487b71000000000000000000000000000000000000000000000000000000005f52602160045260245ffd5b6002811061165d5761165c61161f565b5b50565b5f81905061166d8261164c565b919050565b5f61167c82611660565b9050919050565b61168c81611672565b82525050565b5f6020820190506116a55f830184611683565b92915050565b7f4e487b71000000000000000000000000000000000000000000000000000000005f52604160045260245ffd5b7f4e487b71000000000000000000000000000000000000000000000000000000005f52603260045260245ffd5b7f4e487b71000000000000000000000000000000000000000000000000000000005f52601160045260245ffd5b5f61173c8261147e565b91506117478361147e565b925082820190508082111561175f5761175e611705565b5b92915050565b5f61176f8261147e565b915061177a8361147e565b92508282026117888161147e565b9150828204841483151761179f5761179e611705565b5b5092915050565b7f4e487b71000000000000000000000000000000000000000000000000000000005f52601260045260245ffd5b5f6117dd8261147e565b91506117e88361147e565b9250826117f8576117f76117a6565b5b828204905092915050565b5f82825260208201905092915050565b7f412076616c696420626964206d757374206265203520252067726561746572205f8201527f7468616e20746865206c617374206269642e0000000000000000000000000000602082015250565b5f61186d603283611803565b915061187882611813565b604082019050919050565b5f6020820190508181035f83015261189a81611861565b9050919050565b5f6020820190506118b45f8301846115e9565b92915050565b7f4f6e6c792041646d696e205573657220697320616c6c6f7765642e00000000005f82015250565b5f6118ee601b83611803565b91506118f9826118ba565b602082019050919050565b5f6020820190508181035f83015261191b816118e2565b9050919050565b7f4f6e6c79204269646465722061726520616c6c6f7765642e00000000000000005f82015250565b5f611956601883611803565b915061196182611922565b602082019050919050565b5f6020820190508181035f8301526119838161194a565b9050919050565b7f4e487b71000000000000000000000000000000000000000000000000000000005f52602260045260245ffd5b5f60028204905060018216806119ce57607f821691505b6020821081036119e1576119e061198a565b5b50919050565b5f81905092915050565b5f819050815f5260205f209050919050565b5f8154611a0f816119b7565b611a1981866119e7565b9450600182165f8114611a335760018114611a4857611a7a565b60ff1983168652811515820286019350611a7a565b611a51856119f1565b5f5b83811015611a7257815481890152600182019150602081019050611a53565b838801955050505b50505092915050565b5f611a8e8284611a03565b915081905092915050565b5f819050919050565b5f819050919050565b5f611ac5611ac0611abb84611a99565b611aa2565b61147e565b9050919050565b611ad581611aab565b82525050565b5f602082019050611aee5f830184611acc565b92915050565b5f611afe8261147e565b9150611b098361147e565b9250828203905081811115611b2157611b20611705565b5b9291505056fea26469706673582212205d36d3ddd596947e81a93eeab67aa8627e4effa6fa496e9d0bfd49eeb58540bb64736f6c634300081a0033",
					"opcodes": "PUSH1 0x80 PUSH1 0x40 MSTORE CALLVALUE DUP1 ISZERO PUSH2 0xF JUMPI PUSH0 DUP1 REVERT JUMPDEST POP PUSH1 0x40 MLOAD PUSH2 0x22ED CODESIZE SUB DUP1 PUSH2 0x22ED DUP4 CODECOPY DUP2 DUP2 ADD PUSH1 0x40 MSTORE DUP2 ADD SWAP1 PUSH2 0x31 SWAP2 SWAP1 PUSH2 0x2AE JUMP JUMPDEST CALLER PUSH1 0x7 PUSH0 PUSH2 0x100 EXP DUP2 SLOAD DUP2 PUSH20 0xFFFFFFFFFFFFFFFFFFFFFFFFFFFFFFFFFFFFFFFF MUL NOT AND SWAP1 DUP4 PUSH20 0xFFFFFFFFFFFFFFFFFFFFFFFFFFFFFFFFFFFFFFFF AND MUL OR SWAP1 SSTORE POP DUP1 PUSH1 0x8 SWAP1 DUP2 PUSH2 0x80 SWAP2 SWAP1 PUSH2 0x51E JUMP JUMPDEST POP DUP3 TIMESTAMP PUSH2 0x8D SWAP2 SWAP1 PUSH2 0x61A JUMP JUMPDEST PUSH0 DUP2 SWAP1 SSTORE POP PUSH8 0xDE0B6B3A7640000 DUP3 PUSH2 0xA6 SWAP2 SWAP1 PUSH2 0x64D JUMP JUMPDEST PUSH1 0x2 PUSH1 0x3 ADD DUP2 SWAP1 SSTORE POP PUSH0 PUSH1 0x1 PUSH0 PUSH2 0x100 EXP DUP2 SLOAD DUP2 PUSH1 0xFF MUL NOT AND SWAP1 DUP4 PUSH1 0x1 DUP2 GT ISZERO PUSH2 0xD3 JUMPI PUSH2 0xD2 PUSH2 0x68E JUMP JUMPDEST JUMPDEST MUL OR SWAP1 SSTORE POP PUSH1 0x8 PUSH1 0x40 MLOAD PUSH2 0xE7 SWAP2 SWAP1 PUSH2 0x745 JUMP JUMPDEST PUSH1 0x40 MLOAD DUP1 SWAP2 SUB SWAP1 KECCAK256 PUSH32 0x88B524D6621D7DE004458E51F7F3A0DEC805641FC7853FA1C25D15A1266B459E DUP4 PUSH1 0x40 MLOAD PUSH2 0x11E SWAP2 SWAP1 PUSH2 0x76A JUMP JUMPDEST PUSH1 0x40 MLOAD DUP1 SWAP2 SUB SWAP1 LOG2 POP POP POP PUSH2 0x783 JUMP JUMPDEST PUSH0 PUSH1 0x40 MLOAD SWAP1 POP SWAP1 JUMP JUMPDEST PUSH0 DUP1 REVERT JUMPDEST PUSH0 DUP1 REVERT JUMPDEST PUSH0 DUP2 SWAP1 POP SWAP2 SWAP1 POP JUMP JUMPDEST PUSH2 0x151 DUP2 PUSH2 0x13F JUMP JUMPDEST DUP2 EQ PUSH2 0x15B JUMPI PUSH0 DUP1 REVERT JUMPDEST POP JUMP JUMPDEST PUSH0 DUP2 MLOAD SWAP1 POP PUSH2 0x16C DUP2 PUSH2 0x148 JUMP JUMPDEST SWAP3 SWAP2 POP POP JUMP JUMPDEST PUSH0 DUP1 REVERT JUMPDEST PUSH0 DUP1 REVERT JUMPDEST PUSH0 PUSH1 0x1F NOT PUSH1 0x1F DUP4 ADD AND SWAP1 POP SWAP2 SWAP1 POP JUMP JUMPDEST PUSH32 0x4E487B7100000000000000000000000000000000000000000000000000000000 PUSH0 MSTORE PUSH1 0x41 PUSH1 0x4 MSTORE PUSH1 0x24 PUSH0 REVERT JUMPDEST PUSH2 0x1C0 DUP3 PUSH2 0x17A JUMP JUMPDEST DUP2 ADD DUP2 DUP2 LT PUSH8 0xFFFFFFFFFFFFFFFF DUP3 GT OR ISZERO PUSH2 0x1DF JUMPI PUSH2 0x1DE PUSH2 0x18A JUMP JUMPDEST JUMPDEST DUP1 PUSH1 0x40 MSTORE POP POP POP JUMP JUMPDEST PUSH0 PUSH2 0x1F1 PUSH2 0x12E JUMP JUMPDEST SWAP1 POP PUSH2 0x1FD DUP3 DUP3 PUSH2 0x1B7 JUMP JUMPDEST SWAP2 SWAP1 POP JUMP JUMPDEST PUSH0 PUSH8 0xFFFFFFFFFFFFFFFF DUP3 GT ISZERO PUSH2 0x21C JUMPI PUSH2 0x21B PUSH2 0x18A JUMP JUMPDEST JUMPDEST PUSH2 0x225 DUP3 PUSH2 0x17A JUMP JUMPDEST SWAP1 POP PUSH1 0x20 DUP2 ADD SWAP1 POP SWAP2 SWAP1 POP JUMP JUMPDEST DUP3 DUP2 DUP4 MCOPY PUSH0 DUP4 DUP4 ADD MSTORE POP POP POP JUMP JUMPDEST PUSH0 PUSH2 0x252 PUSH2 0x24D DUP5 PUSH2 0x202 JUMP JUMPDEST PUSH2 0x1E8 JUMP JUMPDEST SWAP1 POP DUP3 DUP2 MSTORE PUSH1 0x20 DUP2 ADD DUP5 DUP5 DUP5 ADD GT ISZERO PUSH2 0x26E JUMPI PUSH2 0x26D PUSH2 0x176 JUMP JUMPDEST JUMPDEST PUSH2 0x279 DUP5 DUP3 DUP6 PUSH2 0x232 JUMP JUMPDEST POP SWAP4 SWAP3 POP POP POP JUMP JUMPDEST PUSH0 DUP3 PUSH1 0x1F DUP4 ADD SLT PUSH2 0x295 JUMPI PUSH2 0x294 PUSH2 0x172 JUMP JUMPDEST JUMPDEST DUP2 MLOAD PUSH2 0x2A5 DUP5 DUP3 PUSH1 0x20 DUP7 ADD PUSH2 0x240 JUMP JUMPDEST SWAP2 POP POP SWAP3 SWAP2 POP POP JUMP JUMPDEST PUSH0 DUP1 PUSH0 PUSH1 0x60 DUP5 DUP7 SUB SLT ISZERO PUSH2 0x2C5 JUMPI PUSH2 0x2C4 PUSH2 0x137 JUMP JUMPDEST JUMPDEST PUSH0 PUSH2 0x2D2 DUP7 DUP3 DUP8 ADD PUSH2 0x15E JUMP JUMPDEST SWAP4 POP POP PUSH1 0x20 PUSH2 0x2E3 DUP7 DUP3 DUP8 ADD PUSH2 0x15E JUMP JUMPDEST SWAP3 POP POP PUSH1 0x40 DUP5 ADD MLOAD PUSH8 0xFFFFFFFFFFFFFFFF DUP2 GT ISZERO PUSH2 0x304 JUMPI PUSH2 0x303 PUSH2 0x13B JUMP JUMPDEST JUMPDEST PUSH2 0x310 DUP7 DUP3 DUP8 ADD PUSH2 0x281 JUMP JUMPDEST SWAP2 POP POP SWAP3 POP SWAP3 POP SWAP3 JUMP JUMPDEST PUSH0 DUP2 MLOAD SWAP1 POP SWAP2 SWAP1 POP JUMP JUMPDEST PUSH32 0x4E487B7100000000000000000000000000000000000000000000000000000000 PUSH0 MSTORE PUSH1 0x22 PUSH1 0x4 MSTORE PUSH1 0x24 PUSH0 REVERT JUMPDEST PUSH0 PUSH1 0x2 DUP3 DIV SWAP1 POP PUSH1 0x1 DUP3 AND DUP1 PUSH2 0x368 JUMPI PUSH1 0x7F DUP3 AND SWAP2 POP JUMPDEST PUSH1 0x20 DUP3 LT DUP2 SUB PUSH2 0x37B JUMPI PUSH2 0x37A PUSH2 0x324 JUMP JUMPDEST JUMPDEST POP SWAP2 SWAP1 POP JUMP JUMPDEST PUSH0 DUP2 SWAP1 POP DUP2 PUSH0 MSTORE PUSH1 0x20 PUSH0 KECCAK256 SWAP1 POP SWAP2 SWAP1 POP JUMP JUMPDEST PUSH0 PUSH1 0x20 PUSH1 0x1F DUP4 ADD DIV SWAP1 POP SWAP2 SWAP1 POP JUMP JUMPDEST PUSH0 DUP3 DUP3 SHL SWAP1 POP SWAP3 SWAP2 POP POP JUMP JUMPDEST PUSH0 PUSH1 0x8 DUP4 MUL PUSH2 0x3DD PUSH32 0xFFFFFFFFFFFFFFFFFFFFFFFFFFFFFFFFFFFFFFFFFFFFFFFFFFFFFFFFFFFFFFFF DUP3 PUSH2 0x3A2 JUMP JUMPDEST PUSH2 0x3E7 DUP7 DUP4 PUSH2 0x3A2 JUMP JUMPDEST SWAP6 POP DUP1 NOT DUP5 AND SWAP4 POP DUP1 DUP7 AND DUP5 OR SWAP3 POP POP POP SWAP4 SWAP3 POP POP POP JUMP JUMPDEST PUSH0 DUP2 SWAP1 POP SWAP2 SWAP1 POP JUMP JUMPDEST PUSH0 PUSH2 0x422 PUSH2 0x41D PUSH2 0x418 DUP5 PUSH2 0x13F JUMP JUMPDEST PUSH2 0x3FF JUMP JUMPDEST PUSH2 0x13F JUMP JUMPDEST SWAP1 POP SWAP2 SWAP1 POP JUMP JUMPDEST PUSH0 DUP2 SWAP1 POP SWAP2 SWAP1 POP JUMP JUMPDEST PUSH2 0x43B DUP4 PUSH2 0x408 JUMP JUMPDEST PUSH2 0x44F PUSH2 0x447 DUP3 PUSH2 0x429 JUMP JUMPDEST DUP5 DUP5 SLOAD PUSH2 0x3AE JUMP JUMPDEST DUP3 SSTORE POP POP POP POP JUMP JUMPDEST PUSH0 SWAP1 JUMP JUMPDEST PUSH2 0x463 PUSH2 0x457 JUMP JUMPDEST PUSH2 0x46E DUP2 DUP5 DUP5 PUSH2 0x432 JUMP JUMPDEST POP POP POP JUMP JUMPDEST JUMPDEST DUP2 DUP2 LT ISZERO PUSH2 0x491 JUMPI PUSH2 0x486 PUSH0 DUP3 PUSH2 0x45B JUMP JUMPDEST PUSH1 0x1 DUP2 ADD SWAP1 POP PUSH2 0x474 JUMP JUMPDEST POP POP JUMP JUMPDEST PUSH1 0x1F DUP3 GT ISZERO PUSH2 0x4D6 JUMPI PUSH2 0x4A7 DUP2 PUSH2 0x381 JUMP JUMPDEST PUSH2 0x4B0 DUP5 PUSH2 0x393 JUMP JUMPDEST DUP2 ADD PUSH1 0x20 DUP6 LT ISZERO PUSH2 0x4BF JUMPI DUP2 SWAP1 POP JUMPDEST PUSH2 0x4D3 PUSH2 0x4CB DUP6 PUSH2 0x393 JUMP JUMPDEST DUP4 ADD DUP3 PUSH2 0x473 JUMP JUMPDEST POP POP JUMPDEST POP POP POP JUMP JUMPDEST PUSH0 DUP3 DUP3 SHR SWAP1 POP SWAP3 SWAP2 POP POP JUMP JUMPDEST PUSH0 PUSH2 0x4F6 PUSH0 NOT DUP5 PUSH1 0x8 MUL PUSH2 0x4DB JUMP JUMPDEST NOT DUP1 DUP4 AND SWAP2 POP POP SWAP3 SWAP2 POP POP JUMP JUMPDEST PUSH0 PUSH2 0x50E DUP4 DUP4 PUSH2 0x4E7 JUMP JUMPDEST SWAP2 POP DUP3 PUSH1 0x2 MUL DUP3 OR SWAP1 POP SWAP3 SWAP2 POP POP JUMP JUMPDEST PUSH2 0x527 DUP3 PUSH2 0x31A JUMP JUMPDEST PUSH8 0xFFFFFFFFFFFFFFFF DUP2 GT ISZERO PUSH2 0x540 JUMPI PUSH2 0x53F PUSH2 0x18A JUMP JUMPDEST JUMPDEST PUSH2 0x54A DUP3 SLOAD PUSH2 0x351 JUMP JUMPDEST PUSH2 0x555 DUP3 DUP3 DUP6 PUSH2 0x495 JUMP JUMPDEST PUSH0 PUSH1 0x20 SWAP1 POP PUSH1 0x1F DUP4 GT PUSH1 0x1 DUP2 EQ PUSH2 0x586 JUMPI PUSH0 DUP5 ISZERO PUSH2 0x574 JUMPI DUP3 DUP8 ADD MLOAD SWAP1 POP JUMPDEST PUSH2 0x57E DUP6 DUP3 PUSH2 0x503 JUMP JUMPDEST DUP7 SSTORE POP PUSH2 0x5E5 JUMP JUMPDEST PUSH1 0x1F NOT DUP5 AND PUSH2 0x594 DUP7 PUSH2 0x381 JUMP JUMPDEST PUSH0 JUMPDEST DUP3 DUP2 LT ISZERO PUSH2 0x5BB JUMPI DUP5 DUP10 ADD MLOAD DUP3 SSTORE PUSH1 0x1 DUP3 ADD SWAP2 POP PUSH1 0x20 DUP6 ADD SWAP5 POP PUSH1 0x20 DUP2 ADD SWAP1 POP PUSH2 0x596 JUMP JUMPDEST DUP7 DUP4 LT ISZERO PUSH2 0x5D8 JUMPI DUP5 DUP10 ADD MLOAD PUSH2 0x5D4 PUSH1 0x1F DUP10 AND DUP3 PUSH2 0x4E7 JUMP JUMPDEST DUP4 SSTORE POP JUMPDEST PUSH1 0x1 PUSH1 0x2 DUP9 MUL ADD DUP9 SSTORE POP POP POP JUMPDEST POP POP POP POP POP POP JUMP JUMPDEST PUSH32 0x4E487B7100000000000000000000000000000000000000000000000000000000 PUSH0 MSTORE PUSH1 0x11 PUSH1 0x4 MSTORE PUSH1 0x24 PUSH0 REVERT JUMPDEST PUSH0 PUSH2 0x624 DUP3 PUSH2 0x13F JUMP JUMPDEST SWAP2 POP PUSH2 0x62F DUP4 PUSH2 0x13F JUMP JUMPDEST SWAP3 POP DUP3 DUP3 ADD SWAP1 POP DUP1 DUP3 GT ISZERO PUSH2 0x647 JUMPI PUSH2 0x646 PUSH2 0x5ED JUMP JUMPDEST JUMPDEST SWAP3 SWAP2 POP POP JUMP JUMPDEST PUSH0 PUSH2 0x657 DUP3 PUSH2 0x13F JUMP JUMPDEST SWAP2 POP PUSH2 0x662 DUP4 PUSH2 0x13F JUMP JUMPDEST SWAP3 POP DUP3 DUP3 MUL PUSH2 0x670 DUP2 PUSH2 0x13F JUMP JUMPDEST SWAP2 POP DUP3 DUP3 DIV DUP5 EQ DUP4 ISZERO OR PUSH2 0x687 JUMPI PUSH2 0x686 PUSH2 0x5ED JUMP JUMPDEST JUMPDEST POP SWAP3 SWAP2 POP POP JUMP JUMPDEST PUSH32 0x4E487B7100000000000000000000000000000000000000000000000000000000 PUSH0 MSTORE PUSH1 0x21 PUSH1 0x4 MSTORE PUSH1 0x24 PUSH0 REVERT JUMPDEST PUSH0 DUP2 SWAP1 POP SWAP3 SWAP2 POP POP JUMP JUMPDEST PUSH0 DUP2 SLOAD PUSH2 0x6D1 DUP2 PUSH2 0x351 JUMP JUMPDEST PUSH2 0x6DB DUP2 DUP7 PUSH2 0x6BB JUMP JUMPDEST SWAP5 POP PUSH1 0x1 DUP3 AND PUSH0 DUP2 EQ PUSH2 0x6F5 JUMPI PUSH1 0x1 DUP2 EQ PUSH2 0x70A JUMPI PUSH2 0x73C JUMP JUMPDEST PUSH1 0xFF NOT DUP4 AND DUP7 MSTORE DUP2 ISZERO ISZERO DUP3 MUL DUP7 ADD SWAP4 POP PUSH2 0x73C JUMP JUMPDEST PUSH2 0x713 DUP6 PUSH2 0x381 JUMP JUMPDEST PUSH0 JUMPDEST DUP4 DUP2 LT ISZERO PUSH2 0x734 JUMPI DUP2 SLOAD DUP2 DUP10 ADD MSTORE PUSH1 0x1 DUP3 ADD SWAP2 POP PUSH1 0x20 DUP2 ADD SWAP1 POP PUSH2 0x715 JUMP JUMPDEST DUP4 DUP9 ADD SWAP6 POP POP POP JUMPDEST POP POP POP SWAP3 SWAP2 POP POP JUMP JUMPDEST PUSH0 PUSH2 0x750 DUP3 DUP5 PUSH2 0x6C5 JUMP JUMPDEST SWAP2 POP DUP2 SWAP1 POP SWAP3 SWAP2 POP POP JUMP JUMPDEST PUSH2 0x764 DUP2 PUSH2 0x13F JUMP JUMPDEST DUP3 MSTORE POP POP JUMP JUMPDEST PUSH0 PUSH1 0x20 DUP3 ADD SWAP1 POP PUSH2 0x77D PUSH0 DUP4 ADD DUP5 PUSH2 0x75B JUMP JUMPDEST SWAP3 SWAP2 POP POP JUMP JUMPDEST PUSH2 0x1B5D DUP1 PUSH2 0x790 PUSH0 CODECOPY PUSH0 RETURN INVALID PUSH1 0x80 PUSH1 0x40 MSTORE PUSH1 0x4 CALLDATASIZE LT PUSH2 0x49 JUMPI PUSH0 CALLDATALOAD PUSH1 0xE0 SHR DUP1 PUSH4 0x14D2687C EQ PUSH2 0x4D JUMPI DUP1 PUSH4 0x1998AEEF EQ PUSH2 0x77 JUMPI DUP1 PUSH4 0x43D726D6 EQ PUSH2 0x81 JUMPI DUP1 PUSH4 0xB7E03264 EQ PUSH2 0x97 JUMPI DUP1 PUSH4 0xD4E93292 EQ PUSH2 0xC2 JUMPI JUMPDEST PUSH0 DUP1 REVERT JUMPDEST CALLVALUE DUP1 ISZERO PUSH2 0x58 JUMPI PUSH0 DUP1 REVERT JUMPDEST POP PUSH2 0x61 PUSH2 0xD8 JUMP JUMPDEST PUSH1 0x40 MLOAD PUSH2 0x6E SWAP2 SWAP1 PUSH2 0x15BA JUMP JUMPDEST PUSH1 0x40 MLOAD DUP1 SWAP2 SUB SWAP1 RETURN JUMPDEST PUSH2 0x7F PUSH2 0x30D JUMP JUMPDEST STOP JUMPDEST CALLVALUE DUP1 ISZERO PUSH2 0x8C JUMPI PUSH0 DUP1 REVERT JUMPDEST POP PUSH2 0x95 PUSH2 0x7BA JUMP JUMPDEST STOP JUMPDEST CALLVALUE DUP1 ISZERO PUSH2 0xA2 JUMPI PUSH0 DUP1 REVERT JUMPDEST POP PUSH2 0xAB PUSH2 0xE0B JUMP JUMPDEST PUSH1 0x40 MLOAD PUSH2 0xB9 SWAP3 SWAP2 SWAP1 PUSH2 0x15F8 JUMP JUMPDEST PUSH1 0x40 MLOAD DUP1 SWAP2 SUB SWAP1 RETURN JUMPDEST CALLVALUE DUP1 ISZERO PUSH2 0xCD JUMPI PUSH0 DUP1 REVERT JUMPDEST POP PUSH2 0xD6 PUSH2 0xF83 JUMP JUMPDEST STOP JUMPDEST PUSH1 0x60 PUSH0 DUP1 PUSH1 0x1 DUP2 GT ISZERO PUSH2 0xEE JUMPI PUSH2 0xED PUSH2 0x161F JUMP JUMPDEST JUMPDEST PUSH1 0x1 PUSH0 SWAP1 SLOAD SWAP1 PUSH2 0x100 EXP SWAP1 DIV PUSH1 0xFF AND PUSH1 0x1 DUP2 GT ISZERO PUSH2 0x10F JUMPI PUSH2 0x10E PUSH2 0x161F JUMP JUMPDEST JUMPDEST EQ PUSH2 0x15F JUMPI PUSH1 0x1 PUSH0 SWAP1 SLOAD SWAP1 PUSH2 0x100 EXP SWAP1 DIV PUSH1 0xFF AND PUSH1 0x40 MLOAD PUSH32 0xF1C25C2000000000000000000000000000000000000000000000000000000000 DUP2 MSTORE PUSH1 0x4 ADD PUSH2 0x156 SWAP2 SWAP1 PUSH2 0x1692 JUMP JUMPDEST PUSH1 0x40 MLOAD DUP1 SWAP2 SUB SWAP1 REVERT JUMPDEST PUSH0 PUSH1 0x9 DUP1 SLOAD SWAP1 POP PUSH8 0xFFFFFFFFFFFFFFFF DUP2 GT ISZERO PUSH2 0x17F JUMPI PUSH2 0x17E PUSH2 0x16AB JUMP JUMPDEST JUMPDEST PUSH1 0x40 MLOAD SWAP1 DUP1 DUP3 MSTORE DUP1 PUSH1 0x20 MUL PUSH1 0x20 ADD DUP3 ADD PUSH1 0x40 MSTORE DUP1 ISZERO PUSH2 0x1B8 JUMPI DUP2 PUSH1 0x20 ADD JUMPDEST PUSH2 0x1A5 PUSH2 0x13F9 JUMP JUMPDEST DUP2 MSTORE PUSH1 0x20 ADD SWAP1 PUSH1 0x1 SWAP1 SUB SWAP1 DUP2 PUSH2 0x19D JUMPI SWAP1 POP JUMPDEST POP SWAP1 POP PUSH0 JUMPDEST PUSH1 0x9 DUP1 SLOAD SWAP1 POP DUP2 LT ISZERO PUSH2 0x304 JUMPI PUSH1 0xA PUSH0 PUSH1 0x9 DUP4 DUP2 SLOAD DUP2 LT PUSH2 0x1E1 JUMPI PUSH2 0x1E0 PUSH2 0x16D8 JUMP JUMPDEST JUMPDEST SWAP1 PUSH0 MSTORE PUSH1 0x20 PUSH0 KECCAK256 ADD PUSH0 SWAP1 SLOAD SWAP1 PUSH2 0x100 EXP SWAP1 DIV PUSH20 0xFFFFFFFFFFFFFFFFFFFFFFFFFFFFFFFFFFFFFFFF AND PUSH20 0xFFFFFFFFFFFFFFFFFFFFFFFFFFFFFFFFFFFFFFFF AND PUSH20 0xFFFFFFFFFFFFFFFFFFFFFFFFFFFFFFFFFFFFFFFF AND DUP2 MSTORE PUSH1 0x20 ADD SWAP1 DUP2 MSTORE PUSH1 0x20 ADD PUSH0 KECCAK256 PUSH1 0x40 MLOAD DUP1 PUSH1 0xA0 ADD PUSH1 0x40 MSTORE SWAP1 DUP2 PUSH0 DUP3 ADD PUSH0 SWAP1 SLOAD SWAP1 PUSH2 0x100 EXP SWAP1 DIV PUSH1 0xFF AND ISZERO ISZERO ISZERO ISZERO DUP2 MSTORE PUSH1 0x20 ADD PUSH1 0x1 DUP3 ADD SLOAD DUP2 MSTORE PUSH1 0x20 ADD PUSH1 0x2 DUP3 ADD SLOAD DUP2 MSTORE PUSH1 0x20 ADD PUSH1 0x3 DUP3 ADD SLOAD DUP2 MSTORE PUSH1 0x20 ADD PUSH1 0x4 DUP3 ADD PUSH0 SWAP1 SLOAD SWAP1 PUSH2 0x100 EXP SWAP1 DIV PUSH20 0xFFFFFFFFFFFFFFFFFFFFFFFFFFFFFFFFFFFFFFFF AND PUSH20 0xFFFFFFFFFFFFFFFFFFFFFFFFFFFFFFFFFFFFFFFF AND PUSH20 0xFFFFFFFFFFFFFFFFFFFFFFFFFFFFFFFFFFFFFFFF AND DUP2 MSTORE POP POP DUP3 DUP3 DUP2 MLOAD DUP2 LT PUSH2 0x2EC JUMPI PUSH2 0x2EB PUSH2 0x16D8 JUMP JUMPDEST JUMPDEST PUSH1 0x20 MUL PUSH1 0x20 ADD ADD DUP2 SWAP1 MSTORE POP DUP1 DUP1 PUSH1 0x1 ADD SWAP2 POP POP PUSH2 0x1BD JUMP JUMPDEST POP DUP1 SWAP3 POP POP POP SWAP1 JUMP JUMPDEST PUSH0 DUP1 SLOAD TIMESTAMP LT PUSH2 0x32E JUMPI PUSH2 0x258 PUSH1 0x2 PUSH1 0x1 ADD SLOAD PUSH2 0x329 SWAP2 SWAP1 PUSH2 0x1732 JUMP JUMPDEST PUSH2 0x331 JUMP JUMPDEST PUSH0 SLOAD JUMPDEST SWAP1 POP PUSH0 PUSH1 0x1 DUP2 GT ISZERO PUSH2 0x346 JUMPI PUSH2 0x345 PUSH2 0x161F JUMP JUMPDEST JUMPDEST PUSH1 0x1 PUSH0 SWAP1 SLOAD SWAP1 PUSH2 0x100 EXP SWAP1 DIV PUSH1 0xFF AND PUSH1 0x1 DUP2 GT ISZERO PUSH2 0x367 JUMPI PUSH2 0x366 PUSH2 0x161F JUMP JUMPDEST JUMPDEST EQ DUP1 ISZERO PUSH2 0x373 JUMPI POP DUP1 TIMESTAMP GT JUMPDEST ISZERO PUSH2 0x381 JUMPI PUSH2 0x380 PUSH2 0x1391 JUMP JUMPDEST JUMPDEST PUSH0 DUP1 PUSH1 0x1 DUP2 GT ISZERO PUSH2 0x395 JUMPI PUSH2 0x394 PUSH2 0x161F JUMP JUMPDEST JUMPDEST PUSH1 0x1 PUSH0 SWAP1 SLOAD SWAP1 PUSH2 0x100 EXP SWAP1 DIV PUSH1 0xFF AND PUSH1 0x1 DUP2 GT ISZERO PUSH2 0x3B6 JUMPI PUSH2 0x3B5 PUSH2 0x161F JUMP JUMPDEST JUMPDEST EQ PUSH2 0x406 JUMPI PUSH1 0x1 PUSH0 SWAP1 SLOAD SWAP1 PUSH2 0x100 EXP SWAP1 DIV PUSH1 0xFF AND PUSH1 0x40 MLOAD PUSH32 0xF1C25C2000000000000000000000000000000000000000000000000000000000 DUP2 MSTORE PUSH1 0x4 ADD PUSH2 0x3FD SWAP2 SWAP1 PUSH2 0x1692 JUMP JUMPDEST PUSH1 0x40 MLOAD DUP1 SWAP2 SUB SWAP1 REVERT JUMPDEST PUSH1 0x64 PUSH1 0x5 PUSH1 0x2 PUSH1 0x3 ADD SLOAD PUSH2 0x41A SWAP2 SWAP1 PUSH2 0x1765 JUMP JUMPDEST PUSH2 0x424 SWAP2 SWAP1 PUSH2 0x17D3 JUMP JUMPDEST PUSH1 0x2 PUSH1 0x3 ADD SLOAD PUSH2 0x434 SWAP2 SWAP1 PUSH2 0x1732 JUMP JUMPDEST CALLVALUE GT PUSH2 0x475 JUMPI PUSH1 0x40 MLOAD PUSH32 0x1410D82200000000000000000000000000000000000000000000000000000000 DUP2 MSTORE PUSH1 0x4 ADD PUSH2 0x46C SWAP1 PUSH2 0x1883 JUMP JUMPDEST PUSH1 0x40 MLOAD DUP1 SWAP2 SUB SWAP1 REVERT JUMPDEST PUSH1 0xA PUSH0 CALLER PUSH20 0xFFFFFFFFFFFFFFFFFFFFFFFFFFFFFFFFFFFFFFFF AND PUSH20 0xFFFFFFFFFFFFFFFFFFFFFFFFFFFFFFFFFFFFFFFF AND DUP2 MSTORE PUSH1 0x20 ADD SWAP1 DUP2 MSTORE PUSH1 0x20 ADD PUSH0 KECCAK256 PUSH0 ADD PUSH0 SWAP1 SLOAD SWAP1 PUSH2 0x100 EXP SWAP1 DIV PUSH1 0xFF AND PUSH2 0x526 JUMPI PUSH1 0x9 CALLER SWAP1 DUP1 PUSH1 0x1 DUP2 SLOAD ADD DUP1 DUP3 SSTORE DUP1 SWAP2 POP POP PUSH1 0x1 SWAP1 SUB SWAP1 PUSH0 MSTORE PUSH1 0x20 PUSH0 KECCAK256 ADD PUSH0 SWAP1 SWAP2 SWAP1 SWAP2 SWAP1 SWAP2 PUSH2 0x100 EXP DUP2 SLOAD DUP2 PUSH20 0xFFFFFFFFFFFFFFFFFFFFFFFFFFFFFFFFFFFFFFFF MUL NOT AND SWAP1 DUP4 PUSH20 0xFFFFFFFFFFFFFFFFFFFFFFFFFFFFFFFFFFFFFFFF AND MUL OR SWAP1 SSTORE POP JUMPDEST CALLVALUE PUSH1 0x2 DUP1 ADD PUSH0 DUP3 DUP3 SLOAD PUSH2 0x539 SWAP2 SWAP1 PUSH2 0x1732 JUMP JUMPDEST SWAP3 POP POP DUP2 SWAP1 SSTORE POP CALLVALUE PUSH1 0x2 PUSH1 0x3 ADD DUP2 SWAP1 SSTORE POP CALLER PUSH1 0x2 PUSH1 0x4 ADD PUSH0 PUSH2 0x100 EXP DUP2 SLOAD DUP2 PUSH20 0xFFFFFFFFFFFFFFFFFFFFFFFFFFFFFFFFFFFFFFFF MUL NOT AND SWAP1 DUP4 PUSH20 0xFFFFFFFFFFFFFFFFFFFFFFFFFFFFFFFFFFFFFFFF AND MUL OR SWAP1 SSTORE POP PUSH1 0x1 PUSH1 0x2 PUSH0 ADD PUSH0 PUSH2 0x100 EXP DUP2 SLOAD DUP2 PUSH1 0xFF MUL NOT AND SWAP1 DUP4 ISZERO ISZERO MUL OR SWAP1 SSTORE POP TIMESTAMP PUSH1 0x2 PUSH1 0x1 ADD DUP2 SWAP1 SSTORE POP CALLVALUE PUSH1 0xA PUSH0 CALLER PUSH20 0xFFFFFFFFFFFFFFFFFFFFFFFFFFFFFFFFFFFFFFFF AND PUSH20 0xFFFFFFFFFFFFFFFFFFFFFFFFFFFFFFFFFFFFFFFF AND DUP2 MSTORE PUSH1 0x20 ADD SWAP1 DUP2 MSTORE PUSH1 0x20 ADD PUSH0 KECCAK256 PUSH1 0x2 ADD PUSH0 DUP3 DUP3 SLOAD PUSH2 0x602 SWAP2 SWAP1 PUSH2 0x1732 JUMP JUMPDEST SWAP3 POP POP DUP2 SWAP1 SSTORE POP CALLVALUE PUSH1 0xA PUSH0 CALLER PUSH20 0xFFFFFFFFFFFFFFFFFFFFFFFFFFFFFFFFFFFFFFFF AND PUSH20 0xFFFFFFFFFFFFFFFFFFFFFFFFFFFFFFFFFFFFFFFF AND DUP2 MSTORE PUSH1 0x20 ADD SWAP1 DUP2 MSTORE PUSH1 0x20 ADD PUSH0 KECCAK256 PUSH1 0x3 ADD DUP2 SWAP1 SSTORE POP CALLER PUSH1 0xA PUSH0 CALLER PUSH20 0xFFFFFFFFFFFFFFFFFFFFFFFFFFFFFFFFFFFFFFFF AND PUSH20 0xFFFFFFFFFFFFFFFFFFFFFFFFFFFFFFFFFFFFFFFF AND DUP2 MSTORE PUSH1 0x20 ADD SWAP1 DUP2 MSTORE PUSH1 0x20 ADD PUSH0 KECCAK256 PUSH1 0x4 ADD PUSH0 PUSH2 0x100 EXP DUP2 SLOAD DUP2 PUSH20 0xFFFFFFFFFFFFFFFFFFFFFFFFFFFFFFFFFFFFFFFF MUL NOT AND SWAP1 DUP4 PUSH20 0xFFFFFFFFFFFFFFFFFFFFFFFFFFFFFFFFFFFFFFFF AND MUL OR SWAP1 SSTORE POP PUSH1 0x1 PUSH1 0xA PUSH0 CALLER PUSH20 0xFFFFFFFFFFFFFFFFFFFFFFFFFFFFFFFFFFFFFFFF AND PUSH20 0xFFFFFFFFFFFFFFFFFFFFFFFFFFFFFFFFFFFFFFFF AND DUP2 MSTORE PUSH1 0x20 ADD SWAP1 DUP2 MSTORE PUSH1 0x20 ADD PUSH0 KECCAK256 PUSH0 ADD PUSH0 PUSH2 0x100 EXP DUP2 SLOAD DUP2 PUSH1 0xFF MUL NOT AND SWAP1 DUP4 ISZERO ISZERO MUL OR SWAP1 SSTORE POP TIMESTAMP PUSH1 0xA PUSH0 CALLER PUSH20 0xFFFFFFFFFFFFFFFFFFFFFFFFFFFFFFFFFFFFFFFF AND PUSH20 0xFFFFFFFFFFFFFFFFFFFFFFFFFFFFFFFFFFFFFFFF AND DUP2 MSTORE PUSH1 0x20 ADD SWAP1 DUP2 MSTORE PUSH1 0x20 ADD PUSH0 KECCAK256 PUSH1 0x1 ADD DUP2 SWAP1 SSTORE POP CALLER PUSH20 0xFFFFFFFFFFFFFFFFFFFFFFFFFFFFFFFFFFFFFFFF AND PUSH32 0xDD0B6C6A77960E2066C96171B4D7AC9E8B4C184011F38544AFA36A5BB63EC59F CALLVALUE PUSH1 0x40 MLOAD PUSH2 0x7AE SWAP2 SWAP1 PUSH2 0x18A1 JUMP JUMPDEST PUSH1 0x40 MLOAD DUP1 SWAP2 SUB SWAP1 LOG2 POP POP JUMP JUMPDEST PUSH0 DUP1 SLOAD TIMESTAMP LT PUSH2 0x7DB JUMPI PUSH2 0x258 PUSH1 0x2 PUSH1 0x1 ADD SLOAD PUSH2 0x7D6 SWAP2 SWAP1 PUSH2 0x1732 JUMP JUMPDEST PUSH2 0x7DE JUMP JUMPDEST PUSH0 SLOAD JUMPDEST SWAP1 POP PUSH0 PUSH1 0x1 DUP2 GT ISZERO PUSH2 0x7F3 JUMPI PUSH2 0x7F2 PUSH2 0x161F JUMP JUMPDEST JUMPDEST PUSH1 0x1 PUSH0 SWAP1 SLOAD SWAP1 PUSH2 0x100 EXP SWAP1 DIV PUSH1 0xFF AND PUSH1 0x1 DUP2 GT ISZERO PUSH2 0x814 JUMPI PUSH2 0x813 PUSH2 0x161F JUMP JUMPDEST JUMPDEST EQ DUP1 ISZERO PUSH2 0x820 JUMPI POP DUP1 TIMESTAMP GT JUMPDEST ISZERO PUSH2 0x82E JUMPI PUSH2 0x82D PUSH2 0x1391 JUMP JUMPDEST JUMPDEST PUSH0 DUP1 PUSH1 0x1 DUP2 GT ISZERO PUSH2 0x842 JUMPI PUSH2 0x841 PUSH2 0x161F JUMP JUMPDEST JUMPDEST DUP2 PUSH1 0x1 DUP2 GT ISZERO PUSH2 0x855 JUMPI PUSH2 0x854 PUSH2 0x161F JUMP JUMPDEST JUMPDEST EQ DUP1 ISZERO PUSH2 0x8AF JUMPI POP PUSH1 0x7 PUSH0 SWAP1 SLOAD SWAP1 PUSH2 0x100 EXP SWAP1 DIV PUSH20 0xFFFFFFFFFFFFFFFFFFFFFFFFFFFFFFFFFFFFFFFF AND PUSH20 0xFFFFFFFFFFFFFFFFFFFFFFFFFFFFFFFFFFFFFFFF AND CALLER PUSH20 0xFFFFFFFFFFFFFFFFFFFFFFFFFFFFFFFFFFFFFFFF AND EQ ISZERO JUMPDEST ISZERO PUSH2 0x8EF JUMPI PUSH1 0x40 MLOAD PUSH32 0x58A3F3C000000000000000000000000000000000000000000000000000000000 DUP2 MSTORE PUSH1 0x4 ADD PUSH2 0x8E6 SWAP1 PUSH2 0x1904 JUMP JUMPDEST PUSH1 0x40 MLOAD DUP1 SWAP2 SUB SWAP1 REVERT JUMPDEST PUSH1 0x1 DUP1 DUP2 GT ISZERO PUSH2 0x902 JUMPI PUSH2 0x901 PUSH2 0x161F JUMP JUMPDEST JUMPDEST DUP2 PUSH1 0x1 DUP2 GT ISZERO PUSH2 0x915 JUMPI PUSH2 0x914 PUSH2 0x161F JUMP JUMPDEST JUMPDEST EQ DUP1 ISZERO PUSH2 0x96B JUMPI POP PUSH1 0xA PUSH0 CALLER PUSH20 0xFFFFFFFFFFFFFFFFFFFFFFFFFFFFFFFFFFFFFFFF AND PUSH20 0xFFFFFFFFFFFFFFFFFFFFFFFFFFFFFFFFFFFFFFFF AND DUP2 MSTORE PUSH1 0x20 ADD SWAP1 DUP2 MSTORE PUSH1 0x20 ADD PUSH0 KECCAK256 PUSH0 ADD PUSH0 SWAP1 SLOAD SWAP1 PUSH2 0x100 EXP SWAP1 DIV PUSH1 0xFF AND ISZERO JUMPDEST ISZERO PUSH2 0x9AB JUMPI PUSH1 0x40 MLOAD PUSH32 0x58A3F3C000000000000000000000000000000000000000000000000000000000 DUP2 MSTORE PUSH1 0x4 ADD PUSH2 0x9A2 SWAP1 PUSH2 0x196C JUMP JUMPDEST PUSH1 0x40 MLOAD DUP1 SWAP2 SUB SWAP1 REVERT JUMPDEST PUSH1 0x1 DUP1 PUSH1 0x1 DUP2 GT ISZERO PUSH2 0x9C0 JUMPI PUSH2 0x9BF PUSH2 0x161F JUMP JUMPDEST JUMPDEST PUSH1 0x1 PUSH0 SWAP1 SLOAD SWAP1 PUSH2 0x100 EXP SWAP1 DIV PUSH1 0xFF AND PUSH1 0x1 DUP2 GT ISZERO PUSH2 0x9E1 JUMPI PUSH2 0x9E0 PUSH2 0x161F JUMP JUMPDEST JUMPDEST EQ PUSH2 0xA31 JUMPI PUSH1 0x1 PUSH0 SWAP1 SLOAD SWAP1 PUSH2 0x100 EXP SWAP1 DIV PUSH1 0xFF AND PUSH1 0x40 MLOAD PUSH32 0xF1C25C2000000000000000000000000000000000000000000000000000000000 DUP2 MSTORE PUSH1 0x4 ADD PUSH2 0xA28 SWAP2 SWAP1 PUSH2 0x1692 JUMP JUMPDEST PUSH1 0x40 MLOAD DUP1 SWAP2 SUB SWAP1 REVERT JUMPDEST PUSH1 0x2 PUSH0 ADD PUSH0 SWAP1 SLOAD SWAP1 PUSH2 0x100 EXP SWAP1 DIV PUSH1 0xFF AND PUSH2 0xAB0 JUMPI PUSH0 PUSH20 0xFFFFFFFFFFFFFFFFFFFFFFFFFFFFFFFFFFFFFFFF AND PUSH1 0x8 PUSH1 0x40 MLOAD PUSH2 0xA6C SWAP2 SWAP1 PUSH2 0x1A83 JUMP JUMPDEST PUSH1 0x40 MLOAD DUP1 SWAP2 SUB SWAP1 KECCAK256 PUSH32 0xEF1C1AC56C3E721A0A9BDB9F70B99F3CD67D25C1AABE4830F296C2391DC1C2E8 PUSH0 PUSH1 0x40 MLOAD PUSH2 0xAA3 SWAP2 SWAP1 PUSH2 0x1ADB JUMP JUMPDEST PUSH1 0x40 MLOAD DUP1 SWAP2 SUB SWAP1 LOG3 PUSH2 0xE06 JUMP JUMPDEST PUSH1 0x2 PUSH1 0x4 ADD PUSH0 SWAP1 SLOAD SWAP1 PUSH2 0x100 EXP SWAP1 DIV PUSH20 0xFFFFFFFFFFFFFFFFFFFFFFFFFFFFFFFFFFFFFFFF AND PUSH20 0xFFFFFFFFFFFFFFFFFFFFFFFFFFFFFFFFFFFFFFFF AND PUSH1 0x8 PUSH1 0x40 MLOAD PUSH2 0xAFA SWAP2 SWAP1 PUSH2 0x1A83 JUMP JUMPDEST PUSH1 0x40 MLOAD DUP1 SWAP2 SUB SWAP1 KECCAK256 PUSH32 0xEF1C1AC56C3E721A0A9BDB9F70B99F3CD67D25C1AABE4830F296C2391DC1C2E8 PUSH1 0x2 PUSH1 0x3 ADD SLOAD PUSH1 0x40 MLOAD PUSH2 0xB36 SWAP2 SWAP1 PUSH2 0x18A1 JUMP JUMPDEST PUSH1 0x40 MLOAD DUP1 SWAP2 SUB SWAP1 LOG3 PUSH0 JUMPDEST PUSH1 0x9 DUP1 SLOAD SWAP1 POP DUP2 LT ISZERO PUSH2 0xE04 JUMPI PUSH1 0x2 PUSH1 0x4 ADD PUSH0 SWAP1 SLOAD SWAP1 PUSH2 0x100 EXP SWAP1 DIV PUSH20 0xFFFFFFFFFFFFFFFFFFFFFFFFFFFFFFFFFFFFFFFF AND PUSH20 0xFFFFFFFFFFFFFFFFFFFFFFFFFFFFFFFFFFFFFFFF AND PUSH1 0x9 DUP3 DUP2 SLOAD DUP2 LT PUSH2 0xB9C JUMPI PUSH2 0xB9B PUSH2 0x16D8 JUMP JUMPDEST JUMPDEST SWAP1 PUSH0 MSTORE PUSH1 0x20 PUSH0 KECCAK256 ADD PUSH0 SWAP1 SLOAD SWAP1 PUSH2 0x100 EXP SWAP1 DIV PUSH20 0xFFFFFFFFFFFFFFFFFFFFFFFFFFFFFFFFFFFFFFFF AND PUSH20 0xFFFFFFFFFFFFFFFFFFFFFFFFFFFFFFFFFFFFFFFF AND EQ PUSH2 0xDF7 JUMPI PUSH0 PUSH1 0xA PUSH0 PUSH1 0x9 DUP5 DUP2 SLOAD DUP2 LT PUSH2 0xBF7 JUMPI PUSH2 0xBF6 PUSH2 0x16D8 JUMP JUMPDEST JUMPDEST SWAP1 PUSH0 MSTORE PUSH1 0x20 PUSH0 KECCAK256 ADD PUSH0 SWAP1 SLOAD SWAP1 PUSH2 0x100 EXP SWAP1 DIV PUSH20 0xFFFFFFFFFFFFFFFFFFFFFFFFFFFFFFFFFFFFFFFF AND PUSH20 0xFFFFFFFFFFFFFFFFFFFFFFFFFFFFFFFFFFFFFFFF AND PUSH20 0xFFFFFFFFFFFFFFFFFFFFFFFFFFFFFFFFFFFFFFFF AND DUP2 MSTORE PUSH1 0x20 ADD SWAP1 DUP2 MSTORE PUSH1 0x20 ADD PUSH0 KECCAK256 PUSH1 0x2 ADD SLOAD SWAP1 POP PUSH0 PUSH1 0xA PUSH0 PUSH1 0x9 DUP6 DUP2 SLOAD DUP2 LT PUSH2 0xC76 JUMPI PUSH2 0xC75 PUSH2 0x16D8 JUMP JUMPDEST JUMPDEST SWAP1 PUSH0 MSTORE PUSH1 0x20 PUSH0 KECCAK256 ADD PUSH0 SWAP1 SLOAD SWAP1 PUSH2 0x100 EXP SWAP1 DIV PUSH20 0xFFFFFFFFFFFFFFFFFFFFFFFFFFFFFFFFFFFFFFFF AND PUSH20 0xFFFFFFFFFFFFFFFFFFFFFFFFFFFFFFFFFFFFFFFF AND PUSH20 0xFFFFFFFFFFFFFFFFFFFFFFFFFFFFFFFFFFFFFFFF AND DUP2 MSTORE PUSH1 0x20 ADD SWAP1 DUP2 MSTORE PUSH1 0x20 ADD PUSH0 KECCAK256 PUSH1 0x2 ADD DUP2 SWAP1 SSTORE POP PUSH1 0x9 DUP3 DUP2 SLOAD DUP2 LT PUSH2 0xCF2 JUMPI PUSH2 0xCF1 PUSH2 0x16D8 JUMP JUMPDEST JUMPDEST SWAP1 PUSH0 MSTORE PUSH1 0x20 PUSH0 KECCAK256 ADD PUSH0 SWAP1 SLOAD SWAP1 PUSH2 0x100 EXP SWAP1 DIV PUSH20 0xFFFFFFFFFFFFFFFFFFFFFFFFFFFFFFFFFFFFFFFF AND PUSH20 0xFFFFFFFFFFFFFFFFFFFFFFFFFFFFFFFFFFFFFFFF AND PUSH2 0x8FC PUSH1 0x64 PUSH1 0x2 DUP5 PUSH2 0xD42 SWAP2 SWAP1 PUSH2 0x1765 JUMP JUMPDEST PUSH2 0xD4C SWAP2 SWAP1 PUSH2 0x17D3 JUMP JUMPDEST DUP4 PUSH2 0xD57 SWAP2 SWAP1 PUSH2 0x1AF4 JUMP JUMPDEST SWAP1 DUP2 ISZERO MUL SWAP1 PUSH1 0x40 MLOAD PUSH0 PUSH1 0x40 MLOAD DUP1 DUP4 SUB DUP2 DUP6 DUP9 DUP9 CALL SWAP4 POP POP POP POP PUSH2 0xDF5 JUMPI DUP1 PUSH1 0xA PUSH0 PUSH1 0x9 DUP6 DUP2 SLOAD DUP2 LT PUSH2 0xD8C JUMPI PUSH2 0xD8B PUSH2 0x16D8 JUMP JUMPDEST JUMPDEST SWAP1 PUSH0 MSTORE PUSH1 0x20 PUSH0 KECCAK256 ADD PUSH0 SWAP1 SLOAD SWAP1 PUSH2 0x100 EXP SWAP1 DIV PUSH20 0xFFFFFFFFFFFFFFFFFFFFFFFFFFFFFFFFFFFFFFFF AND PUSH20 0xFFFFFFFFFFFFFFFFFFFFFFFFFFFFFFFFFFFFFFFF AND PUSH20 0xFFFFFFFFFFFFFFFFFFFFFFFFFFFFFFFFFFFFFFFF AND DUP2 MSTORE PUSH1 0x20 ADD SWAP1 DUP2 MSTORE PUSH1 0x20 ADD PUSH0 KECCAK256 PUSH1 0x2 ADD DUP2 SWAP1 SSTORE POP JUMPDEST POP JUMPDEST DUP1 DUP1 PUSH1 0x1 ADD SWAP2 POP POP PUSH2 0xB40 JUMP JUMPDEST POP JUMPDEST POP POP POP JUMP JUMPDEST PUSH0 DUP1 PUSH0 DUP1 SLOAD TIMESTAMP LT PUSH2 0xE2E JUMPI PUSH2 0x258 PUSH1 0x2 PUSH1 0x1 ADD SLOAD PUSH2 0xE29 SWAP2 SWAP1 PUSH2 0x1732 JUMP JUMPDEST PUSH2 0xE31 JUMP JUMPDEST PUSH0 SLOAD JUMPDEST SWAP1 POP PUSH0 PUSH1 0x1 DUP2 GT ISZERO PUSH2 0xE46 JUMPI PUSH2 0xE45 PUSH2 0x161F JUMP JUMPDEST JUMPDEST PUSH1 0x1 PUSH0 SWAP1 SLOAD SWAP1 PUSH2 0x100 EXP SWAP1 DIV PUSH1 0xFF AND PUSH1 0x1 DUP2 GT ISZERO PUSH2 0xE67 JUMPI PUSH2 0xE66 PUSH2 0x161F JUMP JUMPDEST JUMPDEST EQ DUP1 ISZERO PUSH2 0xE73 JUMPI POP DUP1 TIMESTAMP GT JUMPDEST ISZERO PUSH2 0xE81 JUMPI PUSH2 0xE80 PUSH2 0x1391 JUMP JUMPDEST JUMPDEST PUSH1 0x1 DUP1 PUSH1 0x1 DUP2 GT ISZERO PUSH2 0xE96 JUMPI PUSH2 0xE95 PUSH2 0x161F JUMP JUMPDEST JUMPDEST PUSH1 0x1 PUSH0 SWAP1 SLOAD SWAP1 PUSH2 0x100 EXP SWAP1 DIV PUSH1 0xFF AND PUSH1 0x1 DUP2 GT ISZERO PUSH2 0xEB7 JUMPI PUSH2 0xEB6 PUSH2 0x161F JUMP JUMPDEST JUMPDEST EQ PUSH2 0xF07 JUMPI PUSH1 0x1 PUSH0 SWAP1 SLOAD SWAP1 PUSH2 0x100 EXP SWAP1 DIV PUSH1 0xFF AND PUSH1 0x40 MLOAD PUSH32 0xF1C25C2000000000000000000000000000000000000000000000000000000000 DUP2 MSTORE PUSH1 0x4 ADD PUSH2 0xEFE SWAP2 SWAP1 PUSH2 0x1692 JUMP JUMPDEST PUSH1 0x40 MLOAD DUP1 SWAP2 SUB SWAP1 REVERT JUMPDEST PUSH1 0x2 PUSH0 ADD PUSH0 SWAP1 SLOAD SWAP1 PUSH2 0x100 EXP SWAP1 DIV PUSH1 0xFF AND PUSH2 0xF4E JUMPI PUSH1 0x40 MLOAD PUSH32 0x9B03499700000000000000000000000000000000000000000000000000000000 DUP2 MSTORE PUSH1 0x4 ADD PUSH1 0x40 MLOAD DUP1 SWAP2 SUB SWAP1 REVERT JUMPDEST PUSH1 0x2 PUSH1 0x4 ADD PUSH0 SWAP1 SLOAD SWAP1 PUSH2 0x100 EXP SWAP1 DIV PUSH20 0xFFFFFFFFFFFFFFFFFFFFFFFFFFFFFFFFFFFFFFFF AND PUSH1 0x2 PUSH1 0x3 ADD SLOAD SWAP4 POP SWAP4 POP POP POP SWAP1 SWAP2 JUMP JUMPDEST PUSH0 DUP1 SLOAD TIMESTAMP LT PUSH2 0xFA4 JUMPI PUSH2 0x258 PUSH1 0x2 PUSH1 0x1 ADD SLOAD PUSH2 0xF9F SWAP2 SWAP1 PUSH2 0x1732 JUMP JUMPDEST PUSH2 0xFA7 JUMP JUMPDEST PUSH0 SLOAD JUMPDEST SWAP1 POP PUSH0 PUSH1 0x1 DUP2 GT ISZERO PUSH2 0xFBC JUMPI PUSH2 0xFBB PUSH2 0x161F JUMP JUMPDEST JUMPDEST PUSH1 0x1 PUSH0 SWAP1 SLOAD SWAP1 PUSH2 0x100 EXP SWAP1 DIV PUSH1 0xFF AND PUSH1 0x1 DUP2 GT ISZERO PUSH2 0xFDD JUMPI PUSH2 0xFDC PUSH2 0x161F JUMP JUMPDEST JUMPDEST EQ DUP1 ISZERO PUSH2 0xFE9 JUMPI POP DUP1 TIMESTAMP GT JUMPDEST ISZERO PUSH2 0xFF7 JUMPI PUSH2 0xFF6 PUSH2 0x1391 JUMP JUMPDEST JUMPDEST PUSH1 0x1 PUSH0 PUSH1 0x1 DUP2 GT ISZERO PUSH2 0x100C JUMPI PUSH2 0x100B PUSH2 0x161F JUMP JUMPDEST JUMPDEST DUP2 PUSH1 0x1 DUP2 GT ISZERO PUSH2 0x101F JUMPI PUSH2 0x101E PUSH2 0x161F JUMP JUMPDEST JUMPDEST EQ DUP1 ISZERO PUSH2 0x1079 JUMPI POP PUSH1 0x7 PUSH0 SWAP1 SLOAD SWAP1 PUSH2 0x100 EXP SWAP1 DIV PUSH20 0xFFFFFFFFFFFFFFFFFFFFFFFFFFFFFFFFFFFFFFFF AND PUSH20 0xFFFFFFFFFFFFFFFFFFFFFFFFFFFFFFFFFFFFFFFF AND CALLER PUSH20 0xFFFFFFFFFFFFFFFFFFFFFFFFFFFFFFFFFFFFFFFF AND EQ ISZERO JUMPDEST ISZERO PUSH2 0x10B9 JUMPI PUSH1 0x40 MLOAD PUSH32 0x58A3F3C000000000000000000000000000000000000000000000000000000000 DUP2 MSTORE PUSH1 0x4 ADD PUSH2 0x10B0 SWAP1 PUSH2 0x1904 JUMP JUMPDEST PUSH1 0x40 MLOAD DUP1 SWAP2 SUB SWAP1 REVERT JUMPDEST PUSH1 0x1 DUP1 DUP2 GT ISZERO PUSH2 0x10CC JUMPI PUSH2 0x10CB PUSH2 0x161F JUMP JUMPDEST JUMPDEST DUP2 PUSH1 0x1 DUP2 GT ISZERO PUSH2 0x10DF JUMPI PUSH2 0x10DE PUSH2 0x161F JUMP JUMPDEST JUMPDEST EQ DUP1 ISZERO PUSH2 0x1135 JUMPI POP PUSH1 0xA PUSH0 CALLER PUSH20 0xFFFFFFFFFFFFFFFFFFFFFFFFFFFFFFFFFFFFFFFF AND PUSH20 0xFFFFFFFFFFFFFFFFFFFFFFFFFFFFFFFFFFFFFFFF AND DUP2 MSTORE PUSH1 0x20 ADD SWAP1 DUP2 MSTORE PUSH1 0x20 ADD PUSH0 KECCAK256 PUSH0 ADD PUSH0 SWAP1 SLOAD SWAP1 PUSH2 0x100 EXP SWAP1 DIV PUSH1 0xFF AND ISZERO JUMPDEST ISZERO PUSH2 0x1175 JUMPI PUSH1 0x40 MLOAD PUSH32 0x58A3F3C000000000000000000000000000000000000000000000000000000000 DUP2 MSTORE PUSH1 0x4 ADD PUSH2 0x116C SWAP1 PUSH2 0x196C JUMP JUMPDEST PUSH1 0x40 MLOAD DUP1 SWAP2 SUB SWAP1 REVERT JUMPDEST PUSH0 DUP1 PUSH1 0x1 DUP2 GT ISZERO PUSH2 0x1189 JUMPI PUSH2 0x1188 PUSH2 0x161F JUMP JUMPDEST JUMPDEST PUSH1 0x1 PUSH0 SWAP1 SLOAD SWAP1 PUSH2 0x100 EXP SWAP1 DIV PUSH1 0xFF AND PUSH1 0x1 DUP2 GT ISZERO PUSH2 0x11AA JUMPI PUSH2 0x11A9 PUSH2 0x161F JUMP JUMPDEST JUMPDEST EQ PUSH2 0x11FA JUMPI PUSH1 0x1 PUSH0 SWAP1 SLOAD SWAP1 PUSH2 0x100 EXP SWAP1 DIV PUSH1 0xFF AND PUSH1 0x40 MLOAD PUSH32 0xF1C25C2000000000000000000000000000000000000000000000000000000000 DUP2 MSTORE PUSH1 0x4 ADD PUSH2 0x11F1 SWAP2 SWAP1 PUSH2 0x1692 JUMP JUMPDEST PUSH1 0x40 MLOAD DUP1 SWAP2 SUB SWAP1 REVERT JUMPDEST PUSH0 PUSH1 0xA PUSH0 CALLER PUSH20 0xFFFFFFFFFFFFFFFFFFFFFFFFFFFFFFFFFFFFFFFF AND PUSH20 0xFFFFFFFFFFFFFFFFFFFFFFFFFFFFFFFFFFFFFFFF AND DUP2 MSTORE PUSH1 0x20 ADD SWAP1 DUP2 MSTORE PUSH1 0x20 ADD PUSH0 KECCAK256 PUSH1 0x3 ADD SLOAD PUSH1 0xA PUSH0 CALLER PUSH20 0xFFFFFFFFFFFFFFFFFFFFFFFFFFFFFFFFFFFFFFFF AND PUSH20 0xFFFFFFFFFFFFFFFFFFFFFFFFFFFFFFFFFFFFFFFF AND DUP2 MSTORE PUSH1 0x20 ADD SWAP1 DUP2 MSTORE PUSH1 0x20 ADD PUSH0 KECCAK256 PUSH1 0x2 ADD SLOAD PUSH2 0x1287 SWAP2 SWAP1 PUSH2 0x1AF4 JUMP JUMPDEST SWAP1 POP PUSH1 0xA PUSH0 CALLER PUSH20 0xFFFFFFFFFFFFFFFFFFFFFFFFFFFFFFFFFFFFFFFF AND PUSH20 0xFFFFFFFFFFFFFFFFFFFFFFFFFFFFFFFFFFFFFFFF AND DUP2 MSTORE PUSH1 0x20 ADD SWAP1 DUP2 MSTORE PUSH1 0x20 ADD PUSH0 KECCAK256 PUSH1 0x3 ADD SLOAD PUSH1 0xA PUSH0 CALLER PUSH20 0xFFFFFFFFFFFFFFFFFFFFFFFFFFFFFFFFFFFFFFFF AND PUSH20 0xFFFFFFFFFFFFFFFFFFFFFFFFFFFFFFFFFFFFFFFF AND DUP2 MSTORE PUSH1 0x20 ADD SWAP1 DUP2 MSTORE PUSH1 0x20 ADD PUSH0 KECCAK256 PUSH1 0x2 ADD DUP2 SWAP1 SSTORE POP PUSH0 DUP2 GT PUSH2 0x1347 JUMPI PUSH1 0x40 MLOAD PUSH32 0xD0D04F6000000000000000000000000000000000000000000000000000000000 DUP2 MSTORE PUSH1 0x4 ADD PUSH1 0x40 MLOAD DUP1 SWAP2 SUB SWAP1 REVERT JUMPDEST CALLER PUSH20 0xFFFFFFFFFFFFFFFFFFFFFFFFFFFFFFFFFFFFFFFF AND PUSH2 0x8FC DUP3 SWAP1 DUP2 ISZERO MUL SWAP1 PUSH1 0x40 MLOAD PUSH0 PUSH1 0x40 MLOAD DUP1 DUP4 SUB DUP2 DUP6 DUP9 DUP9 CALL SWAP4 POP POP POP POP ISZERO DUP1 ISZERO PUSH2 0x138A JUMPI RETURNDATASIZE PUSH0 DUP1 RETURNDATACOPY RETURNDATASIZE PUSH0 REVERT JUMPDEST POP POP POP POP POP JUMP JUMPDEST PUSH1 0x1 DUP1 PUSH0 SWAP1 SLOAD SWAP1 PUSH2 0x100 EXP SWAP1 DIV PUSH1 0xFF AND PUSH1 0x1 DUP2 GT ISZERO PUSH2 0x13B3 JUMPI PUSH2 0x13B2 PUSH2 0x161F JUMP JUMPDEST JUMPDEST PUSH2 0x13BD SWAP2 SWAP1 PUSH2 0x1732 JUMP JUMPDEST PUSH1 0x1 DUP2 GT ISZERO PUSH2 0x13CF JUMPI PUSH2 0x13CE PUSH2 0x161F JUMP JUMPDEST JUMPDEST PUSH1 0x1 PUSH0 PUSH2 0x100 EXP DUP2 SLOAD DUP2 PUSH1 0xFF MUL NOT AND SWAP1 DUP4 PUSH1 0x1 DUP2 GT ISZERO PUSH2 0x13F2 JUMPI PUSH2 0x13F1 PUSH2 0x161F JUMP JUMPDEST JUMPDEST MUL OR SWAP1 SSTORE POP JUMP JUMPDEST PUSH1 0x40 MLOAD DUP1 PUSH1 0xA0 ADD PUSH1 0x40 MSTORE DUP1 PUSH0 ISZERO ISZERO DUP2 MSTORE PUSH1 0x20 ADD PUSH0 DUP2 MSTORE PUSH1 0x20 ADD PUSH0 DUP2 MSTORE PUSH1 0x20 ADD PUSH0 DUP2 MSTORE PUSH1 0x20 ADD PUSH0 PUSH20 0xFFFFFFFFFFFFFFFFFFFFFFFFFFFFFFFFFFFFFFFF AND DUP2 MSTORE POP SWAP1 JUMP JUMPDEST PUSH0 DUP2 MLOAD SWAP1 POP SWAP2 SWAP1 POP JUMP JUMPDEST PUSH0 DUP3 DUP3 MSTORE PUSH1 0x20 DUP3 ADD SWAP1 POP SWAP3 SWAP2 POP POP JUMP JUMPDEST PUSH0 DUP2 SWAP1 POP PUSH1 0x20 DUP3 ADD SWAP1 POP SWAP2 SWAP1 POP JUMP JUMPDEST PUSH0 DUP2 ISZERO ISZERO SWAP1 POP SWAP2 SWAP1 POP JUMP JUMPDEST PUSH2 0x1478 DUP2 PUSH2 0x1464 JUMP JUMPDEST DUP3 MSTORE POP POP JUMP JUMPDEST PUSH0 DUP2 SWAP1 POP SWAP2 SWAP1 POP JUMP JUMPDEST PUSH2 0x1490 DUP2 PUSH2 0x147E JUMP JUMPDEST DUP3 MSTORE POP POP JUMP JUMPDEST PUSH0 PUSH20 0xFFFFFFFFFFFFFFFFFFFFFFFFFFFFFFFFFFFFFFFF DUP3 AND SWAP1 POP SWAP2 SWAP1 POP JUMP JUMPDEST PUSH0 PUSH2 0x14BF DUP3 PUSH2 0x1496 JUMP JUMPDEST SWAP1 POP SWAP2 SWAP1 POP JUMP JUMPDEST PUSH2 0x14CF DUP2 PUSH2 0x14B5 JUMP JUMPDEST DUP3 MSTORE POP POP JUMP JUMPDEST PUSH1 0xA0 DUP3 ADD PUSH0 DUP3 ADD MLOAD PUSH2 0x14E9 PUSH0 DUP6 ADD DUP3 PUSH2 0x146F JUMP JUMPDEST POP PUSH1 0x20 DUP3 ADD MLOAD PUSH2 0x14FC PUSH1 0x20 DUP6 ADD DUP3 PUSH2 0x1487 JUMP JUMPDEST POP PUSH1 0x40 DUP3 ADD MLOAD PUSH2 0x150F PUSH1 0x40 DUP6 ADD DUP3 PUSH2 0x1487 JUMP JUMPDEST POP PUSH1 0x60 DUP3 ADD MLOAD PUSH2 0x1522 PUSH1 0x60 DUP6 ADD DUP3 PUSH2 0x1487 JUMP JUMPDEST POP PUSH1 0x80 DUP3 ADD MLOAD PUSH2 0x1535 PUSH1 0x80 DUP6 ADD DUP3 PUSH2 0x14C6 JUMP JUMPDEST POP POP POP POP JUMP JUMPDEST PUSH0 PUSH2 0x1546 DUP4 DUP4 PUSH2 0x14D5 JUMP JUMPDEST PUSH1 0xA0 DUP4 ADD SWAP1 POP SWAP3 SWAP2 POP POP JUMP JUMPDEST PUSH0 PUSH1 0x20 DUP3 ADD SWAP1 POP SWAP2 SWAP1 POP JUMP JUMPDEST PUSH0 PUSH2 0x1568 DUP3 PUSH2 0x143B JUMP JUMPDEST PUSH2 0x1572 DUP2 DUP6 PUSH2 0x1445 JUMP JUMPDEST SWAP4 POP PUSH2 0x157D DUP4 PUSH2 0x1455 JUMP JUMPDEST DUP1 PUSH0 JUMPDEST DUP4 DUP2 LT ISZERO PUSH2 0x15AD JUMPI DUP2 MLOAD PUSH2 0x1594 DUP9 DUP3 PUSH2 0x153B JUMP JUMPDEST SWAP8 POP PUSH2 0x159F DUP4 PUSH2 0x1552 JUMP JUMPDEST SWAP3 POP POP PUSH1 0x1 DUP2 ADD SWAP1 POP PUSH2 0x1580 JUMP JUMPDEST POP DUP6 SWAP4 POP POP POP POP SWAP3 SWAP2 POP POP JUMP JUMPDEST PUSH0 PUSH1 0x20 DUP3 ADD SWAP1 POP DUP2 DUP2 SUB PUSH0 DUP4 ADD MSTORE PUSH2 0x15D2 DUP2 DUP5 PUSH2 0x155E JUMP JUMPDEST SWAP1 POP SWAP3 SWAP2 POP POP JUMP JUMPDEST PUSH2 0x15E3 DUP2 PUSH2 0x14B5 JUMP JUMPDEST DUP3 MSTORE POP POP JUMP JUMPDEST PUSH2 0x15F2 DUP2 PUSH2 0x147E JUMP JUMPDEST DUP3 MSTORE POP POP JUMP JUMPDEST PUSH0 PUSH1 0x40 DUP3 ADD SWAP1 POP PUSH2 0x160B PUSH0 DUP4 ADD DUP6 PUSH2 0x15DA JUMP JUMPDEST PUSH2 0x1618 PUSH1 0x20 DUP4 ADD DUP5 PUSH2 0x15E9 JUMP JUMPDEST SWAP4 SWAP3 POP POP POP JUMP JUMPDEST PUSH32 0x4E487B7100000000000000000000000000000000000000000000000000000000 PUSH0 MSTORE PUSH1 0x21 PUSH1 0x4 MSTORE PUSH1 0x24 PUSH0 REVERT JUMPDEST PUSH1 0x2 DUP2 LT PUSH2 0x165D JUMPI PUSH2 0x165C PUSH2 0x161F JUMP JUMPDEST JUMPDEST POP JUMP JUMPDEST PUSH0 DUP2 SWAP1 POP PUSH2 0x166D DUP3 PUSH2 0x164C JUMP JUMPDEST SWAP2 SWAP1 POP JUMP JUMPDEST PUSH0 PUSH2 0x167C DUP3 PUSH2 0x1660 JUMP JUMPDEST SWAP1 POP SWAP2 SWAP1 POP JUMP JUMPDEST PUSH2 0x168C DUP2 PUSH2 0x1672 JUMP JUMPDEST DUP3 MSTORE POP POP JUMP JUMPDEST PUSH0 PUSH1 0x20 DUP3 ADD SWAP1 POP PUSH2 0x16A5 PUSH0 DUP4 ADD DUP5 PUSH2 0x1683 JUMP JUMPDEST SWAP3 SWAP2 POP POP JUMP JUMPDEST PUSH32 0x4E487B7100000000000000000000000000000000000000000000000000000000 PUSH0 MSTORE PUSH1 0x41 PUSH1 0x4 MSTORE PUSH1 0x24 PUSH0 REVERT JUMPDEST PUSH32 0x4E487B7100000000000000000000000000000000000000000000000000000000 PUSH0 MSTORE PUSH1 0x32 PUSH1 0x4 MSTORE PUSH1 0x24 PUSH0 REVERT JUMPDEST PUSH32 0x4E487B7100000000000000000000000000000000000000000000000000000000 PUSH0 MSTORE PUSH1 0x11 PUSH1 0x4 MSTORE PUSH1 0x24 PUSH0 REVERT JUMPDEST PUSH0 PUSH2 0x173C DUP3 PUSH2 0x147E JUMP JUMPDEST SWAP2 POP PUSH2 0x1747 DUP4 PUSH2 0x147E JUMP JUMPDEST SWAP3 POP DUP3 DUP3 ADD SWAP1 POP DUP1 DUP3 GT ISZERO PUSH2 0x175F JUMPI PUSH2 0x175E PUSH2 0x1705 JUMP JUMPDEST JUMPDEST SWAP3 SWAP2 POP POP JUMP JUMPDEST PUSH0 PUSH2 0x176F DUP3 PUSH2 0x147E JUMP JUMPDEST SWAP2 POP PUSH2 0x177A DUP4 PUSH2 0x147E JUMP JUMPDEST SWAP3 POP DUP3 DUP3 MUL PUSH2 0x1788 DUP2 PUSH2 0x147E JUMP JUMPDEST SWAP2 POP DUP3 DUP3 DIV DUP5 EQ DUP4 ISZERO OR PUSH2 0x179F JUMPI PUSH2 0x179E PUSH2 0x1705 JUMP JUMPDEST JUMPDEST POP SWAP3 SWAP2 POP POP JUMP JUMPDEST PUSH32 0x4E487B7100000000000000000000000000000000000000000000000000000000 PUSH0 MSTORE PUSH1 0x12 PUSH1 0x4 MSTORE PUSH1 0x24 PUSH0 REVERT JUMPDEST PUSH0 PUSH2 0x17DD DUP3 PUSH2 0x147E JUMP JUMPDEST SWAP2 POP PUSH2 0x17E8 DUP4 PUSH2 0x147E JUMP JUMPDEST SWAP3 POP DUP3 PUSH2 0x17F8 JUMPI PUSH2 0x17F7 PUSH2 0x17A6 JUMP JUMPDEST JUMPDEST DUP3 DUP3 DIV SWAP1 POP SWAP3 SWAP2 POP POP JUMP JUMPDEST PUSH0 DUP3 DUP3 MSTORE PUSH1 0x20 DUP3 ADD SWAP1 POP SWAP3 SWAP2 POP POP JUMP JUMPDEST PUSH32 0x412076616C696420626964206D75737420626520352025206772656174657220 PUSH0 DUP3 ADD MSTORE PUSH32 0x7468616E20746865206C617374206269642E0000000000000000000000000000 PUSH1 0x20 DUP3 ADD MSTORE POP JUMP JUMPDEST PUSH0 PUSH2 0x186D PUSH1 0x32 DUP4 PUSH2 0x1803 JUMP JUMPDEST SWAP2 POP PUSH2 0x1878 DUP3 PUSH2 0x1813 JUMP JUMPDEST PUSH1 0x40 DUP3 ADD SWAP1 POP SWAP2 SWAP1 POP JUMP JUMPDEST PUSH0 PUSH1 0x20 DUP3 ADD SWAP1 POP DUP2 DUP2 SUB PUSH0 DUP4 ADD MSTORE PUSH2 0x189A DUP2 PUSH2 0x1861 JUMP JUMPDEST SWAP1 POP SWAP2 SWAP1 POP JUMP JUMPDEST PUSH0 PUSH1 0x20 DUP3 ADD SWAP1 POP PUSH2 0x18B4 PUSH0 DUP4 ADD DUP5 PUSH2 0x15E9 JUMP JUMPDEST SWAP3 SWAP2 POP POP JUMP JUMPDEST PUSH32 0x4F6E6C792041646D696E205573657220697320616C6C6F7765642E0000000000 PUSH0 DUP3 ADD MSTORE POP JUMP JUMPDEST PUSH0 PUSH2 0x18EE PUSH1 0x1B DUP4 PUSH2 0x1803 JUMP JUMPDEST SWAP2 POP PUSH2 0x18F9 DUP3 PUSH2 0x18BA JUMP JUMPDEST PUSH1 0x20 DUP3 ADD SWAP1 POP SWAP2 SWAP1 POP JUMP JUMPDEST PUSH0 PUSH1 0x20 DUP3 ADD SWAP1 POP DUP2 DUP2 SUB PUSH0 DUP4 ADD MSTORE PUSH2 0x191B DUP2 PUSH2 0x18E2 JUMP JUMPDEST SWAP1 POP SWAP2 SWAP1 POP JUMP JUMPDEST PUSH32 0x4F6E6C79204269646465722061726520616C6C6F7765642E0000000000000000 PUSH0 DUP3 ADD MSTORE POP JUMP JUMPDEST PUSH0 PUSH2 0x1956 PUSH1 0x18 DUP4 PUSH2 0x1803 JUMP JUMPDEST SWAP2 POP PUSH2 0x1961 DUP3 PUSH2 0x1922 JUMP JUMPDEST PUSH1 0x20 DUP3 ADD SWAP1 POP SWAP2 SWAP1 POP JUMP JUMPDEST PUSH0 PUSH1 0x20 DUP3 ADD SWAP1 POP DUP2 DUP2 SUB PUSH0 DUP4 ADD MSTORE PUSH2 0x1983 DUP2 PUSH2 0x194A JUMP JUMPDEST SWAP1 POP SWAP2 SWAP1 POP JUMP JUMPDEST PUSH32 0x4E487B7100000000000000000000000000000000000000000000000000000000 PUSH0 MSTORE PUSH1 0x22 PUSH1 0x4 MSTORE PUSH1 0x24 PUSH0 REVERT JUMPDEST PUSH0 PUSH1 0x2 DUP3 DIV SWAP1 POP PUSH1 0x1 DUP3 AND DUP1 PUSH2 0x19CE JUMPI PUSH1 0x7F DUP3 AND SWAP2 POP JUMPDEST PUSH1 0x20 DUP3 LT DUP2 SUB PUSH2 0x19E1 JUMPI PUSH2 0x19E0 PUSH2 0x198A JUMP JUMPDEST JUMPDEST POP SWAP2 SWAP1 POP JUMP JUMPDEST PUSH0 DUP2 SWAP1 POP SWAP3 SWAP2 POP POP JUMP JUMPDEST PUSH0 DUP2 SWAP1 POP DUP2 PUSH0 MSTORE PUSH1 0x20 PUSH0 KECCAK256 SWAP1 POP SWAP2 SWAP1 POP JUMP JUMPDEST PUSH0 DUP2 SLOAD PUSH2 0x1A0F DUP2 PUSH2 0x19B7 JUMP JUMPDEST PUSH2 0x1A19 DUP2 DUP7 PUSH2 0x19E7 JUMP JUMPDEST SWAP5 POP PUSH1 0x1 DUP3 AND PUSH0 DUP2 EQ PUSH2 0x1A33 JUMPI PUSH1 0x1 DUP2 EQ PUSH2 0x1A48 JUMPI PUSH2 0x1A7A JUMP JUMPDEST PUSH1 0xFF NOT DUP4 AND DUP7 MSTORE DUP2 ISZERO ISZERO DUP3 MUL DUP7 ADD SWAP4 POP PUSH2 0x1A7A JUMP JUMPDEST PUSH2 0x1A51 DUP6 PUSH2 0x19F1 JUMP JUMPDEST PUSH0 JUMPDEST DUP4 DUP2 LT ISZERO PUSH2 0x1A72 JUMPI DUP2 SLOAD DUP2 DUP10 ADD MSTORE PUSH1 0x1 DUP3 ADD SWAP2 POP PUSH1 0x20 DUP2 ADD SWAP1 POP PUSH2 0x1A53 JUMP JUMPDEST DUP4 DUP9 ADD SWAP6 POP POP POP JUMPDEST POP POP POP SWAP3 SWAP2 POP POP JUMP JUMPDEST PUSH0 PUSH2 0x1A8E DUP3 DUP5 PUSH2 0x1A03 JUMP JUMPDEST SWAP2 POP DUP2 SWAP1 POP SWAP3 SWAP2 POP POP JUMP JUMPDEST PUSH0 DUP2 SWAP1 POP SWAP2 SWAP1 POP JUMP JUMPDEST PUSH0 DUP2 SWAP1 POP SWAP2 SWAP1 POP JUMP JUMPDEST PUSH0 PUSH2 0x1AC5 PUSH2 0x1AC0 PUSH2 0x1ABB DUP5 PUSH2 0x1A99 JUMP JUMPDEST PUSH2 0x1AA2 JUMP JUMPDEST PUSH2 0x147E JUMP JUMPDEST SWAP1 POP SWAP2 SWAP1 POP JUMP JUMPDEST PUSH2 0x1AD5 DUP2 PUSH2 0x1AAB JUMP JUMPDEST DUP3 MSTORE POP POP JUMP JUMPDEST PUSH0 PUSH1 0x20 DUP3 ADD SWAP1 POP PUSH2 0x1AEE PUSH0 DUP4 ADD DUP5 PUSH2 0x1ACC JUMP JUMPDEST SWAP3 SWAP2 POP POP JUMP JUMPDEST PUSH0 PUSH2 0x1AFE DUP3 PUSH2 0x147E JUMP JUMPDEST SWAP2 POP PUSH2 0x1B09 DUP4 PUSH2 0x147E JUMP JUMPDEST SWAP3 POP DUP3 DUP3 SUB SWAP1 POP DUP2 DUP2 GT ISZERO PUSH2 0x1B21 JUMPI PUSH2 0x1B20 PUSH2 0x1705 JUMP JUMPDEST JUMPDEST SWAP3 SWAP2 POP POP JUMP INVALID LOG2 PUSH5 0x6970667358 0x22 SLT KECCAK256 TSTORE CALLDATASIZE 0xD3 0xDD 0xD5 SWAP7 SWAP5 PUSH31 0x81A93EEAB67AA8627E4EFFA6FA496E9D0BFD49EEB58540BB64736F6C634300 ADDMOD BYTE STOP CALLER "
				},
				"gasEstimates": {
					"creation": {
						"codeDepositCost": "1401000",
						"executionCost": "infinite",
						"totalCost": "infinite"
					},
					"external": {
						"bid()": "infinite",
						"close()": "infinite",
						"showBids()": "infinite",
						"showWinner()": "infinite",
						"withdrawal()": "infinite"
					},
					"internal": {
						"nextStage()": "infinite"
					}
				},
				"methodIdentifiers": {
					"bid()": "1998aeef",
					"close()": "43d726d6",
					"showBids()": "14d2687c",
					"showWinner()": "b7e03264",
					"withdrawal()": "d4e93292"
				}
			},
			"storageLayout": {
				"storage": [
					{
						"astId": 4,
						"contract": "tp2/auction.sol:Auction",
						"label": "completionTime",
						"offset": 0,
						"slot": "0",
						"type": "t_uint256"
					},
					{
						"astId": 7,
						"contract": "tp2/auction.sol:Auction",
						"label": "stage",
						"offset": 0,
						"slot": "1",
						"type": "t_enum(Stage)83"
					},
					{
						"astId": 10,
						"contract": "tp2/auction.sol:Auction",
						"label": "lastBid",
						"offset": 0,
						"slot": "2",
						"type": "t_struct(Bid)79_storage"
					},
					{
						"astId": 12,
						"contract": "tp2/auction.sol:Auction",
						"label": "admin",
						"offset": 0,
						"slot": "7",
						"type": "t_address"
					},
					{
						"astId": 14,
						"contract": "tp2/auction.sol:Auction",
						"label": "auctioneItem",
						"offset": 0,
						"slot": "8",
						"type": "t_string_storage"
					},
					{
						"astId": 17,
						"contract": "tp2/auction.sol:Auction",
						"label": "bidders",
						"offset": 0,
						"slot": "9",
						"type": "t_array(t_address)dyn_storage"
					},
					{
						"astId": 22,
						"contract": "tp2/auction.sol:Auction",
						"label": "balances",
						"offset": 0,
						"slot": "10",
						"type": "t_mapping(t_address,t_struct(Bid)79_storage)"
					}
				],
				"types": {
					"t_address": {
						"encoding": "inplace",
						"label": "address",
						"numberOfBytes": "20"
					},
					"t_array(t_address)dyn_storage": {
						"base": "t_address",
						"encoding": "dynamic_array",
						"label": "address[]",
						"numberOfBytes": "32"
					},
					"t_bool": {
						"encoding": "inplace",
						"label": "bool",
						"numberOfBytes": "1"
					},
					"t_enum(Stage)83": {
						"encoding": "inplace",
						"label": "enum Auction.Stage",
						"numberOfBytes": "1"
					},
					"t_mapping(t_address,t_struct(Bid)79_storage)": {
						"encoding": "mapping",
						"key": "t_address",
						"label": "mapping(address => struct Auction.Bid)",
						"numberOfBytes": "32",
						"value": "t_struct(Bid)79_storage"
					},
					"t_string_storage": {
						"encoding": "bytes",
						"label": "string",
						"numberOfBytes": "32"
					},
					"t_struct(Bid)79_storage": {
						"encoding": "inplace",
						"label": "struct Auction.Bid",
						"members": [
							{
								"astId": 70,
								"contract": "tp2/auction.sol:Auction",
								"label": "exists",
								"offset": 0,
								"slot": "0",
								"type": "t_bool"
							},
							{
								"astId": 72,
								"contract": "tp2/auction.sol:Auction",
								"label": "timestamp",
								"offset": 0,
								"slot": "1",
								"type": "t_uint256"
							},
							{
								"astId": 74,
								"contract": "tp2/auction.sol:Auction",
								"label": "accumulated",
								"offset": 0,
								"slot": "2",
								"type": "t_uint256"
							},
							{
								"astId": 76,
								"contract": "tp2/auction.sol:Auction",
								"label": "amount",
								"offset": 0,
								"slot": "3",
								"type": "t_uint256"
							},
							{
								"astId": 78,
								"contract": "tp2/auction.sol:Auction",
								"label": "owner",
								"offset": 0,
								"slot": "4",
								"type": "t_address"
							}
						],
						"numberOfBytes": "160"
					},
					"t_uint256": {
						"encoding": "inplace",
						"label": "uint256",
						"numberOfBytes": "32"
					}
				}
			},
			"userdoc": {
				"errors": {
					"AccessNotAllowed(string)": [
						{
							"notice": "Error that is thrown when the user does not have a valid role to perform this action."
						}
					],
					"NotAllowedAtStage(uint8)": [
						{
							"notice": "Error that is thrown when the user tries to perform an action not allowed in the current stage."
						}
					],
					"NotEnoughHigh(string)": [
						{
							"notice": "Error that is thrown when a bid is lower than 5% greater of the previous bid"
						}
					],
					"NotWinningBid()": [
						{
							"notice": "Error that is thrown when no bid has been placed and the Auction has ended without a bid."
						}
					],
					"NothingToWithdraw()": [
						{
							"notice": "Error that is thrown when a bidder tries to withdraw remaining funds that you do not have"
						}
					]
				},
				"events": {
					"AuctionFinished(string,address,uint256)": {
						"notice": "Event emitted when the auction is over and a winner was found."
					},
					"AuctionOpened(string,uint256)": {
						"notice": "Event emitted when the auction is open and bids are placed."
					},
					"NewBid(address,uint256)": {
						"notice": "Event emitted when a new bid is placed in the Auction."
					}
				},
				"kind": "user",
				"methods": {
					"bid()": {
						"notice": "Function that places a bid on the auction, it will revert with an error code in case of bid isn't a 5% higher than the last one."
					},
					"close()": {
						"notice": "Function that closes the auction and transfers all remaining funds to the bidders that didn't won the auction, taking 2% as commission."
					},
					"constructor": {
						"notice": "Constructor that setup the auction configuration and announces the opening of the auction"
					},
					"showWinner()": {
						"notice": "Function tha allow to get the address of the highest bidder, the amount of his bids, if he has been placed any bid or not."
					},
					"withdrawal()": {
						"notice": "Function that allows bidders to withdraw the remaining funds from the last bid. It will reverse with an error code if the bidder has no remaining funds to withdraw."
					}
				},
				"notice": "This contract manages an Auction allowing bidders to place a higher bid to win the item up for auction.",
				"version": 1
			}
		}
	}
}